{
  "address": "0xECa2E51406111B31f2B1277aD61f528A2eECe585",
  "abi": [
    {
      "inputs": [],
      "stateMutability": "nonpayable",
      "type": "constructor"
    },
    {
      "anonymous": false,
      "inputs": [
        {
          "indexed": true,
          "internalType": "bytes16",
          "name": "marketId",
          "type": "bytes16"
        },
        {
          "indexed": true,
          "internalType": "bytes16",
          "name": "propositionId",
          "type": "bytes16"
        }
      ],
      "name": "ResultSet",
      "type": "event"
    },
    {
      "anonymous": false,
      "inputs": [
        {
          "indexed": true,
          "internalType": "bytes16",
          "name": "marketId",
          "type": "bytes16"
        },
        {
          "indexed": true,
          "internalType": "bytes16",
          "name": "propositionId",
          "type": "bytes16"
        }
      ],
      "name": "ScratchedSet",
      "type": "event"
    },
    {
      "inputs": [],
      "name": "LOSER",
      "outputs": [
        {
          "internalType": "uint8",
          "name": "",
          "type": "uint8"
        }
      ],
      "stateMutability": "view",
      "type": "function"
    },
    {
      "inputs": [],
      "name": "SCRATCHED",
      "outputs": [
        {
          "internalType": "uint8",
          "name": "",
          "type": "uint8"
        }
      ],
      "stateMutability": "view",
      "type": "function"
    },
    {
      "inputs": [],
      "name": "WINNER",
      "outputs": [
        {
          "internalType": "uint8",
          "name": "",
          "type": "uint8"
        }
      ],
      "stateMutability": "view",
      "type": "function"
    },
    {
      "inputs": [
        {
          "internalType": "bytes16",
          "name": "marketId",
          "type": "bytes16"
        },
        {
          "internalType": "bytes16",
          "name": "propositionId",
          "type": "bytes16"
        }
      ],
      "name": "checkResult",
      "outputs": [
        {
          "internalType": "uint8",
          "name": "",
          "type": "uint8"
        }
      ],
      "stateMutability": "view",
      "type": "function"
    },
    {
      "inputs": [],
      "name": "getOwner",
      "outputs": [
        {
          "internalType": "address",
          "name": "",
          "type": "address"
        }
      ],
      "stateMutability": "view",
      "type": "function"
    },
    {
      "inputs": [
        {
          "internalType": "bytes16",
          "name": "marketId",
          "type": "bytes16"
        }
      ],
      "name": "getResult",
      "outputs": [
        {
          "components": [
            {
              "internalType": "bytes16",
              "name": "winningPropositionId",
              "type": "bytes16"
            },
            {
              "components": [
                {
                  "internalType": "bytes16",
                  "name": "scratchedPropositionId",
                  "type": "bytes16"
                },
                {
                  "internalType": "uint256",
                  "name": "timestamp",
                  "type": "uint256"
                },
                {
                  "internalType": "uint256",
                  "name": "odds",
                  "type": "uint256"
                }
              ],
              "internalType": "struct IOracle.Scratched[]",
              "name": "scratched",
              "type": "tuple[]"
            }
          ],
          "internalType": "struct IOracle.Result",
          "name": "",
          "type": "tuple"
        }
      ],
      "stateMutability": "view",
      "type": "function"
    },
    {
      "inputs": [
        {
          "internalType": "bytes16",
          "name": "marketId",
          "type": "bytes16"
        },
        {
          "internalType": "bytes16",
          "name": "winningPropositionId",
          "type": "bytes16"
        },
        {
          "components": [
            {
              "internalType": "uint8",
              "name": "v",
              "type": "uint8"
            },
            {
              "internalType": "bytes32",
              "name": "r",
              "type": "bytes32"
            },
            {
              "internalType": "bytes32",
              "name": "s",
              "type": "bytes32"
            }
          ],
          "internalType": "struct SignatureLib.Signature",
          "name": "signature",
          "type": "tuple"
        }
      ],
      "name": "setResult",
      "outputs": [],
      "stateMutability": "nonpayable",
      "type": "function"
    },
    {
      "inputs": [
        {
          "internalType": "bytes16",
          "name": "marketId",
          "type": "bytes16"
        },
        {
          "internalType": "bytes16",
          "name": "scratchedPropositionId",
          "type": "bytes16"
        },
        {
          "internalType": "uint256",
          "name": "odds",
          "type": "uint256"
        },
        {
          "components": [
            {
              "internalType": "uint8",
              "name": "v",
              "type": "uint8"
            },
            {
              "internalType": "bytes32",
              "name": "r",
              "type": "bytes32"
            },
            {
              "internalType": "bytes32",
              "name": "s",
              "type": "bytes32"
            }
          ],
          "internalType": "struct SignatureLib.Signature",
          "name": "signature",
          "type": "tuple"
        }
      ],
      "name": "setScratchedResult",
      "outputs": [],
      "stateMutability": "nonpayable",
      "type": "function"
    }
  ],
  "transactionHash": "0x4e54f40550db06d90e82d27e4f0a4feeb6b1567e79261ff223dbafaeed55f03c",
  "args": [],
  "numDeployments": 2,
  "solcInputHash": "ffc41c4d5b2d089339289d0d037a4f0c",
  "bytecode": "0x60a060405234801561001057600080fd5b5033608052608051610b566100366000396000818160f901526108880152610b566000f3fe608060405234801561001057600080fd5b50600436106100885760003560e01c80639a56d9191161005b5780639a56d91914610123578063b108501f14610136578063bc985bc91461013e578063d1e90d621461014657600080fd5b806306c77ce71461008d5780631b623407146100b75780634b51e70a146100cc578063893d20e8146100ec575b600080fd5b6100a061009b3660046108e1565b61014e565b60405160ff90911681526020015b60405180910390f35b6100ca6100c536600461092c565b610292565b005b6100df6100da36600461097a565b61052a565b6040516100ae919061099c565b6040516001600160a01b037f00000000000000000000000000000000000000000000000000000000000000001681526020016100ae565b6100ca610131366004610a24565b61064a565b6100a0600181565b6100a0600381565b6100a0600281565b60006001600160801b031982166101b75760405162461bcd60e51b815260206004820152602260248201527f636865636b526573756c743a20496e76616c69642070726f706f736974696f6e604482015261125960f21b60648201526084015b60405180910390fd5b6001600160801b031983811660009081526020819052604090205481841660809190911b909116036101eb5750600161028c565b6001600160801b03198316600090815260208190526040812060010154905b81811015610285576001600160801b031985811660009081526020819052604090206001018054918616918390811061024557610245610a68565b600091825260209091206003909102015460801b6001600160801b031916036102735760039250505061028c565b8061027d81610a7e565b91505061020a565b5060029150505b92915050565b604080516001600160801b03198087166020830152851660308201529081018390526000906060016040516020818303038152906040528051906020012090506102dc81836107f1565b6103365760405162461bcd60e51b815260206004820152602560248201527f736574536372617463686564526573756c743a20496e76616c6964207369676e604482015264617475726560d81b60648201526084016101ae565b6001600160801b0319841661039f5760405162461bcd60e51b815260206004820152602960248201527f736574536372617463686564526573756c743a20496e76616c69642070726f706044820152681bdcda5d1a5bdb925960ba1b60648201526084016101ae565b6001600160801b03198516600090815260208190526040812060010154905b81811015610485576001600160801b03198781166000908152602081905260409020600101805491881691839081106103f9576103f9610a68565b600091825260209091206003909102015460801b6001600160801b031916036104735760405162461bcd60e51b815260206004820152602660248201527f736574536372617463686564526573756c743a20526573756c7420616c726561604482015265191e481cd95d60d21b60648201526084016101ae565b8061047d81610a7e565b9150506103be565b506001600160801b031986811660008181526020818152604080832081516060810183528b8716808252428286019081528285018d815260019485018054808701825590895296882093516003909702909301805490991660809690961c9590951788559351918701919091555160029095019490945592517f7ebfaa5cc08727235b615a1e2ac630f84eea185e0687caccec932c2134922e129190a3505050505050565b6040805180820190915260008152606060208201526001600160801b031982166105965760405162461bcd60e51b815260206004820181905260248201527f676574526573756c743a20496e76616c69642070726f706f736974696f6e496460448201526064016101ae565b6001600160801b031980831660009081526020818152604080832081518083018352815460801b909516855260018101805483518186028101860190945280845291948685019491929184015b8282101561063c5760008481526020908190206040805160608101825260038602909201805460801b6001600160801b0319168352600180820154848601526002909101549183019190915290835290920191016105e3565b505050915250909392505050565b604080516001600160801b03198086166020830152841660308201526000910160405160208183030381529060405280519060200120905061068c81836107f1565b6106d85760405162461bcd60e51b815260206004820152601c60248201527f736574526573756c743a20496e76616c6964207369676e61747572650000000060448201526064016101ae565b6001600160801b0319831661072f5760405162461bcd60e51b815260206004820181905260248201527f736574526573756c743a20496e76616c69642070726f706f736974696f6e496460448201526064016101ae565b6001600160801b031984811660009081526020819052604090205460801b161561079b5760405162461bcd60e51b815260206004820152601d60248201527f736574526573756c743a20526573756c7420616c72656164792073657400000060448201526064016101ae565b6001600160801b031984811660008181526020819052604080822080548516608089901c17905551928616927f1a26e02557415617cb31ed9c9ac1bbe2c8f5e32b8f13ddc706d9ad0afb3c2b449190a350505050565b600080732CFb7A620A699229a41C66E530b1C06877f3982F635cff288d85856040518363ffffffff1660e01b815260040161082d929190610aa5565b602060405180830381865af415801561084a573d6000803e3d6000fd5b505050506040513d601f19601f8201168201806040525081019061086e9190610ae1565b90506001600160a01b03811661088657610886610b0a565b7f00000000000000000000000000000000000000000000000000000000000000006001600160a01b0316816001600160a01b03161491505092915050565b80356001600160801b0319811681146108dc57600080fd5b919050565b600080604083850312156108f457600080fd5b6108fd836108c4565b915061090b602084016108c4565b90509250929050565b60006060828403121561092657600080fd5b50919050565b60008060008060c0858703121561094257600080fd5b61094b856108c4565b9350610959602086016108c4565b92506040850135915061096f8660608701610914565b905092959194509250565b60006020828403121561098c57600080fd5b610995826108c4565b9392505050565b6000602080835260608084016fffffffffffffffffffffffffffffffff198087511684870152838701516040808189015283825180865260808a0191508784019550600093505b80841015610a165785518051861683528881015189840152830151838301529487019460019390930192908601906109e3565b509998505050505050505050565b600080600060a08486031215610a3957600080fd5b610a42846108c4565b9250610a50602085016108c4565b9150610a5f8560408601610914565b90509250925092565b634e487b7160e01b600052603260045260246000fd5b600060018201610a9e57634e487b7160e01b600052601160045260246000fd5b5060010190565b82815260808101823560ff8116808214610abe57600080fd5b806020850152505060208301356040830152604083013560608301529392505050565b600060208284031215610af357600080fd5b81516001600160a01b038116811461099557600080fd5b634e487b7160e01b600052600160045260246000fdfea2646970667358221220445e9acca068d1aee098231d648b9e6ebce31389e02015ccdc675284832b8eba64736f6c634300080f0033",
  "deployedBytecode": "0x608060405234801561001057600080fd5b50600436106100885760003560e01c80639a56d9191161005b5780639a56d91914610123578063b108501f14610136578063bc985bc91461013e578063d1e90d621461014657600080fd5b806306c77ce71461008d5780631b623407146100b75780634b51e70a146100cc578063893d20e8146100ec575b600080fd5b6100a061009b3660046108e1565b61014e565b60405160ff90911681526020015b60405180910390f35b6100ca6100c536600461092c565b610292565b005b6100df6100da36600461097a565b61052a565b6040516100ae919061099c565b6040516001600160a01b037f00000000000000000000000000000000000000000000000000000000000000001681526020016100ae565b6100ca610131366004610a24565b61064a565b6100a0600181565b6100a0600381565b6100a0600281565b60006001600160801b031982166101b75760405162461bcd60e51b815260206004820152602260248201527f636865636b526573756c743a20496e76616c69642070726f706f736974696f6e604482015261125960f21b60648201526084015b60405180910390fd5b6001600160801b031983811660009081526020819052604090205481841660809190911b909116036101eb5750600161028c565b6001600160801b03198316600090815260208190526040812060010154905b81811015610285576001600160801b031985811660009081526020819052604090206001018054918616918390811061024557610245610a68565b600091825260209091206003909102015460801b6001600160801b031916036102735760039250505061028c565b8061027d81610a7e565b91505061020a565b5060029150505b92915050565b604080516001600160801b03198087166020830152851660308201529081018390526000906060016040516020818303038152906040528051906020012090506102dc81836107f1565b6103365760405162461bcd60e51b815260206004820152602560248201527f736574536372617463686564526573756c743a20496e76616c6964207369676e604482015264617475726560d81b60648201526084016101ae565b6001600160801b0319841661039f5760405162461bcd60e51b815260206004820152602960248201527f736574536372617463686564526573756c743a20496e76616c69642070726f706044820152681bdcda5d1a5bdb925960ba1b60648201526084016101ae565b6001600160801b03198516600090815260208190526040812060010154905b81811015610485576001600160801b03198781166000908152602081905260409020600101805491881691839081106103f9576103f9610a68565b600091825260209091206003909102015460801b6001600160801b031916036104735760405162461bcd60e51b815260206004820152602660248201527f736574536372617463686564526573756c743a20526573756c7420616c726561604482015265191e481cd95d60d21b60648201526084016101ae565b8061047d81610a7e565b9150506103be565b506001600160801b031986811660008181526020818152604080832081516060810183528b8716808252428286019081528285018d815260019485018054808701825590895296882093516003909702909301805490991660809690961c9590951788559351918701919091555160029095019490945592517f7ebfaa5cc08727235b615a1e2ac630f84eea185e0687caccec932c2134922e129190a3505050505050565b6040805180820190915260008152606060208201526001600160801b031982166105965760405162461bcd60e51b815260206004820181905260248201527f676574526573756c743a20496e76616c69642070726f706f736974696f6e496460448201526064016101ae565b6001600160801b031980831660009081526020818152604080832081518083018352815460801b909516855260018101805483518186028101860190945280845291948685019491929184015b8282101561063c5760008481526020908190206040805160608101825260038602909201805460801b6001600160801b0319168352600180820154848601526002909101549183019190915290835290920191016105e3565b505050915250909392505050565b604080516001600160801b03198086166020830152841660308201526000910160405160208183030381529060405280519060200120905061068c81836107f1565b6106d85760405162461bcd60e51b815260206004820152601c60248201527f736574526573756c743a20496e76616c6964207369676e61747572650000000060448201526064016101ae565b6001600160801b0319831661072f5760405162461bcd60e51b815260206004820181905260248201527f736574526573756c743a20496e76616c69642070726f706f736974696f6e496460448201526064016101ae565b6001600160801b031984811660009081526020819052604090205460801b161561079b5760405162461bcd60e51b815260206004820152601d60248201527f736574526573756c743a20526573756c7420616c72656164792073657400000060448201526064016101ae565b6001600160801b031984811660008181526020819052604080822080548516608089901c17905551928616927f1a26e02557415617cb31ed9c9ac1bbe2c8f5e32b8f13ddc706d9ad0afb3c2b449190a350505050565b60008073__$47464c6f7588c8075b5d384b19d082a8ec$__635cff288d85856040518363ffffffff1660e01b815260040161082d929190610aa5565b602060405180830381865af415801561084a573d6000803e3d6000fd5b505050506040513d601f19601f8201168201806040525081019061086e9190610ae1565b90506001600160a01b03811661088657610886610b0a565b7f00000000000000000000000000000000000000000000000000000000000000006001600160a01b0316816001600160a01b03161491505092915050565b80356001600160801b0319811681146108dc57600080fd5b919050565b600080604083850312156108f457600080fd5b6108fd836108c4565b915061090b602084016108c4565b90509250929050565b60006060828403121561092657600080fd5b50919050565b60008060008060c0858703121561094257600080fd5b61094b856108c4565b9350610959602086016108c4565b92506040850135915061096f8660608701610914565b905092959194509250565b60006020828403121561098c57600080fd5b610995826108c4565b9392505050565b6000602080835260608084016fffffffffffffffffffffffffffffffff198087511684870152838701516040808189015283825180865260808a0191508784019550600093505b80841015610a165785518051861683528881015189840152830151838301529487019460019390930192908601906109e3565b509998505050505050505050565b600080600060a08486031215610a3957600080fd5b610a42846108c4565b9250610a50602085016108c4565b9150610a5f8560408601610914565b90509250925092565b634e487b7160e01b600052603260045260246000fd5b600060018201610a9e57634e487b7160e01b600052601160045260246000fd5b5060010190565b82815260808101823560ff8116808214610abe57600080fd5b806020850152505060208301356040830152604083013560608301529392505050565b600060208284031215610af357600080fd5b81516001600160a01b038116811461099557600080fd5b634e487b7160e01b600052600160045260246000fdfea2646970667358221220445e9acca068d1aee098231d648b9e6ebce31389e02015ccdc675284832b8eba64736f6c634300080f0033",
  "libraries": {
    "SignatureLib": "0x2CFb7A620A699229a41C66E530b1C06877f3982F"
  },
  "devdoc": {
    "kind": "dev",
    "methods": {},
    "version": 1
  },
  "userdoc": {
    "kind": "user",
    "methods": {},
    "version": 1
  },
  "storageLayout": {
    "storage": [
      {
        "astId": 14037,
        "contract": "contracts/MarketOracle.sol:MarketOracle",
        "label": "_results",
        "offset": 0,
        "slot": "0",
        "type": "t_mapping(t_bytes16,t_struct(Result)11860_storage)"
      }
    ],
    "types": {
      "t_array(t_struct(Scratched)11853_storage)dyn_storage": {
        "base": "t_struct(Scratched)11853_storage",
        "encoding": "dynamic_array",
        "label": "struct IOracle.Scratched[]",
        "numberOfBytes": "32"
      },
      "t_bytes16": {
        "encoding": "inplace",
        "label": "bytes16",
        "numberOfBytes": "16"
      },
      "t_mapping(t_bytes16,t_struct(Result)11860_storage)": {
        "encoding": "mapping",
        "key": "t_bytes16",
        "label": "mapping(bytes16 => struct IOracle.Result)",
        "numberOfBytes": "32",
        "value": "t_struct(Result)11860_storage"
      },
      "t_struct(Result)11860_storage": {
        "encoding": "inplace",
        "label": "struct IOracle.Result",
        "members": [
          {
            "astId": 11855,
            "contract": "contracts/MarketOracle.sol:MarketOracle",
            "label": "winningPropositionId",
            "offset": 0,
            "slot": "0",
            "type": "t_bytes16"
          },
          {
            "astId": 11859,
            "contract": "contracts/MarketOracle.sol:MarketOracle",
            "label": "scratched",
            "offset": 0,
            "slot": "1",
            "type": "t_array(t_struct(Scratched)11853_storage)dyn_storage"
          }
        ],
        "numberOfBytes": "64"
      },
      "t_struct(Scratched)11853_storage": {
        "encoding": "inplace",
        "label": "struct IOracle.Scratched",
        "members": [
          {
            "astId": 11848,
            "contract": "contracts/MarketOracle.sol:MarketOracle",
            "label": "scratchedPropositionId",
            "offset": 0,
            "slot": "0",
            "type": "t_bytes16"
          },
          {
            "astId": 11850,
            "contract": "contracts/MarketOracle.sol:MarketOracle",
            "label": "timestamp",
            "offset": 0,
            "slot": "1",
            "type": "t_uint256"
          },
          {
            "astId": 11852,
            "contract": "contracts/MarketOracle.sol:MarketOracle",
            "label": "odds",
            "offset": 0,
            "slot": "2",
            "type": "t_uint256"
          }
        ],
        "numberOfBytes": "96"
      },
      "t_uint256": {
        "encoding": "inplace",
        "label": "uint256",
        "numberOfBytes": "32"
      }
    }
  }
}