{
  "address": "0x9739A16BdC4Eee9fE99180960B3bE58298ecda35",
  "abi": [
    {
      "inputs": [
        {
          "internalType": "contract IVault",
          "name": "vault",
          "type": "address"
        },
        {
          "internalType": "uint8",
          "name": "fee",
          "type": "uint8"
        },
        {
          "internalType": "uint8",
          "name": "timeoutDays",
          "type": "uint8"
        },
        {
          "internalType": "address",
          "name": "oracle",
          "type": "address"
        },
        {
          "internalType": "string",
          "name": "baseMetadataURI",
          "type": "string"
        }
      ],
      "stateMutability": "nonpayable",
      "type": "constructor"
    },
    {
      "anonymous": false,
      "inputs": [
        {
          "indexed": true,
          "internalType": "address",
          "name": "owner",
          "type": "address"
        },
        {
          "indexed": true,
          "internalType": "address",
          "name": "approved",
          "type": "address"
        },
        {
          "indexed": true,
          "internalType": "uint256",
          "name": "tokenId",
          "type": "uint256"
        }
      ],
      "name": "Approval",
      "type": "event"
    },
    {
      "anonymous": false,
      "inputs": [
        {
          "indexed": true,
          "internalType": "address",
          "name": "owner",
          "type": "address"
        },
        {
          "indexed": true,
          "internalType": "address",
          "name": "operator",
          "type": "address"
        },
        {
          "indexed": false,
          "internalType": "bool",
          "name": "approved",
          "type": "bool"
        }
      ],
      "name": "ApprovalForAll",
      "type": "event"
    },
    {
      "anonymous": false,
      "inputs": [
        {
          "indexed": false,
          "internalType": "uint256",
          "name": "index",
          "type": "uint256"
        },
        {
          "indexed": false,
          "internalType": "uint256",
          "name": "amount",
          "type": "uint256"
        }
      ],
      "name": "Borrowed",
      "type": "event"
    },
    {
      "anonymous": false,
      "inputs": [
        {
          "indexed": true,
          "internalType": "address",
          "name": "previousOwner",
          "type": "address"
        },
        {
          "indexed": true,
          "internalType": "address",
          "name": "newOwner",
          "type": "address"
        }
      ],
      "name": "OwnershipTransferred",
      "type": "event"
    },
    {
      "anonymous": false,
      "inputs": [
        {
          "indexed": false,
          "internalType": "uint256",
          "name": "index",
          "type": "uint256"
        },
        {
          "indexed": false,
          "internalType": "bytes16",
          "name": "propositionId",
          "type": "bytes16"
        },
        {
          "indexed": false,
          "internalType": "bytes16",
          "name": "marketId",
          "type": "bytes16"
        },
        {
          "indexed": false,
          "internalType": "uint256",
          "name": "amount",
          "type": "uint256"
        },
        {
          "indexed": false,
          "internalType": "uint256",
          "name": "payout",
          "type": "uint256"
        },
        {
          "indexed": true,
          "internalType": "address",
          "name": "owner",
          "type": "address"
        }
      ],
      "name": "Placed",
      "type": "event"
    },
    {
      "anonymous": false,
      "inputs": [
        {
          "indexed": false,
          "internalType": "uint256",
          "name": "index",
          "type": "uint256"
        },
        {
          "indexed": false,
          "internalType": "uint256",
          "name": "amount",
          "type": "uint256"
        }
      ],
      "name": "Refunded",
      "type": "event"
    },
    {
      "anonymous": false,
      "inputs": [
        {
          "indexed": true,
          "internalType": "address",
          "name": "vault",
          "type": "address"
        },
        {
          "indexed": false,
          "internalType": "uint256",
          "name": "amount",
          "type": "uint256"
        }
      ],
      "name": "Repaid",
      "type": "event"
    },
    {
      "anonymous": false,
      "inputs": [
        {
          "indexed": false,
          "internalType": "uint256",
          "name": "index",
          "type": "uint256"
        },
        {
          "indexed": false,
          "internalType": "uint256",
          "name": "payout",
          "type": "uint256"
        },
        {
          "indexed": false,
          "internalType": "uint8",
          "name": "result",
          "type": "uint8"
        },
        {
          "indexed": true,
          "internalType": "address",
          "name": "recipient",
          "type": "address"
        }
      ],
      "name": "Settled",
      "type": "event"
    },
    {
      "anonymous": false,
      "inputs": [
        {
          "indexed": true,
          "internalType": "address",
          "name": "from",
          "type": "address"
        },
        {
          "indexed": true,
          "internalType": "address",
          "name": "to",
          "type": "address"
        },
        {
          "indexed": true,
          "internalType": "uint256",
          "name": "tokenId",
          "type": "uint256"
        }
      ],
      "name": "Transfer",
      "type": "event"
    },
    {
      "inputs": [
        {
          "internalType": "address",
          "name": "to",
          "type": "address"
        },
        {
          "internalType": "uint256",
          "name": "tokenId",
          "type": "uint256"
        }
      ],
      "name": "approve",
      "outputs": [],
      "stateMutability": "nonpayable",
      "type": "function"
    },
    {
      "inputs": [
        {
          "components": [
            {
              "internalType": "bytes16",
              "name": "nonce",
              "type": "bytes16"
            },
            {
              "internalType": "bytes16",
              "name": "propositionId",
              "type": "bytes16"
            },
            {
              "internalType": "bytes16",
              "name": "marketId",
              "type": "bytes16"
            },
            {
              "internalType": "uint256",
              "name": "wager",
              "type": "uint256"
            },
            {
              "internalType": "uint256",
              "name": "odds",
              "type": "uint256"
            },
            {
              "internalType": "uint256",
              "name": "close",
              "type": "uint256"
            },
            {
              "internalType": "uint256",
              "name": "end",
              "type": "uint256"
            },
            {
              "components": [
                {
                  "internalType": "uint8",
                  "name": "v",
                  "type": "uint8"
                },
                {
                  "internalType": "bytes32",
                  "name": "r",
                  "type": "bytes32"
                },
                {
                  "internalType": "bytes32",
                  "name": "s",
                  "type": "bytes32"
                }
              ],
              "internalType": "struct SignatureLib.Signature",
              "name": "signature",
              "type": "tuple"
            }
          ],
          "internalType": "struct IMarket.Back",
          "name": "backData",
          "type": "tuple"
        }
      ],
      "name": "back",
      "outputs": [
        {
          "internalType": "uint256",
          "name": "",
          "type": "uint256"
        }
      ],
      "stateMutability": "nonpayable",
      "type": "function"
    },
    {
      "inputs": [
        {
          "internalType": "address",
          "name": "owner",
          "type": "address"
        }
      ],
      "name": "balanceOf",
      "outputs": [
        {
          "internalType": "uint256",
          "name": "",
          "type": "uint256"
        }
      ],
      "stateMutability": "view",
      "type": "function"
    },
    {
      "inputs": [
        {
          "internalType": "uint256",
          "name": "tokenId",
          "type": "uint256"
        }
      ],
      "name": "getApproved",
      "outputs": [
        {
          "internalType": "address",
          "name": "",
          "type": "address"
        }
      ],
      "stateMutability": "view",
      "type": "function"
    },
    {
      "inputs": [
        {
          "internalType": "uint64",
          "name": "index",
          "type": "uint64"
        }
      ],
      "name": "getBetByIndex",
      "outputs": [
        {
          "internalType": "uint256",
          "name": "",
          "type": "uint256"
        },
        {
          "internalType": "uint256",
          "name": "",
          "type": "uint256"
        },
        {
          "internalType": "uint256",
          "name": "",
          "type": "uint256"
        },
        {
          "internalType": "uint256",
          "name": "",
          "type": "uint256"
        },
        {
          "internalType": "bool",
          "name": "",
          "type": "bool"
        },
        {
          "internalType": "bytes16",
          "name": "",
          "type": "bytes16"
        },
        {
          "internalType": "bytes16",
          "name": "",
          "type": "bytes16"
        }
      ],
      "stateMutability": "view",
      "type": "function"
    },
    {
      "inputs": [],
      "name": "getCount",
      "outputs": [
        {
          "internalType": "uint64",
          "name": "",
          "type": "uint64"
        }
      ],
      "stateMutability": "view",
      "type": "function"
    },
    {
      "inputs": [
        {
          "internalType": "uint64",
          "name": "index",
          "type": "uint64"
        }
      ],
      "name": "getExpiry",
      "outputs": [
        {
          "internalType": "uint256",
          "name": "",
          "type": "uint256"
        }
      ],
      "stateMutability": "view",
      "type": "function"
    },
    {
      "inputs": [],
      "name": "getInPlayCount",
      "outputs": [
        {
          "internalType": "uint256",
          "name": "",
          "type": "uint256"
        }
      ],
      "stateMutability": "view",
      "type": "function"
    },
    {
      "inputs": [],
      "name": "getMargin",
      "outputs": [
        {
          "internalType": "uint8",
          "name": "",
          "type": "uint8"
        }
      ],
      "stateMutability": "view",
      "type": "function"
    },
    {
      "inputs": [
        {
          "internalType": "bytes16",
          "name": "marketId",
          "type": "bytes16"
        }
      ],
      "name": "getMarketCollateral",
      "outputs": [
        {
          "internalType": "uint256",
          "name": "",
          "type": "uint256"
        }
      ],
      "stateMutability": "view",
      "type": "function"
    },
    {
      "inputs": [
        {
          "internalType": "bytes16",
          "name": "marketId",
          "type": "bytes16"
        }
      ],
      "name": "getMarketTotal",
      "outputs": [
        {
          "internalType": "uint256",
          "name": "",
          "type": "uint256"
        }
      ],
      "stateMutability": "view",
      "type": "function"
    },
    {
      "inputs": [
        {
          "internalType": "uint256",
          "name": "wager",
          "type": "uint256"
        },
        {
          "internalType": "uint256",
          "name": "odds",
          "type": "uint256"
        },
        {
          "internalType": "bytes16",
          "name": "propositionId",
          "type": "bytes16"
        },
        {
          "internalType": "bytes16",
          "name": "marketId",
          "type": "bytes16"
        }
      ],
      "name": "getOdds",
      "outputs": [
        {
          "internalType": "uint256",
          "name": "",
          "type": "uint256"
        }
      ],
      "stateMutability": "view",
      "type": "function"
    },
    {
      "inputs": [],
      "name": "getOracleAddress",
      "outputs": [
        {
          "internalType": "address",
          "name": "",
          "type": "address"
        }
      ],
      "stateMutability": "view",
      "type": "function"
    },
    {
      "inputs": [],
      "name": "getOwner",
      "outputs": [
        {
          "internalType": "address",
          "name": "",
          "type": "address"
        }
      ],
      "stateMutability": "view",
      "type": "function"
    },
    {
      "inputs": [
        {
          "internalType": "bytes16",
          "name": "propositionId",
          "type": "bytes16"
        },
        {
          "internalType": "bytes16",
          "name": "marketId",
          "type": "bytes16"
        },
        {
          "internalType": "uint256",
          "name": "wager",
          "type": "uint256"
        },
        {
          "internalType": "uint256",
          "name": "odds",
          "type": "uint256"
        }
      ],
      "name": "getPotentialPayout",
      "outputs": [
        {
          "internalType": "uint256",
          "name": "",
          "type": "uint256"
        }
      ],
      "stateMutability": "view",
      "type": "function"
    },
    {
      "inputs": [],
      "name": "getTotalCollateral",
      "outputs": [
        {
          "internalType": "uint256",
          "name": "",
          "type": "uint256"
        }
      ],
      "stateMutability": "view",
      "type": "function"
    },
    {
      "inputs": [],
      "name": "getTotalExposure",
      "outputs": [
        {
          "internalType": "uint256",
          "name": "",
          "type": "uint256"
        }
      ],
      "stateMutability": "view",
      "type": "function"
    },
    {
      "inputs": [],
      "name": "getTotalInPlay",
      "outputs": [
        {
          "internalType": "uint256",
          "name": "",
          "type": "uint256"
        }
      ],
      "stateMutability": "view",
      "type": "function"
    },
    {
      "inputs": [],
      "name": "getVaultAddress",
      "outputs": [
        {
          "internalType": "address",
          "name": "",
          "type": "address"
        }
      ],
      "stateMutability": "view",
      "type": "function"
    },
    {
      "inputs": [
        {
          "internalType": "address",
          "name": "signer",
          "type": "address"
        }
      ],
      "name": "grantSigner",
      "outputs": [],
      "stateMutability": "nonpayable",
      "type": "function"
    },
    {
      "inputs": [
        {
          "internalType": "address",
          "name": "owner",
          "type": "address"
        },
        {
          "internalType": "address",
          "name": "operator",
          "type": "address"
        }
      ],
      "name": "isApprovedForAll",
      "outputs": [
        {
          "internalType": "bool",
          "name": "",
          "type": "bool"
        }
      ],
      "stateMutability": "view",
      "type": "function"
    },
    {
      "inputs": [
        {
          "internalType": "address",
          "name": "signer",
          "type": "address"
        }
      ],
      "name": "isSigner",
      "outputs": [
        {
          "internalType": "bool",
          "name": "",
          "type": "bool"
        }
      ],
      "stateMutability": "view",
      "type": "function"
    },
    {
      "inputs": [
        {
          "components": [
            {
              "internalType": "bytes16",
              "name": "nonce",
              "type": "bytes16"
            },
            {
              "internalType": "bytes16",
              "name": "propositionId",
              "type": "bytes16"
            },
            {
              "internalType": "bytes16",
              "name": "marketId",
              "type": "bytes16"
            },
            {
              "internalType": "uint256",
              "name": "wager",
              "type": "uint256"
            },
            {
              "internalType": "uint256",
              "name": "odds",
              "type": "uint256"
            },
            {
              "internalType": "uint256",
              "name": "close",
              "type": "uint256"
            },
            {
              "internalType": "uint256",
              "name": "end",
              "type": "uint256"
            },
            {
              "components": [
                {
                  "internalType": "uint8",
                  "name": "v",
                  "type": "uint8"
                },
                {
                  "internalType": "bytes32",
                  "name": "r",
                  "type": "bytes32"
                },
                {
                  "internalType": "bytes32",
                  "name": "s",
                  "type": "bytes32"
                }
              ],
              "internalType": "struct SignatureLib.Signature",
              "name": "signature",
              "type": "tuple"
            }
          ],
          "internalType": "struct IMarket.Back[]",
          "name": "backArray",
          "type": "tuple[]"
        }
      ],
      "name": "multiBack",
      "outputs": [
        {
          "internalType": "uint256[]",
          "name": "",
          "type": "uint256[]"
        }
      ],
      "stateMutability": "nonpayable",
      "type": "function"
    },
    {
      "inputs": [],
      "name": "name",
      "outputs": [
        {
          "internalType": "string",
          "name": "",
          "type": "string"
        }
      ],
      "stateMutability": "view",
      "type": "function"
    },
    {
      "inputs": [],
      "name": "owner",
      "outputs": [
        {
          "internalType": "address",
          "name": "",
          "type": "address"
        }
      ],
      "stateMutability": "view",
      "type": "function"
    },
    {
      "inputs": [
        {
          "internalType": "uint256",
          "name": "tokenId",
          "type": "uint256"
        }
      ],
      "name": "ownerOf",
      "outputs": [
        {
          "internalType": "address",
          "name": "",
          "type": "address"
        }
      ],
      "stateMutability": "view",
      "type": "function"
    },
    {
      "inputs": [
        {
          "internalType": "uint64",
          "name": "index",
          "type": "uint64"
        }
      ],
      "name": "refund",
      "outputs": [],
      "stateMutability": "nonpayable",
      "type": "function"
    },
    {
      "inputs": [],
      "name": "refundCollateral",
      "outputs": [],
      "stateMutability": "nonpayable",
      "type": "function"
    },
    {
      "inputs": [],
      "name": "renounceOwnership",
      "outputs": [],
      "stateMutability": "nonpayable",
      "type": "function"
    },
    {
      "inputs": [
        {
          "internalType": "address",
          "name": "signer",
          "type": "address"
        }
      ],
      "name": "revokeSigner",
      "outputs": [],
      "stateMutability": "nonpayable",
      "type": "function"
    },
    {
      "inputs": [
        {
          "internalType": "address",
          "name": "from",
          "type": "address"
        },
        {
          "internalType": "address",
          "name": "to",
          "type": "address"
        },
        {
          "internalType": "uint256",
          "name": "tokenId",
          "type": "uint256"
        }
      ],
      "name": "safeTransferFrom",
      "outputs": [],
      "stateMutability": "nonpayable",
      "type": "function"
    },
    {
      "inputs": [
        {
          "internalType": "address",
          "name": "from",
          "type": "address"
        },
        {
          "internalType": "address",
          "name": "to",
          "type": "address"
        },
        {
          "internalType": "uint256",
          "name": "tokenId",
          "type": "uint256"
        },
        {
          "internalType": "bytes",
          "name": "data",
          "type": "bytes"
        }
      ],
      "name": "safeTransferFrom",
      "outputs": [],
      "stateMutability": "nonpayable",
      "type": "function"
    },
    {
      "inputs": [
        {
          "internalType": "uint64",
          "name": "index",
          "type": "uint64"
        },
        {
          "internalType": "bytes16",
          "name": "marketId",
          "type": "bytes16"
        },
        {
          "internalType": "bytes16",
          "name": "propositionId",
          "type": "bytes16"
        },
        {
          "internalType": "uint256",
          "name": "odds",
          "type": "uint256"
        },
        {
          "components": [
            {
              "internalType": "uint8",
              "name": "v",
              "type": "uint8"
            },
            {
              "internalType": "bytes32",
              "name": "r",
              "type": "bytes32"
            },
            {
              "internalType": "bytes32",
              "name": "s",
              "type": "bytes32"
            }
          ],
          "internalType": "struct SignatureLib.Signature",
          "name": "signature",
          "type": "tuple"
        }
      ],
      "name": "scratchAndRefund",
      "outputs": [],
      "stateMutability": "nonpayable",
      "type": "function"
    },
    {
      "inputs": [
        {
          "internalType": "address",
          "name": "operator",
          "type": "address"
        },
        {
          "internalType": "bool",
          "name": "approved",
          "type": "bool"
        }
      ],
      "name": "setApprovalForAll",
      "outputs": [],
      "stateMutability": "nonpayable",
      "type": "function"
    },
    {
      "inputs": [
        {
          "internalType": "uint64",
          "name": "index",
          "type": "uint64"
        }
      ],
      "name": "settle",
      "outputs": [],
      "stateMutability": "nonpayable",
      "type": "function"
    },
    {
      "inputs": [
        {
          "internalType": "bytes16",
          "name": "marketId",
          "type": "bytes16"
        }
      ],
      "name": "settleMarket",
      "outputs": [],
      "stateMutability": "nonpayable",
      "type": "function"
    },
    {
      "inputs": [
        {
          "internalType": "bytes4",
          "name": "interfaceId",
          "type": "bytes4"
        }
      ],
      "name": "supportsInterface",
      "outputs": [
        {
          "internalType": "bool",
          "name": "",
          "type": "bool"
        }
      ],
      "stateMutability": "view",
      "type": "function"
    },
    {
      "inputs": [],
      "name": "symbol",
      "outputs": [
        {
          "internalType": "string",
          "name": "",
          "type": "string"
        }
      ],
      "stateMutability": "view",
      "type": "function"
    },
    {
      "inputs": [],
      "name": "timeout",
      "outputs": [
        {
          "internalType": "uint256",
          "name": "",
          "type": "uint256"
        }
      ],
      "stateMutability": "view",
      "type": "function"
    },
    {
      "inputs": [
        {
          "internalType": "uint256",
          "name": "tokenId",
          "type": "uint256"
        }
      ],
      "name": "tokenURI",
      "outputs": [
        {
          "internalType": "string",
          "name": "",
          "type": "string"
        }
      ],
      "stateMutability": "view",
      "type": "function"
    },
    {
      "inputs": [
        {
          "internalType": "address",
          "name": "from",
          "type": "address"
        },
        {
          "internalType": "address",
          "name": "to",
          "type": "address"
        },
        {
          "internalType": "uint256",
          "name": "tokenId",
          "type": "uint256"
        }
      ],
      "name": "transferFrom",
      "outputs": [],
      "stateMutability": "nonpayable",
      "type": "function"
    },
    {
      "inputs": [
        {
          "internalType": "address",
          "name": "newOwner",
          "type": "address"
        }
      ],
      "name": "transferOwnership",
      "outputs": [],
      "stateMutability": "nonpayable",
      "type": "function"
    }
  ],
  "transactionHash": "0x17d5600083f57d47f98394325a09e9014d1c4c6663c9ea5fd67258e9cb2aeae2",
  "args": [
    "0xBd195A1f7822A83d16DD3A88C8E69397Bcac02Bd",
    0,
    1,
    "0xECa2E51406111B31f2B1277aD61f528A2eECe585",
    "https://horse.link/api/nft//dev_goerli/0xF3d25609fCef57e5b662793663d87cD558bE51E4/mUSDT/"
  ],
  "numDeployments": 1,
  "solcInputHash": "c55d6c83520cb5137b6e61ac853e746c",
  "bytecode": "0x6101406040523480156200001257600080fd5b5060405162004ab838038062004ab8833981016040819052620000359162000288565b84848484846040518060400160405280601381526020017f486f727365204c696e6b2042657420536c6970000000000000000000000000008152506040518060400160405280600681526020016512130b50915560d21b815250620000a9620000a3620001ee60201b60201c565b620001f2565b6001620000b7838262000445565b506002620000c6828262000445565b5050506001600160a01b038516620000e257620000e262000511565b3060e0526001600160a01b03851660a0819052604080516338d52e0f60e01b815290516338d52e0f916004808201926020929091908290030181865afa15801562000131573d6000803e3d6000fd5b505050506040513d601f19601f8201168201806040525081019062000157919062000527565b6001600160a01b0390811660c05260ff85166080528216610100526001601060006200018b6000546001600160a01b031690565b6001600160a01b031681526020810191909152604001600020805460ff19169115159190911790556007620001c1828262000445565b50620001d460ff8416620151806200054e565b62ffffff1661012052506200058898505050505050505050565b3390565b600080546001600160a01b038381166001600160a01b0319831681178455604051919092169283917f8be0079c531659141344cd1fd0a4f28419497f9722a3daafe3b4186f6b6457e09190a35050565b6001600160a01b03811681146200025857600080fd5b50565b805160ff811681146200026d57600080fd5b919050565b634e487b7160e01b600052604160045260246000fd5b600080600080600060a08688031215620002a157600080fd5b8551620002ae8162000242565b94506020620002bf8782016200025b565b9450620002cf604088016200025b565b93506060870151620002e18162000242565b60808801519093506001600160401b0380821115620002ff57600080fd5b818901915089601f8301126200031457600080fd5b81518181111562000329576200032962000272565b604051601f8201601f19908116603f0116810190838211818310171562000354576200035462000272565b816040528281528c868487010111156200036d57600080fd5b600093505b8284101562000391578484018601518185018701529285019262000372565b82841115620003a35760008684830101525b8096505050505050509295509295909350565b600181811c90821680620003cb57607f821691505b602082108103620003ec57634e487b7160e01b600052602260045260246000fd5b50919050565b601f8211156200044057600081815260208120601f850160051c810160208610156200041b5750805b601f850160051c820191505b818110156200043c5782815560010162000427565b5050505b505050565b81516001600160401b0381111562000461576200046162000272565b6200047981620004728454620003b6565b84620003f2565b602080601f831160018114620004b15760008415620004985750858301515b600019600386901b1c1916600185901b1785556200043c565b600085815260208120601f198616915b82811015620004e257888601518255948401946001909101908401620004c1565b5085821015620005015787850151600019600388901b60f8161c191681555b5050505050600190811b01905550565b634e487b7160e01b600052600160045260246000fd5b6000602082840312156200053a57600080fd5b8151620005478162000242565b9392505050565b600062ffffff808316818516818304811182151516156200057f57634e487b7160e01b600052601160045260246000fd5b02949350505050565b60805160a05160c05160e051610100516101205161444d6200066b600039600081816104a60152612b0701526000818161058901528181610b2e0152818161143201528181612069015281816124c001526130a50152600081816125f401526135640152600081816125a801528181612d6f01528181612ec70152612f9b0152600081816103f3015281816109080152818161099801528181611aa501528181611bc201528181611c5901528181611cda01528181611e1a015281816120ec01528181612fca015281816134a5015261353c0152600061033a015261444d6000f3fe608060405234801561001057600080fd5b506004361061025e5760003560e01c8063715018a611610146578063a87d942c116100c3578063c96121a811610087578063c96121a8146105e6578063d6eb5910146105ee578063d7194ccb146105f6578063e4650fac14610609578063e985e9c51461061c578063f2fde38b1461065857600080fd5b8063a87d942c14610567578063b18b78dd14610587578063b88d4fde146105ad578063c34b44a0146105c0578063c87b56dd146105d357600080fd5b80638ac6d2171161010a5780638ac6d2171461051a5780638da5cb5b1461050957806395d89b4114610522578063a166895e1461052a578063a22cb4651461055457600080fd5b8063715018a6146104c85780637b5df1c9146104d05780637df73e27146104e357806388bc76ba146104f6578063893d20e81461050957600080fd5b806346e116a6116101df57806363c724f7116101a357806363c724f7146103de57806365cacaa4146103f15780636b467d1514610417578063702595861461046e57806370a082311461048e57806370dea79a146104a157600080fd5b806346e116a61461038a5780634b9ba4461461039d57806358439479146103b05780636028421f146103b85780636352211e146103cb57600080fd5b80632098b7ff116102265780632098b7ff1461031857806323b872dd1461032057806325117b7214610333578063412406651461036457806342842e0e1461037757600080fd5b806301ffc9a71461026357806306fdde031461028b578063081812fc146102a0578063095ea7b3146102cb57806312fa3bf1146102e0575b600080fd5b610276610271366004613a15565b61066b565b60405190151581526020015b60405180910390f35b6102936106bd565b6040516102829190613a8a565b6102b36102ae366004613a9d565b61074f565b6040516001600160a01b039091168152602001610282565b6102de6102d9366004613acb565b610776565b005b61030a6102ee366004613b0d565b6001600160801b0319166000908152600b602052604090205490565b604051908152602001610282565b6102de610890565b6102de61032e366004613b2a565b610a39565b60405160ff7f0000000000000000000000000000000000000000000000000000000000000000168152602001610282565b6102de610372366004613b87565b610a6a565b6102de610385366004613b2a565b610bab565b61030a610398366004613bf4565b610bc6565b6102de6103ab366004613c3e565b610bdf565b600e5461030a565b61030a6103c6366004613c59565b610cd9565b6102b36103d9366004613a9d565b610ce7565b6102de6103ec366004613c9f565b610d47565b7f00000000000000000000000000000000000000000000000000000000000000006102b3565b61042a610425366004613c3e565b610dd5565b604080519788526020880196909652948601939093526060850191909152151560808401526001600160801b031990811660a08401521660c082015260e001610282565b61048161047c366004613cbc565b610e00565b6040516102829190613d31565b61030a61049c366004613c9f565b610eb9565b61030a7f000000000000000000000000000000000000000000000000000000000000000081565b6102de610f3f565b61030a6104de366004613d75565b610f53565b6102766104f1366004613c9f565b6110be565b6102de610504366004613b0d565b6110df565b6000546001600160a01b03166102b3565b600f5461030a565b610293611286565b61030a610538366004613b0d565b6001600160801b03191660009081526011602052604090205490565b6102de610562366004613d9c565b611295565b61056f6112a0565b6040516001600160401b039091168152602001610282565b7f00000000000000000000000000000000000000000000000000000000000000006102b3565b6102de6105bb366004613e65565b6112ab565b6102de6105ce366004613c9f565b6112dd565b6102936105e1366004613a9d565b611368565b60085461030a565b60125461030a565b6102de610604366004613c3e565b6113cf565b61030a610617366004613c3e565b61158d565b61027661062a366004613f28565b6001600160a01b03918216600090815260066020908152604080832093909416825291909152205460ff1690565b6102de610666366004613c9f565b611598565b60006001600160e01b031982166380ac58cd60e01b148061069c57506001600160e01b03198216635b5e139f60e01b145b806106b757506301ffc9a760e01b6001600160e01b03198316145b92915050565b6060600180546106cc90613f56565b80601f01602080910402602001604051908101604052809291908181526020018280546106f890613f56565b80156107455780601f1061071a57610100808354040283529160200191610745565b820191906000526020600020905b81548152906001019060200180831161072857829003601f168201915b5050505050905090565b600061075a8261160e565b506000908152600560205260409020546001600160a01b031690565b600061078182610ce7565b9050806001600160a01b0316836001600160a01b0316036107f35760405162461bcd60e51b815260206004820152602160248201527f4552433732313a20617070726f76616c20746f2063757272656e74206f776e656044820152603960f91b60648201526084015b60405180910390fd5b336001600160a01b038216148061080f575061080f813361062a565b6108815760405162461bcd60e51b815260206004820152603d60248201527f4552433732313a20617070726f76652063616c6c6572206973206e6f7420746f60448201527f6b656e206f776e6572206f7220617070726f76656420666f7220616c6c00000060648201526084016107ea565b61088b838361166d565b505050565b6108986116db565b600f54601254116108fd5760405162461bcd60e51b815260206004820152602960248201527f726566756e64436f6c6c61746572616c3a204e6f20636f6c6c61746572616c206044820152681d1bc81c99599d5b9960ba1b60648201526084016107ea565b600f546012819055507f00000000000000000000000000000000000000000000000000000000000000006001600160a01b03166338d52e0f6040518163ffffffff1660e01b8152600401602060405180830381865afa158015610964573d6000803e3d6000fd5b505050506040513d601f19601f820116820180604052508101906109889190613f8a565b6001600160a01b031663a9059cbb7f0000000000000000000000000000000000000000000000000000000000000000600f546012546109c79190613fbd565b6040516001600160e01b031960e085901b1681526001600160a01b03909216600483015260248201526044016020604051808303816000875af1158015610a12573d6000803e3d6000fd5b505050506040513d601f19601f82011682018060405250810190610a369190613fd4565b50565b610a433382611735565b610a5f5760405162461bcd60e51b81526004016107ea90613ff1565b61088b8383836117b3565b826001600160801b0319166009866001600160401b031681548110610a9157610a9161403e565b600091825260209091206006909102015460801b6001600160801b03191614610b175760405162461bcd60e51b815260206004820152603260248201527f73637261746368416e64526566756e643a2070726f706f736974696f6e496420604482015271191bd95cc81b9bdd081b585d18da0818995d60721b60648201526084016107ea565b604051631b62340760e01b81526001600160a01b037f00000000000000000000000000000000000000000000000000000000000000001690631b62340790610b69908790879087908790600401614088565b600060405180830381600087803b158015610b8357600080fd5b505af1158015610b97573d6000803e3d6000fd5b50505050610ba485611924565b5050505050565b61088b838383604051806020016040528060008152506112ab565b6000610bd485858585611df6565b90505b949350505050565b60006009826001600160401b031681548110610bfd57610bfd61403e565b60009182526020918290206040805160e081018252600690930290910180546001600160801b0319608082811b82168652600160801b909204821b169484019490945260018101549183019190915260028101546060830152600381015492820192909252600482015460a082015260059091015460ff1615801560c0830152909150610ccc5760405162461bcd60e51b815260206004820152601f60248201527f736574746c653a204265742068617320616c726561647920736574746c65640060448201526064016107ea565b610cd582611f17565b5050565b6000610bd48585858561223f565b6000818152600360205260408120546001600160a01b0316806106b75760405162461bcd60e51b8152602060048201526018602482015277115490cdcc8c4e881a5b9d985b1a59081d1bdad95b88125160421b60448201526064016107ea565b610d4f6116db565b6001600160a01b038116610db15760405162461bcd60e51b815260206004820152602360248201527f6772616e745369676e65723a20496e76616c6964207369676e6572206164647260448201526265737360e81b60648201526084016107ea565b6001600160a01b03166000908152601060205260409020805460ff19166001179055565b6000806000806000806000610de98861227b565b959e949d50929b5090995097509550909350915050565b60606000826001600160401b03811115610e1c57610e1c613dd5565b604051908082528060200260200182016040528015610e45578160200160208202803683370190505b50905060005b60ff8116841115610eb1573685858360ff16818110610e6c57610e6c61403e565b905061014002019050610e7e81610f53565b838360ff1681518110610e9357610e9361403e565b60209081029190910101525080610ea9816140b5565b915050610e4b565b509392505050565b60006001600160a01b038216610f235760405162461bcd60e51b815260206004820152602960248201527f4552433732313a2061646472657373207a65726f206973206e6f7420612076616044820152683634b21037bbb732b960b91b60648201526084016107ea565b506001600160a01b031660009081526004602052604090205490565b610f476116db565b610f516000612341565b565b600080610f636020840184613b0d565b610f736040850160208601613b0d565b610f836060860160408701613b0d565b604080516001600160801b0319948516602082015292841660308401529216918101919091526080840135605082015260a0840135607082015260c0840135609082015260b001604051602081830303815290604052805190602001209050610fef818460e001612391565b15156001146110405760405162461bcd60e51b815260206004820152601760248201527f6261636b3a20496e76616c6964207369676e617475726500000000000000000060448201526064016107ea565b60006110746110556040860160208701613b0d565b6110656060870160408801613b0d565b8660600135876080013561223f565b905060008111611086576110866140d4565b610bd76110996040860160208701613b0d565b6110a96060870160408801613b0d565b86606001358760a001358860c0013586612447565b6001600160a01b03811660009081526010602052604081205460ff166106b7565b6001600160801b031981166000908152600a602090815260408083208054825181850281018501909352808352919290919083018282801561117257602002820191906000526020600020906000905b82829054906101000a90046001600160401b03166001600160401b03168152602001906008019060208260070104928301926001038202915080841161112f5790505b505083519394506000925050505b81816001600160401b0316101561127b57600083826001600160401b0316815181106111ae576111ae61403e565b6020026020010151905060006009826001600160401b0316815481106111d6576111d661403e565b600091825260208083206040805160e081018252600690940290910180546001600160801b0319608082811b82168752600160801b909204821b169385019390935260018101549184019190915260028101546060840152600381015491830191909152600481015460a08301526005015460ff16151560c0820181905290925090036112665761126682611f17565b50508080611273906140ea565b915050611180565b50505050565b905090565b6060600280546106cc90613f56565b610cd5338383612961565b600061128160095490565b6112b53383611735565b6112d15760405162461bcd60e51b81526004016107ea90613ff1565b61127b84848484612a2f565b6112e56116db565b6001600160a01b0381166113475760405162461bcd60e51b8152602060048201526024808201527f7265766f6b655369676e65723a20496e76616c6964207369676e6572206164646044820152637265737360e01b60648201526084016107ea565b6001600160a01b03166000908152601060205260409020805460ff19169055565b60606113738261160e565b600061137d612a62565b9050600081511161139d57604051806020016040528060008152506113c8565b806113a784612a71565b6040516020016113b8929190614110565b6040516020818303038152906040525b9392505050565b60006009826001600160401b0316815481106113ed576113ed61403e565b60009182526020822060069190910201546040516325a8f38560e11b8152600160801b90910460801b6001600160801b03198116600483015292506001600160a01b037f00000000000000000000000000000000000000000000000000000000000000001690634b51e70a90602401600060405180830381865afa158015611479573d6000803e3d6000fd5b505050506040513d6000823e601f3d908101601f191682016040526114a1919081019061413f565b905060005b816020015151811015611544576009846001600160401b0316815481106114cf576114cf61403e565b906000526020600020906006020160000160009054906101000a900460801b6001600160801b0319168260200151828151811061150e5761150e61403e565b6020026020010151600001516001600160801b031916036115325761127b84611924565b8061153c8161425d565b9150506114a6565b5060405162461bcd60e51b815260206004820152601f60248201527f726566756e643a204e6f7420656c696769626c6520666f7220726566756e640060448201526064016107ea565b60006106b782612b03565b6115a06116db565b6001600160a01b0381166116055760405162461bcd60e51b815260206004820152602660248201527f4f776e61626c653a206e6577206f776e657220697320746865207a65726f206160448201526564647265737360d01b60648201526084016107ea565b610a3681612341565b6000818152600360205260409020546001600160a01b0316610a365760405162461bcd60e51b8152602060048201526018602482015277115490cdcc8c4e881a5b9d985b1a59081d1bdad95b88125160421b60448201526064016107ea565b600081815260056020526040902080546001600160a01b0319166001600160a01b03841690811790915581906116a282610ce7565b6001600160a01b03167f8c5be1e5ebec7d5bd14f71427d1e84f3dd0314c0f7b2291e5b200ac8c7c3b92560405160405180910390a45050565b6000546001600160a01b03163314610f515760405162461bcd60e51b815260206004820181905260248201527f4f776e61626c653a2063616c6c6572206973206e6f7420746865206f776e657260448201526064016107ea565b60008061174183610ce7565b9050806001600160a01b0316846001600160a01b0316148061178857506001600160a01b0380821660009081526006602090815260408083209388168352929052205460ff165b80610bd75750836001600160a01b03166117a18461074f565b6001600160a01b031614949350505050565b826001600160a01b03166117c682610ce7565b6001600160a01b0316146117ec5760405162461bcd60e51b81526004016107ea90614276565b6001600160a01b03821661184e5760405162461bcd60e51b8152602060048201526024808201527f4552433732313a207472616e7366657220746f20746865207a65726f206164646044820152637265737360e01b60648201526084016107ea565b61185b8383836001612b5e565b826001600160a01b031661186e82610ce7565b6001600160a01b0316146118945760405162461bcd60e51b81526004016107ea90614276565b600081815260056020908152604080832080546001600160a01b03199081169091556001600160a01b0387811680865260048552838620805460001901905590871680865283862080546001019055868652600390945282852080549092168417909155905184937fddf252ad1be2c89b69c2b068fc378daa952ba7f163c4a11628f55a4df523b3ef91a4505050565b60006009826001600160401b0316815481106119425761194261403e565b60009182526020918290206040805160e081018252600690930290910180546001600160801b0319608082811b82168652600160801b909204821b169484019490945260018101549183019190915260028101546060830152600381015492820192909252600482015460a082015260059091015460ff1615801560c0830152909150611a115760405162461bcd60e51b815260206004820152601f60248201527f726566756e643a204265742068617320616c726561647920736574746c65640060448201526064016107ea565b600160c08201526001600160401b038216600090815260146020526040812054600f805491928392611a44908490613fbd565b9091555050600980546001600160401b038516908110611a6657611a6661403e565b906000526020600020906006020160010154600e6000828254611a899190613fbd565b909155505060088054906000611a9e836142bb565b91905055507f00000000000000000000000000000000000000000000000000000000000000006001600160a01b03166338d52e0f6040518163ffffffff1660e01b8152600401602060405180830381865afa158015611b01573d6000803e3d6000fd5b505050506040513d601f19601f82011682018060405250810190611b259190613f8a565b6001600160a01b031663a9059cbb611b45856001600160401b0316610ce7565b60408086015190516001600160e01b031960e085901b1681526001600160a01b03909216600483015260248201526044016020604051808303816000875af1158015611b95573d6000803e3d6000fd5b505050506040513d601f19601f82011682018060405250810190611bb99190613fd4565b508015611d9d577f00000000000000000000000000000000000000000000000000000000000000006001600160a01b03166338d52e0f6040518163ffffffff1660e01b8152600401602060405180830381865afa158015611c1e573d6000803e3d6000fd5b505050506040513d601f19601f82011682018060405250810190611c429190613f8a565b60405163a9059cbb60e01b81526001600160a01b037f00000000000000000000000000000000000000000000000000000000000000008116600483015260248201849052919091169063a9059cbb906044016020604051808303816000875af1158015611cb3573d6000803e3d6000fd5b505050506040513d601f19601f82011682018060405250810190611cd79190613fd4565b507f00000000000000000000000000000000000000000000000000000000000000006001600160a01b03166338d52e0f6040518163ffffffff1660e01b8152600401602060405180830381865afa158015611d36573d6000803e3d6000fd5b505050506040513d601f19601f82011682018060405250810190611d5a9190613f8a565b6001600160a01b03167f0516911bcc3a0a7412a44601057c0a0a1ec628bde049a84284bc42886653448882604051611d9491815260200190565b60405180910390a25b60408083015181516001600160401b038616815260208101919091527fb7c1f9298a18c36af08bd57eabbfbeb04695f24d0438f67614741ec15fb5c4a9910160405180910390a161088b836001600160401b0316612be6565b6000600185111580611e09575060018411155b15611e1657506001610bd7565b60007f00000000000000000000000000000000000000000000000000000000000000006001600160a01b031663b15031fa6040518163ffffffff1660e01b8152600401602060405180830381865afa158015611e76573d6000803e3d6000fd5b505050506040513d601f19601f82011682018060405250810190611e9a91906142d2565b905080600003611eae576001915050610bd7565b6001600160801b031984166000908152600d6020526040902054811015611ed9576001915050610bd7565b6001600160801b031984166000908152600d6020526040902054611efd9082613fbd565b90506000611f0c878784612c89565b979650505050505050565b60006009826001600160401b031681548110611f3557611f3561403e565b60009182526020918290206040805160e081018252600690930290910180546001600160801b0319608082811b82168652600160801b909204821b16948401949094526001808201549284019290925260028101546060840152600381015493830193909352600483015460a083015260059092015460ff16151560c082015260098054919350906001600160401b038516908110611fd657611fd661403e565b60009182526020822060069190910201600501805460ff1916921515929092179091558061200384612b03565b42111561203b5760019150612020846001600160401b0316610ce7565b9050612036846001600160401b03166001612d0e565b6121a8565b602083015183516040516306c77ce760e01b81526001600160801b03199283166004820152911660248201527f00000000000000000000000000000000000000000000000000000000000000006001600160a01b0316906306c77ce790604401602060405180830381865afa1580156120b8573d6000803e3d6000fd5b505050506040513d601f19601f820116820180604052508101906120dc91906142eb565b915060011960ff831601612110577f0000000000000000000000000000000000000000000000000000000000000000612122565b612122846001600160401b0316610ce7565b905060001960ff83160161213b5761213984613041565b505b61214e846001600160401b031683612d0e565b6009846001600160401b03168154811061216a5761216a61403e565b906000526020600020906006020160010154600e600082825461218d9190613fbd565b9091555050600880549060006121a2836142bb565b91905055505b806001600160a01b03167f7c2e00429f610bdb997681cabbb0ef3197390c07fe90ea4a98ac36438dd4217c856009876001600160401b0316815481106121f0576121f061403e565b600091825260209182902060026006909202010154604080516001600160401b0390941684529183015260ff86169082015260600160405180910390a261127b846001600160401b0316612be6565b60008061224e84848888611df6565b905061227184620f42406122628285614308565b61226c9190614327565b6133a7565b9695505050505050565b6000806000806000806000806009896001600160401b0316815481106122a3576122a361403e565b60009182526020918290206040805160e0810182526006939093029091018054608081811b6001600160801b0319908116808752600160801b909304821b1695850186905260018301549385018490526002830154606086018190526003840154918601829052600484015460a0870181905260059094015460ff16151560c0909601869052939f939e509c50909a50919850919650945092505050565b600080546001600160a01b038381166001600160a01b0319831681178455604051919092169283917f8be0079c531659141344cd1fd0a4f28419497f9722a3daafe3b4186f6b6457e09190a35050565b600080732CFb7A620A699229a41C66E530b1C06877f3982F635cff288d85856040518363ffffffff1660e01b81526004016123cd929190614349565b602060405180830381865af41580156123ea573d6000803e3d6000fd5b505050506040513d601f19601f8201168201806040525081019061240e9190613f8a565b90506001600160a01b038116612426576124266140d4565b6001600160a01b03811660009081526010602052604090205460ff16610bd7565b6000428311801561245757504284115b6124995760405162461bcd60e51b81526020600482015260136024820152725f6261636b3a20496e76616c6964206461746560681b60448201526064016107ea565b6040516306c77ce760e01b81526001600160801b03198088166004830152881660248201527f00000000000000000000000000000000000000000000000000000000000000006001600160a01b0316906306c77ce790604401602060405180830381865afa15801561250f573d6000803e3d6000fd5b505050506040513d601f19601f8201168201806040525081019061253391906142eb565b60ff1660021461259e5760405162461bcd60e51b815260206004820152603060248201527f5f6261636b3a204f7261636c6520726573756c7420616c72656164792073657460448201526f08199bdc881d1a1a5cc81b585c9ad95d60821b60648201526084016107ea565b6001600160a01b037f0000000000000000000000000000000000000000000000000000000000000000166323b872dd3360405160e083901b6001600160e01b03191681526001600160a01b0391821660048201527f00000000000000000000000000000000000000000000000000000000000000009091166024820152604481018890526064016020604051808303816000875af1158015612644573d6000803e3d6000fd5b505050506040513d601f19601f820116820180604052508101906126689190613fd4565b506001600160801b031986166000908152600b60205260408120805487929061269290849061435d565b9250508190555084600e60008282546126ab919061435d565b9091555050600880549060006126c08361425d565b919050555060006126d060095490565b6001600160801b031989166000908152600d60205260408120805492935085929091906126fe90849061435d565b9091555061271a90506001600160401b038216888a89876133bd565b600f600082825461272b919061435d565b90915550506040805160e0810182526001600160801b03198a81168252891660208083018281528385018b81526060850189815260808087018c81524260a08901908152600060c08a0181815260098054600180820183559184529b51985198861c600160801b9990961c98909802949094177f6e1540171b6c0c960b71a7020d9f60077f6af931a8bbf590da0223dacf75c7af6006909b029a8b015594517f6e1540171b6c0c960b71a7020d9f60077f6af931a8bbf590da0223dacf75c7b08a015592517f6e1540171b6c0c960b71a7020d9f60077f6af931a8bbf590da0223dacf75c7b1890155517f6e1540171b6c0c960b71a7020d9f60077f6af931a8bbf590da0223dacf75c7b288015590517f6e1540171b6c0c960b71a7020d9f60077f6af931a8bbf590da0223dacf75c7b3870155517f6e1540171b6c0c960b71a7020d9f60077f6af931a8bbf590da0223dacf75c7b4909501805460ff191695151595909517909455918352600a81529282208054918201815582529190206004820401805460039092166008026101000a6001600160401b0381810219909316928416029190911790556128e933826001600160401b0316613681565b604080516001600160401b03831681526001600160801b03198a811660208301528916818301526060810188905260808101859052905133917f1d273ea6a1aea94de32fd06a09ab8046dff8e3261c5a4ecaa5e1a5705f3342ec919081900360a00190a26001600160401b0316979650505050505050565b816001600160a01b0316836001600160a01b0316036129c25760405162461bcd60e51b815260206004820152601960248201527f4552433732313a20617070726f766520746f2063616c6c65720000000000000060448201526064016107ea565b6001600160a01b03838116600081815260066020908152604080832094871680845294825291829020805460ff191686151590811790915591519182527f17307eab39ab6107e8899845ad3d59bd9653f200f220920489ca2b5937696c31910160405180910390a3505050565b612a3a8484846117b3565b612a468484848461381a565b61127b5760405162461bcd60e51b81526004016107ea90614375565b6060600780546106cc90613f56565b60606000612a7e83613918565b60010190506000816001600160401b03811115612a9d57612a9d613dd5565b6040519080825280601f01601f191660200182016040528015612ac7576020820181803683370190505b5090508181016020015b600019016f181899199a1a9b1b9c1cb0b131b232b360811b600a86061a8153600a8504945084612ad157509392505050565b60007f00000000000000000000000000000000000000000000000000000000000000006009836001600160401b031681548110612b4257612b4261403e565b9060005260206000209060060201600301546106b7919061435d565b600181111561127b576001600160a01b03841615612ba4576001600160a01b03841660009081526004602052604081208054839290612b9e908490613fbd565b90915550505b6001600160a01b0383161561127b576001600160a01b03831660009081526004602052604081208054839290612bdb90849061435d565b909155505050505050565b6000612bf182610ce7565b9050612c01816000846001612b5e565b612c0a82610ce7565b600083815260056020908152604080832080546001600160a01b03199081169091556001600160a01b0385168085526004845282852080546000190190558785526003909352818420805490911690555192935084927fddf252ad1be2c89b69c2b068fc378daa952ba7f163c4a11628f55a4df523b3ef908390a45050565b60405163a19dec4360e01b8152600481018490526024810183905260448101829052600090736572C1eAb1F1EdD06c1Cc449e630413b6E5de6479063a19dec4390606401602060405180830381865af4158015612cea573d6000803e3d6000fd5b505050506040513d601f19601f82011682018060405250810190610bd791906142d2565b600060098381548110612d2357612d2361403e565b90600052602060002090600602016001015490506014600084815260200190815260200160002054600f6000828254612d5c9190613fbd565b909155505060021960ff831601612e17577f00000000000000000000000000000000000000000000000000000000000000006001600160a01b031663a9059cbb612da585610ce7565b6040516001600160e01b031960e084901b1681526001600160a01b039091166004820152602481018490526044015b6020604051808303816000875af1158015612df3573d6000803e3d6000fd5b505050506040513d601f19601f8201168201806040525081019061127b9190613fd4565b4260098481548110612e2b57612e2b61403e565b90600052602060002090600602016003015410612e8a5760405162461bcd60e51b815260206004820181905260248201527f5f7061796f75743a205061796f75742064617465206e6f74207265616368656460448201526064016107ea565b60001960ff831601612f8d576000838152601460205260408120546012805491929091612eb8908490613fbd565b90915550506001600160a01b037f00000000000000000000000000000000000000000000000000000000000000001663a9059cbb612ef585610ce7565b60098681548110612f0857612f0861403e565b60009182526020909120600260069092020101546040516001600160e01b031960e085901b1681526001600160a01b03909216600483015260248201526044016020604051808303816000875af1158015612f67573d6000803e3d6000fd5b505050506040513d601f19601f82011682018060405250810190612f8b9190613fd4565b505b60011960ff83160161088b577f00000000000000000000000000000000000000000000000000000000000000006001600160a01b031663a9059cbb7f000000000000000000000000000000000000000000000000000000000000000060098681548110612ffc57612ffc61403e565b60009182526020909120600160069092020101546040516001600160e01b031960e085901b1681526001600160a01b0390921660048301526024820152604401612dd4565b6000806009836001600160401b0316815481106130605761306061403e565b60009182526020822060069190910201546040516325a8f38560e11b8152600160801b90910460801b6001600160801b03198116600483015292506001600160a01b037f00000000000000000000000000000000000000000000000000000000000000001690634b51e70a90602401600060405180830381865afa1580156130ec573d6000803e3d6000fd5b505050506040513d6000823e601f3d908101601f19168201604052613114919081019061413f565b90506000806009866001600160401b0316815481106131355761313561403e565b90600052602060002090600602016004015490506000836020015151905060005b818110156131c95782856020015182815181106131755761317561403e565b60200260200101516020015111156131b7578460200151818151811061319d5761319d61403e565b602002602001015160400151846131b4919061435d565b93505b806131c18161425d565b915050613156565b50600083118015613207575060006009886001600160401b0316815481106131f3576131f361403e565b906000526020600020906006020160010154115b1561336d5760006009886001600160401b03168154811061322a5761322a61403e565b9060005260206000209060060201600101546009896001600160401b0316815481106132585761325861403e565b9060005260206000209060060201600201546132749190614327565b604051637869dde560e11b815260048101829052602481018690526216e3606044820152909150600090736572C1eAb1F1EdD06c1Cc449e630413b6E5de6479063f0d3bbca90606401602060405180830381865af41580156132da573d6000803e3d6000fd5b505050506040513d601f19601f820116820180604052508101906132fe91906142d2565b90508060098a6001600160401b03168154811061331d5761331d61403e565b9060005260206000209060060201600101546133399190614308565b60098a6001600160401b0316815481106133555761335561403e565b90600052602060002090600602016002018190555050505b6009876001600160401b0316815481106133895761338961403e565b90600052602060002090600602016002015495505050505050919050565b60008183116133b657816113c8565b5090919050565b6001600160801b031984166000908152600b6020908152604080832054601190925282205482916133ed9161435d565b6001600160801b031986166000908152600d6020526040902054909150811061341a576000915050613678565b6001600160801b031986811660009081526013602090815260408083208054851660808b901c1790559288168252600d90529081205461345b908390613fbd565b90506000600f54601254111561348d576000600f5460125461347d9190613fbd565b905061348983826139f0565b9150505b818110156136355760006134a18284613fbd565b90507f00000000000000000000000000000000000000000000000000000000000000006001600160a01b03166338d52e0f6040518163ffffffff1660e01b8152600401602060405180830381865afa158015613501573d6000803e3d6000fd5b505050506040513d601f19601f820116820180604052508101906135259190613f8a565b6040516323b872dd60e01b81526001600160a01b037f0000000000000000000000000000000000000000000000000000000000000000811660048301527f0000000000000000000000000000000000000000000000000000000000000000811660248301526044820184905291909116906323b872dd906064016020604051808303816000875af11580156135be573d6000803e3d6000fd5b505050506040513d601f19601f820116820180604052508101906135e29190613fd4565b50604080518b8152602081018390527f14a13f958d7fe38fb8529e8d43353b6d9120f52444e486a4077f68a3fc77dcbf910160405180910390a1806012600082825461362e919061435d565b9091555050505b60008981526014602090815260408083208590556001600160801b03198b16835260119091528120805484929061366d90849061435d565b909155509193505050505b95945050505050565b6001600160a01b0382166136d75760405162461bcd60e51b815260206004820181905260248201527f4552433732313a206d696e7420746f20746865207a65726f206164647265737360448201526064016107ea565b6000818152600360205260409020546001600160a01b03161561373c5760405162461bcd60e51b815260206004820152601c60248201527f4552433732313a20746f6b656e20616c7265616479206d696e7465640000000060448201526064016107ea565b61374a600083836001612b5e565b6000818152600360205260409020546001600160a01b0316156137af5760405162461bcd60e51b815260206004820152601c60248201527f4552433732313a20746f6b656e20616c7265616479206d696e7465640000000060448201526064016107ea565b6001600160a01b038216600081815260046020908152604080832080546001019055848352600390915280822080546001600160a01b0319168417905551839291907fddf252ad1be2c89b69c2b068fc378daa952ba7f163c4a11628f55a4df523b3ef908290a45050565b60006001600160a01b0384163b1561391057604051630a85bd0160e11b81526001600160a01b0385169063150b7a029061385e9033908990889088906004016143c7565b6020604051808303816000875af1925050508015613899575060408051601f3d908101601f19168201909252613896918101906143fa565b60015b6138f6573d8080156138c7576040519150601f19603f3d011682016040523d82523d6000602084013e6138cc565b606091505b5080516000036138ee5760405162461bcd60e51b81526004016107ea90614375565b805181602001fd5b6001600160e01b031916630a85bd0160e11b149050610bd7565b506001610bd7565b60008072184f03e93ff9f4daa797ed6e38ed64bf6a1f0160401b83106139575772184f03e93ff9f4daa797ed6e38ed64bf6a1f0160401b830492506040015b6d04ee2d6d415b85acef81000000008310613983576d04ee2d6d415b85acef8100000000830492506020015b662386f26fc1000083106139a157662386f26fc10000830492506010015b6305f5e10083106139b9576305f5e100830492506008015b61271083106139cd57612710830492506004015b606483106139df576064830492506002015b600a83106106b75760010192915050565b60008183106133b657816113c8565b6001600160e01b031981168114610a3657600080fd5b600060208284031215613a2757600080fd5b81356113c8816139ff565b60005b83811015613a4d578181015183820152602001613a35565b8381111561127b5750506000910152565b60008151808452613a76816020860160208601613a32565b601f01601f19169290920160200192915050565b6020815260006113c86020830184613a5e565b600060208284031215613aaf57600080fd5b5035919050565b6001600160a01b0381168114610a3657600080fd5b60008060408385031215613ade57600080fd5b8235613ae981613ab6565b946020939093013593505050565b6001600160801b031981168114610a3657600080fd5b600060208284031215613b1f57600080fd5b81356113c881613af7565b600080600060608486031215613b3f57600080fd5b8335613b4a81613ab6565b92506020840135613b5a81613ab6565b929592945050506040919091013590565b80356001600160401b0381168114613b8257600080fd5b919050565b600080600080600085870360e0811215613ba057600080fd5b613ba987613b6b565b95506020870135613bb981613af7565b94506040870135613bc981613af7565b93506060878101359350607f1982011215613be357600080fd5b506080860190509295509295909350565b60008060008060808587031215613c0a57600080fd5b84359350602085013592506040850135613c2381613af7565b91506060850135613c3381613af7565b939692955090935050565b600060208284031215613c5057600080fd5b6113c882613b6b565b60008060008060808587031215613c6f57600080fd5b8435613c7a81613af7565b93506020850135613c8a81613af7565b93969395505050506040820135916060013590565b600060208284031215613cb157600080fd5b81356113c881613ab6565b60008060208385031215613ccf57600080fd5b82356001600160401b0380821115613ce657600080fd5b818501915085601f830112613cfa57600080fd5b813581811115613d0957600080fd5b86602061014083028501011115613d1f57600080fd5b60209290920196919550909350505050565b6020808252825182820181905260009190848201906040850190845b81811015613d6957835183529284019291840191600101613d4d565b50909695505050505050565b60006101408284031215613d8857600080fd5b50919050565b8015158114610a3657600080fd5b60008060408385031215613daf57600080fd5b8235613dba81613ab6565b91506020830135613dca81613d8e565b809150509250929050565b634e487b7160e01b600052604160045260246000fd5b604080519081016001600160401b0381118282101715613e0d57613e0d613dd5565b60405290565b604051606081016001600160401b0381118282101715613e0d57613e0d613dd5565b604051601f8201601f191681016001600160401b0381118282101715613e5d57613e5d613dd5565b604052919050565b60008060008060808587031215613e7b57600080fd5b8435613e8681613ab6565b9350602085810135613e9781613ab6565b93506040860135925060608601356001600160401b0380821115613eba57600080fd5b818801915088601f830112613ece57600080fd5b813581811115613ee057613ee0613dd5565b613ef2601f8201601f19168501613e35565b91508082528984828501011115613f0857600080fd5b808484018584013760008482840101525080935050505092959194509250565b60008060408385031215613f3b57600080fd5b8235613f4681613ab6565b91506020830135613dca81613ab6565b600181811c90821680613f6a57607f821691505b602082108103613d8857634e487b7160e01b600052602260045260246000fd5b600060208284031215613f9c57600080fd5b81516113c881613ab6565b634e487b7160e01b600052601160045260246000fd5b600082821015613fcf57613fcf613fa7565b500390565b600060208284031215613fe657600080fd5b81516113c881613d8e565b6020808252602d908201527f4552433732313a2063616c6c6572206973206e6f7420746f6b656e206f776e6560408201526c1c881bdc88185c1c1c9bdd9959609a1b606082015260800190565b634e487b7160e01b600052603260045260246000fd5b60ff81168114610a3657600080fd5b803561406e81614054565b60ff16825260208181013590830152604090810135910152565b6001600160801b03198581168252841660208201526040810183905260c081016136786060830184614063565b600060ff821660ff81036140cb576140cb613fa7565b60010192915050565b634e487b7160e01b600052600160045260246000fd5b60006001600160401b0380831681810361410657614106613fa7565b6001019392505050565b60008351614122818460208801613a32565b835190830190614136818360208801613a32565b01949350505050565b6000602080838503121561415257600080fd5b82516001600160401b038082111561416957600080fd5b8185019150604080838803121561417f57600080fd5b614187613deb565b835161419281613af7565b815283850151838111156141a557600080fd5b80850194505087601f8501126141ba57600080fd5b8351838111156141cc576141cc613dd5565b6141da868260051b01613e35565b8181528681019450606091820286018701918a8311156141f957600080fd5b958701955b8287101561424a5780878c0312156142165760008081fd5b61421e613e13565b875161422981613af7565b815287890151898201528588015186820152865295860195948701946141fe565b5095820195909552979650505050505050565b60006001820161426f5761426f613fa7565b5060010190565b60208082526025908201527f4552433732313a207472616e736665722066726f6d20696e636f72726563742060408201526437bbb732b960d91b606082015260800190565b6000816142ca576142ca613fa7565b506000190190565b6000602082840312156142e457600080fd5b5051919050565b6000602082840312156142fd57600080fd5b81516113c881614054565b600081600019048311821515161561432257614322613fa7565b500290565b60008261434457634e487b7160e01b600052601260045260246000fd5b500490565b828152608081016113c86020830184614063565b6000821982111561437057614370613fa7565b500190565b60208082526032908201527f4552433732313a207472616e7366657220746f206e6f6e20455243373231526560408201527131b2b4bb32b91034b6b83632b6b2b73a32b960711b606082015260800190565b6001600160a01b038581168252841660208201526040810183905260806060820181905260009061227190830184613a5e565b60006020828403121561440c57600080fd5b81516113c8816139ff56fea2646970667358221220fe8211e85efe5a261b3a8ca71a5e19ee9cfb6e9767cb45ed4d861b22a22438d664736f6c634300080f0033",
  "deployedBytecode": "0x608060405234801561001057600080fd5b506004361061025e5760003560e01c8063715018a611610146578063a87d942c116100c3578063c96121a811610087578063c96121a8146105e6578063d6eb5910146105ee578063d7194ccb146105f6578063e4650fac14610609578063e985e9c51461061c578063f2fde38b1461065857600080fd5b8063a87d942c14610567578063b18b78dd14610587578063b88d4fde146105ad578063c34b44a0146105c0578063c87b56dd146105d357600080fd5b80638ac6d2171161010a5780638ac6d2171461051a5780638da5cb5b1461050957806395d89b4114610522578063a166895e1461052a578063a22cb4651461055457600080fd5b8063715018a6146104c85780637b5df1c9146104d05780637df73e27146104e357806388bc76ba146104f6578063893d20e81461050957600080fd5b806346e116a6116101df57806363c724f7116101a357806363c724f7146103de57806365cacaa4146103f15780636b467d1514610417578063702595861461046e57806370a082311461048e57806370dea79a146104a157600080fd5b806346e116a61461038a5780634b9ba4461461039d57806358439479146103b05780636028421f146103b85780636352211e146103cb57600080fd5b80632098b7ff116102265780632098b7ff1461031857806323b872dd1461032057806325117b7214610333578063412406651461036457806342842e0e1461037757600080fd5b806301ffc9a71461026357806306fdde031461028b578063081812fc146102a0578063095ea7b3146102cb57806312fa3bf1146102e0575b600080fd5b610276610271366004613a15565b61066b565b60405190151581526020015b60405180910390f35b6102936106bd565b6040516102829190613a8a565b6102b36102ae366004613a9d565b61074f565b6040516001600160a01b039091168152602001610282565b6102de6102d9366004613acb565b610776565b005b61030a6102ee366004613b0d565b6001600160801b0319166000908152600b602052604090205490565b604051908152602001610282565b6102de610890565b6102de61032e366004613b2a565b610a39565b60405160ff7f0000000000000000000000000000000000000000000000000000000000000000168152602001610282565b6102de610372366004613b87565b610a6a565b6102de610385366004613b2a565b610bab565b61030a610398366004613bf4565b610bc6565b6102de6103ab366004613c3e565b610bdf565b600e5461030a565b61030a6103c6366004613c59565b610cd9565b6102b36103d9366004613a9d565b610ce7565b6102de6103ec366004613c9f565b610d47565b7f00000000000000000000000000000000000000000000000000000000000000006102b3565b61042a610425366004613c3e565b610dd5565b604080519788526020880196909652948601939093526060850191909152151560808401526001600160801b031990811660a08401521660c082015260e001610282565b61048161047c366004613cbc565b610e00565b6040516102829190613d31565b61030a61049c366004613c9f565b610eb9565b61030a7f000000000000000000000000000000000000000000000000000000000000000081565b6102de610f3f565b61030a6104de366004613d75565b610f53565b6102766104f1366004613c9f565b6110be565b6102de610504366004613b0d565b6110df565b6000546001600160a01b03166102b3565b600f5461030a565b610293611286565b61030a610538366004613b0d565b6001600160801b03191660009081526011602052604090205490565b6102de610562366004613d9c565b611295565b61056f6112a0565b6040516001600160401b039091168152602001610282565b7f00000000000000000000000000000000000000000000000000000000000000006102b3565b6102de6105bb366004613e65565b6112ab565b6102de6105ce366004613c9f565b6112dd565b6102936105e1366004613a9d565b611368565b60085461030a565b60125461030a565b6102de610604366004613c3e565b6113cf565b61030a610617366004613c3e565b61158d565b61027661062a366004613f28565b6001600160a01b03918216600090815260066020908152604080832093909416825291909152205460ff1690565b6102de610666366004613c9f565b611598565b60006001600160e01b031982166380ac58cd60e01b148061069c57506001600160e01b03198216635b5e139f60e01b145b806106b757506301ffc9a760e01b6001600160e01b03198316145b92915050565b6060600180546106cc90613f56565b80601f01602080910402602001604051908101604052809291908181526020018280546106f890613f56565b80156107455780601f1061071a57610100808354040283529160200191610745565b820191906000526020600020905b81548152906001019060200180831161072857829003601f168201915b5050505050905090565b600061075a8261160e565b506000908152600560205260409020546001600160a01b031690565b600061078182610ce7565b9050806001600160a01b0316836001600160a01b0316036107f35760405162461bcd60e51b815260206004820152602160248201527f4552433732313a20617070726f76616c20746f2063757272656e74206f776e656044820152603960f91b60648201526084015b60405180910390fd5b336001600160a01b038216148061080f575061080f813361062a565b6108815760405162461bcd60e51b815260206004820152603d60248201527f4552433732313a20617070726f76652063616c6c6572206973206e6f7420746f60448201527f6b656e206f776e6572206f7220617070726f76656420666f7220616c6c00000060648201526084016107ea565b61088b838361166d565b505050565b6108986116db565b600f54601254116108fd5760405162461bcd60e51b815260206004820152602960248201527f726566756e64436f6c6c61746572616c3a204e6f20636f6c6c61746572616c206044820152681d1bc81c99599d5b9960ba1b60648201526084016107ea565b600f546012819055507f00000000000000000000000000000000000000000000000000000000000000006001600160a01b03166338d52e0f6040518163ffffffff1660e01b8152600401602060405180830381865afa158015610964573d6000803e3d6000fd5b505050506040513d601f19601f820116820180604052508101906109889190613f8a565b6001600160a01b031663a9059cbb7f0000000000000000000000000000000000000000000000000000000000000000600f546012546109c79190613fbd565b6040516001600160e01b031960e085901b1681526001600160a01b03909216600483015260248201526044016020604051808303816000875af1158015610a12573d6000803e3d6000fd5b505050506040513d601f19601f82011682018060405250810190610a369190613fd4565b50565b610a433382611735565b610a5f5760405162461bcd60e51b81526004016107ea90613ff1565b61088b8383836117b3565b826001600160801b0319166009866001600160401b031681548110610a9157610a9161403e565b600091825260209091206006909102015460801b6001600160801b03191614610b175760405162461bcd60e51b815260206004820152603260248201527f73637261746368416e64526566756e643a2070726f706f736974696f6e496420604482015271191bd95cc81b9bdd081b585d18da0818995d60721b60648201526084016107ea565b604051631b62340760e01b81526001600160a01b037f00000000000000000000000000000000000000000000000000000000000000001690631b62340790610b69908790879087908790600401614088565b600060405180830381600087803b158015610b8357600080fd5b505af1158015610b97573d6000803e3d6000fd5b50505050610ba485611924565b5050505050565b61088b838383604051806020016040528060008152506112ab565b6000610bd485858585611df6565b90505b949350505050565b60006009826001600160401b031681548110610bfd57610bfd61403e565b60009182526020918290206040805160e081018252600690930290910180546001600160801b0319608082811b82168652600160801b909204821b169484019490945260018101549183019190915260028101546060830152600381015492820192909252600482015460a082015260059091015460ff1615801560c0830152909150610ccc5760405162461bcd60e51b815260206004820152601f60248201527f736574746c653a204265742068617320616c726561647920736574746c65640060448201526064016107ea565b610cd582611f17565b5050565b6000610bd48585858561223f565b6000818152600360205260408120546001600160a01b0316806106b75760405162461bcd60e51b8152602060048201526018602482015277115490cdcc8c4e881a5b9d985b1a59081d1bdad95b88125160421b60448201526064016107ea565b610d4f6116db565b6001600160a01b038116610db15760405162461bcd60e51b815260206004820152602360248201527f6772616e745369676e65723a20496e76616c6964207369676e6572206164647260448201526265737360e81b60648201526084016107ea565b6001600160a01b03166000908152601060205260409020805460ff19166001179055565b6000806000806000806000610de98861227b565b959e949d50929b5090995097509550909350915050565b60606000826001600160401b03811115610e1c57610e1c613dd5565b604051908082528060200260200182016040528015610e45578160200160208202803683370190505b50905060005b60ff8116841115610eb1573685858360ff16818110610e6c57610e6c61403e565b905061014002019050610e7e81610f53565b838360ff1681518110610e9357610e9361403e565b60209081029190910101525080610ea9816140b5565b915050610e4b565b509392505050565b60006001600160a01b038216610f235760405162461bcd60e51b815260206004820152602960248201527f4552433732313a2061646472657373207a65726f206973206e6f7420612076616044820152683634b21037bbb732b960b91b60648201526084016107ea565b506001600160a01b031660009081526004602052604090205490565b610f476116db565b610f516000612341565b565b600080610f636020840184613b0d565b610f736040850160208601613b0d565b610f836060860160408701613b0d565b604080516001600160801b0319948516602082015292841660308401529216918101919091526080840135605082015260a0840135607082015260c0840135609082015260b001604051602081830303815290604052805190602001209050610fef818460e001612391565b15156001146110405760405162461bcd60e51b815260206004820152601760248201527f6261636b3a20496e76616c6964207369676e617475726500000000000000000060448201526064016107ea565b60006110746110556040860160208701613b0d565b6110656060870160408801613b0d565b8660600135876080013561223f565b905060008111611086576110866140d4565b610bd76110996040860160208701613b0d565b6110a96060870160408801613b0d565b86606001358760a001358860c0013586612447565b6001600160a01b03811660009081526010602052604081205460ff166106b7565b6001600160801b031981166000908152600a602090815260408083208054825181850281018501909352808352919290919083018282801561117257602002820191906000526020600020906000905b82829054906101000a90046001600160401b03166001600160401b03168152602001906008019060208260070104928301926001038202915080841161112f5790505b505083519394506000925050505b81816001600160401b0316101561127b57600083826001600160401b0316815181106111ae576111ae61403e565b6020026020010151905060006009826001600160401b0316815481106111d6576111d661403e565b600091825260208083206040805160e081018252600690940290910180546001600160801b0319608082811b82168752600160801b909204821b169385019390935260018101549184019190915260028101546060840152600381015491830191909152600481015460a08301526005015460ff16151560c0820181905290925090036112665761126682611f17565b50508080611273906140ea565b915050611180565b50505050565b905090565b6060600280546106cc90613f56565b610cd5338383612961565b600061128160095490565b6112b53383611735565b6112d15760405162461bcd60e51b81526004016107ea90613ff1565b61127b84848484612a2f565b6112e56116db565b6001600160a01b0381166113475760405162461bcd60e51b8152602060048201526024808201527f7265766f6b655369676e65723a20496e76616c6964207369676e6572206164646044820152637265737360e01b60648201526084016107ea565b6001600160a01b03166000908152601060205260409020805460ff19169055565b60606113738261160e565b600061137d612a62565b9050600081511161139d57604051806020016040528060008152506113c8565b806113a784612a71565b6040516020016113b8929190614110565b6040516020818303038152906040525b9392505050565b60006009826001600160401b0316815481106113ed576113ed61403e565b60009182526020822060069190910201546040516325a8f38560e11b8152600160801b90910460801b6001600160801b03198116600483015292506001600160a01b037f00000000000000000000000000000000000000000000000000000000000000001690634b51e70a90602401600060405180830381865afa158015611479573d6000803e3d6000fd5b505050506040513d6000823e601f3d908101601f191682016040526114a1919081019061413f565b905060005b816020015151811015611544576009846001600160401b0316815481106114cf576114cf61403e565b906000526020600020906006020160000160009054906101000a900460801b6001600160801b0319168260200151828151811061150e5761150e61403e565b6020026020010151600001516001600160801b031916036115325761127b84611924565b8061153c8161425d565b9150506114a6565b5060405162461bcd60e51b815260206004820152601f60248201527f726566756e643a204e6f7420656c696769626c6520666f7220726566756e640060448201526064016107ea565b60006106b782612b03565b6115a06116db565b6001600160a01b0381166116055760405162461bcd60e51b815260206004820152602660248201527f4f776e61626c653a206e6577206f776e657220697320746865207a65726f206160448201526564647265737360d01b60648201526084016107ea565b610a3681612341565b6000818152600360205260409020546001600160a01b0316610a365760405162461bcd60e51b8152602060048201526018602482015277115490cdcc8c4e881a5b9d985b1a59081d1bdad95b88125160421b60448201526064016107ea565b600081815260056020526040902080546001600160a01b0319166001600160a01b03841690811790915581906116a282610ce7565b6001600160a01b03167f8c5be1e5ebec7d5bd14f71427d1e84f3dd0314c0f7b2291e5b200ac8c7c3b92560405160405180910390a45050565b6000546001600160a01b03163314610f515760405162461bcd60e51b815260206004820181905260248201527f4f776e61626c653a2063616c6c6572206973206e6f7420746865206f776e657260448201526064016107ea565b60008061174183610ce7565b9050806001600160a01b0316846001600160a01b0316148061178857506001600160a01b0380821660009081526006602090815260408083209388168352929052205460ff165b80610bd75750836001600160a01b03166117a18461074f565b6001600160a01b031614949350505050565b826001600160a01b03166117c682610ce7565b6001600160a01b0316146117ec5760405162461bcd60e51b81526004016107ea90614276565b6001600160a01b03821661184e5760405162461bcd60e51b8152602060048201526024808201527f4552433732313a207472616e7366657220746f20746865207a65726f206164646044820152637265737360e01b60648201526084016107ea565b61185b8383836001612b5e565b826001600160a01b031661186e82610ce7565b6001600160a01b0316146118945760405162461bcd60e51b81526004016107ea90614276565b600081815260056020908152604080832080546001600160a01b03199081169091556001600160a01b0387811680865260048552838620805460001901905590871680865283862080546001019055868652600390945282852080549092168417909155905184937fddf252ad1be2c89b69c2b068fc378daa952ba7f163c4a11628f55a4df523b3ef91a4505050565b60006009826001600160401b0316815481106119425761194261403e565b60009182526020918290206040805160e081018252600690930290910180546001600160801b0319608082811b82168652600160801b909204821b169484019490945260018101549183019190915260028101546060830152600381015492820192909252600482015460a082015260059091015460ff1615801560c0830152909150611a115760405162461bcd60e51b815260206004820152601f60248201527f726566756e643a204265742068617320616c726561647920736574746c65640060448201526064016107ea565b600160c08201526001600160401b038216600090815260146020526040812054600f805491928392611a44908490613fbd565b9091555050600980546001600160401b038516908110611a6657611a6661403e565b906000526020600020906006020160010154600e6000828254611a899190613fbd565b909155505060088054906000611a9e836142bb565b91905055507f00000000000000000000000000000000000000000000000000000000000000006001600160a01b03166338d52e0f6040518163ffffffff1660e01b8152600401602060405180830381865afa158015611b01573d6000803e3d6000fd5b505050506040513d601f19601f82011682018060405250810190611b259190613f8a565b6001600160a01b031663a9059cbb611b45856001600160401b0316610ce7565b60408086015190516001600160e01b031960e085901b1681526001600160a01b03909216600483015260248201526044016020604051808303816000875af1158015611b95573d6000803e3d6000fd5b505050506040513d601f19601f82011682018060405250810190611bb99190613fd4565b508015611d9d577f00000000000000000000000000000000000000000000000000000000000000006001600160a01b03166338d52e0f6040518163ffffffff1660e01b8152600401602060405180830381865afa158015611c1e573d6000803e3d6000fd5b505050506040513d601f19601f82011682018060405250810190611c429190613f8a565b60405163a9059cbb60e01b81526001600160a01b037f00000000000000000000000000000000000000000000000000000000000000008116600483015260248201849052919091169063a9059cbb906044016020604051808303816000875af1158015611cb3573d6000803e3d6000fd5b505050506040513d601f19601f82011682018060405250810190611cd79190613fd4565b507f00000000000000000000000000000000000000000000000000000000000000006001600160a01b03166338d52e0f6040518163ffffffff1660e01b8152600401602060405180830381865afa158015611d36573d6000803e3d6000fd5b505050506040513d601f19601f82011682018060405250810190611d5a9190613f8a565b6001600160a01b03167f0516911bcc3a0a7412a44601057c0a0a1ec628bde049a84284bc42886653448882604051611d9491815260200190565b60405180910390a25b60408083015181516001600160401b038616815260208101919091527fb7c1f9298a18c36af08bd57eabbfbeb04695f24d0438f67614741ec15fb5c4a9910160405180910390a161088b836001600160401b0316612be6565b6000600185111580611e09575060018411155b15611e1657506001610bd7565b60007f00000000000000000000000000000000000000000000000000000000000000006001600160a01b031663b15031fa6040518163ffffffff1660e01b8152600401602060405180830381865afa158015611e76573d6000803e3d6000fd5b505050506040513d601f19601f82011682018060405250810190611e9a91906142d2565b905080600003611eae576001915050610bd7565b6001600160801b031984166000908152600d6020526040902054811015611ed9576001915050610bd7565b6001600160801b031984166000908152600d6020526040902054611efd9082613fbd565b90506000611f0c878784612c89565b979650505050505050565b60006009826001600160401b031681548110611f3557611f3561403e565b60009182526020918290206040805160e081018252600690930290910180546001600160801b0319608082811b82168652600160801b909204821b16948401949094526001808201549284019290925260028101546060840152600381015493830193909352600483015460a083015260059092015460ff16151560c082015260098054919350906001600160401b038516908110611fd657611fd661403e565b60009182526020822060069190910201600501805460ff1916921515929092179091558061200384612b03565b42111561203b5760019150612020846001600160401b0316610ce7565b9050612036846001600160401b03166001612d0e565b6121a8565b602083015183516040516306c77ce760e01b81526001600160801b03199283166004820152911660248201527f00000000000000000000000000000000000000000000000000000000000000006001600160a01b0316906306c77ce790604401602060405180830381865afa1580156120b8573d6000803e3d6000fd5b505050506040513d601f19601f820116820180604052508101906120dc91906142eb565b915060011960ff831601612110577f0000000000000000000000000000000000000000000000000000000000000000612122565b612122846001600160401b0316610ce7565b905060001960ff83160161213b5761213984613041565b505b61214e846001600160401b031683612d0e565b6009846001600160401b03168154811061216a5761216a61403e565b906000526020600020906006020160010154600e600082825461218d9190613fbd565b9091555050600880549060006121a2836142bb565b91905055505b806001600160a01b03167f7c2e00429f610bdb997681cabbb0ef3197390c07fe90ea4a98ac36438dd4217c856009876001600160401b0316815481106121f0576121f061403e565b600091825260209182902060026006909202010154604080516001600160401b0390941684529183015260ff86169082015260600160405180910390a261127b846001600160401b0316612be6565b60008061224e84848888611df6565b905061227184620f42406122628285614308565b61226c9190614327565b6133a7565b9695505050505050565b6000806000806000806000806009896001600160401b0316815481106122a3576122a361403e565b60009182526020918290206040805160e0810182526006939093029091018054608081811b6001600160801b0319908116808752600160801b909304821b1695850186905260018301549385018490526002830154606086018190526003840154918601829052600484015460a0870181905260059094015460ff16151560c0909601869052939f939e509c50909a50919850919650945092505050565b600080546001600160a01b038381166001600160a01b0319831681178455604051919092169283917f8be0079c531659141344cd1fd0a4f28419497f9722a3daafe3b4186f6b6457e09190a35050565b60008073__$47464c6f7588c8075b5d384b19d082a8ec$__635cff288d85856040518363ffffffff1660e01b81526004016123cd929190614349565b602060405180830381865af41580156123ea573d6000803e3d6000fd5b505050506040513d601f19601f8201168201806040525081019061240e9190613f8a565b90506001600160a01b038116612426576124266140d4565b6001600160a01b03811660009081526010602052604090205460ff16610bd7565b6000428311801561245757504284115b6124995760405162461bcd60e51b81526020600482015260136024820152725f6261636b3a20496e76616c6964206461746560681b60448201526064016107ea565b6040516306c77ce760e01b81526001600160801b03198088166004830152881660248201527f00000000000000000000000000000000000000000000000000000000000000006001600160a01b0316906306c77ce790604401602060405180830381865afa15801561250f573d6000803e3d6000fd5b505050506040513d601f19601f8201168201806040525081019061253391906142eb565b60ff1660021461259e5760405162461bcd60e51b815260206004820152603060248201527f5f6261636b3a204f7261636c6520726573756c7420616c72656164792073657460448201526f08199bdc881d1a1a5cc81b585c9ad95d60821b60648201526084016107ea565b6001600160a01b037f0000000000000000000000000000000000000000000000000000000000000000166323b872dd3360405160e083901b6001600160e01b03191681526001600160a01b0391821660048201527f00000000000000000000000000000000000000000000000000000000000000009091166024820152604481018890526064016020604051808303816000875af1158015612644573d6000803e3d6000fd5b505050506040513d601f19601f820116820180604052508101906126689190613fd4565b506001600160801b031986166000908152600b60205260408120805487929061269290849061435d565b9250508190555084600e60008282546126ab919061435d565b9091555050600880549060006126c08361425d565b919050555060006126d060095490565b6001600160801b031989166000908152600d60205260408120805492935085929091906126fe90849061435d565b9091555061271a90506001600160401b038216888a89876133bd565b600f600082825461272b919061435d565b90915550506040805160e0810182526001600160801b03198a81168252891660208083018281528385018b81526060850189815260808087018c81524260a08901908152600060c08a0181815260098054600180820183559184529b51985198861c600160801b9990961c98909802949094177f6e1540171b6c0c960b71a7020d9f60077f6af931a8bbf590da0223dacf75c7af6006909b029a8b015594517f6e1540171b6c0c960b71a7020d9f60077f6af931a8bbf590da0223dacf75c7b08a015592517f6e1540171b6c0c960b71a7020d9f60077f6af931a8bbf590da0223dacf75c7b1890155517f6e1540171b6c0c960b71a7020d9f60077f6af931a8bbf590da0223dacf75c7b288015590517f6e1540171b6c0c960b71a7020d9f60077f6af931a8bbf590da0223dacf75c7b3870155517f6e1540171b6c0c960b71a7020d9f60077f6af931a8bbf590da0223dacf75c7b4909501805460ff191695151595909517909455918352600a81529282208054918201815582529190206004820401805460039092166008026101000a6001600160401b0381810219909316928416029190911790556128e933826001600160401b0316613681565b604080516001600160401b03831681526001600160801b03198a811660208301528916818301526060810188905260808101859052905133917f1d273ea6a1aea94de32fd06a09ab8046dff8e3261c5a4ecaa5e1a5705f3342ec919081900360a00190a26001600160401b0316979650505050505050565b816001600160a01b0316836001600160a01b0316036129c25760405162461bcd60e51b815260206004820152601960248201527f4552433732313a20617070726f766520746f2063616c6c65720000000000000060448201526064016107ea565b6001600160a01b03838116600081815260066020908152604080832094871680845294825291829020805460ff191686151590811790915591519182527f17307eab39ab6107e8899845ad3d59bd9653f200f220920489ca2b5937696c31910160405180910390a3505050565b612a3a8484846117b3565b612a468484848461381a565b61127b5760405162461bcd60e51b81526004016107ea90614375565b6060600780546106cc90613f56565b60606000612a7e83613918565b60010190506000816001600160401b03811115612a9d57612a9d613dd5565b6040519080825280601f01601f191660200182016040528015612ac7576020820181803683370190505b5090508181016020015b600019016f181899199a1a9b1b9c1cb0b131b232b360811b600a86061a8153600a8504945084612ad157509392505050565b60007f00000000000000000000000000000000000000000000000000000000000000006009836001600160401b031681548110612b4257612b4261403e565b9060005260206000209060060201600301546106b7919061435d565b600181111561127b576001600160a01b03841615612ba4576001600160a01b03841660009081526004602052604081208054839290612b9e908490613fbd565b90915550505b6001600160a01b0383161561127b576001600160a01b03831660009081526004602052604081208054839290612bdb90849061435d565b909155505050505050565b6000612bf182610ce7565b9050612c01816000846001612b5e565b612c0a82610ce7565b600083815260056020908152604080832080546001600160a01b03199081169091556001600160a01b0385168085526004845282852080546000190190558785526003909352818420805490911690555192935084927fddf252ad1be2c89b69c2b068fc378daa952ba7f163c4a11628f55a4df523b3ef908390a45050565b60405163a19dec4360e01b815260048101849052602481018390526044810182905260009073__$488e0037c7b108d422da68056570fe35d6$__9063a19dec4390606401602060405180830381865af4158015612cea573d6000803e3d6000fd5b505050506040513d601f19601f82011682018060405250810190610bd791906142d2565b600060098381548110612d2357612d2361403e565b90600052602060002090600602016001015490506014600084815260200190815260200160002054600f6000828254612d5c9190613fbd565b909155505060021960ff831601612e17577f00000000000000000000000000000000000000000000000000000000000000006001600160a01b031663a9059cbb612da585610ce7565b6040516001600160e01b031960e084901b1681526001600160a01b039091166004820152602481018490526044015b6020604051808303816000875af1158015612df3573d6000803e3d6000fd5b505050506040513d601f19601f8201168201806040525081019061127b9190613fd4565b4260098481548110612e2b57612e2b61403e565b90600052602060002090600602016003015410612e8a5760405162461bcd60e51b815260206004820181905260248201527f5f7061796f75743a205061796f75742064617465206e6f74207265616368656460448201526064016107ea565b60001960ff831601612f8d576000838152601460205260408120546012805491929091612eb8908490613fbd565b90915550506001600160a01b037f00000000000000000000000000000000000000000000000000000000000000001663a9059cbb612ef585610ce7565b60098681548110612f0857612f0861403e565b60009182526020909120600260069092020101546040516001600160e01b031960e085901b1681526001600160a01b03909216600483015260248201526044016020604051808303816000875af1158015612f67573d6000803e3d6000fd5b505050506040513d601f19601f82011682018060405250810190612f8b9190613fd4565b505b60011960ff83160161088b577f00000000000000000000000000000000000000000000000000000000000000006001600160a01b031663a9059cbb7f000000000000000000000000000000000000000000000000000000000000000060098681548110612ffc57612ffc61403e565b60009182526020909120600160069092020101546040516001600160e01b031960e085901b1681526001600160a01b0390921660048301526024820152604401612dd4565b6000806009836001600160401b0316815481106130605761306061403e565b60009182526020822060069190910201546040516325a8f38560e11b8152600160801b90910460801b6001600160801b03198116600483015292506001600160a01b037f00000000000000000000000000000000000000000000000000000000000000001690634b51e70a90602401600060405180830381865afa1580156130ec573d6000803e3d6000fd5b505050506040513d6000823e601f3d908101601f19168201604052613114919081019061413f565b90506000806009866001600160401b0316815481106131355761313561403e565b90600052602060002090600602016004015490506000836020015151905060005b818110156131c95782856020015182815181106131755761317561403e565b60200260200101516020015111156131b7578460200151818151811061319d5761319d61403e565b602002602001015160400151846131b4919061435d565b93505b806131c18161425d565b915050613156565b50600083118015613207575060006009886001600160401b0316815481106131f3576131f361403e565b906000526020600020906006020160010154115b1561336d5760006009886001600160401b03168154811061322a5761322a61403e565b9060005260206000209060060201600101546009896001600160401b0316815481106132585761325861403e565b9060005260206000209060060201600201546132749190614327565b604051637869dde560e11b815260048101829052602481018690526216e360604482015290915060009073__$488e0037c7b108d422da68056570fe35d6$__9063f0d3bbca90606401602060405180830381865af41580156132da573d6000803e3d6000fd5b505050506040513d601f19601f820116820180604052508101906132fe91906142d2565b90508060098a6001600160401b03168154811061331d5761331d61403e565b9060005260206000209060060201600101546133399190614308565b60098a6001600160401b0316815481106133555761335561403e565b90600052602060002090600602016002018190555050505b6009876001600160401b0316815481106133895761338961403e565b90600052602060002090600602016002015495505050505050919050565b60008183116133b657816113c8565b5090919050565b6001600160801b031984166000908152600b6020908152604080832054601190925282205482916133ed9161435d565b6001600160801b031986166000908152600d6020526040902054909150811061341a576000915050613678565b6001600160801b031986811660009081526013602090815260408083208054851660808b901c1790559288168252600d90529081205461345b908390613fbd565b90506000600f54601254111561348d576000600f5460125461347d9190613fbd565b905061348983826139f0565b9150505b818110156136355760006134a18284613fbd565b90507f00000000000000000000000000000000000000000000000000000000000000006001600160a01b03166338d52e0f6040518163ffffffff1660e01b8152600401602060405180830381865afa158015613501573d6000803e3d6000fd5b505050506040513d601f19601f820116820180604052508101906135259190613f8a565b6040516323b872dd60e01b81526001600160a01b037f0000000000000000000000000000000000000000000000000000000000000000811660048301527f0000000000000000000000000000000000000000000000000000000000000000811660248301526044820184905291909116906323b872dd906064016020604051808303816000875af11580156135be573d6000803e3d6000fd5b505050506040513d601f19601f820116820180604052508101906135e29190613fd4565b50604080518b8152602081018390527f14a13f958d7fe38fb8529e8d43353b6d9120f52444e486a4077f68a3fc77dcbf910160405180910390a1806012600082825461362e919061435d565b9091555050505b60008981526014602090815260408083208590556001600160801b03198b16835260119091528120805484929061366d90849061435d565b909155509193505050505b95945050505050565b6001600160a01b0382166136d75760405162461bcd60e51b815260206004820181905260248201527f4552433732313a206d696e7420746f20746865207a65726f206164647265737360448201526064016107ea565b6000818152600360205260409020546001600160a01b03161561373c5760405162461bcd60e51b815260206004820152601c60248201527f4552433732313a20746f6b656e20616c7265616479206d696e7465640000000060448201526064016107ea565b61374a600083836001612b5e565b6000818152600360205260409020546001600160a01b0316156137af5760405162461bcd60e51b815260206004820152601c60248201527f4552433732313a20746f6b656e20616c7265616479206d696e7465640000000060448201526064016107ea565b6001600160a01b038216600081815260046020908152604080832080546001019055848352600390915280822080546001600160a01b0319168417905551839291907fddf252ad1be2c89b69c2b068fc378daa952ba7f163c4a11628f55a4df523b3ef908290a45050565b60006001600160a01b0384163b1561391057604051630a85bd0160e11b81526001600160a01b0385169063150b7a029061385e9033908990889088906004016143c7565b6020604051808303816000875af1925050508015613899575060408051601f3d908101601f19168201909252613896918101906143fa565b60015b6138f6573d8080156138c7576040519150601f19603f3d011682016040523d82523d6000602084013e6138cc565b606091505b5080516000036138ee5760405162461bcd60e51b81526004016107ea90614375565b805181602001fd5b6001600160e01b031916630a85bd0160e11b149050610bd7565b506001610bd7565b60008072184f03e93ff9f4daa797ed6e38ed64bf6a1f0160401b83106139575772184f03e93ff9f4daa797ed6e38ed64bf6a1f0160401b830492506040015b6d04ee2d6d415b85acef81000000008310613983576d04ee2d6d415b85acef8100000000830492506020015b662386f26fc1000083106139a157662386f26fc10000830492506010015b6305f5e10083106139b9576305f5e100830492506008015b61271083106139cd57612710830492506004015b606483106139df576064830492506002015b600a83106106b75760010192915050565b60008183106133b657816113c8565b6001600160e01b031981168114610a3657600080fd5b600060208284031215613a2757600080fd5b81356113c8816139ff565b60005b83811015613a4d578181015183820152602001613a35565b8381111561127b5750506000910152565b60008151808452613a76816020860160208601613a32565b601f01601f19169290920160200192915050565b6020815260006113c86020830184613a5e565b600060208284031215613aaf57600080fd5b5035919050565b6001600160a01b0381168114610a3657600080fd5b60008060408385031215613ade57600080fd5b8235613ae981613ab6565b946020939093013593505050565b6001600160801b031981168114610a3657600080fd5b600060208284031215613b1f57600080fd5b81356113c881613af7565b600080600060608486031215613b3f57600080fd5b8335613b4a81613ab6565b92506020840135613b5a81613ab6565b929592945050506040919091013590565b80356001600160401b0381168114613b8257600080fd5b919050565b600080600080600085870360e0811215613ba057600080fd5b613ba987613b6b565b95506020870135613bb981613af7565b94506040870135613bc981613af7565b93506060878101359350607f1982011215613be357600080fd5b506080860190509295509295909350565b60008060008060808587031215613c0a57600080fd5b84359350602085013592506040850135613c2381613af7565b91506060850135613c3381613af7565b939692955090935050565b600060208284031215613c5057600080fd5b6113c882613b6b565b60008060008060808587031215613c6f57600080fd5b8435613c7a81613af7565b93506020850135613c8a81613af7565b93969395505050506040820135916060013590565b600060208284031215613cb157600080fd5b81356113c881613ab6565b60008060208385031215613ccf57600080fd5b82356001600160401b0380821115613ce657600080fd5b818501915085601f830112613cfa57600080fd5b813581811115613d0957600080fd5b86602061014083028501011115613d1f57600080fd5b60209290920196919550909350505050565b6020808252825182820181905260009190848201906040850190845b81811015613d6957835183529284019291840191600101613d4d565b50909695505050505050565b60006101408284031215613d8857600080fd5b50919050565b8015158114610a3657600080fd5b60008060408385031215613daf57600080fd5b8235613dba81613ab6565b91506020830135613dca81613d8e565b809150509250929050565b634e487b7160e01b600052604160045260246000fd5b604080519081016001600160401b0381118282101715613e0d57613e0d613dd5565b60405290565b604051606081016001600160401b0381118282101715613e0d57613e0d613dd5565b604051601f8201601f191681016001600160401b0381118282101715613e5d57613e5d613dd5565b604052919050565b60008060008060808587031215613e7b57600080fd5b8435613e8681613ab6565b9350602085810135613e9781613ab6565b93506040860135925060608601356001600160401b0380821115613eba57600080fd5b818801915088601f830112613ece57600080fd5b813581811115613ee057613ee0613dd5565b613ef2601f8201601f19168501613e35565b91508082528984828501011115613f0857600080fd5b808484018584013760008482840101525080935050505092959194509250565b60008060408385031215613f3b57600080fd5b8235613f4681613ab6565b91506020830135613dca81613ab6565b600181811c90821680613f6a57607f821691505b602082108103613d8857634e487b7160e01b600052602260045260246000fd5b600060208284031215613f9c57600080fd5b81516113c881613ab6565b634e487b7160e01b600052601160045260246000fd5b600082821015613fcf57613fcf613fa7565b500390565b600060208284031215613fe657600080fd5b81516113c881613d8e565b6020808252602d908201527f4552433732313a2063616c6c6572206973206e6f7420746f6b656e206f776e6560408201526c1c881bdc88185c1c1c9bdd9959609a1b606082015260800190565b634e487b7160e01b600052603260045260246000fd5b60ff81168114610a3657600080fd5b803561406e81614054565b60ff16825260208181013590830152604090810135910152565b6001600160801b03198581168252841660208201526040810183905260c081016136786060830184614063565b600060ff821660ff81036140cb576140cb613fa7565b60010192915050565b634e487b7160e01b600052600160045260246000fd5b60006001600160401b0380831681810361410657614106613fa7565b6001019392505050565b60008351614122818460208801613a32565b835190830190614136818360208801613a32565b01949350505050565b6000602080838503121561415257600080fd5b82516001600160401b038082111561416957600080fd5b8185019150604080838803121561417f57600080fd5b614187613deb565b835161419281613af7565b815283850151838111156141a557600080fd5b80850194505087601f8501126141ba57600080fd5b8351838111156141cc576141cc613dd5565b6141da868260051b01613e35565b8181528681019450606091820286018701918a8311156141f957600080fd5b958701955b8287101561424a5780878c0312156142165760008081fd5b61421e613e13565b875161422981613af7565b815287890151898201528588015186820152865295860195948701946141fe565b5095820195909552979650505050505050565b60006001820161426f5761426f613fa7565b5060010190565b60208082526025908201527f4552433732313a207472616e736665722066726f6d20696e636f72726563742060408201526437bbb732b960d91b606082015260800190565b6000816142ca576142ca613fa7565b506000190190565b6000602082840312156142e457600080fd5b5051919050565b6000602082840312156142fd57600080fd5b81516113c881614054565b600081600019048311821515161561432257614322613fa7565b500290565b60008261434457634e487b7160e01b600052601260045260246000fd5b500490565b828152608081016113c86020830184614063565b6000821982111561437057614370613fa7565b500190565b60208082526032908201527f4552433732313a207472616e7366657220746f206e6f6e20455243373231526560408201527131b2b4bb32b91034b6b83632b6b2b73a32b960711b606082015260800190565b6001600160a01b038581168252841660208201526040810183905260806060820181905260009061227190830184613a5e565b60006020828403121561440c57600080fd5b81516113c8816139ff56fea2646970667358221220fe8211e85efe5a261b3a8ca71a5e19ee9cfb6e9767cb45ed4d861b22a22438d664736f6c634300080f0033",
  "libraries": {
    "SignatureLib": "0x2CFb7A620A699229a41C66E530b1C06877f3982F",
    "OddsLib": "0x6572C1eAb1F1EdD06c1Cc449e630413b6E5de647"
  },
  "devdoc": {
    "kind": "dev",
    "methods": {
      "approve(address,uint256)": {
        "details": "See {IERC721-approve}."
      },
      "balanceOf(address)": {
        "details": "See {IERC721-balanceOf}."
      },
      "getApproved(uint256)": {
        "details": "See {IERC721-getApproved}."
      },
      "isApprovedForAll(address,address)": {
        "details": "See {IERC721-isApprovedForAll}."
      },
      "name()": {
        "details": "See {IERC721Metadata-name}."
      },
      "owner()": {
        "details": "Returns the address of the current owner."
      },
      "ownerOf(uint256)": {
        "details": "See {IERC721-ownerOf}."
      },
      "renounceOwnership()": {
        "details": "Leaves the contract without owner. It will not be possible to call `onlyOwner` functions anymore. Can only be called by the current owner. NOTE: Renouncing ownership will leave the contract without an owner, thereby removing any functionality that is only available to the owner."
      },
      "safeTransferFrom(address,address,uint256)": {
        "details": "See {IERC721-safeTransferFrom}."
      },
      "safeTransferFrom(address,address,uint256,bytes)": {
        "details": "See {IERC721-safeTransferFrom}."
      },
      "setApprovalForAll(address,bool)": {
        "details": "See {IERC721-setApprovalForAll}."
      },
      "supportsInterface(bytes4)": {
        "details": "See {IERC165-supportsInterface}."
      },
      "symbol()": {
        "details": "See {IERC721Metadata-symbol}."
      },
      "tokenURI(uint256)": {
        "details": "See {IERC721Metadata-tokenURI}."
      },
      "transferFrom(address,address,uint256)": {
        "details": "See {IERC721-transferFrom}."
      },
      "transferOwnership(address)": {
        "details": "Transfers ownership of the contract to a new account (`newOwner`). Can only be called by the current owner."
      }
    },
    "version": 1
  },
  "userdoc": {
    "kind": "user",
    "methods": {},
    "version": 1
  },
  "storageLayout": {
    "storage": [
      {
        "astId": 2722,
        "contract": "contracts/presets/MarketCollateralisedLinear.sol:MarketCollateralisedLinear",
        "label": "_owner",
        "offset": 0,
        "slot": "0",
        "type": "t_address"
      },
      {
        "astId": 5039,
        "contract": "contracts/presets/MarketCollateralisedLinear.sol:MarketCollateralisedLinear",
        "label": "_name",
        "offset": 0,
        "slot": "1",
        "type": "t_string_storage"
      },
      {
        "astId": 5041,
        "contract": "contracts/presets/MarketCollateralisedLinear.sol:MarketCollateralisedLinear",
        "label": "_symbol",
        "offset": 0,
        "slot": "2",
        "type": "t_string_storage"
      },
      {
        "astId": 5045,
        "contract": "contracts/presets/MarketCollateralisedLinear.sol:MarketCollateralisedLinear",
        "label": "_owners",
        "offset": 0,
        "slot": "3",
        "type": "t_mapping(t_uint256,t_address)"
      },
      {
        "astId": 5049,
        "contract": "contracts/presets/MarketCollateralisedLinear.sol:MarketCollateralisedLinear",
        "label": "_balances",
        "offset": 0,
        "slot": "4",
        "type": "t_mapping(t_address,t_uint256)"
      },
      {
        "astId": 5053,
        "contract": "contracts/presets/MarketCollateralisedLinear.sol:MarketCollateralisedLinear",
        "label": "_tokenApprovals",
        "offset": 0,
        "slot": "5",
        "type": "t_mapping(t_uint256,t_address)"
      },
      {
        "astId": 5059,
        "contract": "contracts/presets/MarketCollateralisedLinear.sol:MarketCollateralisedLinear",
        "label": "_operatorApprovals",
        "offset": 0,
        "slot": "6",
        "type": "t_mapping(t_address,t_mapping(t_address,t_bool))"
      },
      {
        "astId": 11999,
        "contract": "contracts/presets/MarketCollateralisedLinear.sol:MarketCollateralisedLinear",
        "label": "_metadataBaseURI",
        "offset": 0,
        "slot": "7",
        "type": "t_string_storage"
      },
      {
        "astId": 12014,
        "contract": "contracts/presets/MarketCollateralisedLinear.sol:MarketCollateralisedLinear",
        "label": "_inplayCount",
        "offset": 0,
        "slot": "8",
        "type": "t_uint256"
      },
      {
        "astId": 12018,
        "contract": "contracts/presets/MarketCollateralisedLinear.sol:MarketCollateralisedLinear",
        "label": "_bets",
        "offset": 0,
        "slot": "9",
        "type": "t_array(t_struct(Bet)11985_storage)dyn_storage"
      },
      {
        "astId": 12023,
        "contract": "contracts/presets/MarketCollateralisedLinear.sol:MarketCollateralisedLinear",
        "label": "_marketBets",
        "offset": 0,
        "slot": "10",
        "type": "t_mapping(t_bytes16,t_array(t_uint64)dyn_storage)"
      },
      {
        "astId": 12027,
        "contract": "contracts/presets/MarketCollateralisedLinear.sol:MarketCollateralisedLinear",
        "label": "_marketTotal",
        "offset": 0,
        "slot": "11",
        "type": "t_mapping(t_bytes16,t_uint256)"
      },
      {
        "astId": 12033,
        "contract": "contracts/presets/MarketCollateralisedLinear.sol:MarketCollateralisedLinear",
        "label": "_marketBetAmount",
        "offset": 0,
        "slot": "12",
        "type": "t_mapping(t_bytes16,t_mapping(t_uint16,t_uint256))"
      },
      {
        "astId": 12037,
        "contract": "contracts/presets/MarketCollateralisedLinear.sol:MarketCollateralisedLinear",
        "label": "_potentialPayout",
        "offset": 0,
        "slot": "13",
        "type": "t_mapping(t_bytes16,t_uint256)"
      },
      {
        "astId": 12039,
        "contract": "contracts/presets/MarketCollateralisedLinear.sol:MarketCollateralisedLinear",
        "label": "_totalInPlay",
        "offset": 0,
        "slot": "14",
        "type": "t_uint256"
      },
      {
        "astId": 12041,
        "contract": "contracts/presets/MarketCollateralisedLinear.sol:MarketCollateralisedLinear",
        "label": "_totalExposure",
        "offset": 0,
        "slot": "15",
        "type": "t_uint256"
      },
      {
        "astId": 12047,
        "contract": "contracts/presets/MarketCollateralisedLinear.sol:MarketCollateralisedLinear",
        "label": "_signers",
        "offset": 0,
        "slot": "16",
        "type": "t_mapping(t_address,t_bool)"
      },
      {
        "astId": 13606,
        "contract": "contracts/presets/MarketCollateralisedLinear.sol:MarketCollateralisedLinear",
        "label": "_marketCollateral",
        "offset": 0,
        "slot": "17",
        "type": "t_mapping(t_bytes16,t_uint256)"
      },
      {
        "astId": 13608,
        "contract": "contracts/presets/MarketCollateralisedLinear.sol:MarketCollateralisedLinear",
        "label": "_totalCollateral",
        "offset": 0,
        "slot": "18",
        "type": "t_uint256"
      },
      {
        "astId": 13612,
        "contract": "contracts/presets/MarketCollateralisedLinear.sol:MarketCollateralisedLinear",
        "label": "_mostExpensivePropositionId",
        "offset": 0,
        "slot": "19",
        "type": "t_mapping(t_bytes16,t_bytes16)"
      },
      {
        "astId": 13616,
        "contract": "contracts/presets/MarketCollateralisedLinear.sol:MarketCollateralisedLinear",
        "label": "_betExposure",
        "offset": 0,
        "slot": "20",
        "type": "t_mapping(t_uint256,t_uint256)"
      }
    ],
    "types": {
      "t_address": {
        "encoding": "inplace",
        "label": "address",
        "numberOfBytes": "20"
      },
      "t_array(t_struct(Bet)11985_storage)dyn_storage": {
        "base": "t_struct(Bet)11985_storage",
        "encoding": "dynamic_array",
        "label": "struct Bet[]",
        "numberOfBytes": "32"
      },
      "t_array(t_uint64)dyn_storage": {
        "base": "t_uint64",
        "encoding": "dynamic_array",
        "label": "uint64[]",
        "numberOfBytes": "32"
      },
      "t_bool": {
        "encoding": "inplace",
        "label": "bool",
        "numberOfBytes": "1"
      },
      "t_bytes16": {
        "encoding": "inplace",
        "label": "bytes16",
        "numberOfBytes": "16"
      },
      "t_mapping(t_address,t_bool)": {
        "encoding": "mapping",
        "key": "t_address",
        "label": "mapping(address => bool)",
        "numberOfBytes": "32",
        "value": "t_bool"
      },
      "t_mapping(t_address,t_mapping(t_address,t_bool))": {
        "encoding": "mapping",
        "key": "t_address",
        "label": "mapping(address => mapping(address => bool))",
        "numberOfBytes": "32",
        "value": "t_mapping(t_address,t_bool)"
      },
      "t_mapping(t_address,t_uint256)": {
        "encoding": "mapping",
        "key": "t_address",
        "label": "mapping(address => uint256)",
        "numberOfBytes": "32",
        "value": "t_uint256"
      },
      "t_mapping(t_bytes16,t_array(t_uint64)dyn_storage)": {
        "encoding": "mapping",
        "key": "t_bytes16",
        "label": "mapping(bytes16 => uint64[])",
        "numberOfBytes": "32",
        "value": "t_array(t_uint64)dyn_storage"
      },
      "t_mapping(t_bytes16,t_bytes16)": {
        "encoding": "mapping",
        "key": "t_bytes16",
        "label": "mapping(bytes16 => bytes16)",
        "numberOfBytes": "32",
        "value": "t_bytes16"
      },
      "t_mapping(t_bytes16,t_mapping(t_uint16,t_uint256))": {
        "encoding": "mapping",
        "key": "t_bytes16",
        "label": "mapping(bytes16 => mapping(uint16 => uint256))",
        "numberOfBytes": "32",
        "value": "t_mapping(t_uint16,t_uint256)"
      },
      "t_mapping(t_bytes16,t_uint256)": {
        "encoding": "mapping",
        "key": "t_bytes16",
        "label": "mapping(bytes16 => uint256)",
        "numberOfBytes": "32",
        "value": "t_uint256"
      },
      "t_mapping(t_uint16,t_uint256)": {
        "encoding": "mapping",
        "key": "t_uint16",
        "label": "mapping(uint16 => uint256)",
        "numberOfBytes": "32",
        "value": "t_uint256"
      },
      "t_mapping(t_uint256,t_address)": {
        "encoding": "mapping",
        "key": "t_uint256",
        "label": "mapping(uint256 => address)",
        "numberOfBytes": "32",
        "value": "t_address"
      },
      "t_mapping(t_uint256,t_uint256)": {
        "encoding": "mapping",
        "key": "t_uint256",
        "label": "mapping(uint256 => uint256)",
        "numberOfBytes": "32",
        "value": "t_uint256"
      },
      "t_string_storage": {
        "encoding": "bytes",
        "label": "string",
        "numberOfBytes": "32"
      },
      "t_struct(Bet)11985_storage": {
        "encoding": "inplace",
        "label": "struct Bet",
        "members": [
          {
            "astId": 11972,
            "contract": "contracts/presets/MarketCollateralisedLinear.sol:MarketCollateralisedLinear",
            "label": "propositionId",
            "offset": 0,
            "slot": "0",
            "type": "t_bytes16"
          },
          {
            "astId": 11974,
            "contract": "contracts/presets/MarketCollateralisedLinear.sol:MarketCollateralisedLinear",
            "label": "marketId",
            "offset": 16,
            "slot": "0",
            "type": "t_bytes16"
          },
          {
            "astId": 11976,
            "contract": "contracts/presets/MarketCollateralisedLinear.sol:MarketCollateralisedLinear",
            "label": "amount",
            "offset": 0,
            "slot": "1",
            "type": "t_uint256"
          },
          {
            "astId": 11978,
            "contract": "contracts/presets/MarketCollateralisedLinear.sol:MarketCollateralisedLinear",
            "label": "payout",
            "offset": 0,
            "slot": "2",
            "type": "t_uint256"
          },
          {
            "astId": 11980,
            "contract": "contracts/presets/MarketCollateralisedLinear.sol:MarketCollateralisedLinear",
            "label": "payoutDate",
            "offset": 0,
            "slot": "3",
            "type": "t_uint256"
          },
          {
            "astId": 11982,
            "contract": "contracts/presets/MarketCollateralisedLinear.sol:MarketCollateralisedLinear",
            "label": "created",
            "offset": 0,
            "slot": "4",
            "type": "t_uint256"
          },
          {
            "astId": 11984,
            "contract": "contracts/presets/MarketCollateralisedLinear.sol:MarketCollateralisedLinear",
            "label": "settled",
            "offset": 0,
            "slot": "5",
            "type": "t_bool"
          }
        ],
        "numberOfBytes": "192"
      },
      "t_uint16": {
        "encoding": "inplace",
        "label": "uint16",
        "numberOfBytes": "2"
      },
      "t_uint256": {
        "encoding": "inplace",
        "label": "uint256",
        "numberOfBytes": "32"
      },
      "t_uint64": {
        "encoding": "inplace",
        "label": "uint64",
        "numberOfBytes": "8"
      }
    }
  }
}