{
  "address": "0xf9E6A8127b538C3B7826443cC5Ec079cCdC1E422",
  "abi": [
    {
      "inputs": [
        {
          "internalType": "contract IVault",
          "name": "vault",
          "type": "address"
        },
        {
          "internalType": "uint8",
          "name": "fee",
          "type": "uint8"
        },
        {
          "internalType": "uint8",
          "name": "timeoutDays",
          "type": "uint8"
        },
        {
          "internalType": "address",
          "name": "oracle",
          "type": "address"
        },
        {
          "internalType": "string",
          "name": "baseMetadataURI",
          "type": "string"
        }
      ],
      "stateMutability": "nonpayable",
      "type": "constructor"
    },
    {
      "anonymous": false,
      "inputs": [
        {
          "indexed": true,
          "internalType": "address",
          "name": "owner",
          "type": "address"
        },
        {
          "indexed": true,
          "internalType": "address",
          "name": "approved",
          "type": "address"
        },
        {
          "indexed": true,
          "internalType": "uint256",
          "name": "tokenId",
          "type": "uint256"
        }
      ],
      "name": "Approval",
      "type": "event"
    },
    {
      "anonymous": false,
      "inputs": [
        {
          "indexed": true,
          "internalType": "address",
          "name": "owner",
          "type": "address"
        },
        {
          "indexed": true,
          "internalType": "address",
          "name": "operator",
          "type": "address"
        },
        {
          "indexed": false,
          "internalType": "bool",
          "name": "approved",
          "type": "bool"
        }
      ],
      "name": "ApprovalForAll",
      "type": "event"
    },
    {
      "anonymous": false,
      "inputs": [
        {
          "indexed": true,
          "internalType": "address",
          "name": "vault",
          "type": "address"
        },
        {
          "indexed": false,
          "internalType": "uint256",
          "name": "index",
          "type": "uint256"
        },
        {
          "indexed": false,
          "internalType": "uint256",
          "name": "amount",
          "type": "uint256"
        }
      ],
      "name": "Borrowed",
      "type": "event"
    },
    {
      "anonymous": false,
      "inputs": [
        {
          "indexed": true,
          "internalType": "address",
          "name": "previousOwner",
          "type": "address"
        },
        {
          "indexed": true,
          "internalType": "address",
          "name": "newOwner",
          "type": "address"
        }
      ],
      "name": "OwnershipTransferred",
      "type": "event"
    },
    {
      "anonymous": false,
      "inputs": [
        {
          "indexed": false,
          "internalType": "uint256",
          "name": "index",
          "type": "uint256"
        },
        {
          "indexed": false,
          "internalType": "bytes16",
          "name": "propositionId",
          "type": "bytes16"
        },
        {
          "indexed": false,
          "internalType": "bytes16",
          "name": "marketId",
          "type": "bytes16"
        },
        {
          "indexed": false,
          "internalType": "uint256",
          "name": "amount",
          "type": "uint256"
        },
        {
          "indexed": false,
          "internalType": "uint256",
          "name": "payout",
          "type": "uint256"
        },
        {
          "indexed": true,
          "internalType": "address",
          "name": "owner",
          "type": "address"
        }
      ],
      "name": "Placed",
      "type": "event"
    },
    {
      "anonymous": false,
      "inputs": [
        {
          "indexed": false,
          "internalType": "uint256",
          "name": "index",
          "type": "uint256"
        },
        {
          "indexed": false,
          "internalType": "uint256",
          "name": "amount",
          "type": "uint256"
        },
        {
          "indexed": true,
          "internalType": "address",
          "name": "recipient",
          "type": "address"
        }
      ],
      "name": "Refunded",
      "type": "event"
    },
    {
      "anonymous": false,
      "inputs": [
        {
          "indexed": true,
          "internalType": "address",
          "name": "vault",
          "type": "address"
        },
        {
          "indexed": false,
          "internalType": "uint256",
          "name": "amount",
          "type": "uint256"
        }
      ],
      "name": "Repaid",
      "type": "event"
    },
    {
      "anonymous": false,
      "inputs": [
        {
          "indexed": false,
          "internalType": "uint256",
          "name": "index",
          "type": "uint256"
        },
        {
          "indexed": false,
          "internalType": "uint256",
          "name": "payout",
          "type": "uint256"
        },
        {
          "indexed": false,
          "internalType": "uint8",
          "name": "result",
          "type": "uint8"
        },
        {
          "indexed": true,
          "internalType": "address",
          "name": "recipient",
          "type": "address"
        }
      ],
      "name": "Settled",
      "type": "event"
    },
    {
      "anonymous": false,
      "inputs": [
        {
          "indexed": true,
          "internalType": "address",
          "name": "from",
          "type": "address"
        },
        {
          "indexed": true,
          "internalType": "address",
          "name": "to",
          "type": "address"
        },
        {
          "indexed": true,
          "internalType": "uint256",
          "name": "tokenId",
          "type": "uint256"
        }
      ],
      "name": "Transfer",
      "type": "event"
    },
    {
      "inputs": [],
      "name": "LOSER",
      "outputs": [
        {
          "internalType": "uint8",
          "name": "",
          "type": "uint8"
        }
      ],
      "stateMutability": "view",
      "type": "function"
    },
    {
      "inputs": [],
      "name": "NULL",
      "outputs": [
        {
          "internalType": "uint8",
          "name": "",
          "type": "uint8"
        }
      ],
      "stateMutability": "view",
      "type": "function"
    },
    {
      "inputs": [],
      "name": "SCRATCHED",
      "outputs": [
        {
          "internalType": "uint8",
          "name": "",
          "type": "uint8"
        }
      ],
      "stateMutability": "view",
      "type": "function"
    },
    {
      "inputs": [],
      "name": "WINNER",
      "outputs": [
        {
          "internalType": "uint8",
          "name": "",
          "type": "uint8"
        }
      ],
      "stateMutability": "view",
      "type": "function"
    },
    {
      "inputs": [
        {
          "internalType": "address",
          "name": "to",
          "type": "address"
        },
        {
          "internalType": "uint256",
          "name": "tokenId",
          "type": "uint256"
        }
      ],
      "name": "approve",
      "outputs": [],
      "stateMutability": "nonpayable",
      "type": "function"
    },
    {
      "inputs": [
        {
          "components": [
            {
              "internalType": "bytes16",
              "name": "nonce",
              "type": "bytes16"
            },
            {
              "internalType": "bytes16",
              "name": "propositionId",
              "type": "bytes16"
            },
            {
              "internalType": "bytes16",
              "name": "marketId",
              "type": "bytes16"
            },
            {
              "internalType": "uint256",
              "name": "wager",
              "type": "uint256"
            },
            {
              "internalType": "uint256",
              "name": "odds",
              "type": "uint256"
            },
            {
              "internalType": "uint256",
              "name": "close",
              "type": "uint256"
            },
            {
              "internalType": "uint256",
              "name": "end",
              "type": "uint256"
            },
            {
              "components": [
                {
                  "internalType": "uint8",
                  "name": "v",
                  "type": "uint8"
                },
                {
                  "internalType": "bytes32",
                  "name": "r",
                  "type": "bytes32"
                },
                {
                  "internalType": "bytes32",
                  "name": "s",
                  "type": "bytes32"
                }
              ],
              "internalType": "struct SignatureLib.Signature",
              "name": "signature",
              "type": "tuple"
            }
          ],
          "internalType": "struct IMarket.Back",
          "name": "backData",
          "type": "tuple"
        }
      ],
      "name": "back",
      "outputs": [
        {
          "internalType": "uint256",
          "name": "",
          "type": "uint256"
        }
      ],
      "stateMutability": "nonpayable",
      "type": "function"
    },
    {
      "inputs": [
        {
          "internalType": "address",
          "name": "owner",
          "type": "address"
        }
      ],
      "name": "balanceOf",
      "outputs": [
        {
          "internalType": "uint256",
          "name": "",
          "type": "uint256"
        }
      ],
      "stateMutability": "view",
      "type": "function"
    },
    {
      "inputs": [
        {
          "internalType": "uint256",
          "name": "tokenId",
          "type": "uint256"
        }
      ],
      "name": "getApproved",
      "outputs": [
        {
          "internalType": "address",
          "name": "",
          "type": "address"
        }
      ],
      "stateMutability": "view",
      "type": "function"
    },
    {
      "inputs": [
        {
          "internalType": "uint64",
          "name": "index",
          "type": "uint64"
        }
      ],
      "name": "getBetByIndex",
      "outputs": [
        {
          "internalType": "uint256",
          "name": "",
          "type": "uint256"
        },
        {
          "internalType": "uint256",
          "name": "",
          "type": "uint256"
        },
        {
          "internalType": "uint256",
          "name": "",
          "type": "uint256"
        },
        {
          "internalType": "uint256",
          "name": "",
          "type": "uint256"
        },
        {
          "internalType": "bool",
          "name": "",
          "type": "bool"
        },
        {
          "internalType": "bytes16",
          "name": "",
          "type": "bytes16"
        },
        {
          "internalType": "bytes16",
          "name": "",
          "type": "bytes16"
        }
      ],
      "stateMutability": "view",
      "type": "function"
    },
    {
      "inputs": [],
      "name": "getCount",
      "outputs": [
        {
          "internalType": "uint64",
          "name": "",
          "type": "uint64"
        }
      ],
      "stateMutability": "view",
      "type": "function"
    },
    {
      "inputs": [
        {
          "internalType": "uint64",
          "name": "index",
          "type": "uint64"
        }
      ],
      "name": "getExpiry",
      "outputs": [
        {
          "internalType": "uint256",
          "name": "",
          "type": "uint256"
        }
      ],
      "stateMutability": "view",
      "type": "function"
    },
    {
      "inputs": [],
      "name": "getInPlayCount",
      "outputs": [
        {
          "internalType": "uint256",
          "name": "",
          "type": "uint256"
        }
      ],
      "stateMutability": "view",
      "type": "function"
    },
    {
      "inputs": [],
      "name": "getMargin",
      "outputs": [
        {
          "internalType": "uint8",
          "name": "",
          "type": "uint8"
        }
      ],
      "stateMutability": "view",
      "type": "function"
    },
    {
      "inputs": [
        {
          "internalType": "bytes16",
          "name": "marketId",
          "type": "bytes16"
        }
      ],
      "name": "getMarketCollateral",
      "outputs": [
        {
          "internalType": "uint256",
          "name": "",
          "type": "uint256"
        }
      ],
      "stateMutability": "view",
      "type": "function"
    },
    {
      "inputs": [
        {
          "internalType": "bytes16",
          "name": "marketId",
          "type": "bytes16"
        }
      ],
      "name": "getMarketTotal",
      "outputs": [
        {
          "internalType": "uint256",
          "name": "",
          "type": "uint256"
        }
      ],
      "stateMutability": "view",
      "type": "function"
    },
    {
      "inputs": [
        {
          "internalType": "uint256",
          "name": "wager",
          "type": "uint256"
        },
        {
          "internalType": "uint256",
          "name": "odds",
          "type": "uint256"
        },
        {
          "internalType": "bytes16",
          "name": "propositionId",
          "type": "bytes16"
        },
        {
          "internalType": "bytes16",
          "name": "marketId",
          "type": "bytes16"
        }
      ],
      "name": "getOdds",
      "outputs": [
        {
          "internalType": "uint256",
          "name": "",
          "type": "uint256"
        }
      ],
      "stateMutability": "view",
      "type": "function"
    },
    {
      "inputs": [],
      "name": "getOracleAddress",
      "outputs": [
        {
          "internalType": "address",
          "name": "",
          "type": "address"
        }
      ],
      "stateMutability": "view",
      "type": "function"
    },
    {
      "inputs": [],
      "name": "getOwner",
      "outputs": [
        {
          "internalType": "address",
          "name": "",
          "type": "address"
        }
      ],
      "stateMutability": "view",
      "type": "function"
    },
    {
      "inputs": [
        {
          "internalType": "bytes16",
          "name": "propositionId",
          "type": "bytes16"
        },
        {
          "internalType": "bytes16",
          "name": "marketId",
          "type": "bytes16"
        },
        {
          "internalType": "uint256",
          "name": "wager",
          "type": "uint256"
        },
        {
          "internalType": "uint256",
          "name": "odds",
          "type": "uint256"
        }
      ],
      "name": "getPotentialPayout",
      "outputs": [
        {
          "internalType": "uint256",
          "name": "",
          "type": "uint256"
        }
      ],
      "stateMutability": "view",
      "type": "function"
    },
    {
      "inputs": [],
      "name": "getTotalCollateral",
      "outputs": [
        {
          "internalType": "uint256",
          "name": "",
          "type": "uint256"
        }
      ],
      "stateMutability": "view",
      "type": "function"
    },
    {
      "inputs": [],
      "name": "getTotalExposure",
      "outputs": [
        {
          "internalType": "uint256",
          "name": "",
          "type": "uint256"
        }
      ],
      "stateMutability": "view",
      "type": "function"
    },
    {
      "inputs": [],
      "name": "getTotalInPlay",
      "outputs": [
        {
          "internalType": "uint256",
          "name": "",
          "type": "uint256"
        }
      ],
      "stateMutability": "view",
      "type": "function"
    },
    {
      "inputs": [],
      "name": "getVaultAddress",
      "outputs": [
        {
          "internalType": "address",
          "name": "",
          "type": "address"
        }
      ],
      "stateMutability": "view",
      "type": "function"
    },
    {
      "inputs": [
        {
          "internalType": "address",
          "name": "signer",
          "type": "address"
        }
      ],
      "name": "grantSigner",
      "outputs": [],
      "stateMutability": "nonpayable",
      "type": "function"
    },
    {
      "inputs": [
        {
          "internalType": "address",
          "name": "owner",
          "type": "address"
        },
        {
          "internalType": "address",
          "name": "operator",
          "type": "address"
        }
      ],
      "name": "isApprovedForAll",
      "outputs": [
        {
          "internalType": "bool",
          "name": "",
          "type": "bool"
        }
      ],
      "stateMutability": "view",
      "type": "function"
    },
    {
      "inputs": [
        {
          "internalType": "address",
          "name": "signer",
          "type": "address"
        }
      ],
      "name": "isSigner",
      "outputs": [
        {
          "internalType": "bool",
          "name": "",
          "type": "bool"
        }
      ],
      "stateMutability": "view",
      "type": "function"
    },
    {
      "inputs": [
        {
          "components": [
            {
              "internalType": "bytes16",
              "name": "nonce",
              "type": "bytes16"
            },
            {
              "internalType": "bytes16",
              "name": "propositionId",
              "type": "bytes16"
            },
            {
              "internalType": "bytes16",
              "name": "marketId",
              "type": "bytes16"
            },
            {
              "internalType": "uint256",
              "name": "wager",
              "type": "uint256"
            },
            {
              "internalType": "uint256",
              "name": "odds",
              "type": "uint256"
            },
            {
              "internalType": "uint256",
              "name": "close",
              "type": "uint256"
            },
            {
              "internalType": "uint256",
              "name": "end",
              "type": "uint256"
            },
            {
              "components": [
                {
                  "internalType": "uint8",
                  "name": "v",
                  "type": "uint8"
                },
                {
                  "internalType": "bytes32",
                  "name": "r",
                  "type": "bytes32"
                },
                {
                  "internalType": "bytes32",
                  "name": "s",
                  "type": "bytes32"
                }
              ],
              "internalType": "struct SignatureLib.Signature",
              "name": "signature",
              "type": "tuple"
            }
          ],
          "internalType": "struct IMarket.Back[]",
          "name": "backArray",
          "type": "tuple[]"
        }
      ],
      "name": "multiBack",
      "outputs": [
        {
          "internalType": "uint256[]",
          "name": "",
          "type": "uint256[]"
        }
      ],
      "stateMutability": "nonpayable",
      "type": "function"
    },
    {
      "inputs": [],
      "name": "name",
      "outputs": [
        {
          "internalType": "string",
          "name": "",
          "type": "string"
        }
      ],
      "stateMutability": "view",
      "type": "function"
    },
    {
      "inputs": [],
      "name": "owner",
      "outputs": [
        {
          "internalType": "address",
          "name": "",
          "type": "address"
        }
      ],
      "stateMutability": "view",
      "type": "function"
    },
    {
      "inputs": [
        {
          "internalType": "uint256",
          "name": "tokenId",
          "type": "uint256"
        }
      ],
      "name": "ownerOf",
      "outputs": [
        {
          "internalType": "address",
          "name": "",
          "type": "address"
        }
      ],
      "stateMutability": "view",
      "type": "function"
    },
    {
      "inputs": [
        {
          "internalType": "uint64",
          "name": "index",
          "type": "uint64"
        }
      ],
      "name": "refund",
      "outputs": [],
      "stateMutability": "nonpayable",
      "type": "function"
    },
    {
      "inputs": [],
      "name": "refundCollateral",
      "outputs": [],
      "stateMutability": "nonpayable",
      "type": "function"
    },
    {
      "inputs": [],
      "name": "renounceOwnership",
      "outputs": [],
      "stateMutability": "nonpayable",
      "type": "function"
    },
    {
      "inputs": [
        {
          "internalType": "address",
          "name": "signer",
          "type": "address"
        }
      ],
      "name": "revokeSigner",
      "outputs": [],
      "stateMutability": "nonpayable",
      "type": "function"
    },
    {
      "inputs": [
        {
          "internalType": "address",
          "name": "from",
          "type": "address"
        },
        {
          "internalType": "address",
          "name": "to",
          "type": "address"
        },
        {
          "internalType": "uint256",
          "name": "tokenId",
          "type": "uint256"
        }
      ],
      "name": "safeTransferFrom",
      "outputs": [],
      "stateMutability": "nonpayable",
      "type": "function"
    },
    {
      "inputs": [
        {
          "internalType": "address",
          "name": "from",
          "type": "address"
        },
        {
          "internalType": "address",
          "name": "to",
          "type": "address"
        },
        {
          "internalType": "uint256",
          "name": "tokenId",
          "type": "uint256"
        },
        {
          "internalType": "bytes",
          "name": "data",
          "type": "bytes"
        }
      ],
      "name": "safeTransferFrom",
      "outputs": [],
      "stateMutability": "nonpayable",
      "type": "function"
    },
    {
      "inputs": [
        {
          "internalType": "uint64",
          "name": "index",
          "type": "uint64"
        },
        {
          "internalType": "bytes16",
          "name": "marketId",
          "type": "bytes16"
        },
        {
          "internalType": "bytes16",
          "name": "propositionId",
          "type": "bytes16"
        },
        {
          "internalType": "uint256",
          "name": "odds",
          "type": "uint256"
        },
        {
          "components": [
            {
              "internalType": "uint8",
              "name": "v",
              "type": "uint8"
            },
            {
              "internalType": "bytes32",
              "name": "r",
              "type": "bytes32"
            },
            {
              "internalType": "bytes32",
              "name": "s",
              "type": "bytes32"
            }
          ],
          "internalType": "struct SignatureLib.Signature",
          "name": "signature",
          "type": "tuple"
        }
      ],
      "name": "scratchAndRefund",
      "outputs": [],
      "stateMutability": "nonpayable",
      "type": "function"
    },
    {
      "inputs": [
        {
          "internalType": "address",
          "name": "operator",
          "type": "address"
        },
        {
          "internalType": "bool",
          "name": "approved",
          "type": "bool"
        }
      ],
      "name": "setApprovalForAll",
      "outputs": [],
      "stateMutability": "nonpayable",
      "type": "function"
    },
    {
      "inputs": [
        {
          "internalType": "uint64",
          "name": "index",
          "type": "uint64"
        }
      ],
      "name": "settle",
      "outputs": [],
      "stateMutability": "nonpayable",
      "type": "function"
    },
    {
      "inputs": [
        {
          "internalType": "bytes16",
          "name": "marketId",
          "type": "bytes16"
        }
      ],
      "name": "settleMarket",
      "outputs": [],
      "stateMutability": "nonpayable",
      "type": "function"
    },
    {
      "inputs": [
        {
          "internalType": "bytes4",
          "name": "interfaceId",
          "type": "bytes4"
        }
      ],
      "name": "supportsInterface",
      "outputs": [
        {
          "internalType": "bool",
          "name": "",
          "type": "bool"
        }
      ],
      "stateMutability": "view",
      "type": "function"
    },
    {
      "inputs": [],
      "name": "symbol",
      "outputs": [
        {
          "internalType": "string",
          "name": "",
          "type": "string"
        }
      ],
      "stateMutability": "view",
      "type": "function"
    },
    {
      "inputs": [],
      "name": "timeout",
      "outputs": [
        {
          "internalType": "uint256",
          "name": "",
          "type": "uint256"
        }
      ],
      "stateMutability": "view",
      "type": "function"
    },
    {
      "inputs": [
        {
          "internalType": "uint256",
          "name": "tokenId",
          "type": "uint256"
        }
      ],
      "name": "tokenURI",
      "outputs": [
        {
          "internalType": "string",
          "name": "",
          "type": "string"
        }
      ],
      "stateMutability": "view",
      "type": "function"
    },
    {
      "inputs": [
        {
          "internalType": "address",
          "name": "from",
          "type": "address"
        },
        {
          "internalType": "address",
          "name": "to",
          "type": "address"
        },
        {
          "internalType": "uint256",
          "name": "tokenId",
          "type": "uint256"
        }
      ],
      "name": "transferFrom",
      "outputs": [],
      "stateMutability": "nonpayable",
      "type": "function"
    },
    {
      "inputs": [
        {
          "internalType": "address",
          "name": "newOwner",
          "type": "address"
        }
      ],
      "name": "transferOwnership",
      "outputs": [],
      "stateMutability": "nonpayable",
      "type": "function"
    }
  ],
  "transactionHash": "0xa00de4734afd6a7002c562af4949cc416de442d7d1611581a3ab507e1c738aaa",
  "args": [
    "0x20857B64384d9A759E6B4c68b9b4EA65f3ff3ee6",
    0,
    1,
    "0xa67CE09ac04952E6ED5e5d45369501f452B24137",
    "https://horse.link/api/nft//dev_goerli/0x6e1312e283D4152d42006dc8Eaf11A433D739fB0/mUSDT/"
  ],
  "numDeployments": 1,
  "solcInputHash": "0064caf05c9729cd03c25fa4d031b7b8",
  "bytecode": "0x6101406040523480156200001257600080fd5b506040516200497838038062004978833981016040819052620000359162000288565b84848484846040518060400160405280601381526020017f486f727365204c696e6b2042657420536c6970000000000000000000000000008152506040518060400160405280600681526020016512130b50915560d21b815250620000a9620000a3620001ee60201b60201c565b620001f2565b6001620000b7838262000445565b506002620000c6828262000445565b5050506001600160a01b038516620000e257620000e262000511565b3060e0526001600160a01b03851660a0819052604080516338d52e0f60e01b815290516338d52e0f916004808201926020929091908290030181865afa15801562000131573d6000803e3d6000fd5b505050506040513d601f19601f8201168201806040525081019062000157919062000527565b6001600160a01b0390811660c05260ff85166080528216610100526001601060006200018b6000546001600160a01b031690565b6001600160a01b031681526020810191909152604001600020805460ff19169115159190911790556007620001c1828262000445565b50620001d460ff8416620151806200054e565b62ffffff1661012052506200058898505050505050505050565b3390565b600080546001600160a01b038381166001600160a01b0319831681178455604051919092169283917f8be0079c531659141344cd1fd0a4f28419497f9722a3daafe3b4186f6b6457e09190a35050565b6001600160a01b03811681146200025857600080fd5b50565b805160ff811681146200026d57600080fd5b919050565b634e487b7160e01b600052604160045260246000fd5b600080600080600060a08688031215620002a157600080fd5b8551620002ae8162000242565b94506020620002bf8782016200025b565b9450620002cf604088016200025b565b93506060870151620002e18162000242565b60808801519093506001600160401b0380821115620002ff57600080fd5b818901915089601f8301126200031457600080fd5b81518181111562000329576200032962000272565b604051601f8201601f19908116603f0116810190838211818310171562000354576200035462000272565b816040528281528c868487010111156200036d57600080fd5b600093505b8284101562000391578484018601518185018701529285019262000372565b82841115620003a35760008684830101525b8096505050505050509295509295909350565b600181811c90821680620003cb57607f821691505b602082108103620003ec57634e487b7160e01b600052602260045260246000fd5b50919050565b601f8211156200044057600081815260208120601f850160051c810160208610156200041b5750805b601f850160051c820191505b818110156200043c5782815560010162000427565b5050505b505050565b81516001600160401b0381111562000461576200046162000272565b6200047981620004728454620003b6565b84620003f2565b602080601f831160018114620004b15760008415620004985750858301515b600019600386901b1c1916600185901b1785556200043c565b600085815260208120601f198616915b82811015620004e257888601518255948401946001909101908401620004c1565b5085821015620005015787850151600019600388901b60f8161c191681555b5050505050600190811b01905550565b634e487b7160e01b600052600160045260246000fd5b6000602082840312156200053a57600080fd5b8151620005478162000242565b9392505050565b600062ffffff808316818516818304811182151516156200057f57634e487b7160e01b600052601160045260246000fd5b02949350505050565b60805160a05160c05160e051610100516101205161430d6200066b600039600081816104d50152612d040152600081816105c001528181610c0f015281816111c20152818161173201526123870152600081816127f001526133fb0152600081816127a401528181612f6c015281816130c4015261319801526000818161042201528181610957015281816109e701528181611dd201528181611ed401528181611f6b01528181611fec0152818161213801528181612469015281816131c70152818161333c015281816133d3015261349201526000610361015261430d6000f3fe608060405234801561001057600080fd5b506004361061028a5760003560e01c80637df73e271161015c578063b88d4fde116100ce578063d6eb591011610087578063d6eb591014610635578063d7194ccb1461063d578063e4650fac14610650578063e985e9c514610663578063f26be3fc1461069f578063f2fde38b146106a757600080fd5b8063b88d4fde146105e4578063bc985bc9146105f7578063c34b44a0146105ff578063c87b56dd14610612578063c96121a814610625578063d1e90d621461062d57600080fd5b806395d89b411161012057806395d89b4114610551578063a166895e14610559578063a22cb46514610583578063a87d942c14610596578063b108501f146105b6578063b18b78dd146105be57600080fd5b80637df73e271461051257806388bc76ba14610525578063893d20e8146105385780638ac6d217146105495780638da5cb5b1461053857600080fd5b80634b9ba446116102005780636b467d15116101b95780636b467d1514610446578063702595861461049d57806370a08231146104bd57806370dea79a146104d0578063715018a6146104f75780637b5df1c9146104ff57600080fd5b80634b9ba446146103cc57806358439479146103df5780636028421f146103e75780636352211e146103fa57806363c724f71461040d57806365cacaa41461042057600080fd5b80632098b7ff116102525780632098b7ff1461034457806323b872dd1461034c57806325117b721461035f578063412406651461039357806342842e0e146103a657806346e116a6146103b957600080fd5b806301ffc9a71461028f57806306fdde03146102b7578063081812fc146102cc578063095ea7b3146102f757806312fa3bf11461030c575b600080fd5b6102a261029d3660046138d5565b6106ba565b60405190151581526020015b60405180910390f35b6102bf61070c565b6040516102ae919061394a565b6102df6102da36600461395d565b61079e565b6040516001600160a01b0390911681526020016102ae565b61030a61030536600461398b565b6107c5565b005b61033661031a3660046139cd565b6001600160801b0319166000908152600b602052604090205490565b6040519081526020016102ae565b61030a6108df565b61030a61035a3660046139ea565b610a88565b7f00000000000000000000000000000000000000000000000000000000000000005b60405160ff90911681526020016102ae565b61030a6103a1366004613a47565b610ab9565b61030a6103b43660046139ea565b610ccc565b6103366103c7366004613ab4565b610ce7565b61030a6103da366004613afe565b610d00565b600e54610336565b6103366103f5366004613b19565b610dfa565b6102df61040836600461395d565b610e08565b61030a61041b366004613b5f565b610e68565b7f00000000000000000000000000000000000000000000000000000000000000006102df565b610459610454366004613afe565b610ef6565b604080519788526020880196909652948601939093526060850191909152151560808401526001600160801b031990811660a08401521660c082015260e0016102ae565b6104b06104ab366004613b7c565b610f21565b6040516102ae9190613bf1565b6103366104cb366004613b5f565b610fda565b6103367f000000000000000000000000000000000000000000000000000000000000000081565b61030a611060565b61033661050d366004613c35565b611074565b6102a2610520366004613b5f565b61133e565b61030a6105333660046139cd565b61135f565b6000546001600160a01b03166102df565b600f54610336565b6102bf611506565b6103366105673660046139cd565b6001600160801b03191660009081526011602052604090205490565b61030a610591366004613c5c565b611515565b61059e611520565b6040516001600160401b0390911681526020016102ae565b610381600181565b7f00000000000000000000000000000000000000000000000000000000000000006102df565b61030a6105f2366004613d25565b61152b565b610381600381565b61030a61060d366004613b5f565b61155d565b6102bf61062036600461395d565b6115e8565b600854610336565b610381600281565b601254610336565b61030a61064b366004613afe565b61164f565b61033661065e366004613afe565b6118a4565b6102a2610671366004613de8565b6001600160a01b03918216600090815260066020908152604080832093909416825291909152205460ff1690565b610381600081565b61030a6106b5366004613b5f565b6118af565b60006001600160e01b031982166380ac58cd60e01b14806106eb57506001600160e01b03198216635b5e139f60e01b145b8061070657506301ffc9a760e01b6001600160e01b03198316145b92915050565b60606001805461071b90613e16565b80601f016020809104026020016040519081016040528092919081815260200182805461074790613e16565b80156107945780601f1061076957610100808354040283529160200191610794565b820191906000526020600020905b81548152906001019060200180831161077757829003601f168201915b5050505050905090565b60006107a982611925565b506000908152600560205260409020546001600160a01b031690565b60006107d082610e08565b9050806001600160a01b0316836001600160a01b0316036108425760405162461bcd60e51b815260206004820152602160248201527f4552433732313a20617070726f76616c20746f2063757272656e74206f776e656044820152603960f91b60648201526084015b60405180910390fd5b336001600160a01b038216148061085e575061085e8133610671565b6108d05760405162461bcd60e51b815260206004820152603d60248201527f4552433732313a20617070726f76652063616c6c6572206973206e6f7420746f60448201527f6b656e206f776e6572206f7220617070726f76656420666f7220616c6c0000006064820152608401610839565b6108da8383611984565b505050565b6108e76119f2565b600f546012541161094c5760405162461bcd60e51b815260206004820152602960248201527f726566756e64436f6c6c61746572616c3a204e6f20636f6c6c61746572616c206044820152681d1bc81c99599d5b9960ba1b6064820152608401610839565b600f546012819055507f00000000000000000000000000000000000000000000000000000000000000006001600160a01b03166338d52e0f6040518163ffffffff1660e01b8152600401602060405180830381865afa1580156109b3573d6000803e3d6000fd5b505050506040513d601f19601f820116820180604052508101906109d79190613e4a565b6001600160a01b031663a9059cbb7f0000000000000000000000000000000000000000000000000000000000000000600f54601254610a169190613e7d565b6040516001600160e01b031960e085901b1681526001600160a01b03909216600483015260248201526044016020604051808303816000875af1158015610a61573d6000803e3d6000fd5b505050506040513d601f19601f82011682018060405250810190610a859190613e94565b50565b610a923382611a4c565b610aae5760405162461bcd60e51b815260040161083990613eb1565b6108da838383611aca565b826001600160801b0319166009866001600160401b031681548110610ae057610ae0613efe565b600091825260209091206006909102015460801b6001600160801b03191614610b665760405162461bcd60e51b815260206004820152603260248201527f73637261746368416e64526566756e643a2070726f706f736974696f6e496420604482015271191bd95cc81b9bdd081b585d18da0818995d60721b6064820152608401610839565b6009856001600160401b031681548110610b8257610b82613efe565b600091825260209091206005600690920201015460ff1615610bf85760405162461bcd60e51b815260206004820152602960248201527f73637261746368416e64526566756e643a204265742068617320616c726561646044820152681e481cd95d1d1b195960ba1b6064820152608401610839565b604051631b62340760e01b81526001600160a01b037f00000000000000000000000000000000000000000000000000000000000000001690631b62340790610c4a908790879087908790600401613f48565b600060405180830381600087803b158015610c6457600080fd5b505af1158015610c78573d6000803e3d6000fd5b5050505060016009866001600160401b031681548110610c9a57610c9a613efe565b60009182526020909120600690910201600501805460ff1916911515919091179055610cc585611c3b565b5050505050565b6108da8383836040518060200160405280600081525061152b565b6000610cf585858585612114565b90505b949350505050565b60006009826001600160401b031681548110610d1e57610d1e613efe565b60009182526020918290206040805160e081018252600690930290910180546001600160801b0319608082811b82168652600160801b909204821b169484019490945260018101549183019190915260028101546060830152600381015492820192909252600482015460a082015260059091015460ff1615801560c0830152909150610ded5760405162461bcd60e51b815260206004820152601f60248201527f736574746c653a204265742068617320616c726561647920736574746c6564006044820152606401610839565b610df682612235565b5050565b6000610cf585858585612590565b6000818152600360205260408120546001600160a01b0316806107065760405162461bcd60e51b8152602060048201526018602482015277115490cdcc8c4e881a5b9d985b1a59081d1bdad95b88125160421b6044820152606401610839565b610e706119f2565b6001600160a01b038116610ed25760405162461bcd60e51b815260206004820152602360248201527f6772616e745369676e65723a20496e76616c6964207369676e6572206164647260448201526265737360e81b6064820152608401610839565b6001600160a01b03166000908152601060205260409020805460ff19166001179055565b6000806000806000806000610f0a886125cc565b959e949d50929b5090995097509550909350915050565b60606000826001600160401b03811115610f3d57610f3d613c95565b604051908082528060200260200182016040528015610f66578160200160208202803683370190505b50905060005b60ff8116841115610fd2573685858360ff16818110610f8d57610f8d613efe565b905061014002019050610f9f81611074565b838360ff1681518110610fb457610fb4613efe565b60209081029190910101525080610fca81613f75565b915050610f6c565b509392505050565b60006001600160a01b0382166110445760405162461bcd60e51b815260206004820152602960248201527f4552433732313a2061646472657373207a65726f206973206e6f7420612076616044820152683634b21037bbb732b960b91b6064820152608401610839565b506001600160a01b031660009081526004602052604090205490565b6110686119f2565b6110726000612692565b565b60008061108460208401846139cd565b61109460408501602086016139cd565b6110a460608601604087016139cd565b604080516001600160801b0319948516602082015292841660308401529216918101919091526080840135605082015260a0840135607082015260c0840135609082015260b001604051602081830303815290604052805190602001209050611110818460e0016126e2565b15156001146111615760405162461bcd60e51b815260206004820152601760248201527f6261636b3a20496e76616c6964207369676e61747572650000000000000000006044820152606401610839565b428360c001351180156111775750428360a00135115b6111b85760405162461bcd60e51b81526020600482015260126024820152716261636b3a20496e76616c6964206461746560701b6044820152606401610839565b6001600160a01b037f00000000000000000000000000000000000000000000000000000000000000001663b32b880e6111f760608601604087016139cd565b6040516001600160e01b031960e084901b1681526001600160801b03199091166004820152602401602060405180830381865afa15801561123c573d6000803e3d6000fd5b505050506040513d601f19601f820116820180604052508101906112609190613e94565b156112c55760405162461bcd60e51b815260206004820152602f60248201527f6261636b3a204f7261636c6520726573756c7420616c7265616479207365742060448201526e199bdc881d1a1a5cc81b585c9ad95d608a1b6064820152608401610839565b60006112f96112da60408601602087016139cd565b6112ea60608701604088016139cd565b86606001358760800135612590565b90506000811161130b5761130b613f94565b610cf861131e60408601602087016139cd565b61132e60608701604088016139cd565b86606001358760c0013585612798565b6001600160a01b03811660009081526010602052604081205460ff16610706565b6001600160801b031981166000908152600a60209081526040808320805482518185028101850190935280835291929091908301828280156113f257602002820191906000526020600020906000905b82829054906101000a90046001600160401b03166001600160401b0316815260200190600801906020826007010492830192600103820291508084116113af5790505b505083519394506000925050505b81816001600160401b031610156114fb57600083826001600160401b03168151811061142e5761142e613efe565b6020026020010151905060006009826001600160401b03168154811061145657611456613efe565b600091825260208083206040805160e081018252600690940290910180546001600160801b0319608082811b82168752600160801b909204821b169385019390935260018101549184019190915260028101546060840152600381015491830191909152600481015460a08301526005015460ff16151560c0820181905290925090036114e6576114e682612235565b505080806114f390613faa565b915050611400565b50505050565b905090565b60606002805461071b90613e16565b610df6338383612b5e565b600061150160095490565b6115353383611a4c565b6115515760405162461bcd60e51b815260040161083990613eb1565b6114fb84848484612c2c565b6115656119f2565b6001600160a01b0381166115c75760405162461bcd60e51b8152602060048201526024808201527f7265766f6b655369676e65723a20496e76616c6964207369676e6572206164646044820152637265737360e01b6064820152608401610839565b6001600160a01b03166000908152601060205260409020805460ff19169055565b60606115f382611925565b60006115fd612c5f565b9050600081511161161d5760405180602001604052806000815250611648565b8061162784612c6e565b604051602001611638929190613fd0565b6040516020818303038152906040525b9392505050565b6009816001600160401b03168154811061166b5761166b613efe565b600091825260209091206005600690920201015460ff16156116cf5760405162461bcd60e51b815260206004820152601f60248201527f726566756e643a204265742068617320616c726561647920736574746c6564006044820152606401610839565b60006009826001600160401b0316815481106116ed576116ed613efe565b60009182526020822060069190910201546040516325a8f38560e11b8152600160801b90910460801b6001600160801b03198116600483015292506001600160a01b037f00000000000000000000000000000000000000000000000000000000000000001690634b51e70a90602401600060405180830381865afa158015611779573d6000803e3d6000fd5b505050506040513d6000823e601f3d908101601f191682016040526117a19190810190613fff565b60208101515190915060005b8181101561185b576009856001600160401b0316815481106117d1576117d1613efe565b906000526020600020906006020160000160009054906101000a900460801b6001600160801b0319168360200151828151811061181057611810613efe565b6020026020010151600001516001600160801b031916036118495760016009866001600160401b031681548110610c9a57610c9a613efe565b806118538161411d565b9150506117ad565b5060405162461bcd60e51b815260206004820152601f60248201527f726566756e643a204e6f7420656c696769626c6520666f7220726566756e64006044820152606401610839565b600061070682612d00565b6118b76119f2565b6001600160a01b03811661191c5760405162461bcd60e51b815260206004820152602660248201527f4f776e61626c653a206e6577206f776e657220697320746865207a65726f206160448201526564647265737360d01b6064820152608401610839565b610a8581612692565b6000818152600360205260409020546001600160a01b0316610a855760405162461bcd60e51b8152602060048201526018602482015277115490cdcc8c4e881a5b9d985b1a59081d1bdad95b88125160421b6044820152606401610839565b600081815260056020526040902080546001600160a01b0319166001600160a01b03841690811790915581906119b982610e08565b6001600160a01b03167f8c5be1e5ebec7d5bd14f71427d1e84f3dd0314c0f7b2291e5b200ac8c7c3b92560405160405180910390a45050565b6000546001600160a01b031633146110725760405162461bcd60e51b815260206004820181905260248201527f4f776e61626c653a2063616c6c6572206973206e6f7420746865206f776e65726044820152606401610839565b600080611a5883610e08565b9050806001600160a01b0316846001600160a01b03161480611a9f57506001600160a01b0380821660009081526006602090815260408083209388168352929052205460ff165b80610cf85750836001600160a01b0316611ab88461079e565b6001600160a01b031614949350505050565b826001600160a01b0316611add82610e08565b6001600160a01b031614611b035760405162461bcd60e51b815260040161083990614136565b6001600160a01b038216611b655760405162461bcd60e51b8152602060048201526024808201527f4552433732313a207472616e7366657220746f20746865207a65726f206164646044820152637265737360e01b6064820152608401610839565b611b728383836001612d5b565b826001600160a01b0316611b8582610e08565b6001600160a01b031614611bab5760405162461bcd60e51b815260040161083990614136565b600081815260056020908152604080832080546001600160a01b03199081169091556001600160a01b0387811680865260048552838620805460001901905590871680865283862080546001019055868652600390945282852080549092168417909155905184937fddf252ad1be2c89b69c2b068fc378daa952ba7f163c4a11628f55a4df523b3ef91a4505050565b60006009826001600160401b031681548110611c5957611c59613efe565b60009182526020918290206040805160e081018252600690930290910180546001600160801b0319608082811b82168652600160801b909204821b169484019490945260018101549183019190915260028101546060830152600381015492820192909252600482015460a082015260059091015460ff1615801560c0830152909150611d285760405162461bcd60e51b815260206004820181905260248201527f5f726566756e643a204265742068617320616c726561647920736574746c65646044820152606401610839565b600160c08201526001600160401b038216600090815260146020526040812054600f805491928392611d5b908490613e7d565b9091555050600980546001600160401b038516908110611d7d57611d7d613efe565b906000526020600020906006020160010154600e6000828254611da09190613e7d565b909155505060088054906000611db58361417b565b91905055506000611dce846001600160401b0316610e08565b90507f00000000000000000000000000000000000000000000000000000000000000006001600160a01b03166338d52e0f6040518163ffffffff1660e01b8152600401602060405180830381865afa158015611e2e573d6000803e3d6000fd5b505050506040513d601f19601f82011682018060405250810190611e529190613e4a565b604080850151905163a9059cbb60e01b81526001600160a01b038481166004830152602482019290925291169063a9059cbb906044016020604051808303816000875af1158015611ea7573d6000803e3d6000fd5b505050506040513d601f19601f82011682018060405250810190611ecb9190613e94565b5081156120af577f00000000000000000000000000000000000000000000000000000000000000006001600160a01b03166338d52e0f6040518163ffffffff1660e01b8152600401602060405180830381865afa158015611f30573d6000803e3d6000fd5b505050506040513d601f19601f82011682018060405250810190611f549190613e4a565b60405163a9059cbb60e01b81526001600160a01b037f00000000000000000000000000000000000000000000000000000000000000008116600483015260248201859052919091169063a9059cbb906044016020604051808303816000875af1158015611fc5573d6000803e3d6000fd5b505050506040513d601f19601f82011682018060405250810190611fe99190613e94565b507f00000000000000000000000000000000000000000000000000000000000000006001600160a01b03166338d52e0f6040518163ffffffff1660e01b8152600401602060405180830381865afa158015612048573d6000803e3d6000fd5b505050506040513d601f19601f8201168201806040525081019061206c9190613e4a565b6001600160a01b03167f0516911bcc3a0a7412a44601057c0a0a1ec628bde049a84284bc428866534488836040516120a691815260200190565b60405180910390a25b60408084015181516001600160401b038716815260208101919091526001600160a01b038316917fe5fd53654bc4ea55a3106f8f2bd57252875afee33cc027448099373ae65408f691015b60405180910390a26114fb846001600160401b0316612de3565b6000600185111580612127575060018411155b1561213457506001610cf8565b60007f00000000000000000000000000000000000000000000000000000000000000006001600160a01b031663b15031fa6040518163ffffffff1660e01b8152600401602060405180830381865afa158015612194573d6000803e3d6000fd5b505050506040513d601f19601f820116820180604052508101906121b89190614192565b9050806000036121cc576001915050610cf8565b6001600160801b031984166000908152600d60205260409020548110156121f7576001915050610cf8565b6001600160801b031984166000908152600d602052604090205461221b9082613e7d565b9050600061222a878784612e86565b979650505050505050565b60006009826001600160401b03168154811061225357612253613efe565b60009182526020918290206040805160e081018252600690930290910180546001600160801b0319608082811b82168652600160801b909204821b16948401949094526001808201549284019290925260028101546060840152600381015493830193909352600483015460a083015260059092015460ff16151560c082015260098054919350906001600160401b0385169081106122f4576122f4613efe565b60009182526020822060069190910201600501805460ff1916921515929092179091558061232184612d00565b421115612359576001915061233e846001600160401b0316610e08565b9050612354846001600160401b03166001612f0b565b61250e565b602083015183516040516306c77ce760e01b81526001600160801b03199283166004820152911660248201527f00000000000000000000000000000000000000000000000000000000000000006001600160a01b0316906306c77ce790604401602060405180830381865afa1580156123d6573d6000803e3d6000fd5b505050506040513d601f19601f820116820180604052508101906123fa91906141ab565b915060ff821661245b5760405162461bcd60e51b815260206004820152602660248201527f5f736574746c653a204f7261636c6520646f6573206e6f7420686176652061206044820152651c995cdd5b1d60d21b6064820152608401610839565b60011960ff83160161248d577f000000000000000000000000000000000000000000000000000000000000000061249f565b61249f846001600160401b0316610e08565b90506124b4846001600160401b031683612f0b565b6009846001600160401b0316815481106124d0576124d0613efe565b906000526020600020906006020160010154600e60008282546124f39190613e7d565b9091555050600880549060006125088361417b565b91905055505b806001600160a01b03167f7c2e00429f610bdb997681cabbb0ef3197390c07fe90ea4a98ac36438dd4217c856009876001600160401b03168154811061255657612556613efe565b600091825260209182902060026006909202010154604080516001600160401b0390941684529183015260ff8616908201526060016120fa565b60008061259f84848888612114565b90506125c284620f42406125b382856141c8565b6125bd91906141e7565b61323e565b9695505050505050565b6000806000806000806000806009896001600160401b0316815481106125f4576125f4613efe565b60009182526020918290206040805160e0810182526006939093029091018054608081811b6001600160801b0319908116808752600160801b909304821b1695850186905260018301549385018490526002830154606086018190526003840154918601829052600484015460a0870181905260059094015460ff16151560c0909601869052939f939e509c50909a50919850919650945092505050565b600080546001600160a01b038381166001600160a01b0319831681178455604051919092169283917f8be0079c531659141344cd1fd0a4f28419497f9722a3daafe3b4186f6b6457e09190a35050565b600080732CFb7A620A699229a41C66E530b1C06877f3982F635cff288d85856040518363ffffffff1660e01b815260040161271e929190614209565b602060405180830381865af415801561273b573d6000803e3d6000fd5b505050506040513d601f19601f8201168201806040525081019061275f9190613e4a565b90506001600160a01b03811661277757612777613f94565b6001600160a01b03811660009081526010602052604090205460ff16610cf8565b60006001600160a01b037f0000000000000000000000000000000000000000000000000000000000000000166323b872dd3360405160e083901b6001600160e01b03191681526001600160a01b0391821660048201527f00000000000000000000000000000000000000000000000000000000000000009091166024820152604481018790526064016020604051808303816000875af1158015612840573d6000803e3d6000fd5b505050506040513d601f19601f820116820180604052508101906128649190613e94565b506001600160801b031985166000908152600b60205260408120805486929061288e90849061421d565b9250508190555083600e60008282546128a7919061421d565b9091555050600880549060006128bc8361411d565b919050555060006128cc60095490565b6001600160801b031988166000908152600d60205260408120805492935085929091906128fa90849061421d565b9091555061291690506001600160401b03821687898887613254565b600f6000828254612927919061421d565b90915550506040805160e0810182526001600160801b03198981168252881660208083018281528385018a81526060850189815260808087018c81524260a08901908152600060c08a0181815260098054600180820183559184529b51985198861c600160801b9990961c98909802949094177f6e1540171b6c0c960b71a7020d9f60077f6af931a8bbf590da0223dacf75c7af6006909b029a8b015594517f6e1540171b6c0c960b71a7020d9f60077f6af931a8bbf590da0223dacf75c7b08a015592517f6e1540171b6c0c960b71a7020d9f60077f6af931a8bbf590da0223dacf75c7b1890155517f6e1540171b6c0c960b71a7020d9f60077f6af931a8bbf590da0223dacf75c7b288015590517f6e1540171b6c0c960b71a7020d9f60077f6af931a8bbf590da0223dacf75c7b3870155517f6e1540171b6c0c960b71a7020d9f60077f6af931a8bbf590da0223dacf75c7b4909501805460ff191695151595909517909455918352600a81529282208054918201815582529190206004820401805460039092166008026101000a6001600160401b038181021990931692841602919091179055612ae533826001600160401b0316613541565b604080516001600160401b03831681526001600160801b031989811660208301528816818301526060810187905260808101859052905133917f1d273ea6a1aea94de32fd06a09ab8046dff8e3261c5a4ecaa5e1a5705f3342ec919081900360a00190a26001600160401b031690505b95945050505050565b816001600160a01b0316836001600160a01b031603612bbf5760405162461bcd60e51b815260206004820152601960248201527f4552433732313a20617070726f766520746f2063616c6c6572000000000000006044820152606401610839565b6001600160a01b03838116600081815260066020908152604080832094871680845294825291829020805460ff191686151590811790915591519182527f17307eab39ab6107e8899845ad3d59bd9653f200f220920489ca2b5937696c31910160405180910390a3505050565b612c37848484611aca565b612c43848484846136da565b6114fb5760405162461bcd60e51b815260040161083990614235565b60606007805461071b90613e16565b60606000612c7b836137d8565b60010190506000816001600160401b03811115612c9a57612c9a613c95565b6040519080825280601f01601f191660200182016040528015612cc4576020820181803683370190505b5090508181016020015b600019016f181899199a1a9b1b9c1cb0b131b232b360811b600a86061a8153600a8504945084612cce57509392505050565b60007f00000000000000000000000000000000000000000000000000000000000000006009836001600160401b031681548110612d3f57612d3f613efe565b906000526020600020906006020160030154610706919061421d565b60018111156114fb576001600160a01b03841615612da1576001600160a01b03841660009081526004602052604081208054839290612d9b908490613e7d565b90915550505b6001600160a01b038316156114fb576001600160a01b03831660009081526004602052604081208054839290612dd890849061421d565b909155505050505050565b6000612dee82610e08565b9050612dfe816000846001612d5b565b612e0782610e08565b600083815260056020908152604080832080546001600160a01b03199081169091556001600160a01b0385168085526004845282852080546000190190558785526003909352818420805490911690555192935084927fddf252ad1be2c89b69c2b068fc378daa952ba7f163c4a11628f55a4df523b3ef908390a45050565b60405163a19dec4360e01b815260048101849052602481018390526044810182905260009073d4C71272E671eC04405E5Ecf1c9b2B9904E0e3809063a19dec4390606401602060405180830381865af4158015612ee7573d6000803e3d6000fd5b505050506040513d601f19601f82011682018060405250810190610cf89190614192565b600060098381548110612f2057612f20613efe565b90600052602060002090600602016001015490506014600084815260200190815260200160002054600f6000828254612f599190613e7d565b909155505060021960ff831601613014577f00000000000000000000000000000000000000000000000000000000000000006001600160a01b031663a9059cbb612fa285610e08565b6040516001600160e01b031960e084901b1681526001600160a01b039091166004820152602481018490526044015b6020604051808303816000875af1158015612ff0573d6000803e3d6000fd5b505050506040513d601f19601f820116820180604052508101906114fb9190613e94565b426009848154811061302857613028613efe565b906000526020600020906006020160030154106130875760405162461bcd60e51b815260206004820181905260248201527f5f7061796f75743a205061796f75742064617465206e6f7420726561636865646044820152606401610839565b60001960ff83160161318a5760008381526014602052604081205460128054919290916130b5908490613e7d565b90915550506001600160a01b037f00000000000000000000000000000000000000000000000000000000000000001663a9059cbb6130f285610e08565b6009868154811061310557613105613efe565b60009182526020909120600260069092020101546040516001600160e01b031960e085901b1681526001600160a01b03909216600483015260248201526044016020604051808303816000875af1158015613164573d6000803e3d6000fd5b505050506040513d601f19601f820116820180604052508101906131889190613e94565b505b60011960ff8316016108da577f00000000000000000000000000000000000000000000000000000000000000006001600160a01b031663a9059cbb7f0000000000000000000000000000000000000000000000000000000000000000600986815481106131f9576131f9613efe565b60009182526020909120600160069092020101546040516001600160e01b031960e085901b1681526001600160a01b0390921660048301526024820152604401612fd1565b600081831161324d5781611648565b5090919050565b6001600160801b031984166000908152600b6020908152604080832054601190925282205482916132849161421d565b6001600160801b031986166000908152600d602052604090205490915081106132b1576000915050612b55565b6001600160801b031986811660009081526013602090815260408083208054851660808b901c1790559288168252600d9052908120546132f2908390613e7d565b90506000600f546012541115613324576000600f546012546133149190613e7d565b905061332083826138b0565b9150505b818110156134f75760006133388284613e7d565b90507f00000000000000000000000000000000000000000000000000000000000000006001600160a01b03166338d52e0f6040518163ffffffff1660e01b8152600401602060405180830381865afa158015613398573d6000803e3d6000fd5b505050506040513d601f19601f820116820180604052508101906133bc9190613e4a565b6040516323b872dd60e01b81526001600160a01b037f0000000000000000000000000000000000000000000000000000000000000000811660048301527f0000000000000000000000000000000000000000000000000000000000000000811660248301526044820184905291909116906323b872dd906064016020604051808303816000875af1158015613455573d6000803e3d6000fd5b505050506040513d601f19601f820116820180604052508101906134799190613e94565b50604080518b8152602081018390526001600160a01b037f000000000000000000000000000000000000000000000000000000000000000016917feae9cfbc77fdd40ca899f36b608256063b2bc9d8178b0220f7ad513e178d6730910160405180910390a280601260008282546134f0919061421d565b9091555050505b60008981526014602090815260408083208590556001600160801b03198b16835260119091528120805484929061352f90849061421d565b90915550919998505050505050505050565b6001600160a01b0382166135975760405162461bcd60e51b815260206004820181905260248201527f4552433732313a206d696e7420746f20746865207a65726f20616464726573736044820152606401610839565b6000818152600360205260409020546001600160a01b0316156135fc5760405162461bcd60e51b815260206004820152601c60248201527f4552433732313a20746f6b656e20616c7265616479206d696e746564000000006044820152606401610839565b61360a600083836001612d5b565b6000818152600360205260409020546001600160a01b03161561366f5760405162461bcd60e51b815260206004820152601c60248201527f4552433732313a20746f6b656e20616c7265616479206d696e746564000000006044820152606401610839565b6001600160a01b038216600081815260046020908152604080832080546001019055848352600390915280822080546001600160a01b0319168417905551839291907fddf252ad1be2c89b69c2b068fc378daa952ba7f163c4a11628f55a4df523b3ef908290a45050565b60006001600160a01b0384163b156137d057604051630a85bd0160e11b81526001600160a01b0385169063150b7a029061371e903390899088908890600401614287565b6020604051808303816000875af1925050508015613759575060408051601f3d908101601f19168201909252613756918101906142ba565b60015b6137b6573d808015613787576040519150601f19603f3d011682016040523d82523d6000602084013e61378c565b606091505b5080516000036137ae5760405162461bcd60e51b815260040161083990614235565b805181602001fd5b6001600160e01b031916630a85bd0160e11b149050610cf8565b506001610cf8565b60008072184f03e93ff9f4daa797ed6e38ed64bf6a1f0160401b83106138175772184f03e93ff9f4daa797ed6e38ed64bf6a1f0160401b830492506040015b6d04ee2d6d415b85acef81000000008310613843576d04ee2d6d415b85acef8100000000830492506020015b662386f26fc10000831061386157662386f26fc10000830492506010015b6305f5e1008310613879576305f5e100830492506008015b612710831061388d57612710830492506004015b6064831061389f576064830492506002015b600a83106107065760010192915050565b600081831061324d5781611648565b6001600160e01b031981168114610a8557600080fd5b6000602082840312156138e757600080fd5b8135611648816138bf565b60005b8381101561390d5781810151838201526020016138f5565b838111156114fb5750506000910152565b600081518084526139368160208601602086016138f2565b601f01601f19169290920160200192915050565b602081526000611648602083018461391e565b60006020828403121561396f57600080fd5b5035919050565b6001600160a01b0381168114610a8557600080fd5b6000806040838503121561399e57600080fd5b82356139a981613976565b946020939093013593505050565b6001600160801b031981168114610a8557600080fd5b6000602082840312156139df57600080fd5b8135611648816139b7565b6000806000606084860312156139ff57600080fd5b8335613a0a81613976565b92506020840135613a1a81613976565b929592945050506040919091013590565b80356001600160401b0381168114613a4257600080fd5b919050565b600080600080600085870360e0811215613a6057600080fd5b613a6987613a2b565b95506020870135613a79816139b7565b94506040870135613a89816139b7565b93506060878101359350607f1982011215613aa357600080fd5b506080860190509295509295909350565b60008060008060808587031215613aca57600080fd5b84359350602085013592506040850135613ae3816139b7565b91506060850135613af3816139b7565b939692955090935050565b600060208284031215613b1057600080fd5b61164882613a2b565b60008060008060808587031215613b2f57600080fd5b8435613b3a816139b7565b93506020850135613b4a816139b7565b93969395505050506040820135916060013590565b600060208284031215613b7157600080fd5b813561164881613976565b60008060208385031215613b8f57600080fd5b82356001600160401b0380821115613ba657600080fd5b818501915085601f830112613bba57600080fd5b813581811115613bc957600080fd5b86602061014083028501011115613bdf57600080fd5b60209290920196919550909350505050565b6020808252825182820181905260009190848201906040850190845b81811015613c2957835183529284019291840191600101613c0d565b50909695505050505050565b60006101408284031215613c4857600080fd5b50919050565b8015158114610a8557600080fd5b60008060408385031215613c6f57600080fd5b8235613c7a81613976565b91506020830135613c8a81613c4e565b809150509250929050565b634e487b7160e01b600052604160045260246000fd5b604080519081016001600160401b0381118282101715613ccd57613ccd613c95565b60405290565b604051606081016001600160401b0381118282101715613ccd57613ccd613c95565b604051601f8201601f191681016001600160401b0381118282101715613d1d57613d1d613c95565b604052919050565b60008060008060808587031215613d3b57600080fd5b8435613d4681613976565b9350602085810135613d5781613976565b93506040860135925060608601356001600160401b0380821115613d7a57600080fd5b818801915088601f830112613d8e57600080fd5b813581811115613da057613da0613c95565b613db2601f8201601f19168501613cf5565b91508082528984828501011115613dc857600080fd5b808484018584013760008482840101525080935050505092959194509250565b60008060408385031215613dfb57600080fd5b8235613e0681613976565b91506020830135613c8a81613976565b600181811c90821680613e2a57607f821691505b602082108103613c4857634e487b7160e01b600052602260045260246000fd5b600060208284031215613e5c57600080fd5b815161164881613976565b634e487b7160e01b600052601160045260246000fd5b600082821015613e8f57613e8f613e67565b500390565b600060208284031215613ea657600080fd5b815161164881613c4e565b6020808252602d908201527f4552433732313a2063616c6c6572206973206e6f7420746f6b656e206f776e6560408201526c1c881bdc88185c1c1c9bdd9959609a1b606082015260800190565b634e487b7160e01b600052603260045260246000fd5b60ff81168114610a8557600080fd5b8035613f2e81613f14565b60ff16825260208181013590830152604090810135910152565b6001600160801b03198581168252841660208201526040810183905260c08101612b556060830184613f23565b600060ff821660ff8103613f8b57613f8b613e67565b60010192915050565b634e487b7160e01b600052600160045260246000fd5b60006001600160401b03808316818103613fc657613fc6613e67565b6001019392505050565b60008351613fe28184602088016138f2565b835190830190613ff68183602088016138f2565b01949350505050565b6000602080838503121561401257600080fd5b82516001600160401b038082111561402957600080fd5b8185019150604080838803121561403f57600080fd5b614047613cab565b8351614052816139b7565b8152838501518381111561406557600080fd5b80850194505087601f85011261407a57600080fd5b83518381111561408c5761408c613c95565b61409a868260051b01613cf5565b8181528681019450606091820286018701918a8311156140b957600080fd5b958701955b8287101561410a5780878c0312156140d65760008081fd5b6140de613cd3565b87516140e9816139b7565b815287890151898201528588015186820152865295860195948701946140be565b5095820195909552979650505050505050565b60006001820161412f5761412f613e67565b5060010190565b60208082526025908201527f4552433732313a207472616e736665722066726f6d20696e636f72726563742060408201526437bbb732b960d91b606082015260800190565b60008161418a5761418a613e67565b506000190190565b6000602082840312156141a457600080fd5b5051919050565b6000602082840312156141bd57600080fd5b815161164881613f14565b60008160001904831182151516156141e2576141e2613e67565b500290565b60008261420457634e487b7160e01b600052601260045260246000fd5b500490565b828152608081016116486020830184613f23565b6000821982111561423057614230613e67565b500190565b60208082526032908201527f4552433732313a207472616e7366657220746f206e6f6e20455243373231526560408201527131b2b4bb32b91034b6b83632b6b2b73a32b960711b606082015260800190565b6001600160a01b03858116825284166020820152604081018390526080606082018190526000906125c29083018461391e565b6000602082840312156142cc57600080fd5b8151611648816138bf56fea2646970667358221220db760fbc991b39524e7e753c0ae740824cdf7d196ee0fd3f0e4dc668b3995d3364736f6c634300080f0033",
  "deployedBytecode": "0x608060405234801561001057600080fd5b506004361061028a5760003560e01c80637df73e271161015c578063b88d4fde116100ce578063d6eb591011610087578063d6eb591014610635578063d7194ccb1461063d578063e4650fac14610650578063e985e9c514610663578063f26be3fc1461069f578063f2fde38b146106a757600080fd5b8063b88d4fde146105e4578063bc985bc9146105f7578063c34b44a0146105ff578063c87b56dd14610612578063c96121a814610625578063d1e90d621461062d57600080fd5b806395d89b411161012057806395d89b4114610551578063a166895e14610559578063a22cb46514610583578063a87d942c14610596578063b108501f146105b6578063b18b78dd146105be57600080fd5b80637df73e271461051257806388bc76ba14610525578063893d20e8146105385780638ac6d217146105495780638da5cb5b1461053857600080fd5b80634b9ba446116102005780636b467d15116101b95780636b467d1514610446578063702595861461049d57806370a08231146104bd57806370dea79a146104d0578063715018a6146104f75780637b5df1c9146104ff57600080fd5b80634b9ba446146103cc57806358439479146103df5780636028421f146103e75780636352211e146103fa57806363c724f71461040d57806365cacaa41461042057600080fd5b80632098b7ff116102525780632098b7ff1461034457806323b872dd1461034c57806325117b721461035f578063412406651461039357806342842e0e146103a657806346e116a6146103b957600080fd5b806301ffc9a71461028f57806306fdde03146102b7578063081812fc146102cc578063095ea7b3146102f757806312fa3bf11461030c575b600080fd5b6102a261029d3660046138d5565b6106ba565b60405190151581526020015b60405180910390f35b6102bf61070c565b6040516102ae919061394a565b6102df6102da36600461395d565b61079e565b6040516001600160a01b0390911681526020016102ae565b61030a61030536600461398b565b6107c5565b005b61033661031a3660046139cd565b6001600160801b0319166000908152600b602052604090205490565b6040519081526020016102ae565b61030a6108df565b61030a61035a3660046139ea565b610a88565b7f00000000000000000000000000000000000000000000000000000000000000005b60405160ff90911681526020016102ae565b61030a6103a1366004613a47565b610ab9565b61030a6103b43660046139ea565b610ccc565b6103366103c7366004613ab4565b610ce7565b61030a6103da366004613afe565b610d00565b600e54610336565b6103366103f5366004613b19565b610dfa565b6102df61040836600461395d565b610e08565b61030a61041b366004613b5f565b610e68565b7f00000000000000000000000000000000000000000000000000000000000000006102df565b610459610454366004613afe565b610ef6565b604080519788526020880196909652948601939093526060850191909152151560808401526001600160801b031990811660a08401521660c082015260e0016102ae565b6104b06104ab366004613b7c565b610f21565b6040516102ae9190613bf1565b6103366104cb366004613b5f565b610fda565b6103367f000000000000000000000000000000000000000000000000000000000000000081565b61030a611060565b61033661050d366004613c35565b611074565b6102a2610520366004613b5f565b61133e565b61030a6105333660046139cd565b61135f565b6000546001600160a01b03166102df565b600f54610336565b6102bf611506565b6103366105673660046139cd565b6001600160801b03191660009081526011602052604090205490565b61030a610591366004613c5c565b611515565b61059e611520565b6040516001600160401b0390911681526020016102ae565b610381600181565b7f00000000000000000000000000000000000000000000000000000000000000006102df565b61030a6105f2366004613d25565b61152b565b610381600381565b61030a61060d366004613b5f565b61155d565b6102bf61062036600461395d565b6115e8565b600854610336565b610381600281565b601254610336565b61030a61064b366004613afe565b61164f565b61033661065e366004613afe565b6118a4565b6102a2610671366004613de8565b6001600160a01b03918216600090815260066020908152604080832093909416825291909152205460ff1690565b610381600081565b61030a6106b5366004613b5f565b6118af565b60006001600160e01b031982166380ac58cd60e01b14806106eb57506001600160e01b03198216635b5e139f60e01b145b8061070657506301ffc9a760e01b6001600160e01b03198316145b92915050565b60606001805461071b90613e16565b80601f016020809104026020016040519081016040528092919081815260200182805461074790613e16565b80156107945780601f1061076957610100808354040283529160200191610794565b820191906000526020600020905b81548152906001019060200180831161077757829003601f168201915b5050505050905090565b60006107a982611925565b506000908152600560205260409020546001600160a01b031690565b60006107d082610e08565b9050806001600160a01b0316836001600160a01b0316036108425760405162461bcd60e51b815260206004820152602160248201527f4552433732313a20617070726f76616c20746f2063757272656e74206f776e656044820152603960f91b60648201526084015b60405180910390fd5b336001600160a01b038216148061085e575061085e8133610671565b6108d05760405162461bcd60e51b815260206004820152603d60248201527f4552433732313a20617070726f76652063616c6c6572206973206e6f7420746f60448201527f6b656e206f776e6572206f7220617070726f76656420666f7220616c6c0000006064820152608401610839565b6108da8383611984565b505050565b6108e76119f2565b600f546012541161094c5760405162461bcd60e51b815260206004820152602960248201527f726566756e64436f6c6c61746572616c3a204e6f20636f6c6c61746572616c206044820152681d1bc81c99599d5b9960ba1b6064820152608401610839565b600f546012819055507f00000000000000000000000000000000000000000000000000000000000000006001600160a01b03166338d52e0f6040518163ffffffff1660e01b8152600401602060405180830381865afa1580156109b3573d6000803e3d6000fd5b505050506040513d601f19601f820116820180604052508101906109d79190613e4a565b6001600160a01b031663a9059cbb7f0000000000000000000000000000000000000000000000000000000000000000600f54601254610a169190613e7d565b6040516001600160e01b031960e085901b1681526001600160a01b03909216600483015260248201526044016020604051808303816000875af1158015610a61573d6000803e3d6000fd5b505050506040513d601f19601f82011682018060405250810190610a859190613e94565b50565b610a923382611a4c565b610aae5760405162461bcd60e51b815260040161083990613eb1565b6108da838383611aca565b826001600160801b0319166009866001600160401b031681548110610ae057610ae0613efe565b600091825260209091206006909102015460801b6001600160801b03191614610b665760405162461bcd60e51b815260206004820152603260248201527f73637261746368416e64526566756e643a2070726f706f736974696f6e496420604482015271191bd95cc81b9bdd081b585d18da0818995d60721b6064820152608401610839565b6009856001600160401b031681548110610b8257610b82613efe565b600091825260209091206005600690920201015460ff1615610bf85760405162461bcd60e51b815260206004820152602960248201527f73637261746368416e64526566756e643a204265742068617320616c726561646044820152681e481cd95d1d1b195960ba1b6064820152608401610839565b604051631b62340760e01b81526001600160a01b037f00000000000000000000000000000000000000000000000000000000000000001690631b62340790610c4a908790879087908790600401613f48565b600060405180830381600087803b158015610c6457600080fd5b505af1158015610c78573d6000803e3d6000fd5b5050505060016009866001600160401b031681548110610c9a57610c9a613efe565b60009182526020909120600690910201600501805460ff1916911515919091179055610cc585611c3b565b5050505050565b6108da8383836040518060200160405280600081525061152b565b6000610cf585858585612114565b90505b949350505050565b60006009826001600160401b031681548110610d1e57610d1e613efe565b60009182526020918290206040805160e081018252600690930290910180546001600160801b0319608082811b82168652600160801b909204821b169484019490945260018101549183019190915260028101546060830152600381015492820192909252600482015460a082015260059091015460ff1615801560c0830152909150610ded5760405162461bcd60e51b815260206004820152601f60248201527f736574746c653a204265742068617320616c726561647920736574746c6564006044820152606401610839565b610df682612235565b5050565b6000610cf585858585612590565b6000818152600360205260408120546001600160a01b0316806107065760405162461bcd60e51b8152602060048201526018602482015277115490cdcc8c4e881a5b9d985b1a59081d1bdad95b88125160421b6044820152606401610839565b610e706119f2565b6001600160a01b038116610ed25760405162461bcd60e51b815260206004820152602360248201527f6772616e745369676e65723a20496e76616c6964207369676e6572206164647260448201526265737360e81b6064820152608401610839565b6001600160a01b03166000908152601060205260409020805460ff19166001179055565b6000806000806000806000610f0a886125cc565b959e949d50929b5090995097509550909350915050565b60606000826001600160401b03811115610f3d57610f3d613c95565b604051908082528060200260200182016040528015610f66578160200160208202803683370190505b50905060005b60ff8116841115610fd2573685858360ff16818110610f8d57610f8d613efe565b905061014002019050610f9f81611074565b838360ff1681518110610fb457610fb4613efe565b60209081029190910101525080610fca81613f75565b915050610f6c565b509392505050565b60006001600160a01b0382166110445760405162461bcd60e51b815260206004820152602960248201527f4552433732313a2061646472657373207a65726f206973206e6f7420612076616044820152683634b21037bbb732b960b91b6064820152608401610839565b506001600160a01b031660009081526004602052604090205490565b6110686119f2565b6110726000612692565b565b60008061108460208401846139cd565b61109460408501602086016139cd565b6110a460608601604087016139cd565b604080516001600160801b0319948516602082015292841660308401529216918101919091526080840135605082015260a0840135607082015260c0840135609082015260b001604051602081830303815290604052805190602001209050611110818460e0016126e2565b15156001146111615760405162461bcd60e51b815260206004820152601760248201527f6261636b3a20496e76616c6964207369676e61747572650000000000000000006044820152606401610839565b428360c001351180156111775750428360a00135115b6111b85760405162461bcd60e51b81526020600482015260126024820152716261636b3a20496e76616c6964206461746560701b6044820152606401610839565b6001600160a01b037f00000000000000000000000000000000000000000000000000000000000000001663b32b880e6111f760608601604087016139cd565b6040516001600160e01b031960e084901b1681526001600160801b03199091166004820152602401602060405180830381865afa15801561123c573d6000803e3d6000fd5b505050506040513d601f19601f820116820180604052508101906112609190613e94565b156112c55760405162461bcd60e51b815260206004820152602f60248201527f6261636b3a204f7261636c6520726573756c7420616c7265616479207365742060448201526e199bdc881d1a1a5cc81b585c9ad95d608a1b6064820152608401610839565b60006112f96112da60408601602087016139cd565b6112ea60608701604088016139cd565b86606001358760800135612590565b90506000811161130b5761130b613f94565b610cf861131e60408601602087016139cd565b61132e60608701604088016139cd565b86606001358760c0013585612798565b6001600160a01b03811660009081526010602052604081205460ff16610706565b6001600160801b031981166000908152600a60209081526040808320805482518185028101850190935280835291929091908301828280156113f257602002820191906000526020600020906000905b82829054906101000a90046001600160401b03166001600160401b0316815260200190600801906020826007010492830192600103820291508084116113af5790505b505083519394506000925050505b81816001600160401b031610156114fb57600083826001600160401b03168151811061142e5761142e613efe565b6020026020010151905060006009826001600160401b03168154811061145657611456613efe565b600091825260208083206040805160e081018252600690940290910180546001600160801b0319608082811b82168752600160801b909204821b169385019390935260018101549184019190915260028101546060840152600381015491830191909152600481015460a08301526005015460ff16151560c0820181905290925090036114e6576114e682612235565b505080806114f390613faa565b915050611400565b50505050565b905090565b60606002805461071b90613e16565b610df6338383612b5e565b600061150160095490565b6115353383611a4c565b6115515760405162461bcd60e51b815260040161083990613eb1565b6114fb84848484612c2c565b6115656119f2565b6001600160a01b0381166115c75760405162461bcd60e51b8152602060048201526024808201527f7265766f6b655369676e65723a20496e76616c6964207369676e6572206164646044820152637265737360e01b6064820152608401610839565b6001600160a01b03166000908152601060205260409020805460ff19169055565b60606115f382611925565b60006115fd612c5f565b9050600081511161161d5760405180602001604052806000815250611648565b8061162784612c6e565b604051602001611638929190613fd0565b6040516020818303038152906040525b9392505050565b6009816001600160401b03168154811061166b5761166b613efe565b600091825260209091206005600690920201015460ff16156116cf5760405162461bcd60e51b815260206004820152601f60248201527f726566756e643a204265742068617320616c726561647920736574746c6564006044820152606401610839565b60006009826001600160401b0316815481106116ed576116ed613efe565b60009182526020822060069190910201546040516325a8f38560e11b8152600160801b90910460801b6001600160801b03198116600483015292506001600160a01b037f00000000000000000000000000000000000000000000000000000000000000001690634b51e70a90602401600060405180830381865afa158015611779573d6000803e3d6000fd5b505050506040513d6000823e601f3d908101601f191682016040526117a19190810190613fff565b60208101515190915060005b8181101561185b576009856001600160401b0316815481106117d1576117d1613efe565b906000526020600020906006020160000160009054906101000a900460801b6001600160801b0319168360200151828151811061181057611810613efe565b6020026020010151600001516001600160801b031916036118495760016009866001600160401b031681548110610c9a57610c9a613efe565b806118538161411d565b9150506117ad565b5060405162461bcd60e51b815260206004820152601f60248201527f726566756e643a204e6f7420656c696769626c6520666f7220726566756e64006044820152606401610839565b600061070682612d00565b6118b76119f2565b6001600160a01b03811661191c5760405162461bcd60e51b815260206004820152602660248201527f4f776e61626c653a206e6577206f776e657220697320746865207a65726f206160448201526564647265737360d01b6064820152608401610839565b610a8581612692565b6000818152600360205260409020546001600160a01b0316610a855760405162461bcd60e51b8152602060048201526018602482015277115490cdcc8c4e881a5b9d985b1a59081d1bdad95b88125160421b6044820152606401610839565b600081815260056020526040902080546001600160a01b0319166001600160a01b03841690811790915581906119b982610e08565b6001600160a01b03167f8c5be1e5ebec7d5bd14f71427d1e84f3dd0314c0f7b2291e5b200ac8c7c3b92560405160405180910390a45050565b6000546001600160a01b031633146110725760405162461bcd60e51b815260206004820181905260248201527f4f776e61626c653a2063616c6c6572206973206e6f7420746865206f776e65726044820152606401610839565b600080611a5883610e08565b9050806001600160a01b0316846001600160a01b03161480611a9f57506001600160a01b0380821660009081526006602090815260408083209388168352929052205460ff165b80610cf85750836001600160a01b0316611ab88461079e565b6001600160a01b031614949350505050565b826001600160a01b0316611add82610e08565b6001600160a01b031614611b035760405162461bcd60e51b815260040161083990614136565b6001600160a01b038216611b655760405162461bcd60e51b8152602060048201526024808201527f4552433732313a207472616e7366657220746f20746865207a65726f206164646044820152637265737360e01b6064820152608401610839565b611b728383836001612d5b565b826001600160a01b0316611b8582610e08565b6001600160a01b031614611bab5760405162461bcd60e51b815260040161083990614136565b600081815260056020908152604080832080546001600160a01b03199081169091556001600160a01b0387811680865260048552838620805460001901905590871680865283862080546001019055868652600390945282852080549092168417909155905184937fddf252ad1be2c89b69c2b068fc378daa952ba7f163c4a11628f55a4df523b3ef91a4505050565b60006009826001600160401b031681548110611c5957611c59613efe565b60009182526020918290206040805160e081018252600690930290910180546001600160801b0319608082811b82168652600160801b909204821b169484019490945260018101549183019190915260028101546060830152600381015492820192909252600482015460a082015260059091015460ff1615801560c0830152909150611d285760405162461bcd60e51b815260206004820181905260248201527f5f726566756e643a204265742068617320616c726561647920736574746c65646044820152606401610839565b600160c08201526001600160401b038216600090815260146020526040812054600f805491928392611d5b908490613e7d565b9091555050600980546001600160401b038516908110611d7d57611d7d613efe565b906000526020600020906006020160010154600e6000828254611da09190613e7d565b909155505060088054906000611db58361417b565b91905055506000611dce846001600160401b0316610e08565b90507f00000000000000000000000000000000000000000000000000000000000000006001600160a01b03166338d52e0f6040518163ffffffff1660e01b8152600401602060405180830381865afa158015611e2e573d6000803e3d6000fd5b505050506040513d601f19601f82011682018060405250810190611e529190613e4a565b604080850151905163a9059cbb60e01b81526001600160a01b038481166004830152602482019290925291169063a9059cbb906044016020604051808303816000875af1158015611ea7573d6000803e3d6000fd5b505050506040513d601f19601f82011682018060405250810190611ecb9190613e94565b5081156120af577f00000000000000000000000000000000000000000000000000000000000000006001600160a01b03166338d52e0f6040518163ffffffff1660e01b8152600401602060405180830381865afa158015611f30573d6000803e3d6000fd5b505050506040513d601f19601f82011682018060405250810190611f549190613e4a565b60405163a9059cbb60e01b81526001600160a01b037f00000000000000000000000000000000000000000000000000000000000000008116600483015260248201859052919091169063a9059cbb906044016020604051808303816000875af1158015611fc5573d6000803e3d6000fd5b505050506040513d601f19601f82011682018060405250810190611fe99190613e94565b507f00000000000000000000000000000000000000000000000000000000000000006001600160a01b03166338d52e0f6040518163ffffffff1660e01b8152600401602060405180830381865afa158015612048573d6000803e3d6000fd5b505050506040513d601f19601f8201168201806040525081019061206c9190613e4a565b6001600160a01b03167f0516911bcc3a0a7412a44601057c0a0a1ec628bde049a84284bc428866534488836040516120a691815260200190565b60405180910390a25b60408084015181516001600160401b038716815260208101919091526001600160a01b038316917fe5fd53654bc4ea55a3106f8f2bd57252875afee33cc027448099373ae65408f691015b60405180910390a26114fb846001600160401b0316612de3565b6000600185111580612127575060018411155b1561213457506001610cf8565b60007f00000000000000000000000000000000000000000000000000000000000000006001600160a01b031663b15031fa6040518163ffffffff1660e01b8152600401602060405180830381865afa158015612194573d6000803e3d6000fd5b505050506040513d601f19601f820116820180604052508101906121b89190614192565b9050806000036121cc576001915050610cf8565b6001600160801b031984166000908152600d60205260409020548110156121f7576001915050610cf8565b6001600160801b031984166000908152600d602052604090205461221b9082613e7d565b9050600061222a878784612e86565b979650505050505050565b60006009826001600160401b03168154811061225357612253613efe565b60009182526020918290206040805160e081018252600690930290910180546001600160801b0319608082811b82168652600160801b909204821b16948401949094526001808201549284019290925260028101546060840152600381015493830193909352600483015460a083015260059092015460ff16151560c082015260098054919350906001600160401b0385169081106122f4576122f4613efe565b60009182526020822060069190910201600501805460ff1916921515929092179091558061232184612d00565b421115612359576001915061233e846001600160401b0316610e08565b9050612354846001600160401b03166001612f0b565b61250e565b602083015183516040516306c77ce760e01b81526001600160801b03199283166004820152911660248201527f00000000000000000000000000000000000000000000000000000000000000006001600160a01b0316906306c77ce790604401602060405180830381865afa1580156123d6573d6000803e3d6000fd5b505050506040513d601f19601f820116820180604052508101906123fa91906141ab565b915060ff821661245b5760405162461bcd60e51b815260206004820152602660248201527f5f736574746c653a204f7261636c6520646f6573206e6f7420686176652061206044820152651c995cdd5b1d60d21b6064820152608401610839565b60011960ff83160161248d577f000000000000000000000000000000000000000000000000000000000000000061249f565b61249f846001600160401b0316610e08565b90506124b4846001600160401b031683612f0b565b6009846001600160401b0316815481106124d0576124d0613efe565b906000526020600020906006020160010154600e60008282546124f39190613e7d565b9091555050600880549060006125088361417b565b91905055505b806001600160a01b03167f7c2e00429f610bdb997681cabbb0ef3197390c07fe90ea4a98ac36438dd4217c856009876001600160401b03168154811061255657612556613efe565b600091825260209182902060026006909202010154604080516001600160401b0390941684529183015260ff8616908201526060016120fa565b60008061259f84848888612114565b90506125c284620f42406125b382856141c8565b6125bd91906141e7565b61323e565b9695505050505050565b6000806000806000806000806009896001600160401b0316815481106125f4576125f4613efe565b60009182526020918290206040805160e0810182526006939093029091018054608081811b6001600160801b0319908116808752600160801b909304821b1695850186905260018301549385018490526002830154606086018190526003840154918601829052600484015460a0870181905260059094015460ff16151560c0909601869052939f939e509c50909a50919850919650945092505050565b600080546001600160a01b038381166001600160a01b0319831681178455604051919092169283917f8be0079c531659141344cd1fd0a4f28419497f9722a3daafe3b4186f6b6457e09190a35050565b60008073__$47464c6f7588c8075b5d384b19d082a8ec$__635cff288d85856040518363ffffffff1660e01b815260040161271e929190614209565b602060405180830381865af415801561273b573d6000803e3d6000fd5b505050506040513d601f19601f8201168201806040525081019061275f9190613e4a565b90506001600160a01b03811661277757612777613f94565b6001600160a01b03811660009081526010602052604090205460ff16610cf8565b60006001600160a01b037f0000000000000000000000000000000000000000000000000000000000000000166323b872dd3360405160e083901b6001600160e01b03191681526001600160a01b0391821660048201527f00000000000000000000000000000000000000000000000000000000000000009091166024820152604481018790526064016020604051808303816000875af1158015612840573d6000803e3d6000fd5b505050506040513d601f19601f820116820180604052508101906128649190613e94565b506001600160801b031985166000908152600b60205260408120805486929061288e90849061421d565b9250508190555083600e60008282546128a7919061421d565b9091555050600880549060006128bc8361411d565b919050555060006128cc60095490565b6001600160801b031988166000908152600d60205260408120805492935085929091906128fa90849061421d565b9091555061291690506001600160401b03821687898887613254565b600f6000828254612927919061421d565b90915550506040805160e0810182526001600160801b03198981168252881660208083018281528385018a81526060850189815260808087018c81524260a08901908152600060c08a0181815260098054600180820183559184529b51985198861c600160801b9990961c98909802949094177f6e1540171b6c0c960b71a7020d9f60077f6af931a8bbf590da0223dacf75c7af6006909b029a8b015594517f6e1540171b6c0c960b71a7020d9f60077f6af931a8bbf590da0223dacf75c7b08a015592517f6e1540171b6c0c960b71a7020d9f60077f6af931a8bbf590da0223dacf75c7b1890155517f6e1540171b6c0c960b71a7020d9f60077f6af931a8bbf590da0223dacf75c7b288015590517f6e1540171b6c0c960b71a7020d9f60077f6af931a8bbf590da0223dacf75c7b3870155517f6e1540171b6c0c960b71a7020d9f60077f6af931a8bbf590da0223dacf75c7b4909501805460ff191695151595909517909455918352600a81529282208054918201815582529190206004820401805460039092166008026101000a6001600160401b038181021990931692841602919091179055612ae533826001600160401b0316613541565b604080516001600160401b03831681526001600160801b031989811660208301528816818301526060810187905260808101859052905133917f1d273ea6a1aea94de32fd06a09ab8046dff8e3261c5a4ecaa5e1a5705f3342ec919081900360a00190a26001600160401b031690505b95945050505050565b816001600160a01b0316836001600160a01b031603612bbf5760405162461bcd60e51b815260206004820152601960248201527f4552433732313a20617070726f766520746f2063616c6c6572000000000000006044820152606401610839565b6001600160a01b03838116600081815260066020908152604080832094871680845294825291829020805460ff191686151590811790915591519182527f17307eab39ab6107e8899845ad3d59bd9653f200f220920489ca2b5937696c31910160405180910390a3505050565b612c37848484611aca565b612c43848484846136da565b6114fb5760405162461bcd60e51b815260040161083990614235565b60606007805461071b90613e16565b60606000612c7b836137d8565b60010190506000816001600160401b03811115612c9a57612c9a613c95565b6040519080825280601f01601f191660200182016040528015612cc4576020820181803683370190505b5090508181016020015b600019016f181899199a1a9b1b9c1cb0b131b232b360811b600a86061a8153600a8504945084612cce57509392505050565b60007f00000000000000000000000000000000000000000000000000000000000000006009836001600160401b031681548110612d3f57612d3f613efe565b906000526020600020906006020160030154610706919061421d565b60018111156114fb576001600160a01b03841615612da1576001600160a01b03841660009081526004602052604081208054839290612d9b908490613e7d565b90915550505b6001600160a01b038316156114fb576001600160a01b03831660009081526004602052604081208054839290612dd890849061421d565b909155505050505050565b6000612dee82610e08565b9050612dfe816000846001612d5b565b612e0782610e08565b600083815260056020908152604080832080546001600160a01b03199081169091556001600160a01b0385168085526004845282852080546000190190558785526003909352818420805490911690555192935084927fddf252ad1be2c89b69c2b068fc378daa952ba7f163c4a11628f55a4df523b3ef908390a45050565b60405163a19dec4360e01b815260048101849052602481018390526044810182905260009073__$488e0037c7b108d422da68056570fe35d6$__9063a19dec4390606401602060405180830381865af4158015612ee7573d6000803e3d6000fd5b505050506040513d601f19601f82011682018060405250810190610cf89190614192565b600060098381548110612f2057612f20613efe565b90600052602060002090600602016001015490506014600084815260200190815260200160002054600f6000828254612f599190613e7d565b909155505060021960ff831601613014577f00000000000000000000000000000000000000000000000000000000000000006001600160a01b031663a9059cbb612fa285610e08565b6040516001600160e01b031960e084901b1681526001600160a01b039091166004820152602481018490526044015b6020604051808303816000875af1158015612ff0573d6000803e3d6000fd5b505050506040513d601f19601f820116820180604052508101906114fb9190613e94565b426009848154811061302857613028613efe565b906000526020600020906006020160030154106130875760405162461bcd60e51b815260206004820181905260248201527f5f7061796f75743a205061796f75742064617465206e6f7420726561636865646044820152606401610839565b60001960ff83160161318a5760008381526014602052604081205460128054919290916130b5908490613e7d565b90915550506001600160a01b037f00000000000000000000000000000000000000000000000000000000000000001663a9059cbb6130f285610e08565b6009868154811061310557613105613efe565b60009182526020909120600260069092020101546040516001600160e01b031960e085901b1681526001600160a01b03909216600483015260248201526044016020604051808303816000875af1158015613164573d6000803e3d6000fd5b505050506040513d601f19601f820116820180604052508101906131889190613e94565b505b60011960ff8316016108da577f00000000000000000000000000000000000000000000000000000000000000006001600160a01b031663a9059cbb7f0000000000000000000000000000000000000000000000000000000000000000600986815481106131f9576131f9613efe565b60009182526020909120600160069092020101546040516001600160e01b031960e085901b1681526001600160a01b0390921660048301526024820152604401612fd1565b600081831161324d5781611648565b5090919050565b6001600160801b031984166000908152600b6020908152604080832054601190925282205482916132849161421d565b6001600160801b031986166000908152600d602052604090205490915081106132b1576000915050612b55565b6001600160801b031986811660009081526013602090815260408083208054851660808b901c1790559288168252600d9052908120546132f2908390613e7d565b90506000600f546012541115613324576000600f546012546133149190613e7d565b905061332083826138b0565b9150505b818110156134f75760006133388284613e7d565b90507f00000000000000000000000000000000000000000000000000000000000000006001600160a01b03166338d52e0f6040518163ffffffff1660e01b8152600401602060405180830381865afa158015613398573d6000803e3d6000fd5b505050506040513d601f19601f820116820180604052508101906133bc9190613e4a565b6040516323b872dd60e01b81526001600160a01b037f0000000000000000000000000000000000000000000000000000000000000000811660048301527f0000000000000000000000000000000000000000000000000000000000000000811660248301526044820184905291909116906323b872dd906064016020604051808303816000875af1158015613455573d6000803e3d6000fd5b505050506040513d601f19601f820116820180604052508101906134799190613e94565b50604080518b8152602081018390526001600160a01b037f000000000000000000000000000000000000000000000000000000000000000016917feae9cfbc77fdd40ca899f36b608256063b2bc9d8178b0220f7ad513e178d6730910160405180910390a280601260008282546134f0919061421d565b9091555050505b60008981526014602090815260408083208590556001600160801b03198b16835260119091528120805484929061352f90849061421d565b90915550919998505050505050505050565b6001600160a01b0382166135975760405162461bcd60e51b815260206004820181905260248201527f4552433732313a206d696e7420746f20746865207a65726f20616464726573736044820152606401610839565b6000818152600360205260409020546001600160a01b0316156135fc5760405162461bcd60e51b815260206004820152601c60248201527f4552433732313a20746f6b656e20616c7265616479206d696e746564000000006044820152606401610839565b61360a600083836001612d5b565b6000818152600360205260409020546001600160a01b03161561366f5760405162461bcd60e51b815260206004820152601c60248201527f4552433732313a20746f6b656e20616c7265616479206d696e746564000000006044820152606401610839565b6001600160a01b038216600081815260046020908152604080832080546001019055848352600390915280822080546001600160a01b0319168417905551839291907fddf252ad1be2c89b69c2b068fc378daa952ba7f163c4a11628f55a4df523b3ef908290a45050565b60006001600160a01b0384163b156137d057604051630a85bd0160e11b81526001600160a01b0385169063150b7a029061371e903390899088908890600401614287565b6020604051808303816000875af1925050508015613759575060408051601f3d908101601f19168201909252613756918101906142ba565b60015b6137b6573d808015613787576040519150601f19603f3d011682016040523d82523d6000602084013e61378c565b606091505b5080516000036137ae5760405162461bcd60e51b815260040161083990614235565b805181602001fd5b6001600160e01b031916630a85bd0160e11b149050610cf8565b506001610cf8565b60008072184f03e93ff9f4daa797ed6e38ed64bf6a1f0160401b83106138175772184f03e93ff9f4daa797ed6e38ed64bf6a1f0160401b830492506040015b6d04ee2d6d415b85acef81000000008310613843576d04ee2d6d415b85acef8100000000830492506020015b662386f26fc10000831061386157662386f26fc10000830492506010015b6305f5e1008310613879576305f5e100830492506008015b612710831061388d57612710830492506004015b6064831061389f576064830492506002015b600a83106107065760010192915050565b600081831061324d5781611648565b6001600160e01b031981168114610a8557600080fd5b6000602082840312156138e757600080fd5b8135611648816138bf565b60005b8381101561390d5781810151838201526020016138f5565b838111156114fb5750506000910152565b600081518084526139368160208601602086016138f2565b601f01601f19169290920160200192915050565b602081526000611648602083018461391e565b60006020828403121561396f57600080fd5b5035919050565b6001600160a01b0381168114610a8557600080fd5b6000806040838503121561399e57600080fd5b82356139a981613976565b946020939093013593505050565b6001600160801b031981168114610a8557600080fd5b6000602082840312156139df57600080fd5b8135611648816139b7565b6000806000606084860312156139ff57600080fd5b8335613a0a81613976565b92506020840135613a1a81613976565b929592945050506040919091013590565b80356001600160401b0381168114613a4257600080fd5b919050565b600080600080600085870360e0811215613a6057600080fd5b613a6987613a2b565b95506020870135613a79816139b7565b94506040870135613a89816139b7565b93506060878101359350607f1982011215613aa357600080fd5b506080860190509295509295909350565b60008060008060808587031215613aca57600080fd5b84359350602085013592506040850135613ae3816139b7565b91506060850135613af3816139b7565b939692955090935050565b600060208284031215613b1057600080fd5b61164882613a2b565b60008060008060808587031215613b2f57600080fd5b8435613b3a816139b7565b93506020850135613b4a816139b7565b93969395505050506040820135916060013590565b600060208284031215613b7157600080fd5b813561164881613976565b60008060208385031215613b8f57600080fd5b82356001600160401b0380821115613ba657600080fd5b818501915085601f830112613bba57600080fd5b813581811115613bc957600080fd5b86602061014083028501011115613bdf57600080fd5b60209290920196919550909350505050565b6020808252825182820181905260009190848201906040850190845b81811015613c2957835183529284019291840191600101613c0d565b50909695505050505050565b60006101408284031215613c4857600080fd5b50919050565b8015158114610a8557600080fd5b60008060408385031215613c6f57600080fd5b8235613c7a81613976565b91506020830135613c8a81613c4e565b809150509250929050565b634e487b7160e01b600052604160045260246000fd5b604080519081016001600160401b0381118282101715613ccd57613ccd613c95565b60405290565b604051606081016001600160401b0381118282101715613ccd57613ccd613c95565b604051601f8201601f191681016001600160401b0381118282101715613d1d57613d1d613c95565b604052919050565b60008060008060808587031215613d3b57600080fd5b8435613d4681613976565b9350602085810135613d5781613976565b93506040860135925060608601356001600160401b0380821115613d7a57600080fd5b818801915088601f830112613d8e57600080fd5b813581811115613da057613da0613c95565b613db2601f8201601f19168501613cf5565b91508082528984828501011115613dc857600080fd5b808484018584013760008482840101525080935050505092959194509250565b60008060408385031215613dfb57600080fd5b8235613e0681613976565b91506020830135613c8a81613976565b600181811c90821680613e2a57607f821691505b602082108103613c4857634e487b7160e01b600052602260045260246000fd5b600060208284031215613e5c57600080fd5b815161164881613976565b634e487b7160e01b600052601160045260246000fd5b600082821015613e8f57613e8f613e67565b500390565b600060208284031215613ea657600080fd5b815161164881613c4e565b6020808252602d908201527f4552433732313a2063616c6c6572206973206e6f7420746f6b656e206f776e6560408201526c1c881bdc88185c1c1c9bdd9959609a1b606082015260800190565b634e487b7160e01b600052603260045260246000fd5b60ff81168114610a8557600080fd5b8035613f2e81613f14565b60ff16825260208181013590830152604090810135910152565b6001600160801b03198581168252841660208201526040810183905260c08101612b556060830184613f23565b600060ff821660ff8103613f8b57613f8b613e67565b60010192915050565b634e487b7160e01b600052600160045260246000fd5b60006001600160401b03808316818103613fc657613fc6613e67565b6001019392505050565b60008351613fe28184602088016138f2565b835190830190613ff68183602088016138f2565b01949350505050565b6000602080838503121561401257600080fd5b82516001600160401b038082111561402957600080fd5b8185019150604080838803121561403f57600080fd5b614047613cab565b8351614052816139b7565b8152838501518381111561406557600080fd5b80850194505087601f85011261407a57600080fd5b83518381111561408c5761408c613c95565b61409a868260051b01613cf5565b8181528681019450606091820286018701918a8311156140b957600080fd5b958701955b8287101561410a5780878c0312156140d65760008081fd5b6140de613cd3565b87516140e9816139b7565b815287890151898201528588015186820152865295860195948701946140be565b5095820195909552979650505050505050565b60006001820161412f5761412f613e67565b5060010190565b60208082526025908201527f4552433732313a207472616e736665722066726f6d20696e636f72726563742060408201526437bbb732b960d91b606082015260800190565b60008161418a5761418a613e67565b506000190190565b6000602082840312156141a457600080fd5b5051919050565b6000602082840312156141bd57600080fd5b815161164881613f14565b60008160001904831182151516156141e2576141e2613e67565b500290565b60008261420457634e487b7160e01b600052601260045260246000fd5b500490565b828152608081016116486020830184613f23565b6000821982111561423057614230613e67565b500190565b60208082526032908201527f4552433732313a207472616e7366657220746f206e6f6e20455243373231526560408201527131b2b4bb32b91034b6b83632b6b2b73a32b960711b606082015260800190565b6001600160a01b03858116825284166020820152604081018390526080606082018190526000906125c29083018461391e565b6000602082840312156142cc57600080fd5b8151611648816138bf56fea2646970667358221220db760fbc991b39524e7e753c0ae740824cdf7d196ee0fd3f0e4dc668b3995d3364736f6c634300080f0033",
  "libraries": {
    "SignatureLib": "0x2CFb7A620A699229a41C66E530b1C06877f3982F",
    "OddsLib": "0xd4C71272E671eC04405E5Ecf1c9b2B9904E0e380"
  },
  "devdoc": {
    "kind": "dev",
    "methods": {
      "approve(address,uint256)": {
        "details": "See {IERC721-approve}."
      },
      "balanceOf(address)": {
        "details": "See {IERC721-balanceOf}."
      },
      "getApproved(uint256)": {
        "details": "See {IERC721-getApproved}."
      },
      "isApprovedForAll(address,address)": {
        "details": "See {IERC721-isApprovedForAll}."
      },
      "name()": {
        "details": "See {IERC721Metadata-name}."
      },
      "owner()": {
        "details": "Returns the address of the current owner."
      },
      "ownerOf(uint256)": {
        "details": "See {IERC721-ownerOf}."
      },
      "renounceOwnership()": {
        "details": "Leaves the contract without owner. It will not be possible to call `onlyOwner` functions anymore. Can only be called by the current owner. NOTE: Renouncing ownership will leave the contract without an owner, thereby removing any functionality that is only available to the owner."
      },
      "safeTransferFrom(address,address,uint256)": {
        "details": "See {IERC721-safeTransferFrom}."
      },
      "safeTransferFrom(address,address,uint256,bytes)": {
        "details": "See {IERC721-safeTransferFrom}."
      },
      "setApprovalForAll(address,bool)": {
        "details": "See {IERC721-setApprovalForAll}."
      },
      "supportsInterface(bytes4)": {
        "details": "See {IERC165-supportsInterface}."
      },
      "symbol()": {
        "details": "See {IERC721Metadata-symbol}."
      },
      "tokenURI(uint256)": {
        "details": "See {IERC721Metadata-tokenURI}."
      },
      "transferFrom(address,address,uint256)": {
        "details": "See {IERC721-transferFrom}."
      },
      "transferOwnership(address)": {
        "details": "Transfers ownership of the contract to a new account (`newOwner`). Can only be called by the current owner."
      }
    },
    "version": 1
  },
  "userdoc": {
    "kind": "user",
    "methods": {},
    "version": 1
  },
  "storageLayout": {
    "storage": [
      {
        "astId": 2722,
        "contract": "contracts/presets/MarketCollateralisedLinear.sol:MarketCollateralisedLinear",
        "label": "_owner",
        "offset": 0,
        "slot": "0",
        "type": "t_address"
      },
      {
        "astId": 5039,
        "contract": "contracts/presets/MarketCollateralisedLinear.sol:MarketCollateralisedLinear",
        "label": "_name",
        "offset": 0,
        "slot": "1",
        "type": "t_string_storage"
      },
      {
        "astId": 5041,
        "contract": "contracts/presets/MarketCollateralisedLinear.sol:MarketCollateralisedLinear",
        "label": "_symbol",
        "offset": 0,
        "slot": "2",
        "type": "t_string_storage"
      },
      {
        "astId": 5045,
        "contract": "contracts/presets/MarketCollateralisedLinear.sol:MarketCollateralisedLinear",
        "label": "_owners",
        "offset": 0,
        "slot": "3",
        "type": "t_mapping(t_uint256,t_address)"
      },
      {
        "astId": 5049,
        "contract": "contracts/presets/MarketCollateralisedLinear.sol:MarketCollateralisedLinear",
        "label": "_balances",
        "offset": 0,
        "slot": "4",
        "type": "t_mapping(t_address,t_uint256)"
      },
      {
        "astId": 5053,
        "contract": "contracts/presets/MarketCollateralisedLinear.sol:MarketCollateralisedLinear",
        "label": "_tokenApprovals",
        "offset": 0,
        "slot": "5",
        "type": "t_mapping(t_uint256,t_address)"
      },
      {
        "astId": 5059,
        "contract": "contracts/presets/MarketCollateralisedLinear.sol:MarketCollateralisedLinear",
        "label": "_operatorApprovals",
        "offset": 0,
        "slot": "6",
        "type": "t_mapping(t_address,t_mapping(t_address,t_bool))"
      },
      {
        "astId": 12014,
        "contract": "contracts/presets/MarketCollateralisedLinear.sol:MarketCollateralisedLinear",
        "label": "_metadataBaseURI",
        "offset": 0,
        "slot": "7",
        "type": "t_string_storage"
      },
      {
        "astId": 12029,
        "contract": "contracts/presets/MarketCollateralisedLinear.sol:MarketCollateralisedLinear",
        "label": "_inplayCount",
        "offset": 0,
        "slot": "8",
        "type": "t_uint256"
      },
      {
        "astId": 12033,
        "contract": "contracts/presets/MarketCollateralisedLinear.sol:MarketCollateralisedLinear",
        "label": "_bets",
        "offset": 0,
        "slot": "9",
        "type": "t_array(t_struct(Bet)12000_storage)dyn_storage"
      },
      {
        "astId": 12038,
        "contract": "contracts/presets/MarketCollateralisedLinear.sol:MarketCollateralisedLinear",
        "label": "_marketBets",
        "offset": 0,
        "slot": "10",
        "type": "t_mapping(t_bytes16,t_array(t_uint64)dyn_storage)"
      },
      {
        "astId": 12042,
        "contract": "contracts/presets/MarketCollateralisedLinear.sol:MarketCollateralisedLinear",
        "label": "_marketTotal",
        "offset": 0,
        "slot": "11",
        "type": "t_mapping(t_bytes16,t_uint256)"
      },
      {
        "astId": 12048,
        "contract": "contracts/presets/MarketCollateralisedLinear.sol:MarketCollateralisedLinear",
        "label": "_marketBetAmount",
        "offset": 0,
        "slot": "12",
        "type": "t_mapping(t_bytes16,t_mapping(t_uint16,t_uint256))"
      },
      {
        "astId": 12052,
        "contract": "contracts/presets/MarketCollateralisedLinear.sol:MarketCollateralisedLinear",
        "label": "_potentialPayout",
        "offset": 0,
        "slot": "13",
        "type": "t_mapping(t_bytes16,t_uint256)"
      },
      {
        "astId": 12054,
        "contract": "contracts/presets/MarketCollateralisedLinear.sol:MarketCollateralisedLinear",
        "label": "_totalInPlay",
        "offset": 0,
        "slot": "14",
        "type": "t_uint256"
      },
      {
        "astId": 12056,
        "contract": "contracts/presets/MarketCollateralisedLinear.sol:MarketCollateralisedLinear",
        "label": "_totalExposure",
        "offset": 0,
        "slot": "15",
        "type": "t_uint256"
      },
      {
        "astId": 12062,
        "contract": "contracts/presets/MarketCollateralisedLinear.sol:MarketCollateralisedLinear",
        "label": "_signers",
        "offset": 0,
        "slot": "16",
        "type": "t_mapping(t_address,t_bool)"
      },
      {
        "astId": 13659,
        "contract": "contracts/presets/MarketCollateralisedLinear.sol:MarketCollateralisedLinear",
        "label": "_marketCollateral",
        "offset": 0,
        "slot": "17",
        "type": "t_mapping(t_bytes16,t_uint256)"
      },
      {
        "astId": 13661,
        "contract": "contracts/presets/MarketCollateralisedLinear.sol:MarketCollateralisedLinear",
        "label": "_totalCollateral",
        "offset": 0,
        "slot": "18",
        "type": "t_uint256"
      },
      {
        "astId": 13665,
        "contract": "contracts/presets/MarketCollateralisedLinear.sol:MarketCollateralisedLinear",
        "label": "_mostExpensivePropositionId",
        "offset": 0,
        "slot": "19",
        "type": "t_mapping(t_bytes16,t_bytes16)"
      },
      {
        "astId": 13669,
        "contract": "contracts/presets/MarketCollateralisedLinear.sol:MarketCollateralisedLinear",
        "label": "_betExposure",
        "offset": 0,
        "slot": "20",
        "type": "t_mapping(t_uint256,t_uint256)"
      }
    ],
    "types": {
      "t_address": {
        "encoding": "inplace",
        "label": "address",
        "numberOfBytes": "20"
      },
      "t_array(t_struct(Bet)12000_storage)dyn_storage": {
        "base": "t_struct(Bet)12000_storage",
        "encoding": "dynamic_array",
        "label": "struct Bet[]",
        "numberOfBytes": "32"
      },
      "t_array(t_uint64)dyn_storage": {
        "base": "t_uint64",
        "encoding": "dynamic_array",
        "label": "uint64[]",
        "numberOfBytes": "32"
      },
      "t_bool": {
        "encoding": "inplace",
        "label": "bool",
        "numberOfBytes": "1"
      },
      "t_bytes16": {
        "encoding": "inplace",
        "label": "bytes16",
        "numberOfBytes": "16"
      },
      "t_mapping(t_address,t_bool)": {
        "encoding": "mapping",
        "key": "t_address",
        "label": "mapping(address => bool)",
        "numberOfBytes": "32",
        "value": "t_bool"
      },
      "t_mapping(t_address,t_mapping(t_address,t_bool))": {
        "encoding": "mapping",
        "key": "t_address",
        "label": "mapping(address => mapping(address => bool))",
        "numberOfBytes": "32",
        "value": "t_mapping(t_address,t_bool)"
      },
      "t_mapping(t_address,t_uint256)": {
        "encoding": "mapping",
        "key": "t_address",
        "label": "mapping(address => uint256)",
        "numberOfBytes": "32",
        "value": "t_uint256"
      },
      "t_mapping(t_bytes16,t_array(t_uint64)dyn_storage)": {
        "encoding": "mapping",
        "key": "t_bytes16",
        "label": "mapping(bytes16 => uint64[])",
        "numberOfBytes": "32",
        "value": "t_array(t_uint64)dyn_storage"
      },
      "t_mapping(t_bytes16,t_bytes16)": {
        "encoding": "mapping",
        "key": "t_bytes16",
        "label": "mapping(bytes16 => bytes16)",
        "numberOfBytes": "32",
        "value": "t_bytes16"
      },
      "t_mapping(t_bytes16,t_mapping(t_uint16,t_uint256))": {
        "encoding": "mapping",
        "key": "t_bytes16",
        "label": "mapping(bytes16 => mapping(uint16 => uint256))",
        "numberOfBytes": "32",
        "value": "t_mapping(t_uint16,t_uint256)"
      },
      "t_mapping(t_bytes16,t_uint256)": {
        "encoding": "mapping",
        "key": "t_bytes16",
        "label": "mapping(bytes16 => uint256)",
        "numberOfBytes": "32",
        "value": "t_uint256"
      },
      "t_mapping(t_uint16,t_uint256)": {
        "encoding": "mapping",
        "key": "t_uint16",
        "label": "mapping(uint16 => uint256)",
        "numberOfBytes": "32",
        "value": "t_uint256"
      },
      "t_mapping(t_uint256,t_address)": {
        "encoding": "mapping",
        "key": "t_uint256",
        "label": "mapping(uint256 => address)",
        "numberOfBytes": "32",
        "value": "t_address"
      },
      "t_mapping(t_uint256,t_uint256)": {
        "encoding": "mapping",
        "key": "t_uint256",
        "label": "mapping(uint256 => uint256)",
        "numberOfBytes": "32",
        "value": "t_uint256"
      },
      "t_string_storage": {
        "encoding": "bytes",
        "label": "string",
        "numberOfBytes": "32"
      },
      "t_struct(Bet)12000_storage": {
        "encoding": "inplace",
        "label": "struct Bet",
        "members": [
          {
            "astId": 11987,
            "contract": "contracts/presets/MarketCollateralisedLinear.sol:MarketCollateralisedLinear",
            "label": "propositionId",
            "offset": 0,
            "slot": "0",
            "type": "t_bytes16"
          },
          {
            "astId": 11989,
            "contract": "contracts/presets/MarketCollateralisedLinear.sol:MarketCollateralisedLinear",
            "label": "marketId",
            "offset": 16,
            "slot": "0",
            "type": "t_bytes16"
          },
          {
            "astId": 11991,
            "contract": "contracts/presets/MarketCollateralisedLinear.sol:MarketCollateralisedLinear",
            "label": "amount",
            "offset": 0,
            "slot": "1",
            "type": "t_uint256"
          },
          {
            "astId": 11993,
            "contract": "contracts/presets/MarketCollateralisedLinear.sol:MarketCollateralisedLinear",
            "label": "payout",
            "offset": 0,
            "slot": "2",
            "type": "t_uint256"
          },
          {
            "astId": 11995,
            "contract": "contracts/presets/MarketCollateralisedLinear.sol:MarketCollateralisedLinear",
            "label": "payoutDate",
            "offset": 0,
            "slot": "3",
            "type": "t_uint256"
          },
          {
            "astId": 11997,
            "contract": "contracts/presets/MarketCollateralisedLinear.sol:MarketCollateralisedLinear",
            "label": "created",
            "offset": 0,
            "slot": "4",
            "type": "t_uint256"
          },
          {
            "astId": 11999,
            "contract": "contracts/presets/MarketCollateralisedLinear.sol:MarketCollateralisedLinear",
            "label": "settled",
            "offset": 0,
            "slot": "5",
            "type": "t_bool"
          }
        ],
        "numberOfBytes": "192"
      },
      "t_uint16": {
        "encoding": "inplace",
        "label": "uint16",
        "numberOfBytes": "2"
      },
      "t_uint256": {
        "encoding": "inplace",
        "label": "uint256",
        "numberOfBytes": "32"
      },
      "t_uint64": {
        "encoding": "inplace",
        "label": "uint64",
        "numberOfBytes": "8"
      }
    }
  }
}