{
  "address": "0x53FA3dA890d97B694d144A66AfA772A42F69CE1a",
  "abi": [
    {
      "inputs": [],
      "name": "PRECISION",
      "outputs": [
        {
          "internalType": "uint256",
          "name": "",
          "type": "uint256"
        }
      ],
      "stateMutability": "view",
      "type": "function"
    },
    {
      "inputs": [
        {
          "internalType": "uint256",
          "name": "odds",
          "type": "uint256"
        },
        {
          "internalType": "uint256",
          "name": "margin",
          "type": "uint256"
        }
      ],
      "name": "addMargin",
      "outputs": [
        {
          "internalType": "uint256",
          "name": "",
          "type": "uint256"
        }
      ],
      "stateMutability": "pure",
      "type": "function"
    },
    {
      "inputs": [
        {
          "internalType": "uint256",
          "name": "odds",
          "type": "uint256"
        },
        {
          "internalType": "uint256",
          "name": "margin",
          "type": "uint256"
        },
        {
          "internalType": "uint256",
          "name": "targetMargin",
          "type": "uint256"
        }
      ],
      "name": "changeMargin",
      "outputs": [
        {
          "internalType": "uint256",
          "name": "",
          "type": "uint256"
        }
      ],
      "stateMutability": "pure",
      "type": "function"
    },
    {
      "inputs": [
        {
          "internalType": "uint256",
          "name": "wager",
          "type": "uint256"
        },
        {
          "internalType": "uint256",
          "name": "odds",
          "type": "uint256"
        },
        {
          "internalType": "uint256",
          "name": "liquidity",
          "type": "uint256"
        }
      ],
      "name": "getCurvedAdjustedOdds",
      "outputs": [
        {
          "internalType": "uint256",
          "name": "",
          "type": "uint256"
        }
      ],
      "stateMutability": "pure",
      "type": "function"
    },
    {
      "inputs": [
        {
          "internalType": "uint256",
          "name": "wager",
          "type": "uint256"
        },
        {
          "internalType": "uint256",
          "name": "odds",
          "type": "uint256"
        },
        {
          "internalType": "uint256",
          "name": "liquidity",
          "type": "uint256"
        }
      ],
      "name": "getLinearAdjustedOdds",
      "outputs": [
        {
          "internalType": "uint256",
          "name": "",
          "type": "uint256"
        }
      ],
      "stateMutability": "pure",
      "type": "function"
    },
    {
      "inputs": [
        {
          "internalType": "uint256[]",
          "name": "odds",
          "type": "uint256[]"
        }
      ],
      "name": "getMargin",
      "outputs": [
        {
          "internalType": "uint256",
          "name": "",
          "type": "uint256"
        }
      ],
      "stateMutability": "pure",
      "type": "function"
    },
    {
      "inputs": [
        {
          "internalType": "uint256",
          "name": "odds",
          "type": "uint256"
        },
        {
          "internalType": "uint256",
          "name": "scratchedOdds",
          "type": "uint256"
        },
        {
          "internalType": "uint256",
          "name": "targetMargin",
          "type": "uint256"
        }
      ],
      "name": "rebaseOddsWithScratch",
      "outputs": [
        {
          "internalType": "uint256",
          "name": "",
          "type": "uint256"
        }
      ],
      "stateMutability": "pure",
      "type": "function"
    },
    {
      "inputs": [
        {
          "internalType": "uint256",
          "name": "odds",
          "type": "uint256"
        },
        {
          "internalType": "uint256",
          "name": "margin",
          "type": "uint256"
        }
      ],
      "name": "removeMargin",
      "outputs": [
        {
          "internalType": "uint256",
          "name": "",
          "type": "uint256"
        }
      ],
      "stateMutability": "pure",
      "type": "function"
    }
  ],
  "transactionHash": "0xef65395bdeede933539570496f88090718bce3393fd7e4791dacdad02eb40ccf",
  "args": [],
  "numDeployments": 1,
  "solcInputHash": "ed5032941ea139426309977127f188cb",
  "bytecode": "0x6108bb61003a600b82828239805160001a60731461002d57634e487b7160e01b600052600060045260246000fd5b30600052607381538281f3fe73000000000000000000000000000000000000000030146080604052600436106100925760003560e01c8063a2bc05c911610065578063a2bc05c9146100f5578063aaf5eb6814610108578063d41194b814610112578063f0d3bbca1461012557600080fd5b80634b8f4381146100975780636a747622146100bc5780639c90641f146100cf578063a19dec43146100e2575b600080fd5b6100aa6100a53660046106cb565b610138565b60405190815260200160405180910390f35b6100aa6100ca3660046106ed565b610159565b6100aa6100dd366004610762565b6101e3565b6100aa6100f0366004610762565b6102cb565b6100aa610103366004610762565b610364565b6100aa620f424081565b6100aa6101203660046106cb565b610381565b6100aa610133366004610762565b6103a0565b6000620f424061014883856107a4565b61015291906107d9565b9392505050565b60008082815b818110156101d957858582818110610179576101796107fb565b90506020020135600003156101c75785858281811061019a5761019a6107fb565b90506020020135620f4240806101b091906107a4565b6101ba91906107d9565b6101c49084610811565b92505b806101d181610829565b91505061015f565b5090949350505050565b60006101f3620f424060016107a4565b83101561020257610202610842565b6103e86000620f424061021586886107a4565b61021f91906107d9565b90506000610268610234620f424060016107a4565b86610242620f4240866107a4565b61024d9060026107a4565b61025791906107d9565b6102619190610811565b60016103e0565b61027284876107a4565b61027c91906107d9565b6102868887610811565b6102909190610858565b90506102c06102a3620f424060016107a4565b886102b1620f4240856107a4565b6102bb91906107d9565b610429565b979650505050505050565b60006102db620f424060016107a4565b8310156102ea576102ea610842565b6000620f42406102fa86866107a4565b61030491906107d9565b9050600061031e85836103178988610811565b600061043f565b90508481111561033f57610336620f424060016107a4565b92505050610152565b61035a610350620f424060016107a4565b6102bb8388610858565b9695505050505050565b60006103796103738585610138565b83610381565b949350505050565b600080821161039257610392610842565b81610148620f4240856107a4565b60008084116103b1576103b1610842565b60006103c084620f42406107d9565b6103ca9084610858565b90506103d7858285610364565b95945050505050565b6000806103ec84610490565b905060018360028111156104025761040261086f565b148015610410575083818202105b61041b57600061041e565b60015b60ff16019392505050565b60008183116104385781610152565b5090919050565b60008061044d868686610578565b905060018360028111156104635761046361086f565b14801561048057506000848061047b5761047b6107c3565b868809115b156103d75761035a600182610811565b6000816000036104a257506000919050565b600060016104af84610627565b901c6001901b905060018184816104c8576104c86107c3565b048201901c905060018184816104e0576104e06107c3565b048201901c905060018184816104f8576104f86107c3565b048201901c90506001818481610510576105106107c3565b048201901c90506001818481610528576105286107c3565b048201901c90506001818481610540576105406107c3565b048201901c90506001818481610558576105586107c3565b048201901c905061015281828581610572576105726107c3565b046106bc565b60008080600019858709858702925082811083820303915050806000036105b2578382816105a8576105a86107c3565b0492505050610152565b8084116105be57600080fd5b60008486880960026001871981018816978890046003810283188082028403028082028403028082028403028082028403028082028403029081029092039091026000889003889004909101858311909403939093029303949094049190911702949350505050565b600080608083901c1561063c57608092831c92015b604083901c1561064e57604092831c92015b602083901c1561066057602092831c92015b601083901c1561067257601092831c92015b600883901c1561068457600892831c92015b600483901c1561069657600492831c92015b600283901c156106a857600292831c92015b600183901c156106b6576001015b92915050565b60008183106104385781610152565b600080604083850312156106de57600080fd5b50508035926020909101359150565b6000806020838503121561070057600080fd5b823567ffffffffffffffff8082111561071857600080fd5b818501915085601f83011261072c57600080fd5b81358181111561073b57600080fd5b8660208260051b850101111561075057600080fd5b60209290920196919550909350505050565b60008060006060848603121561077757600080fd5b505081359360208301359350604090920135919050565b634e487b7160e01b600052601160045260246000fd5b60008160001904831182151516156107be576107be61078e565b500290565b634e487b7160e01b600052601260045260246000fd5b6000826107f657634e487b7160e01b600052601260045260246000fd5b500490565b634e487b7160e01b600052603260045260246000fd5b600082198211156108245761082461078e565b500190565b60006001820161083b5761083b61078e565b5060010190565b634e487b7160e01b600052600160045260246000fd5b60008282101561086a5761086a61078e565b500390565b634e487b7160e01b600052602160045260246000fdfea26469706673582212209fc692859b762cd6899343de62d48268172128b09ab19c25267cb7aa10745ceb64736f6c634300080f0033",
  "devdoc": {
    "kind": "dev",
    "methods": {},
    "version": 1
  },
  "userdoc": {
    "kind": "user",
    "methods": {},
    "version": 1
  },
  "storageLayout": {
    "storage": [],
    "types": null
  }
}