{
  "address": "0x6e1312e283D4152d42006dc8Eaf11A433D739fB0",
  "abi": [
    {
      "inputs": [
        {
          "internalType": "contract IERC20Metadata",
          "name": "token",
          "type": "address"
        }
      ],
      "stateMutability": "nonpayable",
      "type": "constructor"
    },
    {
      "anonymous": false,
      "inputs": [
        {
          "indexed": true,
          "internalType": "address",
          "name": "market",
          "type": "address"
        }
      ],
      "name": "MarketAdded",
      "type": "event"
    },
    {
      "anonymous": false,
      "inputs": [
        {
          "indexed": true,
          "internalType": "address",
          "name": "market",
          "type": "address"
        }
      ],
      "name": "MarketRemoved",
      "type": "event"
    },
    {
      "anonymous": false,
      "inputs": [
        {
          "indexed": false,
          "internalType": "uint256",
          "name": "threshold",
          "type": "uint256"
        }
      ],
      "name": "ThresholdUpdated",
      "type": "event"
    },
    {
      "anonymous": false,
      "inputs": [
        {
          "indexed": true,
          "internalType": "address",
          "name": "vault",
          "type": "address"
        }
      ],
      "name": "VaultAdded",
      "type": "event"
    },
    {
      "anonymous": false,
      "inputs": [
        {
          "indexed": true,
          "internalType": "address",
          "name": "vault",
          "type": "address"
        }
      ],
      "name": "VaultRemoved",
      "type": "event"
    },
    {
      "inputs": [
        {
          "internalType": "address",
          "name": "market",
          "type": "address"
        }
      ],
      "name": "addMarket",
      "outputs": [],
      "stateMutability": "nonpayable",
      "type": "function"
    },
    {
      "inputs": [
        {
          "internalType": "address",
          "name": "vault",
          "type": "address"
        }
      ],
      "name": "addVault",
      "outputs": [],
      "stateMutability": "nonpayable",
      "type": "function"
    },
    {
      "inputs": [],
      "name": "getOwner",
      "outputs": [
        {
          "internalType": "address",
          "name": "",
          "type": "address"
        }
      ],
      "stateMutability": "view",
      "type": "function"
    },
    {
      "inputs": [],
      "name": "marketCount",
      "outputs": [
        {
          "internalType": "uint256",
          "name": "",
          "type": "uint256"
        }
      ],
      "stateMutability": "view",
      "type": "function"
    },
    {
      "inputs": [
        {
          "internalType": "uint256",
          "name": "",
          "type": "uint256"
        }
      ],
      "name": "markets",
      "outputs": [
        {
          "internalType": "address",
          "name": "",
          "type": "address"
        }
      ],
      "stateMutability": "view",
      "type": "function"
    },
    {
      "inputs": [
        {
          "internalType": "uint256",
          "name": "index",
          "type": "uint256"
        },
        {
          "internalType": "address",
          "name": "market",
          "type": "address"
        }
      ],
      "name": "removeMarket",
      "outputs": [],
      "stateMutability": "nonpayable",
      "type": "function"
    },
    {
      "inputs": [
        {
          "internalType": "uint256",
          "name": "index",
          "type": "uint256"
        },
        {
          "internalType": "address",
          "name": "vault",
          "type": "address"
        }
      ],
      "name": "removeVault",
      "outputs": [],
      "stateMutability": "nonpayable",
      "type": "function"
    },
    {
      "inputs": [
        {
          "internalType": "uint256",
          "name": "threshold",
          "type": "uint256"
        }
      ],
      "name": "setThreshold",
      "outputs": [],
      "stateMutability": "nonpayable",
      "type": "function"
    },
    {
      "inputs": [],
      "name": "vaultCount",
      "outputs": [
        {
          "internalType": "uint256",
          "name": "",
          "type": "uint256"
        }
      ],
      "stateMutability": "view",
      "type": "function"
    },
    {
      "inputs": [
        {
          "internalType": "uint256",
          "name": "",
          "type": "uint256"
        }
      ],
      "name": "vaults",
      "outputs": [
        {
          "internalType": "address",
          "name": "",
          "type": "address"
        }
      ],
      "stateMutability": "view",
      "type": "function"
    }
  ],
  "transactionHash": "0x5541263d563678442ee5a274645339c79cf78e8aa8a5d8a8d7f69a16a4c1a5ab",
  "args": [
    "0xb8ff864683c2Bc75558B3F38257Cd05eE1CDB8F7"
  ],
  "numDeployments": 1,
  "solcInputHash": "26c58bc246e4a3099374f639aec56779",
  "bytecode": "0x60c060405234801561001057600080fd5b50604051610d66380380610d6683398101604081905261002f91610044565b336080526001600160a01b031660a052610074565b60006020828403121561005657600080fd5b81516001600160a01b038116811461006d57600080fd5b9392505050565b60805160a051610cc06100a6600039600081816101a7015261061901526000818160cd015261079f0152610cc06000f3fe608060405234801561001057600080fd5b506004361061009e5760003560e01c8063960bfe0411610066578063960bfe0414610130578063a3c14dff14610143578063a7c6a10014610156578063b1283e7714610168578063ec9790821461017b57600080fd5b8063256b5a02146100a35780632dad2999146100b8578063893d20e8146100cb5780638c64ea4a1461010a57806393e306331461011d575b600080fd5b6100b66100b1366004610af3565b610183565b005b6100b66100c6366004610b17565b6103c9565b7f00000000000000000000000000000000000000000000000000000000000000005b6040516001600160a01b0390911681526020015b60405180910390f35b6100ed610118366004610b47565b6105cb565b6100b661012b366004610af3565b6105f5565b6100b661013e366004610b47565b610794565b6100b6610151366004610b17565b6108b8565b6001545b604051908152602001610101565b6100ed610176366004610b47565b610acb565b60005461015a565b600480546040516370a0823160e01b81523392810192909252906001600160a01b037f000000000000000000000000000000000000000000000000000000000000000016906370a0823190602401602060405180830381865afa1580156101ee573d6000803e3d6000fd5b505050506040513d601f19601f820116820180604052508101906102129190610b60565b10156102395760405162461bcd60e51b815260040161023090610b79565b60405180910390fd5b6001600160a01b03811661024f5761024f610bcd565b6000816001600160a01b03166338d52e0f6040518163ffffffff1660e01b8152600401602060405180830381865afa15801561028f573d6000803e3d6000fd5b505050506040513d601f19601f820116820180604052508101906102b39190610be3565b6001600160a01b03808216600090815260026020526040902054919250161561033a5760405162461bcd60e51b815260206004820152603360248201527f6164645661756c743a205661756c7420776974682074686973206173736574206044820152721d1bdad95b88185b1c9958591e481859191959606a1b6064820152608401610230565b600180548082019091557fb10e2d527612073b26eecdfd717e6a320cf44b4afac2b0732d9fcbe2b7fa0cf60180546001600160a01b038085166001600160a01b0319928316811790935583166000908152600260205260408082208054909316841790925590517f7b7ef7a864d96a85497a1ed846adb39940dd6ccef678ff6ac8d55505e09b8cc49190a25050565b80336001600160a01b0316816001600160a01b031663893d20e86040518163ffffffff1660e01b8152600401602060405180830381865afa158015610412573d6000803e3d6000fd5b505050506040513d601f19601f820116820180604052508101906104369190610be3565b6001600160a01b0316146104a25760405162461bcd60e51b815260206004820152602d60248201527f6f6e6c795661756c744f776e65723a2043616c6c6572206973206e6f7420746860448201526c32903b30bab63a1037bbb732b960991b6064820152608401610230565b6001548310156105c657825b600180546104bc9190610c16565b8110156105465760016104cf8282610c2d565b815481106104df576104df610c45565b600091825260209091200154600180546001600160a01b03909216918390811061050b5761050b610c45565b600091825260209091200180546001600160a01b0319166001600160a01b03929092169190911790558061053e81610c5b565b9150506104ae565b50600180548061055857610558610c74565b60008281526020808220830160001990810180546001600160a01b031990811690915593019093556001600160a01b03851680825260029093526040808220805490931690925590517fe71f3a50e5ad81964f352c411f1d45e35438ecd1acecef59ac81d9fbbf6cbc0a9190a25b505050565b600181815481106105db57600080fd5b6000918252602090912001546001600160a01b0316905081565b600480546040516370a0823160e01b81523392810192909252906001600160a01b037f000000000000000000000000000000000000000000000000000000000000000016906370a0823190602401602060405180830381865afa158015610660573d6000803e3d6000fd5b505050506040513d601f19601f820116820180604052508101906106849190610b60565b10156106a25760405162461bcd60e51b815260040161023090610b79565b6001600160a01b03818116600090815260036020526040902054161561070a5760405162461bcd60e51b815260206004820152601f60248201527f6164644d61726b65743a204d61726b657420616c7265616479206164646564006044820152606401610230565b6001600160a01b03811660008181526003602052604080822080546001600160a01b0319908116851790915582546001810184558380527f290decd9548b62a8d60345a988386fc84ba6bc95484008f6362f93160ef3e56301805490911684179055517fbc600b1f03d316c479b49930c28e328809316458d5b5dacbb7419df5f6f896479190a250565b336001600160a01b037f000000000000000000000000000000000000000000000000000000000000000016146108205760405162461bcd60e51b815260206004820152602b60248201527f6f6e6c794f776e65723a2043616c6c6572206973206e6f742074686520636f6e60448201526a3a3930b1ba1037bbb732b960a91b6064820152608401610230565b600454810361087d5760405162461bcd60e51b815260206004820152602360248201527f7365745468726573686f6c643a205468726573686f6c6420616c7265616479206044820152621cd95d60ea1b6064820152608401610230565b60048190556040518181527fadfa8ecb21b6962ebcd0adbd9ab985b7b4c5b5eb3b0dead683171565c7bfe1719060200160405180910390a150565b6001600160a01b03808216600090815260036020908152604091829020548251631127a41d60e31b815292518594339492169263893d20e892600480820193918290030181865afa158015610911573d6000803e3d6000fd5b505050506040513d601f19601f820116820180604052508101906109359190610be3565b6001600160a01b0316146109a35760405162461bcd60e51b815260206004820152602f60248201527f6f6e6c794d61726b65744f776e65723a2043616c6c6572206973206e6f74207460448201526e34329036b0b935b2ba1037bbb732b960891b6064820152608401610230565b6000548310156105c657825b6000546109be90600190610c16565b811015610a475760006109d2826001610c2d565b815481106109e2576109e2610c45565b600091825260208220015481546001600160a01b03909116919083908110610a0c57610a0c610c45565b600091825260209091200180546001600160a01b0319166001600160a01b039290921691909117905580610a3f81610c5b565b9150506109af565b506000805480610a5957610a59610c74565b60008281526020808220830160001990810180546001600160a01b031990811690915593019093556001600160a01b03851680825260039093526040808220805490931690925590517f59d7b1e52008dc342c9421dadfc773114b914a65682a4e4b53cf60a970df0d779190a2505050565b600081815481106105db57600080fd5b6001600160a01b0381168114610af057600080fd5b50565b600060208284031215610b0557600080fd5b8135610b1081610adb565b9392505050565b60008060408385031215610b2a57600080fd5b823591506020830135610b3c81610adb565b809150509250929050565b600060208284031215610b5957600080fd5b5035919050565b600060208284031215610b7257600080fd5b5051919050565b60208082526034908201527f6f6e6c79546f6b656e486f6c646572733a2043616c6c657220646f6573206e6f6040820152737420686f6c6420656e6f75676820746f6b656e7360601b606082015260800190565b634e487b7160e01b600052600160045260246000fd5b600060208284031215610bf557600080fd5b8151610b1081610adb565b634e487b7160e01b600052601160045260246000fd5b600082821015610c2857610c28610c00565b500390565b60008219821115610c4057610c40610c00565b500190565b634e487b7160e01b600052603260045260246000fd5b600060018201610c6d57610c6d610c00565b5060010190565b634e487b7160e01b600052603160045260246000fdfea2646970667358221220f8ce9593b3d1d8609525093a1811fb262ca1b7f24cdd592ff2fc8d944736825c64736f6c634300080f0033",
  "devdoc": {
    "kind": "dev",
    "methods": {},
    "version": 1
  },
  "userdoc": {
    "kind": "user",
    "methods": {},
    "version": 1
  },
  "storageLayout": {
    "storage": [
      {
        "astId": 15180,
        "contract": "contracts/Registry.sol:Registry",
        "label": "markets",
        "offset": 0,
        "slot": "0",
        "type": "t_array(t_address)dyn_storage"
      },
      {
        "astId": 15183,
        "contract": "contracts/Registry.sol:Registry",
        "label": "vaults",
        "offset": 0,
        "slot": "1",
        "type": "t_array(t_address)dyn_storage"
      },
      {
        "astId": 15187,
        "contract": "contracts/Registry.sol:Registry",
        "label": "_vaultByAsset",
        "offset": 0,
        "slot": "2",
        "type": "t_mapping(t_address,t_address)"
      },
      {
        "astId": 15191,
        "contract": "contracts/Registry.sol:Registry",
        "label": "_markets",
        "offset": 0,
        "slot": "3",
        "type": "t_mapping(t_address,t_address)"
      },
      {
        "astId": 15198,
        "contract": "contracts/Registry.sol:Registry",
        "label": "_threshold",
        "offset": 0,
        "slot": "4",
        "type": "t_uint256"
      }
    ],
    "types": {
      "t_address": {
        "encoding": "inplace",
        "label": "address",
        "numberOfBytes": "20"
      },
      "t_array(t_address)dyn_storage": {
        "base": "t_address",
        "encoding": "dynamic_array",
        "label": "address[]",
        "numberOfBytes": "32"
      },
      "t_mapping(t_address,t_address)": {
        "encoding": "mapping",
        "key": "t_address",
        "label": "mapping(address => address)",
        "numberOfBytes": "32",
        "value": "t_address"
      },
      "t_uint256": {
        "encoding": "inplace",
        "label": "uint256",
        "numberOfBytes": "32"
      }
    }
  }
}