{
  "address": "0x7C1B4Dcd4Bb9F2B32B84fA81Cef21218dC7c775b",
  "abi": [
    {
      "inputs": [
        {
          "internalType": "contract IVault",
          "name": "vault",
          "type": "address"
        },
        {
          "internalType": "uint8",
          "name": "fee",
          "type": "uint8"
        },
        {
          "internalType": "uint8",
          "name": "timeoutDays",
          "type": "uint8"
        },
        {
          "internalType": "address",
          "name": "oracle",
          "type": "address"
        }
      ],
      "stateMutability": "nonpayable",
      "type": "constructor"
    },
    {
      "anonymous": false,
      "inputs": [
        {
          "indexed": true,
          "internalType": "address",
          "name": "owner",
          "type": "address"
        },
        {
          "indexed": true,
          "internalType": "address",
          "name": "approved",
          "type": "address"
        },
        {
          "indexed": true,
          "internalType": "uint256",
          "name": "tokenId",
          "type": "uint256"
        }
      ],
      "name": "Approval",
      "type": "event"
    },
    {
      "anonymous": false,
      "inputs": [
        {
          "indexed": true,
          "internalType": "address",
          "name": "owner",
          "type": "address"
        },
        {
          "indexed": true,
          "internalType": "address",
          "name": "operator",
          "type": "address"
        },
        {
          "indexed": false,
          "internalType": "bool",
          "name": "approved",
          "type": "bool"
        }
      ],
      "name": "ApprovalForAll",
      "type": "event"
    },
    {
      "anonymous": false,
      "inputs": [
        {
          "indexed": false,
          "internalType": "uint256",
          "name": "index",
          "type": "uint256"
        },
        {
          "indexed": false,
          "internalType": "uint256",
          "name": "amount",
          "type": "uint256"
        }
      ],
      "name": "Borrowed",
      "type": "event"
    },
    {
      "anonymous": false,
      "inputs": [
        {
          "indexed": true,
          "internalType": "address",
          "name": "previousOwner",
          "type": "address"
        },
        {
          "indexed": true,
          "internalType": "address",
          "name": "newOwner",
          "type": "address"
        }
      ],
      "name": "OwnershipTransferred",
      "type": "event"
    },
    {
      "anonymous": false,
      "inputs": [
        {
          "indexed": false,
          "internalType": "uint256",
          "name": "index",
          "type": "uint256"
        },
        {
          "indexed": false,
          "internalType": "bytes16",
          "name": "propositionId",
          "type": "bytes16"
        },
        {
          "indexed": false,
          "internalType": "bytes16",
          "name": "marketId",
          "type": "bytes16"
        },
        {
          "indexed": false,
          "internalType": "uint256",
          "name": "amount",
          "type": "uint256"
        },
        {
          "indexed": false,
          "internalType": "uint256",
          "name": "payout",
          "type": "uint256"
        },
        {
          "indexed": true,
          "internalType": "address",
          "name": "owner",
          "type": "address"
        }
      ],
      "name": "Placed",
      "type": "event"
    },
    {
      "anonymous": false,
      "inputs": [
        {
          "indexed": true,
          "internalType": "address",
          "name": "vault",
          "type": "address"
        },
        {
          "indexed": false,
          "internalType": "uint256",
          "name": "amount",
          "type": "uint256"
        }
      ],
      "name": "Repaid",
      "type": "event"
    },
    {
      "anonymous": false,
      "inputs": [
        {
          "indexed": false,
          "internalType": "uint256",
          "name": "index",
          "type": "uint256"
        },
        {
          "indexed": false,
          "internalType": "uint256",
          "name": "payout",
          "type": "uint256"
        },
        {
          "indexed": false,
          "internalType": "uint8",
          "name": "result",
          "type": "uint8"
        },
        {
          "indexed": true,
          "internalType": "address",
          "name": "recipient",
          "type": "address"
        }
      ],
      "name": "Settled",
      "type": "event"
    },
    {
      "anonymous": false,
      "inputs": [
        {
          "indexed": true,
          "internalType": "address",
          "name": "from",
          "type": "address"
        },
        {
          "indexed": true,
          "internalType": "address",
          "name": "to",
          "type": "address"
        },
        {
          "indexed": true,
          "internalType": "uint256",
          "name": "tokenId",
          "type": "uint256"
        }
      ],
      "name": "Transfer",
      "type": "event"
    },
    {
      "inputs": [
        {
          "internalType": "address",
          "name": "to",
          "type": "address"
        },
        {
          "internalType": "uint256",
          "name": "tokenId",
          "type": "uint256"
        }
      ],
      "name": "approve",
      "outputs": [],
      "stateMutability": "nonpayable",
      "type": "function"
    },
    {
      "inputs": [
        {
          "components": [
            {
              "internalType": "bytes16",
              "name": "nonce",
              "type": "bytes16"
            },
            {
              "internalType": "bytes16",
              "name": "propositionId",
              "type": "bytes16"
            },
            {
              "internalType": "bytes16",
              "name": "marketId",
              "type": "bytes16"
            },
            {
              "internalType": "uint256",
              "name": "wager",
              "type": "uint256"
            },
            {
              "internalType": "uint256",
              "name": "odds",
              "type": "uint256"
            },
            {
              "internalType": "uint256",
              "name": "close",
              "type": "uint256"
            },
            {
              "internalType": "uint256",
              "name": "end",
              "type": "uint256"
            },
            {
              "components": [
                {
                  "internalType": "uint8",
                  "name": "v",
                  "type": "uint8"
                },
                {
                  "internalType": "bytes32",
                  "name": "r",
                  "type": "bytes32"
                },
                {
                  "internalType": "bytes32",
                  "name": "s",
                  "type": "bytes32"
                }
              ],
              "internalType": "struct SignatureLib.Signature",
              "name": "signature",
              "type": "tuple"
            }
          ],
          "internalType": "struct IMarket.Back",
          "name": "backData",
          "type": "tuple"
        }
      ],
      "name": "back",
      "outputs": [
        {
          "internalType": "uint256",
          "name": "",
          "type": "uint256"
        }
      ],
      "stateMutability": "nonpayable",
      "type": "function"
    },
    {
      "inputs": [
        {
          "internalType": "address",
          "name": "owner",
          "type": "address"
        }
      ],
      "name": "balanceOf",
      "outputs": [
        {
          "internalType": "uint256",
          "name": "",
          "type": "uint256"
        }
      ],
      "stateMutability": "view",
      "type": "function"
    },
    {
      "inputs": [],
      "name": "baseURI",
      "outputs": [
        {
          "internalType": "string",
          "name": "",
          "type": "string"
        }
      ],
      "stateMutability": "view",
      "type": "function"
    },
    {
      "inputs": [
        {
          "internalType": "uint256",
          "name": "tokenId",
          "type": "uint256"
        }
      ],
      "name": "getApproved",
      "outputs": [
        {
          "internalType": "address",
          "name": "",
          "type": "address"
        }
      ],
      "stateMutability": "view",
      "type": "function"
    },
    {
      "inputs": [
        {
          "internalType": "uint64",
          "name": "index",
          "type": "uint64"
        }
      ],
      "name": "getBetByIndex",
      "outputs": [
        {
          "internalType": "uint256",
          "name": "",
          "type": "uint256"
        },
        {
          "internalType": "uint256",
          "name": "",
          "type": "uint256"
        },
        {
          "internalType": "uint256",
          "name": "",
          "type": "uint256"
        },
        {
          "internalType": "uint256",
          "name": "",
          "type": "uint256"
        },
        {
          "internalType": "bool",
          "name": "",
          "type": "bool"
        },
        {
          "internalType": "bytes16",
          "name": "",
          "type": "bytes16"
        },
        {
          "internalType": "bytes16",
          "name": "",
          "type": "bytes16"
        }
      ],
      "stateMutability": "view",
      "type": "function"
    },
    {
      "inputs": [],
      "name": "getCount",
      "outputs": [
        {
          "internalType": "uint64",
          "name": "",
          "type": "uint64"
        }
      ],
      "stateMutability": "view",
      "type": "function"
    },
    {
      "inputs": [
        {
          "internalType": "uint64",
          "name": "index",
          "type": "uint64"
        }
      ],
      "name": "getExpiry",
      "outputs": [
        {
          "internalType": "uint256",
          "name": "",
          "type": "uint256"
        }
      ],
      "stateMutability": "view",
      "type": "function"
    },
    {
      "inputs": [],
      "name": "getInPlayCount",
      "outputs": [
        {
          "internalType": "uint256",
          "name": "",
          "type": "uint256"
        }
      ],
      "stateMutability": "view",
      "type": "function"
    },
    {
      "inputs": [],
      "name": "getMargin",
      "outputs": [
        {
          "internalType": "uint8",
          "name": "",
          "type": "uint8"
        }
      ],
      "stateMutability": "view",
      "type": "function"
    },
    {
      "inputs": [
        {
          "internalType": "bytes16",
          "name": "marketId",
          "type": "bytes16"
        }
      ],
      "name": "getMarketCollateral",
      "outputs": [
        {
          "internalType": "uint256",
          "name": "",
          "type": "uint256"
        }
      ],
      "stateMutability": "view",
      "type": "function"
    },
    {
      "inputs": [
        {
          "internalType": "bytes16",
          "name": "marketId",
          "type": "bytes16"
        }
      ],
      "name": "getMarketTotal",
      "outputs": [
        {
          "internalType": "uint256",
          "name": "",
          "type": "uint256"
        }
      ],
      "stateMutability": "view",
      "type": "function"
    },
    {
      "inputs": [
        {
          "internalType": "uint256",
          "name": "wager",
          "type": "uint256"
        },
        {
          "internalType": "uint256",
          "name": "odds",
          "type": "uint256"
        },
        {
          "internalType": "bytes16",
          "name": "propositionId",
          "type": "bytes16"
        },
        {
          "internalType": "bytes16",
          "name": "marketId",
          "type": "bytes16"
        }
      ],
      "name": "getOdds",
      "outputs": [
        {
          "internalType": "uint256",
          "name": "",
          "type": "uint256"
        }
      ],
      "stateMutability": "view",
      "type": "function"
    },
    {
      "inputs": [],
      "name": "getOracleAddress",
      "outputs": [
        {
          "internalType": "address",
          "name": "",
          "type": "address"
        }
      ],
      "stateMutability": "view",
      "type": "function"
    },
    {
      "inputs": [],
      "name": "getOwner",
      "outputs": [
        {
          "internalType": "address",
          "name": "",
          "type": "address"
        }
      ],
      "stateMutability": "view",
      "type": "function"
    },
    {
      "inputs": [
        {
          "internalType": "bytes16",
          "name": "propositionId",
          "type": "bytes16"
        },
        {
          "internalType": "bytes16",
          "name": "marketId",
          "type": "bytes16"
        },
        {
          "internalType": "uint256",
          "name": "wager",
          "type": "uint256"
        },
        {
          "internalType": "uint256",
          "name": "odds",
          "type": "uint256"
        }
      ],
      "name": "getPotentialPayout",
      "outputs": [
        {
          "internalType": "uint256",
          "name": "",
          "type": "uint256"
        }
      ],
      "stateMutability": "view",
      "type": "function"
    },
    {
      "inputs": [],
      "name": "getTotalCollateral",
      "outputs": [
        {
          "internalType": "uint256",
          "name": "",
          "type": "uint256"
        }
      ],
      "stateMutability": "view",
      "type": "function"
    },
    {
      "inputs": [],
      "name": "getTotalExposure",
      "outputs": [
        {
          "internalType": "uint256",
          "name": "",
          "type": "uint256"
        }
      ],
      "stateMutability": "view",
      "type": "function"
    },
    {
      "inputs": [],
      "name": "getTotalInPlay",
      "outputs": [
        {
          "internalType": "uint256",
          "name": "",
          "type": "uint256"
        }
      ],
      "stateMutability": "view",
      "type": "function"
    },
    {
      "inputs": [],
      "name": "getVaultAddress",
      "outputs": [
        {
          "internalType": "address",
          "name": "",
          "type": "address"
        }
      ],
      "stateMutability": "view",
      "type": "function"
    },
    {
      "inputs": [
        {
          "internalType": "address",
          "name": "signer",
          "type": "address"
        }
      ],
      "name": "grantSigner",
      "outputs": [],
      "stateMutability": "nonpayable",
      "type": "function"
    },
    {
      "inputs": [
        {
          "internalType": "address",
          "name": "owner",
          "type": "address"
        },
        {
          "internalType": "address",
          "name": "operator",
          "type": "address"
        }
      ],
      "name": "isApprovedForAll",
      "outputs": [
        {
          "internalType": "bool",
          "name": "",
          "type": "bool"
        }
      ],
      "stateMutability": "view",
      "type": "function"
    },
    {
      "inputs": [
        {
          "internalType": "address",
          "name": "signer",
          "type": "address"
        }
      ],
      "name": "isSigner",
      "outputs": [
        {
          "internalType": "bool",
          "name": "",
          "type": "bool"
        }
      ],
      "stateMutability": "view",
      "type": "function"
    },
    {
      "inputs": [
        {
          "components": [
            {
              "internalType": "bytes16",
              "name": "nonce",
              "type": "bytes16"
            },
            {
              "internalType": "bytes16",
              "name": "propositionId",
              "type": "bytes16"
            },
            {
              "internalType": "bytes16",
              "name": "marketId",
              "type": "bytes16"
            },
            {
              "internalType": "uint256",
              "name": "wager",
              "type": "uint256"
            },
            {
              "internalType": "uint256",
              "name": "odds",
              "type": "uint256"
            },
            {
              "internalType": "uint256",
              "name": "close",
              "type": "uint256"
            },
            {
              "internalType": "uint256",
              "name": "end",
              "type": "uint256"
            },
            {
              "components": [
                {
                  "internalType": "uint8",
                  "name": "v",
                  "type": "uint8"
                },
                {
                  "internalType": "bytes32",
                  "name": "r",
                  "type": "bytes32"
                },
                {
                  "internalType": "bytes32",
                  "name": "s",
                  "type": "bytes32"
                }
              ],
              "internalType": "struct SignatureLib.Signature",
              "name": "signature",
              "type": "tuple"
            }
          ],
          "internalType": "struct IMarket.Back[]",
          "name": "backArray",
          "type": "tuple[]"
        }
      ],
      "name": "multiBack",
      "outputs": [
        {
          "internalType": "uint256[]",
          "name": "",
          "type": "uint256[]"
        }
      ],
      "stateMutability": "nonpayable",
      "type": "function"
    },
    {
      "inputs": [],
      "name": "name",
      "outputs": [
        {
          "internalType": "string",
          "name": "",
          "type": "string"
        }
      ],
      "stateMutability": "view",
      "type": "function"
    },
    {
      "inputs": [],
      "name": "owner",
      "outputs": [
        {
          "internalType": "address",
          "name": "",
          "type": "address"
        }
      ],
      "stateMutability": "view",
      "type": "function"
    },
    {
      "inputs": [
        {
          "internalType": "uint256",
          "name": "tokenId",
          "type": "uint256"
        }
      ],
      "name": "ownerOf",
      "outputs": [
        {
          "internalType": "address",
          "name": "",
          "type": "address"
        }
      ],
      "stateMutability": "view",
      "type": "function"
    },
    {
      "inputs": [],
      "name": "refundCollateral",
      "outputs": [],
      "stateMutability": "nonpayable",
      "type": "function"
    },
    {
      "inputs": [],
      "name": "renounceOwnership",
      "outputs": [],
      "stateMutability": "nonpayable",
      "type": "function"
    },
    {
      "inputs": [
        {
          "internalType": "address",
          "name": "signer",
          "type": "address"
        }
      ],
      "name": "revokeSigner",
      "outputs": [],
      "stateMutability": "nonpayable",
      "type": "function"
    },
    {
      "inputs": [
        {
          "internalType": "address",
          "name": "from",
          "type": "address"
        },
        {
          "internalType": "address",
          "name": "to",
          "type": "address"
        },
        {
          "internalType": "uint256",
          "name": "tokenId",
          "type": "uint256"
        }
      ],
      "name": "safeTransferFrom",
      "outputs": [],
      "stateMutability": "nonpayable",
      "type": "function"
    },
    {
      "inputs": [
        {
          "internalType": "address",
          "name": "from",
          "type": "address"
        },
        {
          "internalType": "address",
          "name": "to",
          "type": "address"
        },
        {
          "internalType": "uint256",
          "name": "tokenId",
          "type": "uint256"
        },
        {
          "internalType": "bytes",
          "name": "data",
          "type": "bytes"
        }
      ],
      "name": "safeTransferFrom",
      "outputs": [],
      "stateMutability": "nonpayable",
      "type": "function"
    },
    {
      "inputs": [
        {
          "internalType": "address",
          "name": "operator",
          "type": "address"
        },
        {
          "internalType": "bool",
          "name": "approved",
          "type": "bool"
        }
      ],
      "name": "setApprovalForAll",
      "outputs": [],
      "stateMutability": "nonpayable",
      "type": "function"
    },
    {
      "inputs": [
        {
          "internalType": "uint64",
          "name": "index",
          "type": "uint64"
        }
      ],
      "name": "settle",
      "outputs": [],
      "stateMutability": "nonpayable",
      "type": "function"
    },
    {
      "inputs": [
        {
          "internalType": "bytes16",
          "name": "marketId",
          "type": "bytes16"
        }
      ],
      "name": "settleMarket",
      "outputs": [],
      "stateMutability": "nonpayable",
      "type": "function"
    },
    {
      "inputs": [
        {
          "internalType": "bytes4",
          "name": "interfaceId",
          "type": "bytes4"
        }
      ],
      "name": "supportsInterface",
      "outputs": [
        {
          "internalType": "bool",
          "name": "",
          "type": "bool"
        }
      ],
      "stateMutability": "view",
      "type": "function"
    },
    {
      "inputs": [],
      "name": "symbol",
      "outputs": [
        {
          "internalType": "string",
          "name": "",
          "type": "string"
        }
      ],
      "stateMutability": "view",
      "type": "function"
    },
    {
      "inputs": [],
      "name": "timeout",
      "outputs": [
        {
          "internalType": "uint256",
          "name": "",
          "type": "uint256"
        }
      ],
      "stateMutability": "view",
      "type": "function"
    },
    {
      "inputs": [
        {
          "internalType": "uint256",
          "name": "tokenId",
          "type": "uint256"
        }
      ],
      "name": "tokenURI",
      "outputs": [
        {
          "internalType": "string",
          "name": "",
          "type": "string"
        }
      ],
      "stateMutability": "view",
      "type": "function"
    },
    {
      "inputs": [
        {
          "internalType": "address",
          "name": "from",
          "type": "address"
        },
        {
          "internalType": "address",
          "name": "to",
          "type": "address"
        },
        {
          "internalType": "uint256",
          "name": "tokenId",
          "type": "uint256"
        }
      ],
      "name": "transferFrom",
      "outputs": [],
      "stateMutability": "nonpayable",
      "type": "function"
    },
    {
      "inputs": [
        {
          "internalType": "address",
          "name": "newOwner",
          "type": "address"
        }
      ],
      "name": "transferOwnership",
      "outputs": [],
      "stateMutability": "nonpayable",
      "type": "function"
    }
  ],
  "transactionHash": "0xc87e33d5d9b6d1d29abcd6d63931347e81ac44e205f1f0b6d59624cb70b4865f",
  "args": [
    "0x8A334B3c4884A2186287844B6B69eb9aC263f737",
    0,
    1,
    "0xb400bb7Cb83D1653839CA663BFa1aDe06561940e"
  ],
  "numDeployments": 2,
  "solcInputHash": "8851ee925f2c2225a1b030954cc17b69",
  "bytecode": "0x6101206040523480156200001257600080fd5b506040516200437f3803806200437f8339810160408190526200003591620001ee565b838383836040518060400160405280601381526020017f486f727365204c696e6b2042657420536c6970000000000000000000000000008152506040518060400160405280600681526020016512130b50915560d21b815250620000a8620000a26200016a60201b60201c565b6200016e565b6001620000b68382620002f4565b506002620000c58282620002f4565b5050506001600160a01b038416620000e157620000e1620003c0565b3060c0526001600160a01b0384811660a05260ff8416608052811660e0526001600f6000620001186000546001600160a01b031690565b6001600160a01b031681526020810191909152604001600020805460ff19169115159190911790556200015260ff831662015180620003d6565b62ffffff166101005250620004109650505050505050565b3390565b600080546001600160a01b038381166001600160a01b0319831681178455604051919092169283917f8be0079c531659141344cd1fd0a4f28419497f9722a3daafe3b4186f6b6457e09190a35050565b6001600160a01b0381168114620001d457600080fd5b50565b805160ff81168114620001e957600080fd5b919050565b600080600080608085870312156200020557600080fd5b84516200021281620001be565b93506200022260208601620001d7565b92506200023260408601620001d7565b915060608501516200024481620001be565b939692955090935050565b634e487b7160e01b600052604160045260246000fd5b600181811c908216806200027a57607f821691505b6020821081036200029b57634e487b7160e01b600052602260045260246000fd5b50919050565b601f821115620002ef57600081815260208120601f850160051c81016020861015620002ca5750805b601f850160051c820191505b81811015620002eb57828155600101620002d6565b5050505b505050565b81516001600160401b038111156200031057620003106200024f565b620003288162000321845462000265565b84620002a1565b602080601f831160018114620003605760008415620003475750858301515b600019600386901b1c1916600185901b178555620002eb565b600085815260208120601f198616915b82811015620003915788860151825594840194600190910190840162000370565b5085821015620003b05787850151600019600388901b60f8161c191681555b5050505050600190811b01905550565b634e487b7160e01b600052600160045260246000fd5b600062ffffff808316818516818304811182151516156200040757634e487b7160e01b600052601160045260246000fd5b02949350505050565b60805160a05160c05160e05161010051613eba620004c560003960008181610490015261253a015260008181610573015281816118a401528181611cfb0152612ac901526000818161123a01528181611e95015261302b0152600081816103d5015281816108df0152818161096f015281816116550152818161192701528181611ddd0152818161274601528181612879015281816129ee01528181612f6c01526130030152600061032f0152613eba6000f3fe608060405234801561001057600080fd5b50600436106102535760003560e01c806370dea79a11610146578063a22cb465116100c3578063c87b56dd11610087578063c87b56dd146105bd578063c96121a8146105d0578063d6eb5910146105d8578063e4650fac146105e0578063e985e9c5146105f3578063f2fde38b1461062f57600080fd5b8063a22cb4651461053e578063a87d942c14610551578063b18b78dd14610571578063b88d4fde14610597578063c34b44a0146105aa57600080fd5b8063893d20e81161010a578063893d20e8146104f35780638ac6d217146105045780638da5cb5b146104f357806395d89b411461050c578063a166895e1461051457600080fd5b806370dea79a1461048b578063715018a6146104b25780637b5df1c9146104ba5780637df73e27146104cd57806388bc76ba146104e057600080fd5b80634b9ba446116101d457806365cacaa41161019857806365cacaa4146103d35780636b467d15146103f95780636c0360eb14610450578063702595861461045857806370a082311461047857600080fd5b80634b9ba4461461037f57806358439479146103925780636028421f1461039a5780636352211e146103ad57806363c724f7146103c057600080fd5b80632098b7ff1161021b5780632098b7ff1461030d57806323b872dd1461031557806325117b721461032857806342842e0e1461035957806346e116a61461036c57600080fd5b806301ffc9a71461025857806306fdde0314610280578063081812fc14610295578063095ea7b3146102c057806312fa3bf1146102d5575b600080fd5b61026b6102663660046134dc565b610642565b60405190151581526020015b60405180910390f35b610288610694565b6040516102779190613551565b6102a86102a3366004613564565b610726565b6040516001600160a01b039091168152602001610277565b6102d36102ce366004613592565b61074d565b005b6102ff6102e33660046135d4565b6001600160801b0319166000908152600a602052604090205490565b604051908152602001610277565b6102d3610867565b6102d36103233660046135f1565b610a10565b60405160ff7f0000000000000000000000000000000000000000000000000000000000000000168152602001610277565b6102d36103673660046135f1565b610a41565b6102ff61037a366004613632565b610a5c565b6102d361038d36600461367c565b610a75565b600d546102ff565b6102ff6103a83660046136a5565b610b6f565b6102a86103bb366004613564565b610b7d565b6102d36103ce3660046136eb565b610bdd565b7f00000000000000000000000000000000000000000000000000000000000000006102a8565b61040c61040736600461367c565b610c6b565b604080519788526020880196909652948601939093526060850191909152151560808401526001600160801b031990811660a08401521660c082015260e001610277565b610288610c96565b61046b610466366004613708565b610cb2565b604051610277919061377d565b6102ff6104863660046136eb565b610d6b565b6102ff7f000000000000000000000000000000000000000000000000000000000000000081565b6102d3610df1565b6102ff6104c83660046137c1565b610e05565b61026b6104db3660046136eb565b610f70565b6102d36104ee3660046135d4565b610f91565b6000546001600160a01b03166102a8565b600e546102ff565b610288611138565b6102ff6105223660046135d4565b6001600160801b03191660009081526010602052604090205490565b6102d361054c3660046137e8565b611147565b610559611152565b6040516001600160401b039091168152602001610277565b7f00000000000000000000000000000000000000000000000000000000000000006102a8565b6102d36105a53660046138b1565b61115d565b6102d36105b83660046136eb565b61118f565b6102886105cb366004613564565b61121a565b6007546102ff565b6011546102ff565b6102ff6105ee36600461367c565b61129a565b61026b610601366004613974565b6001600160a01b03918216600090815260066020908152604080832093909416825291909152205460ff1690565b6102d361063d3660046136eb565b6112a5565b60006001600160e01b031982166380ac58cd60e01b148061067357506001600160e01b03198216635b5e139f60e01b145b8061068e57506301ffc9a760e01b6001600160e01b03198316145b92915050565b6060600180546106a3906139a2565b80601f01602080910402602001604051908101604052809291908181526020018280546106cf906139a2565b801561071c5780601f106106f15761010080835404028352916020019161071c565b820191906000526020600020905b8154815290600101906020018083116106ff57829003601f168201915b5050505050905090565b60006107318261131b565b506000908152600560205260409020546001600160a01b031690565b600061075882610b7d565b9050806001600160a01b0316836001600160a01b0316036107ca5760405162461bcd60e51b815260206004820152602160248201527f4552433732313a20617070726f76616c20746f2063757272656e74206f776e656044820152603960f91b60648201526084015b60405180910390fd5b336001600160a01b03821614806107e657506107e68133610601565b6108585760405162461bcd60e51b815260206004820152603d60248201527f4552433732313a20617070726f76652063616c6c6572206973206e6f7420746f60448201527f6b656e206f776e6572206f7220617070726f76656420666f7220616c6c00000060648201526084016107c1565b610862838361137a565b505050565b61086f6113e8565b600e54601154116108d45760405162461bcd60e51b815260206004820152602960248201527f726566756e64436f6c6c61746572616c3a204e6f20636f6c6c61746572616c206044820152681d1bc81c99599d5b9960ba1b60648201526084016107c1565b600e546011819055507f00000000000000000000000000000000000000000000000000000000000000006001600160a01b03166338d52e0f6040518163ffffffff1660e01b8152600401602060405180830381865afa15801561093b573d6000803e3d6000fd5b505050506040513d601f19601f8201168201806040525081019061095f91906139d6565b6001600160a01b031663a9059cbb7f0000000000000000000000000000000000000000000000000000000000000000600e5460115461099e9190613a09565b6040516001600160e01b031960e085901b1681526001600160a01b03909216600483015260248201526044016020604051808303816000875af11580156109e9573d6000803e3d6000fd5b505050506040513d601f19601f82011682018060405250810190610a0d9190613a20565b50565b610a1a3382611442565b610a365760405162461bcd60e51b81526004016107c190613a3d565b6108628383836114c0565b6108628383836040518060200160405280600081525061115d565b6000610a6a85858585611631565b90505b949350505050565b60006008826001600160401b031681548110610a9357610a93613a8a565b60009182526020918290206040805160e081018252600690930290910180546001600160801b0319608082811b82168652600160801b909204821b169484019490945260018101549183019190915260028101546060830152600381015492820192909252600482015460a082015260059091015460ff1615801560c0830152909150610b625760405162461bcd60e51b815260206004820152601f60248201527f736574746c653a204265742068617320616c726561647920736574746c65640060448201526064016107c1565b610b6b82611752565b5050565b6000610a6a85858585611a7a565b6000818152600360205260408120546001600160a01b03168061068e5760405162461bcd60e51b8152602060048201526018602482015277115490cdcc8c4e881a5b9d985b1a59081d1bdad95b88125160421b60448201526064016107c1565b610be56113e8565b6001600160a01b038116610c475760405162461bcd60e51b815260206004820152602360248201527f6772616e745369676e65723a20496e76616c6964207369676e6572206164647260448201526265737360e81b60648201526084016107c1565b6001600160a01b03166000908152600f60205260409020805460ff19166001179055565b6000806000806000806000610c7f88611ab6565b959e949d50929b5090995097509550909350915050565b604051806060016040528060228152602001613e636022913981565b60606000826001600160401b03811115610cce57610cce613821565b604051908082528060200260200182016040528015610cf7578160200160208202803683370190505b50905060005b60ff8116841115610d63573685858360ff16818110610d1e57610d1e613a8a565b905061014002019050610d3081610e05565b838360ff1681518110610d4557610d45613a8a565b60209081029190910101525080610d5b81613aa0565b915050610cfd565b509392505050565b60006001600160a01b038216610dd55760405162461bcd60e51b815260206004820152602960248201527f4552433732313a2061646472657373207a65726f206973206e6f7420612076616044820152683634b21037bbb732b960b91b60648201526084016107c1565b506001600160a01b031660009081526004602052604090205490565b610df96113e8565b610e036000611b7c565b565b600080610e1560208401846135d4565b610e2560408501602086016135d4565b610e3560608601604087016135d4565b604080516001600160801b0319948516602082015292841660308401529216918101919091526080840135605082015260a0840135607082015260c0840135609082015260b001604051602081830303815290604052805190602001209050610ea1818460e001611bcc565b1515600114610ef25760405162461bcd60e51b815260206004820152601760248201527f6261636b3a20496e76616c6964207369676e617475726500000000000000000060448201526064016107c1565b6000610f26610f0760408601602087016135d4565b610f1760608701604088016135d4565b86606001358760800135611a7a565b905060008111610f3857610f38613abf565b610a6d610f4b60408601602087016135d4565b610f5b60608701604088016135d4565b86606001358760a001358860c0013586611c82565b6001600160a01b0381166000908152600f602052604081205460ff1661068e565b6001600160801b0319811660009081526009602090815260408083208054825181850281018501909352808352919290919083018282801561102457602002820191906000526020600020906000905b82829054906101000a90046001600160401b03166001600160401b031681526020019060080190602082600701049283019260010382029150808411610fe15790505b505083519394506000925050505b81816001600160401b0316101561112d57600083826001600160401b03168151811061106057611060613a8a565b6020026020010151905060006008826001600160401b03168154811061108857611088613a8a565b600091825260208083206040805160e081018252600690940290910180546001600160801b0319608082811b82168752600160801b909204821b169385019390935260018101549184019190915260028101546060840152600381015491830191909152600481015460a08301526005015460ff16151560c0820181905290925090036111185761111882611752565b5050808061112590613ad5565b915050611032565b50505050565b905090565b6060600280546106a3906139a2565b610b6b338383612201565b600061113360085490565b6111673383611442565b6111835760405162461bcd60e51b81526004016107c190613a3d565b61112d848484846122cf565b6111976113e8565b6001600160a01b0381166111f95760405162461bcd60e51b8152602060048201526024808201527f7265766f6b655369676e65723a20496e76616c6964207369676e6572206164646044820152637265737360e01b60648201526084016107c1565b6001600160a01b03166000908152600f60205260409020805460ff19169055565b6060604051806060016040528060228152602001613e63602291396112697f00000000000000000000000000000000000000000000000000000000000000006001600160a01b03166014612302565b611272846124a4565b60405160200161128493929190613afb565b6040516020818303038152906040529050919050565b600061068e82612536565b6112ad6113e8565b6001600160a01b0381166113125760405162461bcd60e51b815260206004820152602660248201527f4f776e61626c653a206e6577206f776e657220697320746865207a65726f206160448201526564647265737360d01b60648201526084016107c1565b610a0d81611b7c565b6000818152600360205260409020546001600160a01b0316610a0d5760405162461bcd60e51b8152602060048201526018602482015277115490cdcc8c4e881a5b9d985b1a59081d1bdad95b88125160421b60448201526064016107c1565b600081815260056020526040902080546001600160a01b0319166001600160a01b03841690811790915581906113af82610b7d565b6001600160a01b03167f8c5be1e5ebec7d5bd14f71427d1e84f3dd0314c0f7b2291e5b200ac8c7c3b92560405160405180910390a45050565b6000546001600160a01b03163314610e035760405162461bcd60e51b815260206004820181905260248201527f4f776e61626c653a2063616c6c6572206973206e6f7420746865206f776e657260448201526064016107c1565b60008061144e83610b7d565b9050806001600160a01b0316846001600160a01b0316148061149557506001600160a01b0380821660009081526006602090815260408083209388168352929052205460ff165b80610a6d5750836001600160a01b03166114ae84610726565b6001600160a01b031614949350505050565b826001600160a01b03166114d382610b7d565b6001600160a01b0316146114f95760405162461bcd60e51b81526004016107c190613b4b565b6001600160a01b03821661155b5760405162461bcd60e51b8152602060048201526024808201527f4552433732313a207472616e7366657220746f20746865207a65726f206164646044820152637265737360e01b60648201526084016107c1565b6115688383836001612591565b826001600160a01b031661157b82610b7d565b6001600160a01b0316146115a15760405162461bcd60e51b81526004016107c190613b4b565b600081815260056020908152604080832080546001600160a01b03199081169091556001600160a01b0387811680865260048552838620805460001901905590871680865283862080546001019055868652600390945282852080549092168417909155905184937fddf252ad1be2c89b69c2b068fc378daa952ba7f163c4a11628f55a4df523b3ef91a4505050565b6000600185111580611644575060018411155b1561165157506001610a6d565b60007f00000000000000000000000000000000000000000000000000000000000000006001600160a01b031663b15031fa6040518163ffffffff1660e01b8152600401602060405180830381865afa1580156116b1573d6000803e3d6000fd5b505050506040513d601f19601f820116820180604052508101906116d59190613b90565b9050806000036116e9576001915050610a6d565b6001600160801b031984166000908152600c6020526040902054811015611714576001915050610a6d565b6001600160801b031984166000908152600c60205260409020546117389082613a09565b90506000611747878784612619565b979650505050505050565b60006008826001600160401b03168154811061177057611770613a8a565b60009182526020918290206040805160e081018252600690930290910180546001600160801b0319608082811b82168652600160801b909204821b16948401949094526001808201549284019290925260028101546060840152600381015493830193909352600483015460a083015260059092015460ff16151560c082015260088054919350906001600160401b03851690811061181157611811613a8a565b60009182526020822060069190910201600501805460ff1916921515929092179091558061183e84612536565b421115611876576001915061185b846001600160401b0316610b7d565b9050611871846001600160401b0316600161269e565b6119e3565b602083015183516040516306c77ce760e01b81526001600160801b03199283166004820152911660248201527f00000000000000000000000000000000000000000000000000000000000000006001600160a01b0316906306c77ce790604401602060405180830381865afa1580156118f3573d6000803e3d6000fd5b505050506040513d601f19601f820116820180604052508101906119179190613bb8565b915060011960ff83160161194b577f000000000000000000000000000000000000000000000000000000000000000061195d565b61195d846001600160401b0316610b7d565b905060001960ff8316016119765761197484612a65565b505b611989846001600160401b03168361269e565b6008846001600160401b0316815481106119a5576119a5613a8a565b906000526020600020906006020160010154600d60008282546119c89190613a09565b9091555050600780549060006119dd83613bd5565b91905055505b806001600160a01b03167f7c2e00429f610bdb997681cabbb0ef3197390c07fe90ea4a98ac36438dd4217c856008876001600160401b031681548110611a2b57611a2b613a8a565b600091825260209182902060026006909202010154604080516001600160401b0390941684529183015260ff86169082015260600160405180910390a261112d846001600160401b0316612dcb565b600080611a8984848888611631565b9050611aac84620f4240611a9d8285613bec565b611aa79190613c0b565b612e6e565b9695505050505050565b6000806000806000806000806008896001600160401b031681548110611ade57611ade613a8a565b60009182526020918290206040805160e0810182526006939093029091018054608081811b6001600160801b0319908116808752600160801b909304821b1695850186905260018301549385018490526002830154606086018190526003840154918601829052600484015460a0870181905260059094015460ff16151560c0909601869052939f939e509c50909a50919850919650945092505050565b600080546001600160a01b038381166001600160a01b0319831681178455604051919092169283917f8be0079c531659141344cd1fd0a4f28419497f9722a3daafe3b4186f6b6457e09190a35050565b60008073bE333FC0aC69B00d06C766619139447a47192652635cff288d85856040518363ffffffff1660e01b8152600401611c08929190613c2d565b602060405180830381865af4158015611c25573d6000803e3d6000fd5b505050506040513d601f19601f82011682018060405250810190611c4991906139d6565b90506001600160a01b038116611c6157611c61613abf565b6001600160a01b0381166000908152600f602052604090205460ff16610a6d565b60004283118015611c9257504284115b611cd45760405162461bcd60e51b81526020600482015260136024820152725f6261636b3a20496e76616c6964206461746560681b60448201526064016107c1565b6040516306c77ce760e01b81526001600160801b03198088166004830152881660248201527f00000000000000000000000000000000000000000000000000000000000000006001600160a01b0316906306c77ce790604401602060405180830381865afa158015611d4a573d6000803e3d6000fd5b505050506040513d601f19601f82011682018060405250810190611d6e9190613bb8565b60ff16600214611dd95760405162461bcd60e51b815260206004820152603060248201527f5f6261636b3a204f7261636c6520726573756c7420616c72656164792073657460448201526f08199bdc881d1a1a5cc81b585c9ad95d60821b60648201526084016107c1565b60007f00000000000000000000000000000000000000000000000000000000000000006001600160a01b03166338d52e0f6040518163ffffffff1660e01b8152600401602060405180830381865afa158015611e39573d6000803e3d6000fd5b505050506040513d601f19601f82011682018060405250810190611e5d91906139d6565b90506001600160a01b0381166323b872dd3360405160e083901b6001600160e01b03191681526001600160a01b0391821660048201527f00000000000000000000000000000000000000000000000000000000000000009091166024820152604481018990526064016020604051808303816000875af1158015611ee5573d6000803e3d6000fd5b505050506040513d601f19601f82011682018060405250810190611f099190613a20565b506001600160801b031987166000908152600a602052604081208054889290611f33908490613c64565b9250508190555085600d6000828254611f4c9190613c64565b909155505060078054906000611f6183613c7c565b91905055506000611f7160085490565b6001600160801b03198a166000908152600c6020526040812080549293508692909190611f9f908490613c64565b90915550611fbb90506001600160401b038216898b8a88612e84565b600e6000828254611fcc9190613c64565b90915550506040805160e0810182526001600160801b03198b811682528a1660208083018281528385018c8152606085018a815260808087018d81524260a08901908152600060c08a0181815260088054600180820183558285529c51995199871c600160801b9a90971c99909902959095177ff3f7a9fe364faab93b216da50a3214154f22a0a2b415b23a84c8169e8b636ee360069099029889015595517ff3f7a9fe364faab93b216da50a3214154f22a0a2b415b23a84c8169e8b636ee488015593517ff3f7a9fe364faab93b216da50a3214154f22a0a2b415b23a84c8169e8b636ee587015590517ff3f7a9fe364faab93b216da50a3214154f22a0a2b415b23a84c8169e8b636ee6860155517ff3f7a9fe364faab93b216da50a3214154f22a0a2b415b23a84c8169e8b636ee785015591517ff3f7a9fe364faab93b216da50a3214154f22a0a2b415b23a84c8169e8b636ee8909301805460ff191693151593909317909255928152600982529384208054938401815584529092206004820401805460039092169092026101000a6001600160401b03818102199092169184160217905561218833826001600160401b0316613148565b604080516001600160401b03831681526001600160801b03198b811660208301528a16818301526060810189905260808101869052905133917f1d273ea6a1aea94de32fd06a09ab8046dff8e3261c5a4ecaa5e1a5705f3342ec919081900360a00190a26001600160401b031698975050505050505050565b816001600160a01b0316836001600160a01b0316036122625760405162461bcd60e51b815260206004820152601960248201527f4552433732313a20617070726f766520746f2063616c6c65720000000000000060448201526064016107c1565b6001600160a01b03838116600081815260066020908152604080832094871680845294825291829020805460ff191686151590811790915591519182527f17307eab39ab6107e8899845ad3d59bd9653f200f220920489ca2b5937696c31910160405180910390a3505050565b6122da8484846114c0565b6122e6848484846132e1565b61112d5760405162461bcd60e51b81526004016107c190613c95565b60606000612311836002613bec565b61231c906002613c64565b6001600160401b0381111561233357612333613821565b6040519080825280601f01601f19166020018201604052801561235d576020820181803683370190505b509050600360fc1b8160008151811061237857612378613a8a565b60200101906001600160f81b031916908160001a905350600f60fb1b816001815181106123a7576123a7613a8a565b60200101906001600160f81b031916908160001a90535060006123cb846002613bec565b6123d6906001613c64565b90505b600181111561244e576f181899199a1a9b1b9c1cb0b131b232b360811b85600f166010811061240a5761240a613a8a565b1a60f81b82828151811061242057612420613a8a565b60200101906001600160f81b031916908160001a90535060049490941c9361244781613bd5565b90506123d9565b50831561249d5760405162461bcd60e51b815260206004820181905260248201527f537472696e67733a20686578206c656e67746820696e73756666696369656e7460448201526064016107c1565b9392505050565b606060006124b1836133df565b60010190506000816001600160401b038111156124d0576124d0613821565b6040519080825280601f01601f1916602001820160405280156124fa576020820181803683370190505b5090508181016020015b600019016f181899199a1a9b1b9c1cb0b131b232b360811b600a86061a8153600a850494508461250457509392505050565b60007f00000000000000000000000000000000000000000000000000000000000000006008836001600160401b03168154811061257557612575613a8a565b90600052602060002090600602016003015461068e9190613c64565b600181111561112d576001600160a01b038416156125d7576001600160a01b038416600090815260046020526040812080548392906125d1908490613a09565b90915550505b6001600160a01b0383161561112d576001600160a01b0383166000908152600460205260408120805483929061260e908490613c64565b909155505050505050565b60405163a19dec4360e01b81526004810184905260248101839052604481018290526000907353FA3dA890d97B694d144A66AfA772A42F69CE1a9063a19dec4390606401602060405180830381865af415801561267a573d6000803e3d6000fd5b505050506040513d601f19601f82011682018060405250810190610a6d9190613b90565b42600883815481106126b2576126b2613a8a565b906000526020600020906006020160030154106127115760405162461bcd60e51b815260206004820181905260248201527f5f7061796f75743a205061796f75742064617465206e6f74207265616368656460448201526064016107c1565b600082815260136020526040812054600e805491929091612733908490613a09565b909155505060021960ff821601612875577f00000000000000000000000000000000000000000000000000000000000000006001600160a01b03166338d52e0f6040518163ffffffff1660e01b8152600401602060405180830381865afa1580156127a2573d6000803e3d6000fd5b505050506040513d601f19601f820116820180604052508101906127c691906139d6565b6001600160a01b031663a9059cbb6127dd84610b7d565b600885815481106127f0576127f0613a8a565b60009182526020909120600160069092020101546040516001600160e01b031960e085901b1681526001600160a01b03909216600483015260248201526044016020604051808303816000875af115801561284f573d6000803e3d6000fd5b505050506040513d601f19601f820116820180604052508101906128739190613a20565b505b60007f00000000000000000000000000000000000000000000000000000000000000006001600160a01b03166338d52e0f6040518163ffffffff1660e01b8152600401602060405180830381865afa1580156128d5573d6000803e3d6000fd5b505050506040513d601f19601f820116820180604052508101906128f991906139d6565b905060001960ff8316016129dd576000838152601360205260408120546011805491929091612929908490613a09565b90915550506001600160a01b03811663a9059cbb61294685610b7d565b6008868154811061295957612959613a8a565b60009182526020909120600260069092020101546040516001600160e01b031960e085901b1681526001600160a01b03909216600483015260248201526044015b6020604051808303816000875af11580156129b9573d6000803e3d6000fd5b505050506040513d601f19601f8201168201806040525081019061112d9190613a20565b806001600160a01b031663a9059cbb7f000000000000000000000000000000000000000000000000000000000000000060088681548110612a2057612a20613a8a565b60009182526020909120600160069092020101546040516001600160e01b031960e085901b1681526001600160a01b039092166004830152602482015260440161299a565b6000806008836001600160401b031681548110612a8457612a84613a8a565b60009182526020822060069190910201546040516325a8f38560e11b8152600160801b90910460801b6001600160801b03198116600483015292506001600160a01b037f00000000000000000000000000000000000000000000000000000000000000001690634b51e70a90602401600060405180830381865afa158015612b10573d6000803e3d6000fd5b505050506040513d6000823e601f3d908101601f19168201604052612b389190810190613ce7565b90506000806008866001600160401b031681548110612b5957612b59613a8a565b90600052602060002090600602016004015490506000836020015151905060005b81811015612bed578285602001518281518110612b9957612b99613a8a565b6020026020010151602001511115612bdb5784602001518181518110612bc157612bc1613a8a565b60200260200101516040015184612bd89190613c64565b93505b80612be581613c7c565b915050612b7a565b50600083118015612c2b575060006008886001600160401b031681548110612c1757612c17613a8a565b906000526020600020906006020160010154115b15612d915760006008886001600160401b031681548110612c4e57612c4e613a8a565b9060005260206000209060060201600101546008896001600160401b031681548110612c7c57612c7c613a8a565b906000526020600020906006020160020154612c989190613c0b565b604051637869dde560e11b815260048101829052602481018690526216e36060448201529091506000907353FA3dA890d97B694d144A66AfA772A42F69CE1a9063f0d3bbca90606401602060405180830381865af4158015612cfe573d6000803e3d6000fd5b505050506040513d601f19601f82011682018060405250810190612d229190613b90565b90508060088a6001600160401b031681548110612d4157612d41613a8a565b906000526020600020906006020160010154612d5d9190613bec565b60088a6001600160401b031681548110612d7957612d79613a8a565b90600052602060002090600602016002018190555050505b6008876001600160401b031681548110612dad57612dad613a8a565b90600052602060002090600602016002015495505050505050919050565b6000612dd682610b7d565b9050612de6816000846001612591565b612def82610b7d565b600083815260056020908152604080832080546001600160a01b03199081169091556001600160a01b0385168085526004845282852080546000190190558785526003909352818420805490911690555192935084927fddf252ad1be2c89b69c2b068fc378daa952ba7f163c4a11628f55a4df523b3ef908390a45050565b6000818311612e7d578161249d565b5090919050565b6001600160801b031984166000908152600a602090815260408083205460109092528220548291612eb491613c64565b6001600160801b031986166000908152600c60205260409020549091508110612ee157600091505061313f565b6001600160801b031986811660009081526012602090815260408083208054851660808b901c1790559288168252600c905290812054612f22908390613a09565b90506000600e546011541115612f54576000600e54601154612f449190613a09565b9050612f5083826134b7565b9150505b818110156130fc576000612f688284613a09565b90507f00000000000000000000000000000000000000000000000000000000000000006001600160a01b03166338d52e0f6040518163ffffffff1660e01b8152600401602060405180830381865afa158015612fc8573d6000803e3d6000fd5b505050506040513d601f19601f82011682018060405250810190612fec91906139d6565b6040516323b872dd60e01b81526001600160a01b037f0000000000000000000000000000000000000000000000000000000000000000811660048301527f0000000000000000000000000000000000000000000000000000000000000000811660248301526044820184905291909116906323b872dd906064016020604051808303816000875af1158015613085573d6000803e3d6000fd5b505050506040513d601f19601f820116820180604052508101906130a99190613a20565b50604080518b8152602081018390527f14a13f958d7fe38fb8529e8d43353b6d9120f52444e486a4077f68a3fc77dcbf910160405180910390a180601160008282546130f59190613c64565b9091555050505b60008981526013602090815260408083208590556001600160801b03198b168352601090915281208054849290613134908490613c64565b909155509193505050505b95945050505050565b6001600160a01b03821661319e5760405162461bcd60e51b815260206004820181905260248201527f4552433732313a206d696e7420746f20746865207a65726f206164647265737360448201526064016107c1565b6000818152600360205260409020546001600160a01b0316156132035760405162461bcd60e51b815260206004820152601c60248201527f4552433732313a20746f6b656e20616c7265616479206d696e7465640000000060448201526064016107c1565b613211600083836001612591565b6000818152600360205260409020546001600160a01b0316156132765760405162461bcd60e51b815260206004820152601c60248201527f4552433732313a20746f6b656e20616c7265616479206d696e7465640000000060448201526064016107c1565b6001600160a01b038216600081815260046020908152604080832080546001019055848352600390915280822080546001600160a01b0319168417905551839291907fddf252ad1be2c89b69c2b068fc378daa952ba7f163c4a11628f55a4df523b3ef908290a45050565b60006001600160a01b0384163b156133d757604051630a85bd0160e11b81526001600160a01b0385169063150b7a0290613325903390899088908890600401613e12565b6020604051808303816000875af1925050508015613360575060408051601f3d908101601f1916820190925261335d91810190613e45565b60015b6133bd573d80801561338e576040519150601f19603f3d011682016040523d82523d6000602084013e613393565b606091505b5080516000036133b55760405162461bcd60e51b81526004016107c190613c95565b805181602001fd5b6001600160e01b031916630a85bd0160e11b149050610a6d565b506001610a6d565b60008072184f03e93ff9f4daa797ed6e38ed64bf6a1f0160401b831061341e5772184f03e93ff9f4daa797ed6e38ed64bf6a1f0160401b830492506040015b6d04ee2d6d415b85acef8100000000831061344a576d04ee2d6d415b85acef8100000000830492506020015b662386f26fc10000831061346857662386f26fc10000830492506010015b6305f5e1008310613480576305f5e100830492506008015b612710831061349457612710830492506004015b606483106134a6576064830492506002015b600a831061068e5760010192915050565b6000818310612e7d578161249d565b6001600160e01b031981168114610a0d57600080fd5b6000602082840312156134ee57600080fd5b813561249d816134c6565b60005b838110156135145781810151838201526020016134fc565b8381111561112d5750506000910152565b6000815180845261353d8160208601602086016134f9565b601f01601f19169290920160200192915050565b60208152600061249d6020830184613525565b60006020828403121561357657600080fd5b5035919050565b6001600160a01b0381168114610a0d57600080fd5b600080604083850312156135a557600080fd5b82356135b08161357d565b946020939093013593505050565b6001600160801b031981168114610a0d57600080fd5b6000602082840312156135e657600080fd5b813561249d816135be565b60008060006060848603121561360657600080fd5b83356136118161357d565b925060208401356136218161357d565b929592945050506040919091013590565b6000806000806080858703121561364857600080fd5b84359350602085013592506040850135613661816135be565b91506060850135613671816135be565b939692955090935050565b60006020828403121561368e57600080fd5b81356001600160401b038116811461249d57600080fd5b600080600080608085870312156136bb57600080fd5b84356136c6816135be565b935060208501356136d6816135be565b93969395505050506040820135916060013590565b6000602082840312156136fd57600080fd5b813561249d8161357d565b6000806020838503121561371b57600080fd5b82356001600160401b038082111561373257600080fd5b818501915085601f83011261374657600080fd5b81358181111561375557600080fd5b8660206101408302850101111561376b57600080fd5b60209290920196919550909350505050565b6020808252825182820181905260009190848201906040850190845b818110156137b557835183529284019291840191600101613799565b50909695505050505050565b600061014082840312156137d457600080fd5b50919050565b8015158114610a0d57600080fd5b600080604083850312156137fb57600080fd5b82356138068161357d565b91506020830135613816816137da565b809150509250929050565b634e487b7160e01b600052604160045260246000fd5b604080519081016001600160401b038111828210171561385957613859613821565b60405290565b604051608081016001600160401b038111828210171561385957613859613821565b604051601f8201601f191681016001600160401b03811182821017156138a9576138a9613821565b604052919050565b600080600080608085870312156138c757600080fd5b84356138d28161357d565b93506020858101356138e38161357d565b93506040860135925060608601356001600160401b038082111561390657600080fd5b818801915088601f83011261391a57600080fd5b81358181111561392c5761392c613821565b61393e601f8201601f19168501613881565b9150808252898482850101111561395457600080fd5b808484018584013760008482840101525080935050505092959194509250565b6000806040838503121561398757600080fd5b82356139928161357d565b915060208301356138168161357d565b600181811c908216806139b657607f821691505b6020821081036137d457634e487b7160e01b600052602260045260246000fd5b6000602082840312156139e857600080fd5b815161249d8161357d565b634e487b7160e01b600052601160045260246000fd5b600082821015613a1b57613a1b6139f3565b500390565b600060208284031215613a3257600080fd5b815161249d816137da565b6020808252602d908201527f4552433732313a2063616c6c6572206973206e6f7420746f6b656e206f776e6560408201526c1c881bdc88185c1c1c9bdd9959609a1b606082015260800190565b634e487b7160e01b600052603260045260246000fd5b600060ff821660ff8103613ab657613ab66139f3565b60010192915050565b634e487b7160e01b600052600160045260246000fd5b60006001600160401b03808316818103613af157613af16139f3565b6001019392505050565b60008451613b0d8184602089016134f9565b845190830190613b218183602089016134f9565b602f60f81b91019081528351613b3e8160018401602088016134f9565b0160010195945050505050565b60208082526025908201527f4552433732313a207472616e736665722066726f6d20696e636f72726563742060408201526437bbb732b960d91b606082015260800190565b600060208284031215613ba257600080fd5b5051919050565b60ff81168114610a0d57600080fd5b600060208284031215613bca57600080fd5b815161249d81613ba9565b600081613be457613be46139f3565b506000190190565b6000816000190483118215151615613c0657613c066139f3565b500290565b600082613c2857634e487b7160e01b600052601260045260246000fd5b500490565b828152608081018235613c3f81613ba9565b60ff811660208401525060208301356040830152604083013560608301529392505050565b60008219821115613c7757613c776139f3565b500190565b600060018201613c8e57613c8e6139f3565b5060010190565b60208082526032908201527f4552433732313a207472616e7366657220746f206e6f6e20455243373231526560408201527131b2b4bb32b91034b6b83632b6b2b73a32b960711b606082015260800190565b60006020808385031215613cfa57600080fd5b82516001600160401b0380821115613d1157600080fd5b81850191506040808388031215613d2757600080fd5b613d2f613837565b8351613d3a816135be565b81528385015183811115613d4d57600080fd5b80850194505087601f850112613d6257600080fd5b835183811115613d7457613d74613821565b613d82868260051b01613881565b818152868101945060079190911b850186019089821115613da257600080fd5b948601945b81861015613e00576080868b031215613dc05760008081fd5b613dc861385f565b8651613dd3816135be565b81528688015188820152848701518582015260608088015190820152855260809095019493860193613da7565b95820195909552979650505050505050565b6001600160a01b0385811682528416602082015260408101839052608060608201819052600090611aac90830184613525565b600060208284031215613e5757600080fd5b815161249d816134c656fe68747470733a2f2f616c7068612e686f7273652e6c696e6b2f6170692f626574732fa264697066735822122068d9e71bd9f407a2ff16407b613c39503a31302ead9a41d3e896d9296581771b64736f6c634300080f0033",
  "deployedBytecode": "0x608060405234801561001057600080fd5b50600436106102535760003560e01c806370dea79a11610146578063a22cb465116100c3578063c87b56dd11610087578063c87b56dd146105bd578063c96121a8146105d0578063d6eb5910146105d8578063e4650fac146105e0578063e985e9c5146105f3578063f2fde38b1461062f57600080fd5b8063a22cb4651461053e578063a87d942c14610551578063b18b78dd14610571578063b88d4fde14610597578063c34b44a0146105aa57600080fd5b8063893d20e81161010a578063893d20e8146104f35780638ac6d217146105045780638da5cb5b146104f357806395d89b411461050c578063a166895e1461051457600080fd5b806370dea79a1461048b578063715018a6146104b25780637b5df1c9146104ba5780637df73e27146104cd57806388bc76ba146104e057600080fd5b80634b9ba446116101d457806365cacaa41161019857806365cacaa4146103d35780636b467d15146103f95780636c0360eb14610450578063702595861461045857806370a082311461047857600080fd5b80634b9ba4461461037f57806358439479146103925780636028421f1461039a5780636352211e146103ad57806363c724f7146103c057600080fd5b80632098b7ff1161021b5780632098b7ff1461030d57806323b872dd1461031557806325117b721461032857806342842e0e1461035957806346e116a61461036c57600080fd5b806301ffc9a71461025857806306fdde0314610280578063081812fc14610295578063095ea7b3146102c057806312fa3bf1146102d5575b600080fd5b61026b6102663660046134dc565b610642565b60405190151581526020015b60405180910390f35b610288610694565b6040516102779190613551565b6102a86102a3366004613564565b610726565b6040516001600160a01b039091168152602001610277565b6102d36102ce366004613592565b61074d565b005b6102ff6102e33660046135d4565b6001600160801b0319166000908152600a602052604090205490565b604051908152602001610277565b6102d3610867565b6102d36103233660046135f1565b610a10565b60405160ff7f0000000000000000000000000000000000000000000000000000000000000000168152602001610277565b6102d36103673660046135f1565b610a41565b6102ff61037a366004613632565b610a5c565b6102d361038d36600461367c565b610a75565b600d546102ff565b6102ff6103a83660046136a5565b610b6f565b6102a86103bb366004613564565b610b7d565b6102d36103ce3660046136eb565b610bdd565b7f00000000000000000000000000000000000000000000000000000000000000006102a8565b61040c61040736600461367c565b610c6b565b604080519788526020880196909652948601939093526060850191909152151560808401526001600160801b031990811660a08401521660c082015260e001610277565b610288610c96565b61046b610466366004613708565b610cb2565b604051610277919061377d565b6102ff6104863660046136eb565b610d6b565b6102ff7f000000000000000000000000000000000000000000000000000000000000000081565b6102d3610df1565b6102ff6104c83660046137c1565b610e05565b61026b6104db3660046136eb565b610f70565b6102d36104ee3660046135d4565b610f91565b6000546001600160a01b03166102a8565b600e546102ff565b610288611138565b6102ff6105223660046135d4565b6001600160801b03191660009081526010602052604090205490565b6102d361054c3660046137e8565b611147565b610559611152565b6040516001600160401b039091168152602001610277565b7f00000000000000000000000000000000000000000000000000000000000000006102a8565b6102d36105a53660046138b1565b61115d565b6102d36105b83660046136eb565b61118f565b6102886105cb366004613564565b61121a565b6007546102ff565b6011546102ff565b6102ff6105ee36600461367c565b61129a565b61026b610601366004613974565b6001600160a01b03918216600090815260066020908152604080832093909416825291909152205460ff1690565b6102d361063d3660046136eb565b6112a5565b60006001600160e01b031982166380ac58cd60e01b148061067357506001600160e01b03198216635b5e139f60e01b145b8061068e57506301ffc9a760e01b6001600160e01b03198316145b92915050565b6060600180546106a3906139a2565b80601f01602080910402602001604051908101604052809291908181526020018280546106cf906139a2565b801561071c5780601f106106f15761010080835404028352916020019161071c565b820191906000526020600020905b8154815290600101906020018083116106ff57829003601f168201915b5050505050905090565b60006107318261131b565b506000908152600560205260409020546001600160a01b031690565b600061075882610b7d565b9050806001600160a01b0316836001600160a01b0316036107ca5760405162461bcd60e51b815260206004820152602160248201527f4552433732313a20617070726f76616c20746f2063757272656e74206f776e656044820152603960f91b60648201526084015b60405180910390fd5b336001600160a01b03821614806107e657506107e68133610601565b6108585760405162461bcd60e51b815260206004820152603d60248201527f4552433732313a20617070726f76652063616c6c6572206973206e6f7420746f60448201527f6b656e206f776e6572206f7220617070726f76656420666f7220616c6c00000060648201526084016107c1565b610862838361137a565b505050565b61086f6113e8565b600e54601154116108d45760405162461bcd60e51b815260206004820152602960248201527f726566756e64436f6c6c61746572616c3a204e6f20636f6c6c61746572616c206044820152681d1bc81c99599d5b9960ba1b60648201526084016107c1565b600e546011819055507f00000000000000000000000000000000000000000000000000000000000000006001600160a01b03166338d52e0f6040518163ffffffff1660e01b8152600401602060405180830381865afa15801561093b573d6000803e3d6000fd5b505050506040513d601f19601f8201168201806040525081019061095f91906139d6565b6001600160a01b031663a9059cbb7f0000000000000000000000000000000000000000000000000000000000000000600e5460115461099e9190613a09565b6040516001600160e01b031960e085901b1681526001600160a01b03909216600483015260248201526044016020604051808303816000875af11580156109e9573d6000803e3d6000fd5b505050506040513d601f19601f82011682018060405250810190610a0d9190613a20565b50565b610a1a3382611442565b610a365760405162461bcd60e51b81526004016107c190613a3d565b6108628383836114c0565b6108628383836040518060200160405280600081525061115d565b6000610a6a85858585611631565b90505b949350505050565b60006008826001600160401b031681548110610a9357610a93613a8a565b60009182526020918290206040805160e081018252600690930290910180546001600160801b0319608082811b82168652600160801b909204821b169484019490945260018101549183019190915260028101546060830152600381015492820192909252600482015460a082015260059091015460ff1615801560c0830152909150610b625760405162461bcd60e51b815260206004820152601f60248201527f736574746c653a204265742068617320616c726561647920736574746c65640060448201526064016107c1565b610b6b82611752565b5050565b6000610a6a85858585611a7a565b6000818152600360205260408120546001600160a01b03168061068e5760405162461bcd60e51b8152602060048201526018602482015277115490cdcc8c4e881a5b9d985b1a59081d1bdad95b88125160421b60448201526064016107c1565b610be56113e8565b6001600160a01b038116610c475760405162461bcd60e51b815260206004820152602360248201527f6772616e745369676e65723a20496e76616c6964207369676e6572206164647260448201526265737360e81b60648201526084016107c1565b6001600160a01b03166000908152600f60205260409020805460ff19166001179055565b6000806000806000806000610c7f88611ab6565b959e949d50929b5090995097509550909350915050565b604051806060016040528060228152602001613e636022913981565b60606000826001600160401b03811115610cce57610cce613821565b604051908082528060200260200182016040528015610cf7578160200160208202803683370190505b50905060005b60ff8116841115610d63573685858360ff16818110610d1e57610d1e613a8a565b905061014002019050610d3081610e05565b838360ff1681518110610d4557610d45613a8a565b60209081029190910101525080610d5b81613aa0565b915050610cfd565b509392505050565b60006001600160a01b038216610dd55760405162461bcd60e51b815260206004820152602960248201527f4552433732313a2061646472657373207a65726f206973206e6f7420612076616044820152683634b21037bbb732b960b91b60648201526084016107c1565b506001600160a01b031660009081526004602052604090205490565b610df96113e8565b610e036000611b7c565b565b600080610e1560208401846135d4565b610e2560408501602086016135d4565b610e3560608601604087016135d4565b604080516001600160801b0319948516602082015292841660308401529216918101919091526080840135605082015260a0840135607082015260c0840135609082015260b001604051602081830303815290604052805190602001209050610ea1818460e001611bcc565b1515600114610ef25760405162461bcd60e51b815260206004820152601760248201527f6261636b3a20496e76616c6964207369676e617475726500000000000000000060448201526064016107c1565b6000610f26610f0760408601602087016135d4565b610f1760608701604088016135d4565b86606001358760800135611a7a565b905060008111610f3857610f38613abf565b610a6d610f4b60408601602087016135d4565b610f5b60608701604088016135d4565b86606001358760a001358860c0013586611c82565b6001600160a01b0381166000908152600f602052604081205460ff1661068e565b6001600160801b0319811660009081526009602090815260408083208054825181850281018501909352808352919290919083018282801561102457602002820191906000526020600020906000905b82829054906101000a90046001600160401b03166001600160401b031681526020019060080190602082600701049283019260010382029150808411610fe15790505b505083519394506000925050505b81816001600160401b0316101561112d57600083826001600160401b03168151811061106057611060613a8a565b6020026020010151905060006008826001600160401b03168154811061108857611088613a8a565b600091825260208083206040805160e081018252600690940290910180546001600160801b0319608082811b82168752600160801b909204821b169385019390935260018101549184019190915260028101546060840152600381015491830191909152600481015460a08301526005015460ff16151560c0820181905290925090036111185761111882611752565b5050808061112590613ad5565b915050611032565b50505050565b905090565b6060600280546106a3906139a2565b610b6b338383612201565b600061113360085490565b6111673383611442565b6111835760405162461bcd60e51b81526004016107c190613a3d565b61112d848484846122cf565b6111976113e8565b6001600160a01b0381166111f95760405162461bcd60e51b8152602060048201526024808201527f7265766f6b655369676e65723a20496e76616c6964207369676e6572206164646044820152637265737360e01b60648201526084016107c1565b6001600160a01b03166000908152600f60205260409020805460ff19169055565b6060604051806060016040528060228152602001613e63602291396112697f00000000000000000000000000000000000000000000000000000000000000006001600160a01b03166014612302565b611272846124a4565b60405160200161128493929190613afb565b6040516020818303038152906040529050919050565b600061068e82612536565b6112ad6113e8565b6001600160a01b0381166113125760405162461bcd60e51b815260206004820152602660248201527f4f776e61626c653a206e6577206f776e657220697320746865207a65726f206160448201526564647265737360d01b60648201526084016107c1565b610a0d81611b7c565b6000818152600360205260409020546001600160a01b0316610a0d5760405162461bcd60e51b8152602060048201526018602482015277115490cdcc8c4e881a5b9d985b1a59081d1bdad95b88125160421b60448201526064016107c1565b600081815260056020526040902080546001600160a01b0319166001600160a01b03841690811790915581906113af82610b7d565b6001600160a01b03167f8c5be1e5ebec7d5bd14f71427d1e84f3dd0314c0f7b2291e5b200ac8c7c3b92560405160405180910390a45050565b6000546001600160a01b03163314610e035760405162461bcd60e51b815260206004820181905260248201527f4f776e61626c653a2063616c6c6572206973206e6f7420746865206f776e657260448201526064016107c1565b60008061144e83610b7d565b9050806001600160a01b0316846001600160a01b0316148061149557506001600160a01b0380821660009081526006602090815260408083209388168352929052205460ff165b80610a6d5750836001600160a01b03166114ae84610726565b6001600160a01b031614949350505050565b826001600160a01b03166114d382610b7d565b6001600160a01b0316146114f95760405162461bcd60e51b81526004016107c190613b4b565b6001600160a01b03821661155b5760405162461bcd60e51b8152602060048201526024808201527f4552433732313a207472616e7366657220746f20746865207a65726f206164646044820152637265737360e01b60648201526084016107c1565b6115688383836001612591565b826001600160a01b031661157b82610b7d565b6001600160a01b0316146115a15760405162461bcd60e51b81526004016107c190613b4b565b600081815260056020908152604080832080546001600160a01b03199081169091556001600160a01b0387811680865260048552838620805460001901905590871680865283862080546001019055868652600390945282852080549092168417909155905184937fddf252ad1be2c89b69c2b068fc378daa952ba7f163c4a11628f55a4df523b3ef91a4505050565b6000600185111580611644575060018411155b1561165157506001610a6d565b60007f00000000000000000000000000000000000000000000000000000000000000006001600160a01b031663b15031fa6040518163ffffffff1660e01b8152600401602060405180830381865afa1580156116b1573d6000803e3d6000fd5b505050506040513d601f19601f820116820180604052508101906116d59190613b90565b9050806000036116e9576001915050610a6d565b6001600160801b031984166000908152600c6020526040902054811015611714576001915050610a6d565b6001600160801b031984166000908152600c60205260409020546117389082613a09565b90506000611747878784612619565b979650505050505050565b60006008826001600160401b03168154811061177057611770613a8a565b60009182526020918290206040805160e081018252600690930290910180546001600160801b0319608082811b82168652600160801b909204821b16948401949094526001808201549284019290925260028101546060840152600381015493830193909352600483015460a083015260059092015460ff16151560c082015260088054919350906001600160401b03851690811061181157611811613a8a565b60009182526020822060069190910201600501805460ff1916921515929092179091558061183e84612536565b421115611876576001915061185b846001600160401b0316610b7d565b9050611871846001600160401b0316600161269e565b6119e3565b602083015183516040516306c77ce760e01b81526001600160801b03199283166004820152911660248201527f00000000000000000000000000000000000000000000000000000000000000006001600160a01b0316906306c77ce790604401602060405180830381865afa1580156118f3573d6000803e3d6000fd5b505050506040513d601f19601f820116820180604052508101906119179190613bb8565b915060011960ff83160161194b577f000000000000000000000000000000000000000000000000000000000000000061195d565b61195d846001600160401b0316610b7d565b905060001960ff8316016119765761197484612a65565b505b611989846001600160401b03168361269e565b6008846001600160401b0316815481106119a5576119a5613a8a565b906000526020600020906006020160010154600d60008282546119c89190613a09565b9091555050600780549060006119dd83613bd5565b91905055505b806001600160a01b03167f7c2e00429f610bdb997681cabbb0ef3197390c07fe90ea4a98ac36438dd4217c856008876001600160401b031681548110611a2b57611a2b613a8a565b600091825260209182902060026006909202010154604080516001600160401b0390941684529183015260ff86169082015260600160405180910390a261112d846001600160401b0316612dcb565b600080611a8984848888611631565b9050611aac84620f4240611a9d8285613bec565b611aa79190613c0b565b612e6e565b9695505050505050565b6000806000806000806000806008896001600160401b031681548110611ade57611ade613a8a565b60009182526020918290206040805160e0810182526006939093029091018054608081811b6001600160801b0319908116808752600160801b909304821b1695850186905260018301549385018490526002830154606086018190526003840154918601829052600484015460a0870181905260059094015460ff16151560c0909601869052939f939e509c50909a50919850919650945092505050565b600080546001600160a01b038381166001600160a01b0319831681178455604051919092169283917f8be0079c531659141344cd1fd0a4f28419497f9722a3daafe3b4186f6b6457e09190a35050565b60008073__$47464c6f7588c8075b5d384b19d082a8ec$__635cff288d85856040518363ffffffff1660e01b8152600401611c08929190613c2d565b602060405180830381865af4158015611c25573d6000803e3d6000fd5b505050506040513d601f19601f82011682018060405250810190611c4991906139d6565b90506001600160a01b038116611c6157611c61613abf565b6001600160a01b0381166000908152600f602052604090205460ff16610a6d565b60004283118015611c9257504284115b611cd45760405162461bcd60e51b81526020600482015260136024820152725f6261636b3a20496e76616c6964206461746560681b60448201526064016107c1565b6040516306c77ce760e01b81526001600160801b03198088166004830152881660248201527f00000000000000000000000000000000000000000000000000000000000000006001600160a01b0316906306c77ce790604401602060405180830381865afa158015611d4a573d6000803e3d6000fd5b505050506040513d601f19601f82011682018060405250810190611d6e9190613bb8565b60ff16600214611dd95760405162461bcd60e51b815260206004820152603060248201527f5f6261636b3a204f7261636c6520726573756c7420616c72656164792073657460448201526f08199bdc881d1a1a5cc81b585c9ad95d60821b60648201526084016107c1565b60007f00000000000000000000000000000000000000000000000000000000000000006001600160a01b03166338d52e0f6040518163ffffffff1660e01b8152600401602060405180830381865afa158015611e39573d6000803e3d6000fd5b505050506040513d601f19601f82011682018060405250810190611e5d91906139d6565b90506001600160a01b0381166323b872dd3360405160e083901b6001600160e01b03191681526001600160a01b0391821660048201527f00000000000000000000000000000000000000000000000000000000000000009091166024820152604481018990526064016020604051808303816000875af1158015611ee5573d6000803e3d6000fd5b505050506040513d601f19601f82011682018060405250810190611f099190613a20565b506001600160801b031987166000908152600a602052604081208054889290611f33908490613c64565b9250508190555085600d6000828254611f4c9190613c64565b909155505060078054906000611f6183613c7c565b91905055506000611f7160085490565b6001600160801b03198a166000908152600c6020526040812080549293508692909190611f9f908490613c64565b90915550611fbb90506001600160401b038216898b8a88612e84565b600e6000828254611fcc9190613c64565b90915550506040805160e0810182526001600160801b03198b811682528a1660208083018281528385018c8152606085018a815260808087018d81524260a08901908152600060c08a0181815260088054600180820183558285529c51995199871c600160801b9a90971c99909902959095177ff3f7a9fe364faab93b216da50a3214154f22a0a2b415b23a84c8169e8b636ee360069099029889015595517ff3f7a9fe364faab93b216da50a3214154f22a0a2b415b23a84c8169e8b636ee488015593517ff3f7a9fe364faab93b216da50a3214154f22a0a2b415b23a84c8169e8b636ee587015590517ff3f7a9fe364faab93b216da50a3214154f22a0a2b415b23a84c8169e8b636ee6860155517ff3f7a9fe364faab93b216da50a3214154f22a0a2b415b23a84c8169e8b636ee785015591517ff3f7a9fe364faab93b216da50a3214154f22a0a2b415b23a84c8169e8b636ee8909301805460ff191693151593909317909255928152600982529384208054938401815584529092206004820401805460039092169092026101000a6001600160401b03818102199092169184160217905561218833826001600160401b0316613148565b604080516001600160401b03831681526001600160801b03198b811660208301528a16818301526060810189905260808101869052905133917f1d273ea6a1aea94de32fd06a09ab8046dff8e3261c5a4ecaa5e1a5705f3342ec919081900360a00190a26001600160401b031698975050505050505050565b816001600160a01b0316836001600160a01b0316036122625760405162461bcd60e51b815260206004820152601960248201527f4552433732313a20617070726f766520746f2063616c6c65720000000000000060448201526064016107c1565b6001600160a01b03838116600081815260066020908152604080832094871680845294825291829020805460ff191686151590811790915591519182527f17307eab39ab6107e8899845ad3d59bd9653f200f220920489ca2b5937696c31910160405180910390a3505050565b6122da8484846114c0565b6122e6848484846132e1565b61112d5760405162461bcd60e51b81526004016107c190613c95565b60606000612311836002613bec565b61231c906002613c64565b6001600160401b0381111561233357612333613821565b6040519080825280601f01601f19166020018201604052801561235d576020820181803683370190505b509050600360fc1b8160008151811061237857612378613a8a565b60200101906001600160f81b031916908160001a905350600f60fb1b816001815181106123a7576123a7613a8a565b60200101906001600160f81b031916908160001a90535060006123cb846002613bec565b6123d6906001613c64565b90505b600181111561244e576f181899199a1a9b1b9c1cb0b131b232b360811b85600f166010811061240a5761240a613a8a565b1a60f81b82828151811061242057612420613a8a565b60200101906001600160f81b031916908160001a90535060049490941c9361244781613bd5565b90506123d9565b50831561249d5760405162461bcd60e51b815260206004820181905260248201527f537472696e67733a20686578206c656e67746820696e73756666696369656e7460448201526064016107c1565b9392505050565b606060006124b1836133df565b60010190506000816001600160401b038111156124d0576124d0613821565b6040519080825280601f01601f1916602001820160405280156124fa576020820181803683370190505b5090508181016020015b600019016f181899199a1a9b1b9c1cb0b131b232b360811b600a86061a8153600a850494508461250457509392505050565b60007f00000000000000000000000000000000000000000000000000000000000000006008836001600160401b03168154811061257557612575613a8a565b90600052602060002090600602016003015461068e9190613c64565b600181111561112d576001600160a01b038416156125d7576001600160a01b038416600090815260046020526040812080548392906125d1908490613a09565b90915550505b6001600160a01b0383161561112d576001600160a01b0383166000908152600460205260408120805483929061260e908490613c64565b909155505050505050565b60405163a19dec4360e01b815260048101849052602481018390526044810182905260009073__$488e0037c7b108d422da68056570fe35d6$__9063a19dec4390606401602060405180830381865af415801561267a573d6000803e3d6000fd5b505050506040513d601f19601f82011682018060405250810190610a6d9190613b90565b42600883815481106126b2576126b2613a8a565b906000526020600020906006020160030154106127115760405162461bcd60e51b815260206004820181905260248201527f5f7061796f75743a205061796f75742064617465206e6f74207265616368656460448201526064016107c1565b600082815260136020526040812054600e805491929091612733908490613a09565b909155505060021960ff821601612875577f00000000000000000000000000000000000000000000000000000000000000006001600160a01b03166338d52e0f6040518163ffffffff1660e01b8152600401602060405180830381865afa1580156127a2573d6000803e3d6000fd5b505050506040513d601f19601f820116820180604052508101906127c691906139d6565b6001600160a01b031663a9059cbb6127dd84610b7d565b600885815481106127f0576127f0613a8a565b60009182526020909120600160069092020101546040516001600160e01b031960e085901b1681526001600160a01b03909216600483015260248201526044016020604051808303816000875af115801561284f573d6000803e3d6000fd5b505050506040513d601f19601f820116820180604052508101906128739190613a20565b505b60007f00000000000000000000000000000000000000000000000000000000000000006001600160a01b03166338d52e0f6040518163ffffffff1660e01b8152600401602060405180830381865afa1580156128d5573d6000803e3d6000fd5b505050506040513d601f19601f820116820180604052508101906128f991906139d6565b905060001960ff8316016129dd576000838152601360205260408120546011805491929091612929908490613a09565b90915550506001600160a01b03811663a9059cbb61294685610b7d565b6008868154811061295957612959613a8a565b60009182526020909120600260069092020101546040516001600160e01b031960e085901b1681526001600160a01b03909216600483015260248201526044015b6020604051808303816000875af11580156129b9573d6000803e3d6000fd5b505050506040513d601f19601f8201168201806040525081019061112d9190613a20565b806001600160a01b031663a9059cbb7f000000000000000000000000000000000000000000000000000000000000000060088681548110612a2057612a20613a8a565b60009182526020909120600160069092020101546040516001600160e01b031960e085901b1681526001600160a01b039092166004830152602482015260440161299a565b6000806008836001600160401b031681548110612a8457612a84613a8a565b60009182526020822060069190910201546040516325a8f38560e11b8152600160801b90910460801b6001600160801b03198116600483015292506001600160a01b037f00000000000000000000000000000000000000000000000000000000000000001690634b51e70a90602401600060405180830381865afa158015612b10573d6000803e3d6000fd5b505050506040513d6000823e601f3d908101601f19168201604052612b389190810190613ce7565b90506000806008866001600160401b031681548110612b5957612b59613a8a565b90600052602060002090600602016004015490506000836020015151905060005b81811015612bed578285602001518281518110612b9957612b99613a8a565b6020026020010151602001511115612bdb5784602001518181518110612bc157612bc1613a8a565b60200260200101516040015184612bd89190613c64565b93505b80612be581613c7c565b915050612b7a565b50600083118015612c2b575060006008886001600160401b031681548110612c1757612c17613a8a565b906000526020600020906006020160010154115b15612d915760006008886001600160401b031681548110612c4e57612c4e613a8a565b9060005260206000209060060201600101546008896001600160401b031681548110612c7c57612c7c613a8a565b906000526020600020906006020160020154612c989190613c0b565b604051637869dde560e11b815260048101829052602481018690526216e360604482015290915060009073__$488e0037c7b108d422da68056570fe35d6$__9063f0d3bbca90606401602060405180830381865af4158015612cfe573d6000803e3d6000fd5b505050506040513d601f19601f82011682018060405250810190612d229190613b90565b90508060088a6001600160401b031681548110612d4157612d41613a8a565b906000526020600020906006020160010154612d5d9190613bec565b60088a6001600160401b031681548110612d7957612d79613a8a565b90600052602060002090600602016002018190555050505b6008876001600160401b031681548110612dad57612dad613a8a565b90600052602060002090600602016002015495505050505050919050565b6000612dd682610b7d565b9050612de6816000846001612591565b612def82610b7d565b600083815260056020908152604080832080546001600160a01b03199081169091556001600160a01b0385168085526004845282852080546000190190558785526003909352818420805490911690555192935084927fddf252ad1be2c89b69c2b068fc378daa952ba7f163c4a11628f55a4df523b3ef908390a45050565b6000818311612e7d578161249d565b5090919050565b6001600160801b031984166000908152600a602090815260408083205460109092528220548291612eb491613c64565b6001600160801b031986166000908152600c60205260409020549091508110612ee157600091505061313f565b6001600160801b031986811660009081526012602090815260408083208054851660808b901c1790559288168252600c905290812054612f22908390613a09565b90506000600e546011541115612f54576000600e54601154612f449190613a09565b9050612f5083826134b7565b9150505b818110156130fc576000612f688284613a09565b90507f00000000000000000000000000000000000000000000000000000000000000006001600160a01b03166338d52e0f6040518163ffffffff1660e01b8152600401602060405180830381865afa158015612fc8573d6000803e3d6000fd5b505050506040513d601f19601f82011682018060405250810190612fec91906139d6565b6040516323b872dd60e01b81526001600160a01b037f0000000000000000000000000000000000000000000000000000000000000000811660048301527f0000000000000000000000000000000000000000000000000000000000000000811660248301526044820184905291909116906323b872dd906064016020604051808303816000875af1158015613085573d6000803e3d6000fd5b505050506040513d601f19601f820116820180604052508101906130a99190613a20565b50604080518b8152602081018390527f14a13f958d7fe38fb8529e8d43353b6d9120f52444e486a4077f68a3fc77dcbf910160405180910390a180601160008282546130f59190613c64565b9091555050505b60008981526013602090815260408083208590556001600160801b03198b168352601090915281208054849290613134908490613c64565b909155509193505050505b95945050505050565b6001600160a01b03821661319e5760405162461bcd60e51b815260206004820181905260248201527f4552433732313a206d696e7420746f20746865207a65726f206164647265737360448201526064016107c1565b6000818152600360205260409020546001600160a01b0316156132035760405162461bcd60e51b815260206004820152601c60248201527f4552433732313a20746f6b656e20616c7265616479206d696e7465640000000060448201526064016107c1565b613211600083836001612591565b6000818152600360205260409020546001600160a01b0316156132765760405162461bcd60e51b815260206004820152601c60248201527f4552433732313a20746f6b656e20616c7265616479206d696e7465640000000060448201526064016107c1565b6001600160a01b038216600081815260046020908152604080832080546001019055848352600390915280822080546001600160a01b0319168417905551839291907fddf252ad1be2c89b69c2b068fc378daa952ba7f163c4a11628f55a4df523b3ef908290a45050565b60006001600160a01b0384163b156133d757604051630a85bd0160e11b81526001600160a01b0385169063150b7a0290613325903390899088908890600401613e12565b6020604051808303816000875af1925050508015613360575060408051601f3d908101601f1916820190925261335d91810190613e45565b60015b6133bd573d80801561338e576040519150601f19603f3d011682016040523d82523d6000602084013e613393565b606091505b5080516000036133b55760405162461bcd60e51b81526004016107c190613c95565b805181602001fd5b6001600160e01b031916630a85bd0160e11b149050610a6d565b506001610a6d565b60008072184f03e93ff9f4daa797ed6e38ed64bf6a1f0160401b831061341e5772184f03e93ff9f4daa797ed6e38ed64bf6a1f0160401b830492506040015b6d04ee2d6d415b85acef8100000000831061344a576d04ee2d6d415b85acef8100000000830492506020015b662386f26fc10000831061346857662386f26fc10000830492506010015b6305f5e1008310613480576305f5e100830492506008015b612710831061349457612710830492506004015b606483106134a6576064830492506002015b600a831061068e5760010192915050565b6000818310612e7d578161249d565b6001600160e01b031981168114610a0d57600080fd5b6000602082840312156134ee57600080fd5b813561249d816134c6565b60005b838110156135145781810151838201526020016134fc565b8381111561112d5750506000910152565b6000815180845261353d8160208601602086016134f9565b601f01601f19169290920160200192915050565b60208152600061249d6020830184613525565b60006020828403121561357657600080fd5b5035919050565b6001600160a01b0381168114610a0d57600080fd5b600080604083850312156135a557600080fd5b82356135b08161357d565b946020939093013593505050565b6001600160801b031981168114610a0d57600080fd5b6000602082840312156135e657600080fd5b813561249d816135be565b60008060006060848603121561360657600080fd5b83356136118161357d565b925060208401356136218161357d565b929592945050506040919091013590565b6000806000806080858703121561364857600080fd5b84359350602085013592506040850135613661816135be565b91506060850135613671816135be565b939692955090935050565b60006020828403121561368e57600080fd5b81356001600160401b038116811461249d57600080fd5b600080600080608085870312156136bb57600080fd5b84356136c6816135be565b935060208501356136d6816135be565b93969395505050506040820135916060013590565b6000602082840312156136fd57600080fd5b813561249d8161357d565b6000806020838503121561371b57600080fd5b82356001600160401b038082111561373257600080fd5b818501915085601f83011261374657600080fd5b81358181111561375557600080fd5b8660206101408302850101111561376b57600080fd5b60209290920196919550909350505050565b6020808252825182820181905260009190848201906040850190845b818110156137b557835183529284019291840191600101613799565b50909695505050505050565b600061014082840312156137d457600080fd5b50919050565b8015158114610a0d57600080fd5b600080604083850312156137fb57600080fd5b82356138068161357d565b91506020830135613816816137da565b809150509250929050565b634e487b7160e01b600052604160045260246000fd5b604080519081016001600160401b038111828210171561385957613859613821565b60405290565b604051608081016001600160401b038111828210171561385957613859613821565b604051601f8201601f191681016001600160401b03811182821017156138a9576138a9613821565b604052919050565b600080600080608085870312156138c757600080fd5b84356138d28161357d565b93506020858101356138e38161357d565b93506040860135925060608601356001600160401b038082111561390657600080fd5b818801915088601f83011261391a57600080fd5b81358181111561392c5761392c613821565b61393e601f8201601f19168501613881565b9150808252898482850101111561395457600080fd5b808484018584013760008482840101525080935050505092959194509250565b6000806040838503121561398757600080fd5b82356139928161357d565b915060208301356138168161357d565b600181811c908216806139b657607f821691505b6020821081036137d457634e487b7160e01b600052602260045260246000fd5b6000602082840312156139e857600080fd5b815161249d8161357d565b634e487b7160e01b600052601160045260246000fd5b600082821015613a1b57613a1b6139f3565b500390565b600060208284031215613a3257600080fd5b815161249d816137da565b6020808252602d908201527f4552433732313a2063616c6c6572206973206e6f7420746f6b656e206f776e6560408201526c1c881bdc88185c1c1c9bdd9959609a1b606082015260800190565b634e487b7160e01b600052603260045260246000fd5b600060ff821660ff8103613ab657613ab66139f3565b60010192915050565b634e487b7160e01b600052600160045260246000fd5b60006001600160401b03808316818103613af157613af16139f3565b6001019392505050565b60008451613b0d8184602089016134f9565b845190830190613b218183602089016134f9565b602f60f81b91019081528351613b3e8160018401602088016134f9565b0160010195945050505050565b60208082526025908201527f4552433732313a207472616e736665722066726f6d20696e636f72726563742060408201526437bbb732b960d91b606082015260800190565b600060208284031215613ba257600080fd5b5051919050565b60ff81168114610a0d57600080fd5b600060208284031215613bca57600080fd5b815161249d81613ba9565b600081613be457613be46139f3565b506000190190565b6000816000190483118215151615613c0657613c066139f3565b500290565b600082613c2857634e487b7160e01b600052601260045260246000fd5b500490565b828152608081018235613c3f81613ba9565b60ff811660208401525060208301356040830152604083013560608301529392505050565b60008219821115613c7757613c776139f3565b500190565b600060018201613c8e57613c8e6139f3565b5060010190565b60208082526032908201527f4552433732313a207472616e7366657220746f206e6f6e20455243373231526560408201527131b2b4bb32b91034b6b83632b6b2b73a32b960711b606082015260800190565b60006020808385031215613cfa57600080fd5b82516001600160401b0380821115613d1157600080fd5b81850191506040808388031215613d2757600080fd5b613d2f613837565b8351613d3a816135be565b81528385015183811115613d4d57600080fd5b80850194505087601f850112613d6257600080fd5b835183811115613d7457613d74613821565b613d82868260051b01613881565b818152868101945060079190911b850186019089821115613da257600080fd5b948601945b81861015613e00576080868b031215613dc05760008081fd5b613dc861385f565b8651613dd3816135be565b81528688015188820152848701518582015260608088015190820152855260809095019493860193613da7565b95820195909552979650505050505050565b6001600160a01b0385811682528416602082015260408101839052608060608201819052600090611aac90830184613525565b600060208284031215613e5757600080fd5b815161249d816134c656fe68747470733a2f2f616c7068612e686f7273652e6c696e6b2f6170692f626574732fa264697066735822122068d9e71bd9f407a2ff16407b613c39503a31302ead9a41d3e896d9296581771b64736f6c634300080f0033",
  "libraries": {
    "SignatureLib": "0xbE333FC0aC69B00d06C766619139447a47192652",
    "OddsLib": "0x53FA3dA890d97B694d144A66AfA772A42F69CE1a"
  },
  "devdoc": {
    "kind": "dev",
    "methods": {
      "approve(address,uint256)": {
        "details": "See {IERC721-approve}."
      },
      "balanceOf(address)": {
        "details": "See {IERC721-balanceOf}."
      },
      "getApproved(uint256)": {
        "details": "See {IERC721-getApproved}."
      },
      "isApprovedForAll(address,address)": {
        "details": "See {IERC721-isApprovedForAll}."
      },
      "name()": {
        "details": "See {IERC721Metadata-name}."
      },
      "owner()": {
        "details": "Returns the address of the current owner."
      },
      "ownerOf(uint256)": {
        "details": "See {IERC721-ownerOf}."
      },
      "renounceOwnership()": {
        "details": "Leaves the contract without owner. It will not be possible to call `onlyOwner` functions anymore. Can only be called by the current owner. NOTE: Renouncing ownership will leave the contract without an owner, thereby removing any functionality that is only available to the owner."
      },
      "safeTransferFrom(address,address,uint256)": {
        "details": "See {IERC721-safeTransferFrom}."
      },
      "safeTransferFrom(address,address,uint256,bytes)": {
        "details": "See {IERC721-safeTransferFrom}."
      },
      "setApprovalForAll(address,bool)": {
        "details": "See {IERC721-setApprovalForAll}."
      },
      "supportsInterface(bytes4)": {
        "details": "See {IERC165-supportsInterface}."
      },
      "symbol()": {
        "details": "See {IERC721Metadata-symbol}."
      },
      "tokenURI(uint256)": {
        "details": "See {IERC721Metadata-tokenURI}."
      },
      "transferFrom(address,address,uint256)": {
        "details": "See {IERC721-transferFrom}."
      },
      "transferOwnership(address)": {
        "details": "Transfers ownership of the contract to a new account (`newOwner`). Can only be called by the current owner."
      }
    },
    "version": 1
  },
  "userdoc": {
    "kind": "user",
    "methods": {},
    "version": 1
  },
  "storageLayout": {
    "storage": [
      {
        "astId": 2722,
        "contract": "contracts/presets/MarketCollateralisedLinear.sol:MarketCollateralisedLinear",
        "label": "_owner",
        "offset": 0,
        "slot": "0",
        "type": "t_address"
      },
      {
        "astId": 5039,
        "contract": "contracts/presets/MarketCollateralisedLinear.sol:MarketCollateralisedLinear",
        "label": "_name",
        "offset": 0,
        "slot": "1",
        "type": "t_string_storage"
      },
      {
        "astId": 5041,
        "contract": "contracts/presets/MarketCollateralisedLinear.sol:MarketCollateralisedLinear",
        "label": "_symbol",
        "offset": 0,
        "slot": "2",
        "type": "t_string_storage"
      },
      {
        "astId": 5045,
        "contract": "contracts/presets/MarketCollateralisedLinear.sol:MarketCollateralisedLinear",
        "label": "_owners",
        "offset": 0,
        "slot": "3",
        "type": "t_mapping(t_uint256,t_address)"
      },
      {
        "astId": 5049,
        "contract": "contracts/presets/MarketCollateralisedLinear.sol:MarketCollateralisedLinear",
        "label": "_balances",
        "offset": 0,
        "slot": "4",
        "type": "t_mapping(t_address,t_uint256)"
      },
      {
        "astId": 5053,
        "contract": "contracts/presets/MarketCollateralisedLinear.sol:MarketCollateralisedLinear",
        "label": "_tokenApprovals",
        "offset": 0,
        "slot": "5",
        "type": "t_mapping(t_uint256,t_address)"
      },
      {
        "astId": 5059,
        "contract": "contracts/presets/MarketCollateralisedLinear.sol:MarketCollateralisedLinear",
        "label": "_operatorApprovals",
        "offset": 0,
        "slot": "6",
        "type": "t_mapping(t_address,t_mapping(t_address,t_bool))"
      },
      {
        "astId": 8505,
        "contract": "contracts/presets/MarketCollateralisedLinear.sol:MarketCollateralisedLinear",
        "label": "_inplayCount",
        "offset": 0,
        "slot": "7",
        "type": "t_uint256"
      },
      {
        "astId": 8509,
        "contract": "contracts/presets/MarketCollateralisedLinear.sol:MarketCollateralisedLinear",
        "label": "_bets",
        "offset": 0,
        "slot": "8",
        "type": "t_array(t_struct(Bet)8478_storage)dyn_storage"
      },
      {
        "astId": 8514,
        "contract": "contracts/presets/MarketCollateralisedLinear.sol:MarketCollateralisedLinear",
        "label": "_marketBets",
        "offset": 0,
        "slot": "9",
        "type": "t_mapping(t_bytes16,t_array(t_uint64)dyn_storage)"
      },
      {
        "astId": 8518,
        "contract": "contracts/presets/MarketCollateralisedLinear.sol:MarketCollateralisedLinear",
        "label": "_marketTotal",
        "offset": 0,
        "slot": "10",
        "type": "t_mapping(t_bytes16,t_uint256)"
      },
      {
        "astId": 8524,
        "contract": "contracts/presets/MarketCollateralisedLinear.sol:MarketCollateralisedLinear",
        "label": "_marketBetAmount",
        "offset": 0,
        "slot": "11",
        "type": "t_mapping(t_bytes16,t_mapping(t_uint16,t_uint256))"
      },
      {
        "astId": 8528,
        "contract": "contracts/presets/MarketCollateralisedLinear.sol:MarketCollateralisedLinear",
        "label": "_potentialPayout",
        "offset": 0,
        "slot": "12",
        "type": "t_mapping(t_bytes16,t_uint256)"
      },
      {
        "astId": 8530,
        "contract": "contracts/presets/MarketCollateralisedLinear.sol:MarketCollateralisedLinear",
        "label": "_totalInPlay",
        "offset": 0,
        "slot": "13",
        "type": "t_uint256"
      },
      {
        "astId": 8532,
        "contract": "contracts/presets/MarketCollateralisedLinear.sol:MarketCollateralisedLinear",
        "label": "_totalExposure",
        "offset": 0,
        "slot": "14",
        "type": "t_uint256"
      },
      {
        "astId": 8538,
        "contract": "contracts/presets/MarketCollateralisedLinear.sol:MarketCollateralisedLinear",
        "label": "_signers",
        "offset": 0,
        "slot": "15",
        "type": "t_mapping(t_address,t_bool)"
      },
      {
        "astId": 9878,
        "contract": "contracts/presets/MarketCollateralisedLinear.sol:MarketCollateralisedLinear",
        "label": "_marketCollateral",
        "offset": 0,
        "slot": "16",
        "type": "t_mapping(t_bytes16,t_uint256)"
      },
      {
        "astId": 9880,
        "contract": "contracts/presets/MarketCollateralisedLinear.sol:MarketCollateralisedLinear",
        "label": "_totalCollateral",
        "offset": 0,
        "slot": "17",
        "type": "t_uint256"
      },
      {
        "astId": 9884,
        "contract": "contracts/presets/MarketCollateralisedLinear.sol:MarketCollateralisedLinear",
        "label": "_mostExpensivePropositionId",
        "offset": 0,
        "slot": "18",
        "type": "t_mapping(t_bytes16,t_bytes16)"
      },
      {
        "astId": 9888,
        "contract": "contracts/presets/MarketCollateralisedLinear.sol:MarketCollateralisedLinear",
        "label": "_betExposure",
        "offset": 0,
        "slot": "19",
        "type": "t_mapping(t_uint256,t_uint256)"
      }
    ],
    "types": {
      "t_address": {
        "encoding": "inplace",
        "label": "address",
        "numberOfBytes": "20"
      },
      "t_array(t_struct(Bet)8478_storage)dyn_storage": {
        "base": "t_struct(Bet)8478_storage",
        "encoding": "dynamic_array",
        "label": "struct Bet[]",
        "numberOfBytes": "32"
      },
      "t_array(t_uint64)dyn_storage": {
        "base": "t_uint64",
        "encoding": "dynamic_array",
        "label": "uint64[]",
        "numberOfBytes": "32"
      },
      "t_bool": {
        "encoding": "inplace",
        "label": "bool",
        "numberOfBytes": "1"
      },
      "t_bytes16": {
        "encoding": "inplace",
        "label": "bytes16",
        "numberOfBytes": "16"
      },
      "t_mapping(t_address,t_bool)": {
        "encoding": "mapping",
        "key": "t_address",
        "label": "mapping(address => bool)",
        "numberOfBytes": "32",
        "value": "t_bool"
      },
      "t_mapping(t_address,t_mapping(t_address,t_bool))": {
        "encoding": "mapping",
        "key": "t_address",
        "label": "mapping(address => mapping(address => bool))",
        "numberOfBytes": "32",
        "value": "t_mapping(t_address,t_bool)"
      },
      "t_mapping(t_address,t_uint256)": {
        "encoding": "mapping",
        "key": "t_address",
        "label": "mapping(address => uint256)",
        "numberOfBytes": "32",
        "value": "t_uint256"
      },
      "t_mapping(t_bytes16,t_array(t_uint64)dyn_storage)": {
        "encoding": "mapping",
        "key": "t_bytes16",
        "label": "mapping(bytes16 => uint64[])",
        "numberOfBytes": "32",
        "value": "t_array(t_uint64)dyn_storage"
      },
      "t_mapping(t_bytes16,t_bytes16)": {
        "encoding": "mapping",
        "key": "t_bytes16",
        "label": "mapping(bytes16 => bytes16)",
        "numberOfBytes": "32",
        "value": "t_bytes16"
      },
      "t_mapping(t_bytes16,t_mapping(t_uint16,t_uint256))": {
        "encoding": "mapping",
        "key": "t_bytes16",
        "label": "mapping(bytes16 => mapping(uint16 => uint256))",
        "numberOfBytes": "32",
        "value": "t_mapping(t_uint16,t_uint256)"
      },
      "t_mapping(t_bytes16,t_uint256)": {
        "encoding": "mapping",
        "key": "t_bytes16",
        "label": "mapping(bytes16 => uint256)",
        "numberOfBytes": "32",
        "value": "t_uint256"
      },
      "t_mapping(t_uint16,t_uint256)": {
        "encoding": "mapping",
        "key": "t_uint16",
        "label": "mapping(uint16 => uint256)",
        "numberOfBytes": "32",
        "value": "t_uint256"
      },
      "t_mapping(t_uint256,t_address)": {
        "encoding": "mapping",
        "key": "t_uint256",
        "label": "mapping(uint256 => address)",
        "numberOfBytes": "32",
        "value": "t_address"
      },
      "t_mapping(t_uint256,t_uint256)": {
        "encoding": "mapping",
        "key": "t_uint256",
        "label": "mapping(uint256 => uint256)",
        "numberOfBytes": "32",
        "value": "t_uint256"
      },
      "t_string_storage": {
        "encoding": "bytes",
        "label": "string",
        "numberOfBytes": "32"
      },
      "t_struct(Bet)8478_storage": {
        "encoding": "inplace",
        "label": "struct Bet",
        "members": [
          {
            "astId": 8465,
            "contract": "contracts/presets/MarketCollateralisedLinear.sol:MarketCollateralisedLinear",
            "label": "propositionId",
            "offset": 0,
            "slot": "0",
            "type": "t_bytes16"
          },
          {
            "astId": 8467,
            "contract": "contracts/presets/MarketCollateralisedLinear.sol:MarketCollateralisedLinear",
            "label": "marketId",
            "offset": 16,
            "slot": "0",
            "type": "t_bytes16"
          },
          {
            "astId": 8469,
            "contract": "contracts/presets/MarketCollateralisedLinear.sol:MarketCollateralisedLinear",
            "label": "amount",
            "offset": 0,
            "slot": "1",
            "type": "t_uint256"
          },
          {
            "astId": 8471,
            "contract": "contracts/presets/MarketCollateralisedLinear.sol:MarketCollateralisedLinear",
            "label": "payout",
            "offset": 0,
            "slot": "2",
            "type": "t_uint256"
          },
          {
            "astId": 8473,
            "contract": "contracts/presets/MarketCollateralisedLinear.sol:MarketCollateralisedLinear",
            "label": "payoutDate",
            "offset": 0,
            "slot": "3",
            "type": "t_uint256"
          },
          {
            "astId": 8475,
            "contract": "contracts/presets/MarketCollateralisedLinear.sol:MarketCollateralisedLinear",
            "label": "created",
            "offset": 0,
            "slot": "4",
            "type": "t_uint256"
          },
          {
            "astId": 8477,
            "contract": "contracts/presets/MarketCollateralisedLinear.sol:MarketCollateralisedLinear",
            "label": "settled",
            "offset": 0,
            "slot": "5",
            "type": "t_bool"
          }
        ],
        "numberOfBytes": "192"
      },
      "t_uint16": {
        "encoding": "inplace",
        "label": "uint16",
        "numberOfBytes": "2"
      },
      "t_uint256": {
        "encoding": "inplace",
        "label": "uint256",
        "numberOfBytes": "32"
      },
      "t_uint64": {
        "encoding": "inplace",
        "label": "uint64",
        "numberOfBytes": "8"
      }
    }
  }
}