{
  "address": "0x3F8B30E5784Efc8c5ccC963eB29e330F1Fd15818",
  "abi": [
    {
      "inputs": [
        {
          "internalType": "contract IERC20Metadata",
          "name": "token",
          "type": "address"
        }
      ],
      "stateMutability": "nonpayable",
      "type": "constructor"
    },
    {
      "anonymous": false,
      "inputs": [
        {
          "indexed": true,
          "internalType": "address",
          "name": "market",
          "type": "address"
        }
      ],
      "name": "MarketAdded",
      "type": "event"
    },
    {
      "anonymous": false,
      "inputs": [
        {
          "indexed": false,
          "internalType": "uint256",
          "name": "threshold",
          "type": "uint256"
        }
      ],
      "name": "ThresholdUpdated",
      "type": "event"
    },
    {
      "anonymous": false,
      "inputs": [
        {
          "indexed": true,
          "internalType": "address",
          "name": "vault",
          "type": "address"
        }
      ],
      "name": "VaultAdded",
      "type": "event"
    },
    {
      "inputs": [
        {
          "internalType": "address",
          "name": "market",
          "type": "address"
        }
      ],
      "name": "addMarket",
      "outputs": [],
      "stateMutability": "nonpayable",
      "type": "function"
    },
    {
      "inputs": [
        {
          "internalType": "contract IVault",
          "name": "vault",
          "type": "address"
        }
      ],
      "name": "addVault",
      "outputs": [],
      "stateMutability": "nonpayable",
      "type": "function"
    },
    {
      "inputs": [],
      "name": "marketCount",
      "outputs": [
        {
          "internalType": "uint256",
          "name": "",
          "type": "uint256"
        }
      ],
      "stateMutability": "view",
      "type": "function"
    },
    {
      "inputs": [
        {
          "internalType": "uint256",
          "name": "",
          "type": "uint256"
        }
      ],
      "name": "markets",
      "outputs": [
        {
          "internalType": "address",
          "name": "",
          "type": "address"
        }
      ],
      "stateMutability": "view",
      "type": "function"
    },
    {
      "inputs": [
        {
          "internalType": "uint256",
          "name": "threshold",
          "type": "uint256"
        }
      ],
      "name": "setThreshold",
      "outputs": [],
      "stateMutability": "nonpayable",
      "type": "function"
    },
    {
      "inputs": [],
      "name": "vaultCount",
      "outputs": [
        {
          "internalType": "uint256",
          "name": "",
          "type": "uint256"
        }
      ],
      "stateMutability": "view",
      "type": "function"
    },
    {
      "inputs": [
        {
          "internalType": "uint256",
          "name": "",
          "type": "uint256"
        }
      ],
      "name": "vaults",
      "outputs": [
        {
          "internalType": "contract IVault",
          "name": "",
          "type": "address"
        }
      ],
      "stateMutability": "view",
      "type": "function"
    }
  ],
  "transactionHash": "0x65350b76b4a87ffa288ae4e0ef5cc109ed2d825dccdbee1a9813dcd8feefe5c4",
  "args": [
    "0x923D2d6cc7f273329C39385Fd522d33fF535fb9b"
  ],
  "numDeployments": 1,
  "solcInputHash": "450ee6b18ddda29b8d2a1e54c806e257",
  "bytecode": "0x60c06040523480156200001157600080fd5b5060405162000fb738038062000fb7833981810160405281019062000037919062000124565b3373ffffffffffffffffffffffffffffffffffffffff1660808173ffffffffffffffffffffffffffffffffffffffff16815250508073ffffffffffffffffffffffffffffffffffffffff1660a08173ffffffffffffffffffffffffffffffffffffffff16815250505062000156565b600080fd5b600073ffffffffffffffffffffffffffffffffffffffff82169050919050565b6000620000d882620000ab565b9050919050565b6000620000ec82620000cb565b9050919050565b620000fe81620000df565b81146200010a57600080fd5b50565b6000815190506200011e81620000f3565b92915050565b6000602082840312156200013d576200013c620000a6565b5b60006200014d848285016200010d565b91505092915050565b60805160a051610e34620001836000396000818161017701526104fd015260006107cd0152610e346000f3fe608060405234801561001057600080fd5b506004361061007d5760003560e01c8063960bfe041161005b578063960bfe04146100ea578063a7c6a10014610106578063b1283e7714610124578063ec979082146101545761007d565b8063256b5a02146100825780638c64ea4a1461009e57806393e30633146100ce575b600080fd5b61009c60048036038101906100979190610967565b610172565b005b6100b860048036038101906100b391906109ca565b6104b9565b6040516100c59190610a56565b60405180910390f35b6100e860048036038101906100e39190610a9d565b6104f8565b005b61010460048036038101906100ff91906109ca565b6107cb565b005b61010e61089a565b60405161011b9190610ad9565b60405180910390f35b61013e600480360381019061013991906109ca565b6108a7565b60405161014b9190610b03565b60405180910390f35b61015c6108e6565b6040516101699190610ad9565b60405180910390f35b6004547f000000000000000000000000000000000000000000000000000000000000000073ffffffffffffffffffffffffffffffffffffffff166370a08231336040518263ffffffff1660e01b81526004016101ce9190610b03565b602060405180830381865afa1580156101eb573d6000803e3d6000fd5b505050506040513d601f19601f8201168201806040525081019061020f9190610b33565b1015610250576040517f08c379a000000000000000000000000000000000000000000000000000000000815260040161024790610be3565b60405180910390fd5b60008173ffffffffffffffffffffffffffffffffffffffff166338d52e0f6040518163ffffffff1660e01b8152600401602060405180830381865afa15801561029d573d6000803e3d6000fd5b505050506040513d601f19601f820116820180604052508101906102c19190610c41565b9050600073ffffffffffffffffffffffffffffffffffffffff16600260008373ffffffffffffffffffffffffffffffffffffffff1673ffffffffffffffffffffffffffffffffffffffff16815260200190815260200160002060009054906101000a900473ffffffffffffffffffffffffffffffffffffffff1673ffffffffffffffffffffffffffffffffffffffff1614610391576040517f08c379a000000000000000000000000000000000000000000000000000000000815260040161038890610ce0565b60405180910390fd5b6001829080600181540180825580915050600190039060005260206000200160009091909190916101000a81548173ffffffffffffffffffffffffffffffffffffffff021916908373ffffffffffffffffffffffffffffffffffffffff16021790555081600260008373ffffffffffffffffffffffffffffffffffffffff1673ffffffffffffffffffffffffffffffffffffffff16815260200190815260200160002060006101000a81548173ffffffffffffffffffffffffffffffffffffffff021916908373ffffffffffffffffffffffffffffffffffffffff1602179055508173ffffffffffffffffffffffffffffffffffffffff167f7b7ef7a864d96a85497a1ed846adb39940dd6ccef678ff6ac8d55505e09b8cc460405160405180910390a25050565b600181815481106104c957600080fd5b906000526020600020016000915054906101000a900473ffffffffffffffffffffffffffffffffffffffff1681565b6004547f000000000000000000000000000000000000000000000000000000000000000073ffffffffffffffffffffffffffffffffffffffff166370a08231336040518263ffffffff1660e01b81526004016105549190610b03565b602060405180830381865afa158015610571573d6000803e3d6000fd5b505050506040513d601f19601f820116820180604052508101906105959190610b33565b10156105d6576040517f08c379a00000000000000000000000000000000000000000000000000000000081526004016105cd90610be3565b60405180910390fd5b600073ffffffffffffffffffffffffffffffffffffffff16600360008373ffffffffffffffffffffffffffffffffffffffff1673ffffffffffffffffffffffffffffffffffffffff16815260200190815260200160002060009054906101000a900473ffffffffffffffffffffffffffffffffffffffff1673ffffffffffffffffffffffffffffffffffffffff16146106a4576040517f08c379a000000000000000000000000000000000000000000000000000000000815260040161069b90610d4c565b60405180910390fd5b80600360008373ffffffffffffffffffffffffffffffffffffffff1673ffffffffffffffffffffffffffffffffffffffff16815260200190815260200160002060006101000a81548173ffffffffffffffffffffffffffffffffffffffff021916908373ffffffffffffffffffffffffffffffffffffffff1602179055506000819080600181540180825580915050600190039060005260206000200160009091909190916101000a81548173ffffffffffffffffffffffffffffffffffffffff021916908373ffffffffffffffffffffffffffffffffffffffff1602179055508073ffffffffffffffffffffffffffffffffffffffff167fbc600b1f03d316c479b49930c28e328809316458d5b5dacbb7419df5f6f8964760405160405180910390a250565b7f000000000000000000000000000000000000000000000000000000000000000073ffffffffffffffffffffffffffffffffffffffff163373ffffffffffffffffffffffffffffffffffffffff1614610859576040517f08c379a000000000000000000000000000000000000000000000000000000000815260040161085090610dde565b60405180910390fd5b806004819055507fadfa8ecb21b6962ebcd0adbd9ab985b7b4c5b5eb3b0dead683171565c7bfe1718160405161088f9190610ad9565b60405180910390a150565b6000600180549050905090565b600081815481106108b757600080fd5b906000526020600020016000915054906101000a900473ffffffffffffffffffffffffffffffffffffffff1681565b60008080549050905090565b600080fd5b600073ffffffffffffffffffffffffffffffffffffffff82169050919050565b6000610922826108f7565b9050919050565b600061093482610917565b9050919050565b61094481610929565b811461094f57600080fd5b50565b6000813590506109618161093b565b92915050565b60006020828403121561097d5761097c6108f2565b5b600061098b84828501610952565b91505092915050565b6000819050919050565b6109a781610994565b81146109b257600080fd5b50565b6000813590506109c48161099e565b92915050565b6000602082840312156109e0576109df6108f2565b5b60006109ee848285016109b5565b91505092915050565b6000819050919050565b6000610a1c610a17610a12846108f7565b6109f7565b6108f7565b9050919050565b6000610a2e82610a01565b9050919050565b6000610a4082610a23565b9050919050565b610a5081610a35565b82525050565b6000602082019050610a6b6000830184610a47565b92915050565b610a7a81610917565b8114610a8557600080fd5b50565b600081359050610a9781610a71565b92915050565b600060208284031215610ab357610ab26108f2565b5b6000610ac184828501610a88565b91505092915050565b610ad381610994565b82525050565b6000602082019050610aee6000830184610aca565b92915050565b610afd81610917565b82525050565b6000602082019050610b186000830184610af4565b92915050565b600081519050610b2d8161099e565b92915050565b600060208284031215610b4957610b486108f2565b5b6000610b5784828501610b1e565b91505092915050565b600082825260208201905092915050565b7f6f6e6c79546f6b656e486f6c646572733a2043616c6c657220646f6573206e6f60008201527f7420686f6c6420656e6f75676820746f6b656e73000000000000000000000000602082015250565b6000610bcd603483610b60565b9150610bd882610b71565b604082019050919050565b60006020820190508181036000830152610bfc81610bc0565b9050919050565b6000610c0e82610917565b9050919050565b610c1e81610c03565b8114610c2957600080fd5b50565b600081519050610c3b81610c15565b92915050565b600060208284031215610c5757610c566108f2565b5b6000610c6584828501610c2c565b91505092915050565b7f6164645661756c743a205661756c742077697468207468697320756e6465726c60008201527f79696e6720746f6b656e20616c72656164792061646465640000000000000000602082015250565b6000610cca603883610b60565b9150610cd582610c6e565b604082019050919050565b60006020820190508181036000830152610cf981610cbd565b9050919050565b7f6164644d61726b65743a204d61726b657420616c726561647920616464656400600082015250565b6000610d36601f83610b60565b9150610d4182610d00565b602082019050919050565b60006020820190508181036000830152610d6581610d29565b9050919050565b7f6f6e6c794f776e65723a2043616c6c6572206973206e6f742074686520636f6e60008201527f7472616374206f776e6572000000000000000000000000000000000000000000602082015250565b6000610dc8602b83610b60565b9150610dd382610d6c565b604082019050919050565b60006020820190508181036000830152610df781610dbb565b905091905056fea264697066735822122038f7f4e38b70b2b6ebb9b709665f134f06c68fd7d8e67ffedda8bdd60c8a1b5564736f6c634300080a0033",
  "devdoc": {
    "kind": "dev",
    "methods": {},
    "version": 1
  },
  "userdoc": {
    "kind": "user",
    "methods": {},
    "version": 1
  },
  "storageLayout": {
    "storage": [
      {
        "astId": 6219,
        "contract": "contracts/Registry.sol:Registry",
        "label": "markets",
        "offset": 0,
        "slot": "0",
        "type": "t_array(t_address)dyn_storage"
      },
      {
        "astId": 6223,
        "contract": "contracts/Registry.sol:Registry",
        "label": "vaults",
        "offset": 0,
        "slot": "1",
        "type": "t_array(t_contract(IVault)5231)dyn_storage"
      },
      {
        "astId": 6228,
        "contract": "contracts/Registry.sol:Registry",
        "label": "_underlying",
        "offset": 0,
        "slot": "2",
        "type": "t_mapping(t_address,t_contract(IVault)5231)"
      },
      {
        "astId": 6232,
        "contract": "contracts/Registry.sol:Registry",
        "label": "_markets",
        "offset": 0,
        "slot": "3",
        "type": "t_mapping(t_address,t_address)"
      },
      {
        "astId": 6239,
        "contract": "contracts/Registry.sol:Registry",
        "label": "_threshold",
        "offset": 0,
        "slot": "4",
        "type": "t_uint256"
      }
    ],
    "types": {
      "t_address": {
        "encoding": "inplace",
        "label": "address",
        "numberOfBytes": "20"
      },
      "t_array(t_address)dyn_storage": {
        "base": "t_address",
        "encoding": "dynamic_array",
        "label": "address[]",
        "numberOfBytes": "32"
      },
      "t_array(t_contract(IVault)5231)dyn_storage": {
        "base": "t_contract(IVault)5231",
        "encoding": "dynamic_array",
        "label": "contract IVault[]",
        "numberOfBytes": "32"
      },
      "t_contract(IVault)5231": {
        "encoding": "inplace",
        "label": "contract IVault",
        "numberOfBytes": "20"
      },
      "t_mapping(t_address,t_address)": {
        "encoding": "mapping",
        "key": "t_address",
        "label": "mapping(address => address)",
        "numberOfBytes": "32",
        "value": "t_address"
      },
      "t_mapping(t_address,t_contract(IVault)5231)": {
        "encoding": "mapping",
        "key": "t_address",
        "label": "mapping(address => contract IVault)",
        "numberOfBytes": "32",
        "value": "t_contract(IVault)5231"
      },
      "t_uint256": {
        "encoding": "inplace",
        "label": "uint256",
        "numberOfBytes": "32"
      }
    }
  }
}