{
  "address": "0x8C819De7999D903bD86D6B3bdf46c1E1a1D0F8A7",
  "abi": [
    {
      "inputs": [
        {
          "internalType": "contract IERC20Metadata",
          "name": "underlying",
          "type": "address"
        }
      ],
      "stateMutability": "nonpayable",
      "type": "constructor"
    },
    {
      "anonymous": false,
      "inputs": [
        {
          "indexed": true,
          "internalType": "address",
          "name": "owner",
          "type": "address"
        },
        {
          "indexed": true,
          "internalType": "address",
          "name": "spender",
          "type": "address"
        },
        {
          "indexed": false,
          "internalType": "uint256",
          "name": "value",
          "type": "uint256"
        }
      ],
      "name": "Approval",
      "type": "event"
    },
    {
      "anonymous": false,
      "inputs": [
        {
          "indexed": true,
          "internalType": "address",
          "name": "who",
          "type": "address"
        },
        {
          "indexed": false,
          "internalType": "uint256",
          "name": "value",
          "type": "uint256"
        }
      ],
      "name": "Deposit",
      "type": "event"
    },
    {
      "anonymous": false,
      "inputs": [
        {
          "indexed": true,
          "internalType": "address",
          "name": "previousOwner",
          "type": "address"
        },
        {
          "indexed": true,
          "internalType": "address",
          "name": "newOwner",
          "type": "address"
        }
      ],
      "name": "OwnershipTransferred",
      "type": "event"
    },
    {
      "anonymous": false,
      "inputs": [
        {
          "indexed": false,
          "internalType": "address",
          "name": "account",
          "type": "address"
        }
      ],
      "name": "Paused",
      "type": "event"
    },
    {
      "anonymous": false,
      "inputs": [
        {
          "indexed": true,
          "internalType": "bytes32",
          "name": "role",
          "type": "bytes32"
        },
        {
          "indexed": true,
          "internalType": "bytes32",
          "name": "previousAdminRole",
          "type": "bytes32"
        },
        {
          "indexed": true,
          "internalType": "bytes32",
          "name": "newAdminRole",
          "type": "bytes32"
        }
      ],
      "name": "RoleAdminChanged",
      "type": "event"
    },
    {
      "anonymous": false,
      "inputs": [
        {
          "indexed": true,
          "internalType": "bytes32",
          "name": "role",
          "type": "bytes32"
        },
        {
          "indexed": true,
          "internalType": "address",
          "name": "account",
          "type": "address"
        },
        {
          "indexed": true,
          "internalType": "address",
          "name": "sender",
          "type": "address"
        }
      ],
      "name": "RoleGranted",
      "type": "event"
    },
    {
      "anonymous": false,
      "inputs": [
        {
          "indexed": true,
          "internalType": "bytes32",
          "name": "role",
          "type": "bytes32"
        },
        {
          "indexed": true,
          "internalType": "address",
          "name": "account",
          "type": "address"
        },
        {
          "indexed": true,
          "internalType": "address",
          "name": "sender",
          "type": "address"
        }
      ],
      "name": "RoleRevoked",
      "type": "event"
    },
    {
      "anonymous": false,
      "inputs": [
        {
          "indexed": true,
          "internalType": "address",
          "name": "from",
          "type": "address"
        },
        {
          "indexed": true,
          "internalType": "address",
          "name": "to",
          "type": "address"
        },
        {
          "indexed": false,
          "internalType": "uint256",
          "name": "value",
          "type": "uint256"
        }
      ],
      "name": "Transfer",
      "type": "event"
    },
    {
      "anonymous": false,
      "inputs": [
        {
          "indexed": false,
          "internalType": "address",
          "name": "account",
          "type": "address"
        }
      ],
      "name": "Unpaused",
      "type": "event"
    },
    {
      "anonymous": false,
      "inputs": [
        {
          "indexed": true,
          "internalType": "address",
          "name": "who",
          "type": "address"
        },
        {
          "indexed": false,
          "internalType": "uint256",
          "name": "value",
          "type": "uint256"
        }
      ],
      "name": "Withdraw",
      "type": "event"
    },
    {
      "inputs": [],
      "name": "DEFAULT_ADMIN_ROLE",
      "outputs": [
        {
          "internalType": "bytes32",
          "name": "",
          "type": "bytes32"
        }
      ],
      "stateMutability": "view",
      "type": "function"
    },
    {
      "inputs": [],
      "name": "MINTER_ROLE",
      "outputs": [
        {
          "internalType": "bytes32",
          "name": "",
          "type": "bytes32"
        }
      ],
      "stateMutability": "view",
      "type": "function"
    },
    {
      "inputs": [],
      "name": "PAUSER_ROLE",
      "outputs": [
        {
          "internalType": "bytes32",
          "name": "",
          "type": "bytes32"
        }
      ],
      "stateMutability": "view",
      "type": "function"
    },
    {
      "inputs": [
        {
          "internalType": "address",
          "name": "owner",
          "type": "address"
        },
        {
          "internalType": "address",
          "name": "spender",
          "type": "address"
        }
      ],
      "name": "allowance",
      "outputs": [
        {
          "internalType": "uint256",
          "name": "",
          "type": "uint256"
        }
      ],
      "stateMutability": "view",
      "type": "function"
    },
    {
      "inputs": [
        {
          "internalType": "address",
          "name": "spender",
          "type": "address"
        },
        {
          "internalType": "uint256",
          "name": "amount",
          "type": "uint256"
        }
      ],
      "name": "approve",
      "outputs": [
        {
          "internalType": "bool",
          "name": "",
          "type": "bool"
        }
      ],
      "stateMutability": "nonpayable",
      "type": "function"
    },
    {
      "inputs": [],
      "name": "asset",
      "outputs": [
        {
          "internalType": "contract IERC20Metadata",
          "name": "assetTokenAddress",
          "type": "address"
        }
      ],
      "stateMutability": "view",
      "type": "function"
    },
    {
      "inputs": [
        {
          "internalType": "address",
          "name": "account",
          "type": "address"
        }
      ],
      "name": "balanceOf",
      "outputs": [
        {
          "internalType": "uint256",
          "name": "",
          "type": "uint256"
        }
      ],
      "stateMutability": "view",
      "type": "function"
    },
    {
      "inputs": [
        {
          "internalType": "uint256",
          "name": "amount",
          "type": "uint256"
        }
      ],
      "name": "burn",
      "outputs": [],
      "stateMutability": "nonpayable",
      "type": "function"
    },
    {
      "inputs": [
        {
          "internalType": "address",
          "name": "account",
          "type": "address"
        },
        {
          "internalType": "uint256",
          "name": "amount",
          "type": "uint256"
        }
      ],
      "name": "burnFrom",
      "outputs": [],
      "stateMutability": "nonpayable",
      "type": "function"
    },
    {
      "inputs": [
        {
          "internalType": "uint256",
          "name": "shares",
          "type": "uint256"
        }
      ],
      "name": "convertToAssets",
      "outputs": [
        {
          "internalType": "uint256",
          "name": "assets",
          "type": "uint256"
        }
      ],
      "stateMutability": "view",
      "type": "function"
    },
    {
      "inputs": [
        {
          "internalType": "uint256",
          "name": "assets",
          "type": "uint256"
        }
      ],
      "name": "convertToShares",
      "outputs": [
        {
          "internalType": "uint256",
          "name": "shares",
          "type": "uint256"
        }
      ],
      "stateMutability": "view",
      "type": "function"
    },
    {
      "inputs": [],
      "name": "decimals",
      "outputs": [
        {
          "internalType": "uint8",
          "name": "",
          "type": "uint8"
        }
      ],
      "stateMutability": "view",
      "type": "function"
    },
    {
      "inputs": [
        {
          "internalType": "address",
          "name": "spender",
          "type": "address"
        },
        {
          "internalType": "uint256",
          "name": "subtractedValue",
          "type": "uint256"
        }
      ],
      "name": "decreaseAllowance",
      "outputs": [
        {
          "internalType": "bool",
          "name": "",
          "type": "bool"
        }
      ],
      "stateMutability": "nonpayable",
      "type": "function"
    },
    {
      "inputs": [
        {
          "internalType": "uint256",
          "name": "assets",
          "type": "uint256"
        },
        {
          "internalType": "address",
          "name": "receiver",
          "type": "address"
        }
      ],
      "name": "deposit",
      "outputs": [
        {
          "internalType": "uint256",
          "name": "shares",
          "type": "uint256"
        }
      ],
      "stateMutability": "nonpayable",
      "type": "function"
    },
    {
      "inputs": [],
      "name": "getMarket",
      "outputs": [
        {
          "internalType": "address",
          "name": "",
          "type": "address"
        }
      ],
      "stateMutability": "view",
      "type": "function"
    },
    {
      "inputs": [],
      "name": "getPerformance",
      "outputs": [
        {
          "internalType": "uint256",
          "name": "",
          "type": "uint256"
        }
      ],
      "stateMutability": "view",
      "type": "function"
    },
    {
      "inputs": [
        {
          "internalType": "bytes32",
          "name": "role",
          "type": "bytes32"
        }
      ],
      "name": "getRoleAdmin",
      "outputs": [
        {
          "internalType": "bytes32",
          "name": "",
          "type": "bytes32"
        }
      ],
      "stateMutability": "view",
      "type": "function"
    },
    {
      "inputs": [
        {
          "internalType": "bytes32",
          "name": "role",
          "type": "bytes32"
        },
        {
          "internalType": "uint256",
          "name": "index",
          "type": "uint256"
        }
      ],
      "name": "getRoleMember",
      "outputs": [
        {
          "internalType": "address",
          "name": "",
          "type": "address"
        }
      ],
      "stateMutability": "view",
      "type": "function"
    },
    {
      "inputs": [
        {
          "internalType": "bytes32",
          "name": "role",
          "type": "bytes32"
        }
      ],
      "name": "getRoleMemberCount",
      "outputs": [
        {
          "internalType": "uint256",
          "name": "",
          "type": "uint256"
        }
      ],
      "stateMutability": "view",
      "type": "function"
    },
    {
      "inputs": [
        {
          "internalType": "bytes32",
          "name": "role",
          "type": "bytes32"
        },
        {
          "internalType": "address",
          "name": "account",
          "type": "address"
        }
      ],
      "name": "grantRole",
      "outputs": [],
      "stateMutability": "nonpayable",
      "type": "function"
    },
    {
      "inputs": [
        {
          "internalType": "bytes32",
          "name": "role",
          "type": "bytes32"
        },
        {
          "internalType": "address",
          "name": "account",
          "type": "address"
        }
      ],
      "name": "hasRole",
      "outputs": [
        {
          "internalType": "bool",
          "name": "",
          "type": "bool"
        }
      ],
      "stateMutability": "view",
      "type": "function"
    },
    {
      "inputs": [
        {
          "internalType": "address",
          "name": "spender",
          "type": "address"
        },
        {
          "internalType": "uint256",
          "name": "addedValue",
          "type": "uint256"
        }
      ],
      "name": "increaseAllowance",
      "outputs": [
        {
          "internalType": "bool",
          "name": "",
          "type": "bool"
        }
      ],
      "stateMutability": "nonpayable",
      "type": "function"
    },
    {
      "inputs": [
        {
          "internalType": "address",
          "name": "owner",
          "type": "address"
        }
      ],
      "name": "maxWithdraw",
      "outputs": [
        {
          "internalType": "uint256",
          "name": "maxAssets",
          "type": "uint256"
        }
      ],
      "stateMutability": "view",
      "type": "function"
    },
    {
      "inputs": [
        {
          "internalType": "address",
          "name": "to",
          "type": "address"
        },
        {
          "internalType": "uint256",
          "name": "amount",
          "type": "uint256"
        }
      ],
      "name": "mint",
      "outputs": [],
      "stateMutability": "nonpayable",
      "type": "function"
    },
    {
      "inputs": [],
      "name": "name",
      "outputs": [
        {
          "internalType": "string",
          "name": "",
          "type": "string"
        }
      ],
      "stateMutability": "view",
      "type": "function"
    },
    {
      "inputs": [],
      "name": "owner",
      "outputs": [
        {
          "internalType": "address",
          "name": "",
          "type": "address"
        }
      ],
      "stateMutability": "view",
      "type": "function"
    },
    {
      "inputs": [],
      "name": "pause",
      "outputs": [],
      "stateMutability": "nonpayable",
      "type": "function"
    },
    {
      "inputs": [],
      "name": "paused",
      "outputs": [
        {
          "internalType": "bool",
          "name": "",
          "type": "bool"
        }
      ],
      "stateMutability": "view",
      "type": "function"
    },
    {
      "inputs": [
        {
          "internalType": "uint256",
          "name": "assets",
          "type": "uint256"
        }
      ],
      "name": "previewWithdraw",
      "outputs": [
        {
          "internalType": "uint256",
          "name": "shares",
          "type": "uint256"
        }
      ],
      "stateMutability": "view",
      "type": "function"
    },
    {
      "inputs": [],
      "name": "renounceOwnership",
      "outputs": [],
      "stateMutability": "nonpayable",
      "type": "function"
    },
    {
      "inputs": [
        {
          "internalType": "bytes32",
          "name": "role",
          "type": "bytes32"
        },
        {
          "internalType": "address",
          "name": "account",
          "type": "address"
        }
      ],
      "name": "renounceRole",
      "outputs": [],
      "stateMutability": "nonpayable",
      "type": "function"
    },
    {
      "inputs": [
        {
          "internalType": "bytes32",
          "name": "role",
          "type": "bytes32"
        },
        {
          "internalType": "address",
          "name": "account",
          "type": "address"
        }
      ],
      "name": "revokeRole",
      "outputs": [],
      "stateMutability": "nonpayable",
      "type": "function"
    },
    {
      "inputs": [
        {
          "internalType": "address",
          "name": "market",
          "type": "address"
        },
        {
          "internalType": "uint256",
          "name": "max",
          "type": "uint256"
        }
      ],
      "name": "setMarket",
      "outputs": [],
      "stateMutability": "nonpayable",
      "type": "function"
    },
    {
      "inputs": [
        {
          "internalType": "bytes4",
          "name": "interfaceId",
          "type": "bytes4"
        }
      ],
      "name": "supportsInterface",
      "outputs": [
        {
          "internalType": "bool",
          "name": "",
          "type": "bool"
        }
      ],
      "stateMutability": "view",
      "type": "function"
    },
    {
      "inputs": [],
      "name": "symbol",
      "outputs": [
        {
          "internalType": "string",
          "name": "",
          "type": "string"
        }
      ],
      "stateMutability": "view",
      "type": "function"
    },
    {
      "inputs": [],
      "name": "totalAssets",
      "outputs": [
        {
          "internalType": "uint256",
          "name": "",
          "type": "uint256"
        }
      ],
      "stateMutability": "view",
      "type": "function"
    },
    {
      "inputs": [],
      "name": "totalSupply",
      "outputs": [
        {
          "internalType": "uint256",
          "name": "",
          "type": "uint256"
        }
      ],
      "stateMutability": "view",
      "type": "function"
    },
    {
      "inputs": [
        {
          "internalType": "address",
          "name": "to",
          "type": "address"
        },
        {
          "internalType": "uint256",
          "name": "amount",
          "type": "uint256"
        }
      ],
      "name": "transfer",
      "outputs": [
        {
          "internalType": "bool",
          "name": "",
          "type": "bool"
        }
      ],
      "stateMutability": "nonpayable",
      "type": "function"
    },
    {
      "inputs": [
        {
          "internalType": "address",
          "name": "from",
          "type": "address"
        },
        {
          "internalType": "address",
          "name": "to",
          "type": "address"
        },
        {
          "internalType": "uint256",
          "name": "amount",
          "type": "uint256"
        }
      ],
      "name": "transferFrom",
      "outputs": [
        {
          "internalType": "bool",
          "name": "",
          "type": "bool"
        }
      ],
      "stateMutability": "nonpayable",
      "type": "function"
    },
    {
      "inputs": [
        {
          "internalType": "address",
          "name": "newOwner",
          "type": "address"
        }
      ],
      "name": "transferOwnership",
      "outputs": [],
      "stateMutability": "nonpayable",
      "type": "function"
    },
    {
      "inputs": [],
      "name": "unpause",
      "outputs": [],
      "stateMutability": "nonpayable",
      "type": "function"
    },
    {
      "inputs": [
        {
          "internalType": "uint256",
          "name": "shares",
          "type": "uint256"
        }
      ],
      "name": "withdraw",
      "outputs": [],
      "stateMutability": "nonpayable",
      "type": "function"
    }
  ],
  "transactionHash": "0x0551a810107beed1b0e0b25d44668a4ab94247798bf343c598df8e38f5e4cdb4",
  "args": [
    "0xf2B7Ff29F36cD0b170BD0903d99dFEc518fbE94f"
  ],
  "numDeployments": 1,
  "solcInputHash": "450ee6b18ddda29b8d2a1e54c806e257",
  "bytecode": "0x60e06040523480156200001157600080fd5b50604051620055bb380380620055bb833981810160405281019062000037919062000879565b8073ffffffffffffffffffffffffffffffffffffffff166306fdde036040518163ffffffff1660e01b8152600401600060405180830381865afa15801562000083573d6000803e3d6000fd5b505050506040513d6000823e3d601f19601f82011682018060405250810190620000ae919062000a34565b604051602001620000c0919062000b22565b6040516020818303038152906040528173ffffffffffffffffffffffffffffffffffffffff166395d89b416040518163ffffffff1660e01b8152600401600060405180830381865afa1580156200011b573d6000803e3d6000fd5b505050506040513d6000823e3d601f19601f8201168201806040525081019062000146919062000a34565b60405160200162000158919062000b98565b6040516020818303038152906040528181620001896200017d620003e160201b60201c565b620003e960201b60201c565b8160069080519060200190620001a19291906200073c565b508060079080519060200190620001ba9291906200073c565b5050506000600860006101000a81548160ff021916908315150217905550620001fc6000801b620001f0620003e160201b60201c565b620004ad60201b60201c565b6200023d7f9f2df0fed2c77648de5860a4cc508cd0818c85b8b8a1ab4ceeef8d981c8956a662000231620003e160201b60201c565b620004ad60201b60201c565b6200027e7f65d7a28e3265b37a6474929f336521b332c1681b933f6cb9f3376673440d862a62000272620003e160201b60201c565b620004ad60201b60201c565b5050600073ffffffffffffffffffffffffffffffffffffffff168173ffffffffffffffffffffffffffffffffffffffff161415620002f3576040517f08c379a0000000000000000000000000000000000000000000000000000000008152600401620002ea9062000c1f565b60405180910390fd5b3073ffffffffffffffffffffffffffffffffffffffff1660a08173ffffffffffffffffffffffffffffffffffffffff16815250508073ffffffffffffffffffffffffffffffffffffffff1660808173ffffffffffffffffffffffffffffffffffffffff16815250508073ffffffffffffffffffffffffffffffffffffffff1663313ce5676040518163ffffffff1660e01b8152600401602060405180830381865afa158015620003a7573d6000803e3d6000fd5b505050506040513d601f19601f82011682018060405250810190620003cd919062000c7f565b60ff1660c08160ff16815250505062000d16565b600033905090565b60008060009054906101000a900473ffffffffffffffffffffffffffffffffffffffff169050816000806101000a81548173ffffffffffffffffffffffffffffffffffffffff021916908373ffffffffffffffffffffffffffffffffffffffff1602179055508173ffffffffffffffffffffffffffffffffffffffff168173ffffffffffffffffffffffffffffffffffffffff167f8be0079c531659141344cd1fd0a4f28419497f9722a3daafe3b4186f6b6457e060405160405180910390a35050565b620004bf8282620004c360201b60201c565b5050565b620004da82826200050b60201b620019261760201c565b620005068160026000858152602001908152602001600020620005fc60201b62001a061790919060201c565b505050565b6200051d82826200063460201b60201c565b620005f857600180600084815260200190815260200160002060000160008373ffffffffffffffffffffffffffffffffffffffff1673ffffffffffffffffffffffffffffffffffffffff16815260200190815260200160002060006101000a81548160ff0219169083151502179055506200059d620003e160201b60201c565b73ffffffffffffffffffffffffffffffffffffffff168173ffffffffffffffffffffffffffffffffffffffff16837f2f8788117e7eff1d82e926ec794901d17c78024a50270940304540a733656f0d60405160405180910390a45b5050565b60006200062c836000018373ffffffffffffffffffffffffffffffffffffffff1660001b6200069f60201b60201c565b905092915050565b60006001600084815260200190815260200160002060000160008373ffffffffffffffffffffffffffffffffffffffff1673ffffffffffffffffffffffffffffffffffffffff16815260200190815260200160002060009054906101000a900460ff16905092915050565b6000620006b383836200071960201b60201c565b6200070e57826000018290806001815401808255809150506001900390600052602060002001600090919091909150558260000180549050836001016000848152602001908152602001600020819055506001905062000713565b600090505b92915050565b600080836001016000848152602001908152602001600020541415905092915050565b8280546200074a9062000ce0565b90600052602060002090601f0160209004810192826200076e5760008555620007ba565b82601f106200078957805160ff1916838001178555620007ba565b82800160010185558215620007ba579182015b82811115620007b95782518255916020019190600101906200079c565b5b509050620007c99190620007cd565b5090565b5b80821115620007e8576000816000905550600101620007ce565b5090565b6000604051905090565b600080fd5b600080fd5b600073ffffffffffffffffffffffffffffffffffffffff82169050919050565b60006200082d8262000800565b9050919050565b6000620008418262000820565b9050919050565b620008538162000834565b81146200085f57600080fd5b50565b600081519050620008738162000848565b92915050565b600060208284031215620008925762000891620007f6565b5b6000620008a28482850162000862565b91505092915050565b600080fd5b600080fd5b6000601f19601f8301169050919050565b7f4e487b7100000000000000000000000000000000000000000000000000000000600052604160045260246000fd5b6200090082620008b5565b810181811067ffffffffffffffff82111715620009225762000921620008c6565b5b80604052505050565b600062000937620007ec565b9050620009458282620008f5565b919050565b600067ffffffffffffffff821115620009685762000967620008c6565b5b6200097382620008b5565b9050602081019050919050565b60005b83811015620009a057808201518184015260208101905062000983565b83811115620009b0576000848401525b50505050565b6000620009cd620009c7846200094a565b6200092b565b905082815260208101848484011115620009ec57620009eb620008b0565b5b620009f984828562000980565b509392505050565b600082601f83011262000a195762000a18620008ab565b5b815162000a2b848260208601620009b6565b91505092915050565b60006020828403121562000a4d5762000a4c620007f6565b5b600082015167ffffffffffffffff81111562000a6e5762000a6d620007fb565b5b62000a7c8482850162000a01565b91505092915050565b600081905092915050565b7f484c200000000000000000000000000000000000000000000000000000000000600082015250565b600062000ac860038362000a85565b915062000ad58262000a90565b600382019050919050565b600081519050919050565b600062000af88262000ae0565b62000b04818562000a85565b935062000b1681856020860162000980565b80840191505092915050565b600062000b2f8262000ab9565b915062000b3d828462000aeb565b915081905092915050565b7f484c000000000000000000000000000000000000000000000000000000000000600082015250565b600062000b8060028362000a85565b915062000b8d8262000b48565b600282019050919050565b600062000ba58262000b71565b915062000bb3828462000aeb565b915081905092915050565b600082825260208201905092915050565b7f556e6465726c79696e67206164647265737320697320696e76616c6964000000600082015250565b600062000c07601d8362000bbe565b915062000c148262000bcf565b602082019050919050565b6000602082019050818103600083015262000c3a8162000bf8565b9050919050565b600060ff82169050919050565b62000c598162000c41565b811462000c6557600080fd5b50565b60008151905062000c798162000c4e565b92915050565b60006020828403121562000c985762000c97620007f6565b5b600062000ca88482850162000c68565b91505092915050565b7f4e487b7100000000000000000000000000000000000000000000000000000000600052602260045260246000fd5b6000600282049050600182168062000cf957607f821691505b6020821081141562000d105762000d0f62000cb1565b5b50919050565b60805160a05160c05161482162000d9a6000396000610cd50152600081816110e601528181611a76015261271f015260008181610afd01528181610bc001528181610d80015281816110a90152818161116a015281816115ac01528181611a3a01528181611b7601528181611e3001528181611ece01526126e301526148216000f3fe608060405234801561001057600080fd5b506004361061025e5760003560e01c806370a0823111610146578063a457c2d7116100c3578063d539139311610087578063d539139314610771578063d547741f1461078f578063dd62ed3e146107ab578063e63ab1e9146107db578063f1be1679146107f9578063f2fde38b146108175761025e565b8063a457c2d714610681578063a9059cbb146106b1578063c6e6f592146106e1578063ca15c87314610711578063ce96cb77146107415761025e565b80639010d07c1161010a5780639010d07c146105c957806391d14854146105f957806395d89b4114610629578063a217fddf14610647578063a3947323146106655761025e565b806370a082311461054b578063715018a61461057b57806379cc6790146105855780638456cb59146105a15780638da5cb5b146105ab5761025e565b80632f2ff15d116101df5780633f4ba83a116101a35780633f4ba83a1461049d57806340c10f19146104a757806342966c68146104c357806342de4e9c146104df5780635c975abb146104fd5780636e553f651461051b5761025e565b80632f2ff15d146103f9578063313ce5671461041557806336568abe1461043357806338d52e0f1461044f578063395093511461046d5761025e565b80630a28a477116102265780630a28a4771461032f57806318160ddd1461035f57806323b872dd1461037d578063248a9ca3146103ad5780632e1a7d4d146103dd5761025e565b806301e1d1141461026357806301ffc9a71461028157806306fdde03146102b157806307a2d13a146102cf578063095ea7b3146102ff575b600080fd5b61026b610833565b604051610278919061313c565b60405180910390f35b61029b600480360381019061029691906131b4565b610842565b6040516102a891906131fc565b60405180910390f35b6102b96108bc565b6040516102c691906132b0565b60405180910390f35b6102e960048036038101906102e491906132fe565b61094e565b6040516102f6919061313c565b60405180910390f35b61031960048036038101906103149190613389565b610960565b60405161032691906131fc565b60405180910390f35b610349600480360381019061034491906132fe565b610983565b604051610356919061313c565b60405180910390f35b610367610995565b604051610374919061313c565b60405180910390f35b610397600480360381019061039291906133c9565b61099f565b6040516103a491906131fc565b60405180910390f35b6103c760048036038101906103c29190613452565b6109ce565b6040516103d4919061348e565b60405180910390f35b6103f760048036038101906103f291906132fe565b6109ee565b005b610413600480360381019061040e91906134a9565b610cb0565b005b61041d610cd1565b60405161042a9190613505565b60405180910390f35b61044d600480360381019061044891906134a9565b610cf9565b005b610457610d7c565b604051610464919061357f565b60405180910390f35b61048760048036038101906104829190613389565b610da4565b60405161049491906131fc565b60405180910390f35b6104a5610ddb565b005b6104c160048036038101906104bc9190613389565b610e55565b005b6104dd60048036038101906104d891906132fe565b610ed3565b005b6104e7610ee7565b6040516104f4919061313c565b60405180910390f35b610505610ef6565b60405161051291906131fc565b60405180910390f35b6105356004803603810190610530919061359a565b610f0d565b604051610542919061313c565b60405180910390f35b610565600480360381019061056091906135da565b61127d565b604051610572919061313c565b60405180910390f35b6105836112c6565b005b61059f600480360381019061059a9190613389565b6112da565b005b6105a96112fa565b005b6105b3611374565b6040516105c09190613616565b60405180910390f35b6105e360048036038101906105de9190613631565b61139d565b6040516105f09190613616565b60405180910390f35b610613600480360381019061060e91906134a9565b6113cc565b60405161062091906131fc565b60405180910390f35b610631611437565b60405161063e91906132b0565b60405180910390f35b61064f6114c9565b60405161065c919061348e565b60405180910390f35b61067f600480360381019061067a9190613389565b6114d0565b005b61069b60048036038101906106969190613389565b61166f565b6040516106a891906131fc565b60405180910390f35b6106cb60048036038101906106c69190613389565b6116e6565b6040516106d891906131fc565b60405180910390f35b6106fb60048036038101906106f691906132fe565b611709565b604051610708919061313c565b60405180910390f35b61072b60048036038101906107269190613452565b61171b565b604051610738919061313c565b60405180910390f35b61075b600480360381019061075691906135da565b61173f565b604051610768919061313c565b60405180910390f35b610779611788565b604051610786919061348e565b60405180910390f35b6107a960048036038101906107a491906134a9565b6117ac565b005b6107c560048036038101906107c09190613671565b6117cd565b6040516107d2919061313c565b60405180910390f35b6107e3611854565b6040516107f0919061348e565b60405180910390f35b610801611878565b60405161080e9190613616565b60405180910390f35b610831600480360381019061082c91906135da565b6118a2565b005b600061083d611a36565b905090565b60007f5a05180f000000000000000000000000000000000000000000000000000000007bffffffffffffffffffffffffffffffffffffffffffffffffffffffff1916827bffffffffffffffffffffffffffffffffffffffffffffffffffffffff191614806108b557506108b482611af7565b5b9050919050565b6060600680546108cb906136e0565b80601f01602080910402602001604051908101604052809291908181526020018280546108f7906136e0565b80156109445780601f1061091957610100808354040283529160200191610944565b820191906000526020600020905b81548152906001019060200180831161092757829003601f168201915b5050505050905090565b600061095982611b71565b9050919050565b60008061096b611c58565b9050610978818585611c60565b600191505092915050565b600061098e82611e2b565b9050919050565b6000600954905090565b6000806109aa611c58565b90506109b7858285611fb5565b6109c2858585612041565b60019150509392505050565b600060016000838152602001908152602001600020600101549050919050565b6000600a60003373ffffffffffffffffffffffffffffffffffffffff1673ffffffffffffffffffffffffffffffffffffffff16815260200190815260200160002054905081811015610a75576040517f08c379a0000000000000000000000000000000000000000000000000000000008152600401610a6c90613784565b60405180910390fd5b6000610a8083611e2b565b90508060096000828254610a9491906137d3565b9250508190555082600a60003373ffffffffffffffffffffffffffffffffffffffff1673ffffffffffffffffffffffffffffffffffffffff1681526020019081526020016000206000828254610aea91906137d3565b92505081905550610afb33846122c5565b7f000000000000000000000000000000000000000000000000000000000000000073ffffffffffffffffffffffffffffffffffffffff1663095ea7b3600c60009054906101000a900473ffffffffffffffffffffffffffffffffffffffff166009546040518363ffffffff1660e01b8152600401610b7a929190613807565b6020604051808303816000875af1158015610b99573d6000803e3d6000fd5b505050506040513d601f19601f82011682018060405250810190610bbd919061385c565b507f000000000000000000000000000000000000000000000000000000000000000073ffffffffffffffffffffffffffffffffffffffff1663a9059cbb33836040518363ffffffff1660e01b8152600401610c19929190613807565b6020604051808303816000875af1158015610c38573d6000803e3d6000fd5b505050506040513d601f19601f82011682018060405250810190610c5c919061385c565b503373ffffffffffffffffffffffffffffffffffffffff167f884edad9ce6fa2440d8a54cc123490eb96d2768479d49ff9c7366125a942436483604051610ca3919061313c565b60405180910390a2505050565b610cb9826109ce565b610cc28161249e565b610ccc83836124b2565b505050565b60007f0000000000000000000000000000000000000000000000000000000000000000905090565b610d01611c58565b73ffffffffffffffffffffffffffffffffffffffff168173ffffffffffffffffffffffffffffffffffffffff1614610d6e576040517f08c379a0000000000000000000000000000000000000000000000000000000008152600401610d65906138fb565b60405180910390fd5b610d7882826124e6565b5050565b60007f0000000000000000000000000000000000000000000000000000000000000000905090565b600080610daf611c58565b9050610dd0818585610dc185896117cd565b610dcb919061391b565b611c60565b600191505092915050565b610e0c7f65d7a28e3265b37a6474929f336521b332c1681b933f6cb9f3376673440d862a610e07611c58565b6113cc565b610e4b576040517f08c379a0000000000000000000000000000000000000000000000000000000008152600401610e42906139e3565b60405180910390fd5b610e5361251a565b565b610e867f9f2df0fed2c77648de5860a4cc508cd0818c85b8b8a1ab4ceeef8d981c8956a6610e81611c58565b6113cc565b610ec5576040517f08c379a0000000000000000000000000000000000000000000000000000000008152600401610ebc90613a75565b60405180910390fd5b610ecf828261257d565b5050565b610ee4610ede611c58565b826122c5565b50565b6000610ef16126de565b905090565b6000600860009054906101000a900460ff16905090565b60008073ffffffffffffffffffffffffffffffffffffffff16600c60009054906101000a900473ffffffffffffffffffffffffffffffffffffffff1673ffffffffffffffffffffffffffffffffffffffff161415610fa0576040517f08c379a0000000000000000000000000000000000000000000000000000000008152600401610f9790613b07565b60405180910390fd5b60008311610fe3576040517f08c379a0000000000000000000000000000000000000000000000000000000008152600401610fda90613b99565b60405180910390fd5b600073ffffffffffffffffffffffffffffffffffffffff168273ffffffffffffffffffffffffffffffffffffffff16141561102357611020611c58565b91505b61102c836127d1565b9050611038828261257d565b806009600082825461104a919061391b565b9250508190555080600a60003373ffffffffffffffffffffffffffffffffffffffff1673ffffffffffffffffffffffffffffffffffffffff16815260200190815260200160002060008282546110a0919061391b565b925050819055507f000000000000000000000000000000000000000000000000000000000000000073ffffffffffffffffffffffffffffffffffffffff166323b872dd837f0000000000000000000000000000000000000000000000000000000000000000866040518463ffffffff1660e01b815260040161112493929190613bb9565b6020604051808303816000875af1158015611143573d6000803e3d6000fd5b505050506040513d601f19601f82011682018060405250810190611167919061385c565b507f000000000000000000000000000000000000000000000000000000000000000073ffffffffffffffffffffffffffffffffffffffff1663095ea7b3600c60009054906101000a900473ffffffffffffffffffffffffffffffffffffffff16836040518363ffffffff1660e01b81526004016111e5929190613807565b6020604051808303816000875af1158015611204573d6000803e3d6000fd5b505050506040513d601f19601f82011682018060405250810190611228919061385c565b508173ffffffffffffffffffffffffffffffffffffffff167fe1fffcc4923d04b559f4d29a8bfc6cda04eb5b0d3c460751c2402c5c5cc9109c8460405161126f919061313c565b60405180910390a292915050565b6000600360008373ffffffffffffffffffffffffffffffffffffffff1673ffffffffffffffffffffffffffffffffffffffff168152602001908152602001600020549050919050565b6112ce612812565b6112d86000612890565b565b6112ec826112e6611c58565b83611fb5565b6112f682826122c5565b5050565b61132b7f65d7a28e3265b37a6474929f336521b332c1681b933f6cb9f3376673440d862a611326611c58565b6113cc565b61136a576040517f08c379a000000000000000000000000000000000000000000000000000000000815260040161136190613c62565b60405180910390fd5b611372612954565b565b60008060009054906101000a900473ffffffffffffffffffffffffffffffffffffffff16905090565b60006113c482600260008681526020019081526020016000206129b790919063ffffffff16565b905092915050565b60006001600084815260200190815260200160002060000160008373ffffffffffffffffffffffffffffffffffffffff1673ffffffffffffffffffffffffffffffffffffffff16815260200190815260200160002060009054906101000a900460ff16905092915050565b606060078054611446906136e0565b80601f0160208091040260200160405190810160405280929190818152602001828054611472906136e0565b80156114bf5780601f10611494576101008083540402835291602001916114bf565b820191906000526020600020905b8154815290600101906020018083116114a257829003601f168201915b5050505050905090565b6000801b81565b6114d8612812565b600073ffffffffffffffffffffffffffffffffffffffff16600c60009054906101000a900473ffffffffffffffffffffffffffffffffffffffff1673ffffffffffffffffffffffffffffffffffffffff1614611569576040517f08c379a000000000000000000000000000000000000000000000000000000000815260040161156090613cce565b60405180910390fd5b81600c60006101000a81548173ffffffffffffffffffffffffffffffffffffffff021916908373ffffffffffffffffffffffffffffffffffffffff1602179055507f000000000000000000000000000000000000000000000000000000000000000073ffffffffffffffffffffffffffffffffffffffff1663095ea7b3600c60009054906101000a900473ffffffffffffffffffffffffffffffffffffffff16836040518363ffffffff1660e01b8152600401611627929190613807565b6020604051808303816000875af1158015611646573d6000803e3d6000fd5b505050506040513d601f19601f8201168201806040525081019061166a919061385c565b505050565b60008061167a611c58565b9050600061168882866117cd565b9050838110156116cd576040517f08c379a00000000000000000000000000000000000000000000000000000000081526004016116c490613d60565b60405180910390fd5b6116da8286868403611c60565b60019250505092915050565b6000806116f1611c58565b90506116fe818585612041565b600191505092915050565b6000611714826127d1565b9050919050565b6000611738600260008481526020019081526020016000206129d1565b9050919050565b6000600a60008373ffffffffffffffffffffffffffffffffffffffff1673ffffffffffffffffffffffffffffffffffffffff168152602001908152602001600020549050919050565b7f9f2df0fed2c77648de5860a4cc508cd0818c85b8b8a1ab4ceeef8d981c8956a681565b6117b5826109ce565b6117be8161249e565b6117c883836124e6565b505050565b6000600460008473ffffffffffffffffffffffffffffffffffffffff1673ffffffffffffffffffffffffffffffffffffffff16815260200190815260200160002060008373ffffffffffffffffffffffffffffffffffffffff1673ffffffffffffffffffffffffffffffffffffffff16815260200190815260200160002054905092915050565b7f65d7a28e3265b37a6474929f336521b332c1681b933f6cb9f3376673440d862a81565b6000600c60009054906101000a900473ffffffffffffffffffffffffffffffffffffffff16905090565b6118aa612812565b600073ffffffffffffffffffffffffffffffffffffffff168173ffffffffffffffffffffffffffffffffffffffff16141561191a576040517f08c379a000000000000000000000000000000000000000000000000000000000815260040161191190613df2565b60405180910390fd5b61192381612890565b50565b61193082826113cc565b611a0257600180600084815260200190815260200160002060000160008373ffffffffffffffffffffffffffffffffffffffff1673ffffffffffffffffffffffffffffffffffffffff16815260200190815260200160002060006101000a81548160ff0219169083151502179055506119a7611c58565b73ffffffffffffffffffffffffffffffffffffffff168173ffffffffffffffffffffffffffffffffffffffff16837f2f8788117e7eff1d82e926ec794901d17c78024a50270940304540a733656f0d60405160405180910390a45b5050565b6000611a2e836000018373ffffffffffffffffffffffffffffffffffffffff1660001b6129e6565b905092915050565b60007f000000000000000000000000000000000000000000000000000000000000000073ffffffffffffffffffffffffffffffffffffffff166370a082317f00000000000000000000000000000000000000000000000000000000000000006040518263ffffffff1660e01b8152600401611ab19190613616565b602060405180830381865afa158015611ace573d6000803e3d6000fd5b505050506040513d601f19601f82011682018060405250810190611af29190613e27565b905090565b60007f7965db0b000000000000000000000000000000000000000000000000000000007bffffffffffffffffffffffffffffffffffffffffffffffffffffffff1916827bffffffffffffffffffffffffffffffffffffffffffffffffffffffff19161480611b6a5750611b6982612a56565b5b9050919050565b6000807f000000000000000000000000000000000000000000000000000000000000000073ffffffffffffffffffffffffffffffffffffffff166370a08231600c60009054906101000a900473ffffffffffffffffffffffffffffffffffffffff166040518263ffffffff1660e01b8152600401611bef9190613616565b602060405180830381865afa158015611c0c573d6000803e3d6000fd5b505050506040513d601f19601f82011682018060405250810190611c309190613e27565b905080611c3b611a36565b611c4591906137d3565b83611c509190613e83565b915050919050565b600033905090565b600073ffffffffffffffffffffffffffffffffffffffff168373ffffffffffffffffffffffffffffffffffffffff161415611cd0576040517f08c379a0000000000000000000000000000000000000000000000000000000008152600401611cc790613f26565b60405180910390fd5b600073ffffffffffffffffffffffffffffffffffffffff168273ffffffffffffffffffffffffffffffffffffffff161415611d40576040517f08c379a0000000000000000000000000000000000000000000000000000000008152600401611d3790613fb8565b60405180910390fd5b80600460008573ffffffffffffffffffffffffffffffffffffffff1673ffffffffffffffffffffffffffffffffffffffff16815260200190815260200160002060008473ffffffffffffffffffffffffffffffffffffffff1673ffffffffffffffffffffffffffffffffffffffff168152602001908152602001600020819055508173ffffffffffffffffffffffffffffffffffffffff168373ffffffffffffffffffffffffffffffffffffffff167f8c5be1e5ebec7d5bd14f71427d1e84f3dd0314c0f7b2291e5b200ac8c7c3b92583604051611e1e919061313c565b60405180910390a3505050565b6000807f000000000000000000000000000000000000000000000000000000000000000073ffffffffffffffffffffffffffffffffffffffff166370a08231306040518263ffffffff1660e01b8152600401611e879190613616565b602060405180830381865afa158015611ea4573d6000803e3d6000fd5b505050506040513d601f19601f82011682018060405250810190611ec89190613e27565b905060007f000000000000000000000000000000000000000000000000000000000000000073ffffffffffffffffffffffffffffffffffffffff166370a08231600c60009054906101000a900473ffffffffffffffffffffffffffffffffffffffff166040518263ffffffff1660e01b8152600401611f479190613616565b602060405180830381865afa158015611f64573d6000803e3d6000fd5b505050506040513d601f19601f82011682018060405250810190611f889190613e27565b90508082611f96919061391b565b8285611fa29190613fd8565b611fac9190613e83565b92505050919050565b6000611fc184846117cd565b90507fffffffffffffffffffffffffffffffffffffffffffffffffffffffffffffffff811461203b578181101561202d576040517f08c379a00000000000000000000000000000000000000000000000000000000081526004016120249061407e565b60405180910390fd5b61203a8484848403611c60565b5b50505050565b600073ffffffffffffffffffffffffffffffffffffffff168373ffffffffffffffffffffffffffffffffffffffff1614156120b1576040517f08c379a00000000000000000000000000000000000000000000000000000000081526004016120a890614110565b60405180910390fd5b600073ffffffffffffffffffffffffffffffffffffffff168273ffffffffffffffffffffffffffffffffffffffff161415612121576040517f08c379a0000000000000000000000000000000000000000000000000000000008152600401612118906141a2565b60405180910390fd5b61212c838383612ac0565b6000600360008573ffffffffffffffffffffffffffffffffffffffff1673ffffffffffffffffffffffffffffffffffffffff168152602001908152602001600020549050818110156121b3576040517f08c379a00000000000000000000000000000000000000000000000000000000081526004016121aa90614234565b60405180910390fd5b818103600360008673ffffffffffffffffffffffffffffffffffffffff1673ffffffffffffffffffffffffffffffffffffffff1681526020019081526020016000208190555081600360008573ffffffffffffffffffffffffffffffffffffffff1673ffffffffffffffffffffffffffffffffffffffff1681526020019081526020016000206000828254612248919061391b565b925050819055508273ffffffffffffffffffffffffffffffffffffffff168473ffffffffffffffffffffffffffffffffffffffff167fddf252ad1be2c89b69c2b068fc378daa952ba7f163c4a11628f55a4df523b3ef846040516122ac919061313c565b60405180910390a36122bf848484612ad0565b50505050565b600073ffffffffffffffffffffffffffffffffffffffff168273ffffffffffffffffffffffffffffffffffffffff161415612335576040517f08c379a000000000000000000000000000000000000000000000000000000000815260040161232c906142c6565b60405180910390fd5b61234182600083612ac0565b6000600360008473ffffffffffffffffffffffffffffffffffffffff1673ffffffffffffffffffffffffffffffffffffffff168152602001908152602001600020549050818110156123c8576040517f08c379a00000000000000000000000000000000000000000000000000000000081526004016123bf90614358565b60405180910390fd5b818103600360008573ffffffffffffffffffffffffffffffffffffffff1673ffffffffffffffffffffffffffffffffffffffff16815260200190815260200160002081905550816005600082825461242091906137d3565b92505081905550600073ffffffffffffffffffffffffffffffffffffffff168373ffffffffffffffffffffffffffffffffffffffff167fddf252ad1be2c89b69c2b068fc378daa952ba7f163c4a11628f55a4df523b3ef84604051612485919061313c565b60405180910390a361249983600084612ad0565b505050565b6124af816124aa611c58565b612ad5565b50565b6124bc8282611926565b6124e18160026000858152602001908152602001600020611a0690919063ffffffff16565b505050565b6124f08282612b72565b6125158160026000858152602001908152602001600020612c5490919063ffffffff16565b505050565b612522612c84565b6000600860006101000a81548160ff0219169083151502179055507f5db9ee0a495bf2e6ff9c91a7834c1ba4fdd244a5e8aa4e537bd38aeae4b073aa612566611c58565b6040516125739190613616565b60405180910390a1565b600073ffffffffffffffffffffffffffffffffffffffff168273ffffffffffffffffffffffffffffffffffffffff1614156125ed576040517f08c379a00000000000000000000000000000000000000000000000000000000081526004016125e4906143c4565b60405180910390fd5b6125f960008383612ac0565b806005600082825461260b919061391b565b9250508190555080600360008473ffffffffffffffffffffffffffffffffffffffff1673ffffffffffffffffffffffffffffffffffffffff1681526020019081526020016000206000828254612661919061391b565b925050819055508173ffffffffffffffffffffffffffffffffffffffff16600073ffffffffffffffffffffffffffffffffffffffff167fddf252ad1be2c89b69c2b068fc378daa952ba7f163c4a11628f55a4df523b3ef836040516126c6919061313c565b60405180910390a36126da60008383612ad0565b5050565b6000807f000000000000000000000000000000000000000000000000000000000000000073ffffffffffffffffffffffffffffffffffffffff166370a082317f00000000000000000000000000000000000000000000000000000000000000006040518263ffffffff1660e01b815260040161275a9190613616565b602060405180830381865afa158015612777573d6000803e3d6000fd5b505050506040513d601f19601f8201168201806040525081019061279b9190613e27565b905060008111156127c8578060646009546127b69190613fd8565b6127c09190613e83565b9150506127ce565b60009150505b90565b6000806127dc611a36565b14156127ea5781905061280d565b6127f2611a36565b600954836128009190613fd8565b61280a9190613e83565b90505b919050565b61281a611c58565b73ffffffffffffffffffffffffffffffffffffffff16612838611374565b73ffffffffffffffffffffffffffffffffffffffff161461288e576040517f08c379a000000000000000000000000000000000000000000000000000000000815260040161288590614430565b60405180910390fd5b565b60008060009054906101000a900473ffffffffffffffffffffffffffffffffffffffff169050816000806101000a81548173ffffffffffffffffffffffffffffffffffffffff021916908373ffffffffffffffffffffffffffffffffffffffff1602179055508173ffffffffffffffffffffffffffffffffffffffff168173ffffffffffffffffffffffffffffffffffffffff167f8be0079c531659141344cd1fd0a4f28419497f9722a3daafe3b4186f6b6457e060405160405180910390a35050565b61295c612ccd565b6001600860006101000a81548160ff0219169083151502179055507f62e78cea01bee320cd4e420270b5ea74000d11b0c9f74754ebdbfc544b05a2586129a0611c58565b6040516129ad9190613616565b60405180910390a1565b60006129c68360000183612d17565b60001c905092915050565b60006129df82600001612d42565b9050919050565b60006129f28383612d53565b612a4b578260000182908060018154018082558091505060019003906000526020600020016000909190919091505582600001805490508360010160008481526020019081526020016000208190555060019050612a50565b600090505b92915050565b60007f01ffc9a7000000000000000000000000000000000000000000000000000000007bffffffffffffffffffffffffffffffffffffffffffffffffffffffff1916827bffffffffffffffffffffffffffffffffffffffffffffffffffffffff1916149050919050565b612acb838383612d76565b505050565b505050565b612adf82826113cc565b612b6e57612b048173ffffffffffffffffffffffffffffffffffffffff166014612dce565b612b128360001c6020612dce565b604051602001612b23929190614524565b6040516020818303038152906040526040517f08c379a0000000000000000000000000000000000000000000000000000000008152600401612b6591906132b0565b60405180910390fd5b5050565b612b7c82826113cc565b15612c505760006001600084815260200190815260200160002060000160008373ffffffffffffffffffffffffffffffffffffffff1673ffffffffffffffffffffffffffffffffffffffff16815260200190815260200160002060006101000a81548160ff021916908315150217905550612bf5611c58565b73ffffffffffffffffffffffffffffffffffffffff168173ffffffffffffffffffffffffffffffffffffffff16837ff6391f5c32d9c69d2a47ea670b442974b53935d1edc7fd64eb21e047a839171b60405160405180910390a45b5050565b6000612c7c836000018373ffffffffffffffffffffffffffffffffffffffff1660001b61300a565b905092915050565b612c8c610ef6565b612ccb576040517f08c379a0000000000000000000000000000000000000000000000000000000008152600401612cc2906145aa565b60405180910390fd5b565b612cd5610ef6565b15612d15576040517f08c379a0000000000000000000000000000000000000000000000000000000008152600401612d0c90614616565b60405180910390fd5b565b6000826000018281548110612d2f57612d2e614636565b5b9060005260206000200154905092915050565b600081600001805490509050919050565b600080836001016000848152602001908152602001600020541415905092915050565b612d8183838361311e565b612d89610ef6565b15612dc9576040517f08c379a0000000000000000000000000000000000000000000000000000000008152600401612dc0906146d7565b60405180910390fd5b505050565b606060006002836002612de19190613fd8565b612deb919061391b565b67ffffffffffffffff811115612e0457612e036146f7565b5b6040519080825280601f01601f191660200182016040528015612e365781602001600182028036833780820191505090505b5090507f300000000000000000000000000000000000000000000000000000000000000081600081518110612e6e57612e6d614636565b5b60200101907effffffffffffffffffffffffffffffffffffffffffffffffffffffffffffff1916908160001a9053507f780000000000000000000000000000000000000000000000000000000000000081600181518110612ed257612ed1614636565b5b60200101907effffffffffffffffffffffffffffffffffffffffffffffffffffffffffffff1916908160001a90535060006001846002612f129190613fd8565b612f1c919061391b565b90505b6001811115612fbc577f3031323334353637383961626364656600000000000000000000000000000000600f861660108110612f5e57612f5d614636565b5b1a60f81b828281518110612f7557612f74614636565b5b60200101907effffffffffffffffffffffffffffffffffffffffffffffffffffffffffffff1916908160001a905350600485901c945080612fb590614726565b9050612f1f565b5060008414613000576040517f08c379a0000000000000000000000000000000000000000000000000000000008152600401612ff79061479c565b60405180910390fd5b8091505092915050565b6000808360010160008481526020019081526020016000205490506000811461311257600060018261303c91906137d3565b905060006001866000018054905061305491906137d3565b90508181146130c357600086600001828154811061307557613074614636565b5b906000526020600020015490508087600001848154811061309957613098614636565b5b90600052602060002001819055508387600101600083815260200190815260200160002081905550505b856000018054806130d7576130d66147bc565b5b600190038181906000526020600020016000905590558560010160008681526020019081526020016000206000905560019350505050613118565b60009150505b92915050565b505050565b6000819050919050565b61313681613123565b82525050565b6000602082019050613151600083018461312d565b92915050565b600080fd5b60007fffffffff0000000000000000000000000000000000000000000000000000000082169050919050565b6131918161315c565b811461319c57600080fd5b50565b6000813590506131ae81613188565b92915050565b6000602082840312156131ca576131c9613157565b5b60006131d88482850161319f565b91505092915050565b60008115159050919050565b6131f6816131e1565b82525050565b600060208201905061321160008301846131ed565b92915050565b600081519050919050565b600082825260208201905092915050565b60005b83811015613251578082015181840152602081019050613236565b83811115613260576000848401525b50505050565b6000601f19601f8301169050919050565b600061328282613217565b61328c8185613222565b935061329c818560208601613233565b6132a581613266565b840191505092915050565b600060208201905081810360008301526132ca8184613277565b905092915050565b6132db81613123565b81146132e657600080fd5b50565b6000813590506132f8816132d2565b92915050565b60006020828403121561331457613313613157565b5b6000613322848285016132e9565b91505092915050565b600073ffffffffffffffffffffffffffffffffffffffff82169050919050565b60006133568261332b565b9050919050565b6133668161334b565b811461337157600080fd5b50565b6000813590506133838161335d565b92915050565b600080604083850312156133a05761339f613157565b5b60006133ae85828601613374565b92505060206133bf858286016132e9565b9150509250929050565b6000806000606084860312156133e2576133e1613157565b5b60006133f086828701613374565b935050602061340186828701613374565b9250506040613412868287016132e9565b9150509250925092565b6000819050919050565b61342f8161341c565b811461343a57600080fd5b50565b60008135905061344c81613426565b92915050565b60006020828403121561346857613467613157565b5b60006134768482850161343d565b91505092915050565b6134888161341c565b82525050565b60006020820190506134a3600083018461347f565b92915050565b600080604083850312156134c0576134bf613157565b5b60006134ce8582860161343d565b92505060206134df85828601613374565b9150509250929050565b600060ff82169050919050565b6134ff816134e9565b82525050565b600060208201905061351a60008301846134f6565b92915050565b6000819050919050565b600061354561354061353b8461332b565b613520565b61332b565b9050919050565b60006135578261352a565b9050919050565b60006135698261354c565b9050919050565b6135798161355e565b82525050565b60006020820190506135946000830184613570565b92915050565b600080604083850312156135b1576135b0613157565b5b60006135bf858286016132e9565b92505060206135d085828601613374565b9150509250929050565b6000602082840312156135f0576135ef613157565b5b60006135fe84828501613374565b91505092915050565b6136108161334b565b82525050565b600060208201905061362b6000830184613607565b92915050565b6000806040838503121561364857613647613157565b5b60006136568582860161343d565b9250506020613667858286016132e9565b9150509250929050565b6000806040838503121561368857613687613157565b5b600061369685828601613374565b92505060206136a785828601613374565b9150509250929050565b7f4e487b7100000000000000000000000000000000000000000000000000000000600052602260045260246000fd5b600060028204905060018216806136f857607f821691505b6020821081141561370c5761370b6136b1565b5b50919050565b7f77697468647261773a20596f7520646f206e6f74206861766520656e6f75676860008201527f2073686172657300000000000000000000000000000000000000000000000000602082015250565b600061376e602783613222565b915061377982613712565b604082019050919050565b6000602082019050818103600083015261379d81613761565b9050919050565b7f4e487b7100000000000000000000000000000000000000000000000000000000600052601160045260246000fd5b60006137de82613123565b91506137e983613123565b9250828210156137fc576137fb6137a4565b5b828203905092915050565b600060408201905061381c6000830185613607565b613829602083018461312d565b9392505050565b613839816131e1565b811461384457600080fd5b50565b60008151905061385681613830565b92915050565b60006020828403121561387257613871613157565b5b600061388084828501613847565b91505092915050565b7f416363657373436f6e74726f6c3a2063616e206f6e6c792072656e6f756e636560008201527f20726f6c657320666f722073656c660000000000000000000000000000000000602082015250565b60006138e5602f83613222565b91506138f082613889565b604082019050919050565b60006020820190508181036000830152613914816138d8565b9050919050565b600061392682613123565b915061393183613123565b9250827fffffffffffffffffffffffffffffffffffffffffffffffffffffffffffffffff03821115613966576139656137a4565b5b828201905092915050565b7f45524332305072657365744d696e7465725061757365723a206d75737420686160008201527f76652070617573657220726f6c6520746f20756e706175736500000000000000602082015250565b60006139cd603983613222565b91506139d882613971565b604082019050919050565b600060208201905081810360008301526139fc816139c0565b9050919050565b7f45524332305072657365744d696e7465725061757365723a206d75737420686160008201527f7665206d696e74657220726f6c6520746f206d696e7400000000000000000000602082015250565b6000613a5f603683613222565b9150613a6a82613a03565b604082019050919050565b60006020820190508181036000830152613a8e81613a52565b9050919050565b7f6465706f7369743a204e6f7420616c6c6f77656420756e74696c206d61726b6560008201527f7420697320736574000000000000000000000000000000000000000000000000602082015250565b6000613af1602883613222565b9150613afc82613a95565b604082019050919050565b60006020820190508181036000830152613b2081613ae4565b9050919050565b7f6465706f7369743a2056616c7565206d7573742062652067726561746572207460008201527f68616e2030000000000000000000000000000000000000000000000000000000602082015250565b6000613b83602583613222565b9150613b8e82613b27565b604082019050919050565b60006020820190508181036000830152613bb281613b76565b9050919050565b6000606082019050613bce6000830186613607565b613bdb6020830185613607565b613be8604083018461312d565b949350505050565b7f45524332305072657365744d696e7465725061757365723a206d75737420686160008201527f76652070617573657220726f6c6520746f207061757365000000000000000000602082015250565b6000613c4c603783613222565b9150613c5782613bf0565b604082019050919050565b60006020820190508181036000830152613c7b81613c3f565b9050919050565b7f7365744d61726b65743a204d61726b657420616c726561647920736574000000600082015250565b6000613cb8601d83613222565b9150613cc382613c82565b602082019050919050565b60006020820190508181036000830152613ce781613cab565b9050919050565b7f45524332303a2064656372656173656420616c6c6f77616e63652062656c6f7760008201527f207a65726f000000000000000000000000000000000000000000000000000000602082015250565b6000613d4a602583613222565b9150613d5582613cee565b604082019050919050565b60006020820190508181036000830152613d7981613d3d565b9050919050565b7f4f776e61626c653a206e6577206f776e657220697320746865207a65726f206160008201527f6464726573730000000000000000000000000000000000000000000000000000602082015250565b6000613ddc602683613222565b9150613de782613d80565b604082019050919050565b60006020820190508181036000830152613e0b81613dcf565b9050919050565b600081519050613e21816132d2565b92915050565b600060208284031215613e3d57613e3c613157565b5b6000613e4b84828501613e12565b91505092915050565b7f4e487b7100000000000000000000000000000000000000000000000000000000600052601260045260246000fd5b6000613e8e82613123565b9150613e9983613123565b925082613ea957613ea8613e54565b5b828204905092915050565b7f45524332303a20617070726f76652066726f6d20746865207a65726f2061646460008201527f7265737300000000000000000000000000000000000000000000000000000000602082015250565b6000613f10602483613222565b9150613f1b82613eb4565b604082019050919050565b60006020820190508181036000830152613f3f81613f03565b9050919050565b7f45524332303a20617070726f766520746f20746865207a65726f20616464726560008201527f7373000000000000000000000000000000000000000000000000000000000000602082015250565b6000613fa2602283613222565b9150613fad82613f46565b604082019050919050565b60006020820190508181036000830152613fd181613f95565b9050919050565b6000613fe382613123565b9150613fee83613123565b9250817fffffffffffffffffffffffffffffffffffffffffffffffffffffffffffffffff0483118215151615614027576140266137a4565b5b828202905092915050565b7f45524332303a20696e73756666696369656e7420616c6c6f77616e6365000000600082015250565b6000614068601d83613222565b915061407382614032565b602082019050919050565b600060208201905081810360008301526140978161405b565b9050919050565b7f45524332303a207472616e736665722066726f6d20746865207a65726f20616460008201527f6472657373000000000000000000000000000000000000000000000000000000602082015250565b60006140fa602583613222565b91506141058261409e565b604082019050919050565b60006020820190508181036000830152614129816140ed565b9050919050565b7f45524332303a207472616e7366657220746f20746865207a65726f206164647260008201527f6573730000000000000000000000000000000000000000000000000000000000602082015250565b600061418c602383613222565b915061419782614130565b604082019050919050565b600060208201905081810360008301526141bb8161417f565b9050919050565b7f45524332303a207472616e7366657220616d6f756e742065786365656473206260008201527f616c616e63650000000000000000000000000000000000000000000000000000602082015250565b600061421e602683613222565b9150614229826141c2565b604082019050919050565b6000602082019050818103600083015261424d81614211565b9050919050565b7f45524332303a206275726e2066726f6d20746865207a65726f2061646472657360008201527f7300000000000000000000000000000000000000000000000000000000000000602082015250565b60006142b0602183613222565b91506142bb82614254565b604082019050919050565b600060208201905081810360008301526142df816142a3565b9050919050565b7f45524332303a206275726e20616d6f756e7420657863656564732062616c616e60008201527f6365000000000000000000000000000000000000000000000000000000000000602082015250565b6000614342602283613222565b915061434d826142e6565b604082019050919050565b6000602082019050818103600083015261437181614335565b9050919050565b7f45524332303a206d696e7420746f20746865207a65726f206164647265737300600082015250565b60006143ae601f83613222565b91506143b982614378565b602082019050919050565b600060208201905081810360008301526143dd816143a1565b9050919050565b7f4f776e61626c653a2063616c6c6572206973206e6f7420746865206f776e6572600082015250565b600061441a602083613222565b9150614425826143e4565b602082019050919050565b600060208201905081810360008301526144498161440d565b9050919050565b600081905092915050565b7f416363657373436f6e74726f6c3a206163636f756e7420000000000000000000600082015250565b6000614491601783614450565b915061449c8261445b565b601782019050919050565b60006144b282613217565b6144bc8185614450565b93506144cc818560208601613233565b80840191505092915050565b7f206973206d697373696e6720726f6c6520000000000000000000000000000000600082015250565b600061450e601183614450565b9150614519826144d8565b601182019050919050565b600061452f82614484565b915061453b82856144a7565b915061454682614501565b915061455282846144a7565b91508190509392505050565b7f5061757361626c653a206e6f7420706175736564000000000000000000000000600082015250565b6000614594601483613222565b915061459f8261455e565b602082019050919050565b600060208201905081810360008301526145c381614587565b9050919050565b7f5061757361626c653a2070617573656400000000000000000000000000000000600082015250565b6000614600601083613222565b915061460b826145ca565b602082019050919050565b6000602082019050818103600083015261462f816145f3565b9050919050565b7f4e487b7100000000000000000000000000000000000000000000000000000000600052603260045260246000fd5b7f45524332305061757361626c653a20746f6b656e207472616e7366657220776860008201527f696c652070617573656400000000000000000000000000000000000000000000602082015250565b60006146c1602a83613222565b91506146cc82614665565b604082019050919050565b600060208201905081810360008301526146f0816146b4565b9050919050565b7f4e487b7100000000000000000000000000000000000000000000000000000000600052604160045260246000fd5b600061473182613123565b91506000821415614745576147446137a4565b5b600182039050919050565b7f537472696e67733a20686578206c656e67746820696e73756666696369656e74600082015250565b6000614786602083613222565b915061479182614750565b602082019050919050565b600060208201905081810360008301526147b581614779565b9050919050565b7f4e487b7100000000000000000000000000000000000000000000000000000000600052603160045260246000fdfea264697066735822122015d309cc7a4c28dce839633aec599d295dd4faca8055ebe04ef8f20cf785ceab64736f6c634300080a0033",
  "devdoc": {
    "kind": "dev",
    "methods": {
      "allowance(address,address)": {
        "details": "See {IERC20-allowance}."
      },
      "approve(address,uint256)": {
        "details": "See {IERC20-approve}. NOTE: If `amount` is the maximum `uint256`, the allowance is not updated on `transferFrom`. This is semantically equivalent to an infinite approval. Requirements: - `spender` cannot be the zero address."
      },
      "balanceOf(address)": {
        "details": "See {IERC20-balanceOf}."
      },
      "burn(uint256)": {
        "details": "Destroys `amount` tokens from the caller. See {ERC20-_burn}."
      },
      "burnFrom(address,uint256)": {
        "details": "Destroys `amount` tokens from `account`, deducting from the caller's allowance. See {ERC20-_burn} and {ERC20-allowance}. Requirements: - the caller must have allowance for ``accounts``'s tokens of at least `amount`."
      },
      "decreaseAllowance(address,uint256)": {
        "details": "Atomically decreases the allowance granted to `spender` by the caller. This is an alternative to {approve} that can be used as a mitigation for problems described in {IERC20-approve}. Emits an {Approval} event indicating the updated allowance. Requirements: - `spender` cannot be the zero address. - `spender` must have allowance for the caller of at least `subtractedValue`."
      },
      "getRoleAdmin(bytes32)": {
        "details": "Returns the admin role that controls `role`. See {grantRole} and {revokeRole}. To change a role's admin, use {_setRoleAdmin}."
      },
      "getRoleMember(bytes32,uint256)": {
        "details": "Returns one of the accounts that have `role`. `index` must be a value between 0 and {getRoleMemberCount}, non-inclusive. Role bearers are not sorted in any particular way, and their ordering may change at any point. WARNING: When using {getRoleMember} and {getRoleMemberCount}, make sure you perform all queries on the same block. See the following https://forum.openzeppelin.com/t/iterating-over-elements-on-enumerableset-in-openzeppelin-contracts/2296[forum post] for more information."
      },
      "getRoleMemberCount(bytes32)": {
        "details": "Returns the number of accounts that have `role`. Can be used together with {getRoleMember} to enumerate all bearers of a role."
      },
      "grantRole(bytes32,address)": {
        "details": "Grants `role` to `account`. If `account` had not been already granted `role`, emits a {RoleGranted} event. Requirements: - the caller must have ``role``'s admin role. May emit a {RoleGranted} event."
      },
      "hasRole(bytes32,address)": {
        "details": "Returns `true` if `account` has been granted `role`."
      },
      "increaseAllowance(address,uint256)": {
        "details": "Atomically increases the allowance granted to `spender` by the caller. This is an alternative to {approve} that can be used as a mitigation for problems described in {IERC20-approve}. Emits an {Approval} event indicating the updated allowance. Requirements: - `spender` cannot be the zero address."
      },
      "mint(address,uint256)": {
        "details": "Creates `amount` new tokens for `to`. See {ERC20-_mint}. Requirements: - the caller must have the `MINTER_ROLE`."
      },
      "name()": {
        "details": "Returns the name of the token."
      },
      "owner()": {
        "details": "Returns the address of the current owner."
      },
      "pause()": {
        "details": "Pauses all token transfers. See {ERC20Pausable} and {Pausable-_pause}. Requirements: - the caller must have the `PAUSER_ROLE`."
      },
      "paused()": {
        "details": "Returns true if the contract is paused, and false otherwise."
      },
      "renounceOwnership()": {
        "details": "Leaves the contract without owner. It will not be possible to call `onlyOwner` functions anymore. Can only be called by the current owner. NOTE: Renouncing ownership will leave the contract without an owner, thereby removing any functionality that is only available to the owner."
      },
      "renounceRole(bytes32,address)": {
        "details": "Revokes `role` from the calling account. Roles are often managed via {grantRole} and {revokeRole}: this function's purpose is to provide a mechanism for accounts to lose their privileges if they are compromised (such as when a trusted device is misplaced). If the calling account had been revoked `role`, emits a {RoleRevoked} event. Requirements: - the caller must be `account`. May emit a {RoleRevoked} event."
      },
      "revokeRole(bytes32,address)": {
        "details": "Revokes `role` from `account`. If `account` had been granted `role`, emits a {RoleRevoked} event. Requirements: - the caller must have ``role``'s admin role. May emit a {RoleRevoked} event."
      },
      "supportsInterface(bytes4)": {
        "details": "See {IERC165-supportsInterface}."
      },
      "symbol()": {
        "details": "Returns the symbol of the token, usually a shorter version of the name."
      },
      "transfer(address,uint256)": {
        "details": "See {IERC20-transfer}. Requirements: - `to` cannot be the zero address. - the caller must have a balance of at least `amount`."
      },
      "transferFrom(address,address,uint256)": {
        "details": "See {IERC20-transferFrom}. Emits an {Approval} event indicating the updated allowance. This is not required by the EIP. See the note at the beginning of {ERC20}. NOTE: Does not update the allowance if the current allowance is the maximum `uint256`. Requirements: - `from` and `to` cannot be the zero address. - `from` must have a balance of at least `amount`. - the caller must have allowance for ``from``'s tokens of at least `amount`."
      },
      "transferOwnership(address)": {
        "details": "Transfers ownership of the contract to a new account (`newOwner`). Can only be called by the current owner."
      },
      "unpause()": {
        "details": "Unpauses all token transfers. See {ERC20Pausable} and {Pausable-_unpause}. Requirements: - the caller must have the `PAUSER_ROLE`."
      }
    },
    "version": 1
  },
  "userdoc": {
    "kind": "user",
    "methods": {},
    "version": 1
  },
  "storageLayout": {
    "storage": [
      {
        "astId": 2726,
        "contract": "contracts/Vault.sol:Vault",
        "label": "_owner",
        "offset": 0,
        "slot": "0",
        "type": "t_address"
      },
      {
        "astId": 2200,
        "contract": "contracts/Vault.sol:Vault",
        "label": "_roles",
        "offset": 0,
        "slot": "1",
        "type": "t_mapping(t_bytes32,t_struct(RoleData)2195_storage)"
      },
      {
        "astId": 2514,
        "contract": "contracts/Vault.sol:Vault",
        "label": "_roleMembers",
        "offset": 0,
        "slot": "2",
        "type": "t_mapping(t_bytes32,t_struct(AddressSet)4441_storage)"
      },
      {
        "astId": 2955,
        "contract": "contracts/Vault.sol:Vault",
        "label": "_balances",
        "offset": 0,
        "slot": "3",
        "type": "t_mapping(t_address,t_uint256)"
      },
      {
        "astId": 2961,
        "contract": "contracts/Vault.sol:Vault",
        "label": "_allowances",
        "offset": 0,
        "slot": "4",
        "type": "t_mapping(t_address,t_mapping(t_address,t_uint256))"
      },
      {
        "astId": 2963,
        "contract": "contracts/Vault.sol:Vault",
        "label": "_totalSupply",
        "offset": 0,
        "slot": "5",
        "type": "t_uint256"
      },
      {
        "astId": 2965,
        "contract": "contracts/Vault.sol:Vault",
        "label": "_name",
        "offset": 0,
        "slot": "6",
        "type": "t_string_storage"
      },
      {
        "astId": 2967,
        "contract": "contracts/Vault.sol:Vault",
        "label": "_symbol",
        "offset": 0,
        "slot": "7",
        "type": "t_string_storage"
      },
      {
        "astId": 2849,
        "contract": "contracts/Vault.sol:Vault",
        "label": "_paused",
        "offset": 0,
        "slot": "8",
        "type": "t_bool"
      },
      {
        "astId": 6587,
        "contract": "contracts/Vault.sol:Vault",
        "label": "_totalSupply",
        "offset": 0,
        "slot": "9",
        "type": "t_uint256"
      },
      {
        "astId": 6591,
        "contract": "contracts/Vault.sol:Vault",
        "label": "_balances",
        "offset": 0,
        "slot": "10",
        "type": "t_mapping(t_address,t_uint256)"
      },
      {
        "astId": 6595,
        "contract": "contracts/Vault.sol:Vault",
        "label": "_shares",
        "offset": 0,
        "slot": "11",
        "type": "t_mapping(t_address,t_uint256)"
      },
      {
        "astId": 6602,
        "contract": "contracts/Vault.sol:Vault",
        "label": "_market",
        "offset": 0,
        "slot": "12",
        "type": "t_address"
      }
    ],
    "types": {
      "t_address": {
        "encoding": "inplace",
        "label": "address",
        "numberOfBytes": "20"
      },
      "t_array(t_bytes32)dyn_storage": {
        "base": "t_bytes32",
        "encoding": "dynamic_array",
        "label": "bytes32[]",
        "numberOfBytes": "32"
      },
      "t_bool": {
        "encoding": "inplace",
        "label": "bool",
        "numberOfBytes": "1"
      },
      "t_bytes32": {
        "encoding": "inplace",
        "label": "bytes32",
        "numberOfBytes": "32"
      },
      "t_mapping(t_address,t_bool)": {
        "encoding": "mapping",
        "key": "t_address",
        "label": "mapping(address => bool)",
        "numberOfBytes": "32",
        "value": "t_bool"
      },
      "t_mapping(t_address,t_mapping(t_address,t_uint256))": {
        "encoding": "mapping",
        "key": "t_address",
        "label": "mapping(address => mapping(address => uint256))",
        "numberOfBytes": "32",
        "value": "t_mapping(t_address,t_uint256)"
      },
      "t_mapping(t_address,t_uint256)": {
        "encoding": "mapping",
        "key": "t_address",
        "label": "mapping(address => uint256)",
        "numberOfBytes": "32",
        "value": "t_uint256"
      },
      "t_mapping(t_bytes32,t_struct(AddressSet)4441_storage)": {
        "encoding": "mapping",
        "key": "t_bytes32",
        "label": "mapping(bytes32 => struct EnumerableSet.AddressSet)",
        "numberOfBytes": "32",
        "value": "t_struct(AddressSet)4441_storage"
      },
      "t_mapping(t_bytes32,t_struct(RoleData)2195_storage)": {
        "encoding": "mapping",
        "key": "t_bytes32",
        "label": "mapping(bytes32 => struct AccessControl.RoleData)",
        "numberOfBytes": "32",
        "value": "t_struct(RoleData)2195_storage"
      },
      "t_mapping(t_bytes32,t_uint256)": {
        "encoding": "mapping",
        "key": "t_bytes32",
        "label": "mapping(bytes32 => uint256)",
        "numberOfBytes": "32",
        "value": "t_uint256"
      },
      "t_string_storage": {
        "encoding": "bytes",
        "label": "string",
        "numberOfBytes": "32"
      },
      "t_struct(AddressSet)4441_storage": {
        "encoding": "inplace",
        "label": "struct EnumerableSet.AddressSet",
        "members": [
          {
            "astId": 4440,
            "contract": "contracts/Vault.sol:Vault",
            "label": "_inner",
            "offset": 0,
            "slot": "0",
            "type": "t_struct(Set)4140_storage"
          }
        ],
        "numberOfBytes": "64"
      },
      "t_struct(RoleData)2195_storage": {
        "encoding": "inplace",
        "label": "struct AccessControl.RoleData",
        "members": [
          {
            "astId": 2192,
            "contract": "contracts/Vault.sol:Vault",
            "label": "members",
            "offset": 0,
            "slot": "0",
            "type": "t_mapping(t_address,t_bool)"
          },
          {
            "astId": 2194,
            "contract": "contracts/Vault.sol:Vault",
            "label": "adminRole",
            "offset": 0,
            "slot": "1",
            "type": "t_bytes32"
          }
        ],
        "numberOfBytes": "64"
      },
      "t_struct(Set)4140_storage": {
        "encoding": "inplace",
        "label": "struct EnumerableSet.Set",
        "members": [
          {
            "astId": 4135,
            "contract": "contracts/Vault.sol:Vault",
            "label": "_values",
            "offset": 0,
            "slot": "0",
            "type": "t_array(t_bytes32)dyn_storage"
          },
          {
            "astId": 4139,
            "contract": "contracts/Vault.sol:Vault",
            "label": "_indexes",
            "offset": 0,
            "slot": "1",
            "type": "t_mapping(t_bytes32,t_uint256)"
          }
        ],
        "numberOfBytes": "64"
      },
      "t_uint256": {
        "encoding": "inplace",
        "label": "uint256",
        "numberOfBytes": "32"
      }
    }
  }
}