{
  "address": "0x01a79B603D923219203b8055ab29A09e68EfAB4c",
  "abi": [
    {
      "inputs": [
        {
          "internalType": "contract IERC20Metadata",
          "name": "token",
          "type": "address"
        }
      ],
      "stateMutability": "nonpayable",
      "type": "constructor"
    },
    {
      "anonymous": false,
      "inputs": [
        {
          "indexed": true,
          "internalType": "address",
          "name": "market",
          "type": "address"
        }
      ],
      "name": "MarketAdded",
      "type": "event"
    },
    {
      "anonymous": false,
      "inputs": [
        {
          "indexed": true,
          "internalType": "address",
          "name": "market",
          "type": "address"
        }
      ],
      "name": "MarketRemoved",
      "type": "event"
    },
    {
      "anonymous": false,
      "inputs": [
        {
          "indexed": false,
          "internalType": "uint256",
          "name": "threshold",
          "type": "uint256"
        }
      ],
      "name": "ThresholdUpdated",
      "type": "event"
    },
    {
      "anonymous": false,
      "inputs": [
        {
          "indexed": true,
          "internalType": "address",
          "name": "vault",
          "type": "address"
        }
      ],
      "name": "VaultAdded",
      "type": "event"
    },
    {
      "anonymous": false,
      "inputs": [
        {
          "indexed": true,
          "internalType": "address",
          "name": "vault",
          "type": "address"
        }
      ],
      "name": "VaultRemoved",
      "type": "event"
    },
    {
      "inputs": [
        {
          "internalType": "address",
          "name": "market",
          "type": "address"
        }
      ],
      "name": "addMarket",
      "outputs": [],
      "stateMutability": "nonpayable",
      "type": "function"
    },
    {
      "inputs": [
        {
          "internalType": "address",
          "name": "vault",
          "type": "address"
        }
      ],
      "name": "addVault",
      "outputs": [],
      "stateMutability": "nonpayable",
      "type": "function"
    },
    {
      "inputs": [],
      "name": "getOwner",
      "outputs": [
        {
          "internalType": "address",
          "name": "",
          "type": "address"
        }
      ],
      "stateMutability": "view",
      "type": "function"
    },
    {
      "inputs": [],
      "name": "getThreshold",
      "outputs": [
        {
          "internalType": "uint256",
          "name": "",
          "type": "uint256"
        }
      ],
      "stateMutability": "view",
      "type": "function"
    },
    {
      "inputs": [],
      "name": "marketCount",
      "outputs": [
        {
          "internalType": "uint256",
          "name": "",
          "type": "uint256"
        }
      ],
      "stateMutability": "view",
      "type": "function"
    },
    {
      "inputs": [
        {
          "internalType": "uint256",
          "name": "",
          "type": "uint256"
        }
      ],
      "name": "markets",
      "outputs": [
        {
          "internalType": "address",
          "name": "",
          "type": "address"
        }
      ],
      "stateMutability": "view",
      "type": "function"
    },
    {
      "inputs": [
        {
          "internalType": "uint256",
          "name": "index",
          "type": "uint256"
        }
      ],
      "name": "removeMarket",
      "outputs": [],
      "stateMutability": "nonpayable",
      "type": "function"
    },
    {
      "inputs": [
        {
          "internalType": "uint256",
          "name": "index",
          "type": "uint256"
        },
        {
          "internalType": "address",
          "name": "vault",
          "type": "address"
        }
      ],
      "name": "removeVault",
      "outputs": [],
      "stateMutability": "nonpayable",
      "type": "function"
    },
    {
      "inputs": [
        {
          "internalType": "uint256",
          "name": "threshold",
          "type": "uint256"
        }
      ],
      "name": "setThreshold",
      "outputs": [],
      "stateMutability": "nonpayable",
      "type": "function"
    },
    {
      "inputs": [],
      "name": "vaultCount",
      "outputs": [
        {
          "internalType": "uint256",
          "name": "",
          "type": "uint256"
        }
      ],
      "stateMutability": "view",
      "type": "function"
    },
    {
      "inputs": [
        {
          "internalType": "uint256",
          "name": "",
          "type": "uint256"
        }
      ],
      "name": "vaults",
      "outputs": [
        {
          "internalType": "address",
          "name": "",
          "type": "address"
        }
      ],
      "stateMutability": "view",
      "type": "function"
    }
  ],
  "transactionHash": "0x150c8f841f84c46c0f26255d9deb61b2710a80e3d2be1b1dd62ebc6c52456077",
  "args": [
    "0xB84C7f03cad664dA6762A4a6b0E8bDc829Cb8622"
  ],
  "numDeployments": 2,
  "solcInputHash": "2bc114e1fc3c794890126f24607bb28b",
  "bytecode": "0x60c060405234801561001057600080fd5b50604051610cc8380380610cc883398101604081905261002f91610044565b336080526001600160a01b031660a052610074565b60006020828403121561005657600080fd5b81516001600160a01b038116811461006d57600080fd5b9392505050565b60805160a051610c2961009f60003960006103e001526000818160eb015261096f0152610c296000f3fe608060405234801561001057600080fd5b50600436106100a95760003560e01c806393e306331161007157806393e306331461013b578063960bfe041461014e578063a7c6a10014610161578063b1283e7714610173578063e75235b814610186578063ec9790821461018e57600080fd5b8063054660e6146100ae578063256b5a02146100c35780632dad2999146100d6578063893d20e8146100e95780638c64ea4a14610128575b600080fd5b6100c16100bc366004610a98565b610196565b005b6100c16100d1366004610ac9565b6103bc565b6100c16100e4366004610aed565b610646565b7f00000000000000000000000000000000000000000000000000000000000000005b6040516001600160a01b0390911681526020015b60405180910390f35b61010b610136366004610a98565b610848565b6100c1610149366004610ac9565b610872565b6100c161015c366004610a98565b610964565b6001545b60405190815260200161011f565b61010b610181366004610a98565b610a88565b600454610165565b600054610165565b60005481106101a25750565b60008082815481106101b6576101b6610b1d565b6000918252602091829020015460408051631127a41d60e31b815290516001600160a01b0390921693503392849263893d20e89260048082019392918290030181865afa15801561020b573d6000803e3d6000fd5b505050506040513d601f19601f8201168201806040525081019061022f9190610b33565b6001600160a01b03161461029f5760405162461bcd60e51b815260206004820152602c60248201527f72656d6f76654d61726b65743a2043616c6c6572206973206e6f74207468652060448201526b36b0b935b2ba1037bbb732b960a11b60648201526084015b60405180910390fd5b815b6000546102b090600190610b66565b8110156103395760006102c4826001610b7d565b815481106102d4576102d4610b1d565b600091825260208220015481546001600160a01b039091169190839081106102fe576102fe610b1d565b600091825260209091200180546001600160a01b0319166001600160a01b03929092169190911790558061033181610b95565b9150506102a1565b50600080548061034b5761034b610bae565b60008281526020808220830160001990810180546001600160a01b031990811690915593019093556001600160a01b03841680825260039093526040808220805490931690925590517f59d7b1e52008dc342c9421dadfc773114b914a65682a4e4b53cf60a970df0d779190a25050565b600480546040516370a0823160e01b81523392810192909252906001600160a01b037f000000000000000000000000000000000000000000000000000000000000000016906370a0823190602401602060405180830381865afa158015610427573d6000803e3d6000fd5b505050506040513d601f19601f8201168201806040525081019061044b9190610bc4565b10156104b65760405162461bcd60e51b815260206004820152603460248201527f6f6e6c79546f6b656e486f6c646572733a2043616c6c657220646f6573206e6f6044820152737420686f6c6420656e6f75676820746f6b656e7360601b6064820152608401610296565b6001600160a01b0381166104cc576104cc610bdd565b6000816001600160a01b03166338d52e0f6040518163ffffffff1660e01b8152600401602060405180830381865afa15801561050c573d6000803e3d6000fd5b505050506040513d601f19601f820116820180604052508101906105309190610b33565b6001600160a01b0380821660009081526002602052604090205491925016156105b75760405162461bcd60e51b815260206004820152603360248201527f6164645661756c743a205661756c7420776974682074686973206173736574206044820152721d1bdad95b88185b1c9958591e481859191959606a1b6064820152608401610296565b600180548082019091557fb10e2d527612073b26eecdfd717e6a320cf44b4afac2b0732d9fcbe2b7fa0cf60180546001600160a01b038085166001600160a01b0319928316811790935583166000908152600260205260408082208054909316841790925590517f7b7ef7a864d96a85497a1ed846adb39940dd6ccef678ff6ac8d55505e09b8cc49190a25050565b80336001600160a01b0316816001600160a01b031663893d20e86040518163ffffffff1660e01b8152600401602060405180830381865afa15801561068f573d6000803e3d6000fd5b505050506040513d601f19601f820116820180604052508101906106b39190610b33565b6001600160a01b03161461071f5760405162461bcd60e51b815260206004820152602d60248201527f6f6e6c795661756c744f776e65723a2043616c6c6572206973206e6f7420746860448201526c32903b30bab63a1037bbb732b960991b6064820152608401610296565b60015483101561084357825b600180546107399190610b66565b8110156107c357600161074c8282610b7d565b8154811061075c5761075c610b1d565b600091825260209091200154600180546001600160a01b03909216918390811061078857610788610b1d565b600091825260209091200180546001600160a01b0319166001600160a01b0392909216919091179055806107bb81610b95565b91505061072b565b5060018054806107d5576107d5610bae565b60008281526020808220830160001990810180546001600160a01b031990811690915593019093556001600160a01b03851680825260029093526040808220805490931690925590517fe71f3a50e5ad81964f352c411f1d45e35438ecd1acecef59ac81d9fbbf6cbc0a9190a25b505050565b6001818154811061085857600080fd5b6000918252602090912001546001600160a01b0316905081565b6001600160a01b0381811660009081526003602052604090205416156108da5760405162461bcd60e51b815260206004820152601f60248201527f6164644d61726b65743a204d61726b657420616c7265616479206164646564006044820152606401610296565b6001600160a01b03811660008181526003602052604080822080546001600160a01b0319908116851790915582546001810184558380527f290decd9548b62a8d60345a988386fc84ba6bc95484008f6362f93160ef3e56301805490911684179055517fbc600b1f03d316c479b49930c28e328809316458d5b5dacbb7419df5f6f896479190a250565b336001600160a01b037f000000000000000000000000000000000000000000000000000000000000000016146109f05760405162461bcd60e51b815260206004820152602b60248201527f6f6e6c794f776e65723a2043616c6c6572206973206e6f742074686520636f6e60448201526a3a3930b1ba1037bbb732b960a91b6064820152608401610296565b6004548103610a4d5760405162461bcd60e51b815260206004820152602360248201527f7365745468726573686f6c643a205468726573686f6c6420616c7265616479206044820152621cd95d60ea1b6064820152608401610296565b60048190556040518181527fadfa8ecb21b6962ebcd0adbd9ab985b7b4c5b5eb3b0dead683171565c7bfe1719060200160405180910390a150565b6000818154811061085857600080fd5b600060208284031215610aaa57600080fd5b5035919050565b6001600160a01b0381168114610ac657600080fd5b50565b600060208284031215610adb57600080fd5b8135610ae681610ab1565b9392505050565b60008060408385031215610b0057600080fd5b823591506020830135610b1281610ab1565b809150509250929050565b634e487b7160e01b600052603260045260246000fd5b600060208284031215610b4557600080fd5b8151610ae681610ab1565b634e487b7160e01b600052601160045260246000fd5b600082821015610b7857610b78610b50565b500390565b60008219821115610b9057610b90610b50565b500190565b600060018201610ba757610ba7610b50565b5060010190565b634e487b7160e01b600052603160045260246000fd5b600060208284031215610bd657600080fd5b5051919050565b634e487b7160e01b600052600160045260246000fdfea26469706673582212204298a780b9f1da8e52a5765aec7bf60bde55cc7ce31f4876077336d10d37fa2664736f6c634300080f0033",
  "devdoc": {
    "kind": "dev",
    "methods": {},
    "version": 1
  },
  "userdoc": {
    "kind": "user",
    "methods": {},
    "version": 1
  },
  "storageLayout": {
    "storage": [
      {
        "astId": 13209,
        "contract": "contracts/Registry.sol:Registry",
        "label": "markets",
        "offset": 0,
        "slot": "0",
        "type": "t_array(t_address)dyn_storage"
      },
      {
        "astId": 13212,
        "contract": "contracts/Registry.sol:Registry",
        "label": "vaults",
        "offset": 0,
        "slot": "1",
        "type": "t_array(t_address)dyn_storage"
      },
      {
        "astId": 13216,
        "contract": "contracts/Registry.sol:Registry",
        "label": "_vaultByAsset",
        "offset": 0,
        "slot": "2",
        "type": "t_mapping(t_address,t_address)"
      },
      {
        "astId": 13220,
        "contract": "contracts/Registry.sol:Registry",
        "label": "_markets",
        "offset": 0,
        "slot": "3",
        "type": "t_mapping(t_address,t_address)"
      },
      {
        "astId": 13227,
        "contract": "contracts/Registry.sol:Registry",
        "label": "_threshold",
        "offset": 0,
        "slot": "4",
        "type": "t_uint256"
      }
    ],
    "types": {
      "t_address": {
        "encoding": "inplace",
        "label": "address",
        "numberOfBytes": "20"
      },
      "t_array(t_address)dyn_storage": {
        "base": "t_address",
        "encoding": "dynamic_array",
        "label": "address[]",
        "numberOfBytes": "32"
      },
      "t_mapping(t_address,t_address)": {
        "encoding": "mapping",
        "key": "t_address",
        "label": "mapping(address => address)",
        "numberOfBytes": "32",
        "value": "t_address"
      },
      "t_uint256": {
        "encoding": "inplace",
        "label": "uint256",
        "numberOfBytes": "32"
      }
    }
  }
}