{
  "address": "0x0b0621a6fA780A12E272727cC1aca57b842596C5",
  "abi": [
    {
      "inputs": [
        {
          "internalType": "contract IERC20Metadata",
          "name": "token",
          "type": "address"
        }
      ],
      "stateMutability": "nonpayable",
      "type": "constructor"
    },
    {
      "anonymous": false,
      "inputs": [
        {
          "indexed": true,
          "internalType": "address",
          "name": "market",
          "type": "address"
        }
      ],
      "name": "MarketAdded",
      "type": "event"
    },
    {
      "anonymous": false,
      "inputs": [
        {
          "indexed": true,
          "internalType": "address",
          "name": "market",
          "type": "address"
        }
      ],
      "name": "MarketRemoved",
      "type": "event"
    },
    {
      "anonymous": false,
      "inputs": [
        {
          "indexed": false,
          "internalType": "uint256",
          "name": "threshold",
          "type": "uint256"
        }
      ],
      "name": "ThresholdUpdated",
      "type": "event"
    },
    {
      "anonymous": false,
      "inputs": [
        {
          "indexed": true,
          "internalType": "address",
          "name": "vault",
          "type": "address"
        }
      ],
      "name": "VaultAdded",
      "type": "event"
    },
    {
      "anonymous": false,
      "inputs": [
        {
          "indexed": true,
          "internalType": "address",
          "name": "vault",
          "type": "address"
        }
      ],
      "name": "VaultRemoved",
      "type": "event"
    },
    {
      "inputs": [
        {
          "internalType": "address",
          "name": "market",
          "type": "address"
        }
      ],
      "name": "addMarket",
      "outputs": [],
      "stateMutability": "nonpayable",
      "type": "function"
    },
    {
      "inputs": [
        {
          "internalType": "address",
          "name": "vault",
          "type": "address"
        }
      ],
      "name": "addVault",
      "outputs": [],
      "stateMutability": "nonpayable",
      "type": "function"
    },
    {
      "inputs": [],
      "name": "getOwner",
      "outputs": [
        {
          "internalType": "address",
          "name": "",
          "type": "address"
        }
      ],
      "stateMutability": "view",
      "type": "function"
    },
    {
      "inputs": [],
      "name": "marketCount",
      "outputs": [
        {
          "internalType": "uint256",
          "name": "",
          "type": "uint256"
        }
      ],
      "stateMutability": "view",
      "type": "function"
    },
    {
      "inputs": [
        {
          "internalType": "uint256",
          "name": "",
          "type": "uint256"
        }
      ],
      "name": "markets",
      "outputs": [
        {
          "internalType": "address",
          "name": "",
          "type": "address"
        }
      ],
      "stateMutability": "view",
      "type": "function"
    },
    {
      "inputs": [
        {
          "internalType": "uint256",
          "name": "index",
          "type": "uint256"
        }
      ],
      "name": "removeMarket",
      "outputs": [],
      "stateMutability": "nonpayable",
      "type": "function"
    },
    {
      "inputs": [
        {
          "internalType": "uint256",
          "name": "index",
          "type": "uint256"
        },
        {
          "internalType": "address",
          "name": "vault",
          "type": "address"
        }
      ],
      "name": "removeVault",
      "outputs": [],
      "stateMutability": "nonpayable",
      "type": "function"
    },
    {
      "inputs": [
        {
          "internalType": "uint256",
          "name": "threshold",
          "type": "uint256"
        }
      ],
      "name": "setThreshold",
      "outputs": [],
      "stateMutability": "nonpayable",
      "type": "function"
    },
    {
      "inputs": [],
      "name": "vaultCount",
      "outputs": [
        {
          "internalType": "uint256",
          "name": "",
          "type": "uint256"
        }
      ],
      "stateMutability": "view",
      "type": "function"
    },
    {
      "inputs": [
        {
          "internalType": "uint256",
          "name": "",
          "type": "uint256"
        }
      ],
      "name": "vaults",
      "outputs": [
        {
          "internalType": "address",
          "name": "",
          "type": "address"
        }
      ],
      "stateMutability": "view",
      "type": "function"
    }
  ],
  "transactionHash": "0xd960c2eb7fd8fadd2bbadf67ece217ac06afc2c521f1222184c47894c1ef6593",
  "args": [
    "0xB84C7f03cad664dA6762A4a6b0E8bDc829Cb8622"
  ],
  "numDeployments": 1,
  "solcInputHash": "1491c58271b6254aed8f693018d1ccfa",
  "bytecode": "0x60c060405234801561001057600080fd5b50604051610d70380380610d7083398101604081905261002f91610044565b336080526001600160a01b031660a052610074565b60006020828403121561005657600080fd5b81516001600160a01b038116811461006d57600080fd5b9392505050565b60805160a051610cca6100a6600039600081816103cd015261083601526000818160e001526109bc0152610cca6000f3fe608060405234801561001057600080fd5b506004361061009e5760003560e01c806393e306331161006657806393e3063314610130578063960bfe0414610143578063a7c6a10014610156578063b1283e7714610168578063ec9790821461017b57600080fd5b8063054660e6146100a3578063256b5a02146100b85780632dad2999146100cb578063893d20e8146100de5780638c64ea4a1461011d575b600080fd5b6100b66100b1366004610ae5565b610183565b005b6100b66100c6366004610b16565b6103a9565b6100b66100d9366004610b3a565b6105e6565b7f00000000000000000000000000000000000000000000000000000000000000005b6040516001600160a01b0390911681526020015b60405180910390f35b61010061012b366004610ae5565b6107e8565b6100b661013e366004610b16565b610812565b6100b6610151366004610ae5565b6109b1565b6001545b604051908152602001610114565b610100610176366004610ae5565b610ad5565b60005461015a565b600054811061018f5750565b60008082815481106101a3576101a3610b6a565b6000918252602091829020015460408051631127a41d60e31b815290516001600160a01b0390921693503392849263893d20e89260048082019392918290030181865afa1580156101f8573d6000803e3d6000fd5b505050506040513d601f19601f8201168201806040525081019061021c9190610b80565b6001600160a01b03161461028c5760405162461bcd60e51b815260206004820152602c60248201527f72656d6f76654d61726b65743a2043616c6c6572206973206e6f74207468652060448201526b36b0b935b2ba1037bbb732b960a11b60648201526084015b60405180910390fd5b815b60005461029d90600190610bb3565b8110156103265760006102b1826001610bca565b815481106102c1576102c1610b6a565b600091825260208220015481546001600160a01b039091169190839081106102eb576102eb610b6a565b600091825260209091200180546001600160a01b0319166001600160a01b03929092169190911790558061031e81610be2565b91505061028e565b50600080548061033857610338610bfb565b60008281526020808220830160001990810180546001600160a01b031990811690915593019093556001600160a01b03841680825260039093526040808220805490931690925590517f59d7b1e52008dc342c9421dadfc773114b914a65682a4e4b53cf60a970df0d779190a25050565b600480546040516370a0823160e01b81523392810192909252906001600160a01b037f000000000000000000000000000000000000000000000000000000000000000016906370a0823190602401602060405180830381865afa158015610414573d6000803e3d6000fd5b505050506040513d601f19601f820116820180604052508101906104389190610c11565b10156104565760405162461bcd60e51b815260040161028390610c2a565b6001600160a01b03811661046c5761046c610c7e565b6000816001600160a01b03166338d52e0f6040518163ffffffff1660e01b8152600401602060405180830381865afa1580156104ac573d6000803e3d6000fd5b505050506040513d601f19601f820116820180604052508101906104d09190610b80565b6001600160a01b0380821660009081526002602052604090205491925016156105575760405162461bcd60e51b815260206004820152603360248201527f6164645661756c743a205661756c7420776974682074686973206173736574206044820152721d1bdad95b88185b1c9958591e481859191959606a1b6064820152608401610283565b600180548082019091557fb10e2d527612073b26eecdfd717e6a320cf44b4afac2b0732d9fcbe2b7fa0cf60180546001600160a01b038085166001600160a01b0319928316811790935583166000908152600260205260408082208054909316841790925590517f7b7ef7a864d96a85497a1ed846adb39940dd6ccef678ff6ac8d55505e09b8cc49190a25050565b80336001600160a01b0316816001600160a01b031663893d20e86040518163ffffffff1660e01b8152600401602060405180830381865afa15801561062f573d6000803e3d6000fd5b505050506040513d601f19601f820116820180604052508101906106539190610b80565b6001600160a01b0316146106bf5760405162461bcd60e51b815260206004820152602d60248201527f6f6e6c795661756c744f776e65723a2043616c6c6572206973206e6f7420746860448201526c32903b30bab63a1037bbb732b960991b6064820152608401610283565b6001548310156107e357825b600180546106d99190610bb3565b8110156107635760016106ec8282610bca565b815481106106fc576106fc610b6a565b600091825260209091200154600180546001600160a01b03909216918390811061072857610728610b6a565b600091825260209091200180546001600160a01b0319166001600160a01b03929092169190911790558061075b81610be2565b9150506106cb565b50600180548061077557610775610bfb565b60008281526020808220830160001990810180546001600160a01b031990811690915593019093556001600160a01b03851680825260029093526040808220805490931690925590517fe71f3a50e5ad81964f352c411f1d45e35438ecd1acecef59ac81d9fbbf6cbc0a9190a25b505050565b600181815481106107f857600080fd5b6000918252602090912001546001600160a01b0316905081565b600480546040516370a0823160e01b81523392810192909252906001600160a01b037f000000000000000000000000000000000000000000000000000000000000000016906370a0823190602401602060405180830381865afa15801561087d573d6000803e3d6000fd5b505050506040513d601f19601f820116820180604052508101906108a19190610c11565b10156108bf5760405162461bcd60e51b815260040161028390610c2a565b6001600160a01b0381811660009081526003602052604090205416156109275760405162461bcd60e51b815260206004820152601f60248201527f6164644d61726b65743a204d61726b657420616c7265616479206164646564006044820152606401610283565b6001600160a01b03811660008181526003602052604080822080546001600160a01b0319908116851790915582546001810184558380527f290decd9548b62a8d60345a988386fc84ba6bc95484008f6362f93160ef3e56301805490911684179055517fbc600b1f03d316c479b49930c28e328809316458d5b5dacbb7419df5f6f896479190a250565b336001600160a01b037f00000000000000000000000000000000000000000000000000000000000000001614610a3d5760405162461bcd60e51b815260206004820152602b60248201527f6f6e6c794f776e65723a2043616c6c6572206973206e6f742074686520636f6e60448201526a3a3930b1ba1037bbb732b960a91b6064820152608401610283565b6004548103610a9a5760405162461bcd60e51b815260206004820152602360248201527f7365745468726573686f6c643a205468726573686f6c6420616c7265616479206044820152621cd95d60ea1b6064820152608401610283565b60048190556040518181527fadfa8ecb21b6962ebcd0adbd9ab985b7b4c5b5eb3b0dead683171565c7bfe1719060200160405180910390a150565b600081815481106107f857600080fd5b600060208284031215610af757600080fd5b5035919050565b6001600160a01b0381168114610b1357600080fd5b50565b600060208284031215610b2857600080fd5b8135610b3381610afe565b9392505050565b60008060408385031215610b4d57600080fd5b823591506020830135610b5f81610afe565b809150509250929050565b634e487b7160e01b600052603260045260246000fd5b600060208284031215610b9257600080fd5b8151610b3381610afe565b634e487b7160e01b600052601160045260246000fd5b600082821015610bc557610bc5610b9d565b500390565b60008219821115610bdd57610bdd610b9d565b500190565b600060018201610bf457610bf4610b9d565b5060010190565b634e487b7160e01b600052603160045260246000fd5b600060208284031215610c2357600080fd5b5051919050565b60208082526034908201527f6f6e6c79546f6b656e486f6c646572733a2043616c6c657220646f6573206e6f6040820152737420686f6c6420656e6f75676820746f6b656e7360601b606082015260800190565b634e487b7160e01b600052600160045260246000fdfea2646970667358221220640c513c10f9320fab5d89c85c15ec8d9698744375500347352610fd33db59c864736f6c634300080f0033",
  "devdoc": {
    "kind": "dev",
    "methods": {},
    "version": 1
  },
  "userdoc": {
    "kind": "user",
    "methods": {},
    "version": 1
  },
  "storageLayout": {
    "storage": [
      {
        "astId": 13209,
        "contract": "contracts/Registry.sol:Registry",
        "label": "markets",
        "offset": 0,
        "slot": "0",
        "type": "t_array(t_address)dyn_storage"
      },
      {
        "astId": 13212,
        "contract": "contracts/Registry.sol:Registry",
        "label": "vaults",
        "offset": 0,
        "slot": "1",
        "type": "t_array(t_address)dyn_storage"
      },
      {
        "astId": 13216,
        "contract": "contracts/Registry.sol:Registry",
        "label": "_vaultByAsset",
        "offset": 0,
        "slot": "2",
        "type": "t_mapping(t_address,t_address)"
      },
      {
        "astId": 13220,
        "contract": "contracts/Registry.sol:Registry",
        "label": "_markets",
        "offset": 0,
        "slot": "3",
        "type": "t_mapping(t_address,t_address)"
      },
      {
        "astId": 13227,
        "contract": "contracts/Registry.sol:Registry",
        "label": "_threshold",
        "offset": 0,
        "slot": "4",
        "type": "t_uint256"
      }
    ],
    "types": {
      "t_address": {
        "encoding": "inplace",
        "label": "address",
        "numberOfBytes": "20"
      },
      "t_array(t_address)dyn_storage": {
        "base": "t_address",
        "encoding": "dynamic_array",
        "label": "address[]",
        "numberOfBytes": "32"
      },
      "t_mapping(t_address,t_address)": {
        "encoding": "mapping",
        "key": "t_address",
        "label": "mapping(address => address)",
        "numberOfBytes": "32",
        "value": "t_address"
      },
      "t_uint256": {
        "encoding": "inplace",
        "label": "uint256",
        "numberOfBytes": "32"
      }
    }
  }
}