{
  "address": "0x0D4D3ff54Be33A8E88127f21f864F454A74Eca9e",
  "abi": [
    {
      "inputs": [
        {
          "internalType": "contract IVault",
          "name": "vault",
          "type": "address"
        },
        {
          "internalType": "uint8",
          "name": "margin",
          "type": "uint8"
        },
        {
          "internalType": "uint8",
          "name": "timeoutDays",
          "type": "uint8"
        },
        {
          "internalType": "address",
          "name": "oracle",
          "type": "address"
        },
        {
          "internalType": "string",
          "name": "metadataBaseURI",
          "type": "string"
        }
      ],
      "stateMutability": "nonpayable",
      "type": "constructor"
    },
    {
      "anonymous": false,
      "inputs": [
        {
          "indexed": true,
          "internalType": "address",
          "name": "owner",
          "type": "address"
        },
        {
          "indexed": true,
          "internalType": "address",
          "name": "approved",
          "type": "address"
        },
        {
          "indexed": true,
          "internalType": "uint256",
          "name": "tokenId",
          "type": "uint256"
        }
      ],
      "name": "Approval",
      "type": "event"
    },
    {
      "anonymous": false,
      "inputs": [
        {
          "indexed": true,
          "internalType": "address",
          "name": "owner",
          "type": "address"
        },
        {
          "indexed": true,
          "internalType": "address",
          "name": "operator",
          "type": "address"
        },
        {
          "indexed": false,
          "internalType": "bool",
          "name": "approved",
          "type": "bool"
        }
      ],
      "name": "ApprovalForAll",
      "type": "event"
    },
    {
      "anonymous": false,
      "inputs": [
        {
          "indexed": false,
          "internalType": "uint256",
          "name": "index",
          "type": "uint256"
        },
        {
          "indexed": false,
          "internalType": "uint256",
          "name": "amount",
          "type": "uint256"
        }
      ],
      "name": "Borrowed",
      "type": "event"
    },
    {
      "anonymous": false,
      "inputs": [
        {
          "indexed": true,
          "internalType": "address",
          "name": "previousOwner",
          "type": "address"
        },
        {
          "indexed": true,
          "internalType": "address",
          "name": "newOwner",
          "type": "address"
        }
      ],
      "name": "OwnershipTransferred",
      "type": "event"
    },
    {
      "anonymous": false,
      "inputs": [
        {
          "indexed": false,
          "internalType": "uint256",
          "name": "index",
          "type": "uint256"
        },
        {
          "indexed": false,
          "internalType": "bytes16",
          "name": "propositionId",
          "type": "bytes16"
        },
        {
          "indexed": false,
          "internalType": "bytes16",
          "name": "marketId",
          "type": "bytes16"
        },
        {
          "indexed": false,
          "internalType": "uint256",
          "name": "amount",
          "type": "uint256"
        },
        {
          "indexed": false,
          "internalType": "uint256",
          "name": "payout",
          "type": "uint256"
        },
        {
          "indexed": true,
          "internalType": "address",
          "name": "owner",
          "type": "address"
        }
      ],
      "name": "Placed",
      "type": "event"
    },
    {
      "anonymous": false,
      "inputs": [
        {
          "indexed": true,
          "internalType": "address",
          "name": "vault",
          "type": "address"
        },
        {
          "indexed": false,
          "internalType": "uint256",
          "name": "amount",
          "type": "uint256"
        }
      ],
      "name": "Repaid",
      "type": "event"
    },
    {
      "anonymous": false,
      "inputs": [
        {
          "indexed": false,
          "internalType": "uint256",
          "name": "index",
          "type": "uint256"
        },
        {
          "indexed": false,
          "internalType": "uint256",
          "name": "payout",
          "type": "uint256"
        },
        {
          "indexed": false,
          "internalType": "uint8",
          "name": "result",
          "type": "uint8"
        },
        {
          "indexed": true,
          "internalType": "address",
          "name": "recipient",
          "type": "address"
        }
      ],
      "name": "Settled",
      "type": "event"
    },
    {
      "anonymous": false,
      "inputs": [
        {
          "indexed": true,
          "internalType": "address",
          "name": "from",
          "type": "address"
        },
        {
          "indexed": true,
          "internalType": "address",
          "name": "to",
          "type": "address"
        },
        {
          "indexed": true,
          "internalType": "uint256",
          "name": "tokenId",
          "type": "uint256"
        }
      ],
      "name": "Transfer",
      "type": "event"
    },
    {
      "inputs": [
        {
          "internalType": "address",
          "name": "to",
          "type": "address"
        },
        {
          "internalType": "uint256",
          "name": "tokenId",
          "type": "uint256"
        }
      ],
      "name": "approve",
      "outputs": [],
      "stateMutability": "nonpayable",
      "type": "function"
    },
    {
      "inputs": [
        {
          "components": [
            {
              "internalType": "bytes16",
              "name": "nonce",
              "type": "bytes16"
            },
            {
              "internalType": "bytes16",
              "name": "propositionId",
              "type": "bytes16"
            },
            {
              "internalType": "bytes16",
              "name": "marketId",
              "type": "bytes16"
            },
            {
              "internalType": "uint256",
              "name": "wager",
              "type": "uint256"
            },
            {
              "internalType": "uint256",
              "name": "odds",
              "type": "uint256"
            },
            {
              "internalType": "uint256",
              "name": "close",
              "type": "uint256"
            },
            {
              "internalType": "uint256",
              "name": "end",
              "type": "uint256"
            },
            {
              "components": [
                {
                  "internalType": "uint8",
                  "name": "v",
                  "type": "uint8"
                },
                {
                  "internalType": "bytes32",
                  "name": "r",
                  "type": "bytes32"
                },
                {
                  "internalType": "bytes32",
                  "name": "s",
                  "type": "bytes32"
                }
              ],
              "internalType": "struct SignatureLib.Signature",
              "name": "signature",
              "type": "tuple"
            }
          ],
          "internalType": "struct IMarket.Back",
          "name": "backData",
          "type": "tuple"
        }
      ],
      "name": "back",
      "outputs": [
        {
          "internalType": "uint256",
          "name": "",
          "type": "uint256"
        }
      ],
      "stateMutability": "nonpayable",
      "type": "function"
    },
    {
      "inputs": [
        {
          "internalType": "address",
          "name": "owner",
          "type": "address"
        }
      ],
      "name": "balanceOf",
      "outputs": [
        {
          "internalType": "uint256",
          "name": "",
          "type": "uint256"
        }
      ],
      "stateMutability": "view",
      "type": "function"
    },
    {
      "inputs": [
        {
          "internalType": "uint256",
          "name": "tokenId",
          "type": "uint256"
        }
      ],
      "name": "getApproved",
      "outputs": [
        {
          "internalType": "address",
          "name": "",
          "type": "address"
        }
      ],
      "stateMutability": "view",
      "type": "function"
    },
    {
      "inputs": [
        {
          "internalType": "uint64",
          "name": "index",
          "type": "uint64"
        }
      ],
      "name": "getBetByIndex",
      "outputs": [
        {
          "internalType": "uint256",
          "name": "",
          "type": "uint256"
        },
        {
          "internalType": "uint256",
          "name": "",
          "type": "uint256"
        },
        {
          "internalType": "uint256",
          "name": "",
          "type": "uint256"
        },
        {
          "internalType": "uint256",
          "name": "",
          "type": "uint256"
        },
        {
          "internalType": "bool",
          "name": "",
          "type": "bool"
        },
        {
          "internalType": "bytes16",
          "name": "",
          "type": "bytes16"
        },
        {
          "internalType": "bytes16",
          "name": "",
          "type": "bytes16"
        }
      ],
      "stateMutability": "view",
      "type": "function"
    },
    {
      "inputs": [],
      "name": "getCount",
      "outputs": [
        {
          "internalType": "uint64",
          "name": "",
          "type": "uint64"
        }
      ],
      "stateMutability": "view",
      "type": "function"
    },
    {
      "inputs": [
        {
          "internalType": "uint64",
          "name": "index",
          "type": "uint64"
        }
      ],
      "name": "getExpiry",
      "outputs": [
        {
          "internalType": "uint256",
          "name": "",
          "type": "uint256"
        }
      ],
      "stateMutability": "view",
      "type": "function"
    },
    {
      "inputs": [],
      "name": "getInPlayCount",
      "outputs": [
        {
          "internalType": "uint256",
          "name": "",
          "type": "uint256"
        }
      ],
      "stateMutability": "view",
      "type": "function"
    },
    {
      "inputs": [],
      "name": "getMargin",
      "outputs": [
        {
          "internalType": "uint8",
          "name": "",
          "type": "uint8"
        }
      ],
      "stateMutability": "view",
      "type": "function"
    },
    {
      "inputs": [
        {
          "internalType": "bytes16",
          "name": "marketId",
          "type": "bytes16"
        }
      ],
      "name": "getMarketTotal",
      "outputs": [
        {
          "internalType": "uint256",
          "name": "",
          "type": "uint256"
        }
      ],
      "stateMutability": "view",
      "type": "function"
    },
    {
      "inputs": [
        {
          "internalType": "uint256",
          "name": "wager",
          "type": "uint256"
        },
        {
          "internalType": "uint256",
          "name": "odds",
          "type": "uint256"
        },
        {
          "internalType": "bytes16",
          "name": "propositionId",
          "type": "bytes16"
        },
        {
          "internalType": "bytes16",
          "name": "marketId",
          "type": "bytes16"
        }
      ],
      "name": "getOdds",
      "outputs": [
        {
          "internalType": "uint256",
          "name": "",
          "type": "uint256"
        }
      ],
      "stateMutability": "view",
      "type": "function"
    },
    {
      "inputs": [],
      "name": "getOracleAddress",
      "outputs": [
        {
          "internalType": "address",
          "name": "",
          "type": "address"
        }
      ],
      "stateMutability": "view",
      "type": "function"
    },
    {
      "inputs": [],
      "name": "getOwner",
      "outputs": [
        {
          "internalType": "address",
          "name": "",
          "type": "address"
        }
      ],
      "stateMutability": "view",
      "type": "function"
    },
    {
      "inputs": [
        {
          "internalType": "bytes16",
          "name": "propositionId",
          "type": "bytes16"
        },
        {
          "internalType": "bytes16",
          "name": "marketId",
          "type": "bytes16"
        },
        {
          "internalType": "uint256",
          "name": "wager",
          "type": "uint256"
        },
        {
          "internalType": "uint256",
          "name": "odds",
          "type": "uint256"
        }
      ],
      "name": "getPotentialPayout",
      "outputs": [
        {
          "internalType": "uint256",
          "name": "",
          "type": "uint256"
        }
      ],
      "stateMutability": "view",
      "type": "function"
    },
    {
      "inputs": [],
      "name": "getTotalExposure",
      "outputs": [
        {
          "internalType": "uint256",
          "name": "",
          "type": "uint256"
        }
      ],
      "stateMutability": "view",
      "type": "function"
    },
    {
      "inputs": [],
      "name": "getTotalInPlay",
      "outputs": [
        {
          "internalType": "uint256",
          "name": "",
          "type": "uint256"
        }
      ],
      "stateMutability": "view",
      "type": "function"
    },
    {
      "inputs": [],
      "name": "getVaultAddress",
      "outputs": [
        {
          "internalType": "address",
          "name": "",
          "type": "address"
        }
      ],
      "stateMutability": "view",
      "type": "function"
    },
    {
      "inputs": [
        {
          "internalType": "address",
          "name": "signer",
          "type": "address"
        }
      ],
      "name": "grantSigner",
      "outputs": [],
      "stateMutability": "nonpayable",
      "type": "function"
    },
    {
      "inputs": [
        {
          "internalType": "address",
          "name": "owner",
          "type": "address"
        },
        {
          "internalType": "address",
          "name": "operator",
          "type": "address"
        }
      ],
      "name": "isApprovedForAll",
      "outputs": [
        {
          "internalType": "bool",
          "name": "",
          "type": "bool"
        }
      ],
      "stateMutability": "view",
      "type": "function"
    },
    {
      "inputs": [
        {
          "internalType": "address",
          "name": "signer",
          "type": "address"
        }
      ],
      "name": "isSigner",
      "outputs": [
        {
          "internalType": "bool",
          "name": "",
          "type": "bool"
        }
      ],
      "stateMutability": "view",
      "type": "function"
    },
    {
      "inputs": [
        {
          "components": [
            {
              "internalType": "bytes16",
              "name": "nonce",
              "type": "bytes16"
            },
            {
              "internalType": "bytes16",
              "name": "propositionId",
              "type": "bytes16"
            },
            {
              "internalType": "bytes16",
              "name": "marketId",
              "type": "bytes16"
            },
            {
              "internalType": "uint256",
              "name": "wager",
              "type": "uint256"
            },
            {
              "internalType": "uint256",
              "name": "odds",
              "type": "uint256"
            },
            {
              "internalType": "uint256",
              "name": "close",
              "type": "uint256"
            },
            {
              "internalType": "uint256",
              "name": "end",
              "type": "uint256"
            },
            {
              "components": [
                {
                  "internalType": "uint8",
                  "name": "v",
                  "type": "uint8"
                },
                {
                  "internalType": "bytes32",
                  "name": "r",
                  "type": "bytes32"
                },
                {
                  "internalType": "bytes32",
                  "name": "s",
                  "type": "bytes32"
                }
              ],
              "internalType": "struct SignatureLib.Signature",
              "name": "signature",
              "type": "tuple"
            }
          ],
          "internalType": "struct IMarket.Back[]",
          "name": "backArray",
          "type": "tuple[]"
        }
      ],
      "name": "multiBack",
      "outputs": [
        {
          "internalType": "uint256[]",
          "name": "",
          "type": "uint256[]"
        }
      ],
      "stateMutability": "nonpayable",
      "type": "function"
    },
    {
      "inputs": [],
      "name": "name",
      "outputs": [
        {
          "internalType": "string",
          "name": "",
          "type": "string"
        }
      ],
      "stateMutability": "view",
      "type": "function"
    },
    {
      "inputs": [],
      "name": "owner",
      "outputs": [
        {
          "internalType": "address",
          "name": "",
          "type": "address"
        }
      ],
      "stateMutability": "view",
      "type": "function"
    },
    {
      "inputs": [
        {
          "internalType": "uint256",
          "name": "tokenId",
          "type": "uint256"
        }
      ],
      "name": "ownerOf",
      "outputs": [
        {
          "internalType": "address",
          "name": "",
          "type": "address"
        }
      ],
      "stateMutability": "view",
      "type": "function"
    },
    {
      "inputs": [],
      "name": "renounceOwnership",
      "outputs": [],
      "stateMutability": "nonpayable",
      "type": "function"
    },
    {
      "inputs": [
        {
          "internalType": "address",
          "name": "signer",
          "type": "address"
        }
      ],
      "name": "revokeSigner",
      "outputs": [],
      "stateMutability": "nonpayable",
      "type": "function"
    },
    {
      "inputs": [
        {
          "internalType": "address",
          "name": "from",
          "type": "address"
        },
        {
          "internalType": "address",
          "name": "to",
          "type": "address"
        },
        {
          "internalType": "uint256",
          "name": "tokenId",
          "type": "uint256"
        }
      ],
      "name": "safeTransferFrom",
      "outputs": [],
      "stateMutability": "nonpayable",
      "type": "function"
    },
    {
      "inputs": [
        {
          "internalType": "address",
          "name": "from",
          "type": "address"
        },
        {
          "internalType": "address",
          "name": "to",
          "type": "address"
        },
        {
          "internalType": "uint256",
          "name": "tokenId",
          "type": "uint256"
        },
        {
          "internalType": "bytes",
          "name": "data",
          "type": "bytes"
        }
      ],
      "name": "safeTransferFrom",
      "outputs": [],
      "stateMutability": "nonpayable",
      "type": "function"
    },
    {
      "inputs": [
        {
          "internalType": "address",
          "name": "operator",
          "type": "address"
        },
        {
          "internalType": "bool",
          "name": "approved",
          "type": "bool"
        }
      ],
      "name": "setApprovalForAll",
      "outputs": [],
      "stateMutability": "nonpayable",
      "type": "function"
    },
    {
      "inputs": [
        {
          "internalType": "uint64",
          "name": "index",
          "type": "uint64"
        }
      ],
      "name": "settle",
      "outputs": [],
      "stateMutability": "nonpayable",
      "type": "function"
    },
    {
      "inputs": [
        {
          "internalType": "bytes16",
          "name": "marketId",
          "type": "bytes16"
        }
      ],
      "name": "settleMarket",
      "outputs": [],
      "stateMutability": "nonpayable",
      "type": "function"
    },
    {
      "inputs": [
        {
          "internalType": "bytes4",
          "name": "interfaceId",
          "type": "bytes4"
        }
      ],
      "name": "supportsInterface",
      "outputs": [
        {
          "internalType": "bool",
          "name": "",
          "type": "bool"
        }
      ],
      "stateMutability": "view",
      "type": "function"
    },
    {
      "inputs": [],
      "name": "symbol",
      "outputs": [
        {
          "internalType": "string",
          "name": "",
          "type": "string"
        }
      ],
      "stateMutability": "view",
      "type": "function"
    },
    {
      "inputs": [],
      "name": "timeout",
      "outputs": [
        {
          "internalType": "uint256",
          "name": "",
          "type": "uint256"
        }
      ],
      "stateMutability": "view",
      "type": "function"
    },
    {
      "inputs": [
        {
          "internalType": "uint256",
          "name": "tokenId",
          "type": "uint256"
        }
      ],
      "name": "tokenURI",
      "outputs": [
        {
          "internalType": "string",
          "name": "",
          "type": "string"
        }
      ],
      "stateMutability": "view",
      "type": "function"
    },
    {
      "inputs": [
        {
          "internalType": "address",
          "name": "from",
          "type": "address"
        },
        {
          "internalType": "address",
          "name": "to",
          "type": "address"
        },
        {
          "internalType": "uint256",
          "name": "tokenId",
          "type": "uint256"
        }
      ],
      "name": "transferFrom",
      "outputs": [],
      "stateMutability": "nonpayable",
      "type": "function"
    },
    {
      "inputs": [
        {
          "internalType": "address",
          "name": "newOwner",
          "type": "address"
        }
      ],
      "name": "transferOwnership",
      "outputs": [],
      "stateMutability": "nonpayable",
      "type": "function"
    }
  ],
  "transactionHash": "0x717291f63e45ed83f5548f13eecd3e611ac04f317a61eacca05c2dc0c6f83446",
  "args": [
    "0x53eDd5D1B59b0BBDeac6e630b1f0Ce2707d96c5E",
    0,
    1,
    "0x545f19e6191d9d3B491933a495943d7BE70833CD",
    "https://horse.link/api/nft//dev_arbitrum/0x162968f5eAcf7230E6485E716956Deaea3a26239/undefined/"
  ],
  "numDeployments": 1,
  "solcInputHash": "91422236c6399c6881cd0c1c036075cb",
  "bytecode": "0x6101206040523480156200001257600080fd5b506040516200402e3803806200402e83398101604081905262000035916200020c565b6040518060400160405280601381526020017f486f727365204c696e6b2042657420536c6970000000000000000000000000008152506040518060400160405280600681526020016512130b50915560d21b815250620000a46200009e6200017260201b60201c565b62000176565b6001620000b28382620003c9565b506002620000c18282620003c9565b5050506001600160a01b038516620000dd57620000dd62000495565b3060c0526001600160a01b0385811660a05260ff8516608052821660e052600160106000620001146000546001600160a01b031690565b6001600160a01b031681526020810191909152604001600020805460ff191691151591909117905560076200014a8282620003c9565b506200015d60ff841662015180620004ab565b62ffffff166101005250620004e59350505050565b3390565b600080546001600160a01b038381166001600160a01b0319831681178455604051919092169283917f8be0079c531659141344cd1fd0a4f28419497f9722a3daafe3b4186f6b6457e09190a35050565b6001600160a01b0381168114620001dc57600080fd5b50565b805160ff81168114620001f157600080fd5b919050565b634e487b7160e01b600052604160045260246000fd5b600080600080600060a086880312156200022557600080fd5b85516200023281620001c6565b9450602062000243878201620001df565b94506200025360408801620001df565b935060608701516200026581620001c6565b60808801519093506001600160401b03808211156200028357600080fd5b818901915089601f8301126200029857600080fd5b815181811115620002ad57620002ad620001f6565b604051601f8201601f19908116603f01168101908382118183101715620002d857620002d8620001f6565b816040528281528c86848701011115620002f157600080fd5b600093505b82841015620003155784840186015181850187015292850192620002f6565b82841115620003275760008684830101525b8096505050505050509295509295909350565b600181811c908216806200034f57607f821691505b6020821081036200037057634e487b7160e01b600052602260045260246000fd5b50919050565b601f821115620003c457600081815260208120601f850160051c810160208610156200039f5750805b601f850160051c820191505b81811015620003c057828155600101620003ab565b5050505b505050565b81516001600160401b03811115620003e557620003e5620001f6565b620003fd81620003f684546200033a565b8462000376565b602080601f8311600181146200043557600084156200041c5750858301515b600019600386901b1c1916600185901b178555620003c0565b600085815260208120601f198616915b82811015620004665788860151825594840194600190910190840162000445565b5085821015620004855787850151600019600388901b60f8161c191681555b5050505050600190811b01905550565b634e487b7160e01b600052600160045260246000fd5b600062ffffff80831681851681830481118215151615620004dc57634e487b7160e01b600052601160045260246000fd5b02949350505050565b60805160a05160c05160e05161010051613a946200059a60003960008181610454015261216001526000818161050d0152818161160101528181611ab20152612827015260008181611c4c0152612cb20152600081816103a1015281816113b20152818161168401528181611b940152818161232a0152818161245a015281816124f101528181612585015281816125df0152818161265c01528181612bf30152612c8a015260006102fb0152613a946000f3fe608060405234801561001057600080fd5b50600436106102275760003560e01c806370dea79a11610130578063a22cb465116100b8578063c87b56dd1161007c578063c87b56dd14610557578063c96121a81461056a578063e4650fac14610572578063e985e9c514610585578063f2fde38b146105c157600080fd5b8063a22cb465146104d8578063a87d942c146104eb578063b18b78dd1461050b578063b88d4fde14610531578063c34b44a01461054457600080fd5b806388bc76ba116100ff57806388bc76ba146104a4578063893d20e8146104b75780638ac6d217146104c85780638da5cb5b146104b757806395d89b41146104d057600080fd5b806370dea79a1461044f578063715018a6146104765780637b5df1c91461047e5780637df73e271461049157600080fd5b80634b9ba446116101b357806363c724f71161018257806363c724f71461038c57806365cacaa41461039f5780636b467d15146103c5578063702595861461041c57806370a082311461043c57600080fd5b80634b9ba4461461034b578063584394791461035e5780636028421f146103665780636352211e1461037957600080fd5b806312fa3bf1116101fa57806312fa3bf1146102a957806323b872dd146102e157806325117b72146102f457806342842e0e1461032557806346e116a61461033857600080fd5b806301ffc9a71461022c57806306fdde0314610254578063081812fc14610269578063095ea7b314610294575b600080fd5b61023f61023a3660046130f9565b6105d4565b60405190151581526020015b60405180910390f35b61025c610626565b60405161024b919061316e565b61027c610277366004613181565b6106b8565b6040516001600160a01b03909116815260200161024b565b6102a76102a23660046131af565b6106df565b005b6102d36102b73660046131f1565b6001600160801b0319166000908152600b602052604090205490565b60405190815260200161024b565b6102a76102ef36600461320e565b6107f9565b60405160ff7f000000000000000000000000000000000000000000000000000000000000000016815260200161024b565b6102a761033336600461320e565b61082a565b6102d361034636600461324f565b610845565b6102a7610359366004613299565b61085e565b600e546102d3565b6102d36103743660046132c2565b610958565b61027c610387366004613181565b610966565b6102a761039a366004613308565b6109c6565b7f000000000000000000000000000000000000000000000000000000000000000061027c565b6103d86103d3366004613299565b610a54565b604080519788526020880196909652948601939093526060850191909152151560808401526001600160801b031990811660a08401521660c082015260e00161024b565b61042f61042a366004613325565b610a7f565b60405161024b919061339a565b6102d361044a366004613308565b610b38565b6102d37f000000000000000000000000000000000000000000000000000000000000000081565b6102a7610bbe565b6102d361048c3660046133de565b610bd2565b61023f61049f366004613308565b610d3d565b6102a76104b23660046131f1565b610d5e565b6000546001600160a01b031661027c565b600f546102d3565b61025c610f05565b6102a76104e6366004613405565b610f14565b6104f3610f1f565b6040516001600160401b03909116815260200161024b565b7f000000000000000000000000000000000000000000000000000000000000000061027c565b6102a761053f3660046134ce565b610f2a565b6102a7610552366004613308565b610f5c565b61025c610565366004613181565b610fe7565b6008546102d3565b6102d3610580366004613299565b61104e565b61023f610593366004613591565b6001600160a01b03918216600090815260066020908152604080832093909416825291909152205460ff1690565b6102a76105cf366004613308565b611059565b60006001600160e01b031982166380ac58cd60e01b148061060557506001600160e01b03198216635b5e139f60e01b145b8061062057506301ffc9a760e01b6001600160e01b03198316145b92915050565b606060018054610635906135bf565b80601f0160208091040260200160405190810160405280929190818152602001828054610661906135bf565b80156106ae5780601f10610683576101008083540402835291602001916106ae565b820191906000526020600020905b81548152906001019060200180831161069157829003601f168201915b5050505050905090565b60006106c3826110d2565b506000908152600560205260409020546001600160a01b031690565b60006106ea82610966565b9050806001600160a01b0316836001600160a01b03160361075c5760405162461bcd60e51b815260206004820152602160248201527f4552433732313a20617070726f76616c20746f2063757272656e74206f776e656044820152603960f91b60648201526084015b60405180910390fd5b336001600160a01b038216148061077857506107788133610593565b6107ea5760405162461bcd60e51b815260206004820152603d60248201527f4552433732313a20617070726f76652063616c6c6572206973206e6f7420746f60448201527f6b656e206f776e6572206f7220617070726f76656420666f7220616c6c0000006064820152608401610753565b6107f48383611131565b505050565b610803338261119f565b61081f5760405162461bcd60e51b8152600401610753906135f3565b6107f483838361121d565b6107f483838360405180602001604052806000815250610f2a565b60006108538585858561138e565b90505b949350505050565b60006009826001600160401b03168154811061087c5761087c613640565b60009182526020918290206040805160e081018252600690930290910180546001600160801b0319608082811b82168652600160801b909204821b169484019490945260018101549183019190915260028101546060830152600381015492820192909252600482015460a082015260059091015460ff1615801560c083015290915061094b5760405162461bcd60e51b815260206004820152601f60248201527f736574746c653a204265742068617320616c726561647920736574746c6564006044820152606401610753565b610954826114af565b5050565b6000610853858585856117d7565b6000818152600360205260408120546001600160a01b0316806106205760405162461bcd60e51b8152602060048201526018602482015277115490cdcc8c4e881a5b9d985b1a59081d1bdad95b88125160421b6044820152606401610753565b6109ce611813565b6001600160a01b038116610a305760405162461bcd60e51b815260206004820152602360248201527f6772616e745369676e65723a20496e76616c6964207369676e6572206164647260448201526265737360e81b6064820152608401610753565b6001600160a01b03166000908152601060205260409020805460ff19166001179055565b6000806000806000806000610a688861186d565b959e949d50929b5090995097509550909350915050565b60606000826001600160401b03811115610a9b57610a9b61343e565b604051908082528060200260200182016040528015610ac4578160200160208202803683370190505b50905060005b60ff8116841115610b30573685858360ff16818110610aeb57610aeb613640565b905061014002019050610afd81610bd2565b838360ff1681518110610b1257610b12613640565b60209081029190910101525080610b288161366c565b915050610aca565b509392505050565b60006001600160a01b038216610ba25760405162461bcd60e51b815260206004820152602960248201527f4552433732313a2061646472657373207a65726f206973206e6f7420612076616044820152683634b21037bbb732b960b91b6064820152608401610753565b506001600160a01b031660009081526004602052604090205490565b610bc6611813565b610bd06000611933565b565b600080610be260208401846131f1565b610bf260408501602086016131f1565b610c0260608601604087016131f1565b604080516001600160801b0319948516602082015292841660308401529216918101919091526080840135605082015260a0840135607082015260c0840135609082015260b001604051602081830303815290604052805190602001209050610c6e818460e001611983565b1515600114610cbf5760405162461bcd60e51b815260206004820152601760248201527f6261636b3a20496e76616c6964207369676e61747572650000000000000000006044820152606401610753565b6000610cf3610cd460408601602087016131f1565b610ce460608701604088016131f1565b866060013587608001356117d7565b905060008111610d0557610d0561368b565b610856610d1860408601602087016131f1565b610d2860608701604088016131f1565b86606001358760a001358860c0013586611a39565b6001600160a01b03811660009081526010602052604081205460ff16610620565b6001600160801b031981166000908152600a6020908152604080832080548251818502810185019093528083529192909190830182828015610df157602002820191906000526020600020906000905b82829054906101000a90046001600160401b03166001600160401b031681526020019060080190602082600701049283019260010382029150808411610dae5790505b505083519394506000925050505b81816001600160401b03161015610efa57600083826001600160401b031681518110610e2d57610e2d613640565b6020026020010151905060006009826001600160401b031681548110610e5557610e55613640565b600091825260208083206040805160e081018252600690940290910180546001600160801b0319608082811b82168752600160801b909204821b169385019390935260018101549184019190915260028101546060840152600381015491830191909152600481015460a08301526005015460ff16151560c082018190529092509003610ee557610ee5826114af565b50508080610ef2906136a1565b915050610dff565b50505050565b905090565b606060028054610635906135bf565b610954338383611fba565b6000610f0060095490565b610f34338361119f565b610f505760405162461bcd60e51b8152600401610753906135f3565b610efa84848484612088565b610f64611813565b6001600160a01b038116610fc65760405162461bcd60e51b8152602060048201526024808201527f7265766f6b655369676e65723a20496e76616c6964207369676e6572206164646044820152637265737360e01b6064820152608401610753565b6001600160a01b03166000908152601060205260409020805460ff19169055565b6060610ff2826110d2565b6000610ffc6120bb565b9050600081511161101c5760405180602001604052806000815250611047565b80611026846120ca565b6040516020016110379291906136c7565b6040516020818303038152906040525b9392505050565b60006106208261215c565b611061611813565b6001600160a01b0381166110c65760405162461bcd60e51b815260206004820152602660248201527f4f776e61626c653a206e6577206f776e657220697320746865207a65726f206160448201526564647265737360d01b6064820152608401610753565b6110cf81611933565b50565b6000818152600360205260409020546001600160a01b03166110cf5760405162461bcd60e51b8152602060048201526018602482015277115490cdcc8c4e881a5b9d985b1a59081d1bdad95b88125160421b6044820152606401610753565b600081815260056020526040902080546001600160a01b0319166001600160a01b038416908117909155819061116682610966565b6001600160a01b03167f8c5be1e5ebec7d5bd14f71427d1e84f3dd0314c0f7b2291e5b200ac8c7c3b92560405160405180910390a45050565b6000806111ab83610966565b9050806001600160a01b0316846001600160a01b031614806111f257506001600160a01b0380821660009081526006602090815260408083209388168352929052205460ff165b806108565750836001600160a01b031661120b846106b8565b6001600160a01b031614949350505050565b826001600160a01b031661123082610966565b6001600160a01b0316146112565760405162461bcd60e51b8152600401610753906136f6565b6001600160a01b0382166112b85760405162461bcd60e51b8152602060048201526024808201527f4552433732313a207472616e7366657220746f20746865207a65726f206164646044820152637265737360e01b6064820152608401610753565b6112c583838360016121b7565b826001600160a01b03166112d882610966565b6001600160a01b0316146112fe5760405162461bcd60e51b8152600401610753906136f6565b600081815260056020908152604080832080546001600160a01b03199081169091556001600160a01b0387811680865260048552838620805460001901905590871680865283862080546001019055868652600390945282852080549092168417909155905184937fddf252ad1be2c89b69c2b068fc378daa952ba7f163c4a11628f55a4df523b3ef91a4505050565b60006001851115806113a1575060018411155b156113ae57506001610856565b60007f00000000000000000000000000000000000000000000000000000000000000006001600160a01b031663b15031fa6040518163ffffffff1660e01b8152600401602060405180830381865afa15801561140e573d6000803e3d6000fd5b505050506040513d601f19601f82011682018060405250810190611432919061373b565b905080600003611446576001915050610856565b6001600160801b031984166000908152600d6020526040902054811015611471576001915050610856565b6001600160801b031984166000908152600d60205260409020546114959082613754565b905060006114a487878461223f565b979650505050505050565b60006009826001600160401b0316815481106114cd576114cd613640565b60009182526020918290206040805160e081018252600690930290910180546001600160801b0319608082811b82168652600160801b909204821b16948401949094526001808201549284019290925260028101546060840152600381015493830193909352600483015460a083015260059092015460ff16151560c082015260098054919350906001600160401b03851690811061156e5761156e613640565b60009182526020822060069190910201600501805460ff1916921515929092179091558061159b8461215c565b4211156115d357600191506115b8846001600160401b0316610966565b90506115ce846001600160401b031660016122c4565b611740565b602083015183516040516306c77ce760e01b81526001600160801b03199283166004820152911660248201527f00000000000000000000000000000000000000000000000000000000000000006001600160a01b0316906306c77ce790604401602060405180830381865afa158015611650573d6000803e3d6000fd5b505050506040513d601f19601f82011682018060405250810190611674919061377a565b915060011960ff8316016116a8577f00000000000000000000000000000000000000000000000000000000000000006116ba565b6116ba846001600160401b0316610966565b905060001960ff8316016116d3576116d1846127c3565b505b6116e6846001600160401b0316836122c4565b6009846001600160401b03168154811061170257611702613640565b906000526020600020906006020160010154600e60008282546117259190613754565b90915550506008805490600061173a83613797565b91905055505b806001600160a01b03167f7c2e00429f610bdb997681cabbb0ef3197390c07fe90ea4a98ac36438dd4217c856009876001600160401b03168154811061178857611788613640565b600091825260209182902060026006909202010154604080516001600160401b0390941684529183015260ff86169082015260600160405180910390a2610efa846001600160401b0316612b29565b6000806117e68484888861138e565b905061180984620f42406117fa82856137ae565b61180491906137cd565b612bcc565b9695505050505050565b6000546001600160a01b03163314610bd05760405162461bcd60e51b815260206004820181905260248201527f4f776e61626c653a2063616c6c6572206973206e6f7420746865206f776e65726044820152606401610753565b6000806000806000806000806009896001600160401b03168154811061189557611895613640565b60009182526020918290206040805160e0810182526006939093029091018054608081811b6001600160801b0319908116808752600160801b909304821b1695850186905260018301549385018490526002830154606086018190526003840154918601829052600484015460a0870181905260059094015460ff16151560c0909601869052939f939e509c50909a50919850919650945092505050565b600080546001600160a01b038381166001600160a01b0319831681178455604051919092169283917f8be0079c531659141344cd1fd0a4f28419497f9722a3daafe3b4186f6b6457e09190a35050565b60008073C2ab165C60747a2b3FBc468CF5B74F5B7822Ca49635cff288d85856040518363ffffffff1660e01b81526004016119bf9291906137ef565b602060405180830381865af41580156119dc573d6000803e3d6000fd5b505050506040513d601f19601f82011682018060405250810190611a009190613826565b90506001600160a01b038116611a1857611a1861368b565b6001600160a01b03811660009081526010602052604090205460ff16610856565b60004283118015611a4957504284115b611a8b5760405162461bcd60e51b81526020600482015260136024820152725f6261636b3a20496e76616c6964206461746560681b6044820152606401610753565b6040516306c77ce760e01b81526001600160801b03198088166004830152881660248201527f00000000000000000000000000000000000000000000000000000000000000006001600160a01b0316906306c77ce790604401602060405180830381865afa158015611b01573d6000803e3d6000fd5b505050506040513d601f19601f82011682018060405250810190611b25919061377a565b60ff16600214611b905760405162461bcd60e51b815260206004820152603060248201527f5f6261636b3a204f7261636c6520726573756c7420616c72656164792073657460448201526f08199bdc881d1a1a5cc81b585c9ad95d60821b6064820152608401610753565b60007f00000000000000000000000000000000000000000000000000000000000000006001600160a01b03166338d52e0f6040518163ffffffff1660e01b8152600401602060405180830381865afa158015611bf0573d6000803e3d6000fd5b505050506040513d601f19601f82011682018060405250810190611c149190613826565b90506001600160a01b0381166323b872dd3360405160e083901b6001600160e01b03191681526001600160a01b0391821660048201527f00000000000000000000000000000000000000000000000000000000000000009091166024820152604481018990526064016020604051808303816000875af1158015611c9c573d6000803e3d6000fd5b505050506040513d601f19601f82011682018060405250810190611cc09190613843565b506001600160801b031987166000908152600b602052604081208054889290611cea908490613860565b9250508190555085600e6000828254611d039190613860565b909155505060088054906000611d1883613878565b91905055506000611d2860095490565b6001600160801b03198a166000908152600d6020526040812080549293508692909190611d56908490613860565b90915550611d7290506001600160401b038216898b8a88612be2565b600f6000828254611d839190613860565b90915550506040805160e0810182526001600160801b03198b811682528a1660208083018281528385018c8152606085018a815260808087018d81524260a08901908152600060c08a0181815260098054600180820183559184529b51985198861c600160801b9990961c98909802949094177f6e1540171b6c0c960b71a7020d9f60077f6af931a8bbf590da0223dacf75c7af6006909b029a8b015594517f6e1540171b6c0c960b71a7020d9f60077f6af931a8bbf590da0223dacf75c7b08a015592517f6e1540171b6c0c960b71a7020d9f60077f6af931a8bbf590da0223dacf75c7b1890155517f6e1540171b6c0c960b71a7020d9f60077f6af931a8bbf590da0223dacf75c7b288015590517f6e1540171b6c0c960b71a7020d9f60077f6af931a8bbf590da0223dacf75c7b3870155517f6e1540171b6c0c960b71a7020d9f60077f6af931a8bbf590da0223dacf75c7b4909501805460ff191695151595909517909455918352600a81529282208054918201815582529190206004820401805460039092166008026101000a6001600160401b038181021990931692841602919091179055611f4133826001600160401b0316612d74565b604080516001600160401b03831681526001600160801b03198b811660208301528a16818301526060810189905260808101869052905133917f1d273ea6a1aea94de32fd06a09ab8046dff8e3261c5a4ecaa5e1a5705f3342ec919081900360a00190a26001600160401b031698975050505050505050565b816001600160a01b0316836001600160a01b03160361201b5760405162461bcd60e51b815260206004820152601960248201527f4552433732313a20617070726f766520746f2063616c6c6572000000000000006044820152606401610753565b6001600160a01b03838116600081815260066020908152604080832094871680845294825291829020805460ff191686151590811790915591519182527f17307eab39ab6107e8899845ad3d59bd9653f200f220920489ca2b5937696c31910160405180910390a3505050565b61209384848461121d565b61209f84848484612f0d565b610efa5760405162461bcd60e51b815260040161075390613891565b606060078054610635906135bf565b606060006120d78361300b565b60010190506000816001600160401b038111156120f6576120f661343e565b6040519080825280601f01601f191660200182016040528015612120576020820181803683370190505b5090508181016020015b600019016f181899199a1a9b1b9c1cb0b131b232b360811b600a86061a8153600a850494508461212a57509392505050565b60007f00000000000000000000000000000000000000000000000000000000000000006009836001600160401b03168154811061219b5761219b613640565b9060005260206000209060060201600301546106209190613860565b6001811115610efa576001600160a01b038416156121fd576001600160a01b038416600090815260046020526040812080548392906121f7908490613754565b90915550505b6001600160a01b03831615610efa576001600160a01b03831660009081526004602052604081208054839290612234908490613860565b909155505050505050565b60405163a19dec4360e01b815260048101849052602481018390526044810182905260009073f1715416B00B21e10A97C63d4080c423450a80dd9063a19dec4390606401602060405180830381865af41580156122a0573d6000803e3d6000fd5b505050506040513d601f19601f82011682018060405250810190610856919061373b565b60021960ff821601612576576000600983815481106122e5576122e5613640565b9060005260206000209060060201600101546009848154811061230a5761230a613640565b9060005260206000209060060201600201546123269190613754565b90507f00000000000000000000000000000000000000000000000000000000000000006001600160a01b03166338d52e0f6040518163ffffffff1660e01b8152600401602060405180830381865afa158015612386573d6000803e3d6000fd5b505050506040513d601f19601f820116820180604052508101906123aa9190613826565b6001600160a01b031663a9059cbb6123c185610966565b600986815481106123d4576123d4613640565b60009182526020909120600160069092020101546040516001600160e01b031960e085901b1681526001600160a01b03909216600483015260248201526044016020604051808303816000875af1158015612433573d6000803e3d6000fd5b505050506040513d601f19601f820116820180604052508101906124579190613843565b507f00000000000000000000000000000000000000000000000000000000000000006001600160a01b03166338d52e0f6040518163ffffffff1660e01b8152600401602060405180830381865afa1580156124b6573d6000803e3d6000fd5b505050506040513d601f19601f820116820180604052508101906124da9190613826565b60405163a9059cbb60e01b81526001600160a01b037f00000000000000000000000000000000000000000000000000000000000000008116600483015260248201849052919091169063a9059cbb906044016020604051808303816000875af115801561254b573d6000803e3d6000fd5b505050506040513d601f19601f8201168201806040525081019061256f9190613843565b5050612755565b600060ff82166001146125a9577f00000000000000000000000000000000000000000000000000000000000000006125b2565b6125b283610966565b90506000600984815481106125c9576125c9613640565b90600052602060002090600602016002015490507f00000000000000000000000000000000000000000000000000000000000000006001600160a01b0316826001600160a01b03160361265a57816001600160a01b03167f0516911bcc3a0a7412a44601057c0a0a1ec628bde049a84284bc4288665344888260405161265191815260200190565b60405180910390a25b7f00000000000000000000000000000000000000000000000000000000000000006001600160a01b03166338d52e0f6040518163ffffffff1660e01b8152600401602060405180830381865afa1580156126b8573d6000803e3d6000fd5b505050506040513d601f19601f820116820180604052508101906126dc9190613826565b60405163a9059cbb60e01b81526001600160a01b03848116600483015260248201849052919091169063a9059cbb906044016020604051808303816000875af115801561272d573d6000803e3d6000fd5b505050506040513d601f19601f820116820180604052508101906127519190613843565b5050505b6009828154811061276857612768613640565b9060005260206000209060060201600101546009838154811061278d5761278d613640565b9060005260206000209060060201600201546127a99190613754565b600f60008282546127ba9190613754565b90915550505050565b6000806009836001600160401b0316815481106127e2576127e2613640565b60009182526020822060069190910201546040516325a8f38560e11b8152600160801b90910460801b6001600160801b03198116600483015292506001600160a01b037f00000000000000000000000000000000000000000000000000000000000000001690634b51e70a90602401600060405180830381865afa15801561286e573d6000803e3d6000fd5b505050506040513d6000823e601f3d908101601f1916820160405261289691908101906138e3565b90506000806009866001600160401b0316815481106128b7576128b7613640565b90600052602060002090600602016004015490506000836020015151905060005b8181101561294b5782856020015182815181106128f7576128f7613640565b6020026020010151602001511115612939578460200151818151811061291f5761291f613640565b602002602001015160400151846129369190613860565b93505b8061294381613878565b9150506128d8565b50600083118015612989575060006009886001600160401b03168154811061297557612975613640565b906000526020600020906006020160010154115b15612aef5760006009886001600160401b0316815481106129ac576129ac613640565b9060005260206000209060060201600101546009896001600160401b0316815481106129da576129da613640565b9060005260206000209060060201600201546129f691906137cd565b604051637869dde560e11b815260048101829052602481018690526216e360604482015290915060009073f1715416B00B21e10A97C63d4080c423450a80dd9063f0d3bbca90606401602060405180830381865af4158015612a5c573d6000803e3d6000fd5b505050506040513d601f19601f82011682018060405250810190612a80919061373b565b90508060098a6001600160401b031681548110612a9f57612a9f613640565b906000526020600020906006020160010154612abb91906137ae565b60098a6001600160401b031681548110612ad757612ad7613640565b90600052602060002090600602016002018190555050505b6009876001600160401b031681548110612b0b57612b0b613640565b90600052602060002090600602016002015495505050505050919050565b6000612b3482610966565b9050612b448160008460016121b7565b612b4d82610966565b600083815260056020908152604080832080546001600160a01b03199081169091556001600160a01b0385168085526004845282852080546000190190558785526003909352818420805490911690555192935084927fddf252ad1be2c89b69c2b068fc378daa952ba7f163c4a11628f55a4df523b3ef908390a45050565b6000818311612bdb5781611047565b5090919050565b600080612bef8484613754565b90507f00000000000000000000000000000000000000000000000000000000000000006001600160a01b03166338d52e0f6040518163ffffffff1660e01b8152600401602060405180830381865afa158015612c4f573d6000803e3d6000fd5b505050506040513d601f19601f82011682018060405250810190612c739190613826565b6040516323b872dd60e01b81526001600160a01b037f0000000000000000000000000000000000000000000000000000000000000000811660048301527f0000000000000000000000000000000000000000000000000000000000000000811660248301526044820184905291909116906323b872dd906064016020604051808303816000875af1158015612d0c573d6000803e3d6000fd5b505050506040513d601f19601f82011682018060405250810190612d309190613843565b5060408051888152602081018390527f14a13f958d7fe38fb8529e8d43353b6d9120f52444e486a4077f68a3fc77dcbf910160405180910390a19695505050505050565b6001600160a01b038216612dca5760405162461bcd60e51b815260206004820181905260248201527f4552433732313a206d696e7420746f20746865207a65726f20616464726573736044820152606401610753565b6000818152600360205260409020546001600160a01b031615612e2f5760405162461bcd60e51b815260206004820152601c60248201527f4552433732313a20746f6b656e20616c7265616479206d696e746564000000006044820152606401610753565b612e3d6000838360016121b7565b6000818152600360205260409020546001600160a01b031615612ea25760405162461bcd60e51b815260206004820152601c60248201527f4552433732313a20746f6b656e20616c7265616479206d696e746564000000006044820152606401610753565b6001600160a01b038216600081815260046020908152604080832080546001019055848352600390915280822080546001600160a01b0319168417905551839291907fddf252ad1be2c89b69c2b068fc378daa952ba7f163c4a11628f55a4df523b3ef908290a45050565b60006001600160a01b0384163b1561300357604051630a85bd0160e11b81526001600160a01b0385169063150b7a0290612f51903390899088908890600401613a0e565b6020604051808303816000875af1925050508015612f8c575060408051601f3d908101601f19168201909252612f8991810190613a41565b60015b612fe9573d808015612fba576040519150601f19603f3d011682016040523d82523d6000602084013e612fbf565b606091505b508051600003612fe15760405162461bcd60e51b815260040161075390613891565b805181602001fd5b6001600160e01b031916630a85bd0160e11b149050610856565b506001610856565b60008072184f03e93ff9f4daa797ed6e38ed64bf6a1f0160401b831061304a5772184f03e93ff9f4daa797ed6e38ed64bf6a1f0160401b830492506040015b6d04ee2d6d415b85acef81000000008310613076576d04ee2d6d415b85acef8100000000830492506020015b662386f26fc10000831061309457662386f26fc10000830492506010015b6305f5e10083106130ac576305f5e100830492506008015b61271083106130c057612710830492506004015b606483106130d2576064830492506002015b600a83106106205760010192915050565b6001600160e01b0319811681146110cf57600080fd5b60006020828403121561310b57600080fd5b8135611047816130e3565b60005b83811015613131578181015183820152602001613119565b83811115610efa5750506000910152565b6000815180845261315a816020860160208601613116565b601f01601f19169290920160200192915050565b6020815260006110476020830184613142565b60006020828403121561319357600080fd5b5035919050565b6001600160a01b03811681146110cf57600080fd5b600080604083850312156131c257600080fd5b82356131cd8161319a565b946020939093013593505050565b6001600160801b0319811681146110cf57600080fd5b60006020828403121561320357600080fd5b8135611047816131db565b60008060006060848603121561322357600080fd5b833561322e8161319a565b9250602084013561323e8161319a565b929592945050506040919091013590565b6000806000806080858703121561326557600080fd5b8435935060208501359250604085013561327e816131db565b9150606085013561328e816131db565b939692955090935050565b6000602082840312156132ab57600080fd5b81356001600160401b038116811461104757600080fd5b600080600080608085870312156132d857600080fd5b84356132e3816131db565b935060208501356132f3816131db565b93969395505050506040820135916060013590565b60006020828403121561331a57600080fd5b81356110478161319a565b6000806020838503121561333857600080fd5b82356001600160401b038082111561334f57600080fd5b818501915085601f83011261336357600080fd5b81358181111561337257600080fd5b8660206101408302850101111561338857600080fd5b60209290920196919550909350505050565b6020808252825182820181905260009190848201906040850190845b818110156133d2578351835292840192918401916001016133b6565b50909695505050505050565b600061014082840312156133f157600080fd5b50919050565b80151581146110cf57600080fd5b6000806040838503121561341857600080fd5b82356134238161319a565b91506020830135613433816133f7565b809150509250929050565b634e487b7160e01b600052604160045260246000fd5b604080519081016001600160401b03811182821017156134765761347661343e565b60405290565b604051608081016001600160401b03811182821017156134765761347661343e565b604051601f8201601f191681016001600160401b03811182821017156134c6576134c661343e565b604052919050565b600080600080608085870312156134e457600080fd5b84356134ef8161319a565b93506020858101356135008161319a565b93506040860135925060608601356001600160401b038082111561352357600080fd5b818801915088601f83011261353757600080fd5b8135818111156135495761354961343e565b61355b601f8201601f1916850161349e565b9150808252898482850101111561357157600080fd5b808484018584013760008482840101525080935050505092959194509250565b600080604083850312156135a457600080fd5b82356135af8161319a565b915060208301356134338161319a565b600181811c908216806135d357607f821691505b6020821081036133f157634e487b7160e01b600052602260045260246000fd5b6020808252602d908201527f4552433732313a2063616c6c6572206973206e6f7420746f6b656e206f776e6560408201526c1c881bdc88185c1c1c9bdd9959609a1b606082015260800190565b634e487b7160e01b600052603260045260246000fd5b634e487b7160e01b600052601160045260246000fd5b600060ff821660ff810361368257613682613656565b60010192915050565b634e487b7160e01b600052600160045260246000fd5b60006001600160401b038083168181036136bd576136bd613656565b6001019392505050565b600083516136d9818460208801613116565b8351908301906136ed818360208801613116565b01949350505050565b60208082526025908201527f4552433732313a207472616e736665722066726f6d20696e636f72726563742060408201526437bbb732b960d91b606082015260800190565b60006020828403121561374d57600080fd5b5051919050565b60008282101561376657613766613656565b500390565b60ff811681146110cf57600080fd5b60006020828403121561378c57600080fd5b81516110478161376b565b6000816137a6576137a6613656565b506000190190565b60008160001904831182151516156137c8576137c8613656565b500290565b6000826137ea57634e487b7160e01b600052601260045260246000fd5b500490565b8281526080810182356138018161376b565b60ff811660208401525060208301356040830152604083013560608301529392505050565b60006020828403121561383857600080fd5b81516110478161319a565b60006020828403121561385557600080fd5b8151611047816133f7565b6000821982111561387357613873613656565b500190565b60006001820161388a5761388a613656565b5060010190565b60208082526032908201527f4552433732313a207472616e7366657220746f206e6f6e20455243373231526560408201527131b2b4bb32b91034b6b83632b6b2b73a32b960711b606082015260800190565b600060208083850312156138f657600080fd5b82516001600160401b038082111561390d57600080fd5b8185019150604080838803121561392357600080fd5b61392b613454565b8351613936816131db565b8152838501518381111561394957600080fd5b80850194505087601f85011261395e57600080fd5b8351838111156139705761397061343e565b61397e868260051b0161349e565b818152868101945060079190911b85018601908982111561399e57600080fd5b948601945b818610156139fc576080868b0312156139bc5760008081fd5b6139c461347c565b86516139cf816131db565b815286880151888201528487015185820152606080880151908201528552608090950194938601936139a3565b95820195909552979650505050505050565b6001600160a01b038581168252841660208201526040810183905260806060820181905260009061180990830184613142565b600060208284031215613a5357600080fd5b8151611047816130e356fea2646970667358221220205b14de4097ea63c4ab5474c71e08aa0ddc22a5bebd6642ad7043386079056a64736f6c634300080f0033",
  "deployedBytecode": "0x608060405234801561001057600080fd5b50600436106102275760003560e01c806370dea79a11610130578063a22cb465116100b8578063c87b56dd1161007c578063c87b56dd14610557578063c96121a81461056a578063e4650fac14610572578063e985e9c514610585578063f2fde38b146105c157600080fd5b8063a22cb465146104d8578063a87d942c146104eb578063b18b78dd1461050b578063b88d4fde14610531578063c34b44a01461054457600080fd5b806388bc76ba116100ff57806388bc76ba146104a4578063893d20e8146104b75780638ac6d217146104c85780638da5cb5b146104b757806395d89b41146104d057600080fd5b806370dea79a1461044f578063715018a6146104765780637b5df1c91461047e5780637df73e271461049157600080fd5b80634b9ba446116101b357806363c724f71161018257806363c724f71461038c57806365cacaa41461039f5780636b467d15146103c5578063702595861461041c57806370a082311461043c57600080fd5b80634b9ba4461461034b578063584394791461035e5780636028421f146103665780636352211e1461037957600080fd5b806312fa3bf1116101fa57806312fa3bf1146102a957806323b872dd146102e157806325117b72146102f457806342842e0e1461032557806346e116a61461033857600080fd5b806301ffc9a71461022c57806306fdde0314610254578063081812fc14610269578063095ea7b314610294575b600080fd5b61023f61023a3660046130f9565b6105d4565b60405190151581526020015b60405180910390f35b61025c610626565b60405161024b919061316e565b61027c610277366004613181565b6106b8565b6040516001600160a01b03909116815260200161024b565b6102a76102a23660046131af565b6106df565b005b6102d36102b73660046131f1565b6001600160801b0319166000908152600b602052604090205490565b60405190815260200161024b565b6102a76102ef36600461320e565b6107f9565b60405160ff7f000000000000000000000000000000000000000000000000000000000000000016815260200161024b565b6102a761033336600461320e565b61082a565b6102d361034636600461324f565b610845565b6102a7610359366004613299565b61085e565b600e546102d3565b6102d36103743660046132c2565b610958565b61027c610387366004613181565b610966565b6102a761039a366004613308565b6109c6565b7f000000000000000000000000000000000000000000000000000000000000000061027c565b6103d86103d3366004613299565b610a54565b604080519788526020880196909652948601939093526060850191909152151560808401526001600160801b031990811660a08401521660c082015260e00161024b565b61042f61042a366004613325565b610a7f565b60405161024b919061339a565b6102d361044a366004613308565b610b38565b6102d37f000000000000000000000000000000000000000000000000000000000000000081565b6102a7610bbe565b6102d361048c3660046133de565b610bd2565b61023f61049f366004613308565b610d3d565b6102a76104b23660046131f1565b610d5e565b6000546001600160a01b031661027c565b600f546102d3565b61025c610f05565b6102a76104e6366004613405565b610f14565b6104f3610f1f565b6040516001600160401b03909116815260200161024b565b7f000000000000000000000000000000000000000000000000000000000000000061027c565b6102a761053f3660046134ce565b610f2a565b6102a7610552366004613308565b610f5c565b61025c610565366004613181565b610fe7565b6008546102d3565b6102d3610580366004613299565b61104e565b61023f610593366004613591565b6001600160a01b03918216600090815260066020908152604080832093909416825291909152205460ff1690565b6102a76105cf366004613308565b611059565b60006001600160e01b031982166380ac58cd60e01b148061060557506001600160e01b03198216635b5e139f60e01b145b8061062057506301ffc9a760e01b6001600160e01b03198316145b92915050565b606060018054610635906135bf565b80601f0160208091040260200160405190810160405280929190818152602001828054610661906135bf565b80156106ae5780601f10610683576101008083540402835291602001916106ae565b820191906000526020600020905b81548152906001019060200180831161069157829003601f168201915b5050505050905090565b60006106c3826110d2565b506000908152600560205260409020546001600160a01b031690565b60006106ea82610966565b9050806001600160a01b0316836001600160a01b03160361075c5760405162461bcd60e51b815260206004820152602160248201527f4552433732313a20617070726f76616c20746f2063757272656e74206f776e656044820152603960f91b60648201526084015b60405180910390fd5b336001600160a01b038216148061077857506107788133610593565b6107ea5760405162461bcd60e51b815260206004820152603d60248201527f4552433732313a20617070726f76652063616c6c6572206973206e6f7420746f60448201527f6b656e206f776e6572206f7220617070726f76656420666f7220616c6c0000006064820152608401610753565b6107f48383611131565b505050565b610803338261119f565b61081f5760405162461bcd60e51b8152600401610753906135f3565b6107f483838361121d565b6107f483838360405180602001604052806000815250610f2a565b60006108538585858561138e565b90505b949350505050565b60006009826001600160401b03168154811061087c5761087c613640565b60009182526020918290206040805160e081018252600690930290910180546001600160801b0319608082811b82168652600160801b909204821b169484019490945260018101549183019190915260028101546060830152600381015492820192909252600482015460a082015260059091015460ff1615801560c083015290915061094b5760405162461bcd60e51b815260206004820152601f60248201527f736574746c653a204265742068617320616c726561647920736574746c6564006044820152606401610753565b610954826114af565b5050565b6000610853858585856117d7565b6000818152600360205260408120546001600160a01b0316806106205760405162461bcd60e51b8152602060048201526018602482015277115490cdcc8c4e881a5b9d985b1a59081d1bdad95b88125160421b6044820152606401610753565b6109ce611813565b6001600160a01b038116610a305760405162461bcd60e51b815260206004820152602360248201527f6772616e745369676e65723a20496e76616c6964207369676e6572206164647260448201526265737360e81b6064820152608401610753565b6001600160a01b03166000908152601060205260409020805460ff19166001179055565b6000806000806000806000610a688861186d565b959e949d50929b5090995097509550909350915050565b60606000826001600160401b03811115610a9b57610a9b61343e565b604051908082528060200260200182016040528015610ac4578160200160208202803683370190505b50905060005b60ff8116841115610b30573685858360ff16818110610aeb57610aeb613640565b905061014002019050610afd81610bd2565b838360ff1681518110610b1257610b12613640565b60209081029190910101525080610b288161366c565b915050610aca565b509392505050565b60006001600160a01b038216610ba25760405162461bcd60e51b815260206004820152602960248201527f4552433732313a2061646472657373207a65726f206973206e6f7420612076616044820152683634b21037bbb732b960b91b6064820152608401610753565b506001600160a01b031660009081526004602052604090205490565b610bc6611813565b610bd06000611933565b565b600080610be260208401846131f1565b610bf260408501602086016131f1565b610c0260608601604087016131f1565b604080516001600160801b0319948516602082015292841660308401529216918101919091526080840135605082015260a0840135607082015260c0840135609082015260b001604051602081830303815290604052805190602001209050610c6e818460e001611983565b1515600114610cbf5760405162461bcd60e51b815260206004820152601760248201527f6261636b3a20496e76616c6964207369676e61747572650000000000000000006044820152606401610753565b6000610cf3610cd460408601602087016131f1565b610ce460608701604088016131f1565b866060013587608001356117d7565b905060008111610d0557610d0561368b565b610856610d1860408601602087016131f1565b610d2860608701604088016131f1565b86606001358760a001358860c0013586611a39565b6001600160a01b03811660009081526010602052604081205460ff16610620565b6001600160801b031981166000908152600a6020908152604080832080548251818502810185019093528083529192909190830182828015610df157602002820191906000526020600020906000905b82829054906101000a90046001600160401b03166001600160401b031681526020019060080190602082600701049283019260010382029150808411610dae5790505b505083519394506000925050505b81816001600160401b03161015610efa57600083826001600160401b031681518110610e2d57610e2d613640565b6020026020010151905060006009826001600160401b031681548110610e5557610e55613640565b600091825260208083206040805160e081018252600690940290910180546001600160801b0319608082811b82168752600160801b909204821b169385019390935260018101549184019190915260028101546060840152600381015491830191909152600481015460a08301526005015460ff16151560c082018190529092509003610ee557610ee5826114af565b50508080610ef2906136a1565b915050610dff565b50505050565b905090565b606060028054610635906135bf565b610954338383611fba565b6000610f0060095490565b610f34338361119f565b610f505760405162461bcd60e51b8152600401610753906135f3565b610efa84848484612088565b610f64611813565b6001600160a01b038116610fc65760405162461bcd60e51b8152602060048201526024808201527f7265766f6b655369676e65723a20496e76616c6964207369676e6572206164646044820152637265737360e01b6064820152608401610753565b6001600160a01b03166000908152601060205260409020805460ff19169055565b6060610ff2826110d2565b6000610ffc6120bb565b9050600081511161101c5760405180602001604052806000815250611047565b80611026846120ca565b6040516020016110379291906136c7565b6040516020818303038152906040525b9392505050565b60006106208261215c565b611061611813565b6001600160a01b0381166110c65760405162461bcd60e51b815260206004820152602660248201527f4f776e61626c653a206e6577206f776e657220697320746865207a65726f206160448201526564647265737360d01b6064820152608401610753565b6110cf81611933565b50565b6000818152600360205260409020546001600160a01b03166110cf5760405162461bcd60e51b8152602060048201526018602482015277115490cdcc8c4e881a5b9d985b1a59081d1bdad95b88125160421b6044820152606401610753565b600081815260056020526040902080546001600160a01b0319166001600160a01b038416908117909155819061116682610966565b6001600160a01b03167f8c5be1e5ebec7d5bd14f71427d1e84f3dd0314c0f7b2291e5b200ac8c7c3b92560405160405180910390a45050565b6000806111ab83610966565b9050806001600160a01b0316846001600160a01b031614806111f257506001600160a01b0380821660009081526006602090815260408083209388168352929052205460ff165b806108565750836001600160a01b031661120b846106b8565b6001600160a01b031614949350505050565b826001600160a01b031661123082610966565b6001600160a01b0316146112565760405162461bcd60e51b8152600401610753906136f6565b6001600160a01b0382166112b85760405162461bcd60e51b8152602060048201526024808201527f4552433732313a207472616e7366657220746f20746865207a65726f206164646044820152637265737360e01b6064820152608401610753565b6112c583838360016121b7565b826001600160a01b03166112d882610966565b6001600160a01b0316146112fe5760405162461bcd60e51b8152600401610753906136f6565b600081815260056020908152604080832080546001600160a01b03199081169091556001600160a01b0387811680865260048552838620805460001901905590871680865283862080546001019055868652600390945282852080549092168417909155905184937fddf252ad1be2c89b69c2b068fc378daa952ba7f163c4a11628f55a4df523b3ef91a4505050565b60006001851115806113a1575060018411155b156113ae57506001610856565b60007f00000000000000000000000000000000000000000000000000000000000000006001600160a01b031663b15031fa6040518163ffffffff1660e01b8152600401602060405180830381865afa15801561140e573d6000803e3d6000fd5b505050506040513d601f19601f82011682018060405250810190611432919061373b565b905080600003611446576001915050610856565b6001600160801b031984166000908152600d6020526040902054811015611471576001915050610856565b6001600160801b031984166000908152600d60205260409020546114959082613754565b905060006114a487878461223f565b979650505050505050565b60006009826001600160401b0316815481106114cd576114cd613640565b60009182526020918290206040805160e081018252600690930290910180546001600160801b0319608082811b82168652600160801b909204821b16948401949094526001808201549284019290925260028101546060840152600381015493830193909352600483015460a083015260059092015460ff16151560c082015260098054919350906001600160401b03851690811061156e5761156e613640565b60009182526020822060069190910201600501805460ff1916921515929092179091558061159b8461215c565b4211156115d357600191506115b8846001600160401b0316610966565b90506115ce846001600160401b031660016122c4565b611740565b602083015183516040516306c77ce760e01b81526001600160801b03199283166004820152911660248201527f00000000000000000000000000000000000000000000000000000000000000006001600160a01b0316906306c77ce790604401602060405180830381865afa158015611650573d6000803e3d6000fd5b505050506040513d601f19601f82011682018060405250810190611674919061377a565b915060011960ff8316016116a8577f00000000000000000000000000000000000000000000000000000000000000006116ba565b6116ba846001600160401b0316610966565b905060001960ff8316016116d3576116d1846127c3565b505b6116e6846001600160401b0316836122c4565b6009846001600160401b03168154811061170257611702613640565b906000526020600020906006020160010154600e60008282546117259190613754565b90915550506008805490600061173a83613797565b91905055505b806001600160a01b03167f7c2e00429f610bdb997681cabbb0ef3197390c07fe90ea4a98ac36438dd4217c856009876001600160401b03168154811061178857611788613640565b600091825260209182902060026006909202010154604080516001600160401b0390941684529183015260ff86169082015260600160405180910390a2610efa846001600160401b0316612b29565b6000806117e68484888861138e565b905061180984620f42406117fa82856137ae565b61180491906137cd565b612bcc565b9695505050505050565b6000546001600160a01b03163314610bd05760405162461bcd60e51b815260206004820181905260248201527f4f776e61626c653a2063616c6c6572206973206e6f7420746865206f776e65726044820152606401610753565b6000806000806000806000806009896001600160401b03168154811061189557611895613640565b60009182526020918290206040805160e0810182526006939093029091018054608081811b6001600160801b0319908116808752600160801b909304821b1695850186905260018301549385018490526002830154606086018190526003840154918601829052600484015460a0870181905260059094015460ff16151560c0909601869052939f939e509c50909a50919850919650945092505050565b600080546001600160a01b038381166001600160a01b0319831681178455604051919092169283917f8be0079c531659141344cd1fd0a4f28419497f9722a3daafe3b4186f6b6457e09190a35050565b60008073__$47464c6f7588c8075b5d384b19d082a8ec$__635cff288d85856040518363ffffffff1660e01b81526004016119bf9291906137ef565b602060405180830381865af41580156119dc573d6000803e3d6000fd5b505050506040513d601f19601f82011682018060405250810190611a009190613826565b90506001600160a01b038116611a1857611a1861368b565b6001600160a01b03811660009081526010602052604090205460ff16610856565b60004283118015611a4957504284115b611a8b5760405162461bcd60e51b81526020600482015260136024820152725f6261636b3a20496e76616c6964206461746560681b6044820152606401610753565b6040516306c77ce760e01b81526001600160801b03198088166004830152881660248201527f00000000000000000000000000000000000000000000000000000000000000006001600160a01b0316906306c77ce790604401602060405180830381865afa158015611b01573d6000803e3d6000fd5b505050506040513d601f19601f82011682018060405250810190611b25919061377a565b60ff16600214611b905760405162461bcd60e51b815260206004820152603060248201527f5f6261636b3a204f7261636c6520726573756c7420616c72656164792073657460448201526f08199bdc881d1a1a5cc81b585c9ad95d60821b6064820152608401610753565b60007f00000000000000000000000000000000000000000000000000000000000000006001600160a01b03166338d52e0f6040518163ffffffff1660e01b8152600401602060405180830381865afa158015611bf0573d6000803e3d6000fd5b505050506040513d601f19601f82011682018060405250810190611c149190613826565b90506001600160a01b0381166323b872dd3360405160e083901b6001600160e01b03191681526001600160a01b0391821660048201527f00000000000000000000000000000000000000000000000000000000000000009091166024820152604481018990526064016020604051808303816000875af1158015611c9c573d6000803e3d6000fd5b505050506040513d601f19601f82011682018060405250810190611cc09190613843565b506001600160801b031987166000908152600b602052604081208054889290611cea908490613860565b9250508190555085600e6000828254611d039190613860565b909155505060088054906000611d1883613878565b91905055506000611d2860095490565b6001600160801b03198a166000908152600d6020526040812080549293508692909190611d56908490613860565b90915550611d7290506001600160401b038216898b8a88612be2565b600f6000828254611d839190613860565b90915550506040805160e0810182526001600160801b03198b811682528a1660208083018281528385018c8152606085018a815260808087018d81524260a08901908152600060c08a0181815260098054600180820183559184529b51985198861c600160801b9990961c98909802949094177f6e1540171b6c0c960b71a7020d9f60077f6af931a8bbf590da0223dacf75c7af6006909b029a8b015594517f6e1540171b6c0c960b71a7020d9f60077f6af931a8bbf590da0223dacf75c7b08a015592517f6e1540171b6c0c960b71a7020d9f60077f6af931a8bbf590da0223dacf75c7b1890155517f6e1540171b6c0c960b71a7020d9f60077f6af931a8bbf590da0223dacf75c7b288015590517f6e1540171b6c0c960b71a7020d9f60077f6af931a8bbf590da0223dacf75c7b3870155517f6e1540171b6c0c960b71a7020d9f60077f6af931a8bbf590da0223dacf75c7b4909501805460ff191695151595909517909455918352600a81529282208054918201815582529190206004820401805460039092166008026101000a6001600160401b038181021990931692841602919091179055611f4133826001600160401b0316612d74565b604080516001600160401b03831681526001600160801b03198b811660208301528a16818301526060810189905260808101869052905133917f1d273ea6a1aea94de32fd06a09ab8046dff8e3261c5a4ecaa5e1a5705f3342ec919081900360a00190a26001600160401b031698975050505050505050565b816001600160a01b0316836001600160a01b03160361201b5760405162461bcd60e51b815260206004820152601960248201527f4552433732313a20617070726f766520746f2063616c6c6572000000000000006044820152606401610753565b6001600160a01b03838116600081815260066020908152604080832094871680845294825291829020805460ff191686151590811790915591519182527f17307eab39ab6107e8899845ad3d59bd9653f200f220920489ca2b5937696c31910160405180910390a3505050565b61209384848461121d565b61209f84848484612f0d565b610efa5760405162461bcd60e51b815260040161075390613891565b606060078054610635906135bf565b606060006120d78361300b565b60010190506000816001600160401b038111156120f6576120f661343e565b6040519080825280601f01601f191660200182016040528015612120576020820181803683370190505b5090508181016020015b600019016f181899199a1a9b1b9c1cb0b131b232b360811b600a86061a8153600a850494508461212a57509392505050565b60007f00000000000000000000000000000000000000000000000000000000000000006009836001600160401b03168154811061219b5761219b613640565b9060005260206000209060060201600301546106209190613860565b6001811115610efa576001600160a01b038416156121fd576001600160a01b038416600090815260046020526040812080548392906121f7908490613754565b90915550505b6001600160a01b03831615610efa576001600160a01b03831660009081526004602052604081208054839290612234908490613860565b909155505050505050565b60405163a19dec4360e01b815260048101849052602481018390526044810182905260009073__$488e0037c7b108d422da68056570fe35d6$__9063a19dec4390606401602060405180830381865af41580156122a0573d6000803e3d6000fd5b505050506040513d601f19601f82011682018060405250810190610856919061373b565b60021960ff821601612576576000600983815481106122e5576122e5613640565b9060005260206000209060060201600101546009848154811061230a5761230a613640565b9060005260206000209060060201600201546123269190613754565b90507f00000000000000000000000000000000000000000000000000000000000000006001600160a01b03166338d52e0f6040518163ffffffff1660e01b8152600401602060405180830381865afa158015612386573d6000803e3d6000fd5b505050506040513d601f19601f820116820180604052508101906123aa9190613826565b6001600160a01b031663a9059cbb6123c185610966565b600986815481106123d4576123d4613640565b60009182526020909120600160069092020101546040516001600160e01b031960e085901b1681526001600160a01b03909216600483015260248201526044016020604051808303816000875af1158015612433573d6000803e3d6000fd5b505050506040513d601f19601f820116820180604052508101906124579190613843565b507f00000000000000000000000000000000000000000000000000000000000000006001600160a01b03166338d52e0f6040518163ffffffff1660e01b8152600401602060405180830381865afa1580156124b6573d6000803e3d6000fd5b505050506040513d601f19601f820116820180604052508101906124da9190613826565b60405163a9059cbb60e01b81526001600160a01b037f00000000000000000000000000000000000000000000000000000000000000008116600483015260248201849052919091169063a9059cbb906044016020604051808303816000875af115801561254b573d6000803e3d6000fd5b505050506040513d601f19601f8201168201806040525081019061256f9190613843565b5050612755565b600060ff82166001146125a9577f00000000000000000000000000000000000000000000000000000000000000006125b2565b6125b283610966565b90506000600984815481106125c9576125c9613640565b90600052602060002090600602016002015490507f00000000000000000000000000000000000000000000000000000000000000006001600160a01b0316826001600160a01b03160361265a57816001600160a01b03167f0516911bcc3a0a7412a44601057c0a0a1ec628bde049a84284bc4288665344888260405161265191815260200190565b60405180910390a25b7f00000000000000000000000000000000000000000000000000000000000000006001600160a01b03166338d52e0f6040518163ffffffff1660e01b8152600401602060405180830381865afa1580156126b8573d6000803e3d6000fd5b505050506040513d601f19601f820116820180604052508101906126dc9190613826565b60405163a9059cbb60e01b81526001600160a01b03848116600483015260248201849052919091169063a9059cbb906044016020604051808303816000875af115801561272d573d6000803e3d6000fd5b505050506040513d601f19601f820116820180604052508101906127519190613843565b5050505b6009828154811061276857612768613640565b9060005260206000209060060201600101546009838154811061278d5761278d613640565b9060005260206000209060060201600201546127a99190613754565b600f60008282546127ba9190613754565b90915550505050565b6000806009836001600160401b0316815481106127e2576127e2613640565b60009182526020822060069190910201546040516325a8f38560e11b8152600160801b90910460801b6001600160801b03198116600483015292506001600160a01b037f00000000000000000000000000000000000000000000000000000000000000001690634b51e70a90602401600060405180830381865afa15801561286e573d6000803e3d6000fd5b505050506040513d6000823e601f3d908101601f1916820160405261289691908101906138e3565b90506000806009866001600160401b0316815481106128b7576128b7613640565b90600052602060002090600602016004015490506000836020015151905060005b8181101561294b5782856020015182815181106128f7576128f7613640565b6020026020010151602001511115612939578460200151818151811061291f5761291f613640565b602002602001015160400151846129369190613860565b93505b8061294381613878565b9150506128d8565b50600083118015612989575060006009886001600160401b03168154811061297557612975613640565b906000526020600020906006020160010154115b15612aef5760006009886001600160401b0316815481106129ac576129ac613640565b9060005260206000209060060201600101546009896001600160401b0316815481106129da576129da613640565b9060005260206000209060060201600201546129f691906137cd565b604051637869dde560e11b815260048101829052602481018690526216e360604482015290915060009073__$488e0037c7b108d422da68056570fe35d6$__9063f0d3bbca90606401602060405180830381865af4158015612a5c573d6000803e3d6000fd5b505050506040513d601f19601f82011682018060405250810190612a80919061373b565b90508060098a6001600160401b031681548110612a9f57612a9f613640565b906000526020600020906006020160010154612abb91906137ae565b60098a6001600160401b031681548110612ad757612ad7613640565b90600052602060002090600602016002018190555050505b6009876001600160401b031681548110612b0b57612b0b613640565b90600052602060002090600602016002015495505050505050919050565b6000612b3482610966565b9050612b448160008460016121b7565b612b4d82610966565b600083815260056020908152604080832080546001600160a01b03199081169091556001600160a01b0385168085526004845282852080546000190190558785526003909352818420805490911690555192935084927fddf252ad1be2c89b69c2b068fc378daa952ba7f163c4a11628f55a4df523b3ef908390a45050565b6000818311612bdb5781611047565b5090919050565b600080612bef8484613754565b90507f00000000000000000000000000000000000000000000000000000000000000006001600160a01b03166338d52e0f6040518163ffffffff1660e01b8152600401602060405180830381865afa158015612c4f573d6000803e3d6000fd5b505050506040513d601f19601f82011682018060405250810190612c739190613826565b6040516323b872dd60e01b81526001600160a01b037f0000000000000000000000000000000000000000000000000000000000000000811660048301527f0000000000000000000000000000000000000000000000000000000000000000811660248301526044820184905291909116906323b872dd906064016020604051808303816000875af1158015612d0c573d6000803e3d6000fd5b505050506040513d601f19601f82011682018060405250810190612d309190613843565b5060408051888152602081018390527f14a13f958d7fe38fb8529e8d43353b6d9120f52444e486a4077f68a3fc77dcbf910160405180910390a19695505050505050565b6001600160a01b038216612dca5760405162461bcd60e51b815260206004820181905260248201527f4552433732313a206d696e7420746f20746865207a65726f20616464726573736044820152606401610753565b6000818152600360205260409020546001600160a01b031615612e2f5760405162461bcd60e51b815260206004820152601c60248201527f4552433732313a20746f6b656e20616c7265616479206d696e746564000000006044820152606401610753565b612e3d6000838360016121b7565b6000818152600360205260409020546001600160a01b031615612ea25760405162461bcd60e51b815260206004820152601c60248201527f4552433732313a20746f6b656e20616c7265616479206d696e746564000000006044820152606401610753565b6001600160a01b038216600081815260046020908152604080832080546001019055848352600390915280822080546001600160a01b0319168417905551839291907fddf252ad1be2c89b69c2b068fc378daa952ba7f163c4a11628f55a4df523b3ef908290a45050565b60006001600160a01b0384163b1561300357604051630a85bd0160e11b81526001600160a01b0385169063150b7a0290612f51903390899088908890600401613a0e565b6020604051808303816000875af1925050508015612f8c575060408051601f3d908101601f19168201909252612f8991810190613a41565b60015b612fe9573d808015612fba576040519150601f19603f3d011682016040523d82523d6000602084013e612fbf565b606091505b508051600003612fe15760405162461bcd60e51b815260040161075390613891565b805181602001fd5b6001600160e01b031916630a85bd0160e11b149050610856565b506001610856565b60008072184f03e93ff9f4daa797ed6e38ed64bf6a1f0160401b831061304a5772184f03e93ff9f4daa797ed6e38ed64bf6a1f0160401b830492506040015b6d04ee2d6d415b85acef81000000008310613076576d04ee2d6d415b85acef8100000000830492506020015b662386f26fc10000831061309457662386f26fc10000830492506010015b6305f5e10083106130ac576305f5e100830492506008015b61271083106130c057612710830492506004015b606483106130d2576064830492506002015b600a83106106205760010192915050565b6001600160e01b0319811681146110cf57600080fd5b60006020828403121561310b57600080fd5b8135611047816130e3565b60005b83811015613131578181015183820152602001613119565b83811115610efa5750506000910152565b6000815180845261315a816020860160208601613116565b601f01601f19169290920160200192915050565b6020815260006110476020830184613142565b60006020828403121561319357600080fd5b5035919050565b6001600160a01b03811681146110cf57600080fd5b600080604083850312156131c257600080fd5b82356131cd8161319a565b946020939093013593505050565b6001600160801b0319811681146110cf57600080fd5b60006020828403121561320357600080fd5b8135611047816131db565b60008060006060848603121561322357600080fd5b833561322e8161319a565b9250602084013561323e8161319a565b929592945050506040919091013590565b6000806000806080858703121561326557600080fd5b8435935060208501359250604085013561327e816131db565b9150606085013561328e816131db565b939692955090935050565b6000602082840312156132ab57600080fd5b81356001600160401b038116811461104757600080fd5b600080600080608085870312156132d857600080fd5b84356132e3816131db565b935060208501356132f3816131db565b93969395505050506040820135916060013590565b60006020828403121561331a57600080fd5b81356110478161319a565b6000806020838503121561333857600080fd5b82356001600160401b038082111561334f57600080fd5b818501915085601f83011261336357600080fd5b81358181111561337257600080fd5b8660206101408302850101111561338857600080fd5b60209290920196919550909350505050565b6020808252825182820181905260009190848201906040850190845b818110156133d2578351835292840192918401916001016133b6565b50909695505050505050565b600061014082840312156133f157600080fd5b50919050565b80151581146110cf57600080fd5b6000806040838503121561341857600080fd5b82356134238161319a565b91506020830135613433816133f7565b809150509250929050565b634e487b7160e01b600052604160045260246000fd5b604080519081016001600160401b03811182821017156134765761347661343e565b60405290565b604051608081016001600160401b03811182821017156134765761347661343e565b604051601f8201601f191681016001600160401b03811182821017156134c6576134c661343e565b604052919050565b600080600080608085870312156134e457600080fd5b84356134ef8161319a565b93506020858101356135008161319a565b93506040860135925060608601356001600160401b038082111561352357600080fd5b818801915088601f83011261353757600080fd5b8135818111156135495761354961343e565b61355b601f8201601f1916850161349e565b9150808252898482850101111561357157600080fd5b808484018584013760008482840101525080935050505092959194509250565b600080604083850312156135a457600080fd5b82356135af8161319a565b915060208301356134338161319a565b600181811c908216806135d357607f821691505b6020821081036133f157634e487b7160e01b600052602260045260246000fd5b6020808252602d908201527f4552433732313a2063616c6c6572206973206e6f7420746f6b656e206f776e6560408201526c1c881bdc88185c1c1c9bdd9959609a1b606082015260800190565b634e487b7160e01b600052603260045260246000fd5b634e487b7160e01b600052601160045260246000fd5b600060ff821660ff810361368257613682613656565b60010192915050565b634e487b7160e01b600052600160045260246000fd5b60006001600160401b038083168181036136bd576136bd613656565b6001019392505050565b600083516136d9818460208801613116565b8351908301906136ed818360208801613116565b01949350505050565b60208082526025908201527f4552433732313a207472616e736665722066726f6d20696e636f72726563742060408201526437bbb732b960d91b606082015260800190565b60006020828403121561374d57600080fd5b5051919050565b60008282101561376657613766613656565b500390565b60ff811681146110cf57600080fd5b60006020828403121561378c57600080fd5b81516110478161376b565b6000816137a6576137a6613656565b506000190190565b60008160001904831182151516156137c8576137c8613656565b500290565b6000826137ea57634e487b7160e01b600052601260045260246000fd5b500490565b8281526080810182356138018161376b565b60ff811660208401525060208301356040830152604083013560608301529392505050565b60006020828403121561383857600080fd5b81516110478161319a565b60006020828403121561385557600080fd5b8151611047816133f7565b6000821982111561387357613873613656565b500190565b60006001820161388a5761388a613656565b5060010190565b60208082526032908201527f4552433732313a207472616e7366657220746f206e6f6e20455243373231526560408201527131b2b4bb32b91034b6b83632b6b2b73a32b960711b606082015260800190565b600060208083850312156138f657600080fd5b82516001600160401b038082111561390d57600080fd5b8185019150604080838803121561392357600080fd5b61392b613454565b8351613936816131db565b8152838501518381111561394957600080fd5b80850194505087601f85011261395e57600080fd5b8351838111156139705761397061343e565b61397e868260051b0161349e565b818152868101945060079190911b85018601908982111561399e57600080fd5b948601945b818610156139fc576080868b0312156139bc5760008081fd5b6139c461347c565b86516139cf816131db565b815286880151888201528487015185820152606080880151908201528552608090950194938601936139a3565b95820195909552979650505050505050565b6001600160a01b038581168252841660208201526040810183905260806060820181905260009061180990830184613142565b600060208284031215613a5357600080fd5b8151611047816130e356fea2646970667358221220205b14de4097ea63c4ab5474c71e08aa0ddc22a5bebd6642ad7043386079056a64736f6c634300080f0033",
  "libraries": {
    "SignatureLib": "0xC2ab165C60747a2b3FBc468CF5B74F5B7822Ca49",
    "OddsLib": "0xf1715416B00B21e10A97C63d4080c423450a80dd"
  },
  "devdoc": {
    "kind": "dev",
    "methods": {
      "approve(address,uint256)": {
        "details": "See {IERC721-approve}."
      },
      "balanceOf(address)": {
        "details": "See {IERC721-balanceOf}."
      },
      "getApproved(uint256)": {
        "details": "See {IERC721-getApproved}."
      },
      "isApprovedForAll(address,address)": {
        "details": "See {IERC721-isApprovedForAll}."
      },
      "name()": {
        "details": "See {IERC721Metadata-name}."
      },
      "owner()": {
        "details": "Returns the address of the current owner."
      },
      "ownerOf(uint256)": {
        "details": "See {IERC721-ownerOf}."
      },
      "renounceOwnership()": {
        "details": "Leaves the contract without owner. It will not be possible to call `onlyOwner` functions anymore. Can only be called by the current owner. NOTE: Renouncing ownership will leave the contract without an owner, thereby removing any functionality that is only available to the owner."
      },
      "safeTransferFrom(address,address,uint256)": {
        "details": "See {IERC721-safeTransferFrom}."
      },
      "safeTransferFrom(address,address,uint256,bytes)": {
        "details": "See {IERC721-safeTransferFrom}."
      },
      "setApprovalForAll(address,bool)": {
        "details": "See {IERC721-setApprovalForAll}."
      },
      "supportsInterface(bytes4)": {
        "details": "See {IERC165-supportsInterface}."
      },
      "symbol()": {
        "details": "See {IERC721Metadata-symbol}."
      },
      "tokenURI(uint256)": {
        "details": "See {IERC721Metadata-tokenURI}."
      },
      "transferFrom(address,address,uint256)": {
        "details": "See {IERC721-transferFrom}."
      },
      "transferOwnership(address)": {
        "details": "Transfers ownership of the contract to a new account (`newOwner`). Can only be called by the current owner."
      }
    },
    "version": 1
  },
  "userdoc": {
    "kind": "user",
    "methods": {},
    "version": 1
  },
  "storageLayout": {
    "storage": [
      {
        "astId": 2722,
        "contract": "contracts/Market.sol:Market",
        "label": "_owner",
        "offset": 0,
        "slot": "0",
        "type": "t_address"
      },
      {
        "astId": 5039,
        "contract": "contracts/Market.sol:Market",
        "label": "_name",
        "offset": 0,
        "slot": "1",
        "type": "t_string_storage"
      },
      {
        "astId": 5041,
        "contract": "contracts/Market.sol:Market",
        "label": "_symbol",
        "offset": 0,
        "slot": "2",
        "type": "t_string_storage"
      },
      {
        "astId": 5045,
        "contract": "contracts/Market.sol:Market",
        "label": "_owners",
        "offset": 0,
        "slot": "3",
        "type": "t_mapping(t_uint256,t_address)"
      },
      {
        "astId": 5049,
        "contract": "contracts/Market.sol:Market",
        "label": "_balances",
        "offset": 0,
        "slot": "4",
        "type": "t_mapping(t_address,t_uint256)"
      },
      {
        "astId": 5053,
        "contract": "contracts/Market.sol:Market",
        "label": "_tokenApprovals",
        "offset": 0,
        "slot": "5",
        "type": "t_mapping(t_uint256,t_address)"
      },
      {
        "astId": 5059,
        "contract": "contracts/Market.sol:Market",
        "label": "_operatorApprovals",
        "offset": 0,
        "slot": "6",
        "type": "t_mapping(t_address,t_mapping(t_address,t_bool))"
      },
      {
        "astId": 11979,
        "contract": "contracts/Market.sol:Market",
        "label": "_metadataBaseURI",
        "offset": 0,
        "slot": "7",
        "type": "t_string_storage"
      },
      {
        "astId": 11991,
        "contract": "contracts/Market.sol:Market",
        "label": "_inplayCount",
        "offset": 0,
        "slot": "8",
        "type": "t_uint256"
      },
      {
        "astId": 11995,
        "contract": "contracts/Market.sol:Market",
        "label": "_bets",
        "offset": 0,
        "slot": "9",
        "type": "t_array(t_struct(Bet)11965_storage)dyn_storage"
      },
      {
        "astId": 12000,
        "contract": "contracts/Market.sol:Market",
        "label": "_marketBets",
        "offset": 0,
        "slot": "10",
        "type": "t_mapping(t_bytes16,t_array(t_uint64)dyn_storage)"
      },
      {
        "astId": 12004,
        "contract": "contracts/Market.sol:Market",
        "label": "_marketTotal",
        "offset": 0,
        "slot": "11",
        "type": "t_mapping(t_bytes16,t_uint256)"
      },
      {
        "astId": 12010,
        "contract": "contracts/Market.sol:Market",
        "label": "_marketBetAmount",
        "offset": 0,
        "slot": "12",
        "type": "t_mapping(t_bytes16,t_mapping(t_uint16,t_uint256))"
      },
      {
        "astId": 12014,
        "contract": "contracts/Market.sol:Market",
        "label": "_potentialPayout",
        "offset": 0,
        "slot": "13",
        "type": "t_mapping(t_bytes16,t_uint256)"
      },
      {
        "astId": 12016,
        "contract": "contracts/Market.sol:Market",
        "label": "_totalInPlay",
        "offset": 0,
        "slot": "14",
        "type": "t_uint256"
      },
      {
        "astId": 12018,
        "contract": "contracts/Market.sol:Market",
        "label": "_totalExposure",
        "offset": 0,
        "slot": "15",
        "type": "t_uint256"
      },
      {
        "astId": 12024,
        "contract": "contracts/Market.sol:Market",
        "label": "_signers",
        "offset": 0,
        "slot": "16",
        "type": "t_mapping(t_address,t_bool)"
      }
    ],
    "types": {
      "t_address": {
        "encoding": "inplace",
        "label": "address",
        "numberOfBytes": "20"
      },
      "t_array(t_struct(Bet)11965_storage)dyn_storage": {
        "base": "t_struct(Bet)11965_storage",
        "encoding": "dynamic_array",
        "label": "struct Bet[]",
        "numberOfBytes": "32"
      },
      "t_array(t_uint64)dyn_storage": {
        "base": "t_uint64",
        "encoding": "dynamic_array",
        "label": "uint64[]",
        "numberOfBytes": "32"
      },
      "t_bool": {
        "encoding": "inplace",
        "label": "bool",
        "numberOfBytes": "1"
      },
      "t_bytes16": {
        "encoding": "inplace",
        "label": "bytes16",
        "numberOfBytes": "16"
      },
      "t_mapping(t_address,t_bool)": {
        "encoding": "mapping",
        "key": "t_address",
        "label": "mapping(address => bool)",
        "numberOfBytes": "32",
        "value": "t_bool"
      },
      "t_mapping(t_address,t_mapping(t_address,t_bool))": {
        "encoding": "mapping",
        "key": "t_address",
        "label": "mapping(address => mapping(address => bool))",
        "numberOfBytes": "32",
        "value": "t_mapping(t_address,t_bool)"
      },
      "t_mapping(t_address,t_uint256)": {
        "encoding": "mapping",
        "key": "t_address",
        "label": "mapping(address => uint256)",
        "numberOfBytes": "32",
        "value": "t_uint256"
      },
      "t_mapping(t_bytes16,t_array(t_uint64)dyn_storage)": {
        "encoding": "mapping",
        "key": "t_bytes16",
        "label": "mapping(bytes16 => uint64[])",
        "numberOfBytes": "32",
        "value": "t_array(t_uint64)dyn_storage"
      },
      "t_mapping(t_bytes16,t_mapping(t_uint16,t_uint256))": {
        "encoding": "mapping",
        "key": "t_bytes16",
        "label": "mapping(bytes16 => mapping(uint16 => uint256))",
        "numberOfBytes": "32",
        "value": "t_mapping(t_uint16,t_uint256)"
      },
      "t_mapping(t_bytes16,t_uint256)": {
        "encoding": "mapping",
        "key": "t_bytes16",
        "label": "mapping(bytes16 => uint256)",
        "numberOfBytes": "32",
        "value": "t_uint256"
      },
      "t_mapping(t_uint16,t_uint256)": {
        "encoding": "mapping",
        "key": "t_uint16",
        "label": "mapping(uint16 => uint256)",
        "numberOfBytes": "32",
        "value": "t_uint256"
      },
      "t_mapping(t_uint256,t_address)": {
        "encoding": "mapping",
        "key": "t_uint256",
        "label": "mapping(uint256 => address)",
        "numberOfBytes": "32",
        "value": "t_address"
      },
      "t_string_storage": {
        "encoding": "bytes",
        "label": "string",
        "numberOfBytes": "32"
      },
      "t_struct(Bet)11965_storage": {
        "encoding": "inplace",
        "label": "struct Bet",
        "members": [
          {
            "astId": 11952,
            "contract": "contracts/Market.sol:Market",
            "label": "propositionId",
            "offset": 0,
            "slot": "0",
            "type": "t_bytes16"
          },
          {
            "astId": 11954,
            "contract": "contracts/Market.sol:Market",
            "label": "marketId",
            "offset": 16,
            "slot": "0",
            "type": "t_bytes16"
          },
          {
            "astId": 11956,
            "contract": "contracts/Market.sol:Market",
            "label": "amount",
            "offset": 0,
            "slot": "1",
            "type": "t_uint256"
          },
          {
            "astId": 11958,
            "contract": "contracts/Market.sol:Market",
            "label": "payout",
            "offset": 0,
            "slot": "2",
            "type": "t_uint256"
          },
          {
            "astId": 11960,
            "contract": "contracts/Market.sol:Market",
            "label": "payoutDate",
            "offset": 0,
            "slot": "3",
            "type": "t_uint256"
          },
          {
            "astId": 11962,
            "contract": "contracts/Market.sol:Market",
            "label": "created",
            "offset": 0,
            "slot": "4",
            "type": "t_uint256"
          },
          {
            "astId": 11964,
            "contract": "contracts/Market.sol:Market",
            "label": "settled",
            "offset": 0,
            "slot": "5",
            "type": "t_bool"
          }
        ],
        "numberOfBytes": "192"
      },
      "t_uint16": {
        "encoding": "inplace",
        "label": "uint16",
        "numberOfBytes": "2"
      },
      "t_uint256": {
        "encoding": "inplace",
        "label": "uint256",
        "numberOfBytes": "32"
      },
      "t_uint64": {
        "encoding": "inplace",
        "label": "uint64",
        "numberOfBytes": "8"
      }
    }
  }
}