{
  "address": "0xc244c09e2D54881B544bC541DaE2D781c8880a64",
  "abi": [
    {
      "inputs": [
        {
          "internalType": "contract IVault",
          "name": "vault",
          "type": "address"
        },
        {
          "internalType": "uint8",
          "name": "margin",
          "type": "uint8"
        },
        {
          "internalType": "uint8",
          "name": "timeoutDays",
          "type": "uint8"
        },
        {
          "internalType": "address",
          "name": "oracle",
          "type": "address"
        },
        {
          "internalType": "string",
          "name": "metadataBaseURI",
          "type": "string"
        }
      ],
      "stateMutability": "nonpayable",
      "type": "constructor"
    },
    {
      "anonymous": false,
      "inputs": [
        {
          "indexed": true,
          "internalType": "address",
          "name": "owner",
          "type": "address"
        },
        {
          "indexed": true,
          "internalType": "address",
          "name": "approved",
          "type": "address"
        },
        {
          "indexed": true,
          "internalType": "uint256",
          "name": "tokenId",
          "type": "uint256"
        }
      ],
      "name": "Approval",
      "type": "event"
    },
    {
      "anonymous": false,
      "inputs": [
        {
          "indexed": true,
          "internalType": "address",
          "name": "owner",
          "type": "address"
        },
        {
          "indexed": true,
          "internalType": "address",
          "name": "operator",
          "type": "address"
        },
        {
          "indexed": false,
          "internalType": "bool",
          "name": "approved",
          "type": "bool"
        }
      ],
      "name": "ApprovalForAll",
      "type": "event"
    },
    {
      "anonymous": false,
      "inputs": [
        {
          "indexed": false,
          "internalType": "uint256",
          "name": "index",
          "type": "uint256"
        },
        {
          "indexed": false,
          "internalType": "uint256",
          "name": "amount",
          "type": "uint256"
        }
      ],
      "name": "Borrowed",
      "type": "event"
    },
    {
      "anonymous": false,
      "inputs": [
        {
          "indexed": true,
          "internalType": "address",
          "name": "previousOwner",
          "type": "address"
        },
        {
          "indexed": true,
          "internalType": "address",
          "name": "newOwner",
          "type": "address"
        }
      ],
      "name": "OwnershipTransferred",
      "type": "event"
    },
    {
      "anonymous": false,
      "inputs": [
        {
          "indexed": false,
          "internalType": "uint256",
          "name": "index",
          "type": "uint256"
        },
        {
          "indexed": false,
          "internalType": "bytes16",
          "name": "propositionId",
          "type": "bytes16"
        },
        {
          "indexed": false,
          "internalType": "bytes16",
          "name": "marketId",
          "type": "bytes16"
        },
        {
          "indexed": false,
          "internalType": "uint256",
          "name": "amount",
          "type": "uint256"
        },
        {
          "indexed": false,
          "internalType": "uint256",
          "name": "payout",
          "type": "uint256"
        },
        {
          "indexed": true,
          "internalType": "address",
          "name": "owner",
          "type": "address"
        }
      ],
      "name": "Placed",
      "type": "event"
    },
    {
      "anonymous": false,
      "inputs": [
        {
          "indexed": false,
          "internalType": "uint256",
          "name": "index",
          "type": "uint256"
        },
        {
          "indexed": false,
          "internalType": "uint256",
          "name": "amount",
          "type": "uint256"
        }
      ],
      "name": "Refunded",
      "type": "event"
    },
    {
      "anonymous": false,
      "inputs": [
        {
          "indexed": true,
          "internalType": "address",
          "name": "vault",
          "type": "address"
        },
        {
          "indexed": false,
          "internalType": "uint256",
          "name": "amount",
          "type": "uint256"
        }
      ],
      "name": "Repaid",
      "type": "event"
    },
    {
      "anonymous": false,
      "inputs": [
        {
          "indexed": false,
          "internalType": "uint256",
          "name": "index",
          "type": "uint256"
        },
        {
          "indexed": false,
          "internalType": "uint256",
          "name": "payout",
          "type": "uint256"
        },
        {
          "indexed": false,
          "internalType": "uint8",
          "name": "result",
          "type": "uint8"
        },
        {
          "indexed": true,
          "internalType": "address",
          "name": "recipient",
          "type": "address"
        }
      ],
      "name": "Settled",
      "type": "event"
    },
    {
      "anonymous": false,
      "inputs": [
        {
          "indexed": true,
          "internalType": "address",
          "name": "from",
          "type": "address"
        },
        {
          "indexed": true,
          "internalType": "address",
          "name": "to",
          "type": "address"
        },
        {
          "indexed": true,
          "internalType": "uint256",
          "name": "tokenId",
          "type": "uint256"
        }
      ],
      "name": "Transfer",
      "type": "event"
    },
    {
      "inputs": [
        {
          "internalType": "address",
          "name": "to",
          "type": "address"
        },
        {
          "internalType": "uint256",
          "name": "tokenId",
          "type": "uint256"
        }
      ],
      "name": "approve",
      "outputs": [],
      "stateMutability": "nonpayable",
      "type": "function"
    },
    {
      "inputs": [
        {
          "components": [
            {
              "internalType": "bytes16",
              "name": "nonce",
              "type": "bytes16"
            },
            {
              "internalType": "bytes16",
              "name": "propositionId",
              "type": "bytes16"
            },
            {
              "internalType": "bytes16",
              "name": "marketId",
              "type": "bytes16"
            },
            {
              "internalType": "uint256",
              "name": "wager",
              "type": "uint256"
            },
            {
              "internalType": "uint256",
              "name": "odds",
              "type": "uint256"
            },
            {
              "internalType": "uint256",
              "name": "close",
              "type": "uint256"
            },
            {
              "internalType": "uint256",
              "name": "end",
              "type": "uint256"
            },
            {
              "components": [
                {
                  "internalType": "uint8",
                  "name": "v",
                  "type": "uint8"
                },
                {
                  "internalType": "bytes32",
                  "name": "r",
                  "type": "bytes32"
                },
                {
                  "internalType": "bytes32",
                  "name": "s",
                  "type": "bytes32"
                }
              ],
              "internalType": "struct SignatureLib.Signature",
              "name": "signature",
              "type": "tuple"
            }
          ],
          "internalType": "struct IMarket.Back",
          "name": "backData",
          "type": "tuple"
        }
      ],
      "name": "back",
      "outputs": [
        {
          "internalType": "uint256",
          "name": "",
          "type": "uint256"
        }
      ],
      "stateMutability": "nonpayable",
      "type": "function"
    },
    {
      "inputs": [
        {
          "internalType": "address",
          "name": "owner",
          "type": "address"
        }
      ],
      "name": "balanceOf",
      "outputs": [
        {
          "internalType": "uint256",
          "name": "",
          "type": "uint256"
        }
      ],
      "stateMutability": "view",
      "type": "function"
    },
    {
      "inputs": [
        {
          "internalType": "uint256",
          "name": "tokenId",
          "type": "uint256"
        }
      ],
      "name": "getApproved",
      "outputs": [
        {
          "internalType": "address",
          "name": "",
          "type": "address"
        }
      ],
      "stateMutability": "view",
      "type": "function"
    },
    {
      "inputs": [
        {
          "internalType": "uint64",
          "name": "index",
          "type": "uint64"
        }
      ],
      "name": "getBetByIndex",
      "outputs": [
        {
          "internalType": "uint256",
          "name": "",
          "type": "uint256"
        },
        {
          "internalType": "uint256",
          "name": "",
          "type": "uint256"
        },
        {
          "internalType": "uint256",
          "name": "",
          "type": "uint256"
        },
        {
          "internalType": "uint256",
          "name": "",
          "type": "uint256"
        },
        {
          "internalType": "bool",
          "name": "",
          "type": "bool"
        },
        {
          "internalType": "bytes16",
          "name": "",
          "type": "bytes16"
        },
        {
          "internalType": "bytes16",
          "name": "",
          "type": "bytes16"
        }
      ],
      "stateMutability": "view",
      "type": "function"
    },
    {
      "inputs": [],
      "name": "getCount",
      "outputs": [
        {
          "internalType": "uint64",
          "name": "",
          "type": "uint64"
        }
      ],
      "stateMutability": "view",
      "type": "function"
    },
    {
      "inputs": [
        {
          "internalType": "uint64",
          "name": "index",
          "type": "uint64"
        }
      ],
      "name": "getExpiry",
      "outputs": [
        {
          "internalType": "uint256",
          "name": "",
          "type": "uint256"
        }
      ],
      "stateMutability": "view",
      "type": "function"
    },
    {
      "inputs": [],
      "name": "getInPlayCount",
      "outputs": [
        {
          "internalType": "uint256",
          "name": "",
          "type": "uint256"
        }
      ],
      "stateMutability": "view",
      "type": "function"
    },
    {
      "inputs": [],
      "name": "getMargin",
      "outputs": [
        {
          "internalType": "uint8",
          "name": "",
          "type": "uint8"
        }
      ],
      "stateMutability": "view",
      "type": "function"
    },
    {
      "inputs": [
        {
          "internalType": "bytes16",
          "name": "marketId",
          "type": "bytes16"
        }
      ],
      "name": "getMarketTotal",
      "outputs": [
        {
          "internalType": "uint256",
          "name": "",
          "type": "uint256"
        }
      ],
      "stateMutability": "view",
      "type": "function"
    },
    {
      "inputs": [
        {
          "internalType": "uint256",
          "name": "wager",
          "type": "uint256"
        },
        {
          "internalType": "uint256",
          "name": "odds",
          "type": "uint256"
        },
        {
          "internalType": "bytes16",
          "name": "propositionId",
          "type": "bytes16"
        },
        {
          "internalType": "bytes16",
          "name": "marketId",
          "type": "bytes16"
        }
      ],
      "name": "getOdds",
      "outputs": [
        {
          "internalType": "uint256",
          "name": "",
          "type": "uint256"
        }
      ],
      "stateMutability": "view",
      "type": "function"
    },
    {
      "inputs": [],
      "name": "getOracleAddress",
      "outputs": [
        {
          "internalType": "address",
          "name": "",
          "type": "address"
        }
      ],
      "stateMutability": "view",
      "type": "function"
    },
    {
      "inputs": [],
      "name": "getOwner",
      "outputs": [
        {
          "internalType": "address",
          "name": "",
          "type": "address"
        }
      ],
      "stateMutability": "view",
      "type": "function"
    },
    {
      "inputs": [
        {
          "internalType": "bytes16",
          "name": "propositionId",
          "type": "bytes16"
        },
        {
          "internalType": "bytes16",
          "name": "marketId",
          "type": "bytes16"
        },
        {
          "internalType": "uint256",
          "name": "wager",
          "type": "uint256"
        },
        {
          "internalType": "uint256",
          "name": "odds",
          "type": "uint256"
        }
      ],
      "name": "getPotentialPayout",
      "outputs": [
        {
          "internalType": "uint256",
          "name": "",
          "type": "uint256"
        }
      ],
      "stateMutability": "view",
      "type": "function"
    },
    {
      "inputs": [],
      "name": "getTotalExposure",
      "outputs": [
        {
          "internalType": "uint256",
          "name": "",
          "type": "uint256"
        }
      ],
      "stateMutability": "view",
      "type": "function"
    },
    {
      "inputs": [],
      "name": "getTotalInPlay",
      "outputs": [
        {
          "internalType": "uint256",
          "name": "",
          "type": "uint256"
        }
      ],
      "stateMutability": "view",
      "type": "function"
    },
    {
      "inputs": [],
      "name": "getVaultAddress",
      "outputs": [
        {
          "internalType": "address",
          "name": "",
          "type": "address"
        }
      ],
      "stateMutability": "view",
      "type": "function"
    },
    {
      "inputs": [
        {
          "internalType": "address",
          "name": "signer",
          "type": "address"
        }
      ],
      "name": "grantSigner",
      "outputs": [],
      "stateMutability": "nonpayable",
      "type": "function"
    },
    {
      "inputs": [
        {
          "internalType": "address",
          "name": "owner",
          "type": "address"
        },
        {
          "internalType": "address",
          "name": "operator",
          "type": "address"
        }
      ],
      "name": "isApprovedForAll",
      "outputs": [
        {
          "internalType": "bool",
          "name": "",
          "type": "bool"
        }
      ],
      "stateMutability": "view",
      "type": "function"
    },
    {
      "inputs": [
        {
          "internalType": "address",
          "name": "signer",
          "type": "address"
        }
      ],
      "name": "isSigner",
      "outputs": [
        {
          "internalType": "bool",
          "name": "",
          "type": "bool"
        }
      ],
      "stateMutability": "view",
      "type": "function"
    },
    {
      "inputs": [
        {
          "components": [
            {
              "internalType": "bytes16",
              "name": "nonce",
              "type": "bytes16"
            },
            {
              "internalType": "bytes16",
              "name": "propositionId",
              "type": "bytes16"
            },
            {
              "internalType": "bytes16",
              "name": "marketId",
              "type": "bytes16"
            },
            {
              "internalType": "uint256",
              "name": "wager",
              "type": "uint256"
            },
            {
              "internalType": "uint256",
              "name": "odds",
              "type": "uint256"
            },
            {
              "internalType": "uint256",
              "name": "close",
              "type": "uint256"
            },
            {
              "internalType": "uint256",
              "name": "end",
              "type": "uint256"
            },
            {
              "components": [
                {
                  "internalType": "uint8",
                  "name": "v",
                  "type": "uint8"
                },
                {
                  "internalType": "bytes32",
                  "name": "r",
                  "type": "bytes32"
                },
                {
                  "internalType": "bytes32",
                  "name": "s",
                  "type": "bytes32"
                }
              ],
              "internalType": "struct SignatureLib.Signature",
              "name": "signature",
              "type": "tuple"
            }
          ],
          "internalType": "struct IMarket.Back[]",
          "name": "backArray",
          "type": "tuple[]"
        }
      ],
      "name": "multiBack",
      "outputs": [
        {
          "internalType": "uint256[]",
          "name": "",
          "type": "uint256[]"
        }
      ],
      "stateMutability": "nonpayable",
      "type": "function"
    },
    {
      "inputs": [],
      "name": "name",
      "outputs": [
        {
          "internalType": "string",
          "name": "",
          "type": "string"
        }
      ],
      "stateMutability": "view",
      "type": "function"
    },
    {
      "inputs": [],
      "name": "owner",
      "outputs": [
        {
          "internalType": "address",
          "name": "",
          "type": "address"
        }
      ],
      "stateMutability": "view",
      "type": "function"
    },
    {
      "inputs": [
        {
          "internalType": "uint256",
          "name": "tokenId",
          "type": "uint256"
        }
      ],
      "name": "ownerOf",
      "outputs": [
        {
          "internalType": "address",
          "name": "",
          "type": "address"
        }
      ],
      "stateMutability": "view",
      "type": "function"
    },
    {
      "inputs": [
        {
          "internalType": "uint64",
          "name": "index",
          "type": "uint64"
        }
      ],
      "name": "refund",
      "outputs": [],
      "stateMutability": "nonpayable",
      "type": "function"
    },
    {
      "inputs": [],
      "name": "renounceOwnership",
      "outputs": [],
      "stateMutability": "nonpayable",
      "type": "function"
    },
    {
      "inputs": [
        {
          "internalType": "address",
          "name": "signer",
          "type": "address"
        }
      ],
      "name": "revokeSigner",
      "outputs": [],
      "stateMutability": "nonpayable",
      "type": "function"
    },
    {
      "inputs": [
        {
          "internalType": "address",
          "name": "from",
          "type": "address"
        },
        {
          "internalType": "address",
          "name": "to",
          "type": "address"
        },
        {
          "internalType": "uint256",
          "name": "tokenId",
          "type": "uint256"
        }
      ],
      "name": "safeTransferFrom",
      "outputs": [],
      "stateMutability": "nonpayable",
      "type": "function"
    },
    {
      "inputs": [
        {
          "internalType": "address",
          "name": "from",
          "type": "address"
        },
        {
          "internalType": "address",
          "name": "to",
          "type": "address"
        },
        {
          "internalType": "uint256",
          "name": "tokenId",
          "type": "uint256"
        },
        {
          "internalType": "bytes",
          "name": "data",
          "type": "bytes"
        }
      ],
      "name": "safeTransferFrom",
      "outputs": [],
      "stateMutability": "nonpayable",
      "type": "function"
    },
    {
      "inputs": [
        {
          "internalType": "uint64",
          "name": "index",
          "type": "uint64"
        },
        {
          "internalType": "bytes16",
          "name": "marketId",
          "type": "bytes16"
        },
        {
          "internalType": "bytes16",
          "name": "propositionId",
          "type": "bytes16"
        },
        {
          "internalType": "uint256",
          "name": "odds",
          "type": "uint256"
        },
        {
          "components": [
            {
              "internalType": "uint8",
              "name": "v",
              "type": "uint8"
            },
            {
              "internalType": "bytes32",
              "name": "r",
              "type": "bytes32"
            },
            {
              "internalType": "bytes32",
              "name": "s",
              "type": "bytes32"
            }
          ],
          "internalType": "struct SignatureLib.Signature",
          "name": "signature",
          "type": "tuple"
        }
      ],
      "name": "scratchAndRefund",
      "outputs": [],
      "stateMutability": "nonpayable",
      "type": "function"
    },
    {
      "inputs": [
        {
          "internalType": "address",
          "name": "operator",
          "type": "address"
        },
        {
          "internalType": "bool",
          "name": "approved",
          "type": "bool"
        }
      ],
      "name": "setApprovalForAll",
      "outputs": [],
      "stateMutability": "nonpayable",
      "type": "function"
    },
    {
      "inputs": [
        {
          "internalType": "uint64",
          "name": "index",
          "type": "uint64"
        }
      ],
      "name": "settle",
      "outputs": [],
      "stateMutability": "nonpayable",
      "type": "function"
    },
    {
      "inputs": [
        {
          "internalType": "bytes16",
          "name": "marketId",
          "type": "bytes16"
        }
      ],
      "name": "settleMarket",
      "outputs": [],
      "stateMutability": "nonpayable",
      "type": "function"
    },
    {
      "inputs": [
        {
          "internalType": "bytes4",
          "name": "interfaceId",
          "type": "bytes4"
        }
      ],
      "name": "supportsInterface",
      "outputs": [
        {
          "internalType": "bool",
          "name": "",
          "type": "bool"
        }
      ],
      "stateMutability": "view",
      "type": "function"
    },
    {
      "inputs": [],
      "name": "symbol",
      "outputs": [
        {
          "internalType": "string",
          "name": "",
          "type": "string"
        }
      ],
      "stateMutability": "view",
      "type": "function"
    },
    {
      "inputs": [],
      "name": "timeout",
      "outputs": [
        {
          "internalType": "uint256",
          "name": "",
          "type": "uint256"
        }
      ],
      "stateMutability": "view",
      "type": "function"
    },
    {
      "inputs": [
        {
          "internalType": "uint256",
          "name": "tokenId",
          "type": "uint256"
        }
      ],
      "name": "tokenURI",
      "outputs": [
        {
          "internalType": "string",
          "name": "",
          "type": "string"
        }
      ],
      "stateMutability": "view",
      "type": "function"
    },
    {
      "inputs": [
        {
          "internalType": "address",
          "name": "from",
          "type": "address"
        },
        {
          "internalType": "address",
          "name": "to",
          "type": "address"
        },
        {
          "internalType": "uint256",
          "name": "tokenId",
          "type": "uint256"
        }
      ],
      "name": "transferFrom",
      "outputs": [],
      "stateMutability": "nonpayable",
      "type": "function"
    },
    {
      "inputs": [
        {
          "internalType": "address",
          "name": "newOwner",
          "type": "address"
        }
      ],
      "name": "transferOwnership",
      "outputs": [],
      "stateMutability": "nonpayable",
      "type": "function"
    }
  ],
  "transactionHash": "0xbbe6e67464a24ab6d776c83f53ae29565ce8c5c668c616c28a2301d95361b1ec",
  "args": [
    "0x96DeD27941F3c0fB6d4ac673e2e975E920989a84",
    0,
    1,
    "0xE21F0d670f5f7F9b000cAfF1e052E76006D36a67",
    "https://horse.link/api/nft//dev_arbitrum/0xBC0392900F6CECB2F805934da8663E0f9E8faa87/undefined/"
  ],
  "numDeployments": 1,
  "solcInputHash": "c55d6c83520cb5137b6e61ac853e746c",
  "bytecode": "0x6101406040523480156200001257600080fd5b50604051620049353803806200493583398101604081905262000035916200027e565b6040518060400160405280601381526020017f486f727365204c696e6b2042657420536c6970000000000000000000000000008152506040518060400160405280600681526020016512130b50915560d21b815250620000a46200009e620001e460201b60201c565b620001e8565b6001620000b283826200043b565b506002620000c182826200043b565b5050506001600160a01b038516620000dd57620000dd62000507565b3060e0526001600160a01b03851660a0819052604080516338d52e0f60e01b815290516338d52e0f916004808201926020929091908290030181865afa1580156200012c573d6000803e3d6000fd5b505050506040513d601f19601f820116820180604052508101906200015291906200051d565b6001600160a01b0390811660c05260ff8516608052821661010052600160106000620001866000546001600160a01b031690565b6001600160a01b031681526020810191909152604001600020805460ff19169115159190911790556007620001bc82826200043b565b50620001cf60ff84166201518062000544565b62ffffff1661012052506200057e9350505050565b3390565b600080546001600160a01b038381166001600160a01b0319831681178455604051919092169283917f8be0079c531659141344cd1fd0a4f28419497f9722a3daafe3b4186f6b6457e09190a35050565b6001600160a01b03811681146200024e57600080fd5b50565b805160ff811681146200026357600080fd5b919050565b634e487b7160e01b600052604160045260246000fd5b600080600080600060a086880312156200029757600080fd5b8551620002a48162000238565b94506020620002b587820162000251565b9450620002c56040880162000251565b93506060870151620002d78162000238565b60808801519093506001600160401b0380821115620002f557600080fd5b818901915089601f8301126200030a57600080fd5b8151818111156200031f576200031f62000268565b604051601f8201601f19908116603f011681019083821181831017156200034a576200034a62000268565b816040528281528c868487010111156200036357600080fd5b600093505b8284101562000387578484018601518185018701529285019262000368565b82841115620003995760008684830101525b8096505050505050509295509295909350565b600181811c90821680620003c157607f821691505b602082108103620003e257634e487b7160e01b600052602260045260246000fd5b50919050565b601f8211156200043657600081815260208120601f850160051c81016020861015620004115750805b601f850160051c820191505b8181101562000432578281556001016200041d565b5050505b505050565b81516001600160401b0381111562000457576200045762000268565b6200046f81620004688454620003ac565b84620003e8565b602080601f831160018114620004a757600084156200048e5750858301515b600019600386901b1c1916600185901b17855562000432565b600085815260208120601f198616915b82811015620004d857888601518255948401946001909101908401620004b7565b5085821015620004f75787850151600019600388901b60f8161c191681555b5050505050600190811b01905550565b634e487b7160e01b600052600160045260246000fd5b6000602082840312156200053057600080fd5b81516200053d8162000238565b9392505050565b600062ffffff808316818516818304811182151516156200057557634e487b7160e01b600052601160045260246000fd5b02949350505050565b60805160a05160c05160e05161010051610120516142b86200067d6000396000818161047d015261282c0152600081816105360152818161092a0152818161122e01528181611d34015281816121e501526130b0015260008181612319015261341401526000818161189d01528181611997015281816122cd01528181612ab701528181612ba501528181612cfe01528181612ebc01528181612f9101526134460152600081816103ca0152818161196801528181611a0701528181611ae501528181611db701528181612b7601528181612c1501528181612db701528181612e8a01528181612f2e01526133ec0152600061031101526142b86000f3fe608060405234801561001057600080fd5b506004361061023d5760003560e01c806370dea79a1161013b578063a87d942c116100b8578063c96121a81161007c578063c96121a814610593578063d7194ccb1461059b578063e4650fac146105ae578063e985e9c5146105c1578063f2fde38b146105fd57600080fd5b8063a87d942c14610514578063b18b78dd14610534578063b88d4fde1461055a578063c34b44a01461056d578063c87b56dd1461058057600080fd5b8063893d20e8116100ff578063893d20e8146104e05780638ac6d217146104f15780638da5cb5b146104e057806395d89b41146104f9578063a22cb4651461050157600080fd5b806370dea79a14610478578063715018a61461049f5780637b5df1c9146104a75780637df73e27146104ba57806388bc76ba146104cd57600080fd5b806346e116a6116101c957806363c724f71161018d57806363c724f7146103b557806365cacaa4146103c85780636b467d15146103ee578063702595861461044557806370a082311461046557600080fd5b806346e116a6146103615780634b9ba4461461037457806358439479146103875780636028421f1461038f5780636352211e146103a257600080fd5b806312fa3bf11161021057806312fa3bf1146102bf57806323b872dd146102f757806325117b721461030a578063412406651461033b57806342842e0e1461034e57600080fd5b806301ffc9a71461024257806306fdde031461026a578063081812fc1461027f578063095ea7b3146102aa575b600080fd5b610255610250366004613880565b610610565b60405190151581526020015b60405180910390f35b610272610662565b60405161026191906138f5565b61029261028d366004613908565b6106f4565b6040516001600160a01b039091168152602001610261565b6102bd6102b8366004613936565b61071b565b005b6102e96102cd366004613978565b6001600160801b0319166000908152600b602052604090205490565b604051908152602001610261565b6102bd610305366004613995565b610835565b60405160ff7f0000000000000000000000000000000000000000000000000000000000000000168152602001610261565b6102bd6103493660046139f2565b610866565b6102bd61035c366004613995565b6109a7565b6102e961036f366004613a5f565b6109c2565b6102bd610382366004613aa9565b6109db565b600e546102e9565b6102e961039d366004613ac4565b610ad5565b6102926103b0366004613908565b610ae3565b6102bd6103c3366004613b0a565b610b43565b7f0000000000000000000000000000000000000000000000000000000000000000610292565b6104016103fc366004613aa9565b610bd1565b604080519788526020880196909652948601939093526060850191909152151560808401526001600160801b031990811660a08401521660c082015260e001610261565b610458610453366004613b27565b610bfc565b6040516102619190613b9c565b6102e9610473366004613b0a565b610cb5565b6102e97f000000000000000000000000000000000000000000000000000000000000000081565b6102bd610d3b565b6102e96104b5366004613be0565b610d4f565b6102556104c8366004613b0a565b610eba565b6102bd6104db366004613978565b610edb565b6000546001600160a01b0316610292565b600f546102e9565b610272611082565b6102bd61050f366004613c07565b611091565b61051c61109c565b6040516001600160401b039091168152602001610261565b7f0000000000000000000000000000000000000000000000000000000000000000610292565b6102bd610568366004613cd0565b6110a7565b6102bd61057b366004613b0a565b6110d9565b61027261058e366004613908565b611164565b6008546102e9565b6102bd6105a9366004613aa9565b6111cb565b6102e96105bc366004613aa9565b611389565b6102556105cf366004613d93565b6001600160a01b03918216600090815260066020908152604080832093909416825291909152205460ff1690565b6102bd61060b366004613b0a565b611394565b60006001600160e01b031982166380ac58cd60e01b148061064157506001600160e01b03198216635b5e139f60e01b145b8061065c57506301ffc9a760e01b6001600160e01b03198316145b92915050565b60606001805461067190613dc1565b80601f016020809104026020016040519081016040528092919081815260200182805461069d90613dc1565b80156106ea5780601f106106bf576101008083540402835291602001916106ea565b820191906000526020600020905b8154815290600101906020018083116106cd57829003601f168201915b5050505050905090565b60006106ff8261140d565b506000908152600560205260409020546001600160a01b031690565b600061072682610ae3565b9050806001600160a01b0316836001600160a01b0316036107985760405162461bcd60e51b815260206004820152602160248201527f4552433732313a20617070726f76616c20746f2063757272656e74206f776e656044820152603960f91b60648201526084015b60405180910390fd5b336001600160a01b03821614806107b457506107b481336105cf565b6108265760405162461bcd60e51b815260206004820152603d60248201527f4552433732313a20617070726f76652063616c6c6572206973206e6f7420746f60448201527f6b656e206f776e6572206f7220617070726f76656420666f7220616c6c000000606482015260840161078f565b610830838361146c565b505050565b61083f33826114da565b61085b5760405162461bcd60e51b815260040161078f90613df5565b610830838383611558565b826001600160801b0319166009866001600160401b03168154811061088d5761088d613e42565b600091825260209091206006909102015460801b6001600160801b031916146109135760405162461bcd60e51b815260206004820152603260248201527f73637261746368416e64526566756e643a2070726f706f736974696f6e496420604482015271191bd95cc81b9bdd081b585d18da0818995d60721b606482015260840161078f565b604051631b62340760e01b81526001600160a01b037f00000000000000000000000000000000000000000000000000000000000000001690631b62340790610965908790879087908790600401613e8c565b600060405180830381600087803b15801561097f57600080fd5b505af1158015610993573d6000803e3d6000fd5b505050506109a0856116c9565b5050505050565b610830838383604051806020016040528060008152506110a7565b60006109d085858585611ac1565b90505b949350505050565b60006009826001600160401b0316815481106109f9576109f9613e42565b60009182526020918290206040805160e081018252600690930290910180546001600160801b0319608082811b82168652600160801b909204821b169484019490945260018101549183019190915260028101546060830152600381015492820192909252600482015460a082015260059091015460ff1615801560c0830152909150610ac85760405162461bcd60e51b815260206004820152601f60248201527f736574746c653a204265742068617320616c726561647920736574746c656400604482015260640161078f565b610ad182611be2565b5050565b60006109d085858585611f0a565b6000818152600360205260408120546001600160a01b03168061065c5760405162461bcd60e51b8152602060048201526018602482015277115490cdcc8c4e881a5b9d985b1a59081d1bdad95b88125160421b604482015260640161078f565b610b4b611f46565b6001600160a01b038116610bad5760405162461bcd60e51b815260206004820152602360248201527f6772616e745369676e65723a20496e76616c6964207369676e6572206164647260448201526265737360e81b606482015260840161078f565b6001600160a01b03166000908152601060205260409020805460ff19166001179055565b6000806000806000806000610be588611fa0565b959e949d50929b5090995097509550909350915050565b60606000826001600160401b03811115610c1857610c18613c40565b604051908082528060200260200182016040528015610c41578160200160208202803683370190505b50905060005b60ff8116841115610cad573685858360ff16818110610c6857610c68613e42565b905061014002019050610c7a81610d4f565b838360ff1681518110610c8f57610c8f613e42565b60209081029190910101525080610ca581613ecf565b915050610c47565b509392505050565b60006001600160a01b038216610d1f5760405162461bcd60e51b815260206004820152602960248201527f4552433732313a2061646472657373207a65726f206973206e6f7420612076616044820152683634b21037bbb732b960b91b606482015260840161078f565b506001600160a01b031660009081526004602052604090205490565b610d43611f46565b610d4d6000612066565b565b600080610d5f6020840184613978565b610d6f6040850160208601613978565b610d7f6060860160408701613978565b604080516001600160801b0319948516602082015292841660308401529216918101919091526080840135605082015260a0840135607082015260c0840135609082015260b001604051602081830303815290604052805190602001209050610deb818460e0016120b6565b1515600114610e3c5760405162461bcd60e51b815260206004820152601760248201527f6261636b3a20496e76616c6964207369676e6174757265000000000000000000604482015260640161078f565b6000610e70610e516040860160208701613978565b610e616060870160408801613978565b86606001358760800135611f0a565b905060008111610e8257610e82613eee565b6109d3610e956040860160208701613978565b610ea56060870160408801613978565b86606001358760a001358860c001358661216c565b6001600160a01b03811660009081526010602052604081205460ff1661065c565b6001600160801b031981166000908152600a6020908152604080832080548251818502810185019093528083529192909190830182828015610f6e57602002820191906000526020600020906000905b82829054906101000a90046001600160401b03166001600160401b031681526020019060080190602082600701049283019260010382029150808411610f2b5790505b505083519394506000925050505b81816001600160401b0316101561107757600083826001600160401b031681518110610faa57610faa613e42565b6020026020010151905060006009826001600160401b031681548110610fd257610fd2613e42565b600091825260208083206040805160e081018252600690940290910180546001600160801b0319608082811b82168752600160801b909204821b169385019390935260018101549184019190915260028101546060840152600381015491830191909152600481015460a08301526005015460ff16151560c0820181905290925090036110625761106282611be2565b5050808061106f90613f04565b915050610f7c565b50505050565b905090565b60606002805461067190613dc1565b610ad1338383612686565b600061107d60095490565b6110b133836114da565b6110cd5760405162461bcd60e51b815260040161078f90613df5565b61107784848484612754565b6110e1611f46565b6001600160a01b0381166111435760405162461bcd60e51b8152602060048201526024808201527f7265766f6b655369676e65723a20496e76616c6964207369676e6572206164646044820152637265737360e01b606482015260840161078f565b6001600160a01b03166000908152601060205260409020805460ff19169055565b606061116f8261140d565b6000611179612787565b9050600081511161119957604051806020016040528060008152506111c4565b806111a384612796565b6040516020016111b4929190613f2a565b6040516020818303038152906040525b9392505050565b60006009826001600160401b0316815481106111e9576111e9613e42565b60009182526020822060069190910201546040516325a8f38560e11b8152600160801b90910460801b6001600160801b03198116600483015292506001600160a01b037f00000000000000000000000000000000000000000000000000000000000000001690634b51e70a90602401600060405180830381865afa158015611275573d6000803e3d6000fd5b505050506040513d6000823e601f3d908101601f1916820160405261129d9190810190613f59565b905060005b816020015151811015611340576009846001600160401b0316815481106112cb576112cb613e42565b906000526020600020906006020160000160009054906101000a900460801b6001600160801b0319168260200151828151811061130a5761130a613e42565b6020026020010151600001516001600160801b0319160361132e57611077846116c9565b8061133881614077565b9150506112a2565b5060405162461bcd60e51b815260206004820152601f60248201527f726566756e643a204e6f7420656c696769626c6520666f7220726566756e6400604482015260640161078f565b600061065c82612828565b61139c611f46565b6001600160a01b0381166114015760405162461bcd60e51b815260206004820152602660248201527f4f776e61626c653a206e6577206f776e657220697320746865207a65726f206160448201526564647265737360d01b606482015260840161078f565b61140a81612066565b50565b6000818152600360205260409020546001600160a01b031661140a5760405162461bcd60e51b8152602060048201526018602482015277115490cdcc8c4e881a5b9d985b1a59081d1bdad95b88125160421b604482015260640161078f565b600081815260056020526040902080546001600160a01b0319166001600160a01b03841690811790915581906114a182610ae3565b6001600160a01b03167f8c5be1e5ebec7d5bd14f71427d1e84f3dd0314c0f7b2291e5b200ac8c7c3b92560405160405180910390a45050565b6000806114e683610ae3565b9050806001600160a01b0316846001600160a01b0316148061152d57506001600160a01b0380821660009081526006602090815260408083209388168352929052205460ff165b806109d35750836001600160a01b0316611546846106f4565b6001600160a01b031614949350505050565b826001600160a01b031661156b82610ae3565b6001600160a01b0316146115915760405162461bcd60e51b815260040161078f90614090565b6001600160a01b0382166115f35760405162461bcd60e51b8152602060048201526024808201527f4552433732313a207472616e7366657220746f20746865207a65726f206164646044820152637265737360e01b606482015260840161078f565b6116008383836001612883565b826001600160a01b031661161382610ae3565b6001600160a01b0316146116395760405162461bcd60e51b815260040161078f90614090565b600081815260056020908152604080832080546001600160a01b03199081169091556001600160a01b0387811680865260048552838620805460001901905590871680865283862080546001019055868652600390945282852080549092168417909155905184937fddf252ad1be2c89b69c2b068fc378daa952ba7f163c4a11628f55a4df523b3ef91a4505050565b60006009826001600160401b0316815481106116e7576116e7613e42565b60009182526020918290206040805160e081018252600690930290910180546001600160801b0319608082811b82168652600160801b909204821b169484019490945260018101549183019190915260028101546060830152600381015492820192909252600482015460a082015260059091015460ff1615801560c08301529091506117b65760405162461bcd60e51b815260206004820181905260248201527f5f726566756e643a204265742068617320616c726561647920736574746c6564604482015260640161078f565b600160c082015260098054600091906001600160401b0385169081106117de576117de613e42565b9060005260206000209060060201600101546009846001600160401b03168154811061180c5761180c613e42565b90600052602060002090600602016002015461182891906140d5565b905080600f600082825461183c91906140d5565b9091555050600980546001600160401b03851690811061185e5761185e613e42565b906000526020600020906006020160010154600e600082825461188191906140d5565b909155505060088054906000611896836140ec565b91905055507f00000000000000000000000000000000000000000000000000000000000000006001600160a01b031663a9059cbb6118dc856001600160401b0316610ae3565b60408086015190516001600160e01b031960e085901b1681526001600160a01b03909216600483015260248201526044016020604051808303816000875af115801561192c573d6000803e3d6000fd5b505050506040513d601f19601f820116820180604052508101906119509190614103565b5060405163a9059cbb60e01b81526001600160a01b037f000000000000000000000000000000000000000000000000000000000000000081166004830152602482018390527f0000000000000000000000000000000000000000000000000000000000000000169063a9059cbb906044016020604051808303816000875af11580156119e0573d6000803e3d6000fd5b505050506040513d601f19601f82011682018060405250810190611a049190614103565b507f00000000000000000000000000000000000000000000000000000000000000006001600160a01b03167f0516911bcc3a0a7412a44601057c0a0a1ec628bde049a84284bc42886653448882604051611a6091815260200190565b60405180910390a260408083015181516001600160401b038616815260208101919091527fb7c1f9298a18c36af08bd57eabbfbeb04695f24d0438f67614741ec15fb5c4a9910160405180910390a1610830836001600160401b031661290b565b6000600185111580611ad4575060018411155b15611ae1575060016109d3565b60007f00000000000000000000000000000000000000000000000000000000000000006001600160a01b031663b15031fa6040518163ffffffff1660e01b8152600401602060405180830381865afa158015611b41573d6000803e3d6000fd5b505050506040513d601f19601f82011682018060405250810190611b659190614120565b905080600003611b795760019150506109d3565b6001600160801b031984166000908152600d6020526040902054811015611ba45760019150506109d3565b6001600160801b031984166000908152600d6020526040902054611bc890826140d5565b90506000611bd78787846129ae565b979650505050505050565b60006009826001600160401b031681548110611c0057611c00613e42565b60009182526020918290206040805160e081018252600690930290910180546001600160801b0319608082811b82168652600160801b909204821b16948401949094526001808201549284019290925260028101546060840152600381015493830193909352600483015460a083015260059092015460ff16151560c082015260098054919350906001600160401b038516908110611ca157611ca1613e42565b60009182526020822060069190910201600501805460ff19169215159290921790915580611cce84612828565b421115611d065760019150611ceb846001600160401b0316610ae3565b9050611d01846001600160401b03166001612a33565b611e73565b602083015183516040516306c77ce760e01b81526001600160801b03199283166004820152911660248201527f00000000000000000000000000000000000000000000000000000000000000006001600160a01b0316906306c77ce790604401602060405180830381865afa158015611d83573d6000803e3d6000fd5b505050506040513d601f19601f82011682018060405250810190611da79190614139565b915060011960ff831601611ddb577f0000000000000000000000000000000000000000000000000000000000000000611ded565b611ded846001600160401b0316610ae3565b905060001960ff831601611e0657611e048461304c565b505b611e19846001600160401b031683612a33565b6009846001600160401b031681548110611e3557611e35613e42565b906000526020600020906006020160010154600e6000828254611e5891906140d5565b909155505060088054906000611e6d836140ec565b91905055505b806001600160a01b03167f7c2e00429f610bdb997681cabbb0ef3197390c07fe90ea4a98ac36438dd4217c856009876001600160401b031681548110611ebb57611ebb613e42565b600091825260209182902060026006909202010154604080516001600160401b0390941684529183015260ff86169082015260600160405180910390a2611077846001600160401b031661290b565b600080611f1984848888611ac1565b9050611f3c84620f4240611f2d8285614156565b611f379190614175565b6133b2565b9695505050505050565b6000546001600160a01b03163314610d4d5760405162461bcd60e51b815260206004820181905260248201527f4f776e61626c653a2063616c6c6572206973206e6f7420746865206f776e6572604482015260640161078f565b6000806000806000806000806009896001600160401b031681548110611fc857611fc8613e42565b60009182526020918290206040805160e0810182526006939093029091018054608081811b6001600160801b0319908116808752600160801b909304821b1695850186905260018301549385018490526002830154606086018190526003840154918601829052600484015460a0870181905260059094015460ff16151560c0909601869052939f939e509c50909a50919850919650945092505050565b600080546001600160a01b038381166001600160a01b0319831681178455604051919092169283917f8be0079c531659141344cd1fd0a4f28419497f9722a3daafe3b4186f6b6457e09190a35050565b60008073C2ab165C60747a2b3FBc468CF5B74F5B7822Ca49635cff288d85856040518363ffffffff1660e01b81526004016120f2929190614197565b602060405180830381865af415801561210f573d6000803e3d6000fd5b505050506040513d601f19601f8201168201806040525081019061213391906141ab565b90506001600160a01b03811661214b5761214b613eee565b6001600160a01b03811660009081526010602052604090205460ff166109d3565b6000428311801561217c57504284115b6121be5760405162461bcd60e51b81526020600482015260136024820152725f6261636b3a20496e76616c6964206461746560681b604482015260640161078f565b6040516306c77ce760e01b81526001600160801b03198088166004830152881660248201527f00000000000000000000000000000000000000000000000000000000000000006001600160a01b0316906306c77ce790604401602060405180830381865afa158015612234573d6000803e3d6000fd5b505050506040513d601f19601f820116820180604052508101906122589190614139565b60ff166002146122c35760405162461bcd60e51b815260206004820152603060248201527f5f6261636b3a204f7261636c6520726573756c7420616c72656164792073657460448201526f08199bdc881d1a1a5cc81b585c9ad95d60821b606482015260840161078f565b6001600160a01b037f0000000000000000000000000000000000000000000000000000000000000000166323b872dd3360405160e083901b6001600160e01b03191681526001600160a01b0391821660048201527f00000000000000000000000000000000000000000000000000000000000000009091166024820152604481018890526064016020604051808303816000875af1158015612369573d6000803e3d6000fd5b505050506040513d601f19601f8201168201806040525081019061238d9190614103565b506001600160801b031986166000908152600b6020526040812080548792906123b79084906141c8565b9250508190555084600e60008282546123d091906141c8565b9091555050600880549060006123e583614077565b919050555060006123f560095490565b6001600160801b031989166000908152600d60205260408120805492935085929091906124239084906141c8565b9091555061243f90506001600160401b038216888a89876133c8565b600f600082825461245091906141c8565b90915550506040805160e0810182526001600160801b03198a81168252891660208083018281528385018b81526060850189815260808087018c81524260a08901908152600060c08a0181815260098054600180820183559184529b51985198861c600160801b9990961c98909802949094177f6e1540171b6c0c960b71a7020d9f60077f6af931a8bbf590da0223dacf75c7af6006909b029a8b015594517f6e1540171b6c0c960b71a7020d9f60077f6af931a8bbf590da0223dacf75c7b08a015592517f6e1540171b6c0c960b71a7020d9f60077f6af931a8bbf590da0223dacf75c7b1890155517f6e1540171b6c0c960b71a7020d9f60077f6af931a8bbf590da0223dacf75c7b288015590517f6e1540171b6c0c960b71a7020d9f60077f6af931a8bbf590da0223dacf75c7b3870155517f6e1540171b6c0c960b71a7020d9f60077f6af931a8bbf590da0223dacf75c7b4909501805460ff191695151595909517909455918352600a81529282208054918201815582529190206004820401805460039092166008026101000a6001600160401b03818102199093169284160291909117905561260e33826001600160401b03166134fb565b604080516001600160401b03831681526001600160801b03198a811660208301528916818301526060810188905260808101859052905133917f1d273ea6a1aea94de32fd06a09ab8046dff8e3261c5a4ecaa5e1a5705f3342ec919081900360a00190a26001600160401b0316979650505050505050565b816001600160a01b0316836001600160a01b0316036126e75760405162461bcd60e51b815260206004820152601960248201527f4552433732313a20617070726f766520746f2063616c6c657200000000000000604482015260640161078f565b6001600160a01b03838116600081815260066020908152604080832094871680845294825291829020805460ff191686151590811790915591519182527f17307eab39ab6107e8899845ad3d59bd9653f200f220920489ca2b5937696c31910160405180910390a3505050565b61275f848484611558565b61276b84848484613694565b6110775760405162461bcd60e51b815260040161078f906141e0565b60606007805461067190613dc1565b606060006127a383613792565b60010190506000816001600160401b038111156127c2576127c2613c40565b6040519080825280601f01601f1916602001820160405280156127ec576020820181803683370190505b5090508181016020015b600019016f181899199a1a9b1b9c1cb0b131b232b360811b600a86061a8153600a85049450846127f657509392505050565b60007f00000000000000000000000000000000000000000000000000000000000000006009836001600160401b03168154811061286757612867613e42565b90600052602060002090600602016003015461065c91906141c8565b6001811115611077576001600160a01b038416156128c9576001600160a01b038416600090815260046020526040812080548392906128c39084906140d5565b90915550505b6001600160a01b03831615611077576001600160a01b038316600090815260046020526040812080548392906129009084906141c8565b909155505050505050565b600061291682610ae3565b9050612926816000846001612883565b61292f82610ae3565b600083815260056020908152604080832080546001600160a01b03199081169091556001600160a01b0385168085526004845282852080546000190190558785526003909352818420805490911690555192935084927fddf252ad1be2c89b69c2b068fc378daa952ba7f163c4a11628f55a4df523b3ef908390a45050565b60405163a19dec4360e01b81526004810184905260248101839052604481018290526000907385E1225b73512bbBcbeC6004551F6e832746f64E9063a19dec4390606401602060405180830381865af4158015612a0f573d6000803e3d6000fd5b505050506040513d601f19601f820116820180604052508101906109d39190614120565b600060098381548110612a4857612a48613e42565b9060005260206000209060060201600201549050600060098481548110612a7157612a71613e42565b600091825260208220600160069092020101549150612a9082846140d5565b905080600f6000828254612aa491906140d5565b909155505060021960ff851601612c7d577f00000000000000000000000000000000000000000000000000000000000000006001600160a01b031663a9059cbb612aed87610ae3565b6040516001600160e01b031960e084901b1681526001600160a01b039091166004820152602481018590526044016020604051808303816000875af1158015612b3a573d6000803e3d6000fd5b505050506040513d601f19601f82011682018060405250810190612b5e9190614103565b5060405163a9059cbb60e01b81526001600160a01b037f000000000000000000000000000000000000000000000000000000000000000081166004830152602482018390527f0000000000000000000000000000000000000000000000000000000000000000169063a9059cbb906044016020604051808303816000875af1158015612bee573d6000803e3d6000fd5b505050506040513d601f19601f82011682018060405250810190612c129190614103565b507f00000000000000000000000000000000000000000000000000000000000000006001600160a01b03167f0516911bcc3a0a7412a44601057c0a0a1ec628bde049a84284bc42886653448882604051612c6e91815260200190565b60405180910390a25050505050565b4260098681548110612c9157612c91613e42565b90600052602060002090600602016003015410612cf05760405162461bcd60e51b815260206004820181905260248201527f5f7061796f75743a205061796f75742064617465206e6f742072656163686564604482015260640161078f565b60001960ff851601612da7577f00000000000000000000000000000000000000000000000000000000000000006001600160a01b031663a9059cbb612d3487610ae3565b6040516001600160e01b031960e084901b1681526001600160a01b039091166004820152602481018690526044016020604051808303816000875af1158015612d81573d6000803e3d6000fd5b505050506040513d601f19601f82011682018060405250810190612da59190614103565b505b60011960ff8516016109a05760007f00000000000000000000000000000000000000000000000000000000000000006001600160a01b031663679aefce6040518163ffffffff1660e01b8152600401602060405180830381865afa158015612e13573d6000803e3d6000fd5b505050506040513d601f19601f82011682018060405250810190612e379190614120565b9050620186a08111612e4b57612e4b613eee565b6000620186a0612e5b8385614156565b612e659190614175565b90506000612e7382876140d5565b60405163a9059cbb60e01b81526001600160a01b037f000000000000000000000000000000000000000000000000000000000000000081166004830152602482018590529192507f00000000000000000000000000000000000000000000000000000000000000009091169063a9059cbb906044016020604051808303816000875af1158015612f07573d6000803e3d6000fd5b505050506040513d601f19601f82011682018060405250810190612f2b9190614103565b507f00000000000000000000000000000000000000000000000000000000000000006001600160a01b03167f0516911bcc3a0a7412a44601057c0a0a1ec628bde049a84284bc42886653448883604051612f8791815260200190565b60405180910390a27f00000000000000000000000000000000000000000000000000000000000000006001600160a01b031663a9059cbb612fd06000546001600160a01b031690565b6040516001600160e01b031960e084901b1681526001600160a01b039091166004820152602481018490526044016020604051808303816000875af115801561301d573d6000803e3d6000fd5b505050506040513d601f19601f820116820180604052508101906130419190614103565b505050505050505050565b6000806009836001600160401b03168154811061306b5761306b613e42565b60009182526020822060069190910201546040516325a8f38560e11b8152600160801b90910460801b6001600160801b03198116600483015292506001600160a01b037f00000000000000000000000000000000000000000000000000000000000000001690634b51e70a90602401600060405180830381865afa1580156130f7573d6000803e3d6000fd5b505050506040513d6000823e601f3d908101601f1916820160405261311f9190810190613f59565b90506000806009866001600160401b03168154811061314057613140613e42565b90600052602060002090600602016004015490506000836020015151905060005b818110156131d457828560200151828151811061318057613180613e42565b60200260200101516020015111156131c257846020015181815181106131a8576131a8613e42565b602002602001015160400151846131bf91906141c8565b93505b806131cc81614077565b915050613161565b50600083118015613212575060006009886001600160401b0316815481106131fe576131fe613e42565b906000526020600020906006020160010154115b156133785760006009886001600160401b03168154811061323557613235613e42565b9060005260206000209060060201600101546009896001600160401b03168154811061326357613263613e42565b90600052602060002090600602016002015461327f9190614175565b604051637869dde560e11b815260048101829052602481018690526216e36060448201529091506000907385E1225b73512bbBcbeC6004551F6e832746f64E9063f0d3bbca90606401602060405180830381865af41580156132e5573d6000803e3d6000fd5b505050506040513d601f19601f820116820180604052508101906133099190614120565b90508060098a6001600160401b03168154811061332857613328613e42565b9060005260206000209060060201600101546133449190614156565b60098a6001600160401b03168154811061336057613360613e42565b90600052602060002090600602016002018190555050505b6009876001600160401b03168154811061339457613394613e42565b90600052602060002090600602016002015495505050505050919050565b60008183116133c157816111c4565b5090919050565b6000806133d584846140d5565b6040516323b872dd60e01b81526001600160a01b037f0000000000000000000000000000000000000000000000000000000000000000811660048301527f000000000000000000000000000000000000000000000000000000000000000081166024830152604482018390529192507f0000000000000000000000000000000000000000000000000000000000000000909116906323b872dd906064016020604051808303816000875af1158015613491573d6000803e3d6000fd5b505050506040513d601f19601f820116820180604052508101906134b59190614103565b5060408051888152602081018390527f14a13f958d7fe38fb8529e8d43353b6d9120f52444e486a4077f68a3fc77dcbf910160405180910390a190505b95945050505050565b6001600160a01b0382166135515760405162461bcd60e51b815260206004820181905260248201527f4552433732313a206d696e7420746f20746865207a65726f2061646472657373604482015260640161078f565b6000818152600360205260409020546001600160a01b0316156135b65760405162461bcd60e51b815260206004820152601c60248201527f4552433732313a20746f6b656e20616c7265616479206d696e74656400000000604482015260640161078f565b6135c4600083836001612883565b6000818152600360205260409020546001600160a01b0316156136295760405162461bcd60e51b815260206004820152601c60248201527f4552433732313a20746f6b656e20616c7265616479206d696e74656400000000604482015260640161078f565b6001600160a01b038216600081815260046020908152604080832080546001019055848352600390915280822080546001600160a01b0319168417905551839291907fddf252ad1be2c89b69c2b068fc378daa952ba7f163c4a11628f55a4df523b3ef908290a45050565b60006001600160a01b0384163b1561378a57604051630a85bd0160e11b81526001600160a01b0385169063150b7a02906136d8903390899088908890600401614232565b6020604051808303816000875af1925050508015613713575060408051601f3d908101601f1916820190925261371091810190614265565b60015b613770573d808015613741576040519150601f19603f3d011682016040523d82523d6000602084013e613746565b606091505b5080516000036137685760405162461bcd60e51b815260040161078f906141e0565b805181602001fd5b6001600160e01b031916630a85bd0160e11b1490506109d3565b5060016109d3565b60008072184f03e93ff9f4daa797ed6e38ed64bf6a1f0160401b83106137d15772184f03e93ff9f4daa797ed6e38ed64bf6a1f0160401b830492506040015b6d04ee2d6d415b85acef810000000083106137fd576d04ee2d6d415b85acef8100000000830492506020015b662386f26fc10000831061381b57662386f26fc10000830492506010015b6305f5e1008310613833576305f5e100830492506008015b612710831061384757612710830492506004015b60648310613859576064830492506002015b600a831061065c5760010192915050565b6001600160e01b03198116811461140a57600080fd5b60006020828403121561389257600080fd5b81356111c48161386a565b60005b838110156138b85781810151838201526020016138a0565b838111156110775750506000910152565b600081518084526138e181602086016020860161389d565b601f01601f19169290920160200192915050565b6020815260006111c460208301846138c9565b60006020828403121561391a57600080fd5b5035919050565b6001600160a01b038116811461140a57600080fd5b6000806040838503121561394957600080fd5b823561395481613921565b946020939093013593505050565b6001600160801b03198116811461140a57600080fd5b60006020828403121561398a57600080fd5b81356111c481613962565b6000806000606084860312156139aa57600080fd5b83356139b581613921565b925060208401356139c581613921565b929592945050506040919091013590565b80356001600160401b03811681146139ed57600080fd5b919050565b600080600080600085870360e0811215613a0b57600080fd5b613a14876139d6565b95506020870135613a2481613962565b94506040870135613a3481613962565b93506060878101359350607f1982011215613a4e57600080fd5b506080860190509295509295909350565b60008060008060808587031215613a7557600080fd5b84359350602085013592506040850135613a8e81613962565b91506060850135613a9e81613962565b939692955090935050565b600060208284031215613abb57600080fd5b6111c4826139d6565b60008060008060808587031215613ada57600080fd5b8435613ae581613962565b93506020850135613af581613962565b93969395505050506040820135916060013590565b600060208284031215613b1c57600080fd5b81356111c481613921565b60008060208385031215613b3a57600080fd5b82356001600160401b0380821115613b5157600080fd5b818501915085601f830112613b6557600080fd5b813581811115613b7457600080fd5b86602061014083028501011115613b8a57600080fd5b60209290920196919550909350505050565b6020808252825182820181905260009190848201906040850190845b81811015613bd457835183529284019291840191600101613bb8565b50909695505050505050565b60006101408284031215613bf357600080fd5b50919050565b801515811461140a57600080fd5b60008060408385031215613c1a57600080fd5b8235613c2581613921565b91506020830135613c3581613bf9565b809150509250929050565b634e487b7160e01b600052604160045260246000fd5b604080519081016001600160401b0381118282101715613c7857613c78613c40565b60405290565b604051606081016001600160401b0381118282101715613c7857613c78613c40565b604051601f8201601f191681016001600160401b0381118282101715613cc857613cc8613c40565b604052919050565b60008060008060808587031215613ce657600080fd5b8435613cf181613921565b9350602085810135613d0281613921565b93506040860135925060608601356001600160401b0380821115613d2557600080fd5b818801915088601f830112613d3957600080fd5b813581811115613d4b57613d4b613c40565b613d5d601f8201601f19168501613ca0565b91508082528984828501011115613d7357600080fd5b808484018584013760008482840101525080935050505092959194509250565b60008060408385031215613da657600080fd5b8235613db181613921565b91506020830135613c3581613921565b600181811c90821680613dd557607f821691505b602082108103613bf357634e487b7160e01b600052602260045260246000fd5b6020808252602d908201527f4552433732313a2063616c6c6572206973206e6f7420746f6b656e206f776e6560408201526c1c881bdc88185c1c1c9bdd9959609a1b606082015260800190565b634e487b7160e01b600052603260045260246000fd5b60ff8116811461140a57600080fd5b8035613e7281613e58565b60ff16825260208181013590830152604090810135910152565b6001600160801b03198581168252841660208201526040810183905260c081016134f26060830184613e67565b634e487b7160e01b600052601160045260246000fd5b600060ff821660ff8103613ee557613ee5613eb9565b60010192915050565b634e487b7160e01b600052600160045260246000fd5b60006001600160401b03808316818103613f2057613f20613eb9565b6001019392505050565b60008351613f3c81846020880161389d565b835190830190613f5081836020880161389d565b01949350505050565b60006020808385031215613f6c57600080fd5b82516001600160401b0380821115613f8357600080fd5b81850191506040808388031215613f9957600080fd5b613fa1613c56565b8351613fac81613962565b81528385015183811115613fbf57600080fd5b80850194505087601f850112613fd457600080fd5b835183811115613fe657613fe6613c40565b613ff4868260051b01613ca0565b8181528681019450606091820286018701918a83111561401357600080fd5b958701955b828710156140645780878c0312156140305760008081fd5b614038613c7e565b875161404381613962565b81528789015189820152858801518682015286529586019594870194614018565b5095820195909552979650505050505050565b60006001820161408957614089613eb9565b5060010190565b60208082526025908201527f4552433732313a207472616e736665722066726f6d20696e636f72726563742060408201526437bbb732b960d91b606082015260800190565b6000828210156140e7576140e7613eb9565b500390565b6000816140fb576140fb613eb9565b506000190190565b60006020828403121561411557600080fd5b81516111c481613bf9565b60006020828403121561413257600080fd5b5051919050565b60006020828403121561414b57600080fd5b81516111c481613e58565b600081600019048311821515161561417057614170613eb9565b500290565b60008261419257634e487b7160e01b600052601260045260246000fd5b500490565b828152608081016111c46020830184613e67565b6000602082840312156141bd57600080fd5b81516111c481613921565b600082198211156141db576141db613eb9565b500190565b60208082526032908201527f4552433732313a207472616e7366657220746f206e6f6e20455243373231526560408201527131b2b4bb32b91034b6b83632b6b2b73a32b960711b606082015260800190565b6001600160a01b0385811682528416602082015260408101839052608060608201819052600090611f3c908301846138c9565b60006020828403121561427757600080fd5b81516111c48161386a56fea26469706673582212204736ac2de48234ed4fe29506a27b484058014966ae1b89fe4e5c57b093caf0ad64736f6c634300080f0033",
  "deployedBytecode": "0x608060405234801561001057600080fd5b506004361061023d5760003560e01c806370dea79a1161013b578063a87d942c116100b8578063c96121a81161007c578063c96121a814610593578063d7194ccb1461059b578063e4650fac146105ae578063e985e9c5146105c1578063f2fde38b146105fd57600080fd5b8063a87d942c14610514578063b18b78dd14610534578063b88d4fde1461055a578063c34b44a01461056d578063c87b56dd1461058057600080fd5b8063893d20e8116100ff578063893d20e8146104e05780638ac6d217146104f15780638da5cb5b146104e057806395d89b41146104f9578063a22cb4651461050157600080fd5b806370dea79a14610478578063715018a61461049f5780637b5df1c9146104a75780637df73e27146104ba57806388bc76ba146104cd57600080fd5b806346e116a6116101c957806363c724f71161018d57806363c724f7146103b557806365cacaa4146103c85780636b467d15146103ee578063702595861461044557806370a082311461046557600080fd5b806346e116a6146103615780634b9ba4461461037457806358439479146103875780636028421f1461038f5780636352211e146103a257600080fd5b806312fa3bf11161021057806312fa3bf1146102bf57806323b872dd146102f757806325117b721461030a578063412406651461033b57806342842e0e1461034e57600080fd5b806301ffc9a71461024257806306fdde031461026a578063081812fc1461027f578063095ea7b3146102aa575b600080fd5b610255610250366004613880565b610610565b60405190151581526020015b60405180910390f35b610272610662565b60405161026191906138f5565b61029261028d366004613908565b6106f4565b6040516001600160a01b039091168152602001610261565b6102bd6102b8366004613936565b61071b565b005b6102e96102cd366004613978565b6001600160801b0319166000908152600b602052604090205490565b604051908152602001610261565b6102bd610305366004613995565b610835565b60405160ff7f0000000000000000000000000000000000000000000000000000000000000000168152602001610261565b6102bd6103493660046139f2565b610866565b6102bd61035c366004613995565b6109a7565b6102e961036f366004613a5f565b6109c2565b6102bd610382366004613aa9565b6109db565b600e546102e9565b6102e961039d366004613ac4565b610ad5565b6102926103b0366004613908565b610ae3565b6102bd6103c3366004613b0a565b610b43565b7f0000000000000000000000000000000000000000000000000000000000000000610292565b6104016103fc366004613aa9565b610bd1565b604080519788526020880196909652948601939093526060850191909152151560808401526001600160801b031990811660a08401521660c082015260e001610261565b610458610453366004613b27565b610bfc565b6040516102619190613b9c565b6102e9610473366004613b0a565b610cb5565b6102e97f000000000000000000000000000000000000000000000000000000000000000081565b6102bd610d3b565b6102e96104b5366004613be0565b610d4f565b6102556104c8366004613b0a565b610eba565b6102bd6104db366004613978565b610edb565b6000546001600160a01b0316610292565b600f546102e9565b610272611082565b6102bd61050f366004613c07565b611091565b61051c61109c565b6040516001600160401b039091168152602001610261565b7f0000000000000000000000000000000000000000000000000000000000000000610292565b6102bd610568366004613cd0565b6110a7565b6102bd61057b366004613b0a565b6110d9565b61027261058e366004613908565b611164565b6008546102e9565b6102bd6105a9366004613aa9565b6111cb565b6102e96105bc366004613aa9565b611389565b6102556105cf366004613d93565b6001600160a01b03918216600090815260066020908152604080832093909416825291909152205460ff1690565b6102bd61060b366004613b0a565b611394565b60006001600160e01b031982166380ac58cd60e01b148061064157506001600160e01b03198216635b5e139f60e01b145b8061065c57506301ffc9a760e01b6001600160e01b03198316145b92915050565b60606001805461067190613dc1565b80601f016020809104026020016040519081016040528092919081815260200182805461069d90613dc1565b80156106ea5780601f106106bf576101008083540402835291602001916106ea565b820191906000526020600020905b8154815290600101906020018083116106cd57829003601f168201915b5050505050905090565b60006106ff8261140d565b506000908152600560205260409020546001600160a01b031690565b600061072682610ae3565b9050806001600160a01b0316836001600160a01b0316036107985760405162461bcd60e51b815260206004820152602160248201527f4552433732313a20617070726f76616c20746f2063757272656e74206f776e656044820152603960f91b60648201526084015b60405180910390fd5b336001600160a01b03821614806107b457506107b481336105cf565b6108265760405162461bcd60e51b815260206004820152603d60248201527f4552433732313a20617070726f76652063616c6c6572206973206e6f7420746f60448201527f6b656e206f776e6572206f7220617070726f76656420666f7220616c6c000000606482015260840161078f565b610830838361146c565b505050565b61083f33826114da565b61085b5760405162461bcd60e51b815260040161078f90613df5565b610830838383611558565b826001600160801b0319166009866001600160401b03168154811061088d5761088d613e42565b600091825260209091206006909102015460801b6001600160801b031916146109135760405162461bcd60e51b815260206004820152603260248201527f73637261746368416e64526566756e643a2070726f706f736974696f6e496420604482015271191bd95cc81b9bdd081b585d18da0818995d60721b606482015260840161078f565b604051631b62340760e01b81526001600160a01b037f00000000000000000000000000000000000000000000000000000000000000001690631b62340790610965908790879087908790600401613e8c565b600060405180830381600087803b15801561097f57600080fd5b505af1158015610993573d6000803e3d6000fd5b505050506109a0856116c9565b5050505050565b610830838383604051806020016040528060008152506110a7565b60006109d085858585611ac1565b90505b949350505050565b60006009826001600160401b0316815481106109f9576109f9613e42565b60009182526020918290206040805160e081018252600690930290910180546001600160801b0319608082811b82168652600160801b909204821b169484019490945260018101549183019190915260028101546060830152600381015492820192909252600482015460a082015260059091015460ff1615801560c0830152909150610ac85760405162461bcd60e51b815260206004820152601f60248201527f736574746c653a204265742068617320616c726561647920736574746c656400604482015260640161078f565b610ad182611be2565b5050565b60006109d085858585611f0a565b6000818152600360205260408120546001600160a01b03168061065c5760405162461bcd60e51b8152602060048201526018602482015277115490cdcc8c4e881a5b9d985b1a59081d1bdad95b88125160421b604482015260640161078f565b610b4b611f46565b6001600160a01b038116610bad5760405162461bcd60e51b815260206004820152602360248201527f6772616e745369676e65723a20496e76616c6964207369676e6572206164647260448201526265737360e81b606482015260840161078f565b6001600160a01b03166000908152601060205260409020805460ff19166001179055565b6000806000806000806000610be588611fa0565b959e949d50929b5090995097509550909350915050565b60606000826001600160401b03811115610c1857610c18613c40565b604051908082528060200260200182016040528015610c41578160200160208202803683370190505b50905060005b60ff8116841115610cad573685858360ff16818110610c6857610c68613e42565b905061014002019050610c7a81610d4f565b838360ff1681518110610c8f57610c8f613e42565b60209081029190910101525080610ca581613ecf565b915050610c47565b509392505050565b60006001600160a01b038216610d1f5760405162461bcd60e51b815260206004820152602960248201527f4552433732313a2061646472657373207a65726f206973206e6f7420612076616044820152683634b21037bbb732b960b91b606482015260840161078f565b506001600160a01b031660009081526004602052604090205490565b610d43611f46565b610d4d6000612066565b565b600080610d5f6020840184613978565b610d6f6040850160208601613978565b610d7f6060860160408701613978565b604080516001600160801b0319948516602082015292841660308401529216918101919091526080840135605082015260a0840135607082015260c0840135609082015260b001604051602081830303815290604052805190602001209050610deb818460e0016120b6565b1515600114610e3c5760405162461bcd60e51b815260206004820152601760248201527f6261636b3a20496e76616c6964207369676e6174757265000000000000000000604482015260640161078f565b6000610e70610e516040860160208701613978565b610e616060870160408801613978565b86606001358760800135611f0a565b905060008111610e8257610e82613eee565b6109d3610e956040860160208701613978565b610ea56060870160408801613978565b86606001358760a001358860c001358661216c565b6001600160a01b03811660009081526010602052604081205460ff1661065c565b6001600160801b031981166000908152600a6020908152604080832080548251818502810185019093528083529192909190830182828015610f6e57602002820191906000526020600020906000905b82829054906101000a90046001600160401b03166001600160401b031681526020019060080190602082600701049283019260010382029150808411610f2b5790505b505083519394506000925050505b81816001600160401b0316101561107757600083826001600160401b031681518110610faa57610faa613e42565b6020026020010151905060006009826001600160401b031681548110610fd257610fd2613e42565b600091825260208083206040805160e081018252600690940290910180546001600160801b0319608082811b82168752600160801b909204821b169385019390935260018101549184019190915260028101546060840152600381015491830191909152600481015460a08301526005015460ff16151560c0820181905290925090036110625761106282611be2565b5050808061106f90613f04565b915050610f7c565b50505050565b905090565b60606002805461067190613dc1565b610ad1338383612686565b600061107d60095490565b6110b133836114da565b6110cd5760405162461bcd60e51b815260040161078f90613df5565b61107784848484612754565b6110e1611f46565b6001600160a01b0381166111435760405162461bcd60e51b8152602060048201526024808201527f7265766f6b655369676e65723a20496e76616c6964207369676e6572206164646044820152637265737360e01b606482015260840161078f565b6001600160a01b03166000908152601060205260409020805460ff19169055565b606061116f8261140d565b6000611179612787565b9050600081511161119957604051806020016040528060008152506111c4565b806111a384612796565b6040516020016111b4929190613f2a565b6040516020818303038152906040525b9392505050565b60006009826001600160401b0316815481106111e9576111e9613e42565b60009182526020822060069190910201546040516325a8f38560e11b8152600160801b90910460801b6001600160801b03198116600483015292506001600160a01b037f00000000000000000000000000000000000000000000000000000000000000001690634b51e70a90602401600060405180830381865afa158015611275573d6000803e3d6000fd5b505050506040513d6000823e601f3d908101601f1916820160405261129d9190810190613f59565b905060005b816020015151811015611340576009846001600160401b0316815481106112cb576112cb613e42565b906000526020600020906006020160000160009054906101000a900460801b6001600160801b0319168260200151828151811061130a5761130a613e42565b6020026020010151600001516001600160801b0319160361132e57611077846116c9565b8061133881614077565b9150506112a2565b5060405162461bcd60e51b815260206004820152601f60248201527f726566756e643a204e6f7420656c696769626c6520666f7220726566756e6400604482015260640161078f565b600061065c82612828565b61139c611f46565b6001600160a01b0381166114015760405162461bcd60e51b815260206004820152602660248201527f4f776e61626c653a206e6577206f776e657220697320746865207a65726f206160448201526564647265737360d01b606482015260840161078f565b61140a81612066565b50565b6000818152600360205260409020546001600160a01b031661140a5760405162461bcd60e51b8152602060048201526018602482015277115490cdcc8c4e881a5b9d985b1a59081d1bdad95b88125160421b604482015260640161078f565b600081815260056020526040902080546001600160a01b0319166001600160a01b03841690811790915581906114a182610ae3565b6001600160a01b03167f8c5be1e5ebec7d5bd14f71427d1e84f3dd0314c0f7b2291e5b200ac8c7c3b92560405160405180910390a45050565b6000806114e683610ae3565b9050806001600160a01b0316846001600160a01b0316148061152d57506001600160a01b0380821660009081526006602090815260408083209388168352929052205460ff165b806109d35750836001600160a01b0316611546846106f4565b6001600160a01b031614949350505050565b826001600160a01b031661156b82610ae3565b6001600160a01b0316146115915760405162461bcd60e51b815260040161078f90614090565b6001600160a01b0382166115f35760405162461bcd60e51b8152602060048201526024808201527f4552433732313a207472616e7366657220746f20746865207a65726f206164646044820152637265737360e01b606482015260840161078f565b6116008383836001612883565b826001600160a01b031661161382610ae3565b6001600160a01b0316146116395760405162461bcd60e51b815260040161078f90614090565b600081815260056020908152604080832080546001600160a01b03199081169091556001600160a01b0387811680865260048552838620805460001901905590871680865283862080546001019055868652600390945282852080549092168417909155905184937fddf252ad1be2c89b69c2b068fc378daa952ba7f163c4a11628f55a4df523b3ef91a4505050565b60006009826001600160401b0316815481106116e7576116e7613e42565b60009182526020918290206040805160e081018252600690930290910180546001600160801b0319608082811b82168652600160801b909204821b169484019490945260018101549183019190915260028101546060830152600381015492820192909252600482015460a082015260059091015460ff1615801560c08301529091506117b65760405162461bcd60e51b815260206004820181905260248201527f5f726566756e643a204265742068617320616c726561647920736574746c6564604482015260640161078f565b600160c082015260098054600091906001600160401b0385169081106117de576117de613e42565b9060005260206000209060060201600101546009846001600160401b03168154811061180c5761180c613e42565b90600052602060002090600602016002015461182891906140d5565b905080600f600082825461183c91906140d5565b9091555050600980546001600160401b03851690811061185e5761185e613e42565b906000526020600020906006020160010154600e600082825461188191906140d5565b909155505060088054906000611896836140ec565b91905055507f00000000000000000000000000000000000000000000000000000000000000006001600160a01b031663a9059cbb6118dc856001600160401b0316610ae3565b60408086015190516001600160e01b031960e085901b1681526001600160a01b03909216600483015260248201526044016020604051808303816000875af115801561192c573d6000803e3d6000fd5b505050506040513d601f19601f820116820180604052508101906119509190614103565b5060405163a9059cbb60e01b81526001600160a01b037f000000000000000000000000000000000000000000000000000000000000000081166004830152602482018390527f0000000000000000000000000000000000000000000000000000000000000000169063a9059cbb906044016020604051808303816000875af11580156119e0573d6000803e3d6000fd5b505050506040513d601f19601f82011682018060405250810190611a049190614103565b507f00000000000000000000000000000000000000000000000000000000000000006001600160a01b03167f0516911bcc3a0a7412a44601057c0a0a1ec628bde049a84284bc42886653448882604051611a6091815260200190565b60405180910390a260408083015181516001600160401b038616815260208101919091527fb7c1f9298a18c36af08bd57eabbfbeb04695f24d0438f67614741ec15fb5c4a9910160405180910390a1610830836001600160401b031661290b565b6000600185111580611ad4575060018411155b15611ae1575060016109d3565b60007f00000000000000000000000000000000000000000000000000000000000000006001600160a01b031663b15031fa6040518163ffffffff1660e01b8152600401602060405180830381865afa158015611b41573d6000803e3d6000fd5b505050506040513d601f19601f82011682018060405250810190611b659190614120565b905080600003611b795760019150506109d3565b6001600160801b031984166000908152600d6020526040902054811015611ba45760019150506109d3565b6001600160801b031984166000908152600d6020526040902054611bc890826140d5565b90506000611bd78787846129ae565b979650505050505050565b60006009826001600160401b031681548110611c0057611c00613e42565b60009182526020918290206040805160e081018252600690930290910180546001600160801b0319608082811b82168652600160801b909204821b16948401949094526001808201549284019290925260028101546060840152600381015493830193909352600483015460a083015260059092015460ff16151560c082015260098054919350906001600160401b038516908110611ca157611ca1613e42565b60009182526020822060069190910201600501805460ff19169215159290921790915580611cce84612828565b421115611d065760019150611ceb846001600160401b0316610ae3565b9050611d01846001600160401b03166001612a33565b611e73565b602083015183516040516306c77ce760e01b81526001600160801b03199283166004820152911660248201527f00000000000000000000000000000000000000000000000000000000000000006001600160a01b0316906306c77ce790604401602060405180830381865afa158015611d83573d6000803e3d6000fd5b505050506040513d601f19601f82011682018060405250810190611da79190614139565b915060011960ff831601611ddb577f0000000000000000000000000000000000000000000000000000000000000000611ded565b611ded846001600160401b0316610ae3565b905060001960ff831601611e0657611e048461304c565b505b611e19846001600160401b031683612a33565b6009846001600160401b031681548110611e3557611e35613e42565b906000526020600020906006020160010154600e6000828254611e5891906140d5565b909155505060088054906000611e6d836140ec565b91905055505b806001600160a01b03167f7c2e00429f610bdb997681cabbb0ef3197390c07fe90ea4a98ac36438dd4217c856009876001600160401b031681548110611ebb57611ebb613e42565b600091825260209182902060026006909202010154604080516001600160401b0390941684529183015260ff86169082015260600160405180910390a2611077846001600160401b031661290b565b600080611f1984848888611ac1565b9050611f3c84620f4240611f2d8285614156565b611f379190614175565b6133b2565b9695505050505050565b6000546001600160a01b03163314610d4d5760405162461bcd60e51b815260206004820181905260248201527f4f776e61626c653a2063616c6c6572206973206e6f7420746865206f776e6572604482015260640161078f565b6000806000806000806000806009896001600160401b031681548110611fc857611fc8613e42565b60009182526020918290206040805160e0810182526006939093029091018054608081811b6001600160801b0319908116808752600160801b909304821b1695850186905260018301549385018490526002830154606086018190526003840154918601829052600484015460a0870181905260059094015460ff16151560c0909601869052939f939e509c50909a50919850919650945092505050565b600080546001600160a01b038381166001600160a01b0319831681178455604051919092169283917f8be0079c531659141344cd1fd0a4f28419497f9722a3daafe3b4186f6b6457e09190a35050565b60008073__$47464c6f7588c8075b5d384b19d082a8ec$__635cff288d85856040518363ffffffff1660e01b81526004016120f2929190614197565b602060405180830381865af415801561210f573d6000803e3d6000fd5b505050506040513d601f19601f8201168201806040525081019061213391906141ab565b90506001600160a01b03811661214b5761214b613eee565b6001600160a01b03811660009081526010602052604090205460ff166109d3565b6000428311801561217c57504284115b6121be5760405162461bcd60e51b81526020600482015260136024820152725f6261636b3a20496e76616c6964206461746560681b604482015260640161078f565b6040516306c77ce760e01b81526001600160801b03198088166004830152881660248201527f00000000000000000000000000000000000000000000000000000000000000006001600160a01b0316906306c77ce790604401602060405180830381865afa158015612234573d6000803e3d6000fd5b505050506040513d601f19601f820116820180604052508101906122589190614139565b60ff166002146122c35760405162461bcd60e51b815260206004820152603060248201527f5f6261636b3a204f7261636c6520726573756c7420616c72656164792073657460448201526f08199bdc881d1a1a5cc81b585c9ad95d60821b606482015260840161078f565b6001600160a01b037f0000000000000000000000000000000000000000000000000000000000000000166323b872dd3360405160e083901b6001600160e01b03191681526001600160a01b0391821660048201527f00000000000000000000000000000000000000000000000000000000000000009091166024820152604481018890526064016020604051808303816000875af1158015612369573d6000803e3d6000fd5b505050506040513d601f19601f8201168201806040525081019061238d9190614103565b506001600160801b031986166000908152600b6020526040812080548792906123b79084906141c8565b9250508190555084600e60008282546123d091906141c8565b9091555050600880549060006123e583614077565b919050555060006123f560095490565b6001600160801b031989166000908152600d60205260408120805492935085929091906124239084906141c8565b9091555061243f90506001600160401b038216888a89876133c8565b600f600082825461245091906141c8565b90915550506040805160e0810182526001600160801b03198a81168252891660208083018281528385018b81526060850189815260808087018c81524260a08901908152600060c08a0181815260098054600180820183559184529b51985198861c600160801b9990961c98909802949094177f6e1540171b6c0c960b71a7020d9f60077f6af931a8bbf590da0223dacf75c7af6006909b029a8b015594517f6e1540171b6c0c960b71a7020d9f60077f6af931a8bbf590da0223dacf75c7b08a015592517f6e1540171b6c0c960b71a7020d9f60077f6af931a8bbf590da0223dacf75c7b1890155517f6e1540171b6c0c960b71a7020d9f60077f6af931a8bbf590da0223dacf75c7b288015590517f6e1540171b6c0c960b71a7020d9f60077f6af931a8bbf590da0223dacf75c7b3870155517f6e1540171b6c0c960b71a7020d9f60077f6af931a8bbf590da0223dacf75c7b4909501805460ff191695151595909517909455918352600a81529282208054918201815582529190206004820401805460039092166008026101000a6001600160401b03818102199093169284160291909117905561260e33826001600160401b03166134fb565b604080516001600160401b03831681526001600160801b03198a811660208301528916818301526060810188905260808101859052905133917f1d273ea6a1aea94de32fd06a09ab8046dff8e3261c5a4ecaa5e1a5705f3342ec919081900360a00190a26001600160401b0316979650505050505050565b816001600160a01b0316836001600160a01b0316036126e75760405162461bcd60e51b815260206004820152601960248201527f4552433732313a20617070726f766520746f2063616c6c657200000000000000604482015260640161078f565b6001600160a01b03838116600081815260066020908152604080832094871680845294825291829020805460ff191686151590811790915591519182527f17307eab39ab6107e8899845ad3d59bd9653f200f220920489ca2b5937696c31910160405180910390a3505050565b61275f848484611558565b61276b84848484613694565b6110775760405162461bcd60e51b815260040161078f906141e0565b60606007805461067190613dc1565b606060006127a383613792565b60010190506000816001600160401b038111156127c2576127c2613c40565b6040519080825280601f01601f1916602001820160405280156127ec576020820181803683370190505b5090508181016020015b600019016f181899199a1a9b1b9c1cb0b131b232b360811b600a86061a8153600a85049450846127f657509392505050565b60007f00000000000000000000000000000000000000000000000000000000000000006009836001600160401b03168154811061286757612867613e42565b90600052602060002090600602016003015461065c91906141c8565b6001811115611077576001600160a01b038416156128c9576001600160a01b038416600090815260046020526040812080548392906128c39084906140d5565b90915550505b6001600160a01b03831615611077576001600160a01b038316600090815260046020526040812080548392906129009084906141c8565b909155505050505050565b600061291682610ae3565b9050612926816000846001612883565b61292f82610ae3565b600083815260056020908152604080832080546001600160a01b03199081169091556001600160a01b0385168085526004845282852080546000190190558785526003909352818420805490911690555192935084927fddf252ad1be2c89b69c2b068fc378daa952ba7f163c4a11628f55a4df523b3ef908390a45050565b60405163a19dec4360e01b815260048101849052602481018390526044810182905260009073__$488e0037c7b108d422da68056570fe35d6$__9063a19dec4390606401602060405180830381865af4158015612a0f573d6000803e3d6000fd5b505050506040513d601f19601f820116820180604052508101906109d39190614120565b600060098381548110612a4857612a48613e42565b9060005260206000209060060201600201549050600060098481548110612a7157612a71613e42565b600091825260208220600160069092020101549150612a9082846140d5565b905080600f6000828254612aa491906140d5565b909155505060021960ff851601612c7d577f00000000000000000000000000000000000000000000000000000000000000006001600160a01b031663a9059cbb612aed87610ae3565b6040516001600160e01b031960e084901b1681526001600160a01b039091166004820152602481018590526044016020604051808303816000875af1158015612b3a573d6000803e3d6000fd5b505050506040513d601f19601f82011682018060405250810190612b5e9190614103565b5060405163a9059cbb60e01b81526001600160a01b037f000000000000000000000000000000000000000000000000000000000000000081166004830152602482018390527f0000000000000000000000000000000000000000000000000000000000000000169063a9059cbb906044016020604051808303816000875af1158015612bee573d6000803e3d6000fd5b505050506040513d601f19601f82011682018060405250810190612c129190614103565b507f00000000000000000000000000000000000000000000000000000000000000006001600160a01b03167f0516911bcc3a0a7412a44601057c0a0a1ec628bde049a84284bc42886653448882604051612c6e91815260200190565b60405180910390a25050505050565b4260098681548110612c9157612c91613e42565b90600052602060002090600602016003015410612cf05760405162461bcd60e51b815260206004820181905260248201527f5f7061796f75743a205061796f75742064617465206e6f742072656163686564604482015260640161078f565b60001960ff851601612da7577f00000000000000000000000000000000000000000000000000000000000000006001600160a01b031663a9059cbb612d3487610ae3565b6040516001600160e01b031960e084901b1681526001600160a01b039091166004820152602481018690526044016020604051808303816000875af1158015612d81573d6000803e3d6000fd5b505050506040513d601f19601f82011682018060405250810190612da59190614103565b505b60011960ff8516016109a05760007f00000000000000000000000000000000000000000000000000000000000000006001600160a01b031663679aefce6040518163ffffffff1660e01b8152600401602060405180830381865afa158015612e13573d6000803e3d6000fd5b505050506040513d601f19601f82011682018060405250810190612e379190614120565b9050620186a08111612e4b57612e4b613eee565b6000620186a0612e5b8385614156565b612e659190614175565b90506000612e7382876140d5565b60405163a9059cbb60e01b81526001600160a01b037f000000000000000000000000000000000000000000000000000000000000000081166004830152602482018590529192507f00000000000000000000000000000000000000000000000000000000000000009091169063a9059cbb906044016020604051808303816000875af1158015612f07573d6000803e3d6000fd5b505050506040513d601f19601f82011682018060405250810190612f2b9190614103565b507f00000000000000000000000000000000000000000000000000000000000000006001600160a01b03167f0516911bcc3a0a7412a44601057c0a0a1ec628bde049a84284bc42886653448883604051612f8791815260200190565b60405180910390a27f00000000000000000000000000000000000000000000000000000000000000006001600160a01b031663a9059cbb612fd06000546001600160a01b031690565b6040516001600160e01b031960e084901b1681526001600160a01b039091166004820152602481018490526044016020604051808303816000875af115801561301d573d6000803e3d6000fd5b505050506040513d601f19601f820116820180604052508101906130419190614103565b505050505050505050565b6000806009836001600160401b03168154811061306b5761306b613e42565b60009182526020822060069190910201546040516325a8f38560e11b8152600160801b90910460801b6001600160801b03198116600483015292506001600160a01b037f00000000000000000000000000000000000000000000000000000000000000001690634b51e70a90602401600060405180830381865afa1580156130f7573d6000803e3d6000fd5b505050506040513d6000823e601f3d908101601f1916820160405261311f9190810190613f59565b90506000806009866001600160401b03168154811061314057613140613e42565b90600052602060002090600602016004015490506000836020015151905060005b818110156131d457828560200151828151811061318057613180613e42565b60200260200101516020015111156131c257846020015181815181106131a8576131a8613e42565b602002602001015160400151846131bf91906141c8565b93505b806131cc81614077565b915050613161565b50600083118015613212575060006009886001600160401b0316815481106131fe576131fe613e42565b906000526020600020906006020160010154115b156133785760006009886001600160401b03168154811061323557613235613e42565b9060005260206000209060060201600101546009896001600160401b03168154811061326357613263613e42565b90600052602060002090600602016002015461327f9190614175565b604051637869dde560e11b815260048101829052602481018690526216e360604482015290915060009073__$488e0037c7b108d422da68056570fe35d6$__9063f0d3bbca90606401602060405180830381865af41580156132e5573d6000803e3d6000fd5b505050506040513d601f19601f820116820180604052508101906133099190614120565b90508060098a6001600160401b03168154811061332857613328613e42565b9060005260206000209060060201600101546133449190614156565b60098a6001600160401b03168154811061336057613360613e42565b90600052602060002090600602016002018190555050505b6009876001600160401b03168154811061339457613394613e42565b90600052602060002090600602016002015495505050505050919050565b60008183116133c157816111c4565b5090919050565b6000806133d584846140d5565b6040516323b872dd60e01b81526001600160a01b037f0000000000000000000000000000000000000000000000000000000000000000811660048301527f000000000000000000000000000000000000000000000000000000000000000081166024830152604482018390529192507f0000000000000000000000000000000000000000000000000000000000000000909116906323b872dd906064016020604051808303816000875af1158015613491573d6000803e3d6000fd5b505050506040513d601f19601f820116820180604052508101906134b59190614103565b5060408051888152602081018390527f14a13f958d7fe38fb8529e8d43353b6d9120f52444e486a4077f68a3fc77dcbf910160405180910390a190505b95945050505050565b6001600160a01b0382166135515760405162461bcd60e51b815260206004820181905260248201527f4552433732313a206d696e7420746f20746865207a65726f2061646472657373604482015260640161078f565b6000818152600360205260409020546001600160a01b0316156135b65760405162461bcd60e51b815260206004820152601c60248201527f4552433732313a20746f6b656e20616c7265616479206d696e74656400000000604482015260640161078f565b6135c4600083836001612883565b6000818152600360205260409020546001600160a01b0316156136295760405162461bcd60e51b815260206004820152601c60248201527f4552433732313a20746f6b656e20616c7265616479206d696e74656400000000604482015260640161078f565b6001600160a01b038216600081815260046020908152604080832080546001019055848352600390915280822080546001600160a01b0319168417905551839291907fddf252ad1be2c89b69c2b068fc378daa952ba7f163c4a11628f55a4df523b3ef908290a45050565b60006001600160a01b0384163b1561378a57604051630a85bd0160e11b81526001600160a01b0385169063150b7a02906136d8903390899088908890600401614232565b6020604051808303816000875af1925050508015613713575060408051601f3d908101601f1916820190925261371091810190614265565b60015b613770573d808015613741576040519150601f19603f3d011682016040523d82523d6000602084013e613746565b606091505b5080516000036137685760405162461bcd60e51b815260040161078f906141e0565b805181602001fd5b6001600160e01b031916630a85bd0160e11b1490506109d3565b5060016109d3565b60008072184f03e93ff9f4daa797ed6e38ed64bf6a1f0160401b83106137d15772184f03e93ff9f4daa797ed6e38ed64bf6a1f0160401b830492506040015b6d04ee2d6d415b85acef810000000083106137fd576d04ee2d6d415b85acef8100000000830492506020015b662386f26fc10000831061381b57662386f26fc10000830492506010015b6305f5e1008310613833576305f5e100830492506008015b612710831061384757612710830492506004015b60648310613859576064830492506002015b600a831061065c5760010192915050565b6001600160e01b03198116811461140a57600080fd5b60006020828403121561389257600080fd5b81356111c48161386a565b60005b838110156138b85781810151838201526020016138a0565b838111156110775750506000910152565b600081518084526138e181602086016020860161389d565b601f01601f19169290920160200192915050565b6020815260006111c460208301846138c9565b60006020828403121561391a57600080fd5b5035919050565b6001600160a01b038116811461140a57600080fd5b6000806040838503121561394957600080fd5b823561395481613921565b946020939093013593505050565b6001600160801b03198116811461140a57600080fd5b60006020828403121561398a57600080fd5b81356111c481613962565b6000806000606084860312156139aa57600080fd5b83356139b581613921565b925060208401356139c581613921565b929592945050506040919091013590565b80356001600160401b03811681146139ed57600080fd5b919050565b600080600080600085870360e0811215613a0b57600080fd5b613a14876139d6565b95506020870135613a2481613962565b94506040870135613a3481613962565b93506060878101359350607f1982011215613a4e57600080fd5b506080860190509295509295909350565b60008060008060808587031215613a7557600080fd5b84359350602085013592506040850135613a8e81613962565b91506060850135613a9e81613962565b939692955090935050565b600060208284031215613abb57600080fd5b6111c4826139d6565b60008060008060808587031215613ada57600080fd5b8435613ae581613962565b93506020850135613af581613962565b93969395505050506040820135916060013590565b600060208284031215613b1c57600080fd5b81356111c481613921565b60008060208385031215613b3a57600080fd5b82356001600160401b0380821115613b5157600080fd5b818501915085601f830112613b6557600080fd5b813581811115613b7457600080fd5b86602061014083028501011115613b8a57600080fd5b60209290920196919550909350505050565b6020808252825182820181905260009190848201906040850190845b81811015613bd457835183529284019291840191600101613bb8565b50909695505050505050565b60006101408284031215613bf357600080fd5b50919050565b801515811461140a57600080fd5b60008060408385031215613c1a57600080fd5b8235613c2581613921565b91506020830135613c3581613bf9565b809150509250929050565b634e487b7160e01b600052604160045260246000fd5b604080519081016001600160401b0381118282101715613c7857613c78613c40565b60405290565b604051606081016001600160401b0381118282101715613c7857613c78613c40565b604051601f8201601f191681016001600160401b0381118282101715613cc857613cc8613c40565b604052919050565b60008060008060808587031215613ce657600080fd5b8435613cf181613921565b9350602085810135613d0281613921565b93506040860135925060608601356001600160401b0380821115613d2557600080fd5b818801915088601f830112613d3957600080fd5b813581811115613d4b57613d4b613c40565b613d5d601f8201601f19168501613ca0565b91508082528984828501011115613d7357600080fd5b808484018584013760008482840101525080935050505092959194509250565b60008060408385031215613da657600080fd5b8235613db181613921565b91506020830135613c3581613921565b600181811c90821680613dd557607f821691505b602082108103613bf357634e487b7160e01b600052602260045260246000fd5b6020808252602d908201527f4552433732313a2063616c6c6572206973206e6f7420746f6b656e206f776e6560408201526c1c881bdc88185c1c1c9bdd9959609a1b606082015260800190565b634e487b7160e01b600052603260045260246000fd5b60ff8116811461140a57600080fd5b8035613e7281613e58565b60ff16825260208181013590830152604090810135910152565b6001600160801b03198581168252841660208201526040810183905260c081016134f26060830184613e67565b634e487b7160e01b600052601160045260246000fd5b600060ff821660ff8103613ee557613ee5613eb9565b60010192915050565b634e487b7160e01b600052600160045260246000fd5b60006001600160401b03808316818103613f2057613f20613eb9565b6001019392505050565b60008351613f3c81846020880161389d565b835190830190613f5081836020880161389d565b01949350505050565b60006020808385031215613f6c57600080fd5b82516001600160401b0380821115613f8357600080fd5b81850191506040808388031215613f9957600080fd5b613fa1613c56565b8351613fac81613962565b81528385015183811115613fbf57600080fd5b80850194505087601f850112613fd457600080fd5b835183811115613fe657613fe6613c40565b613ff4868260051b01613ca0565b8181528681019450606091820286018701918a83111561401357600080fd5b958701955b828710156140645780878c0312156140305760008081fd5b614038613c7e565b875161404381613962565b81528789015189820152858801518682015286529586019594870194614018565b5095820195909552979650505050505050565b60006001820161408957614089613eb9565b5060010190565b60208082526025908201527f4552433732313a207472616e736665722066726f6d20696e636f72726563742060408201526437bbb732b960d91b606082015260800190565b6000828210156140e7576140e7613eb9565b500390565b6000816140fb576140fb613eb9565b506000190190565b60006020828403121561411557600080fd5b81516111c481613bf9565b60006020828403121561413257600080fd5b5051919050565b60006020828403121561414b57600080fd5b81516111c481613e58565b600081600019048311821515161561417057614170613eb9565b500290565b60008261419257634e487b7160e01b600052601260045260246000fd5b500490565b828152608081016111c46020830184613e67565b6000602082840312156141bd57600080fd5b81516111c481613921565b600082198211156141db576141db613eb9565b500190565b60208082526032908201527f4552433732313a207472616e7366657220746f206e6f6e20455243373231526560408201527131b2b4bb32b91034b6b83632b6b2b73a32b960711b606082015260800190565b6001600160a01b0385811682528416602082015260408101839052608060608201819052600090611f3c908301846138c9565b60006020828403121561427757600080fd5b81516111c48161386a56fea26469706673582212204736ac2de48234ed4fe29506a27b484058014966ae1b89fe4e5c57b093caf0ad64736f6c634300080f0033",
  "libraries": {
    "SignatureLib": "0xC2ab165C60747a2b3FBc468CF5B74F5B7822Ca49",
    "OddsLib": "0x85E1225b73512bbBcbeC6004551F6e832746f64E"
  },
  "devdoc": {
    "kind": "dev",
    "methods": {
      "approve(address,uint256)": {
        "details": "See {IERC721-approve}."
      },
      "balanceOf(address)": {
        "details": "See {IERC721-balanceOf}."
      },
      "getApproved(uint256)": {
        "details": "See {IERC721-getApproved}."
      },
      "isApprovedForAll(address,address)": {
        "details": "See {IERC721-isApprovedForAll}."
      },
      "name()": {
        "details": "See {IERC721Metadata-name}."
      },
      "owner()": {
        "details": "Returns the address of the current owner."
      },
      "ownerOf(uint256)": {
        "details": "See {IERC721-ownerOf}."
      },
      "renounceOwnership()": {
        "details": "Leaves the contract without owner. It will not be possible to call `onlyOwner` functions anymore. Can only be called by the current owner. NOTE: Renouncing ownership will leave the contract without an owner, thereby removing any functionality that is only available to the owner."
      },
      "safeTransferFrom(address,address,uint256)": {
        "details": "See {IERC721-safeTransferFrom}."
      },
      "safeTransferFrom(address,address,uint256,bytes)": {
        "details": "See {IERC721-safeTransferFrom}."
      },
      "setApprovalForAll(address,bool)": {
        "details": "See {IERC721-setApprovalForAll}."
      },
      "supportsInterface(bytes4)": {
        "details": "See {IERC165-supportsInterface}."
      },
      "symbol()": {
        "details": "See {IERC721Metadata-symbol}."
      },
      "tokenURI(uint256)": {
        "details": "See {IERC721Metadata-tokenURI}."
      },
      "transferFrom(address,address,uint256)": {
        "details": "See {IERC721-transferFrom}."
      },
      "transferOwnership(address)": {
        "details": "Transfers ownership of the contract to a new account (`newOwner`). Can only be called by the current owner."
      }
    },
    "version": 1
  },
  "userdoc": {
    "kind": "user",
    "methods": {},
    "version": 1
  },
  "storageLayout": {
    "storage": [
      {
        "astId": 2722,
        "contract": "contracts/Market.sol:Market",
        "label": "_owner",
        "offset": 0,
        "slot": "0",
        "type": "t_address"
      },
      {
        "astId": 5039,
        "contract": "contracts/Market.sol:Market",
        "label": "_name",
        "offset": 0,
        "slot": "1",
        "type": "t_string_storage"
      },
      {
        "astId": 5041,
        "contract": "contracts/Market.sol:Market",
        "label": "_symbol",
        "offset": 0,
        "slot": "2",
        "type": "t_string_storage"
      },
      {
        "astId": 5045,
        "contract": "contracts/Market.sol:Market",
        "label": "_owners",
        "offset": 0,
        "slot": "3",
        "type": "t_mapping(t_uint256,t_address)"
      },
      {
        "astId": 5049,
        "contract": "contracts/Market.sol:Market",
        "label": "_balances",
        "offset": 0,
        "slot": "4",
        "type": "t_mapping(t_address,t_uint256)"
      },
      {
        "astId": 5053,
        "contract": "contracts/Market.sol:Market",
        "label": "_tokenApprovals",
        "offset": 0,
        "slot": "5",
        "type": "t_mapping(t_uint256,t_address)"
      },
      {
        "astId": 5059,
        "contract": "contracts/Market.sol:Market",
        "label": "_operatorApprovals",
        "offset": 0,
        "slot": "6",
        "type": "t_mapping(t_address,t_mapping(t_address,t_bool))"
      },
      {
        "astId": 11999,
        "contract": "contracts/Market.sol:Market",
        "label": "_metadataBaseURI",
        "offset": 0,
        "slot": "7",
        "type": "t_string_storage"
      },
      {
        "astId": 12014,
        "contract": "contracts/Market.sol:Market",
        "label": "_inplayCount",
        "offset": 0,
        "slot": "8",
        "type": "t_uint256"
      },
      {
        "astId": 12018,
        "contract": "contracts/Market.sol:Market",
        "label": "_bets",
        "offset": 0,
        "slot": "9",
        "type": "t_array(t_struct(Bet)11985_storage)dyn_storage"
      },
      {
        "astId": 12023,
        "contract": "contracts/Market.sol:Market",
        "label": "_marketBets",
        "offset": 0,
        "slot": "10",
        "type": "t_mapping(t_bytes16,t_array(t_uint64)dyn_storage)"
      },
      {
        "astId": 12027,
        "contract": "contracts/Market.sol:Market",
        "label": "_marketTotal",
        "offset": 0,
        "slot": "11",
        "type": "t_mapping(t_bytes16,t_uint256)"
      },
      {
        "astId": 12033,
        "contract": "contracts/Market.sol:Market",
        "label": "_marketBetAmount",
        "offset": 0,
        "slot": "12",
        "type": "t_mapping(t_bytes16,t_mapping(t_uint16,t_uint256))"
      },
      {
        "astId": 12037,
        "contract": "contracts/Market.sol:Market",
        "label": "_potentialPayout",
        "offset": 0,
        "slot": "13",
        "type": "t_mapping(t_bytes16,t_uint256)"
      },
      {
        "astId": 12039,
        "contract": "contracts/Market.sol:Market",
        "label": "_totalInPlay",
        "offset": 0,
        "slot": "14",
        "type": "t_uint256"
      },
      {
        "astId": 12041,
        "contract": "contracts/Market.sol:Market",
        "label": "_totalExposure",
        "offset": 0,
        "slot": "15",
        "type": "t_uint256"
      },
      {
        "astId": 12047,
        "contract": "contracts/Market.sol:Market",
        "label": "_signers",
        "offset": 0,
        "slot": "16",
        "type": "t_mapping(t_address,t_bool)"
      }
    ],
    "types": {
      "t_address": {
        "encoding": "inplace",
        "label": "address",
        "numberOfBytes": "20"
      },
      "t_array(t_struct(Bet)11985_storage)dyn_storage": {
        "base": "t_struct(Bet)11985_storage",
        "encoding": "dynamic_array",
        "label": "struct Bet[]",
        "numberOfBytes": "32"
      },
      "t_array(t_uint64)dyn_storage": {
        "base": "t_uint64",
        "encoding": "dynamic_array",
        "label": "uint64[]",
        "numberOfBytes": "32"
      },
      "t_bool": {
        "encoding": "inplace",
        "label": "bool",
        "numberOfBytes": "1"
      },
      "t_bytes16": {
        "encoding": "inplace",
        "label": "bytes16",
        "numberOfBytes": "16"
      },
      "t_mapping(t_address,t_bool)": {
        "encoding": "mapping",
        "key": "t_address",
        "label": "mapping(address => bool)",
        "numberOfBytes": "32",
        "value": "t_bool"
      },
      "t_mapping(t_address,t_mapping(t_address,t_bool))": {
        "encoding": "mapping",
        "key": "t_address",
        "label": "mapping(address => mapping(address => bool))",
        "numberOfBytes": "32",
        "value": "t_mapping(t_address,t_bool)"
      },
      "t_mapping(t_address,t_uint256)": {
        "encoding": "mapping",
        "key": "t_address",
        "label": "mapping(address => uint256)",
        "numberOfBytes": "32",
        "value": "t_uint256"
      },
      "t_mapping(t_bytes16,t_array(t_uint64)dyn_storage)": {
        "encoding": "mapping",
        "key": "t_bytes16",
        "label": "mapping(bytes16 => uint64[])",
        "numberOfBytes": "32",
        "value": "t_array(t_uint64)dyn_storage"
      },
      "t_mapping(t_bytes16,t_mapping(t_uint16,t_uint256))": {
        "encoding": "mapping",
        "key": "t_bytes16",
        "label": "mapping(bytes16 => mapping(uint16 => uint256))",
        "numberOfBytes": "32",
        "value": "t_mapping(t_uint16,t_uint256)"
      },
      "t_mapping(t_bytes16,t_uint256)": {
        "encoding": "mapping",
        "key": "t_bytes16",
        "label": "mapping(bytes16 => uint256)",
        "numberOfBytes": "32",
        "value": "t_uint256"
      },
      "t_mapping(t_uint16,t_uint256)": {
        "encoding": "mapping",
        "key": "t_uint16",
        "label": "mapping(uint16 => uint256)",
        "numberOfBytes": "32",
        "value": "t_uint256"
      },
      "t_mapping(t_uint256,t_address)": {
        "encoding": "mapping",
        "key": "t_uint256",
        "label": "mapping(uint256 => address)",
        "numberOfBytes": "32",
        "value": "t_address"
      },
      "t_string_storage": {
        "encoding": "bytes",
        "label": "string",
        "numberOfBytes": "32"
      },
      "t_struct(Bet)11985_storage": {
        "encoding": "inplace",
        "label": "struct Bet",
        "members": [
          {
            "astId": 11972,
            "contract": "contracts/Market.sol:Market",
            "label": "propositionId",
            "offset": 0,
            "slot": "0",
            "type": "t_bytes16"
          },
          {
            "astId": 11974,
            "contract": "contracts/Market.sol:Market",
            "label": "marketId",
            "offset": 16,
            "slot": "0",
            "type": "t_bytes16"
          },
          {
            "astId": 11976,
            "contract": "contracts/Market.sol:Market",
            "label": "amount",
            "offset": 0,
            "slot": "1",
            "type": "t_uint256"
          },
          {
            "astId": 11978,
            "contract": "contracts/Market.sol:Market",
            "label": "payout",
            "offset": 0,
            "slot": "2",
            "type": "t_uint256"
          },
          {
            "astId": 11980,
            "contract": "contracts/Market.sol:Market",
            "label": "payoutDate",
            "offset": 0,
            "slot": "3",
            "type": "t_uint256"
          },
          {
            "astId": 11982,
            "contract": "contracts/Market.sol:Market",
            "label": "created",
            "offset": 0,
            "slot": "4",
            "type": "t_uint256"
          },
          {
            "astId": 11984,
            "contract": "contracts/Market.sol:Market",
            "label": "settled",
            "offset": 0,
            "slot": "5",
            "type": "t_bool"
          }
        ],
        "numberOfBytes": "192"
      },
      "t_uint16": {
        "encoding": "inplace",
        "label": "uint16",
        "numberOfBytes": "2"
      },
      "t_uint256": {
        "encoding": "inplace",
        "label": "uint256",
        "numberOfBytes": "32"
      },
      "t_uint64": {
        "encoding": "inplace",
        "label": "uint64",
        "numberOfBytes": "8"
      }
    }
  }
}