{
  "address": "0x4bd5f89E7D57B62AaeeB3767764F23017cdc4A1E",
  "abi": [
    {
      "inputs": [
        {
          "internalType": "contract IERC20Metadata",
          "name": "asset_",
          "type": "address"
        },
        {
          "internalType": "uint256",
          "name": "lockDuration_",
          "type": "uint256"
        }
      ],
      "stateMutability": "nonpayable",
      "type": "constructor"
    },
    {
      "anonymous": false,
      "inputs": [
        {
          "indexed": true,
          "internalType": "address",
          "name": "owner",
          "type": "address"
        },
        {
          "indexed": true,
          "internalType": "address",
          "name": "spender",
          "type": "address"
        },
        {
          "indexed": false,
          "internalType": "uint256",
          "name": "value",
          "type": "uint256"
        }
      ],
      "name": "Approval",
      "type": "event"
    },
    {
      "anonymous": false,
      "inputs": [
        {
          "indexed": true,
          "internalType": "address",
          "name": "sender",
          "type": "address"
        },
        {
          "indexed": true,
          "internalType": "address",
          "name": "owner",
          "type": "address"
        },
        {
          "indexed": false,
          "internalType": "uint256",
          "name": "assets",
          "type": "uint256"
        },
        {
          "indexed": false,
          "internalType": "uint256",
          "name": "shares",
          "type": "uint256"
        }
      ],
      "name": "Deposit",
      "type": "event"
    },
    {
      "anonymous": false,
      "inputs": [
        {
          "indexed": true,
          "internalType": "address",
          "name": "previousOwner",
          "type": "address"
        },
        {
          "indexed": true,
          "internalType": "address",
          "name": "newOwner",
          "type": "address"
        }
      ],
      "name": "OwnershipTransferred",
      "type": "event"
    },
    {
      "anonymous": false,
      "inputs": [
        {
          "indexed": true,
          "internalType": "address",
          "name": "from",
          "type": "address"
        },
        {
          "indexed": true,
          "internalType": "address",
          "name": "to",
          "type": "address"
        },
        {
          "indexed": false,
          "internalType": "uint256",
          "name": "value",
          "type": "uint256"
        }
      ],
      "name": "Transfer",
      "type": "event"
    },
    {
      "anonymous": false,
      "inputs": [
        {
          "indexed": true,
          "internalType": "address",
          "name": "sender",
          "type": "address"
        },
        {
          "indexed": true,
          "internalType": "address",
          "name": "receiver",
          "type": "address"
        },
        {
          "indexed": true,
          "internalType": "address",
          "name": "owner",
          "type": "address"
        },
        {
          "indexed": false,
          "internalType": "uint256",
          "name": "assets",
          "type": "uint256"
        },
        {
          "indexed": false,
          "internalType": "uint256",
          "name": "shares",
          "type": "uint256"
        }
      ],
      "name": "Withdraw",
      "type": "event"
    },
    {
      "inputs": [
        {
          "internalType": "address",
          "name": "owner",
          "type": "address"
        },
        {
          "internalType": "address",
          "name": "spender",
          "type": "address"
        }
      ],
      "name": "allowance",
      "outputs": [
        {
          "internalType": "uint256",
          "name": "",
          "type": "uint256"
        }
      ],
      "stateMutability": "view",
      "type": "function"
    },
    {
      "inputs": [
        {
          "internalType": "address",
          "name": "spender",
          "type": "address"
        },
        {
          "internalType": "uint256",
          "name": "amount",
          "type": "uint256"
        }
      ],
      "name": "approve",
      "outputs": [
        {
          "internalType": "bool",
          "name": "",
          "type": "bool"
        }
      ],
      "stateMutability": "nonpayable",
      "type": "function"
    },
    {
      "inputs": [],
      "name": "asset",
      "outputs": [
        {
          "internalType": "address",
          "name": "",
          "type": "address"
        }
      ],
      "stateMutability": "view",
      "type": "function"
    },
    {
      "inputs": [
        {
          "internalType": "address",
          "name": "account",
          "type": "address"
        }
      ],
      "name": "balanceOf",
      "outputs": [
        {
          "internalType": "uint256",
          "name": "",
          "type": "uint256"
        }
      ],
      "stateMutability": "view",
      "type": "function"
    },
    {
      "inputs": [
        {
          "internalType": "uint256",
          "name": "shares",
          "type": "uint256"
        }
      ],
      "name": "convertToAssets",
      "outputs": [
        {
          "internalType": "uint256",
          "name": "assets",
          "type": "uint256"
        }
      ],
      "stateMutability": "view",
      "type": "function"
    },
    {
      "inputs": [
        {
          "internalType": "uint256",
          "name": "assets",
          "type": "uint256"
        }
      ],
      "name": "convertToShares",
      "outputs": [
        {
          "internalType": "uint256",
          "name": "shares",
          "type": "uint256"
        }
      ],
      "stateMutability": "view",
      "type": "function"
    },
    {
      "inputs": [],
      "name": "decimals",
      "outputs": [
        {
          "internalType": "uint8",
          "name": "",
          "type": "uint8"
        }
      ],
      "stateMutability": "view",
      "type": "function"
    },
    {
      "inputs": [
        {
          "internalType": "address",
          "name": "spender",
          "type": "address"
        },
        {
          "internalType": "uint256",
          "name": "subtractedValue",
          "type": "uint256"
        }
      ],
      "name": "decreaseAllowance",
      "outputs": [
        {
          "internalType": "bool",
          "name": "",
          "type": "bool"
        }
      ],
      "stateMutability": "nonpayable",
      "type": "function"
    },
    {
      "inputs": [
        {
          "internalType": "uint256",
          "name": "assets",
          "type": "uint256"
        },
        {
          "internalType": "address",
          "name": "receiver",
          "type": "address"
        }
      ],
      "name": "deposit",
      "outputs": [
        {
          "internalType": "uint256",
          "name": "",
          "type": "uint256"
        }
      ],
      "stateMutability": "nonpayable",
      "type": "function"
    },
    {
      "inputs": [],
      "name": "getMarket",
      "outputs": [
        {
          "internalType": "address",
          "name": "",
          "type": "address"
        }
      ],
      "stateMutability": "view",
      "type": "function"
    },
    {
      "inputs": [],
      "name": "getMarketAllowance",
      "outputs": [
        {
          "internalType": "uint256",
          "name": "",
          "type": "uint256"
        }
      ],
      "stateMutability": "view",
      "type": "function"
    },
    {
      "inputs": [],
      "name": "getPerformance",
      "outputs": [
        {
          "internalType": "uint256",
          "name": "",
          "type": "uint256"
        }
      ],
      "stateMutability": "view",
      "type": "function"
    },
    {
      "inputs": [
        {
          "internalType": "address",
          "name": "spender",
          "type": "address"
        },
        {
          "internalType": "uint256",
          "name": "addedValue",
          "type": "uint256"
        }
      ],
      "name": "increaseAllowance",
      "outputs": [
        {
          "internalType": "bool",
          "name": "",
          "type": "bool"
        }
      ],
      "stateMutability": "nonpayable",
      "type": "function"
    },
    {
      "inputs": [],
      "name": "lockDuration",
      "outputs": [
        {
          "internalType": "uint256",
          "name": "",
          "type": "uint256"
        }
      ],
      "stateMutability": "view",
      "type": "function"
    },
    {
      "inputs": [
        {
          "internalType": "address",
          "name": "",
          "type": "address"
        }
      ],
      "name": "lockedTime",
      "outputs": [
        {
          "internalType": "uint256",
          "name": "",
          "type": "uint256"
        }
      ],
      "stateMutability": "view",
      "type": "function"
    },
    {
      "inputs": [
        {
          "internalType": "address",
          "name": "",
          "type": "address"
        }
      ],
      "name": "maxDeposit",
      "outputs": [
        {
          "internalType": "uint256",
          "name": "",
          "type": "uint256"
        }
      ],
      "stateMutability": "view",
      "type": "function"
    },
    {
      "inputs": [
        {
          "internalType": "address",
          "name": "",
          "type": "address"
        }
      ],
      "name": "maxMint",
      "outputs": [
        {
          "internalType": "uint256",
          "name": "",
          "type": "uint256"
        }
      ],
      "stateMutability": "view",
      "type": "function"
    },
    {
      "inputs": [
        {
          "internalType": "address",
          "name": "owner",
          "type": "address"
        }
      ],
      "name": "maxRedeem",
      "outputs": [
        {
          "internalType": "uint256",
          "name": "",
          "type": "uint256"
        }
      ],
      "stateMutability": "view",
      "type": "function"
    },
    {
      "inputs": [
        {
          "internalType": "address",
          "name": "owner",
          "type": "address"
        }
      ],
      "name": "maxWithdraw",
      "outputs": [
        {
          "internalType": "uint256",
          "name": "",
          "type": "uint256"
        }
      ],
      "stateMutability": "view",
      "type": "function"
    },
    {
      "inputs": [
        {
          "internalType": "uint256",
          "name": "shares",
          "type": "uint256"
        },
        {
          "internalType": "address",
          "name": "receiver",
          "type": "address"
        }
      ],
      "name": "mint",
      "outputs": [
        {
          "internalType": "uint256",
          "name": "",
          "type": "uint256"
        }
      ],
      "stateMutability": "nonpayable",
      "type": "function"
    },
    {
      "inputs": [],
      "name": "name",
      "outputs": [
        {
          "internalType": "string",
          "name": "",
          "type": "string"
        }
      ],
      "stateMutability": "view",
      "type": "function"
    },
    {
      "inputs": [],
      "name": "owner",
      "outputs": [
        {
          "internalType": "address",
          "name": "",
          "type": "address"
        }
      ],
      "stateMutability": "view",
      "type": "function"
    },
    {
      "inputs": [
        {
          "internalType": "uint256",
          "name": "assets",
          "type": "uint256"
        }
      ],
      "name": "previewDeposit",
      "outputs": [
        {
          "internalType": "uint256",
          "name": "",
          "type": "uint256"
        }
      ],
      "stateMutability": "view",
      "type": "function"
    },
    {
      "inputs": [
        {
          "internalType": "uint256",
          "name": "shares",
          "type": "uint256"
        }
      ],
      "name": "previewMint",
      "outputs": [
        {
          "internalType": "uint256",
          "name": "",
          "type": "uint256"
        }
      ],
      "stateMutability": "view",
      "type": "function"
    },
    {
      "inputs": [
        {
          "internalType": "uint256",
          "name": "shares",
          "type": "uint256"
        }
      ],
      "name": "previewRedeem",
      "outputs": [
        {
          "internalType": "uint256",
          "name": "",
          "type": "uint256"
        }
      ],
      "stateMutability": "view",
      "type": "function"
    },
    {
      "inputs": [
        {
          "internalType": "uint256",
          "name": "assets",
          "type": "uint256"
        }
      ],
      "name": "previewWithdraw",
      "outputs": [
        {
          "internalType": "uint256",
          "name": "",
          "type": "uint256"
        }
      ],
      "stateMutability": "view",
      "type": "function"
    },
    {
      "inputs": [
        {
          "internalType": "uint256",
          "name": "shares",
          "type": "uint256"
        },
        {
          "internalType": "address",
          "name": "receiver",
          "type": "address"
        },
        {
          "internalType": "address",
          "name": "owner",
          "type": "address"
        }
      ],
      "name": "redeem",
      "outputs": [
        {
          "internalType": "uint256",
          "name": "",
          "type": "uint256"
        }
      ],
      "stateMutability": "nonpayable",
      "type": "function"
    },
    {
      "inputs": [],
      "name": "renounceOwnership",
      "outputs": [],
      "stateMutability": "nonpayable",
      "type": "function"
    },
    {
      "inputs": [
        {
          "internalType": "address",
          "name": "market",
          "type": "address"
        },
        {
          "internalType": "uint256",
          "name": "max",
          "type": "uint256"
        }
      ],
      "name": "setMarket",
      "outputs": [],
      "stateMutability": "nonpayable",
      "type": "function"
    },
    {
      "inputs": [],
      "name": "symbol",
      "outputs": [
        {
          "internalType": "string",
          "name": "",
          "type": "string"
        }
      ],
      "stateMutability": "view",
      "type": "function"
    },
    {
      "inputs": [],
      "name": "totalAssets",
      "outputs": [
        {
          "internalType": "uint256",
          "name": "",
          "type": "uint256"
        }
      ],
      "stateMutability": "view",
      "type": "function"
    },
    {
      "inputs": [],
      "name": "totalAssetsLocked",
      "outputs": [
        {
          "internalType": "uint256",
          "name": "",
          "type": "uint256"
        }
      ],
      "stateMutability": "view",
      "type": "function"
    },
    {
      "inputs": [],
      "name": "totalSupply",
      "outputs": [
        {
          "internalType": "uint256",
          "name": "",
          "type": "uint256"
        }
      ],
      "stateMutability": "view",
      "type": "function"
    },
    {
      "inputs": [
        {
          "internalType": "address",
          "name": "to",
          "type": "address"
        },
        {
          "internalType": "uint256",
          "name": "amount",
          "type": "uint256"
        }
      ],
      "name": "transfer",
      "outputs": [
        {
          "internalType": "bool",
          "name": "",
          "type": "bool"
        }
      ],
      "stateMutability": "nonpayable",
      "type": "function"
    },
    {
      "inputs": [
        {
          "internalType": "address",
          "name": "from",
          "type": "address"
        },
        {
          "internalType": "address",
          "name": "to",
          "type": "address"
        },
        {
          "internalType": "uint256",
          "name": "amount",
          "type": "uint256"
        }
      ],
      "name": "transferFrom",
      "outputs": [
        {
          "internalType": "bool",
          "name": "",
          "type": "bool"
        }
      ],
      "stateMutability": "nonpayable",
      "type": "function"
    },
    {
      "inputs": [
        {
          "internalType": "address",
          "name": "newOwner",
          "type": "address"
        }
      ],
      "name": "transferOwnership",
      "outputs": [],
      "stateMutability": "nonpayable",
      "type": "function"
    },
    {
      "inputs": [
        {
          "internalType": "uint256",
          "name": "assets",
          "type": "uint256"
        },
        {
          "internalType": "address",
          "name": "receiver",
          "type": "address"
        },
        {
          "internalType": "address",
          "name": "owner",
          "type": "address"
        }
      ],
      "name": "withdraw",
      "outputs": [
        {
          "internalType": "uint256",
          "name": "",
          "type": "uint256"
        }
      ],
      "stateMutability": "nonpayable",
      "type": "function"
    }
  ],
  "transactionHash": "0x3630c6047db574a8745391dfd367d80ec6d83399f8edb26fcf42b1280c9da85f",
  "args": [
    "0xFF970A61A04b1cA14834A43f5dE4533eBDDB5CC8",
    "1800"
  ],
  "numDeployments": 1,
  "solcInputHash": "ed5032941ea139426309977127f188cb",
  "bytecode": "0x60e06040523480156200001157600080fd5b50604051620023fd380380620023fd83398101604081905262000034916200037b565b818080826001600160a01b03166306fdde036040518163ffffffff1660e01b8152600401600060405180830381865afa15801562000076573d6000803e3d6000fd5b505050506040513d6000823e601f3d908101601f19168201604052620000a0919081019062000400565b604051602001620000b29190620004b8565b604051602081830303815290604052836001600160a01b03166395d89b416040518163ffffffff1660e01b8152600401600060405180830381865afa15801562000100573d6000803e3d6000fd5b505050506040513d6000823e601f3d908101601f191682016040526200012a919081019062000400565b6040516020016200013c9190620004e5565b60408051601f1981840301815291905260036200015a8382620005a0565b506004620001698282620005a0565b50505060008062000180836200023f60201b60201c565b9150915081620001a5576200019f6200032460201b62000c911760201c565b620001a7565b805b60ff1660a05250506001600160a01b031660805250620001c73362000329565b6001600160a01b038116620002225760405162461bcd60e51b815260206004820152601d60248201527f556e6465726c79696e67206164647265737320697320696e76616c6964000000604482015260640160405180910390fd5b50600780546001600160a01b0319163017905560c05250620006a4565b60408051600481526024810182526020810180516001600160e01b031663313ce56760e01b17905290516000918291829182916001600160a01b0387169162000288916200066c565b600060405180830381855afa9150503d8060008114620002c5576040519150601f19603f3d011682016040523d82523d6000602084013e620002ca565b606091505b5091509150818015620002df57506020815110155b156200031757600081806020019051810190620002fd91906200068a565b905060ff811162000315576001969095509350505050565b505b5060009485945092505050565b601290565b600580546001600160a01b038381166001600160a01b0319831681179093556040519116919082907f8be0079c531659141344cd1fd0a4f28419497f9722a3daafe3b4186f6b6457e090600090a35050565b600080604083850312156200038f57600080fd5b82516001600160a01b0381168114620003a757600080fd5b6020939093015192949293505050565b634e487b7160e01b600052604160045260246000fd5b60005b83811015620003ea578181015183820152602001620003d0565b83811115620003fa576000848401525b50505050565b6000602082840312156200041357600080fd5b81516001600160401b03808211156200042b57600080fd5b818401915084601f8301126200044057600080fd5b815181811115620004555762000455620003b7565b604051601f8201601f19908116603f01168101908382118183101715620004805762000480620003b7565b816040528281528760208487010111156200049a57600080fd5b620004ad836020830160208801620003cd565b979650505050505050565b6202426160ed1b815260008251620004d8816003850160208701620003cd565b9190910160030192915050565b61121360f21b81526000825162000504816002850160208701620003cd565b9190910160020192915050565b600181811c908216806200052657607f821691505b6020821081036200054757634e487b7160e01b600052602260045260246000fd5b50919050565b601f8211156200059b57600081815260208120601f850160051c81016020861015620005765750805b601f850160051c820191505b81811015620005975782815560010162000582565b5050505b505050565b81516001600160401b03811115620005bc57620005bc620003b7565b620005d481620005cd845462000511565b846200054d565b602080601f8311600181146200060c5760008415620005f35750858301515b600019600386901b1c1916600185901b17855562000597565b600085815260208120601f198616915b828110156200063d578886015182559484019460019091019084016200061c565b50858210156200065c5787850151600019600388901b60f8161c191681555b5050505050600190811b01905550565b6000825162000680818460208701620003cd565b9190910192915050565b6000602082840312156200069d57600080fd5b5051919050565b60805160a05160c051611cff620006fe6000396000818161024c015261108d015260006102f60152600081816103420152818161051d0152818161081a015281816109b80152818161136201526114220152611cff6000f3fe608060405234801561001057600080fd5b50600436106102275760003560e01c8063715018a611610130578063b460af94116100b8578063d905777e1161007c578063d905777e146104cf578063dd62ed3e146104e2578063ef8b30f7146104a9578063f1be1679146104f5578063f2fde38b1461050657600080fd5b8063b460af941461046e578063ba08765214610481578063c63d75b614610494578063c6e6f592146104a9578063ce96cb77146104bc57600080fd5b8063a3947323116100ff578063a39473231461041a578063a457c2d71461042d578063a9059cbb14610440578063b15031fa14610453578063b3d7f6b91461045b57600080fd5b8063715018a6146103e45780638da5cb5b146103ee57806394bf804d146103ff57806395d89b411461041257600080fd5b8063313ce567116101b3578063402d267d11610182578063402d267d1461038d57806342de4e9c146103a05780634cdad506146102835780636e553f65146103a857806370a08231146103bb57600080fd5b8063313ce567146102ef5780633266fb051461032057806338d52e0f14610340578063395093511461037a57600080fd5b8063095ea7b3116101fa578063095ea7b3146102965780630a28a477146102b95780631738e42d146102cc57806318160ddd146102d457806323b872dd146102dc57600080fd5b806301e1d1141461022c578063045544431461024757806306fdde031461026e57806307a2d13a14610283575b600080fd5b610234610519565b6040519081526020015b60405180910390f35b6102347f000000000000000000000000000000000000000000000000000000000000000081565b6102766105ae565b60405161023e9190611a0b565b610234610291366004611a3e565b610640565b6102a96102a4366004611a73565b610653565b604051901515815260200161023e565b6102346102c7366004611a3e565b61066b565b610234610678565b600254610234565b6102a96102ea366004611a9d565b6106c2565b60405160ff7f000000000000000000000000000000000000000000000000000000000000000016815260200161023e565b61023461032e366004611ad9565b60086020526000908152604090205481565b7f00000000000000000000000000000000000000000000000000000000000000005b6040516001600160a01b03909116815260200161023e565b6102a9610388366004611a73565b6106e8565b61023461039b366004611ad9565b61070a565b610234610728565b6102346103b6366004611af4565b610732565b6102346103c9366004611ad9565b6001600160a01b031660009081526020819052604090205490565b6103ec610750565b005b6005546001600160a01b0316610362565b61023461040d366004611af4565b610764565b61027661078d565b6103ec610428366004611a73565b61079c565b6102a961043b366004611a73565b6108b4565b6102a961044e366004611a73565b61093a565b610234610948565b610234610469366004611a3e565b610a6e565b61023461047c366004611b20565b610a7b565b61023461048f366004611b20565b610af7565b6102346104a2366004611ad9565b5060001990565b6102346104b7366004611a3e565b610b6b565b6102346104ca366004611ad9565b610b78565b6102346104dd366004611ad9565b610b9c565b6102346104f0366004611b5c565b610bed565b6006546001600160a01b0316610362565b6103ec610514366004611ad9565b610c18565b60007f00000000000000000000000000000000000000000000000000000000000000006007546040516370a0823160e01b81526001600160a01b0391821660048201529116906370a0823190602401602060405180830381865afa158015610585573d6000803e3d6000fd5b505050506040513d601f19601f820116820180604052508101906105a99190611b86565b905090565b6060600380546105bd90611b9f565b80601f01602080910402602001604051908101604052809291908181526020018280546105e990611b9f565b80156106365780601f1061060b57610100808354040283529160200191610636565b820191906000526020600020905b81548152906001019060200180831161061957829003601f168201915b5050505050905090565b600061064d826000610c96565b92915050565b600033610661818585610cc9565b5060019392505050565b600061064d826001610ded565b60065460408051638ac6d21760e01b815290516000926001600160a01b031691638ac6d2179160048083019260209291908290030181865afa158015610585573d6000803e3d6000fd5b6000336106d0858285610e1f565b6106db858585610e99565b60019150505b9392505050565b6000336106618185856106fb8383610bed565b6107059190611bef565b610cc9565b6000610714610f15565b61071f57600061064d565b60001992915050565b60006105a9610f2f565b60006001600160a01b038216610746573391505b6106e18383610f69565b610758610fdc565b6107626000611036565b565b6000610774565b60405180910390fd5b600061077f84610a6e565b90506106e133848387611088565b6060600480546105bd90611b9f565b6107a4610fdc565b6006546001600160a01b0316156107fd5760405162461bcd60e51b815260206004820152601d60248201527f7365744d61726b65743a204d61726b657420616c726561647920736574000000604482015260640161076b565b600680546001600160a01b0319166001600160a01b0384161790557f000000000000000000000000000000000000000000000000000000000000000060065460405163095ea7b360e01b81526001600160a01b0391821660048201526024810184905291169063095ea7b3906044016020604051808303816000875af115801561088b573d6000803e3d6000fd5b505050506040513d601f19601f820116820180604052508101906108af9190611c07565b505050565b600033816108c28286610bed565b9050838110156109225760405162461bcd60e51b815260206004820152602560248201527f45524332303a2064656372656173656420616c6c6f77616e63652062656c6f77604482015264207a65726f60d81b606482015260840161076b565b61092f8286868403610cc9565b506001949350505050565b600033610661818585610e99565b6006546000906001600160a01b03166109b45760405162461bcd60e51b815260206004820152602860248201527f6465706f7369743a204e6f7420616c6c6f77656420756e74696c206d61726b656044820152671d081a5cc81cd95d60c21b606482015260840161076b565b60007f0000000000000000000000000000000000000000000000000000000000000000600754600654604051636eb1769f60e11b81526001600160a01b039283166004820152908216602482015291169063dd62ed3e90604401602060405180830381865afa158015610a2b573d6000803e3d6000fd5b505050506040513d601f19601f82011682018060405250810190610a4f9190611b86565b9050610a59610519565b8111156105a957610a68610519565b91505090565b600061064d826001610c96565b6000610a8682610b78565b841115610ad55760405162461bcd60e51b815260206004820152601f60248201527f455243343632363a207769746864726177206d6f7265207468616e206d617800604482015260640161076b565b6000610ae08561066b565b9050610aef33858588856110d7565b949350505050565b6000610b0282610b9c565b841115610b515760405162461bcd60e51b815260206004820152601d60248201527f455243343632363a2072656465656d206d6f7265207468616e206d6178000000604482015260640161076b565b6000610b5c85610640565b9050610aef33858584896110d7565b600061064d826000610ded565b6001600160a01b03811660009081526020819052604081205461064d906000610c96565b6000610ba6610519565b600003610bb557506000919050565b6001600160a01b03821660009081526020819052604081205490610bd7610519565b610be19083611c3f565b9050610aef8183611c61565b6001600160a01b03918216600090815260016020908152604080832093909416825291909152205490565b610c20610fdc565b6001600160a01b038116610c855760405162461bcd60e51b815260206004820152602660248201527f4f776e61626c653a206e6577206f776e657220697320746865207a65726f206160448201526564647265737360d01b606482015260840161076b565b610c8e81611036565b50565b601290565b600080610ca260025490565b90508015610cc357610cbe610cb5610519565b8590838661115c565b610aef565b83610aef565b6001600160a01b038316610d2b5760405162461bcd60e51b8152602060048201526024808201527f45524332303a20617070726f76652066726f6d20746865207a65726f206164646044820152637265737360e01b606482015260840161076b565b6001600160a01b038216610d8c5760405162461bcd60e51b815260206004820152602260248201527f45524332303a20617070726f766520746f20746865207a65726f206164647265604482015261737360f01b606482015260840161076b565b6001600160a01b0383811660008181526001602090815260408083209487168084529482529182902085905590518481527f8c5be1e5ebec7d5bd14f71427d1e84f3dd0314c0f7b2291e5b200ac8c7c3b925910160405180910390a3505050565b600080610df960025490565b9050831580610e06575080155b610cc357610cbe81610e16610519565b8691908661115c565b6000610e2b8484610bed565b90506000198114610e935781811015610e865760405162461bcd60e51b815260206004820152601d60248201527f45524332303a20696e73756666696369656e7420616c6c6f77616e6365000000604482015260640161076b565b610e938484848403610cc9565b50505050565b6001600160a01b0383166000908152600860205260409020544211610f0a5760405162461bcd60e51b815260206004820152602160248201527f5f7472616e736665723a204c6f636b65642074696d65206e6f742070617373656044820152601960fa1b606482015260840161076b565b6108af8383836111b9565b600080610f20610519565b11806105a95750506002541590565b600080610f3a610519565b90508015610f615780610f4c60025490565b610f57906064611c78565b610a689190611c3f565b600091505090565b6000610f748261070a565b831115610fc35760405162461bcd60e51b815260206004820152601e60248201527f455243343632363a206465706f736974206d6f7265207468616e206d61780000604482015260640161076b565b6000610fce84610b6b565b90506106e133848684611088565b6005546001600160a01b031633146107625760405162461bcd60e51b815260206004820181905260248201527f4f776e61626c653a2063616c6c6572206973206e6f7420746865206f776e6572604482015260640161076b565b600580546001600160a01b038381166001600160a01b0319831681179093556040519116919082907f8be0079c531659141344cd1fd0a4f28419497f9722a3daafe3b4186f6b6457e090600090a35050565b6110b27f000000000000000000000000000000000000000000000000000000000000000042611bef565b6001600160a01b038416600090815260086020526040902055610e938484848461135d565b6001600160a01b03831660009081526008602052604090205442116111485760405162461bcd60e51b815260206004820152602160248201527f5f77697468647261773a204c6f636b65642074696d65206e6f742070617373656044820152601960fa1b606482015260840161076b565b61115585858585856113ef565b5050505050565b60008061116a8686866114af565b9050600183600281111561118057611180611c97565b14801561119d57506000848061119857611198611c29565b868809115b156111b0576111ad600182611bef565b90505b95945050505050565b6001600160a01b03831661121d5760405162461bcd60e51b815260206004820152602560248201527f45524332303a207472616e736665722066726f6d20746865207a65726f206164604482015264647265737360d81b606482015260840161076b565b6001600160a01b03821661127f5760405162461bcd60e51b815260206004820152602360248201527f45524332303a207472616e7366657220746f20746865207a65726f206164647260448201526265737360e81b606482015260840161076b565b6001600160a01b038316600090815260208190526040902054818110156112f75760405162461bcd60e51b815260206004820152602660248201527f45524332303a207472616e7366657220616d6f756e7420657863656564732062604482015265616c616e636560d01b606482015260840161076b565b6001600160a01b03848116600081815260208181526040808320878703905593871680835291849020805487019055925185815290927fddf252ad1be2c89b69c2b068fc378daa952ba7f163c4a11628f55a4df523b3ef910160405180910390a3610e93565b6113897f000000000000000000000000000000000000000000000000000000000000000085308561155e565b61139383826115c9565b826001600160a01b0316846001600160a01b03167fdcbc1c05240f31ff3ad067ef1ee35ce4997762752e3a095284754544f4c709d784846040516113e1929190918252602082015260400190565b60405180910390a350505050565b826001600160a01b0316856001600160a01b03161461141357611413838683610e1f565b61141d8382611688565b6114487f000000000000000000000000000000000000000000000000000000000000000085846117ba565b826001600160a01b0316846001600160a01b0316866001600160a01b03167ffbde797d201c681b91056529119e0b02407c7bb96a4a2c75c01fc9667232c8db85856040516114a0929190918252602082015260400190565b60405180910390a45050505050565b60008080600019858709858702925082811083820303915050806000036114e9578382816114df576114df611c29565b04925050506106e1565b8084116114f557600080fd5b60008486880960026001871981018816978890046003810283188082028403028082028403028082028403028082028403028082028403029081029092039091026000889003889004909101858311909403939093029303949094049190911702949350505050565b6040516001600160a01b0380851660248301528316604482015260648101829052610e939085906323b872dd60e01b906084015b60408051601f198184030181529190526020810180516001600160e01b03166001600160e01b0319909316929092179091526117ea565b6001600160a01b03821661161f5760405162461bcd60e51b815260206004820152601f60248201527f45524332303a206d696e7420746f20746865207a65726f206164647265737300604482015260640161076b565b80600260008282546116319190611bef565b90915550506001600160a01b038216600081815260208181526040808320805486019055518481527fddf252ad1be2c89b69c2b068fc378daa952ba7f163c4a11628f55a4df523b3ef910160405180910390a35050565b6001600160a01b0382166116e85760405162461bcd60e51b815260206004820152602160248201527f45524332303a206275726e2066726f6d20746865207a65726f206164647265736044820152607360f81b606482015260840161076b565b6001600160a01b0382166000908152602081905260409020548181101561175c5760405162461bcd60e51b815260206004820152602260248201527f45524332303a206275726e20616d6f756e7420657863656564732062616c616e604482015261636560f01b606482015260840161076b565b6001600160a01b0383166000818152602081815260408083208686039055600280548790039055518581529192917fddf252ad1be2c89b69c2b068fc378daa952ba7f163c4a11628f55a4df523b3ef910160405180910390a3505050565b6040516001600160a01b0383166024820152604481018290526108af90849063a9059cbb60e01b90606401611592565b600061183f826040518060400160405280602081526020017f5361666545524332303a206c6f772d6c6576656c2063616c6c206661696c6564815250856001600160a01b03166118bc9092919063ffffffff16565b8051909150156108af578080602001905181019061185d9190611c07565b6108af5760405162461bcd60e51b815260206004820152602a60248201527f5361666545524332303a204552433230206f7065726174696f6e20646964206e6044820152691bdd081cdd58d8d9595960b21b606482015260840161076b565b6060610aef848460008585600080866001600160a01b031685876040516118e39190611cad565b60006040518083038185875af1925050503d8060008114611920576040519150601f19603f3d011682016040523d82523d6000602084013e611925565b606091505b509150915061193687838387611941565b979650505050505050565b606083156119b05782516000036119a9576001600160a01b0385163b6119a95760405162461bcd60e51b815260206004820152601d60248201527f416464726573733a2063616c6c20746f206e6f6e2d636f6e7472616374000000604482015260640161076b565b5081610aef565b610aef83838151156119c55781518083602001fd5b8060405162461bcd60e51b815260040161076b9190611a0b565b60005b838110156119fa5781810151838201526020016119e2565b83811115610e935750506000910152565b6020815260008251806020840152611a2a8160408501602087016119df565b601f01601f19169190910160400192915050565b600060208284031215611a5057600080fd5b5035919050565b80356001600160a01b0381168114611a6e57600080fd5b919050565b60008060408385031215611a8657600080fd5b611a8f83611a57565b946020939093013593505050565b600080600060608486031215611ab257600080fd5b611abb84611a57565b9250611ac960208501611a57565b9150604084013590509250925092565b600060208284031215611aeb57600080fd5b6106e182611a57565b60008060408385031215611b0757600080fd5b82359150611b1760208401611a57565b90509250929050565b600080600060608486031215611b3557600080fd5b83359250611b4560208501611a57565b9150611b5360408501611a57565b90509250925092565b60008060408385031215611b6f57600080fd5b611b7883611a57565b9150611b1760208401611a57565b600060208284031215611b9857600080fd5b5051919050565b600181811c90821680611bb357607f821691505b602082108103611bd357634e487b7160e01b600052602260045260246000fd5b50919050565b634e487b7160e01b600052601160045260246000fd5b60008219821115611c0257611c02611bd9565b500190565b600060208284031215611c1957600080fd5b815180151581146106e157600080fd5b634e487b7160e01b600052601260045260246000fd5b600082611c5c57634e487b7160e01b600052601260045260246000fd5b500490565b600082821015611c7357611c73611bd9565b500390565b6000816000190483118215151615611c9257611c92611bd9565b500290565b634e487b7160e01b600052602160045260246000fd5b60008251611cbf8184602087016119df565b919091019291505056fea2646970667358221220f5ffc14a671c82e41362e67d5b2a1d9b14f841237627b3eaaef4481e9db6aa5f64736f6c634300080f0033",
  "devdoc": {
    "kind": "dev",
    "methods": {
      "allowance(address,address)": {
        "details": "See {IERC20-allowance}."
      },
      "approve(address,uint256)": {
        "details": "See {IERC20-approve}. NOTE: If `amount` is the maximum `uint256`, the allowance is not updated on `transferFrom`. This is semantically equivalent to an infinite approval. Requirements: - `spender` cannot be the zero address."
      },
      "asset()": {
        "details": "See {IERC4626-asset}. "
      },
      "balanceOf(address)": {
        "details": "See {IERC20-balanceOf}."
      },
      "convertToAssets(uint256)": {
        "details": "See {IERC4626-convertToAssets}. "
      },
      "convertToShares(uint256)": {
        "details": "See {IERC4626-convertToShares}. "
      },
      "decimals()": {
        "details": "Decimals are read from the underlying asset in the constructor and cached. If this fails (e.g., the asset has not been created yet), the cached value is set to a default obtained by `super.decimals()` (which depends on inheritance but is most likely 18). Override this function in order to set a guaranteed hardcoded value. See {IERC20Metadata-decimals}."
      },
      "decreaseAllowance(address,uint256)": {
        "details": "Atomically decreases the allowance granted to `spender` by the caller. This is an alternative to {approve} that can be used as a mitigation for problems described in {IERC20-approve}. Emits an {Approval} event indicating the updated allowance. Requirements: - `spender` cannot be the zero address. - `spender` must have allowance for the caller of at least `subtractedValue`."
      },
      "deposit(uint256,address)": {
        "details": "See {IERC4626-deposit}. "
      },
      "increaseAllowance(address,uint256)": {
        "details": "Atomically increases the allowance granted to `spender` by the caller. This is an alternative to {approve} that can be used as a mitigation for problems described in {IERC20-approve}. Emits an {Approval} event indicating the updated allowance. Requirements: - `spender` cannot be the zero address."
      },
      "maxDeposit(address)": {
        "details": "See {IERC4626-maxDeposit}. "
      },
      "maxMint(address)": {
        "details": "See {IERC4626-maxMint}. "
      },
      "maxRedeem(address)": {
        "details": "See {IERC4626-maxRedeem}. "
      },
      "maxWithdraw(address)": {
        "details": "See {IERC4626-maxWithdraw}. "
      },
      "mint(uint256,address)": {
        "details": "See {IERC4626-mint}. As opposed to {deposit}, minting is allowed even if the vault is in a state where the price of a share is zero. In this case, the shares will be minted without requiring any assets to be deposited."
      },
      "name()": {
        "details": "Returns the name of the token."
      },
      "owner()": {
        "details": "Returns the address of the current owner."
      },
      "previewDeposit(uint256)": {
        "details": "See {IERC4626-previewDeposit}. "
      },
      "previewMint(uint256)": {
        "details": "See {IERC4626-previewMint}. "
      },
      "previewRedeem(uint256)": {
        "details": "See {IERC4626-previewRedeem}. "
      },
      "previewWithdraw(uint256)": {
        "details": "See {IERC4626-previewWithdraw}. "
      },
      "redeem(uint256,address,address)": {
        "details": "See {IERC4626-redeem}. "
      },
      "renounceOwnership()": {
        "details": "Leaves the contract without owner. It will not be possible to call `onlyOwner` functions anymore. Can only be called by the current owner. NOTE: Renouncing ownership will leave the contract without an owner, thereby removing any functionality that is only available to the owner."
      },
      "symbol()": {
        "details": "Returns the symbol of the token, usually a shorter version of the name."
      },
      "totalAssets()": {
        "details": "See {IERC4626-totalAssets}. "
      },
      "totalSupply()": {
        "details": "See {IERC20-totalSupply}."
      },
      "transfer(address,uint256)": {
        "details": "See {IERC20-transfer}. Requirements: - `to` cannot be the zero address. - the caller must have a balance of at least `amount`."
      },
      "transferFrom(address,address,uint256)": {
        "details": "See {IERC20-transferFrom}. Emits an {Approval} event indicating the updated allowance. This is not required by the EIP. See the note at the beginning of {ERC20}. NOTE: Does not update the allowance if the current allowance is the maximum `uint256`. Requirements: - `from` and `to` cannot be the zero address. - `from` must have a balance of at least `amount`. - the caller must have allowance for ``from``'s tokens of at least `amount`."
      },
      "transferOwnership(address)": {
        "details": "Transfers ownership of the contract to a new account (`newOwner`). Can only be called by the current owner."
      },
      "withdraw(uint256,address,address)": {
        "details": "See {IERC4626-withdraw}. "
      }
    },
    "version": 1
  },
  "userdoc": {
    "kind": "user",
    "methods": {},
    "version": 1
  },
  "storageLayout": {
    "storage": [
      {
        "astId": 3122,
        "contract": "contracts/VaultTimeLock.sol:VaultTimeLock",
        "label": "_balances",
        "offset": 0,
        "slot": "0",
        "type": "t_mapping(t_address,t_uint256)"
      },
      {
        "astId": 3128,
        "contract": "contracts/VaultTimeLock.sol:VaultTimeLock",
        "label": "_allowances",
        "offset": 0,
        "slot": "1",
        "type": "t_mapping(t_address,t_mapping(t_address,t_uint256))"
      },
      {
        "astId": 3130,
        "contract": "contracts/VaultTimeLock.sol:VaultTimeLock",
        "label": "_totalSupply",
        "offset": 0,
        "slot": "2",
        "type": "t_uint256"
      },
      {
        "astId": 3132,
        "contract": "contracts/VaultTimeLock.sol:VaultTimeLock",
        "label": "_name",
        "offset": 0,
        "slot": "3",
        "type": "t_string_storage"
      },
      {
        "astId": 3134,
        "contract": "contracts/VaultTimeLock.sol:VaultTimeLock",
        "label": "_symbol",
        "offset": 0,
        "slot": "4",
        "type": "t_string_storage"
      },
      {
        "astId": 2722,
        "contract": "contracts/VaultTimeLock.sol:VaultTimeLock",
        "label": "_owner",
        "offset": 0,
        "slot": "5",
        "type": "t_address"
      },
      {
        "astId": 14888,
        "contract": "contracts/VaultTimeLock.sol:VaultTimeLock",
        "label": "_market",
        "offset": 0,
        "slot": "6",
        "type": "t_address"
      },
      {
        "astId": 14890,
        "contract": "contracts/VaultTimeLock.sol:VaultTimeLock",
        "label": "_self",
        "offset": 0,
        "slot": "7",
        "type": "t_address"
      },
      {
        "astId": 15183,
        "contract": "contracts/VaultTimeLock.sol:VaultTimeLock",
        "label": "lockedTime",
        "offset": 0,
        "slot": "8",
        "type": "t_mapping(t_address,t_uint256)"
      }
    ],
    "types": {
      "t_address": {
        "encoding": "inplace",
        "label": "address",
        "numberOfBytes": "20"
      },
      "t_mapping(t_address,t_mapping(t_address,t_uint256))": {
        "encoding": "mapping",
        "key": "t_address",
        "label": "mapping(address => mapping(address => uint256))",
        "numberOfBytes": "32",
        "value": "t_mapping(t_address,t_uint256)"
      },
      "t_mapping(t_address,t_uint256)": {
        "encoding": "mapping",
        "key": "t_address",
        "label": "mapping(address => uint256)",
        "numberOfBytes": "32",
        "value": "t_uint256"
      },
      "t_string_storage": {
        "encoding": "bytes",
        "label": "string",
        "numberOfBytes": "32"
      },
      "t_uint256": {
        "encoding": "inplace",
        "label": "uint256",
        "numberOfBytes": "32"
      }
    }
  }
}