{
  "address": "0x48eE9d182fE8DE5757FAC09C82a71c8d025f864e",
  "abi": [
    {
      "inputs": [
        {
          "internalType": "contract IERC20Metadata",
          "name": "asset_",
          "type": "address"
        },
        {
          "internalType": "uint256",
          "name": "lockDuration_",
          "type": "uint256"
        }
      ],
      "stateMutability": "nonpayable",
      "type": "constructor"
    },
    {
      "anonymous": false,
      "inputs": [
        {
          "indexed": true,
          "internalType": "address",
          "name": "owner",
          "type": "address"
        },
        {
          "indexed": true,
          "internalType": "address",
          "name": "spender",
          "type": "address"
        },
        {
          "indexed": false,
          "internalType": "uint256",
          "name": "value",
          "type": "uint256"
        }
      ],
      "name": "Approval",
      "type": "event"
    },
    {
      "anonymous": false,
      "inputs": [
        {
          "indexed": true,
          "internalType": "address",
          "name": "sender",
          "type": "address"
        },
        {
          "indexed": true,
          "internalType": "address",
          "name": "owner",
          "type": "address"
        },
        {
          "indexed": false,
          "internalType": "uint256",
          "name": "assets",
          "type": "uint256"
        },
        {
          "indexed": false,
          "internalType": "uint256",
          "name": "shares",
          "type": "uint256"
        }
      ],
      "name": "Deposit",
      "type": "event"
    },
    {
      "anonymous": false,
      "inputs": [
        {
          "indexed": true,
          "internalType": "address",
          "name": "market",
          "type": "address"
        }
      ],
      "name": "MarketRemoved",
      "type": "event"
    },
    {
      "anonymous": false,
      "inputs": [
        {
          "indexed": true,
          "internalType": "address",
          "name": "market",
          "type": "address"
        },
        {
          "indexed": false,
          "internalType": "uint256",
          "name": "rate",
          "type": "uint256"
        }
      ],
      "name": "MarketSet",
      "type": "event"
    },
    {
      "anonymous": false,
      "inputs": [
        {
          "indexed": true,
          "internalType": "address",
          "name": "previousOwner",
          "type": "address"
        },
        {
          "indexed": true,
          "internalType": "address",
          "name": "newOwner",
          "type": "address"
        }
      ],
      "name": "OwnershipTransferred",
      "type": "event"
    },
    {
      "anonymous": false,
      "inputs": [
        {
          "indexed": true,
          "internalType": "address",
          "name": "from",
          "type": "address"
        },
        {
          "indexed": true,
          "internalType": "address",
          "name": "to",
          "type": "address"
        },
        {
          "indexed": false,
          "internalType": "uint256",
          "name": "value",
          "type": "uint256"
        }
      ],
      "name": "Transfer",
      "type": "event"
    },
    {
      "anonymous": false,
      "inputs": [
        {
          "indexed": true,
          "internalType": "address",
          "name": "sender",
          "type": "address"
        },
        {
          "indexed": true,
          "internalType": "address",
          "name": "receiver",
          "type": "address"
        },
        {
          "indexed": true,
          "internalType": "address",
          "name": "owner",
          "type": "address"
        },
        {
          "indexed": false,
          "internalType": "uint256",
          "name": "assets",
          "type": "uint256"
        },
        {
          "indexed": false,
          "internalType": "uint256",
          "name": "shares",
          "type": "uint256"
        }
      ],
      "name": "Withdraw",
      "type": "event"
    },
    {
      "inputs": [
        {
          "internalType": "address",
          "name": "owner",
          "type": "address"
        },
        {
          "internalType": "address",
          "name": "spender",
          "type": "address"
        }
      ],
      "name": "allowance",
      "outputs": [
        {
          "internalType": "uint256",
          "name": "",
          "type": "uint256"
        }
      ],
      "stateMutability": "view",
      "type": "function"
    },
    {
      "inputs": [
        {
          "internalType": "address",
          "name": "spender",
          "type": "address"
        },
        {
          "internalType": "uint256",
          "name": "amount",
          "type": "uint256"
        }
      ],
      "name": "approve",
      "outputs": [
        {
          "internalType": "bool",
          "name": "",
          "type": "bool"
        }
      ],
      "stateMutability": "nonpayable",
      "type": "function"
    },
    {
      "inputs": [],
      "name": "asset",
      "outputs": [
        {
          "internalType": "address",
          "name": "",
          "type": "address"
        }
      ],
      "stateMutability": "view",
      "type": "function"
    },
    {
      "inputs": [
        {
          "internalType": "address",
          "name": "account",
          "type": "address"
        }
      ],
      "name": "balanceOf",
      "outputs": [
        {
          "internalType": "uint256",
          "name": "",
          "type": "uint256"
        }
      ],
      "stateMutability": "view",
      "type": "function"
    },
    {
      "inputs": [
        {
          "internalType": "uint256",
          "name": "shares",
          "type": "uint256"
        }
      ],
      "name": "convertToAssets",
      "outputs": [
        {
          "internalType": "uint256",
          "name": "assets",
          "type": "uint256"
        }
      ],
      "stateMutability": "view",
      "type": "function"
    },
    {
      "inputs": [
        {
          "internalType": "uint256",
          "name": "assets",
          "type": "uint256"
        }
      ],
      "name": "convertToShares",
      "outputs": [
        {
          "internalType": "uint256",
          "name": "shares",
          "type": "uint256"
        }
      ],
      "stateMutability": "view",
      "type": "function"
    },
    {
      "inputs": [],
      "name": "decimals",
      "outputs": [
        {
          "internalType": "uint8",
          "name": "",
          "type": "uint8"
        }
      ],
      "stateMutability": "view",
      "type": "function"
    },
    {
      "inputs": [
        {
          "internalType": "address",
          "name": "spender",
          "type": "address"
        },
        {
          "internalType": "uint256",
          "name": "subtractedValue",
          "type": "uint256"
        }
      ],
      "name": "decreaseAllowance",
      "outputs": [
        {
          "internalType": "bool",
          "name": "",
          "type": "bool"
        }
      ],
      "stateMutability": "nonpayable",
      "type": "function"
    },
    {
      "inputs": [
        {
          "internalType": "uint256",
          "name": "assets",
          "type": "uint256"
        },
        {
          "internalType": "address",
          "name": "receiver",
          "type": "address"
        }
      ],
      "name": "deposit",
      "outputs": [
        {
          "internalType": "uint256",
          "name": "",
          "type": "uint256"
        }
      ],
      "stateMutability": "nonpayable",
      "type": "function"
    },
    {
      "inputs": [],
      "name": "getMarket",
      "outputs": [
        {
          "internalType": "address",
          "name": "",
          "type": "address"
        }
      ],
      "stateMutability": "view",
      "type": "function"
    },
    {
      "inputs": [],
      "name": "getMarketAllowance",
      "outputs": [
        {
          "internalType": "uint256",
          "name": "",
          "type": "uint256"
        }
      ],
      "stateMutability": "view",
      "type": "function"
    },
    {
      "inputs": [],
      "name": "getOwner",
      "outputs": [
        {
          "internalType": "address",
          "name": "",
          "type": "address"
        }
      ],
      "stateMutability": "view",
      "type": "function"
    },
    {
      "inputs": [],
      "name": "getPerformance",
      "outputs": [
        {
          "internalType": "uint256",
          "name": "",
          "type": "uint256"
        }
      ],
      "stateMutability": "view",
      "type": "function"
    },
    {
      "inputs": [],
      "name": "getRate",
      "outputs": [
        {
          "internalType": "uint256",
          "name": "",
          "type": "uint256"
        }
      ],
      "stateMutability": "view",
      "type": "function"
    },
    {
      "inputs": [
        {
          "internalType": "address",
          "name": "spender",
          "type": "address"
        },
        {
          "internalType": "uint256",
          "name": "addedValue",
          "type": "uint256"
        }
      ],
      "name": "increaseAllowance",
      "outputs": [
        {
          "internalType": "bool",
          "name": "",
          "type": "bool"
        }
      ],
      "stateMutability": "nonpayable",
      "type": "function"
    },
    {
      "inputs": [],
      "name": "lockDuration",
      "outputs": [
        {
          "internalType": "uint256",
          "name": "",
          "type": "uint256"
        }
      ],
      "stateMutability": "view",
      "type": "function"
    },
    {
      "inputs": [
        {
          "internalType": "address",
          "name": "",
          "type": "address"
        }
      ],
      "name": "lockedTime",
      "outputs": [
        {
          "internalType": "uint256",
          "name": "",
          "type": "uint256"
        }
      ],
      "stateMutability": "view",
      "type": "function"
    },
    {
      "inputs": [
        {
          "internalType": "address",
          "name": "",
          "type": "address"
        }
      ],
      "name": "maxDeposit",
      "outputs": [
        {
          "internalType": "uint256",
          "name": "",
          "type": "uint256"
        }
      ],
      "stateMutability": "view",
      "type": "function"
    },
    {
      "inputs": [
        {
          "internalType": "address",
          "name": "",
          "type": "address"
        }
      ],
      "name": "maxMint",
      "outputs": [
        {
          "internalType": "uint256",
          "name": "",
          "type": "uint256"
        }
      ],
      "stateMutability": "view",
      "type": "function"
    },
    {
      "inputs": [
        {
          "internalType": "address",
          "name": "owner",
          "type": "address"
        }
      ],
      "name": "maxRedeem",
      "outputs": [
        {
          "internalType": "uint256",
          "name": "",
          "type": "uint256"
        }
      ],
      "stateMutability": "view",
      "type": "function"
    },
    {
      "inputs": [
        {
          "internalType": "address",
          "name": "owner",
          "type": "address"
        }
      ],
      "name": "maxWithdraw",
      "outputs": [
        {
          "internalType": "uint256",
          "name": "",
          "type": "uint256"
        }
      ],
      "stateMutability": "view",
      "type": "function"
    },
    {
      "inputs": [
        {
          "internalType": "uint256",
          "name": "shares",
          "type": "uint256"
        },
        {
          "internalType": "address",
          "name": "receiver",
          "type": "address"
        }
      ],
      "name": "mint",
      "outputs": [
        {
          "internalType": "uint256",
          "name": "",
          "type": "uint256"
        }
      ],
      "stateMutability": "nonpayable",
      "type": "function"
    },
    {
      "inputs": [],
      "name": "name",
      "outputs": [
        {
          "internalType": "string",
          "name": "",
          "type": "string"
        }
      ],
      "stateMutability": "view",
      "type": "function"
    },
    {
      "inputs": [],
      "name": "owner",
      "outputs": [
        {
          "internalType": "address",
          "name": "",
          "type": "address"
        }
      ],
      "stateMutability": "view",
      "type": "function"
    },
    {
      "inputs": [
        {
          "internalType": "uint256",
          "name": "assets",
          "type": "uint256"
        }
      ],
      "name": "previewDeposit",
      "outputs": [
        {
          "internalType": "uint256",
          "name": "",
          "type": "uint256"
        }
      ],
      "stateMutability": "view",
      "type": "function"
    },
    {
      "inputs": [
        {
          "internalType": "uint256",
          "name": "shares",
          "type": "uint256"
        }
      ],
      "name": "previewMint",
      "outputs": [
        {
          "internalType": "uint256",
          "name": "",
          "type": "uint256"
        }
      ],
      "stateMutability": "view",
      "type": "function"
    },
    {
      "inputs": [
        {
          "internalType": "uint256",
          "name": "shares",
          "type": "uint256"
        }
      ],
      "name": "previewRedeem",
      "outputs": [
        {
          "internalType": "uint256",
          "name": "",
          "type": "uint256"
        }
      ],
      "stateMutability": "view",
      "type": "function"
    },
    {
      "inputs": [
        {
          "internalType": "uint256",
          "name": "assets",
          "type": "uint256"
        }
      ],
      "name": "previewWithdraw",
      "outputs": [
        {
          "internalType": "uint256",
          "name": "",
          "type": "uint256"
        }
      ],
      "stateMutability": "view",
      "type": "function"
    },
    {
      "inputs": [
        {
          "internalType": "uint256",
          "name": "shares",
          "type": "uint256"
        },
        {
          "internalType": "address",
          "name": "receiver",
          "type": "address"
        },
        {
          "internalType": "address",
          "name": "owner",
          "type": "address"
        }
      ],
      "name": "redeem",
      "outputs": [
        {
          "internalType": "uint256",
          "name": "",
          "type": "uint256"
        }
      ],
      "stateMutability": "nonpayable",
      "type": "function"
    },
    {
      "inputs": [],
      "name": "removeMarket",
      "outputs": [],
      "stateMutability": "nonpayable",
      "type": "function"
    },
    {
      "inputs": [],
      "name": "renounceOwnership",
      "outputs": [],
      "stateMutability": "nonpayable",
      "type": "function"
    },
    {
      "inputs": [
        {
          "internalType": "address",
          "name": "market",
          "type": "address"
        },
        {
          "internalType": "uint256",
          "name": "max",
          "type": "uint256"
        },
        {
          "internalType": "uint256",
          "name": "rate",
          "type": "uint256"
        }
      ],
      "name": "setMarket",
      "outputs": [],
      "stateMutability": "nonpayable",
      "type": "function"
    },
    {
      "inputs": [],
      "name": "symbol",
      "outputs": [
        {
          "internalType": "string",
          "name": "",
          "type": "string"
        }
      ],
      "stateMutability": "view",
      "type": "function"
    },
    {
      "inputs": [],
      "name": "totalAssets",
      "outputs": [
        {
          "internalType": "uint256",
          "name": "",
          "type": "uint256"
        }
      ],
      "stateMutability": "view",
      "type": "function"
    },
    {
      "inputs": [],
      "name": "totalAssetsLocked",
      "outputs": [
        {
          "internalType": "uint256",
          "name": "",
          "type": "uint256"
        }
      ],
      "stateMutability": "view",
      "type": "function"
    },
    {
      "inputs": [],
      "name": "totalSupply",
      "outputs": [
        {
          "internalType": "uint256",
          "name": "",
          "type": "uint256"
        }
      ],
      "stateMutability": "view",
      "type": "function"
    },
    {
      "inputs": [
        {
          "internalType": "address",
          "name": "to",
          "type": "address"
        },
        {
          "internalType": "uint256",
          "name": "amount",
          "type": "uint256"
        }
      ],
      "name": "transfer",
      "outputs": [
        {
          "internalType": "bool",
          "name": "",
          "type": "bool"
        }
      ],
      "stateMutability": "nonpayable",
      "type": "function"
    },
    {
      "inputs": [
        {
          "internalType": "address",
          "name": "from",
          "type": "address"
        },
        {
          "internalType": "address",
          "name": "to",
          "type": "address"
        },
        {
          "internalType": "uint256",
          "name": "amount",
          "type": "uint256"
        }
      ],
      "name": "transferFrom",
      "outputs": [
        {
          "internalType": "bool",
          "name": "",
          "type": "bool"
        }
      ],
      "stateMutability": "nonpayable",
      "type": "function"
    },
    {
      "inputs": [
        {
          "internalType": "address",
          "name": "newOwner",
          "type": "address"
        }
      ],
      "name": "transferOwnership",
      "outputs": [],
      "stateMutability": "nonpayable",
      "type": "function"
    },
    {
      "inputs": [
        {
          "internalType": "uint256",
          "name": "assets",
          "type": "uint256"
        },
        {
          "internalType": "address",
          "name": "receiver",
          "type": "address"
        },
        {
          "internalType": "address",
          "name": "owner",
          "type": "address"
        }
      ],
      "name": "withdraw",
      "outputs": [
        {
          "internalType": "uint256",
          "name": "",
          "type": "uint256"
        }
      ],
      "stateMutability": "nonpayable",
      "type": "function"
    }
  ],
  "transactionHash": "0x632b5e9399c02572bb9dca29fde945f66c15d3bae2ee1e73693b33d058a268b4",
  "args": [
    "0x8616E8EA83f048ab9A5eC513c9412Dd2993bcE3F",
    "1800"
  ],
  "numDeployments": 1,
  "solcInputHash": "bd91955783a505b7a1c38e89c27f1506",
  "bytecode": "0x60e06040523480156200001157600080fd5b506040516200268e3803806200268e83398101604081905262000034916200037b565b818080826001600160a01b03166306fdde036040518163ffffffff1660e01b8152600401600060405180830381865afa15801562000076573d6000803e3d6000fd5b505050506040513d6000823e601f3d908101601f19168201604052620000a0919081019062000400565b604051602001620000b29190620004b8565b604051602081830303815290604052836001600160a01b03166395d89b416040518163ffffffff1660e01b8152600401600060405180830381865afa15801562000100573d6000803e3d6000fd5b505050506040513d6000823e601f3d908101601f191682016040526200012a919081019062000400565b6040516020016200013c9190620004e5565b60408051601f1981840301815291905260036200015a8382620005a0565b506004620001698282620005a0565b50505060008062000180836200023f60201b60201c565b9150915081620001a5576200019f6200032460201b62000ee31760201c565b620001a7565b805b60ff1660a05250506001600160a01b031660805250620001c73362000329565b6001600160a01b038116620002225760405162461bcd60e51b815260206004820152601d60248201527f556e6465726c79696e67206164647265737320697320696e76616c6964000000604482015260640160405180910390fd5b50600780546001600160a01b0319163017905560c05250620006a4565b60408051600481526024810182526020810180516001600160e01b031663313ce56760e01b17905290516000918291829182916001600160a01b0387169162000288916200066c565b600060405180830381855afa9150503d8060008114620002c5576040519150601f19603f3d011682016040523d82523d6000602084013e620002ca565b606091505b5091509150818015620002df57506020815110155b156200031757600081806020019051810190620002fd91906200068a565b905060ff811162000315576001969095509350505050565b505b5060009485945092505050565b601290565b600580546001600160a01b038381166001600160a01b0319831681179093556040519116919082907f8be0079c531659141344cd1fd0a4f28419497f9722a3daafe3b4186f6b6457e090600090a35050565b600080604083850312156200038f57600080fd5b82516001600160a01b0381168114620003a757600080fd5b6020939093015192949293505050565b634e487b7160e01b600052604160045260246000fd5b60005b83811015620003ea578181015183820152602001620003d0565b83811115620003fa576000848401525b50505050565b6000602082840312156200041357600080fd5b81516001600160401b03808211156200042b57600080fd5b818401915084601f8301126200044057600080fd5b815181811115620004555762000455620003b7565b604051601f8201601f19908116603f01168101908382118183101715620004805762000480620003b7565b816040528281528760208487010111156200049a57600080fd5b620004ad836020830160208801620003cd565b979650505050505050565b6202426160ed1b815260008251620004d8816003850160208701620003cd565b9190910160030192915050565b61121360f21b81526000825162000504816002850160208701620003cd565b9190910160020192915050565b600181811c908216806200052657607f821691505b6020821081036200054757634e487b7160e01b600052602260045260246000fd5b50919050565b601f8211156200059b57600081815260208120601f850160051c81016020861015620005765750805b601f850160051c820191505b81811015620005975782815560010162000582565b5050505b505050565b81516001600160401b03811115620005bc57620005bc620003b7565b620005d481620005cd845462000511565b846200054d565b602080601f8311600181146200060c5760008415620005f35750858301515b600019600386901b1c1916600185901b17855562000597565b600085815260208120601f198616915b828110156200063d578886015182559484019460019091019084016200061c565b50858210156200065c5787850151600019600388901b60f8161c191681555b5050505050600190811b01905550565b6000825162000680818460208701620003cd565b9190910192915050565b6000602082840312156200069d57600080fd5b5051919050565b60805160a05160c051611f89620007056000396000818161026d01526112e4015260006103340152600081816103800152818161056a015281816106bb015281816108fb01528181610c0a015281816115b901526116790152611f896000f3fe608060405234801561001057600080fd5b50600436106102485760003560e01c806370a082311161013b578063b460af94116100b8578063d905777e1161007c578063d905777e14610508578063dd62ed3e1461051b578063ef8b30f7146104e2578063f1be16791461052e578063f2fde38b1461053f57600080fd5b8063b460af94146104a7578063ba087652146104ba578063c63d75b6146104cd578063c6e6f592146104e2578063ce96cb77146104f557600080fd5b806395d89b41116100ff57806395d89b411461045e578063a457c2d714610466578063a9059cbb14610479578063b15031fa1461048c578063b3d7f6b91461049457600080fd5b806370a0823114610401578063715018a61461042a578063893d20e8146104325780638da5cb5b1461043a57806394bf804d1461044b57600080fd5b806329dc6609116101c9578063402d267d1161018d578063402d267d146103cb57806342de4e9c146103de5780634cdad506146102a4578063679aefce146103e65780636e553f65146103ee57600080fd5b806329dc66091461031a578063313ce5671461032d5780633266fb051461035e57806338d52e0f1461037e57806339509351146103b857600080fd5b80630a28a477116102105780630a28a477146102da5780630c3dbf43146102ed5780631738e42d146102f757806318160ddd146102ff57806323b872dd1461030757600080fd5b806301e1d1141461024d578063045544431461026857806306fdde031461028f57806307a2d13a146102a4578063095ea7b3146102b7575b600080fd5b610255610552565b6040519081526020015b60405180910390f35b6102557f000000000000000000000000000000000000000000000000000000000000000081565b6102976105e2565b60405161025f9190611c62565b6102556102b2366004611c95565b610674565b6102ca6102c5366004611cca565b610687565b604051901515815260200161025f565b6102556102e8366004611c95565b61069f565b6102f56106ac565b005b61025561079b565b600254610255565b6102ca610315366004611cf4565b6107e5565b6102f5610328366004611d30565b61080b565b60405160ff7f000000000000000000000000000000000000000000000000000000000000000016815260200161025f565b61025561036c366004611d63565b60096020526000908152604090205481565b7f00000000000000000000000000000000000000000000000000000000000000005b6040516001600160a01b03909116815260200161025f565b6102ca6103c6366004611cca565b6109d9565b6102556103d9366004611d63565b6109fb565b610255610a19565b600854610255565b6102556103fc366004611d7e565b610a23565b61025561040f366004611d63565b6001600160a01b031660009081526020819052604090205490565b6102f5610ab2565b6103a0610ac6565b6005546001600160a01b03166103a0565b610255610459366004611d7e565b610ada565b610297610af4565b6102ca610474366004611cca565b610b03565b6102ca610487366004611cca565b610b89565b610255610b97565b6102556104a2366004611c95565b610cc0565b6102556104b5366004611daa565b610ccd565b6102556104c8366004611daa565b610d49565b6102556104db366004611d63565b5060001990565b6102556104f0366004611c95565b610dbd565b610255610503366004611d63565b610dca565b610255610516366004611d63565b610dee565b610255610529366004611de6565b610e3f565b6006546001600160a01b03166103a0565b6102f561054d366004611d63565b610e6a565b6040516370a0823160e01b81523060048201526000907f00000000000000000000000000000000000000000000000000000000000000006001600160a01b0316906370a0823190602401602060405180830381865afa1580156105b9573d6000803e3d6000fd5b505050506040513d601f19601f820116820180604052508101906105dd9190611e10565b905090565b6060600380546105f190611e29565b80601f016020809104026020016040519081016040528092919081815260200182805461061d90611e29565b801561066a5780601f1061063f5761010080835404028352916020019161066a565b820191906000526020600020905b81548152906001019060200180831161064d57829003601f168201915b5050505050905090565b6000610681826000610ee8565b92915050565b600033610695818585610f1b565b5060019392505050565b600061068182600161103f565b6106b4611071565b60006008557f000000000000000000000000000000000000000000000000000000000000000060065460405163095ea7b360e01b81526001600160a01b0391821660048201526000602482015291169063095ea7b3906044016020604051808303816000875af115801561072c573d6000803e3d6000fd5b505050506040513d601f19601f820116820180604052508101906107509190611e63565b506006546040516001600160a01b03909116907f59d7b1e52008dc342c9421dadfc773114b914a65682a4e4b53cf60a970df0d7790600090a2600680546001600160a01b0319169055565b60065460408051638ac6d21760e01b815290516000926001600160a01b031691638ac6d2179160048083019260209291908290030181865afa1580156105b9573d6000803e3d6000fd5b6000336107f38582856110cb565b6107fe858585611145565b60019150505b9392505050565b610813611071565b6006546001600160a01b0316156108715760405162461bcd60e51b815260206004820152601d60248201527f7365744d61726b65743a204d61726b657420616c72656164792073657400000060448201526064015b60405180910390fd5b620186a08110156108d95760405162461bcd60e51b815260206004820152602c60248201527f7365744d61726b65743a2052617465206d75737420626520677265617465722060448201526b07468616e203130302c3030360a41b6064820152608401610868565b600680546001600160a01b0319166001600160a01b03851617905560088190557f000000000000000000000000000000000000000000000000000000000000000060065460405163095ea7b360e01b81526001600160a01b0391821660048201526024810185905291169063095ea7b3906044016020604051808303816000875af115801561096c573d6000803e3d6000fd5b505050506040513d601f19601f820116820180604052508101906109909190611e63565b50826001600160a01b03167fef998bc3be3c593680e4200eb3d3dd5ccf9ba6e65efc89414630904c30832991826040516109cc91815260200190565b60405180910390a2505050565b6000336106958185856109ec8383610e3f565b6109f69190611e9b565b610f1b565b6000610a056111c6565b610a10576000610681565b60001992915050565b60006105dd6111e0565b6007546000906001600160a01b0390811690831603610a965760405162461bcd60e51b815260206004820152602960248201527f6465706f7369743a205468652072656365697665722063616e6e6f74206265206044820152681d1a19481d985d5b1d60ba1b6064820152608401610868565b6001600160a01b038216610aa8573391505b610804838361121a565b610aba611071565b610ac4600061128d565b565b60006105dd6005546001600160a01b031690565b600080610ae684610cc0565b9050610804338483876112df565b6060600480546105f190611e29565b60003381610b118286610e3f565b905083811015610b715760405162461bcd60e51b815260206004820152602560248201527f45524332303a2064656372656173656420616c6c6f77616e63652062656c6f77604482015264207a65726f60d81b6064820152608401610868565b610b7e8286868403610f1b565b506001949350505050565b600033610695818585611145565b6006546000906001600160a01b0316610c065760405162461bcd60e51b815260206004820152602b60248201527f776974684d61726b65743a204e6f7420616c6c6f77656420756e74696c206d6160448201526a1c9ad95d081a5cc81cd95d60aa1b6064820152608401610868565b60007f0000000000000000000000000000000000000000000000000000000000000000600754600654604051636eb1769f60e11b81526001600160a01b039283166004820152908216602482015291169063dd62ed3e90604401602060405180830381865afa158015610c7d573d6000803e3d6000fd5b505050506040513d601f19601f82011682018060405250810190610ca19190611e10565b9050610cab610552565b8111156105dd57610cba610552565b91505090565b6000610681826001610ee8565b6000610cd882610dca565b841115610d275760405162461bcd60e51b815260206004820152601f60248201527f455243343632363a207769746864726177206d6f7265207468616e206d6178006044820152606401610868565b6000610d328561069f565b9050610d41338585888561132e565b949350505050565b6000610d5482610dee565b841115610da35760405162461bcd60e51b815260206004820152601d60248201527f455243343632363a2072656465656d206d6f7265207468616e206d61780000006044820152606401610868565b6000610dae85610674565b9050610d41338585848961132e565b600061068182600061103f565b6001600160a01b038116600090815260208190526040812054610681906000610ee8565b6000610df8610552565b600003610e0757506000919050565b6001600160a01b03821660009081526020819052604081205490610e29610552565b610e339083611ec9565b9050610d418183611eeb565b6001600160a01b03918216600090815260016020908152604080832093909416825291909152205490565b610e72611071565b6001600160a01b038116610ed75760405162461bcd60e51b815260206004820152602660248201527f4f776e61626c653a206e6577206f776e657220697320746865207a65726f206160448201526564647265737360d01b6064820152608401610868565b610ee08161128d565b50565b601290565b600080610ef460025490565b90508015610f1557610f10610f07610552565b859083866113b3565b610d41565b83610d41565b6001600160a01b038316610f7d5760405162461bcd60e51b8152602060048201526024808201527f45524332303a20617070726f76652066726f6d20746865207a65726f206164646044820152637265737360e01b6064820152608401610868565b6001600160a01b038216610fde5760405162461bcd60e51b815260206004820152602260248201527f45524332303a20617070726f766520746f20746865207a65726f206164647265604482015261737360f01b6064820152608401610868565b6001600160a01b0383811660008181526001602090815260408083209487168084529482529182902085905590518481527f8c5be1e5ebec7d5bd14f71427d1e84f3dd0314c0f7b2291e5b200ac8c7c3b925910160405180910390a3505050565b60008061104b60025490565b9050831580611058575080155b610f1557610f1081611068610552565b869190866113b3565b6005546001600160a01b03163314610ac45760405162461bcd60e51b815260206004820181905260248201527f4f776e61626c653a2063616c6c6572206973206e6f7420746865206f776e65726044820152606401610868565b60006110d78484610e3f565b9050600019811461113f57818110156111325760405162461bcd60e51b815260206004820152601d60248201527f45524332303a20696e73756666696369656e7420616c6c6f77616e63650000006044820152606401610868565b61113f8484848403610f1b565b50505050565b6001600160a01b03831660009081526009602052604090205442116111b65760405162461bcd60e51b815260206004820152602160248201527f5f7472616e736665723a204c6f636b65642074696d65206e6f742070617373656044820152601960fa1b6064820152608401610868565b6111c1838383611410565b505050565b6000806111d1610552565b11806105dd5750506002541590565b6000806111eb610552565b9050801561121257806111fd60025490565b611208906064611f02565b610cba9190611ec9565b600091505090565b6000611225826109fb565b8311156112745760405162461bcd60e51b815260206004820152601e60248201527f455243343632363a206465706f736974206d6f7265207468616e206d617800006044820152606401610868565b600061127f84610dbd565b9050610804338486846112df565b600580546001600160a01b038381166001600160a01b0319831681179093556040519116919082907f8be0079c531659141344cd1fd0a4f28419497f9722a3daafe3b4186f6b6457e090600090a35050565b6113097f000000000000000000000000000000000000000000000000000000000000000042611e9b565b6001600160a01b03841660009081526009602052604090205561113f848484846115b4565b6001600160a01b038316600090815260096020526040902054421161139f5760405162461bcd60e51b815260206004820152602160248201527f5f77697468647261773a204c6f636b65642074696d65206e6f742070617373656044820152601960fa1b6064820152608401610868565b6113ac8585858585611646565b5050505050565b6000806113c1868686611706565b905060018360028111156113d7576113d7611f21565b1480156113f45750600084806113ef576113ef611eb3565b868809115b1561140757611404600182611e9b565b90505b95945050505050565b6001600160a01b0383166114745760405162461bcd60e51b815260206004820152602560248201527f45524332303a207472616e736665722066726f6d20746865207a65726f206164604482015264647265737360d81b6064820152608401610868565b6001600160a01b0382166114d65760405162461bcd60e51b815260206004820152602360248201527f45524332303a207472616e7366657220746f20746865207a65726f206164647260448201526265737360e81b6064820152608401610868565b6001600160a01b0383166000908152602081905260409020548181101561154e5760405162461bcd60e51b815260206004820152602660248201527f45524332303a207472616e7366657220616d6f756e7420657863656564732062604482015265616c616e636560d01b6064820152608401610868565b6001600160a01b03848116600081815260208181526040808320878703905593871680835291849020805487019055925185815290927fddf252ad1be2c89b69c2b068fc378daa952ba7f163c4a11628f55a4df523b3ef910160405180910390a361113f565b6115e07f00000000000000000000000000000000000000000000000000000000000000008530856117b5565b6115ea8382611820565b826001600160a01b0316846001600160a01b03167fdcbc1c05240f31ff3ad067ef1ee35ce4997762752e3a095284754544f4c709d78484604051611638929190918252602082015260400190565b60405180910390a350505050565b826001600160a01b0316856001600160a01b03161461166a5761166a8386836110cb565b61167483826118df565b61169f7f00000000000000000000000000000000000000000000000000000000000000008584611a11565b826001600160a01b0316846001600160a01b0316866001600160a01b03167ffbde797d201c681b91056529119e0b02407c7bb96a4a2c75c01fc9667232c8db85856040516116f7929190918252602082015260400190565b60405180910390a45050505050565b60008080600019858709858702925082811083820303915050806000036117405783828161173657611736611eb3565b0492505050610804565b80841161174c57600080fd5b60008486880960026001871981018816978890046003810283188082028403028082028403028082028403028082028403028082028403029081029092039091026000889003889004909101858311909403939093029303949094049190911702949350505050565b6040516001600160a01b038085166024830152831660448201526064810182905261113f9085906323b872dd60e01b906084015b60408051601f198184030181529190526020810180516001600160e01b03166001600160e01b031990931692909217909152611a41565b6001600160a01b0382166118765760405162461bcd60e51b815260206004820152601f60248201527f45524332303a206d696e7420746f20746865207a65726f2061646472657373006044820152606401610868565b80600260008282546118889190611e9b565b90915550506001600160a01b038216600081815260208181526040808320805486019055518481527fddf252ad1be2c89b69c2b068fc378daa952ba7f163c4a11628f55a4df523b3ef910160405180910390a35050565b6001600160a01b03821661193f5760405162461bcd60e51b815260206004820152602160248201527f45524332303a206275726e2066726f6d20746865207a65726f206164647265736044820152607360f81b6064820152608401610868565b6001600160a01b038216600090815260208190526040902054818110156119b35760405162461bcd60e51b815260206004820152602260248201527f45524332303a206275726e20616d6f756e7420657863656564732062616c616e604482015261636560f01b6064820152608401610868565b6001600160a01b0383166000818152602081815260408083208686039055600280548790039055518581529192917fddf252ad1be2c89b69c2b068fc378daa952ba7f163c4a11628f55a4df523b3ef910160405180910390a3505050565b6040516001600160a01b0383166024820152604481018290526111c190849063a9059cbb60e01b906064016117e9565b6000611a96826040518060400160405280602081526020017f5361666545524332303a206c6f772d6c6576656c2063616c6c206661696c6564815250856001600160a01b0316611b139092919063ffffffff16565b8051909150156111c15780806020019051810190611ab49190611e63565b6111c15760405162461bcd60e51b815260206004820152602a60248201527f5361666545524332303a204552433230206f7065726174696f6e20646964206e6044820152691bdd081cdd58d8d9595960b21b6064820152608401610868565b6060610d41848460008585600080866001600160a01b03168587604051611b3a9190611f37565b60006040518083038185875af1925050503d8060008114611b77576040519150601f19603f3d011682016040523d82523d6000602084013e611b7c565b606091505b5091509150611b8d87838387611b98565b979650505050505050565b60608315611c07578251600003611c00576001600160a01b0385163b611c005760405162461bcd60e51b815260206004820152601d60248201527f416464726573733a2063616c6c20746f206e6f6e2d636f6e74726163740000006044820152606401610868565b5081610d41565b610d418383815115611c1c5781518083602001fd5b8060405162461bcd60e51b81526004016108689190611c62565b60005b83811015611c51578181015183820152602001611c39565b8381111561113f5750506000910152565b6020815260008251806020840152611c81816040850160208701611c36565b601f01601f19169190910160400192915050565b600060208284031215611ca757600080fd5b5035919050565b80356001600160a01b0381168114611cc557600080fd5b919050565b60008060408385031215611cdd57600080fd5b611ce683611cae565b946020939093013593505050565b600080600060608486031215611d0957600080fd5b611d1284611cae565b9250611d2060208501611cae565b9150604084013590509250925092565b600080600060608486031215611d4557600080fd5b611d4e84611cae565b95602085013595506040909401359392505050565b600060208284031215611d7557600080fd5b61080482611cae565b60008060408385031215611d9157600080fd5b82359150611da160208401611cae565b90509250929050565b600080600060608486031215611dbf57600080fd5b83359250611dcf60208501611cae565b9150611ddd60408501611cae565b90509250925092565b60008060408385031215611df957600080fd5b611e0283611cae565b9150611da160208401611cae565b600060208284031215611e2257600080fd5b5051919050565b600181811c90821680611e3d57607f821691505b602082108103611e5d57634e487b7160e01b600052602260045260246000fd5b50919050565b600060208284031215611e7557600080fd5b8151801515811461080457600080fd5b634e487b7160e01b600052601160045260246000fd5b60008219821115611eae57611eae611e85565b500190565b634e487b7160e01b600052601260045260246000fd5b600082611ee657634e487b7160e01b600052601260045260246000fd5b500490565b600082821015611efd57611efd611e85565b500390565b6000816000190483118215151615611f1c57611f1c611e85565b500290565b634e487b7160e01b600052602160045260246000fd5b60008251611f49818460208701611c36565b919091019291505056fea2646970667358221220c5a2788a06c5e2e319d97fce1288b2873e3cb4dc00607c0052ecdda985ebfd0064736f6c634300080f0033",
  "devdoc": {
    "kind": "dev",
    "methods": {
      "allowance(address,address)": {
        "details": "See {IERC20-allowance}."
      },
      "approve(address,uint256)": {
        "details": "See {IERC20-approve}. NOTE: If `amount` is the maximum `uint256`, the allowance is not updated on `transferFrom`. This is semantically equivalent to an infinite approval. Requirements: - `spender` cannot be the zero address."
      },
      "asset()": {
        "details": "See {IERC4626-asset}. "
      },
      "balanceOf(address)": {
        "details": "See {IERC20-balanceOf}."
      },
      "convertToAssets(uint256)": {
        "details": "See {IERC4626-convertToAssets}. "
      },
      "convertToShares(uint256)": {
        "details": "See {IERC4626-convertToShares}. "
      },
      "decimals()": {
        "details": "Decimals are read from the underlying asset in the constructor and cached. If this fails (e.g., the asset has not been created yet), the cached value is set to a default obtained by `super.decimals()` (which depends on inheritance but is most likely 18). Override this function in order to set a guaranteed hardcoded value. See {IERC20Metadata-decimals}."
      },
      "decreaseAllowance(address,uint256)": {
        "details": "Atomically decreases the allowance granted to `spender` by the caller. This is an alternative to {approve} that can be used as a mitigation for problems described in {IERC20-approve}. Emits an {Approval} event indicating the updated allowance. Requirements: - `spender` cannot be the zero address. - `spender` must have allowance for the caller of at least `subtractedValue`."
      },
      "deposit(uint256,address)": {
        "details": "See {IERC4626-deposit}. "
      },
      "increaseAllowance(address,uint256)": {
        "details": "Atomically increases the allowance granted to `spender` by the caller. This is an alternative to {approve} that can be used as a mitigation for problems described in {IERC20-approve}. Emits an {Approval} event indicating the updated allowance. Requirements: - `spender` cannot be the zero address."
      },
      "maxDeposit(address)": {
        "details": "See {IERC4626-maxDeposit}. "
      },
      "maxMint(address)": {
        "details": "See {IERC4626-maxMint}. "
      },
      "maxRedeem(address)": {
        "details": "See {IERC4626-maxRedeem}. "
      },
      "maxWithdraw(address)": {
        "details": "See {IERC4626-maxWithdraw}. "
      },
      "mint(uint256,address)": {
        "details": "See {IERC4626-mint}. As opposed to {deposit}, minting is allowed even if the vault is in a state where the price of a share is zero. In this case, the shares will be minted without requiring any assets to be deposited."
      },
      "name()": {
        "details": "Returns the name of the token."
      },
      "owner()": {
        "details": "Returns the address of the current owner."
      },
      "previewDeposit(uint256)": {
        "details": "See {IERC4626-previewDeposit}. "
      },
      "previewMint(uint256)": {
        "details": "See {IERC4626-previewMint}. "
      },
      "previewRedeem(uint256)": {
        "details": "See {IERC4626-previewRedeem}. "
      },
      "previewWithdraw(uint256)": {
        "details": "See {IERC4626-previewWithdraw}. "
      },
      "redeem(uint256,address,address)": {
        "details": "See {IERC4626-redeem}. "
      },
      "renounceOwnership()": {
        "details": "Leaves the contract without owner. It will not be possible to call `onlyOwner` functions anymore. Can only be called by the current owner. NOTE: Renouncing ownership will leave the contract without an owner, thereby removing any functionality that is only available to the owner."
      },
      "symbol()": {
        "details": "Returns the symbol of the token, usually a shorter version of the name."
      },
      "totalAssets()": {
        "details": "See {IERC4626-totalAssets}. "
      },
      "totalSupply()": {
        "details": "See {IERC20-totalSupply}."
      },
      "transfer(address,uint256)": {
        "details": "See {IERC20-transfer}. Requirements: - `to` cannot be the zero address. - the caller must have a balance of at least `amount`."
      },
      "transferFrom(address,address,uint256)": {
        "details": "See {IERC20-transferFrom}. Emits an {Approval} event indicating the updated allowance. This is not required by the EIP. See the note at the beginning of {ERC20}. NOTE: Does not update the allowance if the current allowance is the maximum `uint256`. Requirements: - `from` and `to` cannot be the zero address. - `from` must have a balance of at least `amount`. - the caller must have allowance for ``from``'s tokens of at least `amount`."
      },
      "transferOwnership(address)": {
        "details": "Transfers ownership of the contract to a new account (`newOwner`). Can only be called by the current owner."
      },
      "withdraw(uint256,address,address)": {
        "details": "See {IERC4626-withdraw}. "
      }
    },
    "version": 1
  },
  "userdoc": {
    "kind": "user",
    "methods": {},
    "version": 1
  },
  "storageLayout": {
    "storage": [
      {
        "astId": 3122,
        "contract": "contracts/VaultTimeLock.sol:VaultTimeLock",
        "label": "_balances",
        "offset": 0,
        "slot": "0",
        "type": "t_mapping(t_address,t_uint256)"
      },
      {
        "astId": 3128,
        "contract": "contracts/VaultTimeLock.sol:VaultTimeLock",
        "label": "_allowances",
        "offset": 0,
        "slot": "1",
        "type": "t_mapping(t_address,t_mapping(t_address,t_uint256))"
      },
      {
        "astId": 3130,
        "contract": "contracts/VaultTimeLock.sol:VaultTimeLock",
        "label": "_totalSupply",
        "offset": 0,
        "slot": "2",
        "type": "t_uint256"
      },
      {
        "astId": 3132,
        "contract": "contracts/VaultTimeLock.sol:VaultTimeLock",
        "label": "_name",
        "offset": 0,
        "slot": "3",
        "type": "t_string_storage"
      },
      {
        "astId": 3134,
        "contract": "contracts/VaultTimeLock.sol:VaultTimeLock",
        "label": "_symbol",
        "offset": 0,
        "slot": "4",
        "type": "t_string_storage"
      },
      {
        "astId": 2722,
        "contract": "contracts/VaultTimeLock.sol:VaultTimeLock",
        "label": "_owner",
        "offset": 0,
        "slot": "5",
        "type": "t_address"
      },
      {
        "astId": 15695,
        "contract": "contracts/VaultTimeLock.sol:VaultTimeLock",
        "label": "_market",
        "offset": 0,
        "slot": "6",
        "type": "t_address"
      },
      {
        "astId": 15697,
        "contract": "contracts/VaultTimeLock.sol:VaultTimeLock",
        "label": "_self",
        "offset": 0,
        "slot": "7",
        "type": "t_address"
      },
      {
        "astId": 15699,
        "contract": "contracts/VaultTimeLock.sol:VaultTimeLock",
        "label": "_rate",
        "offset": 0,
        "slot": "8",
        "type": "t_uint256"
      },
      {
        "astId": 16059,
        "contract": "contracts/VaultTimeLock.sol:VaultTimeLock",
        "label": "lockedTime",
        "offset": 0,
        "slot": "9",
        "type": "t_mapping(t_address,t_uint256)"
      }
    ],
    "types": {
      "t_address": {
        "encoding": "inplace",
        "label": "address",
        "numberOfBytes": "20"
      },
      "t_mapping(t_address,t_mapping(t_address,t_uint256))": {
        "encoding": "mapping",
        "key": "t_address",
        "label": "mapping(address => mapping(address => uint256))",
        "numberOfBytes": "32",
        "value": "t_mapping(t_address,t_uint256)"
      },
      "t_mapping(t_address,t_uint256)": {
        "encoding": "mapping",
        "key": "t_address",
        "label": "mapping(address => uint256)",
        "numberOfBytes": "32",
        "value": "t_uint256"
      },
      "t_string_storage": {
        "encoding": "bytes",
        "label": "string",
        "numberOfBytes": "32"
      },
      "t_uint256": {
        "encoding": "inplace",
        "label": "uint256",
        "numberOfBytes": "32"
      }
    }
  }
}