{
  "address": "0x13BF523e506F2F48a20Ea0abEe9Ad5De8bc07d72",
  "abi": [
    {
      "inputs": [],
      "stateMutability": "nonpayable",
      "type": "constructor"
    },
    {
      "anonymous": false,
      "inputs": [
        {
          "indexed": true,
          "internalType": "bytes16",
          "name": "marketId",
          "type": "bytes16"
        },
        {
          "indexed": true,
          "internalType": "bytes16",
          "name": "propositionId",
          "type": "bytes16"
        }
      ],
      "name": "ResultSet",
      "type": "event"
    },
    {
      "anonymous": false,
      "inputs": [
        {
          "indexed": true,
          "internalType": "bytes16",
          "name": "marketId",
          "type": "bytes16"
        },
        {
          "indexed": true,
          "internalType": "bytes16",
          "name": "propositionId",
          "type": "bytes16"
        }
      ],
      "name": "ScratchedSet",
      "type": "event"
    },
    {
      "inputs": [],
      "name": "LOSER",
      "outputs": [
        {
          "internalType": "uint8",
          "name": "",
          "type": "uint8"
        }
      ],
      "stateMutability": "view",
      "type": "function"
    },
    {
      "inputs": [],
      "name": "NULL",
      "outputs": [
        {
          "internalType": "uint8",
          "name": "",
          "type": "uint8"
        }
      ],
      "stateMutability": "view",
      "type": "function"
    },
    {
      "inputs": [],
      "name": "SCRATCHED",
      "outputs": [
        {
          "internalType": "uint8",
          "name": "",
          "type": "uint8"
        }
      ],
      "stateMutability": "view",
      "type": "function"
    },
    {
      "inputs": [],
      "name": "WINNER",
      "outputs": [
        {
          "internalType": "uint8",
          "name": "",
          "type": "uint8"
        }
      ],
      "stateMutability": "view",
      "type": "function"
    },
    {
      "inputs": [
        {
          "internalType": "bytes16",
          "name": "marketId",
          "type": "bytes16"
        },
        {
          "internalType": "bytes16",
          "name": "propositionId",
          "type": "bytes16"
        }
      ],
      "name": "checkResult",
      "outputs": [
        {
          "internalType": "uint8",
          "name": "",
          "type": "uint8"
        }
      ],
      "stateMutability": "view",
      "type": "function"
    },
    {
      "inputs": [],
      "name": "getOwner",
      "outputs": [
        {
          "internalType": "address",
          "name": "",
          "type": "address"
        }
      ],
      "stateMutability": "view",
      "type": "function"
    },
    {
      "inputs": [
        {
          "internalType": "bytes16",
          "name": "marketId",
          "type": "bytes16"
        }
      ],
      "name": "getResult",
      "outputs": [
        {
          "components": [
            {
              "internalType": "bytes16",
              "name": "winningPropositionId",
              "type": "bytes16"
            },
            {
              "components": [
                {
                  "internalType": "bytes16",
                  "name": "propositionId",
                  "type": "bytes16"
                },
                {
                  "internalType": "uint256",
                  "name": "timestamp",
                  "type": "uint256"
                },
                {
                  "internalType": "uint256",
                  "name": "odds",
                  "type": "uint256"
                }
              ],
              "internalType": "struct IOracle.Scratched[]",
              "name": "scratched",
              "type": "tuple[]"
            }
          ],
          "internalType": "struct IOracle.Result",
          "name": "",
          "type": "tuple"
        }
      ],
      "stateMutability": "view",
      "type": "function"
    },
    {
      "inputs": [
        {
          "internalType": "bytes16",
          "name": "marketId",
          "type": "bytes16"
        }
      ],
      "name": "hasResult",
      "outputs": [
        {
          "internalType": "bool",
          "name": "",
          "type": "bool"
        }
      ],
      "stateMutability": "view",
      "type": "function"
    },
    {
      "inputs": [
        {
          "internalType": "bytes16",
          "name": "marketId",
          "type": "bytes16"
        },
        {
          "internalType": "bytes16",
          "name": "winningPropositionId",
          "type": "bytes16"
        },
        {
          "components": [
            {
              "internalType": "uint8",
              "name": "v",
              "type": "uint8"
            },
            {
              "internalType": "bytes32",
              "name": "r",
              "type": "bytes32"
            },
            {
              "internalType": "bytes32",
              "name": "s",
              "type": "bytes32"
            }
          ],
          "internalType": "struct SignatureLib.Signature",
          "name": "signature",
          "type": "tuple"
        }
      ],
      "name": "setResult",
      "outputs": [],
      "stateMutability": "nonpayable",
      "type": "function"
    },
    {
      "inputs": [
        {
          "internalType": "bytes16",
          "name": "marketId",
          "type": "bytes16"
        },
        {
          "internalType": "bytes16",
          "name": "scratchedPropositionId",
          "type": "bytes16"
        },
        {
          "internalType": "uint256",
          "name": "odds",
          "type": "uint256"
        },
        {
          "components": [
            {
              "internalType": "uint8",
              "name": "v",
              "type": "uint8"
            },
            {
              "internalType": "bytes32",
              "name": "r",
              "type": "bytes32"
            },
            {
              "internalType": "bytes32",
              "name": "s",
              "type": "bytes32"
            }
          ],
          "internalType": "struct SignatureLib.Signature",
          "name": "signature",
          "type": "tuple"
        }
      ],
      "name": "setScratchedResult",
      "outputs": [],
      "stateMutability": "nonpayable",
      "type": "function"
    }
  ],
  "transactionHash": "0x2fe65c3f7d4dad5b30a8632a510ab5c48171d0c4c0054de93c5ee4cfd8b63d67",
  "args": [],
  "numDeployments": 1,
  "solcInputHash": "bd91955783a505b7a1c38e89c27f1506",
  "bytecode": "0x60a060405234801561001057600080fd5b5033608052608051610c316100376000396000818161010f015261089a0152610c316000f3fe608060405234801561001057600080fd5b506004361061009e5760003560e01c8063b108501f11610066578063b108501f1461014c578063b32b880e14610154578063bc985bc914610196578063d1e90d621461019e578063f26be3fc146101a657600080fd5b806306c77ce7146100a35780631b623407146100cd5780634b51e70a146100e2578063893d20e8146101025780639a56d91914610139575b600080fd5b6100b66100b13660046109bc565b6101ae565b60405160ff90911681526020015b60405180910390f35b6100e06100db366004610a07565b61034f565b005b6100f56100f0366004610a55565b6105e7565b6040516100c49190610a77565b6040516001600160a01b037f00000000000000000000000000000000000000000000000000000000000000001681526020016100c4565b6100e0610147366004610aff565b61065c565b6100b6600181565b610186610162366004610a55565b6001600160801b031990811660009081526020819052604090205460801b16151590565b60405190151581526020016100c4565b6100b6600381565b6100b6600281565b6100b6600081565b60006001600160801b031982166102175760405162461bcd60e51b815260206004820152602260248201527f636865636b526573756c743a20496e76616c69642070726f706f736974696f6e604482015261125960f21b60648201526084015b60405180910390fd5b6001600160801b031983811660009081526020819052604090205481841660809190911b9091160361024b57506001610349565b6001600160801b03198316600090815260208190526040812060010154905b818110156102e5576001600160801b03198581166000908152602081905260409020600101805491861691839081106102a5576102a5610b43565b600091825260209091206003909102015460801b6001600160801b031916036102d357600392505050610349565b806102dd81610b59565b91505061026a565b506001600160801b031984811660009081526020819052604090205460801b81169084161480159061033457506001600160801b031984811660009081526020819052604090205460801b1615155b15610343576002915050610349565b60009150505b92915050565b604080516001600160801b03198087166020830152851660308201529081018390526000906060016040516020818303038152906040528051906020012090506103998183610803565b6103f35760405162461bcd60e51b815260206004820152602560248201527f736574536372617463686564526573756c743a20496e76616c6964207369676e604482015264617475726560d81b606482015260840161020e565b6001600160801b0319841661045c5760405162461bcd60e51b815260206004820152602960248201527f736574536372617463686564526573756c743a20496e76616c69642070726f706044820152681bdcda5d1a5bdb925960ba1b606482015260840161020e565b6001600160801b03198516600090815260208190526040812060010154905b81811015610542576001600160801b03198781166000908152602081905260409020600101805491881691839081106104b6576104b6610b43565b600091825260209091206003909102015460801b6001600160801b031916036105305760405162461bcd60e51b815260206004820152602660248201527f736574536372617463686564526573756c743a20526573756c7420616c726561604482015265191e481cd95d60d21b606482015260840161020e565b8061053a81610b59565b91505061047b565b506001600160801b031986811660008181526020818152604080832081516060810183528b8716808252428286019081528285018d815260019485018054808701825590895296882093516003909702909301805490991660809690961c9590951788559351918701919091555160029095019490945592517f7ebfaa5cc08727235b615a1e2ac630f84eea185e0687caccec932c2134922e129190a3505050505050565b6040805180820190915260008152606060208201526001600160801b031982166106535760405162461bcd60e51b815260206004820181905260248201527f676574526573756c743a20496e76616c69642070726f706f736974696f6e4964604482015260640161020e565b610349826108d6565b604080516001600160801b03198086166020830152841660308201526000910160405160208183030381529060405280519060200120905061069e8183610803565b6106ea5760405162461bcd60e51b815260206004820152601c60248201527f736574526573756c743a20496e76616c6964207369676e617475726500000000604482015260640161020e565b6001600160801b031983166107415760405162461bcd60e51b815260206004820181905260248201527f736574526573756c743a20496e76616c69642070726f706f736974696f6e4964604482015260640161020e565b6001600160801b031984811660009081526020819052604090205460801b16156107ad5760405162461bcd60e51b815260206004820152601d60248201527f736574526573756c743a20526573756c7420616c726561647920736574000000604482015260640161020e565b6001600160801b031984811660008181526020819052604080822080548516608089901c17905551928616927f1a26e02557415617cb31ed9c9ac1bbe2c8f5e32b8f13ddc706d9ad0afb3c2b449190a350505050565b600080735C3283Be2A8DFbA8808EFe3b7f77A22A23491f12635cff288d85856040518363ffffffff1660e01b815260040161083f929190610b80565b602060405180830381865af415801561085c573d6000803e3d6000fd5b505050506040513d601f19601f820116820180604052508101906108809190610bbc565b90506001600160a01b03811661089857610898610be5565b7f00000000000000000000000000000000000000000000000000000000000000006001600160a01b0316816001600160a01b03161491505092915050565b6040805180820190915260008152606060208201526001600160801b031980831660009081526020818152604080832081518083018352815460801b909516855260018101805483518186028101860190945280845291948685019491929184015b828210156109915760008481526020908190206040805160608101825260038602909201805460801b6001600160801b031916835260018082015484860152600290910154918301919091529083529092019101610938565b505050915250909392505050565b80356001600160801b0319811681146109b757600080fd5b919050565b600080604083850312156109cf57600080fd5b6109d88361099f565b91506109e66020840161099f565b90509250929050565b600060608284031215610a0157600080fd5b50919050565b60008060008060c08587031215610a1d57600080fd5b610a268561099f565b9350610a346020860161099f565b925060408501359150610a4a86606087016109ef565b905092959194509250565b600060208284031215610a6757600080fd5b610a708261099f565b9392505050565b6000602080835260608084016fffffffffffffffffffffffffffffffff198087511684870152838701516040808189015283825180865260808a0191508784019550600093505b80841015610af1578551805186168352888101518984015283015183830152948701946001939093019290860190610abe565b509998505050505050505050565b600080600060a08486031215610b1457600080fd5b610b1d8461099f565b9250610b2b6020850161099f565b9150610b3a85604086016109ef565b90509250925092565b634e487b7160e01b600052603260045260246000fd5b600060018201610b7957634e487b7160e01b600052601160045260246000fd5b5060010190565b82815260808101823560ff8116808214610b9957600080fd5b806020850152505060208301356040830152604083013560608301529392505050565b600060208284031215610bce57600080fd5b81516001600160a01b0381168114610a7057600080fd5b634e487b7160e01b600052600160045260246000fdfea26469706673582212203a1fd64ff057d3cff0826fa09064b6095031d05234f42d7f032a96fc3142e67c64736f6c634300080f0033",
  "deployedBytecode": "0x608060405234801561001057600080fd5b506004361061009e5760003560e01c8063b108501f11610066578063b108501f1461014c578063b32b880e14610154578063bc985bc914610196578063d1e90d621461019e578063f26be3fc146101a657600080fd5b806306c77ce7146100a35780631b623407146100cd5780634b51e70a146100e2578063893d20e8146101025780639a56d91914610139575b600080fd5b6100b66100b13660046109bc565b6101ae565b60405160ff90911681526020015b60405180910390f35b6100e06100db366004610a07565b61034f565b005b6100f56100f0366004610a55565b6105e7565b6040516100c49190610a77565b6040516001600160a01b037f00000000000000000000000000000000000000000000000000000000000000001681526020016100c4565b6100e0610147366004610aff565b61065c565b6100b6600181565b610186610162366004610a55565b6001600160801b031990811660009081526020819052604090205460801b16151590565b60405190151581526020016100c4565b6100b6600381565b6100b6600281565b6100b6600081565b60006001600160801b031982166102175760405162461bcd60e51b815260206004820152602260248201527f636865636b526573756c743a20496e76616c69642070726f706f736974696f6e604482015261125960f21b60648201526084015b60405180910390fd5b6001600160801b031983811660009081526020819052604090205481841660809190911b9091160361024b57506001610349565b6001600160801b03198316600090815260208190526040812060010154905b818110156102e5576001600160801b03198581166000908152602081905260409020600101805491861691839081106102a5576102a5610b43565b600091825260209091206003909102015460801b6001600160801b031916036102d357600392505050610349565b806102dd81610b59565b91505061026a565b506001600160801b031984811660009081526020819052604090205460801b81169084161480159061033457506001600160801b031984811660009081526020819052604090205460801b1615155b15610343576002915050610349565b60009150505b92915050565b604080516001600160801b03198087166020830152851660308201529081018390526000906060016040516020818303038152906040528051906020012090506103998183610803565b6103f35760405162461bcd60e51b815260206004820152602560248201527f736574536372617463686564526573756c743a20496e76616c6964207369676e604482015264617475726560d81b606482015260840161020e565b6001600160801b0319841661045c5760405162461bcd60e51b815260206004820152602960248201527f736574536372617463686564526573756c743a20496e76616c69642070726f706044820152681bdcda5d1a5bdb925960ba1b606482015260840161020e565b6001600160801b03198516600090815260208190526040812060010154905b81811015610542576001600160801b03198781166000908152602081905260409020600101805491881691839081106104b6576104b6610b43565b600091825260209091206003909102015460801b6001600160801b031916036105305760405162461bcd60e51b815260206004820152602660248201527f736574536372617463686564526573756c743a20526573756c7420616c726561604482015265191e481cd95d60d21b606482015260840161020e565b8061053a81610b59565b91505061047b565b506001600160801b031986811660008181526020818152604080832081516060810183528b8716808252428286019081528285018d815260019485018054808701825590895296882093516003909702909301805490991660809690961c9590951788559351918701919091555160029095019490945592517f7ebfaa5cc08727235b615a1e2ac630f84eea185e0687caccec932c2134922e129190a3505050505050565b6040805180820190915260008152606060208201526001600160801b031982166106535760405162461bcd60e51b815260206004820181905260248201527f676574526573756c743a20496e76616c69642070726f706f736974696f6e4964604482015260640161020e565b610349826108d6565b604080516001600160801b03198086166020830152841660308201526000910160405160208183030381529060405280519060200120905061069e8183610803565b6106ea5760405162461bcd60e51b815260206004820152601c60248201527f736574526573756c743a20496e76616c6964207369676e617475726500000000604482015260640161020e565b6001600160801b031983166107415760405162461bcd60e51b815260206004820181905260248201527f736574526573756c743a20496e76616c69642070726f706f736974696f6e4964604482015260640161020e565b6001600160801b031984811660009081526020819052604090205460801b16156107ad5760405162461bcd60e51b815260206004820152601d60248201527f736574526573756c743a20526573756c7420616c726561647920736574000000604482015260640161020e565b6001600160801b031984811660008181526020819052604080822080548516608089901c17905551928616927f1a26e02557415617cb31ed9c9ac1bbe2c8f5e32b8f13ddc706d9ad0afb3c2b449190a350505050565b60008073__$47464c6f7588c8075b5d384b19d082a8ec$__635cff288d85856040518363ffffffff1660e01b815260040161083f929190610b80565b602060405180830381865af415801561085c573d6000803e3d6000fd5b505050506040513d601f19601f820116820180604052508101906108809190610bbc565b90506001600160a01b03811661089857610898610be5565b7f00000000000000000000000000000000000000000000000000000000000000006001600160a01b0316816001600160a01b03161491505092915050565b6040805180820190915260008152606060208201526001600160801b031980831660009081526020818152604080832081518083018352815460801b909516855260018101805483518186028101860190945280845291948685019491929184015b828210156109915760008481526020908190206040805160608101825260038602909201805460801b6001600160801b031916835260018082015484860152600290910154918301919091529083529092019101610938565b505050915250909392505050565b80356001600160801b0319811681146109b757600080fd5b919050565b600080604083850312156109cf57600080fd5b6109d88361099f565b91506109e66020840161099f565b90509250929050565b600060608284031215610a0157600080fd5b50919050565b60008060008060c08587031215610a1d57600080fd5b610a268561099f565b9350610a346020860161099f565b925060408501359150610a4a86606087016109ef565b905092959194509250565b600060208284031215610a6757600080fd5b610a708261099f565b9392505050565b6000602080835260608084016fffffffffffffffffffffffffffffffff198087511684870152838701516040808189015283825180865260808a0191508784019550600093505b80841015610af1578551805186168352888101518984015283015183830152948701946001939093019290860190610abe565b509998505050505050505050565b600080600060a08486031215610b1457600080fd5b610b1d8461099f565b9250610b2b6020850161099f565b9150610b3a85604086016109ef565b90509250925092565b634e487b7160e01b600052603260045260246000fd5b600060018201610b7957634e487b7160e01b600052601160045260246000fd5b5060010190565b82815260808101823560ff8116808214610b9957600080fd5b806020850152505060208301356040830152604083013560608301529392505050565b600060208284031215610bce57600080fd5b81516001600160a01b0381168114610a7057600080fd5b634e487b7160e01b600052600160045260246000fdfea26469706673582212203a1fd64ff057d3cff0826fa09064b6095031d05234f42d7f032a96fc3142e67c64736f6c634300080f0033",
  "libraries": {
    "SignatureLib": "0x5C3283Be2A8DFbA8808EFe3b7f77A22A23491f12"
  },
  "devdoc": {
    "kind": "dev",
    "methods": {},
    "version": 1
  },
  "userdoc": {
    "kind": "user",
    "methods": {},
    "version": 1
  },
  "storageLayout": {
    "storage": [
      {
        "astId": 14080,
        "contract": "contracts/MarketOracle.sol:MarketOracle",
        "label": "_results",
        "offset": 0,
        "slot": "0",
        "type": "t_mapping(t_bytes16,t_struct(Result)11860_storage)"
      }
    ],
    "types": {
      "t_array(t_struct(Scratched)11853_storage)dyn_storage": {
        "base": "t_struct(Scratched)11853_storage",
        "encoding": "dynamic_array",
        "label": "struct IOracle.Scratched[]",
        "numberOfBytes": "32"
      },
      "t_bytes16": {
        "encoding": "inplace",
        "label": "bytes16",
        "numberOfBytes": "16"
      },
      "t_mapping(t_bytes16,t_struct(Result)11860_storage)": {
        "encoding": "mapping",
        "key": "t_bytes16",
        "label": "mapping(bytes16 => struct IOracle.Result)",
        "numberOfBytes": "32",
        "value": "t_struct(Result)11860_storage"
      },
      "t_struct(Result)11860_storage": {
        "encoding": "inplace",
        "label": "struct IOracle.Result",
        "members": [
          {
            "astId": 11855,
            "contract": "contracts/MarketOracle.sol:MarketOracle",
            "label": "winningPropositionId",
            "offset": 0,
            "slot": "0",
            "type": "t_bytes16"
          },
          {
            "astId": 11859,
            "contract": "contracts/MarketOracle.sol:MarketOracle",
            "label": "scratched",
            "offset": 0,
            "slot": "1",
            "type": "t_array(t_struct(Scratched)11853_storage)dyn_storage"
          }
        ],
        "numberOfBytes": "64"
      },
      "t_struct(Scratched)11853_storage": {
        "encoding": "inplace",
        "label": "struct IOracle.Scratched",
        "members": [
          {
            "astId": 11848,
            "contract": "contracts/MarketOracle.sol:MarketOracle",
            "label": "propositionId",
            "offset": 0,
            "slot": "0",
            "type": "t_bytes16"
          },
          {
            "astId": 11850,
            "contract": "contracts/MarketOracle.sol:MarketOracle",
            "label": "timestamp",
            "offset": 0,
            "slot": "1",
            "type": "t_uint256"
          },
          {
            "astId": 11852,
            "contract": "contracts/MarketOracle.sol:MarketOracle",
            "label": "odds",
            "offset": 0,
            "slot": "2",
            "type": "t_uint256"
          }
        ],
        "numberOfBytes": "96"
      },
      "t_uint256": {
        "encoding": "inplace",
        "label": "uint256",
        "numberOfBytes": "32"
      }
    }
  }
}