{
  "address": "0xD232a80EE7A2894FdAafAd702E1eA09583D63C67",
  "abi": [
    {
      "inputs": [
        {
          "internalType": "address",
          "name": "vault",
          "type": "address"
        },
        {
          "internalType": "uint8",
          "name": "margin",
          "type": "uint8"
        },
        {
          "internalType": "uint8",
          "name": "timeoutDays",
          "type": "uint8"
        },
        {
          "internalType": "address",
          "name": "oracle",
          "type": "address"
        },
        {
          "internalType": "string",
          "name": "metadataBaseURI",
          "type": "string"
        }
      ],
      "stateMutability": "nonpayable",
      "type": "constructor"
    },
    {
      "anonymous": false,
      "inputs": [
        {
          "indexed": true,
          "internalType": "address",
          "name": "owner",
          "type": "address"
        },
        {
          "indexed": true,
          "internalType": "address",
          "name": "approved",
          "type": "address"
        },
        {
          "indexed": true,
          "internalType": "uint256",
          "name": "tokenId",
          "type": "uint256"
        }
      ],
      "name": "Approval",
      "type": "event"
    },
    {
      "anonymous": false,
      "inputs": [
        {
          "indexed": true,
          "internalType": "address",
          "name": "owner",
          "type": "address"
        },
        {
          "indexed": true,
          "internalType": "address",
          "name": "operator",
          "type": "address"
        },
        {
          "indexed": false,
          "internalType": "bool",
          "name": "approved",
          "type": "bool"
        }
      ],
      "name": "ApprovalForAll",
      "type": "event"
    },
    {
      "anonymous": false,
      "inputs": [
        {
          "indexed": true,
          "internalType": "address",
          "name": "vault",
          "type": "address"
        },
        {
          "indexed": false,
          "internalType": "uint256",
          "name": "index",
          "type": "uint256"
        },
        {
          "indexed": false,
          "internalType": "uint256",
          "name": "amount",
          "type": "uint256"
        }
      ],
      "name": "Borrowed",
      "type": "event"
    },
    {
      "anonymous": false,
      "inputs": [
        {
          "indexed": true,
          "internalType": "address",
          "name": "previousOwner",
          "type": "address"
        },
        {
          "indexed": true,
          "internalType": "address",
          "name": "newOwner",
          "type": "address"
        }
      ],
      "name": "OwnershipTransferred",
      "type": "event"
    },
    {
      "anonymous": false,
      "inputs": [
        {
          "indexed": false,
          "internalType": "uint256",
          "name": "index",
          "type": "uint256"
        },
        {
          "indexed": false,
          "internalType": "bytes16",
          "name": "propositionId",
          "type": "bytes16"
        },
        {
          "indexed": false,
          "internalType": "bytes16",
          "name": "marketId",
          "type": "bytes16"
        },
        {
          "indexed": false,
          "internalType": "uint256",
          "name": "amount",
          "type": "uint256"
        },
        {
          "indexed": false,
          "internalType": "uint256",
          "name": "payout",
          "type": "uint256"
        },
        {
          "indexed": true,
          "internalType": "address",
          "name": "owner",
          "type": "address"
        }
      ],
      "name": "Placed",
      "type": "event"
    },
    {
      "anonymous": false,
      "inputs": [
        {
          "indexed": false,
          "internalType": "uint256",
          "name": "index",
          "type": "uint256"
        },
        {
          "indexed": false,
          "internalType": "uint256",
          "name": "amount",
          "type": "uint256"
        },
        {
          "indexed": true,
          "internalType": "address",
          "name": "recipient",
          "type": "address"
        }
      ],
      "name": "Refunded",
      "type": "event"
    },
    {
      "anonymous": false,
      "inputs": [
        {
          "indexed": true,
          "internalType": "address",
          "name": "vault",
          "type": "address"
        },
        {
          "indexed": false,
          "internalType": "uint256",
          "name": "amount",
          "type": "uint256"
        }
      ],
      "name": "Repaid",
      "type": "event"
    },
    {
      "anonymous": false,
      "inputs": [
        {
          "indexed": false,
          "internalType": "uint256",
          "name": "index",
          "type": "uint256"
        },
        {
          "indexed": false,
          "internalType": "uint256",
          "name": "payout",
          "type": "uint256"
        },
        {
          "indexed": false,
          "internalType": "uint8",
          "name": "result",
          "type": "uint8"
        },
        {
          "indexed": true,
          "internalType": "address",
          "name": "recipient",
          "type": "address"
        }
      ],
      "name": "Settled",
      "type": "event"
    },
    {
      "anonymous": false,
      "inputs": [
        {
          "indexed": true,
          "internalType": "address",
          "name": "from",
          "type": "address"
        },
        {
          "indexed": true,
          "internalType": "address",
          "name": "to",
          "type": "address"
        },
        {
          "indexed": true,
          "internalType": "uint256",
          "name": "tokenId",
          "type": "uint256"
        }
      ],
      "name": "Transfer",
      "type": "event"
    },
    {
      "inputs": [],
      "name": "LOSER",
      "outputs": [
        {
          "internalType": "uint8",
          "name": "",
          "type": "uint8"
        }
      ],
      "stateMutability": "view",
      "type": "function"
    },
    {
      "inputs": [],
      "name": "NULL",
      "outputs": [
        {
          "internalType": "uint8",
          "name": "",
          "type": "uint8"
        }
      ],
      "stateMutability": "view",
      "type": "function"
    },
    {
      "inputs": [],
      "name": "SCRATCHED",
      "outputs": [
        {
          "internalType": "uint8",
          "name": "",
          "type": "uint8"
        }
      ],
      "stateMutability": "view",
      "type": "function"
    },
    {
      "inputs": [],
      "name": "WINNER",
      "outputs": [
        {
          "internalType": "uint8",
          "name": "",
          "type": "uint8"
        }
      ],
      "stateMutability": "view",
      "type": "function"
    },
    {
      "inputs": [
        {
          "internalType": "address",
          "name": "to",
          "type": "address"
        },
        {
          "internalType": "uint256",
          "name": "tokenId",
          "type": "uint256"
        }
      ],
      "name": "approve",
      "outputs": [],
      "stateMutability": "nonpayable",
      "type": "function"
    },
    {
      "inputs": [
        {
          "components": [
            {
              "internalType": "bytes16",
              "name": "nonce",
              "type": "bytes16"
            },
            {
              "internalType": "bytes16",
              "name": "propositionId",
              "type": "bytes16"
            },
            {
              "internalType": "bytes16",
              "name": "marketId",
              "type": "bytes16"
            },
            {
              "internalType": "uint256",
              "name": "wager",
              "type": "uint256"
            },
            {
              "internalType": "uint256",
              "name": "odds",
              "type": "uint256"
            },
            {
              "internalType": "uint256",
              "name": "close",
              "type": "uint256"
            },
            {
              "internalType": "uint256",
              "name": "end",
              "type": "uint256"
            },
            {
              "components": [
                {
                  "internalType": "uint8",
                  "name": "v",
                  "type": "uint8"
                },
                {
                  "internalType": "bytes32",
                  "name": "r",
                  "type": "bytes32"
                },
                {
                  "internalType": "bytes32",
                  "name": "s",
                  "type": "bytes32"
                }
              ],
              "internalType": "struct SignatureLib.Signature",
              "name": "signature",
              "type": "tuple"
            }
          ],
          "internalType": "struct IMarket.Back",
          "name": "backData",
          "type": "tuple"
        }
      ],
      "name": "back",
      "outputs": [
        {
          "internalType": "uint256",
          "name": "",
          "type": "uint256"
        }
      ],
      "stateMutability": "nonpayable",
      "type": "function"
    },
    {
      "inputs": [
        {
          "internalType": "address",
          "name": "owner",
          "type": "address"
        }
      ],
      "name": "balanceOf",
      "outputs": [
        {
          "internalType": "uint256",
          "name": "",
          "type": "uint256"
        }
      ],
      "stateMutability": "view",
      "type": "function"
    },
    {
      "inputs": [
        {
          "internalType": "uint256",
          "name": "tokenId",
          "type": "uint256"
        }
      ],
      "name": "getApproved",
      "outputs": [
        {
          "internalType": "address",
          "name": "",
          "type": "address"
        }
      ],
      "stateMutability": "view",
      "type": "function"
    },
    {
      "inputs": [
        {
          "internalType": "uint64",
          "name": "index",
          "type": "uint64"
        }
      ],
      "name": "getBetByIndex",
      "outputs": [
        {
          "internalType": "uint256",
          "name": "",
          "type": "uint256"
        },
        {
          "internalType": "uint256",
          "name": "",
          "type": "uint256"
        },
        {
          "internalType": "uint256",
          "name": "",
          "type": "uint256"
        },
        {
          "internalType": "uint256",
          "name": "",
          "type": "uint256"
        },
        {
          "internalType": "bool",
          "name": "",
          "type": "bool"
        },
        {
          "internalType": "bytes16",
          "name": "",
          "type": "bytes16"
        },
        {
          "internalType": "bytes16",
          "name": "",
          "type": "bytes16"
        }
      ],
      "stateMutability": "view",
      "type": "function"
    },
    {
      "inputs": [],
      "name": "getCount",
      "outputs": [
        {
          "internalType": "uint64",
          "name": "",
          "type": "uint64"
        }
      ],
      "stateMutability": "view",
      "type": "function"
    },
    {
      "inputs": [
        {
          "internalType": "uint64",
          "name": "index",
          "type": "uint64"
        }
      ],
      "name": "getExpiry",
      "outputs": [
        {
          "internalType": "uint256",
          "name": "",
          "type": "uint256"
        }
      ],
      "stateMutability": "view",
      "type": "function"
    },
    {
      "inputs": [],
      "name": "getInPlayCount",
      "outputs": [
        {
          "internalType": "uint256",
          "name": "",
          "type": "uint256"
        }
      ],
      "stateMutability": "view",
      "type": "function"
    },
    {
      "inputs": [],
      "name": "getMargin",
      "outputs": [
        {
          "internalType": "uint8",
          "name": "",
          "type": "uint8"
        }
      ],
      "stateMutability": "view",
      "type": "function"
    },
    {
      "inputs": [
        {
          "internalType": "bytes16",
          "name": "marketId",
          "type": "bytes16"
        }
      ],
      "name": "getMarketTotal",
      "outputs": [
        {
          "internalType": "uint256",
          "name": "",
          "type": "uint256"
        }
      ],
      "stateMutability": "view",
      "type": "function"
    },
    {
      "inputs": [
        {
          "internalType": "uint256",
          "name": "wager",
          "type": "uint256"
        },
        {
          "internalType": "uint256",
          "name": "odds",
          "type": "uint256"
        },
        {
          "internalType": "bytes16",
          "name": "propositionId",
          "type": "bytes16"
        },
        {
          "internalType": "bytes16",
          "name": "marketId",
          "type": "bytes16"
        }
      ],
      "name": "getOdds",
      "outputs": [
        {
          "internalType": "uint256",
          "name": "",
          "type": "uint256"
        }
      ],
      "stateMutability": "view",
      "type": "function"
    },
    {
      "inputs": [],
      "name": "getOracleAddress",
      "outputs": [
        {
          "internalType": "address",
          "name": "",
          "type": "address"
        }
      ],
      "stateMutability": "view",
      "type": "function"
    },
    {
      "inputs": [],
      "name": "getOwner",
      "outputs": [
        {
          "internalType": "address",
          "name": "",
          "type": "address"
        }
      ],
      "stateMutability": "view",
      "type": "function"
    },
    {
      "inputs": [
        {
          "internalType": "bytes16",
          "name": "propositionId",
          "type": "bytes16"
        },
        {
          "internalType": "bytes16",
          "name": "marketId",
          "type": "bytes16"
        },
        {
          "internalType": "uint256",
          "name": "wager",
          "type": "uint256"
        },
        {
          "internalType": "uint256",
          "name": "odds",
          "type": "uint256"
        }
      ],
      "name": "getPotentialPayout",
      "outputs": [
        {
          "internalType": "uint256",
          "name": "",
          "type": "uint256"
        }
      ],
      "stateMutability": "view",
      "type": "function"
    },
    {
      "inputs": [],
      "name": "getTotalExposure",
      "outputs": [
        {
          "internalType": "uint256",
          "name": "",
          "type": "uint256"
        }
      ],
      "stateMutability": "view",
      "type": "function"
    },
    {
      "inputs": [],
      "name": "getTotalInPlay",
      "outputs": [
        {
          "internalType": "uint256",
          "name": "",
          "type": "uint256"
        }
      ],
      "stateMutability": "view",
      "type": "function"
    },
    {
      "inputs": [],
      "name": "getVaultAddress",
      "outputs": [
        {
          "internalType": "address",
          "name": "",
          "type": "address"
        }
      ],
      "stateMutability": "view",
      "type": "function"
    },
    {
      "inputs": [
        {
          "internalType": "address",
          "name": "signer",
          "type": "address"
        }
      ],
      "name": "grantSigner",
      "outputs": [],
      "stateMutability": "nonpayable",
      "type": "function"
    },
    {
      "inputs": [
        {
          "internalType": "address",
          "name": "owner",
          "type": "address"
        },
        {
          "internalType": "address",
          "name": "operator",
          "type": "address"
        }
      ],
      "name": "isApprovedForAll",
      "outputs": [
        {
          "internalType": "bool",
          "name": "",
          "type": "bool"
        }
      ],
      "stateMutability": "view",
      "type": "function"
    },
    {
      "inputs": [
        {
          "internalType": "address",
          "name": "signer",
          "type": "address"
        }
      ],
      "name": "isSigner",
      "outputs": [
        {
          "internalType": "bool",
          "name": "",
          "type": "bool"
        }
      ],
      "stateMutability": "view",
      "type": "function"
    },
    {
      "inputs": [
        {
          "components": [
            {
              "internalType": "bytes16",
              "name": "nonce",
              "type": "bytes16"
            },
            {
              "internalType": "bytes16",
              "name": "propositionId",
              "type": "bytes16"
            },
            {
              "internalType": "bytes16",
              "name": "marketId",
              "type": "bytes16"
            },
            {
              "internalType": "uint256",
              "name": "wager",
              "type": "uint256"
            },
            {
              "internalType": "uint256",
              "name": "odds",
              "type": "uint256"
            },
            {
              "internalType": "uint256",
              "name": "close",
              "type": "uint256"
            },
            {
              "internalType": "uint256",
              "name": "end",
              "type": "uint256"
            },
            {
              "components": [
                {
                  "internalType": "uint8",
                  "name": "v",
                  "type": "uint8"
                },
                {
                  "internalType": "bytes32",
                  "name": "r",
                  "type": "bytes32"
                },
                {
                  "internalType": "bytes32",
                  "name": "s",
                  "type": "bytes32"
                }
              ],
              "internalType": "struct SignatureLib.Signature",
              "name": "signature",
              "type": "tuple"
            }
          ],
          "internalType": "struct IMarket.Back[]",
          "name": "backArray",
          "type": "tuple[]"
        }
      ],
      "name": "multiBack",
      "outputs": [
        {
          "internalType": "uint256[]",
          "name": "",
          "type": "uint256[]"
        }
      ],
      "stateMutability": "nonpayable",
      "type": "function"
    },
    {
      "inputs": [],
      "name": "name",
      "outputs": [
        {
          "internalType": "string",
          "name": "",
          "type": "string"
        }
      ],
      "stateMutability": "view",
      "type": "function"
    },
    {
      "inputs": [],
      "name": "owner",
      "outputs": [
        {
          "internalType": "address",
          "name": "",
          "type": "address"
        }
      ],
      "stateMutability": "view",
      "type": "function"
    },
    {
      "inputs": [
        {
          "internalType": "uint256",
          "name": "tokenId",
          "type": "uint256"
        }
      ],
      "name": "ownerOf",
      "outputs": [
        {
          "internalType": "address",
          "name": "",
          "type": "address"
        }
      ],
      "stateMutability": "view",
      "type": "function"
    },
    {
      "inputs": [
        {
          "internalType": "uint64",
          "name": "index",
          "type": "uint64"
        }
      ],
      "name": "refund",
      "outputs": [],
      "stateMutability": "nonpayable",
      "type": "function"
    },
    {
      "inputs": [],
      "name": "renounceOwnership",
      "outputs": [],
      "stateMutability": "nonpayable",
      "type": "function"
    },
    {
      "inputs": [
        {
          "internalType": "address",
          "name": "signer",
          "type": "address"
        }
      ],
      "name": "revokeSigner",
      "outputs": [],
      "stateMutability": "nonpayable",
      "type": "function"
    },
    {
      "inputs": [
        {
          "internalType": "address",
          "name": "from",
          "type": "address"
        },
        {
          "internalType": "address",
          "name": "to",
          "type": "address"
        },
        {
          "internalType": "uint256",
          "name": "tokenId",
          "type": "uint256"
        }
      ],
      "name": "safeTransferFrom",
      "outputs": [],
      "stateMutability": "nonpayable",
      "type": "function"
    },
    {
      "inputs": [
        {
          "internalType": "address",
          "name": "from",
          "type": "address"
        },
        {
          "internalType": "address",
          "name": "to",
          "type": "address"
        },
        {
          "internalType": "uint256",
          "name": "tokenId",
          "type": "uint256"
        },
        {
          "internalType": "bytes",
          "name": "data",
          "type": "bytes"
        }
      ],
      "name": "safeTransferFrom",
      "outputs": [],
      "stateMutability": "nonpayable",
      "type": "function"
    },
    {
      "inputs": [
        {
          "internalType": "uint64",
          "name": "index",
          "type": "uint64"
        },
        {
          "internalType": "bytes16",
          "name": "marketId",
          "type": "bytes16"
        },
        {
          "internalType": "bytes16",
          "name": "propositionId",
          "type": "bytes16"
        },
        {
          "internalType": "uint256",
          "name": "odds",
          "type": "uint256"
        },
        {
          "components": [
            {
              "internalType": "uint8",
              "name": "v",
              "type": "uint8"
            },
            {
              "internalType": "bytes32",
              "name": "r",
              "type": "bytes32"
            },
            {
              "internalType": "bytes32",
              "name": "s",
              "type": "bytes32"
            }
          ],
          "internalType": "struct SignatureLib.Signature",
          "name": "signature",
          "type": "tuple"
        }
      ],
      "name": "scratchAndRefund",
      "outputs": [],
      "stateMutability": "nonpayable",
      "type": "function"
    },
    {
      "inputs": [
        {
          "internalType": "address",
          "name": "operator",
          "type": "address"
        },
        {
          "internalType": "bool",
          "name": "approved",
          "type": "bool"
        }
      ],
      "name": "setApprovalForAll",
      "outputs": [],
      "stateMutability": "nonpayable",
      "type": "function"
    },
    {
      "inputs": [
        {
          "internalType": "uint64",
          "name": "index",
          "type": "uint64"
        }
      ],
      "name": "settle",
      "outputs": [],
      "stateMutability": "nonpayable",
      "type": "function"
    },
    {
      "inputs": [
        {
          "internalType": "bytes16",
          "name": "marketId",
          "type": "bytes16"
        }
      ],
      "name": "settleMarket",
      "outputs": [],
      "stateMutability": "nonpayable",
      "type": "function"
    },
    {
      "inputs": [
        {
          "internalType": "bytes4",
          "name": "interfaceId",
          "type": "bytes4"
        }
      ],
      "name": "supportsInterface",
      "outputs": [
        {
          "internalType": "bool",
          "name": "",
          "type": "bool"
        }
      ],
      "stateMutability": "view",
      "type": "function"
    },
    {
      "inputs": [],
      "name": "symbol",
      "outputs": [
        {
          "internalType": "string",
          "name": "",
          "type": "string"
        }
      ],
      "stateMutability": "view",
      "type": "function"
    },
    {
      "inputs": [],
      "name": "timeout",
      "outputs": [
        {
          "internalType": "uint256",
          "name": "",
          "type": "uint256"
        }
      ],
      "stateMutability": "view",
      "type": "function"
    },
    {
      "inputs": [
        {
          "internalType": "uint256",
          "name": "tokenId",
          "type": "uint256"
        }
      ],
      "name": "tokenURI",
      "outputs": [
        {
          "internalType": "string",
          "name": "",
          "type": "string"
        }
      ],
      "stateMutability": "view",
      "type": "function"
    },
    {
      "inputs": [
        {
          "internalType": "address",
          "name": "from",
          "type": "address"
        },
        {
          "internalType": "address",
          "name": "to",
          "type": "address"
        },
        {
          "internalType": "uint256",
          "name": "tokenId",
          "type": "uint256"
        }
      ],
      "name": "transferFrom",
      "outputs": [],
      "stateMutability": "nonpayable",
      "type": "function"
    },
    {
      "inputs": [
        {
          "internalType": "address",
          "name": "newOwner",
          "type": "address"
        }
      ],
      "name": "transferOwnership",
      "outputs": [],
      "stateMutability": "nonpayable",
      "type": "function"
    }
  ],
  "transactionHash": "0x2ea262e6397fba75b838a913aea36b1fb57a4c609ae190b02efc5a6b88e6c0c4",
  "args": [
    "0xCb3c9a4142A30eD963c2D5879668BE562123803E",
    0,
    5,
    "0x13BF523e506F2F48a20Ea0abEe9Ad5De8bc07d72",
    "https://horse.link/api/nft/prod_goerli/0xCc786B9948B0c33665400f82d3E8518D4Df28447/mUSDT/"
  ],
  "numDeployments": 1,
  "solcInputHash": "bd91955783a505b7a1c38e89c27f1506",
  "bytecode": "0x6101406040523480156200001257600080fd5b50604051620047aa380380620047aa833981016040819052620000359162000294565b6040518060400160405280601381526020017f486f727365204c696e6b2042657420536c6970000000000000000000000000008152506040518060400160405280600681526020016512130b50915560d21b815250620000a46200009e620001fb60201b60201c565b620001ff565b6001620000b283826200044d565b506002620000c182826200044d565b5050506001600160a01b038516620000dd57620000dd62000519565b3060e0526001600160a01b03851660a0819052604080516338d52e0f60e01b815290516338d52e0f916004808201926020929091908290030181865afa1580156200012c573d6000803e3d6000fd5b505050506040513d601f19601f820116820180604052508101906200015291906200052f565b6001600160a01b031660c08190526200016f576200016f62000519565b60ff84166080526001600160a01b038216610100526001601060006200019d6000546001600160a01b031690565b6001600160a01b031681526020810191909152604001600020805460ff19169115159190911790556007620001d382826200044d565b50620001e660ff84166201518062000554565b62ffffff1661012052506200058e9350505050565b3390565b600080546001600160a01b038381166001600160a01b0319831681178455604051919092169283917f8be0079c531659141344cd1fd0a4f28419497f9722a3daafe3b4186f6b6457e09190a35050565b80516001600160a01b03811681146200026757600080fd5b919050565b805160ff811681146200026757600080fd5b634e487b7160e01b600052604160045260246000fd5b600080600080600060a08688031215620002ad57600080fd5b620002b8866200024f565b94506020620002c98188016200026c565b9450620002d9604088016200026c565b9350620002e9606088016200024f565b60808801519093506001600160401b03808211156200030757600080fd5b818901915089601f8301126200031c57600080fd5b8151818111156200033157620003316200027e565b604051601f8201601f19908116603f011681019083821181831017156200035c576200035c6200027e565b816040528281528c868487010111156200037557600080fd5b600093505b828410156200039957848401860151818501870152928501926200037a565b82841115620003ab5760008684830101525b8096505050505050509295509295909350565b600181811c90821680620003d357607f821691505b602082108103620003f457634e487b7160e01b600052602260045260246000fd5b50919050565b601f8211156200044857600081815260208120601f850160051c81016020861015620004235750805b601f850160051c820191505b8181101562000444578281556001016200042f565b5050505b505050565b81516001600160401b038111156200046957620004696200027e565b62000481816200047a8454620003be565b84620003fa565b602080601f831160018114620004b95760008415620004a05750858301515b600019600386901b1c1916600185901b17855562000444565b600085815260208120601f198616915b82811015620004ea57888601518255948401946001909101908401620004c9565b5085821015620005095787850151600019600388901b60f8161c191681555b5050505050600190811b01905550565b634e487b7160e01b600052600160045260246000fd5b6000602082840312156200054257600080fd5b6200054d826200024f565b9392505050565b600062ffffff808316818516818304811182151516156200058557634e487b7160e01b600052601160045260246000fd5b02949350505050565b60805160a05160c05160e051610100516101205161411d6200068d600039600081816104ac01526129cf01526000818161056d01528181610a0b01528181610fbe0152818161152e0152611ff80152600081816124bb0152613250015260008181611b9b01528181611c4f0152818161246f01528181612c5a01528181612d4801528181612ea1015281816130140152818161311401526132820152600081816103f901528181611c2001528181611cbf01528181611da9015281816120da01528181612d1901528181612db801528181612f5a015281816130e50152818161318401528181613228015261330a01526000610338015261411d6000f3fe608060405234801561001057600080fd5b50600436106102695760003560e01c80637b5df1c911610151578063b88d4fde116100c3578063d1e90d6211610087578063d1e90d62146105da578063d7194ccb146105e2578063e4650fac146105f5578063e985e9c514610608578063f26be3fc14610644578063f2fde38b1461064c57600080fd5b8063b88d4fde14610591578063bc985bc9146105a4578063c34b44a0146105ac578063c87b56dd146105bf578063c96121a8146105d257600080fd5b80638da5cb5b116101155780638da5cb5b1461050f57806395d89b4114610528578063a22cb46514610530578063a87d942c14610543578063b108501f14610563578063b18b78dd1461056b57600080fd5b80637b5df1c9146104d65780637df73e27146104e957806388bc76ba146104fc578063893d20e81461050f5780638ac6d2171461052057600080fd5b80634b9ba446116101ea57806365cacaa4116101ae57806365cacaa4146103f75780636b467d151461041d578063702595861461047457806370a082311461049457806370dea79a146104a7578063715018a6146104ce57600080fd5b80634b9ba446146103a357806358439479146103b65780636028421f146103be5780636352211e146103d157806363c724f7146103e457600080fd5b806323b872dd1161023157806323b872dd1461032357806325117b7214610336578063412406651461036a57806342842e0e1461037d57806346e116a61461039057600080fd5b806301ffc9a71461026e57806306fdde0314610296578063081812fc146102ab578063095ea7b3146102d657806312fa3bf1146102eb575b600080fd5b61028161027c3660046136e5565b61065f565b60405190151581526020015b60405180910390f35b61029e6106b1565b60405161028d919061375a565b6102be6102b936600461376d565b610743565b6040516001600160a01b03909116815260200161028d565b6102e96102e436600461379b565b61076a565b005b6103156102f93660046137dd565b6001600160801b0319166000908152600b602052604090205490565b60405190815260200161028d565b6102e96103313660046137fa565b610884565b7f00000000000000000000000000000000000000000000000000000000000000005b60405160ff909116815260200161028d565b6102e9610378366004613857565b6108b5565b6102e961038b3660046137fa565b610ac8565b61031561039e3660046138c4565b610ae3565b6102e96103b136600461390e565b610afc565b600e54610315565b6103156103cc366004613929565b610bf6565b6102be6103df36600461376d565b610c04565b6102e96103f236600461396f565b610c64565b7f00000000000000000000000000000000000000000000000000000000000000006102be565b61043061042b36600461390e565b610cf2565b604080519788526020880196909652948601939093526060850191909152151560808401526001600160801b031990811660a08401521660c082015260e00161028d565b61048761048236600461398c565b610d1d565b60405161028d9190613a01565b6103156104a236600461396f565b610dd6565b6103157f000000000000000000000000000000000000000000000000000000000000000081565b6102e9610e5c565b6103156104e4366004613a45565b610e70565b6102816104f736600461396f565b61113a565b6102e961050a3660046137dd565b61115b565b6000546001600160a01b03166102be565b600f54610315565b61029e611302565b6102e961053e366004613a6c565b611311565b61054b61131c565b6040516001600160401b03909116815260200161028d565b610358600181565b7f00000000000000000000000000000000000000000000000000000000000000006102be565b6102e961059f366004613b35565b611327565b610358600381565b6102e96105ba36600461396f565b611359565b61029e6105cd36600461376d565b6113e4565b600854610315565b610358600281565b6102e96105f036600461390e565b61144b565b61031561060336600461390e565b6116a0565b610281610616366004613bf8565b6001600160a01b03918216600090815260066020908152604080832093909416825291909152205460ff1690565b610358600081565b6102e961065a36600461396f565b6116ab565b60006001600160e01b031982166380ac58cd60e01b148061069057506001600160e01b03198216635b5e139f60e01b145b806106ab57506301ffc9a760e01b6001600160e01b03198316145b92915050565b6060600180546106c090613c26565b80601f01602080910402602001604051908101604052809291908181526020018280546106ec90613c26565b80156107395780601f1061070e57610100808354040283529160200191610739565b820191906000526020600020905b81548152906001019060200180831161071c57829003601f168201915b5050505050905090565b600061074e82611724565b506000908152600560205260409020546001600160a01b031690565b600061077582610c04565b9050806001600160a01b0316836001600160a01b0316036107e75760405162461bcd60e51b815260206004820152602160248201527f4552433732313a20617070726f76616c20746f2063757272656e74206f776e656044820152603960f91b60648201526084015b60405180910390fd5b336001600160a01b038216148061080357506108038133610616565b6108755760405162461bcd60e51b815260206004820152603d60248201527f4552433732313a20617070726f76652063616c6c6572206973206e6f7420746f60448201527f6b656e206f776e6572206f7220617070726f76656420666f7220616c6c00000060648201526084016107de565b61087f8383611783565b505050565b61088e33826117f1565b6108aa5760405162461bcd60e51b81526004016107de90613c5a565b61087f83838361186f565b826001600160801b0319166009866001600160401b0316815481106108dc576108dc613ca7565b600091825260209091206006909102015460801b6001600160801b031916146109625760405162461bcd60e51b815260206004820152603260248201527f73637261746368416e64526566756e643a2070726f706f736974696f6e496420604482015271191bd95cc81b9bdd081b585d18da0818995d60721b60648201526084016107de565b6009856001600160401b03168154811061097e5761097e613ca7565b600091825260209091206005600690920201015460ff16156109f45760405162461bcd60e51b815260206004820152602960248201527f73637261746368416e64526566756e643a204265742068617320616c726561646044820152681e481cd95d1d1b195960ba1b60648201526084016107de565b604051631b62340760e01b81526001600160a01b037f00000000000000000000000000000000000000000000000000000000000000001690631b62340790610a46908790879087908790600401613cf1565b600060405180830381600087803b158015610a6057600080fd5b505af1158015610a74573d6000803e3d6000fd5b5050505060016009866001600160401b031681548110610a9657610a96613ca7565b60009182526020909120600690910201600501805460ff1916911515919091179055610ac1856119e0565b5050505050565b61087f83838360405180602001604052806000815250611327565b6000610af185858585611d85565b90505b949350505050565b60006009826001600160401b031681548110610b1a57610b1a613ca7565b60009182526020918290206040805160e081018252600690930290910180546001600160801b0319608082811b82168652600160801b909204821b169484019490945260018101549183019190915260028101546060830152600381015492820192909252600482015460a082015260059091015460ff1615801560c0830152909150610be95760405162461bcd60e51b815260206004820152601f60248201527f736574746c653a204265742068617320616c726561647920736574746c65640060448201526064016107de565b610bf282611ea6565b5050565b6000610af185858585612201565b6000818152600360205260408120546001600160a01b0316806106ab5760405162461bcd60e51b8152602060048201526018602482015277115490cdcc8c4e881a5b9d985b1a59081d1bdad95b88125160421b60448201526064016107de565b610c6c61223d565b6001600160a01b038116610cce5760405162461bcd60e51b815260206004820152602360248201527f6772616e745369676e65723a20496e76616c6964207369676e6572206164647260448201526265737360e81b60648201526084016107de565b6001600160a01b03166000908152601060205260409020805460ff19166001179055565b6000806000806000806000610d0688612297565b959e949d50929b5090995097509550909350915050565b60606000826001600160401b03811115610d3957610d39613aa5565b604051908082528060200260200182016040528015610d62578160200160208202803683370190505b50905060005b60ff8116841115610dce573685858360ff16818110610d8957610d89613ca7565b905061014002019050610d9b81610e70565b838360ff1681518110610db057610db0613ca7565b60209081029190910101525080610dc681613d34565b915050610d68565b509392505050565b60006001600160a01b038216610e405760405162461bcd60e51b815260206004820152602960248201527f4552433732313a2061646472657373207a65726f206973206e6f7420612076616044820152683634b21037bbb732b960b91b60648201526084016107de565b506001600160a01b031660009081526004602052604090205490565b610e6461223d565b610e6e600061235d565b565b600080610e8060208401846137dd565b610e9060408501602086016137dd565b610ea060608601604087016137dd565b604080516001600160801b0319948516602082015292841660308401529216918101919091526080840135605082015260a0840135607082015260c0840135609082015260b001604051602081830303815290604052805190602001209050610f0c818460e0016123ad565b1515600114610f5d5760405162461bcd60e51b815260206004820152601760248201527f6261636b3a20496e76616c6964207369676e617475726500000000000000000060448201526064016107de565b428360c00135118015610f735750428360a00135115b610fb45760405162461bcd60e51b81526020600482015260126024820152716261636b3a20496e76616c6964206461746560701b60448201526064016107de565b6001600160a01b037f00000000000000000000000000000000000000000000000000000000000000001663b32b880e610ff360608601604087016137dd565b6040516001600160e01b031960e084901b1681526001600160801b03199091166004820152602401602060405180830381865afa158015611038573d6000803e3d6000fd5b505050506040513d601f19601f8201168201806040525081019061105c9190613d53565b156110c15760405162461bcd60e51b815260206004820152602f60248201527f6261636b3a204f7261636c6520726573756c7420616c7265616479207365742060448201526e199bdc881d1a1a5cc81b585c9ad95d608a1b60648201526084016107de565b60006110f56110d660408601602087016137dd565b6110e660608701604088016137dd565b86606001358760800135612201565b90506000811161110757611107613d70565b610af461111a60408601602087016137dd565b61112a60608701604088016137dd565b86606001358760c0013585612463565b6001600160a01b03811660009081526010602052604081205460ff166106ab565b6001600160801b031981166000908152600a60209081526040808320805482518185028101850190935280835291929091908301828280156111ee57602002820191906000526020600020906000905b82829054906101000a90046001600160401b03166001600160401b0316815260200190600801906020826007010492830192600103820291508084116111ab5790505b505083519394506000925050505b81816001600160401b031610156112f757600083826001600160401b03168151811061122a5761122a613ca7565b6020026020010151905060006009826001600160401b03168154811061125257611252613ca7565b600091825260208083206040805160e081018252600690940290910180546001600160801b0319608082811b82168752600160801b909204821b169385019390935260018101549184019190915260028101546060840152600381015491830191909152600481015460a08301526005015460ff16151560c0820181905290925090036112e2576112e282611ea6565b505080806112ef90613d86565b9150506111fc565b50505050565b905090565b6060600280546106c090613c26565b610bf2338383612829565b60006112fd60095490565b61133133836117f1565b61134d5760405162461bcd60e51b81526004016107de90613c5a565b6112f7848484846128f7565b61136161223d565b6001600160a01b0381166113c35760405162461bcd60e51b8152602060048201526024808201527f7265766f6b655369676e65723a20496e76616c6964207369676e6572206164646044820152637265737360e01b60648201526084016107de565b6001600160a01b03166000908152601060205260409020805460ff19169055565b60606113ef82611724565b60006113f961292a565b905060008151116114195760405180602001604052806000815250611444565b8061142384612939565b604051602001611434929190613dac565b6040516020818303038152906040525b9392505050565b6009816001600160401b03168154811061146757611467613ca7565b600091825260209091206005600690920201015460ff16156114cb5760405162461bcd60e51b815260206004820152601f60248201527f726566756e643a204265742068617320616c726561647920736574746c65640060448201526064016107de565b60006009826001600160401b0316815481106114e9576114e9613ca7565b60009182526020822060069190910201546040516325a8f38560e11b8152600160801b90910460801b6001600160801b03198116600483015292506001600160a01b037f00000000000000000000000000000000000000000000000000000000000000001690634b51e70a90602401600060405180830381865afa158015611575573d6000803e3d6000fd5b505050506040513d6000823e601f3d908101601f1916820160405261159d9190810190613ddb565b60208101515190915060005b81811015611657576009856001600160401b0316815481106115cd576115cd613ca7565b906000526020600020906006020160000160009054906101000a900460801b6001600160801b0319168360200151828151811061160c5761160c613ca7565b6020026020010151600001516001600160801b031916036116455760016009866001600160401b031681548110610a9657610a96613ca7565b8061164f81613ef9565b9150506115a9565b5060405162461bcd60e51b815260206004820152601f60248201527f726566756e643a204e6f7420656c696769626c6520666f7220726566756e640060448201526064016107de565b60006106ab826129cb565b6116b361223d565b6001600160a01b0381166117185760405162461bcd60e51b815260206004820152602660248201527f4f776e61626c653a206e6577206f776e657220697320746865207a65726f206160448201526564647265737360d01b60648201526084016107de565b6117218161235d565b50565b6000818152600360205260409020546001600160a01b03166117215760405162461bcd60e51b8152602060048201526018602482015277115490cdcc8c4e881a5b9d985b1a59081d1bdad95b88125160421b60448201526064016107de565b600081815260056020526040902080546001600160a01b0319166001600160a01b03841690811790915581906117b882610c04565b6001600160a01b03167f8c5be1e5ebec7d5bd14f71427d1e84f3dd0314c0f7b2291e5b200ac8c7c3b92560405160405180910390a45050565b6000806117fd83610c04565b9050806001600160a01b0316846001600160a01b0316148061184457506001600160a01b0380821660009081526006602090815260408083209388168352929052205460ff165b80610af45750836001600160a01b031661185d84610743565b6001600160a01b031614949350505050565b826001600160a01b031661188282610c04565b6001600160a01b0316146118a85760405162461bcd60e51b81526004016107de90613f12565b6001600160a01b03821661190a5760405162461bcd60e51b8152602060048201526024808201527f4552433732313a207472616e7366657220746f20746865207a65726f206164646044820152637265737360e01b60648201526084016107de565b6119178383836001612a26565b826001600160a01b031661192a82610c04565b6001600160a01b0316146119505760405162461bcd60e51b81526004016107de90613f12565b600081815260056020908152604080832080546001600160a01b03199081169091556001600160a01b0387811680865260048552838620805460001901905590871680865283862080546001019055868652600390945282852080549092168417909155905184937fddf252ad1be2c89b69c2b068fc378daa952ba7f163c4a11628f55a4df523b3ef91a4505050565b60006009826001600160401b0316815481106119fe576119fe613ca7565b600091825260208083206040805160e081018252600690940290910180546001600160801b0319608082811b82168752600160801b909204821b169385019390935260018101549184019190915260028101546060840152600381015491830191909152600481015460a08301526005015460ff16151560c082015260098054919350906001600160401b038516908110611a9b57611a9b613ca7565b9060005260206000209060060201600101546009846001600160401b031681548110611ac957611ac9613ca7565b906000526020600020906006020160020154611ae59190613f57565b905080600f6000828254611af99190613f57565b9091555050600980546001600160401b038516908110611b1b57611b1b613ca7565b906000526020600020906006020160010154600e6000828254611b3e9190613f57565b909155505060088054906000611b5383613f6e565b91905055506000611b6c846001600160401b0316610c04565b604080850151905163a9059cbb60e01b81526001600160a01b03808416600483015260248201929092529192507f0000000000000000000000000000000000000000000000000000000000000000169063a9059cbb906044016020604051808303816000875af1158015611be4573d6000803e3d6000fd5b505050506040513d601f19601f82011682018060405250810190611c089190613d53565b5060405163a9059cbb60e01b81526001600160a01b037f000000000000000000000000000000000000000000000000000000000000000081166004830152602482018490527f0000000000000000000000000000000000000000000000000000000000000000169063a9059cbb906044016020604051808303816000875af1158015611c98573d6000803e3d6000fd5b505050506040513d601f19601f82011682018060405250810190611cbc9190613d53565b507f00000000000000000000000000000000000000000000000000000000000000006001600160a01b03167f0516911bcc3a0a7412a44601057c0a0a1ec628bde049a84284bc42886653448883604051611d1891815260200190565b60405180910390a260408084015181516001600160401b038716815260208101919091526001600160a01b038316917fe5fd53654bc4ea55a3106f8f2bd57252875afee33cc027448099373ae65408f691015b60405180910390a26112f7846001600160401b0316612aae565b6000600185111580611d98575060018411155b15611da557506001610af4565b60007f00000000000000000000000000000000000000000000000000000000000000006001600160a01b031663b15031fa6040518163ffffffff1660e01b8152600401602060405180830381865afa158015611e05573d6000803e3d6000fd5b505050506040513d601f19601f82011682018060405250810190611e299190613f85565b905080600003611e3d576001915050610af4565b6001600160801b031984166000908152600d6020526040902054811015611e68576001915050610af4565b6001600160801b031984166000908152600d6020526040902054611e8c9082613f57565b90506000611e9b878784612b51565b979650505050505050565b60006009826001600160401b031681548110611ec457611ec4613ca7565b60009182526020918290206040805160e081018252600690930290910180546001600160801b0319608082811b82168652600160801b909204821b16948401949094526001808201549284019290925260028101546060840152600381015493830193909352600483015460a083015260059092015460ff16151560c082015260098054919350906001600160401b038516908110611f6557611f65613ca7565b60009182526020822060069190910201600501805460ff19169215159290921790915580611f92846129cb565b421115611fca5760019150611faf846001600160401b0316610c04565b9050611fc5846001600160401b03166001612bd6565b61217f565b602083015183516040516306c77ce760e01b81526001600160801b03199283166004820152911660248201527f00000000000000000000000000000000000000000000000000000000000000006001600160a01b0316906306c77ce790604401602060405180830381865afa158015612047573d6000803e3d6000fd5b505050506040513d601f19601f8201168201806040525081019061206b9190613f9e565b915060ff82166120cc5760405162461bcd60e51b815260206004820152602660248201527f5f736574746c653a204f7261636c6520646f6573206e6f7420686176652061206044820152651c995cdd5b1d60d21b60648201526084016107de565b60011960ff8316016120fe577f0000000000000000000000000000000000000000000000000000000000000000612110565b612110846001600160401b0316610c04565b9050612125846001600160401b031683612bd6565b6009846001600160401b03168154811061214157612141613ca7565b906000526020600020906006020160010154600e60008282546121649190613f57565b90915550506008805490600061217983613f6e565b91905055505b806001600160a01b03167f7c2e00429f610bdb997681cabbb0ef3197390c07fe90ea4a98ac36438dd4217c856009876001600160401b0316815481106121c7576121c7613ca7565b600091825260209182902060026006909202010154604080516001600160401b0390941684529183015260ff861690820152606001611d6b565b60008061221084848888611d85565b905061223384620f42406122248285613fbb565b61222e9190613fda565b6131ee565b9695505050505050565b6000546001600160a01b03163314610e6e5760405162461bcd60e51b815260206004820181905260248201527f4f776e61626c653a2063616c6c6572206973206e6f7420746865206f776e657260448201526064016107de565b6000806000806000806000806009896001600160401b0316815481106122bf576122bf613ca7565b60009182526020918290206040805160e0810182526006939093029091018054608081811b6001600160801b0319908116808752600160801b909304821b1695850186905260018301549385018490526002830154606086018190526003840154918601829052600484015460a0870181905260059094015460ff16151560c0909601869052939f939e509c50909a50919850919650945092505050565b600080546001600160a01b038381166001600160a01b0319831681178455604051919092169283917f8be0079c531659141344cd1fd0a4f28419497f9722a3daafe3b4186f6b6457e09190a35050565b600080735C3283Be2A8DFbA8808EFe3b7f77A22A23491f12635cff288d85856040518363ffffffff1660e01b81526004016123e9929190613ffc565b602060405180830381865af4158015612406573d6000803e3d6000fd5b505050506040513d601f19601f8201168201806040525081019061242a9190614010565b90506001600160a01b03811661244257612442613d70565b6001600160a01b03811660009081526010602052604090205460ff16610af4565b60006001600160a01b037f0000000000000000000000000000000000000000000000000000000000000000166323b872dd3360405160e083901b6001600160e01b03191681526001600160a01b0391821660048201527f00000000000000000000000000000000000000000000000000000000000000009091166024820152604481018790526064016020604051808303816000875af115801561250b573d6000803e3d6000fd5b505050506040513d601f19601f8201168201806040525081019061252f9190613d53565b506001600160801b031985166000908152600b60205260408120805486929061255990849061402d565b9250508190555083600e6000828254612572919061402d565b90915550506008805490600061258783613ef9565b9190505550600061259760095490565b6001600160801b031988166000908152600d60205260408120805492935085929091906125c590849061402d565b909155506125e190506001600160401b03821687898887613204565b600f60008282546125f2919061402d565b90915550506040805160e0810182526001600160801b03198981168252881660208083018281528385018a81526060850189815260808087018c81524260a08901908152600060c08a0181815260098054600180820183559184529b51985198861c600160801b9990961c98909802949094177f6e1540171b6c0c960b71a7020d9f60077f6af931a8bbf590da0223dacf75c7af6006909b029a8b015594517f6e1540171b6c0c960b71a7020d9f60077f6af931a8bbf590da0223dacf75c7b08a015592517f6e1540171b6c0c960b71a7020d9f60077f6af931a8bbf590da0223dacf75c7b1890155517f6e1540171b6c0c960b71a7020d9f60077f6af931a8bbf590da0223dacf75c7b288015590517f6e1540171b6c0c960b71a7020d9f60077f6af931a8bbf590da0223dacf75c7b3870155517f6e1540171b6c0c960b71a7020d9f60077f6af931a8bbf590da0223dacf75c7b4909501805460ff191695151595909517909455918352600a81529282208054918201815582529190206004820401805460039092166008026101000a6001600160401b0381810219909316928416029190911790556127b033826001600160401b0316613360565b604080516001600160401b03831681526001600160801b031989811660208301528816818301526060810187905260808101859052905133917f1d273ea6a1aea94de32fd06a09ab8046dff8e3261c5a4ecaa5e1a5705f3342ec919081900360a00190a26001600160401b031690505b95945050505050565b816001600160a01b0316836001600160a01b03160361288a5760405162461bcd60e51b815260206004820152601960248201527f4552433732313a20617070726f766520746f2063616c6c65720000000000000060448201526064016107de565b6001600160a01b03838116600081815260066020908152604080832094871680845294825291829020805460ff191686151590811790915591519182527f17307eab39ab6107e8899845ad3d59bd9653f200f220920489ca2b5937696c31910160405180910390a3505050565b61290284848461186f565b61290e848484846134f9565b6112f75760405162461bcd60e51b81526004016107de90614045565b6060600780546106c090613c26565b60606000612946836135f7565b60010190506000816001600160401b0381111561296557612965613aa5565b6040519080825280601f01601f19166020018201604052801561298f576020820181803683370190505b5090508181016020015b600019016f181899199a1a9b1b9c1cb0b131b232b360811b600a86061a8153600a850494508461299957509392505050565b60007f00000000000000000000000000000000000000000000000000000000000000006009836001600160401b031681548110612a0a57612a0a613ca7565b9060005260206000209060060201600301546106ab919061402d565b60018111156112f7576001600160a01b03841615612a6c576001600160a01b03841660009081526004602052604081208054839290612a66908490613f57565b90915550505b6001600160a01b038316156112f7576001600160a01b03831660009081526004602052604081208054839290612aa390849061402d565b909155505050505050565b6000612ab982610c04565b9050612ac9816000846001612a26565b612ad282610c04565b600083815260056020908152604080832080546001600160a01b03199081169091556001600160a01b0385168085526004845282852080546000190190558785526003909352818420805490911690555192935084927fddf252ad1be2c89b69c2b068fc378daa952ba7f163c4a11628f55a4df523b3ef908390a45050565b60405163a19dec4360e01b81526004810184905260248101839052604481018290526000907312915261E6EF038aFd32F6C8edF559aE11abfbEA9063a19dec4390606401602060405180830381865af4158015612bb2573d6000803e3d6000fd5b505050506040513d601f19601f82011682018060405250810190610af49190613f85565b600060098381548110612beb57612beb613ca7565b9060005260206000209060060201600201549050600060098481548110612c1457612c14613ca7565b600091825260208220600160069092020101549150612c338284613f57565b905080600f6000828254612c479190613f57565b909155505060021960ff851601612e20577f00000000000000000000000000000000000000000000000000000000000000006001600160a01b031663a9059cbb612c9087610c04565b6040516001600160e01b031960e084901b1681526001600160a01b039091166004820152602481018590526044016020604051808303816000875af1158015612cdd573d6000803e3d6000fd5b505050506040513d601f19601f82011682018060405250810190612d019190613d53565b5060405163a9059cbb60e01b81526001600160a01b037f000000000000000000000000000000000000000000000000000000000000000081166004830152602482018390527f0000000000000000000000000000000000000000000000000000000000000000169063a9059cbb906044016020604051808303816000875af1158015612d91573d6000803e3d6000fd5b505050506040513d601f19601f82011682018060405250810190612db59190613d53565b507f00000000000000000000000000000000000000000000000000000000000000006001600160a01b03167f0516911bcc3a0a7412a44601057c0a0a1ec628bde049a84284bc42886653448882604051612e1191815260200190565b60405180910390a25050505050565b4260098681548110612e3457612e34613ca7565b90600052602060002090600602016003015410612e935760405162461bcd60e51b815260206004820181905260248201527f5f7061796f75743a205061796f75742064617465206e6f74207265616368656460448201526064016107de565b60001960ff851601612f4a577f00000000000000000000000000000000000000000000000000000000000000006001600160a01b031663a9059cbb612ed787610c04565b6040516001600160e01b031960e084901b1681526001600160a01b039091166004820152602481018690526044016020604051808303816000875af1158015612f24573d6000803e3d6000fd5b505050506040513d601f19601f82011682018060405250810190612f489190613d53565b505b60011960ff851601610ac15760007f00000000000000000000000000000000000000000000000000000000000000006001600160a01b031663679aefce6040518163ffffffff1660e01b8152600401602060405180830381865afa158015612fb6573d6000803e3d6000fd5b505050506040513d601f19601f82011682018060405250810190612fda9190613f85565b9050620186a08111612fee57612fee613d70565b6000620186a0612ffe8385613fbb565b6130089190613fda565b9050808511156130ce577f00000000000000000000000000000000000000000000000000000000000000006001600160a01b031663a9059cbb6130536000546001600160a01b031690565b61305d8489613f57565b6040516001600160e01b031960e085901b1681526001600160a01b03909216600483015260248201526044016020604051808303816000875af11580156130a8573d6000803e3d6000fd5b505050506040513d601f19601f820116820180604052508101906130cc9190613d53565b505b60405163a9059cbb60e01b81526001600160a01b037f000000000000000000000000000000000000000000000000000000000000000081166004830152602482018390527f0000000000000000000000000000000000000000000000000000000000000000169063a9059cbb906044016020604051808303816000875af115801561315d573d6000803e3d6000fd5b505050506040513d601f19601f820116820180604052508101906131819190613d53565b507f00000000000000000000000000000000000000000000000000000000000000006001600160a01b03167f0516911bcc3a0a7412a44601057c0a0a1ec628bde049a84284bc428866534488826040516131dd91815260200190565b60405180910390a250505050505050565b60008183116131fd5781611444565b5090919050565b6000806132118484613f57565b6040516323b872dd60e01b81526001600160a01b037f0000000000000000000000000000000000000000000000000000000000000000811660048301527f000000000000000000000000000000000000000000000000000000000000000081166024830152604482018390529192507f0000000000000000000000000000000000000000000000000000000000000000909116906323b872dd906064016020604051808303816000875af11580156132cd573d6000803e3d6000fd5b505050506040513d601f19601f820116820180604052508101906132f19190613d53565b5060408051888152602081018390526001600160a01b037f000000000000000000000000000000000000000000000000000000000000000016917feae9cfbc77fdd40ca899f36b608256063b2bc9d8178b0220f7ad513e178d6730910160405180910390a29695505050505050565b6001600160a01b0382166133b65760405162461bcd60e51b815260206004820181905260248201527f4552433732313a206d696e7420746f20746865207a65726f206164647265737360448201526064016107de565b6000818152600360205260409020546001600160a01b03161561341b5760405162461bcd60e51b815260206004820152601c60248201527f4552433732313a20746f6b656e20616c7265616479206d696e7465640000000060448201526064016107de565b613429600083836001612a26565b6000818152600360205260409020546001600160a01b03161561348e5760405162461bcd60e51b815260206004820152601c60248201527f4552433732313a20746f6b656e20616c7265616479206d696e7465640000000060448201526064016107de565b6001600160a01b038216600081815260046020908152604080832080546001019055848352600390915280822080546001600160a01b0319168417905551839291907fddf252ad1be2c89b69c2b068fc378daa952ba7f163c4a11628f55a4df523b3ef908290a45050565b60006001600160a01b0384163b156135ef57604051630a85bd0160e11b81526001600160a01b0385169063150b7a029061353d903390899088908890600401614097565b6020604051808303816000875af1925050508015613578575060408051601f3d908101601f19168201909252613575918101906140ca565b60015b6135d5573d8080156135a6576040519150601f19603f3d011682016040523d82523d6000602084013e6135ab565b606091505b5080516000036135cd5760405162461bcd60e51b81526004016107de90614045565b805181602001fd5b6001600160e01b031916630a85bd0160e11b149050610af4565b506001610af4565b60008072184f03e93ff9f4daa797ed6e38ed64bf6a1f0160401b83106136365772184f03e93ff9f4daa797ed6e38ed64bf6a1f0160401b830492506040015b6d04ee2d6d415b85acef81000000008310613662576d04ee2d6d415b85acef8100000000830492506020015b662386f26fc10000831061368057662386f26fc10000830492506010015b6305f5e1008310613698576305f5e100830492506008015b61271083106136ac57612710830492506004015b606483106136be576064830492506002015b600a83106106ab5760010192915050565b6001600160e01b03198116811461172157600080fd5b6000602082840312156136f757600080fd5b8135611444816136cf565b60005b8381101561371d578181015183820152602001613705565b838111156112f75750506000910152565b60008151808452613746816020860160208601613702565b601f01601f19169290920160200192915050565b602081526000611444602083018461372e565b60006020828403121561377f57600080fd5b5035919050565b6001600160a01b038116811461172157600080fd5b600080604083850312156137ae57600080fd5b82356137b981613786565b946020939093013593505050565b6001600160801b03198116811461172157600080fd5b6000602082840312156137ef57600080fd5b8135611444816137c7565b60008060006060848603121561380f57600080fd5b833561381a81613786565b9250602084013561382a81613786565b929592945050506040919091013590565b80356001600160401b038116811461385257600080fd5b919050565b600080600080600085870360e081121561387057600080fd5b6138798761383b565b95506020870135613889816137c7565b94506040870135613899816137c7565b93506060878101359350607f19820112156138b357600080fd5b506080860190509295509295909350565b600080600080608085870312156138da57600080fd5b843593506020850135925060408501356138f3816137c7565b91506060850135613903816137c7565b939692955090935050565b60006020828403121561392057600080fd5b6114448261383b565b6000806000806080858703121561393f57600080fd5b843561394a816137c7565b9350602085013561395a816137c7565b93969395505050506040820135916060013590565b60006020828403121561398157600080fd5b813561144481613786565b6000806020838503121561399f57600080fd5b82356001600160401b03808211156139b657600080fd5b818501915085601f8301126139ca57600080fd5b8135818111156139d957600080fd5b866020610140830285010111156139ef57600080fd5b60209290920196919550909350505050565b6020808252825182820181905260009190848201906040850190845b81811015613a3957835183529284019291840191600101613a1d565b50909695505050505050565b60006101408284031215613a5857600080fd5b50919050565b801515811461172157600080fd5b60008060408385031215613a7f57600080fd5b8235613a8a81613786565b91506020830135613a9a81613a5e565b809150509250929050565b634e487b7160e01b600052604160045260246000fd5b604080519081016001600160401b0381118282101715613add57613add613aa5565b60405290565b604051606081016001600160401b0381118282101715613add57613add613aa5565b604051601f8201601f191681016001600160401b0381118282101715613b2d57613b2d613aa5565b604052919050565b60008060008060808587031215613b4b57600080fd5b8435613b5681613786565b9350602085810135613b6781613786565b93506040860135925060608601356001600160401b0380821115613b8a57600080fd5b818801915088601f830112613b9e57600080fd5b813581811115613bb057613bb0613aa5565b613bc2601f8201601f19168501613b05565b91508082528984828501011115613bd857600080fd5b808484018584013760008482840101525080935050505092959194509250565b60008060408385031215613c0b57600080fd5b8235613c1681613786565b91506020830135613a9a81613786565b600181811c90821680613c3a57607f821691505b602082108103613a5857634e487b7160e01b600052602260045260246000fd5b6020808252602d908201527f4552433732313a2063616c6c6572206973206e6f7420746f6b656e206f776e6560408201526c1c881bdc88185c1c1c9bdd9959609a1b606082015260800190565b634e487b7160e01b600052603260045260246000fd5b60ff8116811461172157600080fd5b8035613cd781613cbd565b60ff16825260208181013590830152604090810135910152565b6001600160801b03198581168252841660208201526040810183905260c081016128206060830184613ccc565b634e487b7160e01b600052601160045260246000fd5b600060ff821660ff8103613d4a57613d4a613d1e565b60010192915050565b600060208284031215613d6557600080fd5b815161144481613a5e565b634e487b7160e01b600052600160045260246000fd5b60006001600160401b03808316818103613da257613da2613d1e565b6001019392505050565b60008351613dbe818460208801613702565b835190830190613dd2818360208801613702565b01949350505050565b60006020808385031215613dee57600080fd5b82516001600160401b0380821115613e0557600080fd5b81850191506040808388031215613e1b57600080fd5b613e23613abb565b8351613e2e816137c7565b81528385015183811115613e4157600080fd5b80850194505087601f850112613e5657600080fd5b835183811115613e6857613e68613aa5565b613e76868260051b01613b05565b8181528681019450606091820286018701918a831115613e9557600080fd5b958701955b82871015613ee65780878c031215613eb25760008081fd5b613eba613ae3565b8751613ec5816137c7565b81528789015189820152858801518682015286529586019594870194613e9a565b5095820195909552979650505050505050565b600060018201613f0b57613f0b613d1e565b5060010190565b60208082526025908201527f4552433732313a207472616e736665722066726f6d20696e636f72726563742060408201526437bbb732b960d91b606082015260800190565b600082821015613f6957613f69613d1e565b500390565b600081613f7d57613f7d613d1e565b506000190190565b600060208284031215613f9757600080fd5b5051919050565b600060208284031215613fb057600080fd5b815161144481613cbd565b6000816000190483118215151615613fd557613fd5613d1e565b500290565b600082613ff757634e487b7160e01b600052601260045260246000fd5b500490565b828152608081016114446020830184613ccc565b60006020828403121561402257600080fd5b815161144481613786565b6000821982111561404057614040613d1e565b500190565b60208082526032908201527f4552433732313a207472616e7366657220746f206e6f6e20455243373231526560408201527131b2b4bb32b91034b6b83632b6b2b73a32b960711b606082015260800190565b6001600160a01b03858116825284166020820152604081018390526080606082018190526000906122339083018461372e565b6000602082840312156140dc57600080fd5b8151611444816136cf56fea2646970667358221220490ef5c8138a745f6f2b517367e9cae291b872fcbdf43c99dcf2ae49ab2f58ed64736f6c634300080f0033",
  "deployedBytecode": "0x608060405234801561001057600080fd5b50600436106102695760003560e01c80637b5df1c911610151578063b88d4fde116100c3578063d1e90d6211610087578063d1e90d62146105da578063d7194ccb146105e2578063e4650fac146105f5578063e985e9c514610608578063f26be3fc14610644578063f2fde38b1461064c57600080fd5b8063b88d4fde14610591578063bc985bc9146105a4578063c34b44a0146105ac578063c87b56dd146105bf578063c96121a8146105d257600080fd5b80638da5cb5b116101155780638da5cb5b1461050f57806395d89b4114610528578063a22cb46514610530578063a87d942c14610543578063b108501f14610563578063b18b78dd1461056b57600080fd5b80637b5df1c9146104d65780637df73e27146104e957806388bc76ba146104fc578063893d20e81461050f5780638ac6d2171461052057600080fd5b80634b9ba446116101ea57806365cacaa4116101ae57806365cacaa4146103f75780636b467d151461041d578063702595861461047457806370a082311461049457806370dea79a146104a7578063715018a6146104ce57600080fd5b80634b9ba446146103a357806358439479146103b65780636028421f146103be5780636352211e146103d157806363c724f7146103e457600080fd5b806323b872dd1161023157806323b872dd1461032357806325117b7214610336578063412406651461036a57806342842e0e1461037d57806346e116a61461039057600080fd5b806301ffc9a71461026e57806306fdde0314610296578063081812fc146102ab578063095ea7b3146102d657806312fa3bf1146102eb575b600080fd5b61028161027c3660046136e5565b61065f565b60405190151581526020015b60405180910390f35b61029e6106b1565b60405161028d919061375a565b6102be6102b936600461376d565b610743565b6040516001600160a01b03909116815260200161028d565b6102e96102e436600461379b565b61076a565b005b6103156102f93660046137dd565b6001600160801b0319166000908152600b602052604090205490565b60405190815260200161028d565b6102e96103313660046137fa565b610884565b7f00000000000000000000000000000000000000000000000000000000000000005b60405160ff909116815260200161028d565b6102e9610378366004613857565b6108b5565b6102e961038b3660046137fa565b610ac8565b61031561039e3660046138c4565b610ae3565b6102e96103b136600461390e565b610afc565b600e54610315565b6103156103cc366004613929565b610bf6565b6102be6103df36600461376d565b610c04565b6102e96103f236600461396f565b610c64565b7f00000000000000000000000000000000000000000000000000000000000000006102be565b61043061042b36600461390e565b610cf2565b604080519788526020880196909652948601939093526060850191909152151560808401526001600160801b031990811660a08401521660c082015260e00161028d565b61048761048236600461398c565b610d1d565b60405161028d9190613a01565b6103156104a236600461396f565b610dd6565b6103157f000000000000000000000000000000000000000000000000000000000000000081565b6102e9610e5c565b6103156104e4366004613a45565b610e70565b6102816104f736600461396f565b61113a565b6102e961050a3660046137dd565b61115b565b6000546001600160a01b03166102be565b600f54610315565b61029e611302565b6102e961053e366004613a6c565b611311565b61054b61131c565b6040516001600160401b03909116815260200161028d565b610358600181565b7f00000000000000000000000000000000000000000000000000000000000000006102be565b6102e961059f366004613b35565b611327565b610358600381565b6102e96105ba36600461396f565b611359565b61029e6105cd36600461376d565b6113e4565b600854610315565b610358600281565b6102e96105f036600461390e565b61144b565b61031561060336600461390e565b6116a0565b610281610616366004613bf8565b6001600160a01b03918216600090815260066020908152604080832093909416825291909152205460ff1690565b610358600081565b6102e961065a36600461396f565b6116ab565b60006001600160e01b031982166380ac58cd60e01b148061069057506001600160e01b03198216635b5e139f60e01b145b806106ab57506301ffc9a760e01b6001600160e01b03198316145b92915050565b6060600180546106c090613c26565b80601f01602080910402602001604051908101604052809291908181526020018280546106ec90613c26565b80156107395780601f1061070e57610100808354040283529160200191610739565b820191906000526020600020905b81548152906001019060200180831161071c57829003601f168201915b5050505050905090565b600061074e82611724565b506000908152600560205260409020546001600160a01b031690565b600061077582610c04565b9050806001600160a01b0316836001600160a01b0316036107e75760405162461bcd60e51b815260206004820152602160248201527f4552433732313a20617070726f76616c20746f2063757272656e74206f776e656044820152603960f91b60648201526084015b60405180910390fd5b336001600160a01b038216148061080357506108038133610616565b6108755760405162461bcd60e51b815260206004820152603d60248201527f4552433732313a20617070726f76652063616c6c6572206973206e6f7420746f60448201527f6b656e206f776e6572206f7220617070726f76656420666f7220616c6c00000060648201526084016107de565b61087f8383611783565b505050565b61088e33826117f1565b6108aa5760405162461bcd60e51b81526004016107de90613c5a565b61087f83838361186f565b826001600160801b0319166009866001600160401b0316815481106108dc576108dc613ca7565b600091825260209091206006909102015460801b6001600160801b031916146109625760405162461bcd60e51b815260206004820152603260248201527f73637261746368416e64526566756e643a2070726f706f736974696f6e496420604482015271191bd95cc81b9bdd081b585d18da0818995d60721b60648201526084016107de565b6009856001600160401b03168154811061097e5761097e613ca7565b600091825260209091206005600690920201015460ff16156109f45760405162461bcd60e51b815260206004820152602960248201527f73637261746368416e64526566756e643a204265742068617320616c726561646044820152681e481cd95d1d1b195960ba1b60648201526084016107de565b604051631b62340760e01b81526001600160a01b037f00000000000000000000000000000000000000000000000000000000000000001690631b62340790610a46908790879087908790600401613cf1565b600060405180830381600087803b158015610a6057600080fd5b505af1158015610a74573d6000803e3d6000fd5b5050505060016009866001600160401b031681548110610a9657610a96613ca7565b60009182526020909120600690910201600501805460ff1916911515919091179055610ac1856119e0565b5050505050565b61087f83838360405180602001604052806000815250611327565b6000610af185858585611d85565b90505b949350505050565b60006009826001600160401b031681548110610b1a57610b1a613ca7565b60009182526020918290206040805160e081018252600690930290910180546001600160801b0319608082811b82168652600160801b909204821b169484019490945260018101549183019190915260028101546060830152600381015492820192909252600482015460a082015260059091015460ff1615801560c0830152909150610be95760405162461bcd60e51b815260206004820152601f60248201527f736574746c653a204265742068617320616c726561647920736574746c65640060448201526064016107de565b610bf282611ea6565b5050565b6000610af185858585612201565b6000818152600360205260408120546001600160a01b0316806106ab5760405162461bcd60e51b8152602060048201526018602482015277115490cdcc8c4e881a5b9d985b1a59081d1bdad95b88125160421b60448201526064016107de565b610c6c61223d565b6001600160a01b038116610cce5760405162461bcd60e51b815260206004820152602360248201527f6772616e745369676e65723a20496e76616c6964207369676e6572206164647260448201526265737360e81b60648201526084016107de565b6001600160a01b03166000908152601060205260409020805460ff19166001179055565b6000806000806000806000610d0688612297565b959e949d50929b5090995097509550909350915050565b60606000826001600160401b03811115610d3957610d39613aa5565b604051908082528060200260200182016040528015610d62578160200160208202803683370190505b50905060005b60ff8116841115610dce573685858360ff16818110610d8957610d89613ca7565b905061014002019050610d9b81610e70565b838360ff1681518110610db057610db0613ca7565b60209081029190910101525080610dc681613d34565b915050610d68565b509392505050565b60006001600160a01b038216610e405760405162461bcd60e51b815260206004820152602960248201527f4552433732313a2061646472657373207a65726f206973206e6f7420612076616044820152683634b21037bbb732b960b91b60648201526084016107de565b506001600160a01b031660009081526004602052604090205490565b610e6461223d565b610e6e600061235d565b565b600080610e8060208401846137dd565b610e9060408501602086016137dd565b610ea060608601604087016137dd565b604080516001600160801b0319948516602082015292841660308401529216918101919091526080840135605082015260a0840135607082015260c0840135609082015260b001604051602081830303815290604052805190602001209050610f0c818460e0016123ad565b1515600114610f5d5760405162461bcd60e51b815260206004820152601760248201527f6261636b3a20496e76616c6964207369676e617475726500000000000000000060448201526064016107de565b428360c00135118015610f735750428360a00135115b610fb45760405162461bcd60e51b81526020600482015260126024820152716261636b3a20496e76616c6964206461746560701b60448201526064016107de565b6001600160a01b037f00000000000000000000000000000000000000000000000000000000000000001663b32b880e610ff360608601604087016137dd565b6040516001600160e01b031960e084901b1681526001600160801b03199091166004820152602401602060405180830381865afa158015611038573d6000803e3d6000fd5b505050506040513d601f19601f8201168201806040525081019061105c9190613d53565b156110c15760405162461bcd60e51b815260206004820152602f60248201527f6261636b3a204f7261636c6520726573756c7420616c7265616479207365742060448201526e199bdc881d1a1a5cc81b585c9ad95d608a1b60648201526084016107de565b60006110f56110d660408601602087016137dd565b6110e660608701604088016137dd565b86606001358760800135612201565b90506000811161110757611107613d70565b610af461111a60408601602087016137dd565b61112a60608701604088016137dd565b86606001358760c0013585612463565b6001600160a01b03811660009081526010602052604081205460ff166106ab565b6001600160801b031981166000908152600a60209081526040808320805482518185028101850190935280835291929091908301828280156111ee57602002820191906000526020600020906000905b82829054906101000a90046001600160401b03166001600160401b0316815260200190600801906020826007010492830192600103820291508084116111ab5790505b505083519394506000925050505b81816001600160401b031610156112f757600083826001600160401b03168151811061122a5761122a613ca7565b6020026020010151905060006009826001600160401b03168154811061125257611252613ca7565b600091825260208083206040805160e081018252600690940290910180546001600160801b0319608082811b82168752600160801b909204821b169385019390935260018101549184019190915260028101546060840152600381015491830191909152600481015460a08301526005015460ff16151560c0820181905290925090036112e2576112e282611ea6565b505080806112ef90613d86565b9150506111fc565b50505050565b905090565b6060600280546106c090613c26565b610bf2338383612829565b60006112fd60095490565b61133133836117f1565b61134d5760405162461bcd60e51b81526004016107de90613c5a565b6112f7848484846128f7565b61136161223d565b6001600160a01b0381166113c35760405162461bcd60e51b8152602060048201526024808201527f7265766f6b655369676e65723a20496e76616c6964207369676e6572206164646044820152637265737360e01b60648201526084016107de565b6001600160a01b03166000908152601060205260409020805460ff19169055565b60606113ef82611724565b60006113f961292a565b905060008151116114195760405180602001604052806000815250611444565b8061142384612939565b604051602001611434929190613dac565b6040516020818303038152906040525b9392505050565b6009816001600160401b03168154811061146757611467613ca7565b600091825260209091206005600690920201015460ff16156114cb5760405162461bcd60e51b815260206004820152601f60248201527f726566756e643a204265742068617320616c726561647920736574746c65640060448201526064016107de565b60006009826001600160401b0316815481106114e9576114e9613ca7565b60009182526020822060069190910201546040516325a8f38560e11b8152600160801b90910460801b6001600160801b03198116600483015292506001600160a01b037f00000000000000000000000000000000000000000000000000000000000000001690634b51e70a90602401600060405180830381865afa158015611575573d6000803e3d6000fd5b505050506040513d6000823e601f3d908101601f1916820160405261159d9190810190613ddb565b60208101515190915060005b81811015611657576009856001600160401b0316815481106115cd576115cd613ca7565b906000526020600020906006020160000160009054906101000a900460801b6001600160801b0319168360200151828151811061160c5761160c613ca7565b6020026020010151600001516001600160801b031916036116455760016009866001600160401b031681548110610a9657610a96613ca7565b8061164f81613ef9565b9150506115a9565b5060405162461bcd60e51b815260206004820152601f60248201527f726566756e643a204e6f7420656c696769626c6520666f7220726566756e640060448201526064016107de565b60006106ab826129cb565b6116b361223d565b6001600160a01b0381166117185760405162461bcd60e51b815260206004820152602660248201527f4f776e61626c653a206e6577206f776e657220697320746865207a65726f206160448201526564647265737360d01b60648201526084016107de565b6117218161235d565b50565b6000818152600360205260409020546001600160a01b03166117215760405162461bcd60e51b8152602060048201526018602482015277115490cdcc8c4e881a5b9d985b1a59081d1bdad95b88125160421b60448201526064016107de565b600081815260056020526040902080546001600160a01b0319166001600160a01b03841690811790915581906117b882610c04565b6001600160a01b03167f8c5be1e5ebec7d5bd14f71427d1e84f3dd0314c0f7b2291e5b200ac8c7c3b92560405160405180910390a45050565b6000806117fd83610c04565b9050806001600160a01b0316846001600160a01b0316148061184457506001600160a01b0380821660009081526006602090815260408083209388168352929052205460ff165b80610af45750836001600160a01b031661185d84610743565b6001600160a01b031614949350505050565b826001600160a01b031661188282610c04565b6001600160a01b0316146118a85760405162461bcd60e51b81526004016107de90613f12565b6001600160a01b03821661190a5760405162461bcd60e51b8152602060048201526024808201527f4552433732313a207472616e7366657220746f20746865207a65726f206164646044820152637265737360e01b60648201526084016107de565b6119178383836001612a26565b826001600160a01b031661192a82610c04565b6001600160a01b0316146119505760405162461bcd60e51b81526004016107de90613f12565b600081815260056020908152604080832080546001600160a01b03199081169091556001600160a01b0387811680865260048552838620805460001901905590871680865283862080546001019055868652600390945282852080549092168417909155905184937fddf252ad1be2c89b69c2b068fc378daa952ba7f163c4a11628f55a4df523b3ef91a4505050565b60006009826001600160401b0316815481106119fe576119fe613ca7565b600091825260208083206040805160e081018252600690940290910180546001600160801b0319608082811b82168752600160801b909204821b169385019390935260018101549184019190915260028101546060840152600381015491830191909152600481015460a08301526005015460ff16151560c082015260098054919350906001600160401b038516908110611a9b57611a9b613ca7565b9060005260206000209060060201600101546009846001600160401b031681548110611ac957611ac9613ca7565b906000526020600020906006020160020154611ae59190613f57565b905080600f6000828254611af99190613f57565b9091555050600980546001600160401b038516908110611b1b57611b1b613ca7565b906000526020600020906006020160010154600e6000828254611b3e9190613f57565b909155505060088054906000611b5383613f6e565b91905055506000611b6c846001600160401b0316610c04565b604080850151905163a9059cbb60e01b81526001600160a01b03808416600483015260248201929092529192507f0000000000000000000000000000000000000000000000000000000000000000169063a9059cbb906044016020604051808303816000875af1158015611be4573d6000803e3d6000fd5b505050506040513d601f19601f82011682018060405250810190611c089190613d53565b5060405163a9059cbb60e01b81526001600160a01b037f000000000000000000000000000000000000000000000000000000000000000081166004830152602482018490527f0000000000000000000000000000000000000000000000000000000000000000169063a9059cbb906044016020604051808303816000875af1158015611c98573d6000803e3d6000fd5b505050506040513d601f19601f82011682018060405250810190611cbc9190613d53565b507f00000000000000000000000000000000000000000000000000000000000000006001600160a01b03167f0516911bcc3a0a7412a44601057c0a0a1ec628bde049a84284bc42886653448883604051611d1891815260200190565b60405180910390a260408084015181516001600160401b038716815260208101919091526001600160a01b038316917fe5fd53654bc4ea55a3106f8f2bd57252875afee33cc027448099373ae65408f691015b60405180910390a26112f7846001600160401b0316612aae565b6000600185111580611d98575060018411155b15611da557506001610af4565b60007f00000000000000000000000000000000000000000000000000000000000000006001600160a01b031663b15031fa6040518163ffffffff1660e01b8152600401602060405180830381865afa158015611e05573d6000803e3d6000fd5b505050506040513d601f19601f82011682018060405250810190611e299190613f85565b905080600003611e3d576001915050610af4565b6001600160801b031984166000908152600d6020526040902054811015611e68576001915050610af4565b6001600160801b031984166000908152600d6020526040902054611e8c9082613f57565b90506000611e9b878784612b51565b979650505050505050565b60006009826001600160401b031681548110611ec457611ec4613ca7565b60009182526020918290206040805160e081018252600690930290910180546001600160801b0319608082811b82168652600160801b909204821b16948401949094526001808201549284019290925260028101546060840152600381015493830193909352600483015460a083015260059092015460ff16151560c082015260098054919350906001600160401b038516908110611f6557611f65613ca7565b60009182526020822060069190910201600501805460ff19169215159290921790915580611f92846129cb565b421115611fca5760019150611faf846001600160401b0316610c04565b9050611fc5846001600160401b03166001612bd6565b61217f565b602083015183516040516306c77ce760e01b81526001600160801b03199283166004820152911660248201527f00000000000000000000000000000000000000000000000000000000000000006001600160a01b0316906306c77ce790604401602060405180830381865afa158015612047573d6000803e3d6000fd5b505050506040513d601f19601f8201168201806040525081019061206b9190613f9e565b915060ff82166120cc5760405162461bcd60e51b815260206004820152602660248201527f5f736574746c653a204f7261636c6520646f6573206e6f7420686176652061206044820152651c995cdd5b1d60d21b60648201526084016107de565b60011960ff8316016120fe577f0000000000000000000000000000000000000000000000000000000000000000612110565b612110846001600160401b0316610c04565b9050612125846001600160401b031683612bd6565b6009846001600160401b03168154811061214157612141613ca7565b906000526020600020906006020160010154600e60008282546121649190613f57565b90915550506008805490600061217983613f6e565b91905055505b806001600160a01b03167f7c2e00429f610bdb997681cabbb0ef3197390c07fe90ea4a98ac36438dd4217c856009876001600160401b0316815481106121c7576121c7613ca7565b600091825260209182902060026006909202010154604080516001600160401b0390941684529183015260ff861690820152606001611d6b565b60008061221084848888611d85565b905061223384620f42406122248285613fbb565b61222e9190613fda565b6131ee565b9695505050505050565b6000546001600160a01b03163314610e6e5760405162461bcd60e51b815260206004820181905260248201527f4f776e61626c653a2063616c6c6572206973206e6f7420746865206f776e657260448201526064016107de565b6000806000806000806000806009896001600160401b0316815481106122bf576122bf613ca7565b60009182526020918290206040805160e0810182526006939093029091018054608081811b6001600160801b0319908116808752600160801b909304821b1695850186905260018301549385018490526002830154606086018190526003840154918601829052600484015460a0870181905260059094015460ff16151560c0909601869052939f939e509c50909a50919850919650945092505050565b600080546001600160a01b038381166001600160a01b0319831681178455604051919092169283917f8be0079c531659141344cd1fd0a4f28419497f9722a3daafe3b4186f6b6457e09190a35050565b60008073__$47464c6f7588c8075b5d384b19d082a8ec$__635cff288d85856040518363ffffffff1660e01b81526004016123e9929190613ffc565b602060405180830381865af4158015612406573d6000803e3d6000fd5b505050506040513d601f19601f8201168201806040525081019061242a9190614010565b90506001600160a01b03811661244257612442613d70565b6001600160a01b03811660009081526010602052604090205460ff16610af4565b60006001600160a01b037f0000000000000000000000000000000000000000000000000000000000000000166323b872dd3360405160e083901b6001600160e01b03191681526001600160a01b0391821660048201527f00000000000000000000000000000000000000000000000000000000000000009091166024820152604481018790526064016020604051808303816000875af115801561250b573d6000803e3d6000fd5b505050506040513d601f19601f8201168201806040525081019061252f9190613d53565b506001600160801b031985166000908152600b60205260408120805486929061255990849061402d565b9250508190555083600e6000828254612572919061402d565b90915550506008805490600061258783613ef9565b9190505550600061259760095490565b6001600160801b031988166000908152600d60205260408120805492935085929091906125c590849061402d565b909155506125e190506001600160401b03821687898887613204565b600f60008282546125f2919061402d565b90915550506040805160e0810182526001600160801b03198981168252881660208083018281528385018a81526060850189815260808087018c81524260a08901908152600060c08a0181815260098054600180820183559184529b51985198861c600160801b9990961c98909802949094177f6e1540171b6c0c960b71a7020d9f60077f6af931a8bbf590da0223dacf75c7af6006909b029a8b015594517f6e1540171b6c0c960b71a7020d9f60077f6af931a8bbf590da0223dacf75c7b08a015592517f6e1540171b6c0c960b71a7020d9f60077f6af931a8bbf590da0223dacf75c7b1890155517f6e1540171b6c0c960b71a7020d9f60077f6af931a8bbf590da0223dacf75c7b288015590517f6e1540171b6c0c960b71a7020d9f60077f6af931a8bbf590da0223dacf75c7b3870155517f6e1540171b6c0c960b71a7020d9f60077f6af931a8bbf590da0223dacf75c7b4909501805460ff191695151595909517909455918352600a81529282208054918201815582529190206004820401805460039092166008026101000a6001600160401b0381810219909316928416029190911790556127b033826001600160401b0316613360565b604080516001600160401b03831681526001600160801b031989811660208301528816818301526060810187905260808101859052905133917f1d273ea6a1aea94de32fd06a09ab8046dff8e3261c5a4ecaa5e1a5705f3342ec919081900360a00190a26001600160401b031690505b95945050505050565b816001600160a01b0316836001600160a01b03160361288a5760405162461bcd60e51b815260206004820152601960248201527f4552433732313a20617070726f766520746f2063616c6c65720000000000000060448201526064016107de565b6001600160a01b03838116600081815260066020908152604080832094871680845294825291829020805460ff191686151590811790915591519182527f17307eab39ab6107e8899845ad3d59bd9653f200f220920489ca2b5937696c31910160405180910390a3505050565b61290284848461186f565b61290e848484846134f9565b6112f75760405162461bcd60e51b81526004016107de90614045565b6060600780546106c090613c26565b60606000612946836135f7565b60010190506000816001600160401b0381111561296557612965613aa5565b6040519080825280601f01601f19166020018201604052801561298f576020820181803683370190505b5090508181016020015b600019016f181899199a1a9b1b9c1cb0b131b232b360811b600a86061a8153600a850494508461299957509392505050565b60007f00000000000000000000000000000000000000000000000000000000000000006009836001600160401b031681548110612a0a57612a0a613ca7565b9060005260206000209060060201600301546106ab919061402d565b60018111156112f7576001600160a01b03841615612a6c576001600160a01b03841660009081526004602052604081208054839290612a66908490613f57565b90915550505b6001600160a01b038316156112f7576001600160a01b03831660009081526004602052604081208054839290612aa390849061402d565b909155505050505050565b6000612ab982610c04565b9050612ac9816000846001612a26565b612ad282610c04565b600083815260056020908152604080832080546001600160a01b03199081169091556001600160a01b0385168085526004845282852080546000190190558785526003909352818420805490911690555192935084927fddf252ad1be2c89b69c2b068fc378daa952ba7f163c4a11628f55a4df523b3ef908390a45050565b60405163a19dec4360e01b815260048101849052602481018390526044810182905260009073__$488e0037c7b108d422da68056570fe35d6$__9063a19dec4390606401602060405180830381865af4158015612bb2573d6000803e3d6000fd5b505050506040513d601f19601f82011682018060405250810190610af49190613f85565b600060098381548110612beb57612beb613ca7565b9060005260206000209060060201600201549050600060098481548110612c1457612c14613ca7565b600091825260208220600160069092020101549150612c338284613f57565b905080600f6000828254612c479190613f57565b909155505060021960ff851601612e20577f00000000000000000000000000000000000000000000000000000000000000006001600160a01b031663a9059cbb612c9087610c04565b6040516001600160e01b031960e084901b1681526001600160a01b039091166004820152602481018590526044016020604051808303816000875af1158015612cdd573d6000803e3d6000fd5b505050506040513d601f19601f82011682018060405250810190612d019190613d53565b5060405163a9059cbb60e01b81526001600160a01b037f000000000000000000000000000000000000000000000000000000000000000081166004830152602482018390527f0000000000000000000000000000000000000000000000000000000000000000169063a9059cbb906044016020604051808303816000875af1158015612d91573d6000803e3d6000fd5b505050506040513d601f19601f82011682018060405250810190612db59190613d53565b507f00000000000000000000000000000000000000000000000000000000000000006001600160a01b03167f0516911bcc3a0a7412a44601057c0a0a1ec628bde049a84284bc42886653448882604051612e1191815260200190565b60405180910390a25050505050565b4260098681548110612e3457612e34613ca7565b90600052602060002090600602016003015410612e935760405162461bcd60e51b815260206004820181905260248201527f5f7061796f75743a205061796f75742064617465206e6f74207265616368656460448201526064016107de565b60001960ff851601612f4a577f00000000000000000000000000000000000000000000000000000000000000006001600160a01b031663a9059cbb612ed787610c04565b6040516001600160e01b031960e084901b1681526001600160a01b039091166004820152602481018690526044016020604051808303816000875af1158015612f24573d6000803e3d6000fd5b505050506040513d601f19601f82011682018060405250810190612f489190613d53565b505b60011960ff851601610ac15760007f00000000000000000000000000000000000000000000000000000000000000006001600160a01b031663679aefce6040518163ffffffff1660e01b8152600401602060405180830381865afa158015612fb6573d6000803e3d6000fd5b505050506040513d601f19601f82011682018060405250810190612fda9190613f85565b9050620186a08111612fee57612fee613d70565b6000620186a0612ffe8385613fbb565b6130089190613fda565b9050808511156130ce577f00000000000000000000000000000000000000000000000000000000000000006001600160a01b031663a9059cbb6130536000546001600160a01b031690565b61305d8489613f57565b6040516001600160e01b031960e085901b1681526001600160a01b03909216600483015260248201526044016020604051808303816000875af11580156130a8573d6000803e3d6000fd5b505050506040513d601f19601f820116820180604052508101906130cc9190613d53565b505b60405163a9059cbb60e01b81526001600160a01b037f000000000000000000000000000000000000000000000000000000000000000081166004830152602482018390527f0000000000000000000000000000000000000000000000000000000000000000169063a9059cbb906044016020604051808303816000875af115801561315d573d6000803e3d6000fd5b505050506040513d601f19601f820116820180604052508101906131819190613d53565b507f00000000000000000000000000000000000000000000000000000000000000006001600160a01b03167f0516911bcc3a0a7412a44601057c0a0a1ec628bde049a84284bc428866534488826040516131dd91815260200190565b60405180910390a250505050505050565b60008183116131fd5781611444565b5090919050565b6000806132118484613f57565b6040516323b872dd60e01b81526001600160a01b037f0000000000000000000000000000000000000000000000000000000000000000811660048301527f000000000000000000000000000000000000000000000000000000000000000081166024830152604482018390529192507f0000000000000000000000000000000000000000000000000000000000000000909116906323b872dd906064016020604051808303816000875af11580156132cd573d6000803e3d6000fd5b505050506040513d601f19601f820116820180604052508101906132f19190613d53565b5060408051888152602081018390526001600160a01b037f000000000000000000000000000000000000000000000000000000000000000016917feae9cfbc77fdd40ca899f36b608256063b2bc9d8178b0220f7ad513e178d6730910160405180910390a29695505050505050565b6001600160a01b0382166133b65760405162461bcd60e51b815260206004820181905260248201527f4552433732313a206d696e7420746f20746865207a65726f206164647265737360448201526064016107de565b6000818152600360205260409020546001600160a01b03161561341b5760405162461bcd60e51b815260206004820152601c60248201527f4552433732313a20746f6b656e20616c7265616479206d696e7465640000000060448201526064016107de565b613429600083836001612a26565b6000818152600360205260409020546001600160a01b03161561348e5760405162461bcd60e51b815260206004820152601c60248201527f4552433732313a20746f6b656e20616c7265616479206d696e7465640000000060448201526064016107de565b6001600160a01b038216600081815260046020908152604080832080546001019055848352600390915280822080546001600160a01b0319168417905551839291907fddf252ad1be2c89b69c2b068fc378daa952ba7f163c4a11628f55a4df523b3ef908290a45050565b60006001600160a01b0384163b156135ef57604051630a85bd0160e11b81526001600160a01b0385169063150b7a029061353d903390899088908890600401614097565b6020604051808303816000875af1925050508015613578575060408051601f3d908101601f19168201909252613575918101906140ca565b60015b6135d5573d8080156135a6576040519150601f19603f3d011682016040523d82523d6000602084013e6135ab565b606091505b5080516000036135cd5760405162461bcd60e51b81526004016107de90614045565b805181602001fd5b6001600160e01b031916630a85bd0160e11b149050610af4565b506001610af4565b60008072184f03e93ff9f4daa797ed6e38ed64bf6a1f0160401b83106136365772184f03e93ff9f4daa797ed6e38ed64bf6a1f0160401b830492506040015b6d04ee2d6d415b85acef81000000008310613662576d04ee2d6d415b85acef8100000000830492506020015b662386f26fc10000831061368057662386f26fc10000830492506010015b6305f5e1008310613698576305f5e100830492506008015b61271083106136ac57612710830492506004015b606483106136be576064830492506002015b600a83106106ab5760010192915050565b6001600160e01b03198116811461172157600080fd5b6000602082840312156136f757600080fd5b8135611444816136cf565b60005b8381101561371d578181015183820152602001613705565b838111156112f75750506000910152565b60008151808452613746816020860160208601613702565b601f01601f19169290920160200192915050565b602081526000611444602083018461372e565b60006020828403121561377f57600080fd5b5035919050565b6001600160a01b038116811461172157600080fd5b600080604083850312156137ae57600080fd5b82356137b981613786565b946020939093013593505050565b6001600160801b03198116811461172157600080fd5b6000602082840312156137ef57600080fd5b8135611444816137c7565b60008060006060848603121561380f57600080fd5b833561381a81613786565b9250602084013561382a81613786565b929592945050506040919091013590565b80356001600160401b038116811461385257600080fd5b919050565b600080600080600085870360e081121561387057600080fd5b6138798761383b565b95506020870135613889816137c7565b94506040870135613899816137c7565b93506060878101359350607f19820112156138b357600080fd5b506080860190509295509295909350565b600080600080608085870312156138da57600080fd5b843593506020850135925060408501356138f3816137c7565b91506060850135613903816137c7565b939692955090935050565b60006020828403121561392057600080fd5b6114448261383b565b6000806000806080858703121561393f57600080fd5b843561394a816137c7565b9350602085013561395a816137c7565b93969395505050506040820135916060013590565b60006020828403121561398157600080fd5b813561144481613786565b6000806020838503121561399f57600080fd5b82356001600160401b03808211156139b657600080fd5b818501915085601f8301126139ca57600080fd5b8135818111156139d957600080fd5b866020610140830285010111156139ef57600080fd5b60209290920196919550909350505050565b6020808252825182820181905260009190848201906040850190845b81811015613a3957835183529284019291840191600101613a1d565b50909695505050505050565b60006101408284031215613a5857600080fd5b50919050565b801515811461172157600080fd5b60008060408385031215613a7f57600080fd5b8235613a8a81613786565b91506020830135613a9a81613a5e565b809150509250929050565b634e487b7160e01b600052604160045260246000fd5b604080519081016001600160401b0381118282101715613add57613add613aa5565b60405290565b604051606081016001600160401b0381118282101715613add57613add613aa5565b604051601f8201601f191681016001600160401b0381118282101715613b2d57613b2d613aa5565b604052919050565b60008060008060808587031215613b4b57600080fd5b8435613b5681613786565b9350602085810135613b6781613786565b93506040860135925060608601356001600160401b0380821115613b8a57600080fd5b818801915088601f830112613b9e57600080fd5b813581811115613bb057613bb0613aa5565b613bc2601f8201601f19168501613b05565b91508082528984828501011115613bd857600080fd5b808484018584013760008482840101525080935050505092959194509250565b60008060408385031215613c0b57600080fd5b8235613c1681613786565b91506020830135613a9a81613786565b600181811c90821680613c3a57607f821691505b602082108103613a5857634e487b7160e01b600052602260045260246000fd5b6020808252602d908201527f4552433732313a2063616c6c6572206973206e6f7420746f6b656e206f776e6560408201526c1c881bdc88185c1c1c9bdd9959609a1b606082015260800190565b634e487b7160e01b600052603260045260246000fd5b60ff8116811461172157600080fd5b8035613cd781613cbd565b60ff16825260208181013590830152604090810135910152565b6001600160801b03198581168252841660208201526040810183905260c081016128206060830184613ccc565b634e487b7160e01b600052601160045260246000fd5b600060ff821660ff8103613d4a57613d4a613d1e565b60010192915050565b600060208284031215613d6557600080fd5b815161144481613a5e565b634e487b7160e01b600052600160045260246000fd5b60006001600160401b03808316818103613da257613da2613d1e565b6001019392505050565b60008351613dbe818460208801613702565b835190830190613dd2818360208801613702565b01949350505050565b60006020808385031215613dee57600080fd5b82516001600160401b0380821115613e0557600080fd5b81850191506040808388031215613e1b57600080fd5b613e23613abb565b8351613e2e816137c7565b81528385015183811115613e4157600080fd5b80850194505087601f850112613e5657600080fd5b835183811115613e6857613e68613aa5565b613e76868260051b01613b05565b8181528681019450606091820286018701918a831115613e9557600080fd5b958701955b82871015613ee65780878c031215613eb25760008081fd5b613eba613ae3565b8751613ec5816137c7565b81528789015189820152858801518682015286529586019594870194613e9a565b5095820195909552979650505050505050565b600060018201613f0b57613f0b613d1e565b5060010190565b60208082526025908201527f4552433732313a207472616e736665722066726f6d20696e636f72726563742060408201526437bbb732b960d91b606082015260800190565b600082821015613f6957613f69613d1e565b500390565b600081613f7d57613f7d613d1e565b506000190190565b600060208284031215613f9757600080fd5b5051919050565b600060208284031215613fb057600080fd5b815161144481613cbd565b6000816000190483118215151615613fd557613fd5613d1e565b500290565b600082613ff757634e487b7160e01b600052601260045260246000fd5b500490565b828152608081016114446020830184613ccc565b60006020828403121561402257600080fd5b815161144481613786565b6000821982111561404057614040613d1e565b500190565b60208082526032908201527f4552433732313a207472616e7366657220746f206e6f6e20455243373231526560408201527131b2b4bb32b91034b6b83632b6b2b73a32b960711b606082015260800190565b6001600160a01b03858116825284166020820152604081018390526080606082018190526000906122339083018461372e565b6000602082840312156140dc57600080fd5b8151611444816136cf56fea2646970667358221220490ef5c8138a745f6f2b517367e9cae291b872fcbdf43c99dcf2ae49ab2f58ed64736f6c634300080f0033",
  "libraries": {
    "SignatureLib": "0x5C3283Be2A8DFbA8808EFe3b7f77A22A23491f12",
    "OddsLib": "0x12915261E6EF038aFd32F6C8edF559aE11abfbEA"
  },
  "devdoc": {
    "kind": "dev",
    "methods": {
      "approve(address,uint256)": {
        "details": "See {IERC721-approve}."
      },
      "balanceOf(address)": {
        "details": "See {IERC721-balanceOf}."
      },
      "getApproved(uint256)": {
        "details": "See {IERC721-getApproved}."
      },
      "isApprovedForAll(address,address)": {
        "details": "See {IERC721-isApprovedForAll}."
      },
      "name()": {
        "details": "See {IERC721Metadata-name}."
      },
      "owner()": {
        "details": "Returns the address of the current owner."
      },
      "ownerOf(uint256)": {
        "details": "See {IERC721-ownerOf}."
      },
      "renounceOwnership()": {
        "details": "Leaves the contract without owner. It will not be possible to call `onlyOwner` functions anymore. Can only be called by the current owner. NOTE: Renouncing ownership will leave the contract without an owner, thereby removing any functionality that is only available to the owner."
      },
      "safeTransferFrom(address,address,uint256)": {
        "details": "See {IERC721-safeTransferFrom}."
      },
      "safeTransferFrom(address,address,uint256,bytes)": {
        "details": "See {IERC721-safeTransferFrom}."
      },
      "setApprovalForAll(address,bool)": {
        "details": "See {IERC721-setApprovalForAll}."
      },
      "supportsInterface(bytes4)": {
        "details": "See {IERC165-supportsInterface}."
      },
      "symbol()": {
        "details": "See {IERC721Metadata-symbol}."
      },
      "tokenURI(uint256)": {
        "details": "See {IERC721Metadata-tokenURI}."
      },
      "transferFrom(address,address,uint256)": {
        "details": "See {IERC721-transferFrom}."
      },
      "transferOwnership(address)": {
        "details": "Transfers ownership of the contract to a new account (`newOwner`). Can only be called by the current owner."
      }
    },
    "version": 1
  },
  "userdoc": {
    "kind": "user",
    "methods": {},
    "version": 1
  },
  "storageLayout": {
    "storage": [
      {
        "astId": 2722,
        "contract": "contracts/Market.sol:Market",
        "label": "_owner",
        "offset": 0,
        "slot": "0",
        "type": "t_address"
      },
      {
        "astId": 5039,
        "contract": "contracts/Market.sol:Market",
        "label": "_name",
        "offset": 0,
        "slot": "1",
        "type": "t_string_storage"
      },
      {
        "astId": 5041,
        "contract": "contracts/Market.sol:Market",
        "label": "_symbol",
        "offset": 0,
        "slot": "2",
        "type": "t_string_storage"
      },
      {
        "astId": 5045,
        "contract": "contracts/Market.sol:Market",
        "label": "_owners",
        "offset": 0,
        "slot": "3",
        "type": "t_mapping(t_uint256,t_address)"
      },
      {
        "astId": 5049,
        "contract": "contracts/Market.sol:Market",
        "label": "_balances",
        "offset": 0,
        "slot": "4",
        "type": "t_mapping(t_address,t_uint256)"
      },
      {
        "astId": 5053,
        "contract": "contracts/Market.sol:Market",
        "label": "_tokenApprovals",
        "offset": 0,
        "slot": "5",
        "type": "t_mapping(t_uint256,t_address)"
      },
      {
        "astId": 5059,
        "contract": "contracts/Market.sol:Market",
        "label": "_operatorApprovals",
        "offset": 0,
        "slot": "6",
        "type": "t_mapping(t_address,t_mapping(t_address,t_bool))"
      },
      {
        "astId": 12014,
        "contract": "contracts/Market.sol:Market",
        "label": "_metadataBaseURI",
        "offset": 0,
        "slot": "7",
        "type": "t_string_storage"
      },
      {
        "astId": 12028,
        "contract": "contracts/Market.sol:Market",
        "label": "_inplayCount",
        "offset": 0,
        "slot": "8",
        "type": "t_uint256"
      },
      {
        "astId": 12032,
        "contract": "contracts/Market.sol:Market",
        "label": "_bets",
        "offset": 0,
        "slot": "9",
        "type": "t_array(t_struct(Bet)12000_storage)dyn_storage"
      },
      {
        "astId": 12037,
        "contract": "contracts/Market.sol:Market",
        "label": "_marketBets",
        "offset": 0,
        "slot": "10",
        "type": "t_mapping(t_bytes16,t_array(t_uint64)dyn_storage)"
      },
      {
        "astId": 12041,
        "contract": "contracts/Market.sol:Market",
        "label": "_marketTotal",
        "offset": 0,
        "slot": "11",
        "type": "t_mapping(t_bytes16,t_uint256)"
      },
      {
        "astId": 12047,
        "contract": "contracts/Market.sol:Market",
        "label": "_marketBetAmount",
        "offset": 0,
        "slot": "12",
        "type": "t_mapping(t_bytes16,t_mapping(t_uint16,t_uint256))"
      },
      {
        "astId": 12051,
        "contract": "contracts/Market.sol:Market",
        "label": "_potentialPayout",
        "offset": 0,
        "slot": "13",
        "type": "t_mapping(t_bytes16,t_uint256)"
      },
      {
        "astId": 12053,
        "contract": "contracts/Market.sol:Market",
        "label": "_totalInPlay",
        "offset": 0,
        "slot": "14",
        "type": "t_uint256"
      },
      {
        "astId": 12055,
        "contract": "contracts/Market.sol:Market",
        "label": "_totalExposure",
        "offset": 0,
        "slot": "15",
        "type": "t_uint256"
      },
      {
        "astId": 12061,
        "contract": "contracts/Market.sol:Market",
        "label": "_signers",
        "offset": 0,
        "slot": "16",
        "type": "t_mapping(t_address,t_bool)"
      }
    ],
    "types": {
      "t_address": {
        "encoding": "inplace",
        "label": "address",
        "numberOfBytes": "20"
      },
      "t_array(t_struct(Bet)12000_storage)dyn_storage": {
        "base": "t_struct(Bet)12000_storage",
        "encoding": "dynamic_array",
        "label": "struct Bet[]",
        "numberOfBytes": "32"
      },
      "t_array(t_uint64)dyn_storage": {
        "base": "t_uint64",
        "encoding": "dynamic_array",
        "label": "uint64[]",
        "numberOfBytes": "32"
      },
      "t_bool": {
        "encoding": "inplace",
        "label": "bool",
        "numberOfBytes": "1"
      },
      "t_bytes16": {
        "encoding": "inplace",
        "label": "bytes16",
        "numberOfBytes": "16"
      },
      "t_mapping(t_address,t_bool)": {
        "encoding": "mapping",
        "key": "t_address",
        "label": "mapping(address => bool)",
        "numberOfBytes": "32",
        "value": "t_bool"
      },
      "t_mapping(t_address,t_mapping(t_address,t_bool))": {
        "encoding": "mapping",
        "key": "t_address",
        "label": "mapping(address => mapping(address => bool))",
        "numberOfBytes": "32",
        "value": "t_mapping(t_address,t_bool)"
      },
      "t_mapping(t_address,t_uint256)": {
        "encoding": "mapping",
        "key": "t_address",
        "label": "mapping(address => uint256)",
        "numberOfBytes": "32",
        "value": "t_uint256"
      },
      "t_mapping(t_bytes16,t_array(t_uint64)dyn_storage)": {
        "encoding": "mapping",
        "key": "t_bytes16",
        "label": "mapping(bytes16 => uint64[])",
        "numberOfBytes": "32",
        "value": "t_array(t_uint64)dyn_storage"
      },
      "t_mapping(t_bytes16,t_mapping(t_uint16,t_uint256))": {
        "encoding": "mapping",
        "key": "t_bytes16",
        "label": "mapping(bytes16 => mapping(uint16 => uint256))",
        "numberOfBytes": "32",
        "value": "t_mapping(t_uint16,t_uint256)"
      },
      "t_mapping(t_bytes16,t_uint256)": {
        "encoding": "mapping",
        "key": "t_bytes16",
        "label": "mapping(bytes16 => uint256)",
        "numberOfBytes": "32",
        "value": "t_uint256"
      },
      "t_mapping(t_uint16,t_uint256)": {
        "encoding": "mapping",
        "key": "t_uint16",
        "label": "mapping(uint16 => uint256)",
        "numberOfBytes": "32",
        "value": "t_uint256"
      },
      "t_mapping(t_uint256,t_address)": {
        "encoding": "mapping",
        "key": "t_uint256",
        "label": "mapping(uint256 => address)",
        "numberOfBytes": "32",
        "value": "t_address"
      },
      "t_string_storage": {
        "encoding": "bytes",
        "label": "string",
        "numberOfBytes": "32"
      },
      "t_struct(Bet)12000_storage": {
        "encoding": "inplace",
        "label": "struct Bet",
        "members": [
          {
            "astId": 11987,
            "contract": "contracts/Market.sol:Market",
            "label": "propositionId",
            "offset": 0,
            "slot": "0",
            "type": "t_bytes16"
          },
          {
            "astId": 11989,
            "contract": "contracts/Market.sol:Market",
            "label": "marketId",
            "offset": 16,
            "slot": "0",
            "type": "t_bytes16"
          },
          {
            "astId": 11991,
            "contract": "contracts/Market.sol:Market",
            "label": "amount",
            "offset": 0,
            "slot": "1",
            "type": "t_uint256"
          },
          {
            "astId": 11993,
            "contract": "contracts/Market.sol:Market",
            "label": "payout",
            "offset": 0,
            "slot": "2",
            "type": "t_uint256"
          },
          {
            "astId": 11995,
            "contract": "contracts/Market.sol:Market",
            "label": "payoutDate",
            "offset": 0,
            "slot": "3",
            "type": "t_uint256"
          },
          {
            "astId": 11997,
            "contract": "contracts/Market.sol:Market",
            "label": "created",
            "offset": 0,
            "slot": "4",
            "type": "t_uint256"
          },
          {
            "astId": 11999,
            "contract": "contracts/Market.sol:Market",
            "label": "settled",
            "offset": 0,
            "slot": "5",
            "type": "t_bool"
          }
        ],
        "numberOfBytes": "192"
      },
      "t_uint16": {
        "encoding": "inplace",
        "label": "uint16",
        "numberOfBytes": "2"
      },
      "t_uint256": {
        "encoding": "inplace",
        "label": "uint256",
        "numberOfBytes": "32"
      },
      "t_uint64": {
        "encoding": "inplace",
        "label": "uint64",
        "numberOfBytes": "8"
      }
    }
  }
}