{
  "address": "0x68Fbadd68804211F671D9484AF97df37Af3840Ec",
  "abi": [
    {
      "inputs": [
        {
          "internalType": "address",
          "name": "vault",
          "type": "address"
        },
        {
          "internalType": "uint8",
          "name": "margin",
          "type": "uint8"
        },
        {
          "internalType": "uint8",
          "name": "timeoutDays",
          "type": "uint8"
        },
        {
          "internalType": "address",
          "name": "oracle",
          "type": "address"
        },
        {
          "internalType": "string",
          "name": "metadataBaseURI",
          "type": "string"
        }
      ],
      "stateMutability": "nonpayable",
      "type": "constructor"
    },
    {
      "anonymous": false,
      "inputs": [
        {
          "indexed": true,
          "internalType": "address",
          "name": "owner",
          "type": "address"
        },
        {
          "indexed": true,
          "internalType": "address",
          "name": "approved",
          "type": "address"
        },
        {
          "indexed": true,
          "internalType": "uint256",
          "name": "tokenId",
          "type": "uint256"
        }
      ],
      "name": "Approval",
      "type": "event"
    },
    {
      "anonymous": false,
      "inputs": [
        {
          "indexed": true,
          "internalType": "address",
          "name": "owner",
          "type": "address"
        },
        {
          "indexed": true,
          "internalType": "address",
          "name": "operator",
          "type": "address"
        },
        {
          "indexed": false,
          "internalType": "bool",
          "name": "approved",
          "type": "bool"
        }
      ],
      "name": "ApprovalForAll",
      "type": "event"
    },
    {
      "anonymous": false,
      "inputs": [
        {
          "indexed": true,
          "internalType": "address",
          "name": "vault",
          "type": "address"
        },
        {
          "indexed": false,
          "internalType": "uint256",
          "name": "index",
          "type": "uint256"
        },
        {
          "indexed": false,
          "internalType": "uint256",
          "name": "amount",
          "type": "uint256"
        }
      ],
      "name": "Borrowed",
      "type": "event"
    },
    {
      "anonymous": false,
      "inputs": [
        {
          "indexed": true,
          "internalType": "address",
          "name": "previousOwner",
          "type": "address"
        },
        {
          "indexed": true,
          "internalType": "address",
          "name": "newOwner",
          "type": "address"
        }
      ],
      "name": "OwnershipTransferred",
      "type": "event"
    },
    {
      "anonymous": false,
      "inputs": [
        {
          "indexed": false,
          "internalType": "uint256",
          "name": "index",
          "type": "uint256"
        },
        {
          "indexed": false,
          "internalType": "bytes16",
          "name": "propositionId",
          "type": "bytes16"
        },
        {
          "indexed": false,
          "internalType": "bytes16",
          "name": "marketId",
          "type": "bytes16"
        },
        {
          "indexed": false,
          "internalType": "uint256",
          "name": "amount",
          "type": "uint256"
        },
        {
          "indexed": false,
          "internalType": "uint256",
          "name": "payout",
          "type": "uint256"
        },
        {
          "indexed": true,
          "internalType": "address",
          "name": "owner",
          "type": "address"
        }
      ],
      "name": "Placed",
      "type": "event"
    },
    {
      "anonymous": false,
      "inputs": [
        {
          "indexed": false,
          "internalType": "uint256",
          "name": "index",
          "type": "uint256"
        },
        {
          "indexed": false,
          "internalType": "uint256",
          "name": "amount",
          "type": "uint256"
        },
        {
          "indexed": true,
          "internalType": "address",
          "name": "recipient",
          "type": "address"
        }
      ],
      "name": "Refunded",
      "type": "event"
    },
    {
      "anonymous": false,
      "inputs": [
        {
          "indexed": true,
          "internalType": "address",
          "name": "vault",
          "type": "address"
        },
        {
          "indexed": false,
          "internalType": "uint256",
          "name": "amount",
          "type": "uint256"
        }
      ],
      "name": "Repaid",
      "type": "event"
    },
    {
      "anonymous": false,
      "inputs": [
        {
          "indexed": false,
          "internalType": "uint256",
          "name": "index",
          "type": "uint256"
        },
        {
          "indexed": false,
          "internalType": "uint256",
          "name": "payout",
          "type": "uint256"
        },
        {
          "indexed": false,
          "internalType": "uint8",
          "name": "result",
          "type": "uint8"
        },
        {
          "indexed": true,
          "internalType": "address",
          "name": "recipient",
          "type": "address"
        }
      ],
      "name": "Settled",
      "type": "event"
    },
    {
      "anonymous": false,
      "inputs": [
        {
          "indexed": true,
          "internalType": "address",
          "name": "from",
          "type": "address"
        },
        {
          "indexed": true,
          "internalType": "address",
          "name": "to",
          "type": "address"
        },
        {
          "indexed": true,
          "internalType": "uint256",
          "name": "tokenId",
          "type": "uint256"
        }
      ],
      "name": "Transfer",
      "type": "event"
    },
    {
      "inputs": [],
      "name": "LOSER",
      "outputs": [
        {
          "internalType": "uint8",
          "name": "",
          "type": "uint8"
        }
      ],
      "stateMutability": "view",
      "type": "function"
    },
    {
      "inputs": [],
      "name": "NULL",
      "outputs": [
        {
          "internalType": "uint8",
          "name": "",
          "type": "uint8"
        }
      ],
      "stateMutability": "view",
      "type": "function"
    },
    {
      "inputs": [],
      "name": "SCRATCHED",
      "outputs": [
        {
          "internalType": "uint8",
          "name": "",
          "type": "uint8"
        }
      ],
      "stateMutability": "view",
      "type": "function"
    },
    {
      "inputs": [],
      "name": "WINNER",
      "outputs": [
        {
          "internalType": "uint8",
          "name": "",
          "type": "uint8"
        }
      ],
      "stateMutability": "view",
      "type": "function"
    },
    {
      "inputs": [
        {
          "internalType": "address",
          "name": "to",
          "type": "address"
        },
        {
          "internalType": "uint256",
          "name": "tokenId",
          "type": "uint256"
        }
      ],
      "name": "approve",
      "outputs": [],
      "stateMutability": "nonpayable",
      "type": "function"
    },
    {
      "inputs": [
        {
          "components": [
            {
              "internalType": "bytes16",
              "name": "nonce",
              "type": "bytes16"
            },
            {
              "internalType": "bytes16",
              "name": "propositionId",
              "type": "bytes16"
            },
            {
              "internalType": "bytes16",
              "name": "marketId",
              "type": "bytes16"
            },
            {
              "internalType": "uint256",
              "name": "wager",
              "type": "uint256"
            },
            {
              "internalType": "uint256",
              "name": "odds",
              "type": "uint256"
            },
            {
              "internalType": "uint256",
              "name": "close",
              "type": "uint256"
            },
            {
              "internalType": "uint256",
              "name": "end",
              "type": "uint256"
            },
            {
              "components": [
                {
                  "internalType": "uint8",
                  "name": "v",
                  "type": "uint8"
                },
                {
                  "internalType": "bytes32",
                  "name": "r",
                  "type": "bytes32"
                },
                {
                  "internalType": "bytes32",
                  "name": "s",
                  "type": "bytes32"
                }
              ],
              "internalType": "struct SignatureLib.Signature",
              "name": "signature",
              "type": "tuple"
            }
          ],
          "internalType": "struct IMarket.Back",
          "name": "backData",
          "type": "tuple"
        }
      ],
      "name": "back",
      "outputs": [
        {
          "internalType": "uint256",
          "name": "",
          "type": "uint256"
        }
      ],
      "stateMutability": "nonpayable",
      "type": "function"
    },
    {
      "inputs": [
        {
          "internalType": "address",
          "name": "owner",
          "type": "address"
        }
      ],
      "name": "balanceOf",
      "outputs": [
        {
          "internalType": "uint256",
          "name": "",
          "type": "uint256"
        }
      ],
      "stateMutability": "view",
      "type": "function"
    },
    {
      "inputs": [
        {
          "internalType": "uint256",
          "name": "tokenId",
          "type": "uint256"
        }
      ],
      "name": "getApproved",
      "outputs": [
        {
          "internalType": "address",
          "name": "",
          "type": "address"
        }
      ],
      "stateMutability": "view",
      "type": "function"
    },
    {
      "inputs": [
        {
          "internalType": "uint64",
          "name": "index",
          "type": "uint64"
        }
      ],
      "name": "getBetByIndex",
      "outputs": [
        {
          "internalType": "uint256",
          "name": "",
          "type": "uint256"
        },
        {
          "internalType": "uint256",
          "name": "",
          "type": "uint256"
        },
        {
          "internalType": "uint256",
          "name": "",
          "type": "uint256"
        },
        {
          "internalType": "uint256",
          "name": "",
          "type": "uint256"
        },
        {
          "internalType": "bool",
          "name": "",
          "type": "bool"
        },
        {
          "internalType": "bytes16",
          "name": "",
          "type": "bytes16"
        },
        {
          "internalType": "bytes16",
          "name": "",
          "type": "bytes16"
        }
      ],
      "stateMutability": "view",
      "type": "function"
    },
    {
      "inputs": [],
      "name": "getCount",
      "outputs": [
        {
          "internalType": "uint64",
          "name": "",
          "type": "uint64"
        }
      ],
      "stateMutability": "view",
      "type": "function"
    },
    {
      "inputs": [
        {
          "internalType": "uint64",
          "name": "index",
          "type": "uint64"
        }
      ],
      "name": "getExpiry",
      "outputs": [
        {
          "internalType": "uint256",
          "name": "",
          "type": "uint256"
        }
      ],
      "stateMutability": "view",
      "type": "function"
    },
    {
      "inputs": [],
      "name": "getInPlayCount",
      "outputs": [
        {
          "internalType": "uint256",
          "name": "",
          "type": "uint256"
        }
      ],
      "stateMutability": "view",
      "type": "function"
    },
    {
      "inputs": [],
      "name": "getMargin",
      "outputs": [
        {
          "internalType": "uint8",
          "name": "",
          "type": "uint8"
        }
      ],
      "stateMutability": "view",
      "type": "function"
    },
    {
      "inputs": [
        {
          "internalType": "bytes16",
          "name": "marketId",
          "type": "bytes16"
        }
      ],
      "name": "getMarketTotal",
      "outputs": [
        {
          "internalType": "uint256",
          "name": "",
          "type": "uint256"
        }
      ],
      "stateMutability": "view",
      "type": "function"
    },
    {
      "inputs": [
        {
          "internalType": "uint256",
          "name": "wager",
          "type": "uint256"
        },
        {
          "internalType": "uint256",
          "name": "odds",
          "type": "uint256"
        },
        {
          "internalType": "bytes16",
          "name": "propositionId",
          "type": "bytes16"
        },
        {
          "internalType": "bytes16",
          "name": "marketId",
          "type": "bytes16"
        }
      ],
      "name": "getOdds",
      "outputs": [
        {
          "internalType": "uint256",
          "name": "",
          "type": "uint256"
        }
      ],
      "stateMutability": "view",
      "type": "function"
    },
    {
      "inputs": [],
      "name": "getOracleAddress",
      "outputs": [
        {
          "internalType": "address",
          "name": "",
          "type": "address"
        }
      ],
      "stateMutability": "view",
      "type": "function"
    },
    {
      "inputs": [],
      "name": "getOwner",
      "outputs": [
        {
          "internalType": "address",
          "name": "",
          "type": "address"
        }
      ],
      "stateMutability": "view",
      "type": "function"
    },
    {
      "inputs": [
        {
          "internalType": "bytes16",
          "name": "propositionId",
          "type": "bytes16"
        },
        {
          "internalType": "bytes16",
          "name": "marketId",
          "type": "bytes16"
        },
        {
          "internalType": "uint256",
          "name": "wager",
          "type": "uint256"
        },
        {
          "internalType": "uint256",
          "name": "odds",
          "type": "uint256"
        }
      ],
      "name": "getPotentialPayout",
      "outputs": [
        {
          "internalType": "uint256",
          "name": "",
          "type": "uint256"
        }
      ],
      "stateMutability": "view",
      "type": "function"
    },
    {
      "inputs": [],
      "name": "getTotalExposure",
      "outputs": [
        {
          "internalType": "uint256",
          "name": "",
          "type": "uint256"
        }
      ],
      "stateMutability": "view",
      "type": "function"
    },
    {
      "inputs": [],
      "name": "getTotalInPlay",
      "outputs": [
        {
          "internalType": "uint256",
          "name": "",
          "type": "uint256"
        }
      ],
      "stateMutability": "view",
      "type": "function"
    },
    {
      "inputs": [],
      "name": "getVaultAddress",
      "outputs": [
        {
          "internalType": "address",
          "name": "",
          "type": "address"
        }
      ],
      "stateMutability": "view",
      "type": "function"
    },
    {
      "inputs": [
        {
          "internalType": "address",
          "name": "signer",
          "type": "address"
        }
      ],
      "name": "grantSigner",
      "outputs": [],
      "stateMutability": "nonpayable",
      "type": "function"
    },
    {
      "inputs": [
        {
          "internalType": "address",
          "name": "owner",
          "type": "address"
        },
        {
          "internalType": "address",
          "name": "operator",
          "type": "address"
        }
      ],
      "name": "isApprovedForAll",
      "outputs": [
        {
          "internalType": "bool",
          "name": "",
          "type": "bool"
        }
      ],
      "stateMutability": "view",
      "type": "function"
    },
    {
      "inputs": [
        {
          "internalType": "address",
          "name": "signer",
          "type": "address"
        }
      ],
      "name": "isSigner",
      "outputs": [
        {
          "internalType": "bool",
          "name": "",
          "type": "bool"
        }
      ],
      "stateMutability": "view",
      "type": "function"
    },
    {
      "inputs": [
        {
          "components": [
            {
              "internalType": "bytes16",
              "name": "nonce",
              "type": "bytes16"
            },
            {
              "internalType": "bytes16",
              "name": "propositionId",
              "type": "bytes16"
            },
            {
              "internalType": "bytes16",
              "name": "marketId",
              "type": "bytes16"
            },
            {
              "internalType": "uint256",
              "name": "wager",
              "type": "uint256"
            },
            {
              "internalType": "uint256",
              "name": "odds",
              "type": "uint256"
            },
            {
              "internalType": "uint256",
              "name": "close",
              "type": "uint256"
            },
            {
              "internalType": "uint256",
              "name": "end",
              "type": "uint256"
            },
            {
              "components": [
                {
                  "internalType": "uint8",
                  "name": "v",
                  "type": "uint8"
                },
                {
                  "internalType": "bytes32",
                  "name": "r",
                  "type": "bytes32"
                },
                {
                  "internalType": "bytes32",
                  "name": "s",
                  "type": "bytes32"
                }
              ],
              "internalType": "struct SignatureLib.Signature",
              "name": "signature",
              "type": "tuple"
            }
          ],
          "internalType": "struct IMarket.Back[]",
          "name": "backArray",
          "type": "tuple[]"
        }
      ],
      "name": "multiBack",
      "outputs": [
        {
          "internalType": "uint256[]",
          "name": "",
          "type": "uint256[]"
        }
      ],
      "stateMutability": "nonpayable",
      "type": "function"
    },
    {
      "inputs": [],
      "name": "name",
      "outputs": [
        {
          "internalType": "string",
          "name": "",
          "type": "string"
        }
      ],
      "stateMutability": "view",
      "type": "function"
    },
    {
      "inputs": [],
      "name": "owner",
      "outputs": [
        {
          "internalType": "address",
          "name": "",
          "type": "address"
        }
      ],
      "stateMutability": "view",
      "type": "function"
    },
    {
      "inputs": [
        {
          "internalType": "uint256",
          "name": "tokenId",
          "type": "uint256"
        }
      ],
      "name": "ownerOf",
      "outputs": [
        {
          "internalType": "address",
          "name": "",
          "type": "address"
        }
      ],
      "stateMutability": "view",
      "type": "function"
    },
    {
      "inputs": [
        {
          "internalType": "uint64",
          "name": "index",
          "type": "uint64"
        }
      ],
      "name": "refund",
      "outputs": [],
      "stateMutability": "nonpayable",
      "type": "function"
    },
    {
      "inputs": [],
      "name": "renounceOwnership",
      "outputs": [],
      "stateMutability": "nonpayable",
      "type": "function"
    },
    {
      "inputs": [
        {
          "internalType": "address",
          "name": "signer",
          "type": "address"
        }
      ],
      "name": "revokeSigner",
      "outputs": [],
      "stateMutability": "nonpayable",
      "type": "function"
    },
    {
      "inputs": [
        {
          "internalType": "address",
          "name": "from",
          "type": "address"
        },
        {
          "internalType": "address",
          "name": "to",
          "type": "address"
        },
        {
          "internalType": "uint256",
          "name": "tokenId",
          "type": "uint256"
        }
      ],
      "name": "safeTransferFrom",
      "outputs": [],
      "stateMutability": "nonpayable",
      "type": "function"
    },
    {
      "inputs": [
        {
          "internalType": "address",
          "name": "from",
          "type": "address"
        },
        {
          "internalType": "address",
          "name": "to",
          "type": "address"
        },
        {
          "internalType": "uint256",
          "name": "tokenId",
          "type": "uint256"
        },
        {
          "internalType": "bytes",
          "name": "data",
          "type": "bytes"
        }
      ],
      "name": "safeTransferFrom",
      "outputs": [],
      "stateMutability": "nonpayable",
      "type": "function"
    },
    {
      "inputs": [
        {
          "internalType": "uint64",
          "name": "index",
          "type": "uint64"
        },
        {
          "internalType": "bytes16",
          "name": "marketId",
          "type": "bytes16"
        },
        {
          "internalType": "bytes16",
          "name": "propositionId",
          "type": "bytes16"
        },
        {
          "internalType": "uint256",
          "name": "odds",
          "type": "uint256"
        },
        {
          "components": [
            {
              "internalType": "uint8",
              "name": "v",
              "type": "uint8"
            },
            {
              "internalType": "bytes32",
              "name": "r",
              "type": "bytes32"
            },
            {
              "internalType": "bytes32",
              "name": "s",
              "type": "bytes32"
            }
          ],
          "internalType": "struct SignatureLib.Signature",
          "name": "signature",
          "type": "tuple"
        }
      ],
      "name": "scratchAndRefund",
      "outputs": [],
      "stateMutability": "nonpayable",
      "type": "function"
    },
    {
      "inputs": [
        {
          "internalType": "address",
          "name": "operator",
          "type": "address"
        },
        {
          "internalType": "bool",
          "name": "approved",
          "type": "bool"
        }
      ],
      "name": "setApprovalForAll",
      "outputs": [],
      "stateMutability": "nonpayable",
      "type": "function"
    },
    {
      "inputs": [
        {
          "internalType": "uint64",
          "name": "index",
          "type": "uint64"
        }
      ],
      "name": "settle",
      "outputs": [],
      "stateMutability": "nonpayable",
      "type": "function"
    },
    {
      "inputs": [
        {
          "internalType": "bytes16",
          "name": "marketId",
          "type": "bytes16"
        }
      ],
      "name": "settleMarket",
      "outputs": [],
      "stateMutability": "nonpayable",
      "type": "function"
    },
    {
      "inputs": [
        {
          "internalType": "bytes4",
          "name": "interfaceId",
          "type": "bytes4"
        }
      ],
      "name": "supportsInterface",
      "outputs": [
        {
          "internalType": "bool",
          "name": "",
          "type": "bool"
        }
      ],
      "stateMutability": "view",
      "type": "function"
    },
    {
      "inputs": [],
      "name": "symbol",
      "outputs": [
        {
          "internalType": "string",
          "name": "",
          "type": "string"
        }
      ],
      "stateMutability": "view",
      "type": "function"
    },
    {
      "inputs": [],
      "name": "timeout",
      "outputs": [
        {
          "internalType": "uint256",
          "name": "",
          "type": "uint256"
        }
      ],
      "stateMutability": "view",
      "type": "function"
    },
    {
      "inputs": [
        {
          "internalType": "uint256",
          "name": "tokenId",
          "type": "uint256"
        }
      ],
      "name": "tokenURI",
      "outputs": [
        {
          "internalType": "string",
          "name": "",
          "type": "string"
        }
      ],
      "stateMutability": "view",
      "type": "function"
    },
    {
      "inputs": [
        {
          "internalType": "address",
          "name": "from",
          "type": "address"
        },
        {
          "internalType": "address",
          "name": "to",
          "type": "address"
        },
        {
          "internalType": "uint256",
          "name": "tokenId",
          "type": "uint256"
        }
      ],
      "name": "transferFrom",
      "outputs": [],
      "stateMutability": "nonpayable",
      "type": "function"
    },
    {
      "inputs": [
        {
          "internalType": "address",
          "name": "newOwner",
          "type": "address"
        }
      ],
      "name": "transferOwnership",
      "outputs": [],
      "stateMutability": "nonpayable",
      "type": "function"
    }
  ],
  "transactionHash": "0xd46e1b4d2aeececd4169de02b87a2b14cba047accf9a7c461229de9542fd2b04",
  "args": [
    "0xFfd278b26D0687184EEC7Be24208590e0B98a3ec",
    0,
    5,
    "0x8D54e1319A50B715a13E1E1a86297fC039B7C949",
    "https://horse.link/api/nft/arbitrum/0xa110D6Bd21c226285b18f91b1749eBc12007a7E7/undefined/"
  ],
  "numDeployments": 1,
  "solcInputHash": "2bc114e1fc3c794890126f24607bb28b",
  "bytecode": "0x6101406040523480156200001257600080fd5b506040516200468038038062004680833981016040819052620000359162000294565b6040518060400160405280601381526020017f486f727365204c696e6b2042657420536c6970000000000000000000000000008152506040518060400160405280600681526020016512130b50915560d21b815250620000a46200009e620001fb60201b60201c565b620001ff565b6001620000b283826200044d565b506002620000c182826200044d565b5050506001600160a01b038516620000dd57620000dd62000519565b3060e0526001600160a01b03851660a0819052604080516338d52e0f60e01b815290516338d52e0f916004808201926020929091908290030181865afa1580156200012c573d6000803e3d6000fd5b505050506040513d601f19601f820116820180604052508101906200015291906200052f565b6001600160a01b031660c08190526200016f576200016f62000519565b60ff84166080526001600160a01b038216610100526001601060006200019d6000546001600160a01b031690565b6001600160a01b031681526020810191909152604001600020805460ff19169115159190911790556007620001d382826200044d565b50620001e660ff84166201518062000554565b62ffffff1661012052506200058e9350505050565b3390565b600080546001600160a01b038381166001600160a01b0319831681178455604051919092169283917f8be0079c531659141344cd1fd0a4f28419497f9722a3daafe3b4186f6b6457e09190a35050565b80516001600160a01b03811681146200026757600080fd5b919050565b805160ff811681146200026757600080fd5b634e487b7160e01b600052604160045260246000fd5b600080600080600060a08688031215620002ad57600080fd5b620002b8866200024f565b94506020620002c98188016200026c565b9450620002d9604088016200026c565b9350620002e9606088016200024f565b60808801519093506001600160401b03808211156200030757600080fd5b818901915089601f8301126200031c57600080fd5b8151818111156200033157620003316200027e565b604051601f8201601f19908116603f011681019083821181831017156200035c576200035c6200027e565b816040528281528c868487010111156200037557600080fd5b600093505b828410156200039957848401860151818501870152928501926200037a565b82841115620003ab5760008684830101525b8096505050505050509295509295909350565b600181811c90821680620003d357607f821691505b602082108103620003f457634e487b7160e01b600052602260045260246000fd5b50919050565b601f8211156200044857600081815260208120601f850160051c81016020861015620004235750805b601f850160051c820191505b8181101562000444578281556001016200042f565b5050505b505050565b81516001600160401b038111156200046957620004696200027e565b62000481816200047a8454620003be565b84620003fa565b602080601f831160018114620004b95760008415620004a05750858301515b600019600386901b1c1916600185901b17855562000444565b600085815260208120601f198616915b82811015620004ea57888601518255948401946001909101908401620004c9565b5085821015620005095787850151600019600388901b60f8161c191681555b5050505050600190811b01905550565b634e487b7160e01b600052600160045260246000fd5b6000602082840312156200054257600080fd5b6200054d826200024f565b9392505050565b600062ffffff808316818516818304811182151516156200058557634e487b7160e01b600052601160045260246000fd5b02949350505050565b60805160a05160c05160e0516101005161012051613ff36200068d600039600081816104ac01526128dc01526000818161056d01528181610a0b01528181610fd2015281816115560152611eea0152600081816123c80152613134015260008181611bb601528181611c6a0152818161237c01528181612ad101528181612bbf01528181612d1801528181612e8b01528181612f8b01526131660152600081816103f901528181611c3b01528181611cda01528181611dc30152818161203d01528181612b9001528181612c2f01528181612dd101528181612f5c01528181612ffb0152818161310c01526131ee015260006103380152613ff36000f3fe608060405234801561001057600080fd5b50600436106102695760003560e01c80637b5df1c911610151578063b88d4fde116100c3578063d1e90d6211610087578063d1e90d62146105da578063d7194ccb146105e2578063e4650fac146105f5578063e985e9c514610608578063f26be3fc14610644578063f2fde38b1461064c57600080fd5b8063b88d4fde14610591578063bc985bc9146105a4578063c34b44a0146105ac578063c87b56dd146105bf578063c96121a8146105d257600080fd5b80638da5cb5b116101155780638da5cb5b1461050f57806395d89b4114610528578063a22cb46514610530578063a87d942c14610543578063b108501f14610563578063b18b78dd1461056b57600080fd5b80637b5df1c9146104d65780637df73e27146104e957806388bc76ba146104fc578063893d20e81461050f5780638ac6d2171461052057600080fd5b80634b9ba446116101ea57806365cacaa4116101ae57806365cacaa4146103f75780636b467d151461041d578063702595861461047457806370a082311461049457806370dea79a146104a7578063715018a6146104ce57600080fd5b80634b9ba446146103a357806358439479146103b65780636028421f146103be5780636352211e146103d157806363c724f7146103e457600080fd5b806323b872dd1161023157806323b872dd1461032357806325117b7214610336578063412406651461036a57806342842e0e1461037d57806346e116a61461039057600080fd5b806301ffc9a71461026e57806306fdde0314610296578063081812fc146102ab578063095ea7b3146102d657806312fa3bf1146102eb575b600080fd5b61028161027c3660046135bb565b61065f565b60405190151581526020015b60405180910390f35b61029e6106b1565b60405161028d9190613630565b6102be6102b9366004613643565b610743565b6040516001600160a01b03909116815260200161028d565b6102e96102e4366004613671565b61076a565b005b6103156102f93660046136b3565b6001600160801b0319166000908152600b602052604090205490565b60405190815260200161028d565b6102e96103313660046136d0565b610884565b7f00000000000000000000000000000000000000000000000000000000000000005b60405160ff909116815260200161028d565b6102e961037836600461372d565b6108b5565b6102e961038b3660046136d0565b610ac8565b61031561039e36600461379a565b610ae3565b6102e96103b13660046137e4565b610afc565b600e54610315565b6103156103cc3660046137ff565b610c0a565b6102be6103df366004613643565b610c18565b6102e96103f2366004613845565b610c78565b7f00000000000000000000000000000000000000000000000000000000000000006102be565b61043061042b3660046137e4565b610d06565b604080519788526020880196909652948601939093526060850191909152151560808401526001600160801b031990811660a08401521660c082015260e00161028d565b610487610482366004613862565b610d31565b60405161028d91906138d7565b6103156104a2366004613845565b610dea565b6103157f000000000000000000000000000000000000000000000000000000000000000081565b6102e9610e70565b6103156104e436600461391b565b610e84565b6102816104f7366004613845565b61114e565b6102e961050a3660046136b3565b61116f565b6000546001600160a01b03166102be565b600f54610315565b61029e61132a565b6102e961053e366004613942565b611339565b61054b611344565b6040516001600160401b03909116815260200161028d565b610358600181565b7f00000000000000000000000000000000000000000000000000000000000000006102be565b6102e961059f366004613a0b565b61134f565b610358600381565b6102e96105ba366004613845565b611381565b61029e6105cd366004613643565b61140c565b600854610315565b610358600281565b6102e96105f03660046137e4565b611473565b6103156106033660046137e4565b6116c8565b610281610616366004613ace565b6001600160a01b03918216600090815260066020908152604080832093909416825291909152205460ff1690565b610358600081565b6102e961065a366004613845565b6116d3565b60006001600160e01b031982166380ac58cd60e01b148061069057506001600160e01b03198216635b5e139f60e01b145b806106ab57506301ffc9a760e01b6001600160e01b03198316145b92915050565b6060600180546106c090613afc565b80601f01602080910402602001604051908101604052809291908181526020018280546106ec90613afc565b80156107395780601f1061070e57610100808354040283529160200191610739565b820191906000526020600020905b81548152906001019060200180831161071c57829003601f168201915b5050505050905090565b600061074e8261174c565b506000908152600560205260409020546001600160a01b031690565b600061077582610c18565b9050806001600160a01b0316836001600160a01b0316036107e75760405162461bcd60e51b815260206004820152602160248201527f4552433732313a20617070726f76616c20746f2063757272656e74206f776e656044820152603960f91b60648201526084015b60405180910390fd5b336001600160a01b038216148061080357506108038133610616565b6108755760405162461bcd60e51b815260206004820152603d60248201527f4552433732313a20617070726f76652063616c6c6572206973206e6f7420746f60448201527f6b656e206f776e6572206f7220617070726f76656420666f7220616c6c00000060648201526084016107de565b61087f83836117ab565b505050565b61088e3382611819565b6108aa5760405162461bcd60e51b81526004016107de90613b30565b61087f838383611897565b826001600160801b0319166009866001600160401b0316815481106108dc576108dc613b7d565b600091825260209091206006909102015460801b6001600160801b031916146109625760405162461bcd60e51b815260206004820152603260248201527f73637261746368416e64526566756e643a2070726f706f736974696f6e496420604482015271191bd95cc81b9bdd081b585d18da0818995d60721b60648201526084016107de565b6009856001600160401b03168154811061097e5761097e613b7d565b600091825260209091206005600690920201015460ff16156109f45760405162461bcd60e51b815260206004820152602960248201527f73637261746368416e64526566756e643a204265742068617320616c726561646044820152681e481cd95d1d1b195960ba1b60648201526084016107de565b604051631b62340760e01b81526001600160a01b037f00000000000000000000000000000000000000000000000000000000000000001690631b62340790610a46908790879087908790600401613bc7565b600060405180830381600087803b158015610a6057600080fd5b505af1158015610a74573d6000803e3d6000fd5b5050505060016009866001600160401b031681548110610a9657610a96613b7d565b60009182526020909120600690910201600501805460ff1916911515919091179055610ac1856119fb565b5050505050565b61087f8383836040518060200160405280600081525061134f565b6000610af185858585611d9f565b90505b949350505050565b60006009826001600160401b031681548110610b1a57610b1a613b7d565b60009182526020918290206040805160e081018252600690930290910180546001600160801b0319608082811b82168652600160801b909204821b169484019490945260018101549183019190915260028101546060830152600381015492820192909252600482015460a082015260059091015460ff1615801560c0830152909150610be95760405162461bcd60e51b815260206004820152601f60248201527f736574746c653a204265742068617320616c726561647920736574746c65640060448201526064016107de565b610c06828260200151836000015184604001518560600151611ec0565b5050565b6000610af18585858561210e565b6000818152600360205260408120546001600160a01b0316806106ab5760405162461bcd60e51b8152602060048201526018602482015277115490cdcc8c4e881a5b9d985b1a59081d1bdad95b88125160421b60448201526064016107de565b610c8061214a565b6001600160a01b038116610ce25760405162461bcd60e51b815260206004820152602360248201527f6772616e745369676e65723a20496e76616c6964207369676e6572206164647260448201526265737360e81b60648201526084016107de565b6001600160a01b03166000908152601060205260409020805460ff19166001179055565b6000806000806000806000610d1a886121a4565b959e949d50929b5090995097509550909350915050565b60606000826001600160401b03811115610d4d57610d4d61397b565b604051908082528060200260200182016040528015610d76578160200160208202803683370190505b50905060005b60ff8116841115610de2573685858360ff16818110610d9d57610d9d613b7d565b905061014002019050610daf81610e84565b838360ff1681518110610dc457610dc4613b7d565b60209081029190910101525080610dda81613c0a565b915050610d7c565b509392505050565b60006001600160a01b038216610e545760405162461bcd60e51b815260206004820152602960248201527f4552433732313a2061646472657373207a65726f206973206e6f7420612076616044820152683634b21037bbb732b960b91b60648201526084016107de565b506001600160a01b031660009081526004602052604090205490565b610e7861214a565b610e82600061226a565b565b600080610e9460208401846136b3565b610ea460408501602086016136b3565b610eb460608601604087016136b3565b604080516001600160801b0319948516602082015292841660308401529216918101919091526080840135605082015260a0840135607082015260c0840135609082015260b001604051602081830303815290604052805190602001209050610f20818460e0016122ba565b1515600114610f715760405162461bcd60e51b815260206004820152601760248201527f6261636b3a20496e76616c6964207369676e617475726500000000000000000060448201526064016107de565b428360c00135118015610f875750428360a00135115b610fc85760405162461bcd60e51b81526020600482015260126024820152716261636b3a20496e76616c6964206461746560701b60448201526064016107de565b6001600160a01b037f00000000000000000000000000000000000000000000000000000000000000001663b32b880e61100760608601604087016136b3565b6040516001600160e01b031960e084901b1681526001600160801b03199091166004820152602401602060405180830381865afa15801561104c573d6000803e3d6000fd5b505050506040513d601f19601f820116820180604052508101906110709190613c29565b156110d55760405162461bcd60e51b815260206004820152602f60248201527f6261636b3a204f7261636c6520726573756c7420616c7265616479207365742060448201526e199bdc881d1a1a5cc81b585c9ad95d608a1b60648201526084016107de565b60006111096110ea60408601602087016136b3565b6110fa60608701604088016136b3565b8660600135876080013561210e565b90506000811161111b5761111b613c46565b610af461112e60408601602087016136b3565b61113e60608701604088016136b3565b86606001358760c0013585612370565b6001600160a01b03811660009081526010602052604081205460ff166106ab565b6001600160801b031981166000908152600a602090815260408083208054825181850281018501909352808352919290919083018282801561120257602002820191906000526020600020906000905b82829054906101000a90046001600160401b03166001600160401b0316815260200190600801906020826007010492830192600103820291508084116111bf5790505b505083519394506000925050505b81816001600160401b0316101561131f57600083826001600160401b03168151811061123e5761123e613b7d565b6020026020010151905060006009826001600160401b03168154811061126657611266613b7d565b600091825260208083206040805160e081018252600690940290910180546001600160801b0319608082811b82168752600160801b909204821b169385019390935260018101549184019190915260028101546060840152600381015491830191909152600481015460a08301526005015460ff16151560c08201819052909250900361130a5761130a828260200151836000015184604001518560600151611ec0565b5050808061131790613c5c565b915050611210565b50505050565b905090565b6060600280546106c090613afc565b610c06338383612736565b600061132560095490565b6113593383611819565b6113755760405162461bcd60e51b81526004016107de90613b30565b61131f84848484612804565b61138961214a565b6001600160a01b0381166113eb5760405162461bcd60e51b8152602060048201526024808201527f7265766f6b655369676e65723a20496e76616c6964207369676e6572206164646044820152637265737360e01b60648201526084016107de565b6001600160a01b03166000908152601060205260409020805460ff19169055565b60606114178261174c565b6000611421612837565b90506000815111611441576040518060200160405280600081525061146c565b8061144b84612846565b60405160200161145c929190613c82565b6040516020818303038152906040525b9392505050565b6009816001600160401b03168154811061148f5761148f613b7d565b600091825260209091206005600690920201015460ff16156114f35760405162461bcd60e51b815260206004820152601f60248201527f726566756e643a204265742068617320616c726561647920736574746c65640060448201526064016107de565b60006009826001600160401b03168154811061151157611511613b7d565b60009182526020822060069190910201546040516325a8f38560e11b8152600160801b90910460801b6001600160801b03198116600483015292506001600160a01b037f00000000000000000000000000000000000000000000000000000000000000001690634b51e70a90602401600060405180830381865afa15801561159d573d6000803e3d6000fd5b505050506040513d6000823e601f3d908101601f191682016040526115c59190810190613cb1565b60208101515190915060005b8181101561167f576009856001600160401b0316815481106115f5576115f5613b7d565b906000526020600020906006020160000160009054906101000a900460801b6001600160801b0319168360200151828151811061163457611634613b7d565b6020026020010151600001516001600160801b0319160361166d5760016009866001600160401b031681548110610a9657610a96613b7d565b8061167781613dcf565b9150506115d1565b5060405162461bcd60e51b815260206004820152601f60248201527f726566756e643a204e6f7420656c696769626c6520666f7220726566756e640060448201526064016107de565b60006106ab826128d8565b6116db61214a565b6001600160a01b0381166117405760405162461bcd60e51b815260206004820152602660248201527f4f776e61626c653a206e6577206f776e657220697320746865207a65726f206160448201526564647265737360d01b60648201526084016107de565b6117498161226a565b50565b6000818152600360205260409020546001600160a01b03166117495760405162461bcd60e51b8152602060048201526018602482015277115490cdcc8c4e881a5b9d985b1a59081d1bdad95b88125160421b60448201526064016107de565b600081815260056020526040902080546001600160a01b0319166001600160a01b03841690811790915581906117e082610c18565b6001600160a01b03167f8c5be1e5ebec7d5bd14f71427d1e84f3dd0314c0f7b2291e5b200ac8c7c3b92560405160405180910390a45050565b60008061182583610c18565b9050806001600160a01b0316846001600160a01b0316148061186c57506001600160a01b0380821660009081526006602090815260408083209388168352929052205460ff165b80610af45750836001600160a01b031661188584610743565b6001600160a01b031614949350505050565b826001600160a01b03166118aa82610c18565b6001600160a01b0316146118d05760405162461bcd60e51b81526004016107de90613de8565b6001600160a01b0382166119325760405162461bcd60e51b8152602060048201526024808201527f4552433732313a207472616e7366657220746f20746865207a65726f206164646044820152637265737360e01b60648201526084016107de565b826001600160a01b031661194582610c18565b6001600160a01b03161461196b5760405162461bcd60e51b81526004016107de90613de8565b600081815260056020908152604080832080546001600160a01b03199081169091556001600160a01b0387811680865260048552838620805460001901905590871680865283862080546001019055868652600390945282852080549092168417909155905184937fddf252ad1be2c89b69c2b068fc378daa952ba7f163c4a11628f55a4df523b3ef91a4505050565b60006009826001600160401b031681548110611a1957611a19613b7d565b600091825260208083206040805160e081018252600690940290910180546001600160801b0319608082811b82168752600160801b909204821b169385019390935260018101549184019190915260028101546060840152600381015491830191909152600481015460a08301526005015460ff16151560c082015260098054919350906001600160401b038516908110611ab657611ab6613b7d565b9060005260206000209060060201600101546009846001600160401b031681548110611ae457611ae4613b7d565b906000526020600020906006020160020154611b009190613e2d565b905080600f6000828254611b149190613e2d565b9091555050600980546001600160401b038516908110611b3657611b36613b7d565b906000526020600020906006020160010154600e6000828254611b599190613e2d565b909155505060088054906000611b6e83613e44565b91905055506000611b87846001600160401b0316610c18565b604080850151905163a9059cbb60e01b81526001600160a01b03808416600483015260248201929092529192507f0000000000000000000000000000000000000000000000000000000000000000169063a9059cbb906044016020604051808303816000875af1158015611bff573d6000803e3d6000fd5b505050506040513d601f19601f82011682018060405250810190611c239190613c29565b5060405163a9059cbb60e01b81526001600160a01b037f000000000000000000000000000000000000000000000000000000000000000081166004830152602482018490527f0000000000000000000000000000000000000000000000000000000000000000169063a9059cbb906044016020604051808303816000875af1158015611cb3573d6000803e3d6000fd5b505050506040513d601f19601f82011682018060405250810190611cd79190613c29565b507f00000000000000000000000000000000000000000000000000000000000000006001600160a01b03167f0516911bcc3a0a7412a44601057c0a0a1ec628bde049a84284bc42886653448883604051611d3391815260200190565b60405180910390a260408084015181516001600160401b038716815260208101919091526001600160a01b038316917fe5fd53654bc4ea55a3106f8f2bd57252875afee33cc027448099373ae65408f6910160405180910390a261131f846001600160401b0316612933565b6000600185111580611db2575060018411155b15611dbf57506001610af4565b60007f00000000000000000000000000000000000000000000000000000000000000006001600160a01b031663b15031fa6040518163ffffffff1660e01b8152600401602060405180830381865afa158015611e1f573d6000803e3d6000fd5b505050506040513d601f19601f82011682018060405250810190611e439190613e5b565b905080600003611e57576001915050610af4565b6001600160801b031984166000908152600d6020526040902054811015611e82576001915050610af4565b6001600160801b031984166000908152600d6020526040902054611ea69082613e2d565b90506000611eb58787846129c8565b979650505050505050565b6040516306c77ce760e01b81526001600160801b03198086166004830152841660248201526000907f00000000000000000000000000000000000000000000000000000000000000006001600160a01b0316906306c77ce790604401602060405180830381865afa158015611f39573d6000803e3d6000fd5b505050506040513d601f19601f82011682018060405250810190611f5d9190613e74565b9050611f68866128d8565b42118015611f77575060ff8116155b15612024576000611f90876001600160401b0316610c18565b9050611fa6876001600160401b03166001612a4d565b604080516001600160401b03891681526020810185905260ff84168183015290516001600160a01b038316917f7c2e00429f610bdb997681cabbb0ef3197390c07fe90ea4a98ac36438dd4217c919081900360600190a261200f876001600160401b0316612933565b612022876001600160401b031685613065565b505b60ff81161561210657600060011960ff831601612061577f0000000000000000000000000000000000000000000000000000000000000000612073565b612073876001600160401b0316610c18565b9050612088876001600160401b031683612a4d565b604080516001600160401b03891681526020810185905260ff84168183015290516001600160a01b038316917f7c2e00429f610bdb997681cabbb0ef3197390c07fe90ea4a98ac36438dd4217c919081900360600190a26120f1876001600160401b0316612933565b612104876001600160401b031685613065565b505b505050505050565b60008061211d84848888611d9f565b905061214084620f42406121318285613e91565b61213b9190613eb0565b6130d2565b9695505050505050565b6000546001600160a01b03163314610e825760405162461bcd60e51b815260206004820181905260248201527f4f776e61626c653a2063616c6c6572206973206e6f7420746865206f776e657260448201526064016107de565b6000806000806000806000806009896001600160401b0316815481106121cc576121cc613b7d565b60009182526020918290206040805160e0810182526006939093029091018054608081811b6001600160801b0319908116808752600160801b909304821b1695850186905260018301549385018490526002830154606086018190526003840154918601829052600484015460a0870181905260059094015460ff16151560c0909601869052939f939e509c50909a50919850919650945092505050565b600080546001600160a01b038381166001600160a01b0319831681178455604051919092169283917f8be0079c531659141344cd1fd0a4f28419497f9722a3daafe3b4186f6b6457e09190a35050565b600080732B099764cE9F03387Aa77328A321B79eB6391711635cff288d85856040518363ffffffff1660e01b81526004016122f6929190613ed2565b602060405180830381865af4158015612313573d6000803e3d6000fd5b505050506040513d601f19601f820116820180604052508101906123379190613ee6565b90506001600160a01b03811661234f5761234f613c46565b6001600160a01b03811660009081526010602052604090205460ff16610af4565b60006001600160a01b037f0000000000000000000000000000000000000000000000000000000000000000166323b872dd3360405160e083901b6001600160e01b03191681526001600160a01b0391821660048201527f00000000000000000000000000000000000000000000000000000000000000009091166024820152604481018790526064016020604051808303816000875af1158015612418573d6000803e3d6000fd5b505050506040513d601f19601f8201168201806040525081019061243c9190613c29565b506001600160801b031985166000908152600b602052604081208054869290612466908490613f03565b9250508190555083600e600082825461247f9190613f03565b90915550506008805490600061249483613dcf565b919050555060006124a460095490565b6001600160801b031988166000908152600d60205260408120805492935085929091906124d2908490613f03565b909155506124ee90506001600160401b038216878988876130e8565b600f60008282546124ff9190613f03565b90915550506040805160e0810182526001600160801b03198981168252881660208083018281528385018a81526060850189815260808087018c81524260a08901908152600060c08a0181815260098054600180820183559184529b51985198861c600160801b9990961c98909802949094177f6e1540171b6c0c960b71a7020d9f60077f6af931a8bbf590da0223dacf75c7af6006909b029a8b015594517f6e1540171b6c0c960b71a7020d9f60077f6af931a8bbf590da0223dacf75c7b08a015592517f6e1540171b6c0c960b71a7020d9f60077f6af931a8bbf590da0223dacf75c7b1890155517f6e1540171b6c0c960b71a7020d9f60077f6af931a8bbf590da0223dacf75c7b288015590517f6e1540171b6c0c960b71a7020d9f60077f6af931a8bbf590da0223dacf75c7b3870155517f6e1540171b6c0c960b71a7020d9f60077f6af931a8bbf590da0223dacf75c7b4909501805460ff191695151595909517909455918352600a81529282208054918201815582529190206004820401805460039092166008026101000a6001600160401b0381810219909316928416029190911790556126bd33826001600160401b0316613244565b604080516001600160401b03831681526001600160801b031989811660208301528816818301526060810187905260808101859052905133917f1d273ea6a1aea94de32fd06a09ab8046dff8e3261c5a4ecaa5e1a5705f3342ec919081900360a00190a26001600160401b031690505b95945050505050565b816001600160a01b0316836001600160a01b0316036127975760405162461bcd60e51b815260206004820152601960248201527f4552433732313a20617070726f766520746f2063616c6c65720000000000000060448201526064016107de565b6001600160a01b03838116600081815260066020908152604080832094871680845294825291829020805460ff191686151590811790915591519182527f17307eab39ab6107e8899845ad3d59bd9653f200f220920489ca2b5937696c31910160405180910390a3505050565b61280f848484611897565b61281b848484846133cf565b61131f5760405162461bcd60e51b81526004016107de90613f1b565b6060600780546106c090613afc565b60606000612853836134cd565b60010190506000816001600160401b038111156128725761287261397b565b6040519080825280601f01601f19166020018201604052801561289c576020820181803683370190505b5090508181016020015b600019016f181899199a1a9b1b9c1cb0b131b232b360811b600a86061a8153600a85049450846128a657509392505050565b60007f00000000000000000000000000000000000000000000000000000000000000006009836001600160401b03168154811061291757612917613b7d565b9060005260206000209060060201600301546106ab9190613f03565b600061293e82610c18565b905061294982610c18565b600083815260056020908152604080832080546001600160a01b03199081169091556001600160a01b0385168085526004845282852080546000190190558785526003909352818420805490911690555192935084927fddf252ad1be2c89b69c2b068fc378daa952ba7f163c4a11628f55a4df523b3ef908390a45050565b60405163a19dec4360e01b815260048101849052602481018390526044810182905260009073f275d6D06162F8ACB816CE867E33077Aa71f46559063a19dec4390606401602060405180830381865af4158015612a29573d6000803e3d6000fd5b505050506040513d601f19601f82011682018060405250810190610af49190613e5b565b600060098381548110612a6257612a62613b7d565b9060005260206000209060060201600201549050600060098481548110612a8b57612a8b613b7d565b600091825260208220600160069092020101549150612aaa8284613e2d565b905080600f6000828254612abe9190613e2d565b909155505060021960ff851601612c97577f00000000000000000000000000000000000000000000000000000000000000006001600160a01b031663a9059cbb612b0787610c18565b6040516001600160e01b031960e084901b1681526001600160a01b039091166004820152602481018590526044016020604051808303816000875af1158015612b54573d6000803e3d6000fd5b505050506040513d601f19601f82011682018060405250810190612b789190613c29565b5060405163a9059cbb60e01b81526001600160a01b037f000000000000000000000000000000000000000000000000000000000000000081166004830152602482018390527f0000000000000000000000000000000000000000000000000000000000000000169063a9059cbb906044016020604051808303816000875af1158015612c08573d6000803e3d6000fd5b505050506040513d601f19601f82011682018060405250810190612c2c9190613c29565b507f00000000000000000000000000000000000000000000000000000000000000006001600160a01b03167f0516911bcc3a0a7412a44601057c0a0a1ec628bde049a84284bc42886653448882604051612c8891815260200190565b60405180910390a25050505050565b4260098681548110612cab57612cab613b7d565b90600052602060002090600602016003015410612d0a5760405162461bcd60e51b815260206004820181905260248201527f5f7061796f75743a205061796f75742064617465206e6f74207265616368656460448201526064016107de565b60001960ff851601612dc1577f00000000000000000000000000000000000000000000000000000000000000006001600160a01b031663a9059cbb612d4e87610c18565b6040516001600160e01b031960e084901b1681526001600160a01b039091166004820152602481018690526044016020604051808303816000875af1158015612d9b573d6000803e3d6000fd5b505050506040513d601f19601f82011682018060405250810190612dbf9190613c29565b505b60011960ff851601610ac15760007f00000000000000000000000000000000000000000000000000000000000000006001600160a01b031663679aefce6040518163ffffffff1660e01b8152600401602060405180830381865afa158015612e2d573d6000803e3d6000fd5b505050506040513d601f19601f82011682018060405250810190612e519190613e5b565b9050620186a08111612e6557612e65613c46565b6000620186a0612e758385613e91565b612e7f9190613eb0565b905080851115612f45577f00000000000000000000000000000000000000000000000000000000000000006001600160a01b031663a9059cbb612eca6000546001600160a01b031690565b612ed48489613e2d565b6040516001600160e01b031960e085901b1681526001600160a01b03909216600483015260248201526044016020604051808303816000875af1158015612f1f573d6000803e3d6000fd5b505050506040513d601f19601f82011682018060405250810190612f439190613c29565b505b60405163a9059cbb60e01b81526001600160a01b037f000000000000000000000000000000000000000000000000000000000000000081166004830152602482018390527f0000000000000000000000000000000000000000000000000000000000000000169063a9059cbb906044016020604051808303816000875af1158015612fd4573d6000803e3d6000fd5b505050506040513d601f19601f82011682018060405250810190612ff89190613c29565b507f00000000000000000000000000000000000000000000000000000000000000006001600160a01b03167f0516911bcc3a0a7412a44601057c0a0a1ec628bde049a84284bc4288665344888260405161305491815260200190565b60405180910390a250505050505050565b6008805490600061307583613e44565b919050555060016009838154811061308f5761308f613b7d565b60009182526020909120600690910201600501805460ff19169115159190911790558015610c065780600e60008282546130c99190613e2d565b90915550505050565b60008183116130e1578161146c565b5090919050565b6000806130f58484613e2d565b6040516323b872dd60e01b81526001600160a01b037f0000000000000000000000000000000000000000000000000000000000000000811660048301527f000000000000000000000000000000000000000000000000000000000000000081166024830152604482018390529192507f0000000000000000000000000000000000000000000000000000000000000000909116906323b872dd906064016020604051808303816000875af11580156131b1573d6000803e3d6000fd5b505050506040513d601f19601f820116820180604052508101906131d59190613c29565b5060408051888152602081018390526001600160a01b037f000000000000000000000000000000000000000000000000000000000000000016917feae9cfbc77fdd40ca899f36b608256063b2bc9d8178b0220f7ad513e178d6730910160405180910390a29695505050505050565b6001600160a01b03821661329a5760405162461bcd60e51b815260206004820181905260248201527f4552433732313a206d696e7420746f20746865207a65726f206164647265737360448201526064016107de565b6000818152600360205260409020546001600160a01b0316156132ff5760405162461bcd60e51b815260206004820152601c60248201527f4552433732313a20746f6b656e20616c7265616479206d696e7465640000000060448201526064016107de565b6000818152600360205260409020546001600160a01b0316156133645760405162461bcd60e51b815260206004820152601c60248201527f4552433732313a20746f6b656e20616c7265616479206d696e7465640000000060448201526064016107de565b6001600160a01b038216600081815260046020908152604080832080546001019055848352600390915280822080546001600160a01b0319168417905551839291907fddf252ad1be2c89b69c2b068fc378daa952ba7f163c4a11628f55a4df523b3ef908290a45050565b60006001600160a01b0384163b156134c557604051630a85bd0160e11b81526001600160a01b0385169063150b7a0290613413903390899088908890600401613f6d565b6020604051808303816000875af192505050801561344e575060408051601f3d908101601f1916820190925261344b91810190613fa0565b60015b6134ab573d80801561347c576040519150601f19603f3d011682016040523d82523d6000602084013e613481565b606091505b5080516000036134a35760405162461bcd60e51b81526004016107de90613f1b565b805181602001fd5b6001600160e01b031916630a85bd0160e11b149050610af4565b506001610af4565b60008072184f03e93ff9f4daa797ed6e38ed64bf6a1f0160401b831061350c5772184f03e93ff9f4daa797ed6e38ed64bf6a1f0160401b830492506040015b6d04ee2d6d415b85acef81000000008310613538576d04ee2d6d415b85acef8100000000830492506020015b662386f26fc10000831061355657662386f26fc10000830492506010015b6305f5e100831061356e576305f5e100830492506008015b612710831061358257612710830492506004015b60648310613594576064830492506002015b600a83106106ab5760010192915050565b6001600160e01b03198116811461174957600080fd5b6000602082840312156135cd57600080fd5b813561146c816135a5565b60005b838110156135f35781810151838201526020016135db565b8381111561131f5750506000910152565b6000815180845261361c8160208601602086016135d8565b601f01601f19169290920160200192915050565b60208152600061146c6020830184613604565b60006020828403121561365557600080fd5b5035919050565b6001600160a01b038116811461174957600080fd5b6000806040838503121561368457600080fd5b823561368f8161365c565b946020939093013593505050565b6001600160801b03198116811461174957600080fd5b6000602082840312156136c557600080fd5b813561146c8161369d565b6000806000606084860312156136e557600080fd5b83356136f08161365c565b925060208401356137008161365c565b929592945050506040919091013590565b80356001600160401b038116811461372857600080fd5b919050565b600080600080600085870360e081121561374657600080fd5b61374f87613711565b9550602087013561375f8161369d565b9450604087013561376f8161369d565b93506060878101359350607f198201121561378957600080fd5b506080860190509295509295909350565b600080600080608085870312156137b057600080fd5b843593506020850135925060408501356137c98161369d565b915060608501356137d98161369d565b939692955090935050565b6000602082840312156137f657600080fd5b61146c82613711565b6000806000806080858703121561381557600080fd5b84356138208161369d565b935060208501356138308161369d565b93969395505050506040820135916060013590565b60006020828403121561385757600080fd5b813561146c8161365c565b6000806020838503121561387557600080fd5b82356001600160401b038082111561388c57600080fd5b818501915085601f8301126138a057600080fd5b8135818111156138af57600080fd5b866020610140830285010111156138c557600080fd5b60209290920196919550909350505050565b6020808252825182820181905260009190848201906040850190845b8181101561390f578351835292840192918401916001016138f3565b50909695505050505050565b6000610140828403121561392e57600080fd5b50919050565b801515811461174957600080fd5b6000806040838503121561395557600080fd5b82356139608161365c565b9150602083013561397081613934565b809150509250929050565b634e487b7160e01b600052604160045260246000fd5b604080519081016001600160401b03811182821017156139b3576139b361397b565b60405290565b604051606081016001600160401b03811182821017156139b3576139b361397b565b604051601f8201601f191681016001600160401b0381118282101715613a0357613a0361397b565b604052919050565b60008060008060808587031215613a2157600080fd5b8435613a2c8161365c565b9350602085810135613a3d8161365c565b93506040860135925060608601356001600160401b0380821115613a6057600080fd5b818801915088601f830112613a7457600080fd5b813581811115613a8657613a8661397b565b613a98601f8201601f191685016139db565b91508082528984828501011115613aae57600080fd5b808484018584013760008482840101525080935050505092959194509250565b60008060408385031215613ae157600080fd5b8235613aec8161365c565b915060208301356139708161365c565b600181811c90821680613b1057607f821691505b60208210810361392e57634e487b7160e01b600052602260045260246000fd5b6020808252602d908201527f4552433732313a2063616c6c6572206973206e6f7420746f6b656e206f776e6560408201526c1c881bdc88185c1c1c9bdd9959609a1b606082015260800190565b634e487b7160e01b600052603260045260246000fd5b60ff8116811461174957600080fd5b8035613bad81613b93565b60ff16825260208181013590830152604090810135910152565b6001600160801b03198581168252841660208201526040810183905260c0810161272d6060830184613ba2565b634e487b7160e01b600052601160045260246000fd5b600060ff821660ff8103613c2057613c20613bf4565b60010192915050565b600060208284031215613c3b57600080fd5b815161146c81613934565b634e487b7160e01b600052600160045260246000fd5b60006001600160401b03808316818103613c7857613c78613bf4565b6001019392505050565b60008351613c948184602088016135d8565b835190830190613ca88183602088016135d8565b01949350505050565b60006020808385031215613cc457600080fd5b82516001600160401b0380821115613cdb57600080fd5b81850191506040808388031215613cf157600080fd5b613cf9613991565b8351613d048161369d565b81528385015183811115613d1757600080fd5b80850194505087601f850112613d2c57600080fd5b835183811115613d3e57613d3e61397b565b613d4c868260051b016139db565b8181528681019450606091820286018701918a831115613d6b57600080fd5b958701955b82871015613dbc5780878c031215613d885760008081fd5b613d906139b9565b8751613d9b8161369d565b81528789015189820152858801518682015286529586019594870194613d70565b5095820195909552979650505050505050565b600060018201613de157613de1613bf4565b5060010190565b60208082526025908201527f4552433732313a207472616e736665722066726f6d20696e636f72726563742060408201526437bbb732b960d91b606082015260800190565b600082821015613e3f57613e3f613bf4565b500390565b600081613e5357613e53613bf4565b506000190190565b600060208284031215613e6d57600080fd5b5051919050565b600060208284031215613e8657600080fd5b815161146c81613b93565b6000816000190483118215151615613eab57613eab613bf4565b500290565b600082613ecd57634e487b7160e01b600052601260045260246000fd5b500490565b8281526080810161146c6020830184613ba2565b600060208284031215613ef857600080fd5b815161146c8161365c565b60008219821115613f1657613f16613bf4565b500190565b60208082526032908201527f4552433732313a207472616e7366657220746f206e6f6e20455243373231526560408201527131b2b4bb32b91034b6b83632b6b2b73a32b960711b606082015260800190565b6001600160a01b038581168252841660208201526040810183905260806060820181905260009061214090830184613604565b600060208284031215613fb257600080fd5b815161146c816135a556fea2646970667358221220aaa442c2e963d7babf1875527f7969c6b563a7f586027caa8002568b777baa4364736f6c634300080f0033",
  "deployedBytecode": "0x608060405234801561001057600080fd5b50600436106102695760003560e01c80637b5df1c911610151578063b88d4fde116100c3578063d1e90d6211610087578063d1e90d62146105da578063d7194ccb146105e2578063e4650fac146105f5578063e985e9c514610608578063f26be3fc14610644578063f2fde38b1461064c57600080fd5b8063b88d4fde14610591578063bc985bc9146105a4578063c34b44a0146105ac578063c87b56dd146105bf578063c96121a8146105d257600080fd5b80638da5cb5b116101155780638da5cb5b1461050f57806395d89b4114610528578063a22cb46514610530578063a87d942c14610543578063b108501f14610563578063b18b78dd1461056b57600080fd5b80637b5df1c9146104d65780637df73e27146104e957806388bc76ba146104fc578063893d20e81461050f5780638ac6d2171461052057600080fd5b80634b9ba446116101ea57806365cacaa4116101ae57806365cacaa4146103f75780636b467d151461041d578063702595861461047457806370a082311461049457806370dea79a146104a7578063715018a6146104ce57600080fd5b80634b9ba446146103a357806358439479146103b65780636028421f146103be5780636352211e146103d157806363c724f7146103e457600080fd5b806323b872dd1161023157806323b872dd1461032357806325117b7214610336578063412406651461036a57806342842e0e1461037d57806346e116a61461039057600080fd5b806301ffc9a71461026e57806306fdde0314610296578063081812fc146102ab578063095ea7b3146102d657806312fa3bf1146102eb575b600080fd5b61028161027c3660046135bb565b61065f565b60405190151581526020015b60405180910390f35b61029e6106b1565b60405161028d9190613630565b6102be6102b9366004613643565b610743565b6040516001600160a01b03909116815260200161028d565b6102e96102e4366004613671565b61076a565b005b6103156102f93660046136b3565b6001600160801b0319166000908152600b602052604090205490565b60405190815260200161028d565b6102e96103313660046136d0565b610884565b7f00000000000000000000000000000000000000000000000000000000000000005b60405160ff909116815260200161028d565b6102e961037836600461372d565b6108b5565b6102e961038b3660046136d0565b610ac8565b61031561039e36600461379a565b610ae3565b6102e96103b13660046137e4565b610afc565b600e54610315565b6103156103cc3660046137ff565b610c0a565b6102be6103df366004613643565b610c18565b6102e96103f2366004613845565b610c78565b7f00000000000000000000000000000000000000000000000000000000000000006102be565b61043061042b3660046137e4565b610d06565b604080519788526020880196909652948601939093526060850191909152151560808401526001600160801b031990811660a08401521660c082015260e00161028d565b610487610482366004613862565b610d31565b60405161028d91906138d7565b6103156104a2366004613845565b610dea565b6103157f000000000000000000000000000000000000000000000000000000000000000081565b6102e9610e70565b6103156104e436600461391b565b610e84565b6102816104f7366004613845565b61114e565b6102e961050a3660046136b3565b61116f565b6000546001600160a01b03166102be565b600f54610315565b61029e61132a565b6102e961053e366004613942565b611339565b61054b611344565b6040516001600160401b03909116815260200161028d565b610358600181565b7f00000000000000000000000000000000000000000000000000000000000000006102be565b6102e961059f366004613a0b565b61134f565b610358600381565b6102e96105ba366004613845565b611381565b61029e6105cd366004613643565b61140c565b600854610315565b610358600281565b6102e96105f03660046137e4565b611473565b6103156106033660046137e4565b6116c8565b610281610616366004613ace565b6001600160a01b03918216600090815260066020908152604080832093909416825291909152205460ff1690565b610358600081565b6102e961065a366004613845565b6116d3565b60006001600160e01b031982166380ac58cd60e01b148061069057506001600160e01b03198216635b5e139f60e01b145b806106ab57506301ffc9a760e01b6001600160e01b03198316145b92915050565b6060600180546106c090613afc565b80601f01602080910402602001604051908101604052809291908181526020018280546106ec90613afc565b80156107395780601f1061070e57610100808354040283529160200191610739565b820191906000526020600020905b81548152906001019060200180831161071c57829003601f168201915b5050505050905090565b600061074e8261174c565b506000908152600560205260409020546001600160a01b031690565b600061077582610c18565b9050806001600160a01b0316836001600160a01b0316036107e75760405162461bcd60e51b815260206004820152602160248201527f4552433732313a20617070726f76616c20746f2063757272656e74206f776e656044820152603960f91b60648201526084015b60405180910390fd5b336001600160a01b038216148061080357506108038133610616565b6108755760405162461bcd60e51b815260206004820152603d60248201527f4552433732313a20617070726f76652063616c6c6572206973206e6f7420746f60448201527f6b656e206f776e6572206f7220617070726f76656420666f7220616c6c00000060648201526084016107de565b61087f83836117ab565b505050565b61088e3382611819565b6108aa5760405162461bcd60e51b81526004016107de90613b30565b61087f838383611897565b826001600160801b0319166009866001600160401b0316815481106108dc576108dc613b7d565b600091825260209091206006909102015460801b6001600160801b031916146109625760405162461bcd60e51b815260206004820152603260248201527f73637261746368416e64526566756e643a2070726f706f736974696f6e496420604482015271191bd95cc81b9bdd081b585d18da0818995d60721b60648201526084016107de565b6009856001600160401b03168154811061097e5761097e613b7d565b600091825260209091206005600690920201015460ff16156109f45760405162461bcd60e51b815260206004820152602960248201527f73637261746368416e64526566756e643a204265742068617320616c726561646044820152681e481cd95d1d1b195960ba1b60648201526084016107de565b604051631b62340760e01b81526001600160a01b037f00000000000000000000000000000000000000000000000000000000000000001690631b62340790610a46908790879087908790600401613bc7565b600060405180830381600087803b158015610a6057600080fd5b505af1158015610a74573d6000803e3d6000fd5b5050505060016009866001600160401b031681548110610a9657610a96613b7d565b60009182526020909120600690910201600501805460ff1916911515919091179055610ac1856119fb565b5050505050565b61087f8383836040518060200160405280600081525061134f565b6000610af185858585611d9f565b90505b949350505050565b60006009826001600160401b031681548110610b1a57610b1a613b7d565b60009182526020918290206040805160e081018252600690930290910180546001600160801b0319608082811b82168652600160801b909204821b169484019490945260018101549183019190915260028101546060830152600381015492820192909252600482015460a082015260059091015460ff1615801560c0830152909150610be95760405162461bcd60e51b815260206004820152601f60248201527f736574746c653a204265742068617320616c726561647920736574746c65640060448201526064016107de565b610c06828260200151836000015184604001518560600151611ec0565b5050565b6000610af18585858561210e565b6000818152600360205260408120546001600160a01b0316806106ab5760405162461bcd60e51b8152602060048201526018602482015277115490cdcc8c4e881a5b9d985b1a59081d1bdad95b88125160421b60448201526064016107de565b610c8061214a565b6001600160a01b038116610ce25760405162461bcd60e51b815260206004820152602360248201527f6772616e745369676e65723a20496e76616c6964207369676e6572206164647260448201526265737360e81b60648201526084016107de565b6001600160a01b03166000908152601060205260409020805460ff19166001179055565b6000806000806000806000610d1a886121a4565b959e949d50929b5090995097509550909350915050565b60606000826001600160401b03811115610d4d57610d4d61397b565b604051908082528060200260200182016040528015610d76578160200160208202803683370190505b50905060005b60ff8116841115610de2573685858360ff16818110610d9d57610d9d613b7d565b905061014002019050610daf81610e84565b838360ff1681518110610dc457610dc4613b7d565b60209081029190910101525080610dda81613c0a565b915050610d7c565b509392505050565b60006001600160a01b038216610e545760405162461bcd60e51b815260206004820152602960248201527f4552433732313a2061646472657373207a65726f206973206e6f7420612076616044820152683634b21037bbb732b960b91b60648201526084016107de565b506001600160a01b031660009081526004602052604090205490565b610e7861214a565b610e82600061226a565b565b600080610e9460208401846136b3565b610ea460408501602086016136b3565b610eb460608601604087016136b3565b604080516001600160801b0319948516602082015292841660308401529216918101919091526080840135605082015260a0840135607082015260c0840135609082015260b001604051602081830303815290604052805190602001209050610f20818460e0016122ba565b1515600114610f715760405162461bcd60e51b815260206004820152601760248201527f6261636b3a20496e76616c6964207369676e617475726500000000000000000060448201526064016107de565b428360c00135118015610f875750428360a00135115b610fc85760405162461bcd60e51b81526020600482015260126024820152716261636b3a20496e76616c6964206461746560701b60448201526064016107de565b6001600160a01b037f00000000000000000000000000000000000000000000000000000000000000001663b32b880e61100760608601604087016136b3565b6040516001600160e01b031960e084901b1681526001600160801b03199091166004820152602401602060405180830381865afa15801561104c573d6000803e3d6000fd5b505050506040513d601f19601f820116820180604052508101906110709190613c29565b156110d55760405162461bcd60e51b815260206004820152602f60248201527f6261636b3a204f7261636c6520726573756c7420616c7265616479207365742060448201526e199bdc881d1a1a5cc81b585c9ad95d608a1b60648201526084016107de565b60006111096110ea60408601602087016136b3565b6110fa60608701604088016136b3565b8660600135876080013561210e565b90506000811161111b5761111b613c46565b610af461112e60408601602087016136b3565b61113e60608701604088016136b3565b86606001358760c0013585612370565b6001600160a01b03811660009081526010602052604081205460ff166106ab565b6001600160801b031981166000908152600a602090815260408083208054825181850281018501909352808352919290919083018282801561120257602002820191906000526020600020906000905b82829054906101000a90046001600160401b03166001600160401b0316815260200190600801906020826007010492830192600103820291508084116111bf5790505b505083519394506000925050505b81816001600160401b0316101561131f57600083826001600160401b03168151811061123e5761123e613b7d565b6020026020010151905060006009826001600160401b03168154811061126657611266613b7d565b600091825260208083206040805160e081018252600690940290910180546001600160801b0319608082811b82168752600160801b909204821b169385019390935260018101549184019190915260028101546060840152600381015491830191909152600481015460a08301526005015460ff16151560c08201819052909250900361130a5761130a828260200151836000015184604001518560600151611ec0565b5050808061131790613c5c565b915050611210565b50505050565b905090565b6060600280546106c090613afc565b610c06338383612736565b600061132560095490565b6113593383611819565b6113755760405162461bcd60e51b81526004016107de90613b30565b61131f84848484612804565b61138961214a565b6001600160a01b0381166113eb5760405162461bcd60e51b8152602060048201526024808201527f7265766f6b655369676e65723a20496e76616c6964207369676e6572206164646044820152637265737360e01b60648201526084016107de565b6001600160a01b03166000908152601060205260409020805460ff19169055565b60606114178261174c565b6000611421612837565b90506000815111611441576040518060200160405280600081525061146c565b8061144b84612846565b60405160200161145c929190613c82565b6040516020818303038152906040525b9392505050565b6009816001600160401b03168154811061148f5761148f613b7d565b600091825260209091206005600690920201015460ff16156114f35760405162461bcd60e51b815260206004820152601f60248201527f726566756e643a204265742068617320616c726561647920736574746c65640060448201526064016107de565b60006009826001600160401b03168154811061151157611511613b7d565b60009182526020822060069190910201546040516325a8f38560e11b8152600160801b90910460801b6001600160801b03198116600483015292506001600160a01b037f00000000000000000000000000000000000000000000000000000000000000001690634b51e70a90602401600060405180830381865afa15801561159d573d6000803e3d6000fd5b505050506040513d6000823e601f3d908101601f191682016040526115c59190810190613cb1565b60208101515190915060005b8181101561167f576009856001600160401b0316815481106115f5576115f5613b7d565b906000526020600020906006020160000160009054906101000a900460801b6001600160801b0319168360200151828151811061163457611634613b7d565b6020026020010151600001516001600160801b0319160361166d5760016009866001600160401b031681548110610a9657610a96613b7d565b8061167781613dcf565b9150506115d1565b5060405162461bcd60e51b815260206004820152601f60248201527f726566756e643a204e6f7420656c696769626c6520666f7220726566756e640060448201526064016107de565b60006106ab826128d8565b6116db61214a565b6001600160a01b0381166117405760405162461bcd60e51b815260206004820152602660248201527f4f776e61626c653a206e6577206f776e657220697320746865207a65726f206160448201526564647265737360d01b60648201526084016107de565b6117498161226a565b50565b6000818152600360205260409020546001600160a01b03166117495760405162461bcd60e51b8152602060048201526018602482015277115490cdcc8c4e881a5b9d985b1a59081d1bdad95b88125160421b60448201526064016107de565b600081815260056020526040902080546001600160a01b0319166001600160a01b03841690811790915581906117e082610c18565b6001600160a01b03167f8c5be1e5ebec7d5bd14f71427d1e84f3dd0314c0f7b2291e5b200ac8c7c3b92560405160405180910390a45050565b60008061182583610c18565b9050806001600160a01b0316846001600160a01b0316148061186c57506001600160a01b0380821660009081526006602090815260408083209388168352929052205460ff165b80610af45750836001600160a01b031661188584610743565b6001600160a01b031614949350505050565b826001600160a01b03166118aa82610c18565b6001600160a01b0316146118d05760405162461bcd60e51b81526004016107de90613de8565b6001600160a01b0382166119325760405162461bcd60e51b8152602060048201526024808201527f4552433732313a207472616e7366657220746f20746865207a65726f206164646044820152637265737360e01b60648201526084016107de565b826001600160a01b031661194582610c18565b6001600160a01b03161461196b5760405162461bcd60e51b81526004016107de90613de8565b600081815260056020908152604080832080546001600160a01b03199081169091556001600160a01b0387811680865260048552838620805460001901905590871680865283862080546001019055868652600390945282852080549092168417909155905184937fddf252ad1be2c89b69c2b068fc378daa952ba7f163c4a11628f55a4df523b3ef91a4505050565b60006009826001600160401b031681548110611a1957611a19613b7d565b600091825260208083206040805160e081018252600690940290910180546001600160801b0319608082811b82168752600160801b909204821b169385019390935260018101549184019190915260028101546060840152600381015491830191909152600481015460a08301526005015460ff16151560c082015260098054919350906001600160401b038516908110611ab657611ab6613b7d565b9060005260206000209060060201600101546009846001600160401b031681548110611ae457611ae4613b7d565b906000526020600020906006020160020154611b009190613e2d565b905080600f6000828254611b149190613e2d565b9091555050600980546001600160401b038516908110611b3657611b36613b7d565b906000526020600020906006020160010154600e6000828254611b599190613e2d565b909155505060088054906000611b6e83613e44565b91905055506000611b87846001600160401b0316610c18565b604080850151905163a9059cbb60e01b81526001600160a01b03808416600483015260248201929092529192507f0000000000000000000000000000000000000000000000000000000000000000169063a9059cbb906044016020604051808303816000875af1158015611bff573d6000803e3d6000fd5b505050506040513d601f19601f82011682018060405250810190611c239190613c29565b5060405163a9059cbb60e01b81526001600160a01b037f000000000000000000000000000000000000000000000000000000000000000081166004830152602482018490527f0000000000000000000000000000000000000000000000000000000000000000169063a9059cbb906044016020604051808303816000875af1158015611cb3573d6000803e3d6000fd5b505050506040513d601f19601f82011682018060405250810190611cd79190613c29565b507f00000000000000000000000000000000000000000000000000000000000000006001600160a01b03167f0516911bcc3a0a7412a44601057c0a0a1ec628bde049a84284bc42886653448883604051611d3391815260200190565b60405180910390a260408084015181516001600160401b038716815260208101919091526001600160a01b038316917fe5fd53654bc4ea55a3106f8f2bd57252875afee33cc027448099373ae65408f6910160405180910390a261131f846001600160401b0316612933565b6000600185111580611db2575060018411155b15611dbf57506001610af4565b60007f00000000000000000000000000000000000000000000000000000000000000006001600160a01b031663b15031fa6040518163ffffffff1660e01b8152600401602060405180830381865afa158015611e1f573d6000803e3d6000fd5b505050506040513d601f19601f82011682018060405250810190611e439190613e5b565b905080600003611e57576001915050610af4565b6001600160801b031984166000908152600d6020526040902054811015611e82576001915050610af4565b6001600160801b031984166000908152600d6020526040902054611ea69082613e2d565b90506000611eb58787846129c8565b979650505050505050565b6040516306c77ce760e01b81526001600160801b03198086166004830152841660248201526000907f00000000000000000000000000000000000000000000000000000000000000006001600160a01b0316906306c77ce790604401602060405180830381865afa158015611f39573d6000803e3d6000fd5b505050506040513d601f19601f82011682018060405250810190611f5d9190613e74565b9050611f68866128d8565b42118015611f77575060ff8116155b15612024576000611f90876001600160401b0316610c18565b9050611fa6876001600160401b03166001612a4d565b604080516001600160401b03891681526020810185905260ff84168183015290516001600160a01b038316917f7c2e00429f610bdb997681cabbb0ef3197390c07fe90ea4a98ac36438dd4217c919081900360600190a261200f876001600160401b0316612933565b612022876001600160401b031685613065565b505b60ff81161561210657600060011960ff831601612061577f0000000000000000000000000000000000000000000000000000000000000000612073565b612073876001600160401b0316610c18565b9050612088876001600160401b031683612a4d565b604080516001600160401b03891681526020810185905260ff84168183015290516001600160a01b038316917f7c2e00429f610bdb997681cabbb0ef3197390c07fe90ea4a98ac36438dd4217c919081900360600190a26120f1876001600160401b0316612933565b612104876001600160401b031685613065565b505b505050505050565b60008061211d84848888611d9f565b905061214084620f42406121318285613e91565b61213b9190613eb0565b6130d2565b9695505050505050565b6000546001600160a01b03163314610e825760405162461bcd60e51b815260206004820181905260248201527f4f776e61626c653a2063616c6c6572206973206e6f7420746865206f776e657260448201526064016107de565b6000806000806000806000806009896001600160401b0316815481106121cc576121cc613b7d565b60009182526020918290206040805160e0810182526006939093029091018054608081811b6001600160801b0319908116808752600160801b909304821b1695850186905260018301549385018490526002830154606086018190526003840154918601829052600484015460a0870181905260059094015460ff16151560c0909601869052939f939e509c50909a50919850919650945092505050565b600080546001600160a01b038381166001600160a01b0319831681178455604051919092169283917f8be0079c531659141344cd1fd0a4f28419497f9722a3daafe3b4186f6b6457e09190a35050565b60008073__$47464c6f7588c8075b5d384b19d082a8ec$__635cff288d85856040518363ffffffff1660e01b81526004016122f6929190613ed2565b602060405180830381865af4158015612313573d6000803e3d6000fd5b505050506040513d601f19601f820116820180604052508101906123379190613ee6565b90506001600160a01b03811661234f5761234f613c46565b6001600160a01b03811660009081526010602052604090205460ff16610af4565b60006001600160a01b037f0000000000000000000000000000000000000000000000000000000000000000166323b872dd3360405160e083901b6001600160e01b03191681526001600160a01b0391821660048201527f00000000000000000000000000000000000000000000000000000000000000009091166024820152604481018790526064016020604051808303816000875af1158015612418573d6000803e3d6000fd5b505050506040513d601f19601f8201168201806040525081019061243c9190613c29565b506001600160801b031985166000908152600b602052604081208054869290612466908490613f03565b9250508190555083600e600082825461247f9190613f03565b90915550506008805490600061249483613dcf565b919050555060006124a460095490565b6001600160801b031988166000908152600d60205260408120805492935085929091906124d2908490613f03565b909155506124ee90506001600160401b038216878988876130e8565b600f60008282546124ff9190613f03565b90915550506040805160e0810182526001600160801b03198981168252881660208083018281528385018a81526060850189815260808087018c81524260a08901908152600060c08a0181815260098054600180820183559184529b51985198861c600160801b9990961c98909802949094177f6e1540171b6c0c960b71a7020d9f60077f6af931a8bbf590da0223dacf75c7af6006909b029a8b015594517f6e1540171b6c0c960b71a7020d9f60077f6af931a8bbf590da0223dacf75c7b08a015592517f6e1540171b6c0c960b71a7020d9f60077f6af931a8bbf590da0223dacf75c7b1890155517f6e1540171b6c0c960b71a7020d9f60077f6af931a8bbf590da0223dacf75c7b288015590517f6e1540171b6c0c960b71a7020d9f60077f6af931a8bbf590da0223dacf75c7b3870155517f6e1540171b6c0c960b71a7020d9f60077f6af931a8bbf590da0223dacf75c7b4909501805460ff191695151595909517909455918352600a81529282208054918201815582529190206004820401805460039092166008026101000a6001600160401b0381810219909316928416029190911790556126bd33826001600160401b0316613244565b604080516001600160401b03831681526001600160801b031989811660208301528816818301526060810187905260808101859052905133917f1d273ea6a1aea94de32fd06a09ab8046dff8e3261c5a4ecaa5e1a5705f3342ec919081900360a00190a26001600160401b031690505b95945050505050565b816001600160a01b0316836001600160a01b0316036127975760405162461bcd60e51b815260206004820152601960248201527f4552433732313a20617070726f766520746f2063616c6c65720000000000000060448201526064016107de565b6001600160a01b03838116600081815260066020908152604080832094871680845294825291829020805460ff191686151590811790915591519182527f17307eab39ab6107e8899845ad3d59bd9653f200f220920489ca2b5937696c31910160405180910390a3505050565b61280f848484611897565b61281b848484846133cf565b61131f5760405162461bcd60e51b81526004016107de90613f1b565b6060600780546106c090613afc565b60606000612853836134cd565b60010190506000816001600160401b038111156128725761287261397b565b6040519080825280601f01601f19166020018201604052801561289c576020820181803683370190505b5090508181016020015b600019016f181899199a1a9b1b9c1cb0b131b232b360811b600a86061a8153600a85049450846128a657509392505050565b60007f00000000000000000000000000000000000000000000000000000000000000006009836001600160401b03168154811061291757612917613b7d565b9060005260206000209060060201600301546106ab9190613f03565b600061293e82610c18565b905061294982610c18565b600083815260056020908152604080832080546001600160a01b03199081169091556001600160a01b0385168085526004845282852080546000190190558785526003909352818420805490911690555192935084927fddf252ad1be2c89b69c2b068fc378daa952ba7f163c4a11628f55a4df523b3ef908390a45050565b60405163a19dec4360e01b815260048101849052602481018390526044810182905260009073__$488e0037c7b108d422da68056570fe35d6$__9063a19dec4390606401602060405180830381865af4158015612a29573d6000803e3d6000fd5b505050506040513d601f19601f82011682018060405250810190610af49190613e5b565b600060098381548110612a6257612a62613b7d565b9060005260206000209060060201600201549050600060098481548110612a8b57612a8b613b7d565b600091825260208220600160069092020101549150612aaa8284613e2d565b905080600f6000828254612abe9190613e2d565b909155505060021960ff851601612c97577f00000000000000000000000000000000000000000000000000000000000000006001600160a01b031663a9059cbb612b0787610c18565b6040516001600160e01b031960e084901b1681526001600160a01b039091166004820152602481018590526044016020604051808303816000875af1158015612b54573d6000803e3d6000fd5b505050506040513d601f19601f82011682018060405250810190612b789190613c29565b5060405163a9059cbb60e01b81526001600160a01b037f000000000000000000000000000000000000000000000000000000000000000081166004830152602482018390527f0000000000000000000000000000000000000000000000000000000000000000169063a9059cbb906044016020604051808303816000875af1158015612c08573d6000803e3d6000fd5b505050506040513d601f19601f82011682018060405250810190612c2c9190613c29565b507f00000000000000000000000000000000000000000000000000000000000000006001600160a01b03167f0516911bcc3a0a7412a44601057c0a0a1ec628bde049a84284bc42886653448882604051612c8891815260200190565b60405180910390a25050505050565b4260098681548110612cab57612cab613b7d565b90600052602060002090600602016003015410612d0a5760405162461bcd60e51b815260206004820181905260248201527f5f7061796f75743a205061796f75742064617465206e6f74207265616368656460448201526064016107de565b60001960ff851601612dc1577f00000000000000000000000000000000000000000000000000000000000000006001600160a01b031663a9059cbb612d4e87610c18565b6040516001600160e01b031960e084901b1681526001600160a01b039091166004820152602481018690526044016020604051808303816000875af1158015612d9b573d6000803e3d6000fd5b505050506040513d601f19601f82011682018060405250810190612dbf9190613c29565b505b60011960ff851601610ac15760007f00000000000000000000000000000000000000000000000000000000000000006001600160a01b031663679aefce6040518163ffffffff1660e01b8152600401602060405180830381865afa158015612e2d573d6000803e3d6000fd5b505050506040513d601f19601f82011682018060405250810190612e519190613e5b565b9050620186a08111612e6557612e65613c46565b6000620186a0612e758385613e91565b612e7f9190613eb0565b905080851115612f45577f00000000000000000000000000000000000000000000000000000000000000006001600160a01b031663a9059cbb612eca6000546001600160a01b031690565b612ed48489613e2d565b6040516001600160e01b031960e085901b1681526001600160a01b03909216600483015260248201526044016020604051808303816000875af1158015612f1f573d6000803e3d6000fd5b505050506040513d601f19601f82011682018060405250810190612f439190613c29565b505b60405163a9059cbb60e01b81526001600160a01b037f000000000000000000000000000000000000000000000000000000000000000081166004830152602482018390527f0000000000000000000000000000000000000000000000000000000000000000169063a9059cbb906044016020604051808303816000875af1158015612fd4573d6000803e3d6000fd5b505050506040513d601f19601f82011682018060405250810190612ff89190613c29565b507f00000000000000000000000000000000000000000000000000000000000000006001600160a01b03167f0516911bcc3a0a7412a44601057c0a0a1ec628bde049a84284bc4288665344888260405161305491815260200190565b60405180910390a250505050505050565b6008805490600061307583613e44565b919050555060016009838154811061308f5761308f613b7d565b60009182526020909120600690910201600501805460ff19169115159190911790558015610c065780600e60008282546130c99190613e2d565b90915550505050565b60008183116130e1578161146c565b5090919050565b6000806130f58484613e2d565b6040516323b872dd60e01b81526001600160a01b037f0000000000000000000000000000000000000000000000000000000000000000811660048301527f000000000000000000000000000000000000000000000000000000000000000081166024830152604482018390529192507f0000000000000000000000000000000000000000000000000000000000000000909116906323b872dd906064016020604051808303816000875af11580156131b1573d6000803e3d6000fd5b505050506040513d601f19601f820116820180604052508101906131d59190613c29565b5060408051888152602081018390526001600160a01b037f000000000000000000000000000000000000000000000000000000000000000016917feae9cfbc77fdd40ca899f36b608256063b2bc9d8178b0220f7ad513e178d6730910160405180910390a29695505050505050565b6001600160a01b03821661329a5760405162461bcd60e51b815260206004820181905260248201527f4552433732313a206d696e7420746f20746865207a65726f206164647265737360448201526064016107de565b6000818152600360205260409020546001600160a01b0316156132ff5760405162461bcd60e51b815260206004820152601c60248201527f4552433732313a20746f6b656e20616c7265616479206d696e7465640000000060448201526064016107de565b6000818152600360205260409020546001600160a01b0316156133645760405162461bcd60e51b815260206004820152601c60248201527f4552433732313a20746f6b656e20616c7265616479206d696e7465640000000060448201526064016107de565b6001600160a01b038216600081815260046020908152604080832080546001019055848352600390915280822080546001600160a01b0319168417905551839291907fddf252ad1be2c89b69c2b068fc378daa952ba7f163c4a11628f55a4df523b3ef908290a45050565b60006001600160a01b0384163b156134c557604051630a85bd0160e11b81526001600160a01b0385169063150b7a0290613413903390899088908890600401613f6d565b6020604051808303816000875af192505050801561344e575060408051601f3d908101601f1916820190925261344b91810190613fa0565b60015b6134ab573d80801561347c576040519150601f19603f3d011682016040523d82523d6000602084013e613481565b606091505b5080516000036134a35760405162461bcd60e51b81526004016107de90613f1b565b805181602001fd5b6001600160e01b031916630a85bd0160e11b149050610af4565b506001610af4565b60008072184f03e93ff9f4daa797ed6e38ed64bf6a1f0160401b831061350c5772184f03e93ff9f4daa797ed6e38ed64bf6a1f0160401b830492506040015b6d04ee2d6d415b85acef81000000008310613538576d04ee2d6d415b85acef8100000000830492506020015b662386f26fc10000831061355657662386f26fc10000830492506010015b6305f5e100831061356e576305f5e100830492506008015b612710831061358257612710830492506004015b60648310613594576064830492506002015b600a83106106ab5760010192915050565b6001600160e01b03198116811461174957600080fd5b6000602082840312156135cd57600080fd5b813561146c816135a5565b60005b838110156135f35781810151838201526020016135db565b8381111561131f5750506000910152565b6000815180845261361c8160208601602086016135d8565b601f01601f19169290920160200192915050565b60208152600061146c6020830184613604565b60006020828403121561365557600080fd5b5035919050565b6001600160a01b038116811461174957600080fd5b6000806040838503121561368457600080fd5b823561368f8161365c565b946020939093013593505050565b6001600160801b03198116811461174957600080fd5b6000602082840312156136c557600080fd5b813561146c8161369d565b6000806000606084860312156136e557600080fd5b83356136f08161365c565b925060208401356137008161365c565b929592945050506040919091013590565b80356001600160401b038116811461372857600080fd5b919050565b600080600080600085870360e081121561374657600080fd5b61374f87613711565b9550602087013561375f8161369d565b9450604087013561376f8161369d565b93506060878101359350607f198201121561378957600080fd5b506080860190509295509295909350565b600080600080608085870312156137b057600080fd5b843593506020850135925060408501356137c98161369d565b915060608501356137d98161369d565b939692955090935050565b6000602082840312156137f657600080fd5b61146c82613711565b6000806000806080858703121561381557600080fd5b84356138208161369d565b935060208501356138308161369d565b93969395505050506040820135916060013590565b60006020828403121561385757600080fd5b813561146c8161365c565b6000806020838503121561387557600080fd5b82356001600160401b038082111561388c57600080fd5b818501915085601f8301126138a057600080fd5b8135818111156138af57600080fd5b866020610140830285010111156138c557600080fd5b60209290920196919550909350505050565b6020808252825182820181905260009190848201906040850190845b8181101561390f578351835292840192918401916001016138f3565b50909695505050505050565b6000610140828403121561392e57600080fd5b50919050565b801515811461174957600080fd5b6000806040838503121561395557600080fd5b82356139608161365c565b9150602083013561397081613934565b809150509250929050565b634e487b7160e01b600052604160045260246000fd5b604080519081016001600160401b03811182821017156139b3576139b361397b565b60405290565b604051606081016001600160401b03811182821017156139b3576139b361397b565b604051601f8201601f191681016001600160401b0381118282101715613a0357613a0361397b565b604052919050565b60008060008060808587031215613a2157600080fd5b8435613a2c8161365c565b9350602085810135613a3d8161365c565b93506040860135925060608601356001600160401b0380821115613a6057600080fd5b818801915088601f830112613a7457600080fd5b813581811115613a8657613a8661397b565b613a98601f8201601f191685016139db565b91508082528984828501011115613aae57600080fd5b808484018584013760008482840101525080935050505092959194509250565b60008060408385031215613ae157600080fd5b8235613aec8161365c565b915060208301356139708161365c565b600181811c90821680613b1057607f821691505b60208210810361392e57634e487b7160e01b600052602260045260246000fd5b6020808252602d908201527f4552433732313a2063616c6c6572206973206e6f7420746f6b656e206f776e6560408201526c1c881bdc88185c1c1c9bdd9959609a1b606082015260800190565b634e487b7160e01b600052603260045260246000fd5b60ff8116811461174957600080fd5b8035613bad81613b93565b60ff16825260208181013590830152604090810135910152565b6001600160801b03198581168252841660208201526040810183905260c0810161272d6060830184613ba2565b634e487b7160e01b600052601160045260246000fd5b600060ff821660ff8103613c2057613c20613bf4565b60010192915050565b600060208284031215613c3b57600080fd5b815161146c81613934565b634e487b7160e01b600052600160045260246000fd5b60006001600160401b03808316818103613c7857613c78613bf4565b6001019392505050565b60008351613c948184602088016135d8565b835190830190613ca88183602088016135d8565b01949350505050565b60006020808385031215613cc457600080fd5b82516001600160401b0380821115613cdb57600080fd5b81850191506040808388031215613cf157600080fd5b613cf9613991565b8351613d048161369d565b81528385015183811115613d1757600080fd5b80850194505087601f850112613d2c57600080fd5b835183811115613d3e57613d3e61397b565b613d4c868260051b016139db565b8181528681019450606091820286018701918a831115613d6b57600080fd5b958701955b82871015613dbc5780878c031215613d885760008081fd5b613d906139b9565b8751613d9b8161369d565b81528789015189820152858801518682015286529586019594870194613d70565b5095820195909552979650505050505050565b600060018201613de157613de1613bf4565b5060010190565b60208082526025908201527f4552433732313a207472616e736665722066726f6d20696e636f72726563742060408201526437bbb732b960d91b606082015260800190565b600082821015613e3f57613e3f613bf4565b500390565b600081613e5357613e53613bf4565b506000190190565b600060208284031215613e6d57600080fd5b5051919050565b600060208284031215613e8657600080fd5b815161146c81613b93565b6000816000190483118215151615613eab57613eab613bf4565b500290565b600082613ecd57634e487b7160e01b600052601260045260246000fd5b500490565b8281526080810161146c6020830184613ba2565b600060208284031215613ef857600080fd5b815161146c8161365c565b60008219821115613f1657613f16613bf4565b500190565b60208082526032908201527f4552433732313a207472616e7366657220746f206e6f6e20455243373231526560408201527131b2b4bb32b91034b6b83632b6b2b73a32b960711b606082015260800190565b6001600160a01b038581168252841660208201526040810183905260806060820181905260009061214090830184613604565b600060208284031215613fb257600080fd5b815161146c816135a556fea2646970667358221220aaa442c2e963d7babf1875527f7969c6b563a7f586027caa8002568b777baa4364736f6c634300080f0033",
  "libraries": {
    "SignatureLib": "0x2B099764cE9F03387Aa77328A321B79eB6391711",
    "OddsLib": "0xf275d6D06162F8ACB816CE867E33077Aa71f4655"
  },
  "devdoc": {
    "kind": "dev",
    "methods": {
      "approve(address,uint256)": {
        "details": "See {IERC721-approve}."
      },
      "balanceOf(address)": {
        "details": "See {IERC721-balanceOf}."
      },
      "getApproved(uint256)": {
        "details": "See {IERC721-getApproved}."
      },
      "isApprovedForAll(address,address)": {
        "details": "See {IERC721-isApprovedForAll}."
      },
      "name()": {
        "details": "See {IERC721Metadata-name}."
      },
      "owner()": {
        "details": "Returns the address of the current owner."
      },
      "ownerOf(uint256)": {
        "details": "See {IERC721-ownerOf}."
      },
      "renounceOwnership()": {
        "details": "Leaves the contract without owner. It will not be possible to call `onlyOwner` functions anymore. Can only be called by the current owner. NOTE: Renouncing ownership will leave the contract without an owner, thereby removing any functionality that is only available to the owner."
      },
      "safeTransferFrom(address,address,uint256)": {
        "details": "See {IERC721-safeTransferFrom}."
      },
      "safeTransferFrom(address,address,uint256,bytes)": {
        "details": "See {IERC721-safeTransferFrom}."
      },
      "setApprovalForAll(address,bool)": {
        "details": "See {IERC721-setApprovalForAll}."
      },
      "supportsInterface(bytes4)": {
        "details": "See {IERC165-supportsInterface}."
      },
      "symbol()": {
        "details": "See {IERC721Metadata-symbol}."
      },
      "tokenURI(uint256)": {
        "details": "See {IERC721Metadata-tokenURI}."
      },
      "transferFrom(address,address,uint256)": {
        "details": "See {IERC721-transferFrom}."
      },
      "transferOwnership(address)": {
        "details": "Transfers ownership of the contract to a new account (`newOwner`). Can only be called by the current owner."
      }
    },
    "version": 1
  },
  "userdoc": {
    "kind": "user",
    "methods": {},
    "version": 1
  },
  "storageLayout": {
    "storage": [
      {
        "astId": 2722,
        "contract": "contracts/Market.sol:Market",
        "label": "_owner",
        "offset": 0,
        "slot": "0",
        "type": "t_address"
      },
      {
        "astId": 5039,
        "contract": "contracts/Market.sol:Market",
        "label": "_name",
        "offset": 0,
        "slot": "1",
        "type": "t_string_storage"
      },
      {
        "astId": 5041,
        "contract": "contracts/Market.sol:Market",
        "label": "_symbol",
        "offset": 0,
        "slot": "2",
        "type": "t_string_storage"
      },
      {
        "astId": 5045,
        "contract": "contracts/Market.sol:Market",
        "label": "_owners",
        "offset": 0,
        "slot": "3",
        "type": "t_mapping(t_uint256,t_address)"
      },
      {
        "astId": 5049,
        "contract": "contracts/Market.sol:Market",
        "label": "_balances",
        "offset": 0,
        "slot": "4",
        "type": "t_mapping(t_address,t_uint256)"
      },
      {
        "astId": 5053,
        "contract": "contracts/Market.sol:Market",
        "label": "_tokenApprovals",
        "offset": 0,
        "slot": "5",
        "type": "t_mapping(t_uint256,t_address)"
      },
      {
        "astId": 5059,
        "contract": "contracts/Market.sol:Market",
        "label": "_operatorApprovals",
        "offset": 0,
        "slot": "6",
        "type": "t_mapping(t_address,t_mapping(t_address,t_bool))"
      },
      {
        "astId": 10064,
        "contract": "contracts/Market.sol:Market",
        "label": "_metadataBaseURI",
        "offset": 0,
        "slot": "7",
        "type": "t_string_storage"
      },
      {
        "astId": 10078,
        "contract": "contracts/Market.sol:Market",
        "label": "_inplayCount",
        "offset": 0,
        "slot": "8",
        "type": "t_uint256"
      },
      {
        "astId": 10082,
        "contract": "contracts/Market.sol:Market",
        "label": "_bets",
        "offset": 0,
        "slot": "9",
        "type": "t_array(t_struct(Bet)10048_storage)dyn_storage"
      },
      {
        "astId": 10087,
        "contract": "contracts/Market.sol:Market",
        "label": "_marketBets",
        "offset": 0,
        "slot": "10",
        "type": "t_mapping(t_bytes16,t_array(t_uint64)dyn_storage)"
      },
      {
        "astId": 10091,
        "contract": "contracts/Market.sol:Market",
        "label": "_marketTotal",
        "offset": 0,
        "slot": "11",
        "type": "t_mapping(t_bytes16,t_uint256)"
      },
      {
        "astId": 10097,
        "contract": "contracts/Market.sol:Market",
        "label": "_marketBetAmount",
        "offset": 0,
        "slot": "12",
        "type": "t_mapping(t_bytes16,t_mapping(t_uint16,t_uint256))"
      },
      {
        "astId": 10101,
        "contract": "contracts/Market.sol:Market",
        "label": "_potentialPayout",
        "offset": 0,
        "slot": "13",
        "type": "t_mapping(t_bytes16,t_uint256)"
      },
      {
        "astId": 10103,
        "contract": "contracts/Market.sol:Market",
        "label": "_totalInPlay",
        "offset": 0,
        "slot": "14",
        "type": "t_uint256"
      },
      {
        "astId": 10105,
        "contract": "contracts/Market.sol:Market",
        "label": "_totalExposure",
        "offset": 0,
        "slot": "15",
        "type": "t_uint256"
      },
      {
        "astId": 10111,
        "contract": "contracts/Market.sol:Market",
        "label": "_signers",
        "offset": 0,
        "slot": "16",
        "type": "t_mapping(t_address,t_bool)"
      }
    ],
    "types": {
      "t_address": {
        "encoding": "inplace",
        "label": "address",
        "numberOfBytes": "20"
      },
      "t_array(t_struct(Bet)10048_storage)dyn_storage": {
        "base": "t_struct(Bet)10048_storage",
        "encoding": "dynamic_array",
        "label": "struct Bet[]",
        "numberOfBytes": "32"
      },
      "t_array(t_uint64)dyn_storage": {
        "base": "t_uint64",
        "encoding": "dynamic_array",
        "label": "uint64[]",
        "numberOfBytes": "32"
      },
      "t_bool": {
        "encoding": "inplace",
        "label": "bool",
        "numberOfBytes": "1"
      },
      "t_bytes16": {
        "encoding": "inplace",
        "label": "bytes16",
        "numberOfBytes": "16"
      },
      "t_mapping(t_address,t_bool)": {
        "encoding": "mapping",
        "key": "t_address",
        "label": "mapping(address => bool)",
        "numberOfBytes": "32",
        "value": "t_bool"
      },
      "t_mapping(t_address,t_mapping(t_address,t_bool))": {
        "encoding": "mapping",
        "key": "t_address",
        "label": "mapping(address => mapping(address => bool))",
        "numberOfBytes": "32",
        "value": "t_mapping(t_address,t_bool)"
      },
      "t_mapping(t_address,t_uint256)": {
        "encoding": "mapping",
        "key": "t_address",
        "label": "mapping(address => uint256)",
        "numberOfBytes": "32",
        "value": "t_uint256"
      },
      "t_mapping(t_bytes16,t_array(t_uint64)dyn_storage)": {
        "encoding": "mapping",
        "key": "t_bytes16",
        "label": "mapping(bytes16 => uint64[])",
        "numberOfBytes": "32",
        "value": "t_array(t_uint64)dyn_storage"
      },
      "t_mapping(t_bytes16,t_mapping(t_uint16,t_uint256))": {
        "encoding": "mapping",
        "key": "t_bytes16",
        "label": "mapping(bytes16 => mapping(uint16 => uint256))",
        "numberOfBytes": "32",
        "value": "t_mapping(t_uint16,t_uint256)"
      },
      "t_mapping(t_bytes16,t_uint256)": {
        "encoding": "mapping",
        "key": "t_bytes16",
        "label": "mapping(bytes16 => uint256)",
        "numberOfBytes": "32",
        "value": "t_uint256"
      },
      "t_mapping(t_uint16,t_uint256)": {
        "encoding": "mapping",
        "key": "t_uint16",
        "label": "mapping(uint16 => uint256)",
        "numberOfBytes": "32",
        "value": "t_uint256"
      },
      "t_mapping(t_uint256,t_address)": {
        "encoding": "mapping",
        "key": "t_uint256",
        "label": "mapping(uint256 => address)",
        "numberOfBytes": "32",
        "value": "t_address"
      },
      "t_string_storage": {
        "encoding": "bytes",
        "label": "string",
        "numberOfBytes": "32"
      },
      "t_struct(Bet)10048_storage": {
        "encoding": "inplace",
        "label": "struct Bet",
        "members": [
          {
            "astId": 10035,
            "contract": "contracts/Market.sol:Market",
            "label": "propositionId",
            "offset": 0,
            "slot": "0",
            "type": "t_bytes16"
          },
          {
            "astId": 10037,
            "contract": "contracts/Market.sol:Market",
            "label": "marketId",
            "offset": 16,
            "slot": "0",
            "type": "t_bytes16"
          },
          {
            "astId": 10039,
            "contract": "contracts/Market.sol:Market",
            "label": "amount",
            "offset": 0,
            "slot": "1",
            "type": "t_uint256"
          },
          {
            "astId": 10041,
            "contract": "contracts/Market.sol:Market",
            "label": "payout",
            "offset": 0,
            "slot": "2",
            "type": "t_uint256"
          },
          {
            "astId": 10043,
            "contract": "contracts/Market.sol:Market",
            "label": "payoutDate",
            "offset": 0,
            "slot": "3",
            "type": "t_uint256"
          },
          {
            "astId": 10045,
            "contract": "contracts/Market.sol:Market",
            "label": "created",
            "offset": 0,
            "slot": "4",
            "type": "t_uint256"
          },
          {
            "astId": 10047,
            "contract": "contracts/Market.sol:Market",
            "label": "settled",
            "offset": 0,
            "slot": "5",
            "type": "t_bool"
          }
        ],
        "numberOfBytes": "192"
      },
      "t_uint16": {
        "encoding": "inplace",
        "label": "uint16",
        "numberOfBytes": "2"
      },
      "t_uint256": {
        "encoding": "inplace",
        "label": "uint256",
        "numberOfBytes": "32"
      },
      "t_uint64": {
        "encoding": "inplace",
        "label": "uint64",
        "numberOfBytes": "8"
      }
    }
  }
}