{
  "address": "0x09934dAD8e442CD5f370646559225556380f669E",
  "abi": [
    {
      "inputs": [
        {
          "internalType": "contract IVault",
          "name": "vault",
          "type": "address"
        },
        {
          "internalType": "uint8",
          "name": "margin",
          "type": "uint8"
        },
        {
          "internalType": "address",
          "name": "oracle",
          "type": "address"
        }
      ],
      "stateMutability": "nonpayable",
      "type": "constructor"
    },
    {
      "anonymous": false,
      "inputs": [
        {
          "indexed": true,
          "internalType": "address",
          "name": "owner",
          "type": "address"
        },
        {
          "indexed": true,
          "internalType": "address",
          "name": "approved",
          "type": "address"
        },
        {
          "indexed": true,
          "internalType": "uint256",
          "name": "tokenId",
          "type": "uint256"
        }
      ],
      "name": "Approval",
      "type": "event"
    },
    {
      "anonymous": false,
      "inputs": [
        {
          "indexed": true,
          "internalType": "address",
          "name": "owner",
          "type": "address"
        },
        {
          "indexed": true,
          "internalType": "address",
          "name": "operator",
          "type": "address"
        },
        {
          "indexed": false,
          "internalType": "bool",
          "name": "approved",
          "type": "bool"
        }
      ],
      "name": "ApprovalForAll",
      "type": "event"
    },
    {
      "anonymous": false,
      "inputs": [
        {
          "indexed": true,
          "internalType": "address",
          "name": "previousOwner",
          "type": "address"
        },
        {
          "indexed": true,
          "internalType": "address",
          "name": "newOwner",
          "type": "address"
        }
      ],
      "name": "OwnershipTransferred",
      "type": "event"
    },
    {
      "anonymous": false,
      "inputs": [
        {
          "indexed": false,
          "internalType": "uint256",
          "name": "index",
          "type": "uint256"
        },
        {
          "indexed": false,
          "internalType": "bytes16",
          "name": "propositionId",
          "type": "bytes16"
        },
        {
          "indexed": false,
          "internalType": "bytes16",
          "name": "marketId",
          "type": "bytes16"
        },
        {
          "indexed": false,
          "internalType": "uint256",
          "name": "amount",
          "type": "uint256"
        },
        {
          "indexed": false,
          "internalType": "uint256",
          "name": "payout",
          "type": "uint256"
        },
        {
          "indexed": true,
          "internalType": "address",
          "name": "owner",
          "type": "address"
        }
      ],
      "name": "Placed",
      "type": "event"
    },
    {
      "anonymous": false,
      "inputs": [
        {
          "indexed": false,
          "internalType": "uint256",
          "name": "index",
          "type": "uint256"
        },
        {
          "indexed": false,
          "internalType": "uint256",
          "name": "payout",
          "type": "uint256"
        },
        {
          "indexed": false,
          "internalType": "bool",
          "name": "result",
          "type": "bool"
        },
        {
          "indexed": true,
          "internalType": "address",
          "name": "recipient",
          "type": "address"
        }
      ],
      "name": "Settled",
      "type": "event"
    },
    {
      "anonymous": false,
      "inputs": [
        {
          "indexed": true,
          "internalType": "address",
          "name": "from",
          "type": "address"
        },
        {
          "indexed": true,
          "internalType": "address",
          "name": "to",
          "type": "address"
        },
        {
          "indexed": true,
          "internalType": "uint256",
          "name": "tokenId",
          "type": "uint256"
        }
      ],
      "name": "Transfer",
      "type": "event"
    },
    {
      "inputs": [
        {
          "internalType": "address",
          "name": "to",
          "type": "address"
        },
        {
          "internalType": "uint256",
          "name": "tokenId",
          "type": "uint256"
        }
      ],
      "name": "approve",
      "outputs": [],
      "stateMutability": "nonpayable",
      "type": "function"
    },
    {
      "inputs": [
        {
          "internalType": "bytes16",
          "name": "nonce",
          "type": "bytes16"
        },
        {
          "internalType": "bytes16",
          "name": "propositionId",
          "type": "bytes16"
        },
        {
          "internalType": "bytes16",
          "name": "marketId",
          "type": "bytes16"
        },
        {
          "internalType": "uint256",
          "name": "wager",
          "type": "uint256"
        },
        {
          "internalType": "uint256",
          "name": "odds",
          "type": "uint256"
        },
        {
          "internalType": "uint256",
          "name": "close",
          "type": "uint256"
        },
        {
          "internalType": "uint256",
          "name": "end",
          "type": "uint256"
        },
        {
          "components": [
            {
              "internalType": "uint8",
              "name": "v",
              "type": "uint8"
            },
            {
              "internalType": "bytes32",
              "name": "r",
              "type": "bytes32"
            },
            {
              "internalType": "bytes32",
              "name": "s",
              "type": "bytes32"
            }
          ],
          "internalType": "struct SignatureLib.Signature",
          "name": "signature",
          "type": "tuple"
        }
      ],
      "name": "back",
      "outputs": [
        {
          "internalType": "uint256",
          "name": "",
          "type": "uint256"
        }
      ],
      "stateMutability": "nonpayable",
      "type": "function"
    },
    {
      "inputs": [
        {
          "internalType": "address",
          "name": "owner",
          "type": "address"
        }
      ],
      "name": "balanceOf",
      "outputs": [
        {
          "internalType": "uint256",
          "name": "",
          "type": "uint256"
        }
      ],
      "stateMutability": "view",
      "type": "function"
    },
    {
      "inputs": [
        {
          "internalType": "uint256",
          "name": "tokenId",
          "type": "uint256"
        }
      ],
      "name": "getApproved",
      "outputs": [
        {
          "internalType": "address",
          "name": "",
          "type": "address"
        }
      ],
      "stateMutability": "view",
      "type": "function"
    },
    {
      "inputs": [
        {
          "internalType": "uint64",
          "name": "index",
          "type": "uint64"
        }
      ],
      "name": "getBetByIndex",
      "outputs": [
        {
          "internalType": "uint256",
          "name": "",
          "type": "uint256"
        },
        {
          "internalType": "uint256",
          "name": "",
          "type": "uint256"
        },
        {
          "internalType": "uint256",
          "name": "",
          "type": "uint256"
        },
        {
          "internalType": "bool",
          "name": "",
          "type": "bool"
        },
        {
          "internalType": "address",
          "name": "",
          "type": "address"
        },
        {
          "internalType": "bytes16",
          "name": "",
          "type": "bytes16"
        },
        {
          "internalType": "bytes16",
          "name": "",
          "type": "bytes16"
        }
      ],
      "stateMutability": "view",
      "type": "function"
    },
    {
      "inputs": [],
      "name": "getCount",
      "outputs": [
        {
          "internalType": "uint64",
          "name": "",
          "type": "uint64"
        }
      ],
      "stateMutability": "view",
      "type": "function"
    },
    {
      "inputs": [
        {
          "internalType": "uint64",
          "name": "index",
          "type": "uint64"
        }
      ],
      "name": "getExpiry",
      "outputs": [
        {
          "internalType": "uint256",
          "name": "",
          "type": "uint256"
        }
      ],
      "stateMutability": "view",
      "type": "function"
    },
    {
      "inputs": [],
      "name": "getInPlayCount",
      "outputs": [
        {
          "internalType": "uint256",
          "name": "",
          "type": "uint256"
        }
      ],
      "stateMutability": "view",
      "type": "function"
    },
    {
      "inputs": [],
      "name": "getMargin",
      "outputs": [
        {
          "internalType": "uint8",
          "name": "",
          "type": "uint8"
        }
      ],
      "stateMutability": "view",
      "type": "function"
    },
    {
      "inputs": [
        {
          "internalType": "bytes16",
          "name": "marketId",
          "type": "bytes16"
        }
      ],
      "name": "getMarketTotal",
      "outputs": [
        {
          "internalType": "uint256",
          "name": "",
          "type": "uint256"
        }
      ],
      "stateMutability": "view",
      "type": "function"
    },
    {
      "inputs": [
        {
          "internalType": "uint256",
          "name": "wager",
          "type": "uint256"
        },
        {
          "internalType": "uint256",
          "name": "odds",
          "type": "uint256"
        },
        {
          "internalType": "bytes16",
          "name": "propositionId",
          "type": "bytes16"
        },
        {
          "internalType": "bytes16",
          "name": "marketId",
          "type": "bytes16"
        }
      ],
      "name": "getOdds",
      "outputs": [
        {
          "internalType": "uint256",
          "name": "",
          "type": "uint256"
        }
      ],
      "stateMutability": "view",
      "type": "function"
    },
    {
      "inputs": [],
      "name": "getOracleAddress",
      "outputs": [
        {
          "internalType": "address",
          "name": "",
          "type": "address"
        }
      ],
      "stateMutability": "view",
      "type": "function"
    },
    {
      "inputs": [
        {
          "internalType": "bytes16",
          "name": "propositionId",
          "type": "bytes16"
        },
        {
          "internalType": "bytes16",
          "name": "marketId",
          "type": "bytes16"
        },
        {
          "internalType": "uint256",
          "name": "wager",
          "type": "uint256"
        },
        {
          "internalType": "uint256",
          "name": "odds",
          "type": "uint256"
        }
      ],
      "name": "getPotentialPayout",
      "outputs": [
        {
          "internalType": "uint256",
          "name": "",
          "type": "uint256"
        }
      ],
      "stateMutability": "view",
      "type": "function"
    },
    {
      "inputs": [],
      "name": "getTotalExposure",
      "outputs": [
        {
          "internalType": "uint256",
          "name": "",
          "type": "uint256"
        }
      ],
      "stateMutability": "view",
      "type": "function"
    },
    {
      "inputs": [],
      "name": "getTotalInPlay",
      "outputs": [
        {
          "internalType": "uint256",
          "name": "",
          "type": "uint256"
        }
      ],
      "stateMutability": "view",
      "type": "function"
    },
    {
      "inputs": [],
      "name": "getVaultAddress",
      "outputs": [
        {
          "internalType": "address",
          "name": "",
          "type": "address"
        }
      ],
      "stateMutability": "view",
      "type": "function"
    },
    {
      "inputs": [
        {
          "internalType": "address",
          "name": "signer",
          "type": "address"
        }
      ],
      "name": "grantSigner",
      "outputs": [],
      "stateMutability": "nonpayable",
      "type": "function"
    },
    {
      "inputs": [
        {
          "internalType": "address",
          "name": "owner",
          "type": "address"
        },
        {
          "internalType": "address",
          "name": "operator",
          "type": "address"
        }
      ],
      "name": "isApprovedForAll",
      "outputs": [
        {
          "internalType": "bool",
          "name": "",
          "type": "bool"
        }
      ],
      "stateMutability": "view",
      "type": "function"
    },
    {
      "inputs": [
        {
          "internalType": "address",
          "name": "signer",
          "type": "address"
        }
      ],
      "name": "isSigner",
      "outputs": [
        {
          "internalType": "bool",
          "name": "",
          "type": "bool"
        }
      ],
      "stateMutability": "view",
      "type": "function"
    },
    {
      "inputs": [],
      "name": "min",
      "outputs": [
        {
          "internalType": "uint256",
          "name": "",
          "type": "uint256"
        }
      ],
      "stateMutability": "view",
      "type": "function"
    },
    {
      "inputs": [],
      "name": "name",
      "outputs": [
        {
          "internalType": "string",
          "name": "",
          "type": "string"
        }
      ],
      "stateMutability": "view",
      "type": "function"
    },
    {
      "inputs": [],
      "name": "owner",
      "outputs": [
        {
          "internalType": "address",
          "name": "",
          "type": "address"
        }
      ],
      "stateMutability": "view",
      "type": "function"
    },
    {
      "inputs": [
        {
          "internalType": "uint256",
          "name": "tokenId",
          "type": "uint256"
        }
      ],
      "name": "ownerOf",
      "outputs": [
        {
          "internalType": "address",
          "name": "",
          "type": "address"
        }
      ],
      "stateMutability": "view",
      "type": "function"
    },
    {
      "inputs": [],
      "name": "renounceOwnership",
      "outputs": [],
      "stateMutability": "nonpayable",
      "type": "function"
    },
    {
      "inputs": [
        {
          "internalType": "address",
          "name": "signer",
          "type": "address"
        }
      ],
      "name": "revokeSigner",
      "outputs": [],
      "stateMutability": "nonpayable",
      "type": "function"
    },
    {
      "inputs": [
        {
          "internalType": "address",
          "name": "from",
          "type": "address"
        },
        {
          "internalType": "address",
          "name": "to",
          "type": "address"
        },
        {
          "internalType": "uint256",
          "name": "tokenId",
          "type": "uint256"
        }
      ],
      "name": "safeTransferFrom",
      "outputs": [],
      "stateMutability": "nonpayable",
      "type": "function"
    },
    {
      "inputs": [
        {
          "internalType": "address",
          "name": "from",
          "type": "address"
        },
        {
          "internalType": "address",
          "name": "to",
          "type": "address"
        },
        {
          "internalType": "uint256",
          "name": "tokenId",
          "type": "uint256"
        },
        {
          "internalType": "bytes",
          "name": "data",
          "type": "bytes"
        }
      ],
      "name": "safeTransferFrom",
      "outputs": [],
      "stateMutability": "nonpayable",
      "type": "function"
    },
    {
      "inputs": [
        {
          "internalType": "address",
          "name": "operator",
          "type": "address"
        },
        {
          "internalType": "bool",
          "name": "approved",
          "type": "bool"
        }
      ],
      "name": "setApprovalForAll",
      "outputs": [],
      "stateMutability": "nonpayable",
      "type": "function"
    },
    {
      "inputs": [
        {
          "internalType": "uint64",
          "name": "index",
          "type": "uint64"
        }
      ],
      "name": "settle",
      "outputs": [],
      "stateMutability": "nonpayable",
      "type": "function"
    },
    {
      "inputs": [
        {
          "internalType": "bytes16",
          "name": "marketId",
          "type": "bytes16"
        }
      ],
      "name": "settleMarket",
      "outputs": [],
      "stateMutability": "nonpayable",
      "type": "function"
    },
    {
      "inputs": [
        {
          "internalType": "bytes4",
          "name": "interfaceId",
          "type": "bytes4"
        }
      ],
      "name": "supportsInterface",
      "outputs": [
        {
          "internalType": "bool",
          "name": "",
          "type": "bool"
        }
      ],
      "stateMutability": "view",
      "type": "function"
    },
    {
      "inputs": [],
      "name": "symbol",
      "outputs": [
        {
          "internalType": "string",
          "name": "",
          "type": "string"
        }
      ],
      "stateMutability": "view",
      "type": "function"
    },
    {
      "inputs": [],
      "name": "timeout",
      "outputs": [
        {
          "internalType": "uint256",
          "name": "",
          "type": "uint256"
        }
      ],
      "stateMutability": "view",
      "type": "function"
    },
    {
      "inputs": [
        {
          "internalType": "uint256",
          "name": "tokenId",
          "type": "uint256"
        }
      ],
      "name": "tokenURI",
      "outputs": [
        {
          "internalType": "string",
          "name": "",
          "type": "string"
        }
      ],
      "stateMutability": "pure",
      "type": "function"
    },
    {
      "inputs": [
        {
          "internalType": "address",
          "name": "from",
          "type": "address"
        },
        {
          "internalType": "address",
          "name": "to",
          "type": "address"
        },
        {
          "internalType": "uint256",
          "name": "tokenId",
          "type": "uint256"
        }
      ],
      "name": "transferFrom",
      "outputs": [],
      "stateMutability": "nonpayable",
      "type": "function"
    },
    {
      "inputs": [
        {
          "internalType": "address",
          "name": "newOwner",
          "type": "address"
        }
      ],
      "name": "transferOwnership",
      "outputs": [],
      "stateMutability": "nonpayable",
      "type": "function"
    }
  ],
  "transactionHash": "0x761c426dd7d4421de08fb1df94483c2e6f3efe037648135abebbdf598b0da9f3",
  "args": [
    "0x775D911a40B947896753BBF8bA5aa745e95bAD5B",
    0,
    "0x26d8Aa7d8A53f2Dc95E3C0d9F4FA7D7F178f9767"
  ],
  "numDeployments": 2,
  "solcInputHash": "91cd9d6ec8b007c3a662c58c135131af",
  "bytecode": "0x6101406040523480156200001257600080fd5b5060405162005aca38038062005aca8339818101604052810190620000389190620004fc565b6040518060400160405280601381526020017f486f727365204c696e6b2042657420536c6970000000000000000000000000008152506040518060400160405280600681526020017f484c2d4245540000000000000000000000000000000000000000000000000000815250620000c4620000b86200026a60201b60201c565b6200027260201b60201c565b8160019080519060200190620000dc9291906200035f565b508060029080519060200190620000f59291906200035f565b505050600073ffffffffffffffffffffffffffffffffffffffff168373ffffffffffffffffffffffffffffffffffffffff16141562000139576200013862000558565b5b3073ffffffffffffffffffffffffffffffffffffffff1660c08173ffffffffffffffffffffffffffffffffffffffff16815250508273ffffffffffffffffffffffffffffffffffffffff1660a08173ffffffffffffffffffffffffffffffffffffffff16815250508160ff1660808160ff16815250508073ffffffffffffffffffffffffffffffffffffffff1660e08173ffffffffffffffffffffffffffffffffffffffff16815250506001600f6000620001f96200033660201b60201c565b73ffffffffffffffffffffffffffffffffffffffff1673ffffffffffffffffffffffffffffffffffffffff16815260200190815260200160002060006101000a81548160ff02191690831515021790555062278d006101008181525050610e106101208181525050505050620005ec565b600033905090565b60008060009054906101000a900473ffffffffffffffffffffffffffffffffffffffff169050816000806101000a81548173ffffffffffffffffffffffffffffffffffffffff021916908373ffffffffffffffffffffffffffffffffffffffff1602179055508173ffffffffffffffffffffffffffffffffffffffff168173ffffffffffffffffffffffffffffffffffffffff167f8be0079c531659141344cd1fd0a4f28419497f9722a3daafe3b4186f6b6457e060405160405180910390a35050565b60008060009054906101000a900473ffffffffffffffffffffffffffffffffffffffff16905090565b8280546200036d90620005b6565b90600052602060002090601f016020900481019282620003915760008555620003dd565b82601f10620003ac57805160ff1916838001178555620003dd565b82800160010185558215620003dd579182015b82811115620003dc578251825591602001919060010190620003bf565b5b509050620003ec9190620003f0565b5090565b5b808211156200040b576000816000905550600101620003f1565b5090565b600080fd5b600073ffffffffffffffffffffffffffffffffffffffff82169050919050565b6000620004418262000414565b9050919050565b6000620004558262000434565b9050919050565b620004678162000448565b81146200047357600080fd5b50565b60008151905062000487816200045c565b92915050565b600060ff82169050919050565b620004a5816200048d565b8114620004b157600080fd5b50565b600081519050620004c5816200049a565b92915050565b620004d68162000434565b8114620004e257600080fd5b50565b600081519050620004f681620004cb565b92915050565b6000806000606084860312156200051857620005176200040f565b5b6000620005288682870162000476565b93505060206200053b86828701620004b4565b92505060406200054e86828701620004e5565b9150509250925092565b7f4e487b7100000000000000000000000000000000000000000000000000000000600052600160045260246000fd5b7f4e487b7100000000000000000000000000000000000000000000000000000000600052602260045260246000fd5b60006002820490506001821680620005cf57607f821691505b60208210811415620005e657620005e562000587565b5b50919050565b60805160a05160c05160e051610100516101205161544f6200067b600039600061164e015260008181610fe20152612ca00152600081816113960152818161194901526126a8015260008181611ade0152611b9f015260008181610ed701528181611a2901528181611b7e0152818161239d015281816132f301526133db01526000610b5f015261544f6000f3fe608060405234801561001057600080fd5b506004361061021c5760003560e01c806370dea79a11610125578063b18b78dd116100ad578063c96121a81161007c578063c96121a814610669578063e4650fac14610687578063e985e9c5146106b7578063f2fde38b146106e7578063f8897945146107035761021c565b8063b18b78dd146105e3578063b88d4fde14610601578063c34b44a01461061d578063c87b56dd146106395761021c565b80638ac6d217116100f45780638ac6d2171461054f5780638da5cb5b1461056d57806395d89b411461058b578063a22cb465146105a9578063a87d942c146105c55761021c565b806370dea79a146104db578063715018a6146104f95780637df73e271461050357806388bc76ba146105335761021c565b806346e116a6116101a85780636352211e116101775780636352211e1461040b57806363c724f71461043b57806365cacaa4146104575780636b467d151461047557806370a08231146104ab5761021c565b806346e116a6146103715780634b9ba446146103a157806358439479146103bd5780636028421f146103db5761021c565b806312fa3bf1116101ef57806312fa3bf1146102bb578063207b8b53146102eb57806323b872dd1461031b57806325117b721461033757806342842e0e146103555761021c565b806301ffc9a71461022157806306fdde0314610251578063081812fc1461026f578063095ea7b31461029f575b600080fd5b61023b600480360381019061023691906138b5565b610721565b60405161024891906138fd565b60405180910390f35b610259610803565b60405161026691906139b1565b60405180910390f35b61028960048036038101906102849190613a09565b610895565b6040516102969190613a77565b60405180910390f35b6102b960048036038101906102b49190613abe565b6108db565b005b6102d560048036038101906102d09190613b56565b6109f3565b6040516102e29190613b92565b60405180910390f35b61030560048036038101906103009190613bd1565b610a36565b6040516103129190613b92565b60405180910390f35b61033560048036038101906103309190613c87565b610afb565b005b61033f610b5b565b60405161034c9190613cf6565b60405180910390f35b61036f600480360381019061036a9190613c87565b610b83565b005b61038b60048036038101906103869190613d11565b610ba3565b6040516103989190613b92565b60405180910390f35b6103bb60048036038101906103b69190613db8565b610bbb565b005b6103c5610d57565b6040516103d29190613b92565b60405180910390f35b6103f560048036038101906103f09190613de5565b610d61565b6040516104029190613b92565b60405180910390f35b61042560048036038101906104209190613a09565b610d79565b6040516104329190613a77565b60405180910390f35b61045560048036038101906104509190613e4c565b610e00565b005b61045f610ed3565b60405161046c9190613a77565b60405180910390f35b61048f600480360381019061048a9190613db8565b610efb565b6040516104a29796959493929190613e88565b60405180910390f35b6104c560048036038101906104c09190613e4c565b610f28565b6040516104d29190613b92565b60405180910390f35b6104e3610fe0565b6040516104f09190613b92565b60405180910390f35b610501611004565b005b61051d60048036038101906105189190613e4c565b611018565b60405161052a91906138fd565b60405180910390f35b61054d60048036038101906105489190613b56565b61102a565b005b6105576112a8565b6040516105649190613b92565b60405180910390f35b6105756112b2565b6040516105829190613a77565b60405180910390f35b6105936112db565b6040516105a091906139b1565b60405180910390f35b6105c360048036038101906105be9190613f23565b61136d565b005b6105cd611383565b6040516105da9190613f72565b60405180910390f35b6105eb611392565b6040516105f89190613a77565b60405180910390f35b61061b600480360381019061061691906140c2565b6113ba565b005b61063760048036038101906106329190613e4c565b61141c565b005b610653600480360381019061064e9190613a09565b6114ef565b60405161066091906139b1565b60405180910390f35b610671611518565b60405161067e9190613b92565b60405180910390f35b6106a1600480360381019061069c9190613db8565b611522565b6040516106ae9190613b92565b60405180910390f35b6106d160048036038101906106cc9190614145565b611534565b6040516106de91906138fd565b60405180910390f35b61070160048036038101906106fc9190613e4c565b6115c8565b005b61070b61164c565b6040516107189190613b92565b60405180910390f35b60007f80ac58cd000000000000000000000000000000000000000000000000000000007bffffffffffffffffffffffffffffffffffffffffffffffffffffffff1916827bffffffffffffffffffffffffffffffffffffffffffffffffffffffff191614806107ec57507f5b5e139f000000000000000000000000000000000000000000000000000000007bffffffffffffffffffffffffffffffffffffffffffffffffffffffff1916827bffffffffffffffffffffffffffffffffffffffffffffffffffffffff1916145b806107fc57506107fb82611670565b5b9050919050565b606060018054610812906141b4565b80601f016020809104026020016040519081016040528092919081815260200182805461083e906141b4565b801561088b5780601f106108605761010080835404028352916020019161088b565b820191906000526020600020905b81548152906001019060200180831161086e57829003601f168201915b5050505050905090565b60006108a0826116da565b6005600083815260200190815260200160002060009054906101000a900473ffffffffffffffffffffffffffffffffffffffff169050919050565b60006108e682610d79565b90508073ffffffffffffffffffffffffffffffffffffffff168373ffffffffffffffffffffffffffffffffffffffff161415610957576040517f08c379a000000000000000000000000000000000000000000000000000000000815260040161094e90614258565b60405180910390fd5b8073ffffffffffffffffffffffffffffffffffffffff16610976611725565b73ffffffffffffffffffffffffffffffffffffffff1614806109a557506109a48161099f611725565b611534565b5b6109e4576040517f08c379a00000000000000000000000000000000000000000000000000000000081526004016109db906142ea565b60405180910390fd5b6109ee838361172d565b505050565b6000600a6000836fffffffffffffffffffffffffffffffff19166fffffffffffffffffffffffffffffffff19168152602001908152602001600020549050919050565b600080898989888888604051602001610a549695949392919061434c565b60405160208183030381529060405280519060200120905060011515610a7a82856117e6565b151514610abc576040517f08c379a0000000000000000000000000000000000000000000000000000000008152600401610ab390614408565b60405180910390fd5b6000610aca8a8a8a8a6118b5565b905060008111610add57610adc614428565b5b610aeb8a8a8a8989866118f4565b9250505098975050505050505050565b610b0c610b06611725565b82611fe9565b610b4b576040517f08c379a0000000000000000000000000000000000000000000000000000000008152600401610b42906144c9565b60405180910390fd5b610b5683838361207e565b505050565b60007f0000000000000000000000000000000000000000000000000000000000000000905090565b610b9e838383604051806020016040528060008152506113ba565b505050565b6000610bb185858585612378565b9050949350505050565b600060088267ffffffffffffffff1681548110610bdb57610bda6144e9565b5b90600052602060002090600502016040518060e00160405290816000820160009054906101000a900460801b6fffffffffffffffffffffffffffffffff19166fffffffffffffffffffffffffffffffff191681526020016000820160109054906101000a900460801b6fffffffffffffffffffffffffffffffff19166fffffffffffffffffffffffffffffffff191681526020016001820154815260200160028201548152602001600382015481526020016004820160009054906101000a900460ff161515151581526020016004820160019054906101000a900473ffffffffffffffffffffffffffffffffffffffff1673ffffffffffffffffffffffffffffffffffffffff1673ffffffffffffffffffffffffffffffffffffffff16815250509050600015158160a00151151514610d4a576040517f08c379a0000000000000000000000000000000000000000000000000000000008152600401610d4190614564565b60405180910390fd5b610d53826124ee565b5050565b6000600d54905090565b6000610d6f858585856118b5565b9050949350505050565b600080610d8583612766565b9050600073ffffffffffffffffffffffffffffffffffffffff168173ffffffffffffffffffffffffffffffffffffffff161415610df7576040517f08c379a0000000000000000000000000000000000000000000000000000000008152600401610dee906145d0565b60405180910390fd5b80915050919050565b610e086127a3565b600073ffffffffffffffffffffffffffffffffffffffff168173ffffffffffffffffffffffffffffffffffffffff161415610e78576040517f08c379a0000000000000000000000000000000000000000000000000000000008152600401610e6f90614662565b60405180910390fd5b6001600f60008373ffffffffffffffffffffffffffffffffffffffff1673ffffffffffffffffffffffffffffffffffffffff16815260200190815260200160002060006101000a81548160ff02191690831515021790555050565b60007f0000000000000000000000000000000000000000000000000000000000000000905090565b6000806000806000806000610f0f88612821565b9650965096509650965096509650919395979092949650565b60008073ffffffffffffffffffffffffffffffffffffffff168273ffffffffffffffffffffffffffffffffffffffff161415610f99576040517f08c379a0000000000000000000000000000000000000000000000000000000008152600401610f90906146f4565b60405180910390fd5b600460008373ffffffffffffffffffffffffffffffffffffffff1673ffffffffffffffffffffffffffffffffffffffff168152602001908152602001600020549050919050565b7f000000000000000000000000000000000000000000000000000000000000000081565b61100c6127a3565b61101660006129ac565b565b600061102382612a70565b9050919050565b600060096000836fffffffffffffffffffffffffffffffff19166fffffffffffffffffffffffffffffffff191681526020019081526020016000208054806020026020016040519081016040528092919081815260200182805480156110e357602002820191906000526020600020906000905b82829054906101000a900467ffffffffffffffff1667ffffffffffffffff168152602001906008019060208260070104928301926001038202915080841161109e5790505b5050505050905060008151905060005b818167ffffffffffffffff1610156112a2576000838267ffffffffffffffff1681518110611124576111236144e9565b5b60200260200101519050600060088267ffffffffffffffff168154811061114e5761114d6144e9565b5b90600052602060002090600502016040518060e00160405290816000820160009054906101000a900460801b6fffffffffffffffffffffffffffffffff19166fffffffffffffffffffffffffffffffff191681526020016000820160109054906101000a900460801b6fffffffffffffffffffffffffffffffff19166fffffffffffffffffffffffffffffffff191681526020016001820154815260200160028201548152602001600382015481526020016004820160009054906101000a900460ff161515151581526020016004820160019054906101000a900473ffffffffffffffffffffffffffffffffffffffff1673ffffffffffffffffffffffffffffffffffffffff1673ffffffffffffffffffffffffffffffffffffffff16815250509050600015158160a001511515141561128d5761128c826124ee565b5b5050808061129a90614743565b9150506110f3565b50505050565b6000600e54905090565b60008060009054906101000a900473ffffffffffffffffffffffffffffffffffffffff16905090565b6060600280546112ea906141b4565b80601f0160208091040260200160405190810160405280929190818152602001828054611316906141b4565b80156113635780601f1061133857610100808354040283529160200191611363565b820191906000526020600020905b81548152906001019060200180831161134657829003601f168201915b5050505050905090565b61137f611378611725565b8383612ac6565b5050565b600061138d612c33565b905090565b60007f0000000000000000000000000000000000000000000000000000000000000000905090565b6113cb6113c5611725565b83611fe9565b61140a576040517f08c379a0000000000000000000000000000000000000000000000000000000008152600401611401906144c9565b60405180910390fd5b61141684848484612c40565b50505050565b6114246127a3565b600073ffffffffffffffffffffffffffffffffffffffff168173ffffffffffffffffffffffffffffffffffffffff161415611494576040517f08c379a000000000000000000000000000000000000000000000000000000000815260040161148b906147e6565b60405180910390fd5b6000600f60008373ffffffffffffffffffffffffffffffffffffffff1673ffffffffffffffffffffffffffffffffffffffff16815260200190815260200160002060006101000a81548160ff02191690831515021790555050565b606081604051602001611502919061485d565b6040516020818303038152906040529050919050565b6000600754905090565b600061152d82612c9c565b9050919050565b6000600660008473ffffffffffffffffffffffffffffffffffffffff1673ffffffffffffffffffffffffffffffffffffffff16815260200190815260200160002060008373ffffffffffffffffffffffffffffffffffffffff1673ffffffffffffffffffffffffffffffffffffffff16815260200190815260200160002060009054906101000a900460ff16905092915050565b6115d06127a3565b600073ffffffffffffffffffffffffffffffffffffffff168173ffffffffffffffffffffffffffffffffffffffff161415611640576040517f08c379a0000000000000000000000000000000000000000000000000000000008152600401611637906148f5565b60405180910390fd5b611649816129ac565b50565b7f000000000000000000000000000000000000000000000000000000000000000081565b60007f01ffc9a7000000000000000000000000000000000000000000000000000000007bffffffffffffffffffffffffffffffffffffffffffffffffffffffff1916827bffffffffffffffffffffffffffffffffffffffffffffffffffffffff1916149050919050565b6116e381612d00565b611722576040517f08c379a0000000000000000000000000000000000000000000000000000000008152600401611719906145d0565b60405180910390fd5b50565b600033905090565b816005600083815260200190815260200160002060006101000a81548173ffffffffffffffffffffffffffffffffffffffff021916908373ffffffffffffffffffffffffffffffffffffffff160217905550808273ffffffffffffffffffffffffffffffffffffffff166117a083610d79565b73ffffffffffffffffffffffffffffffffffffffff167f8c5be1e5ebec7d5bd14f71427d1e84f3dd0314c0f7b2291e5b200ac8c7c3b92560405160405180910390a45050565b60008073839ED5A99c6ec4d1B852a2550cCF98247d27B499635cff288d85856040518363ffffffff1660e01b8152600401611822929190614a2c565b602060405180830381865af415801561183f573d6000803e3d6000fd5b505050506040513d601f19601f820116820180604052508101906118639190614a6a565b9050600073ffffffffffffffffffffffffffffffffffffffff168173ffffffffffffffffffffffffffffffffffffffff1614156118a3576118a2614428565b5b6118ac81612a70565b91505092915050565b6000806118c484848888612378565b90506118e984620f424086846118da9190614a97565b6118e49190614b20565b612d41565b915050949350505050565b6000428311801561190457508342115b611943576040517f08c379a000000000000000000000000000000000000000000000000000000000815260040161193a90614b9d565b60405180910390fd5b600015157f000000000000000000000000000000000000000000000000000000000000000073ffffffffffffffffffffffffffffffffffffffff166306c77ce7888a6040518363ffffffff1660e01b81526004016119a2929190614bbd565b602060405180830381865afa1580156119bf573d6000803e3d6000fd5b505050506040513d601f19601f820116820180604052508101906119e39190614bfb565b151514611a25576040517f08c379a0000000000000000000000000000000000000000000000000000000008152600401611a1c90614c9a565b60405180910390fd5b60007f000000000000000000000000000000000000000000000000000000000000000073ffffffffffffffffffffffffffffffffffffffff166338d52e0f6040518163ffffffff1660e01b8152600401602060405180830381865afa158015611a92573d6000803e3d6000fd5b505050506040513d601f19601f82011682018060405250810190611ab69190614a6a565b90508073ffffffffffffffffffffffffffffffffffffffff166323b872dd611adc611725565b7f0000000000000000000000000000000000000000000000000000000000000000896040518463ffffffff1660e01b8152600401611b1c93929190614cba565b6020604051808303816000875af1158015611b3b573d6000803e3d6000fd5b505050506040513d601f19601f82011682018060405250810190611b5f9190614bfb565b508073ffffffffffffffffffffffffffffffffffffffff166323b872dd7f00000000000000000000000000000000000000000000000000000000000000007f00000000000000000000000000000000000000000000000000000000000000008987611bca9190614cf1565b6040518463ffffffff1660e01b8152600401611be893929190614cba565b6020604051808303816000875af1158015611c07573d6000803e3d6000fd5b505050506040513d601f19601f82011682018060405250810190611c2b9190614bfb565b5085600a6000896fffffffffffffffffffffffffffffffff19166fffffffffffffffffffffffffffffffff191681526020019081526020016000206000828254611c759190614d25565b9250508190555082600c60008a6fffffffffffffffffffffffffffffffff19166fffffffffffffffffffffffffffffffff191681526020019081526020016000206000828254611cc59190614d25565b925050819055506000611cd6612c33565b9050611ceb8167ffffffffffffffff16612d5a565b60086040518060e001604052808b6fffffffffffffffffffffffffffffffff191681526020018a6fffffffffffffffffffffffffffffffff19168152602001898152602001868152602001878152602001600015158152602001611d4d611725565b73ffffffffffffffffffffffffffffffffffffffff16815250908060018154018082558091505060019003906000526020600020906005020160009091909190915060008201518160000160006101000a8154816fffffffffffffffffffffffffffffffff021916908360801c021790555060208201518160000160106101000a8154816fffffffffffffffffffffffffffffffff021916908360801c021790555060408201518160010155606082015181600201556080820151816003015560a08201518160040160006101000a81548160ff02191690831515021790555060c08201518160040160016101000a81548173ffffffffffffffffffffffffffffffffffffffff021916908373ffffffffffffffffffffffffffffffffffffffff160217905550505060096000896fffffffffffffffffffffffffffffffff19166fffffffffffffffffffffffffffffffff191681526020019081526020016000208190806001815401808255809150506001900390600052602060002090600491828204019190066008029091909190916101000a81548167ffffffffffffffff021916908367ffffffffffffffff160217905550611f1e611f0e611725565b8267ffffffffffffffff16612df3565b86600d6000828254611f309190614d25565b925050819055508684611f439190614cf1565b600e6000828254611f549190614d25565b9250508190555060076000815480929190611f6e90614d7b565b9190505550611f7b611725565b73ffffffffffffffffffffffffffffffffffffffff167f1d273ea6a1aea94de32fd06a09ab8046dff8e3261c5a4ecaa5e1a5705f3342ec828b8b8b89604051611fc8959493929190614dff565b60405180910390a28067ffffffffffffffff16925050509695505050505050565b600080611ff583610d79565b90508073ffffffffffffffffffffffffffffffffffffffff168473ffffffffffffffffffffffffffffffffffffffff16148061203757506120368185611534565b5b8061207557508373ffffffffffffffffffffffffffffffffffffffff1661205d84610895565b73ffffffffffffffffffffffffffffffffffffffff16145b91505092915050565b8273ffffffffffffffffffffffffffffffffffffffff1661209e82610d79565b73ffffffffffffffffffffffffffffffffffffffff16146120f4576040517f08c379a00000000000000000000000000000000000000000000000000000000081526004016120eb90614ec4565b60405180910390fd5b600073ffffffffffffffffffffffffffffffffffffffff168273ffffffffffffffffffffffffffffffffffffffff161415612164576040517f08c379a000000000000000000000000000000000000000000000000000000000815260040161215b90614f56565b60405180910390fd5b6121718383836001613011565b8273ffffffffffffffffffffffffffffffffffffffff1661219182610d79565b73ffffffffffffffffffffffffffffffffffffffff16146121e7576040517f08c379a00000000000000000000000000000000000000000000000000000000081526004016121de90614ec4565b60405180910390fd5b6005600082815260200190815260200160002060006101000a81549073ffffffffffffffffffffffffffffffffffffffff02191690556001600460008573ffffffffffffffffffffffffffffffffffffffff1673ffffffffffffffffffffffffffffffffffffffff168152602001908152602001600020600082825403925050819055506001600460008473ffffffffffffffffffffffffffffffffffffffff1673ffffffffffffffffffffffffffffffffffffffff16815260200190815260200160002060008282540192505081905550816003600083815260200190815260200160002060006101000a81548173ffffffffffffffffffffffffffffffffffffffff021916908373ffffffffffffffffffffffffffffffffffffffff160217905550808273ffffffffffffffffffffffffffffffffffffffff168473ffffffffffffffffffffffffffffffffffffffff167fddf252ad1be2c89b69c2b068fc378daa952ba7f163c4a11628f55a4df523b3ef60405160405180910390a46123738383836001613137565b505050565b600060018511158061238b575060018411155b1561239957600190506124e6565b60007f000000000000000000000000000000000000000000000000000000000000000073ffffffffffffffffffffffffffffffffffffffff1663b15031fa6040518163ffffffff1660e01b8152600401602060405180830381865afa158015612406573d6000803e3d6000fd5b505050506040513d601f19601f8201168201806040525081019061242a9190614f8b565b9050600081141561243f5760019150506124e6565b80600c6000866fffffffffffffffffffffffffffffffff19166fffffffffffffffffffffffffffffffff1916815260200190815260200160002054111561248a5760019150506124e6565b600c6000856fffffffffffffffffffffffffffffffff19166fffffffffffffffffffffffffffffffff1916815260200190815260200160002054816124cf9190614cf1565b905060006124de87878461313d565b905080925050505b949350505050565b600160088267ffffffffffffffff168154811061250e5761250d6144e9565b5b906000526020600020906005020160040160006101000a81548160ff02191690831515021790555061253f81612c9c565b4211156125605761255b8167ffffffffffffffff1660016131c4565b612763565b600060088267ffffffffffffffff16815481106125805761257f6144e9565b5b90600052602060002090600502016040518060e00160405290816000820160009054906101000a900460801b6fffffffffffffffffffffffffffffffff19166fffffffffffffffffffffffffffffffff191681526020016000820160109054906101000a900460801b6fffffffffffffffffffffffffffffffff19166fffffffffffffffffffffffffffffffff191681526020016001820154815260200160028201548152602001600382015481526020016004820160009054906101000a900460ff161515151581526020016004820160019054906101000a900473ffffffffffffffffffffffffffffffffffffffff1673ffffffffffffffffffffffffffffffffffffffff1673ffffffffffffffffffffffffffffffffffffffff1681525050905060007f000000000000000000000000000000000000000000000000000000000000000073ffffffffffffffffffffffffffffffffffffffff166306c77ce7836020015184600001516040518363ffffffff1660e01b8152600401612709929190614bbd565b602060405180830381865afa158015612726573d6000803e3d6000fd5b505050506040513d601f19601f8201168201806040525081019061274a9190614bfb565b90506127608367ffffffffffffffff16826131c4565b50505b50565b60006003600083815260200190815260200160002060009054906101000a900473ffffffffffffffffffffffffffffffffffffffff169050919050565b6127ab611725565b73ffffffffffffffffffffffffffffffffffffffff166127c96112b2565b73ffffffffffffffffffffffffffffffffffffffff161461281f576040517f08c379a000000000000000000000000000000000000000000000000000000000815260040161281690615004565b60405180910390fd5b565b60008060008060008060008060088967ffffffffffffffff168154811061284b5761284a6144e9565b5b90600052602060002090600502016040518060e00160405290816000820160009054906101000a900460801b6fffffffffffffffffffffffffffffffff19166fffffffffffffffffffffffffffffffff191681526020016000820160109054906101000a900460801b6fffffffffffffffffffffffffffffffff19166fffffffffffffffffffffffffffffffff191681526020016001820154815260200160028201548152602001600382015481526020016004820160009054906101000a900460ff161515151581526020016004820160019054906101000a900473ffffffffffffffffffffffffffffffffffffffff1673ffffffffffffffffffffffffffffffffffffffff1673ffffffffffffffffffffffffffffffffffffffff168152505090508060400151816060015182608001518360a001518460c0015185602001518660000151975097509750975097509750975050919395979092949650565b60008060009054906101000a900473ffffffffffffffffffffffffffffffffffffffff169050816000806101000a81548173ffffffffffffffffffffffffffffffffffffffff021916908373ffffffffffffffffffffffffffffffffffffffff1602179055508173ffffffffffffffffffffffffffffffffffffffff168173ffffffffffffffffffffffffffffffffffffffff167f8be0079c531659141344cd1fd0a4f28419497f9722a3daafe3b4186f6b6457e060405160405180910390a35050565b6000600f60008373ffffffffffffffffffffffffffffffffffffffff1673ffffffffffffffffffffffffffffffffffffffff16815260200190815260200160002060009054906101000a900460ff169050919050565b8173ffffffffffffffffffffffffffffffffffffffff168373ffffffffffffffffffffffffffffffffffffffff161415612b35576040517f08c379a0000000000000000000000000000000000000000000000000000000008152600401612b2c90615070565b60405180910390fd5b80600660008573ffffffffffffffffffffffffffffffffffffffff1673ffffffffffffffffffffffffffffffffffffffff16815260200190815260200160002060008473ffffffffffffffffffffffffffffffffffffffff1673ffffffffffffffffffffffffffffffffffffffff16815260200190815260200160002060006101000a81548160ff0219169083151502179055508173ffffffffffffffffffffffffffffffffffffffff168373ffffffffffffffffffffffffffffffffffffffff167f17307eab39ab6107e8899845ad3d59bd9653f200f220920489ca2b5937696c3183604051612c2691906138fd565b60405180910390a3505050565b6000600880549050905090565b612c4b84848461207e565b612c5784848484613527565b612c96576040517f08c379a0000000000000000000000000000000000000000000000000000000008152600401612c8d90615102565b60405180910390fd5b50505050565b60007f000000000000000000000000000000000000000000000000000000000000000060088367ffffffffffffffff1681548110612cdd57612cdc6144e9565b5b906000526020600020906005020160030154612cf99190614d25565b9050919050565b60008073ffffffffffffffffffffffffffffffffffffffff16612d2283612766565b73ffffffffffffffffffffffffffffffffffffffff1614159050919050565b6000818311612d505781612d52565b825b905092915050565b612df081604051602401612d6e9190613b92565b6040516020818303038152906040527ff82c50f1000000000000000000000000000000000000000000000000000000007bffffffffffffffffffffffffffffffffffffffffffffffffffffffff19166020820180517bffffffffffffffffffffffffffffffffffffffffffffffffffffffff83818316178352505050506136af565b50565b600073ffffffffffffffffffffffffffffffffffffffff168273ffffffffffffffffffffffffffffffffffffffff161415612e63576040517f08c379a0000000000000000000000000000000000000000000000000000000008152600401612e5a9061516e565b60405180910390fd5b612e6c81612d00565b15612eac576040517f08c379a0000000000000000000000000000000000000000000000000000000008152600401612ea3906151da565b60405180910390fd5b612eba600083836001613011565b612ec381612d00565b15612f03576040517f08c379a0000000000000000000000000000000000000000000000000000000008152600401612efa906151da565b60405180910390fd5b6001600460008473ffffffffffffffffffffffffffffffffffffffff1673ffffffffffffffffffffffffffffffffffffffff16815260200190815260200160002060008282540192505081905550816003600083815260200190815260200160002060006101000a81548173ffffffffffffffffffffffffffffffffffffffff021916908373ffffffffffffffffffffffffffffffffffffffff160217905550808273ffffffffffffffffffffffffffffffffffffffff16600073ffffffffffffffffffffffffffffffffffffffff167fddf252ad1be2c89b69c2b068fc378daa952ba7f163c4a11628f55a4df523b3ef60405160405180910390a461300d600083836001613137565b5050565b600181111561313157600073ffffffffffffffffffffffffffffffffffffffff168473ffffffffffffffffffffffffffffffffffffffff16146130a55780600460008673ffffffffffffffffffffffffffffffffffffffff1673ffffffffffffffffffffffffffffffffffffffff168152602001908152602001600020600082825461309d9190614cf1565b925050819055505b600073ffffffffffffffffffffffffffffffffffffffff168373ffffffffffffffffffffffffffffffffffffffff16146131305780600460008573ffffffffffffffffffffffffffffffffffffffff1673ffffffffffffffffffffffffffffffffffffffff16815260200190815260200160002060008282546131289190614d25565b925050819055505b5b50505050565b50505050565b600073D26Ad878453b682E49E8a8b1E9dbe700E40Fc45963a19dec438585856040518463ffffffff1660e01b815260040161317a93929190615209565b602060405180830381865af4158015613197573d6000803e3d6000fd5b505050506040513d601f19601f820116820180604052508101906131bb9190614f8b565b90509392505050565b42600883815481106131d9576131d86144e9565b5b9060005260206000209060050201600301541061322b576040517f08c379a00000000000000000000000000000000000000000000000000000000081526004016132229061528c565b60405180910390fd5b6008828154811061323f5761323e6144e9565b5b906000526020600020906005020160010154600d60008282546132629190614cf1565b925050819055506008828154811061327d5761327c6144e9565b5b906000526020600020906005020160010154600883815481106132a3576132a26144e9565b5b9060005260206000209060050201600201546132bf9190614cf1565b600e60008282546132d09190614cf1565b92505081905550600760008154809291906132ea906152ac565b919050555060007f000000000000000000000000000000000000000000000000000000000000000073ffffffffffffffffffffffffffffffffffffffff166338d52e0f6040518163ffffffff1660e01b8152600401602060405180830381865afa15801561335c573d6000803e3d6000fd5b505050506040513d601f19601f820116820180604052508101906133809190614a6a565b9050600060088481548110613398576133976144e9565b5b906000526020600020906005020160040160019054906101000a900473ffffffffffffffffffffffffffffffffffffffff1690506000151583151514156133fd577f000000000000000000000000000000000000000000000000000000000000000090505b8173ffffffffffffffffffffffffffffffffffffffff1663a9059cbb826008878154811061342e5761342d6144e9565b5b9060005260206000209060050201600201546040518363ffffffff1660e01b815260040161345d9291906152d6565b6020604051808303816000875af115801561347c573d6000803e3d6000fd5b505050506040513d601f19601f820116820180604052508101906134a09190614bfb565b506134aa846136d8565b8073ffffffffffffffffffffffffffffffffffffffff167f08a2a3d90b4a86017a5adf7503073c6b2b44051c48e9844a336190c9793c4af985600887815481106134f7576134f66144e9565b5b90600052602060002090600502016002015486604051613519939291906152ff565b60405180910390a250505050565b60006135488473ffffffffffffffffffffffffffffffffffffffff16613826565b156136a2578373ffffffffffffffffffffffffffffffffffffffff1663150b7a02613571611725565b8786866040518563ffffffff1660e01b8152600401613593949392919061538b565b6020604051808303816000875af19250505080156135cf57506040513d601f19601f820116820180604052508101906135cc91906153ec565b60015b613652573d80600081146135ff576040519150601f19603f3d011682016040523d82523d6000602084013e613604565b606091505b5060008151141561364a576040517f08c379a000000000000000000000000000000000000000000000000000000000815260040161364190615102565b60405180910390fd5b805181602001fd5b63150b7a0260e01b7bffffffffffffffffffffffffffffffffffffffffffffffffffffffff1916817bffffffffffffffffffffffffffffffffffffffffffffffffffffffff1916149150506136a7565b600190505b949350505050565b60008151905060006a636f6e736f6c652e6c6f679050602083016000808483855afa5050505050565b60006136e382610d79565b90506136f3816000846001613011565b6136fc82610d79565b90506005600083815260200190815260200160002060006101000a81549073ffffffffffffffffffffffffffffffffffffffff02191690556001600460008373ffffffffffffffffffffffffffffffffffffffff1673ffffffffffffffffffffffffffffffffffffffff168152602001908152602001600020600082825403925050819055506003600083815260200190815260200160002060006101000a81549073ffffffffffffffffffffffffffffffffffffffff021916905581600073ffffffffffffffffffffffffffffffffffffffff168273ffffffffffffffffffffffffffffffffffffffff167fddf252ad1be2c89b69c2b068fc378daa952ba7f163c4a11628f55a4df523b3ef60405160405180910390a4613822816000846001613137565b5050565b6000808273ffffffffffffffffffffffffffffffffffffffff163b119050919050565b6000604051905090565b600080fd5b600080fd5b60007fffffffff0000000000000000000000000000000000000000000000000000000082169050919050565b6138928161385d565b811461389d57600080fd5b50565b6000813590506138af81613889565b92915050565b6000602082840312156138cb576138ca613853565b5b60006138d9848285016138a0565b91505092915050565b60008115159050919050565b6138f7816138e2565b82525050565b600060208201905061391260008301846138ee565b92915050565b600081519050919050565b600082825260208201905092915050565b60005b83811015613952578082015181840152602081019050613937565b83811115613961576000848401525b50505050565b6000601f19601f8301169050919050565b600061398382613918565b61398d8185613923565b935061399d818560208601613934565b6139a681613967565b840191505092915050565b600060208201905081810360008301526139cb8184613978565b905092915050565b6000819050919050565b6139e6816139d3565b81146139f157600080fd5b50565b600081359050613a03816139dd565b92915050565b600060208284031215613a1f57613a1e613853565b5b6000613a2d848285016139f4565b91505092915050565b600073ffffffffffffffffffffffffffffffffffffffff82169050919050565b6000613a6182613a36565b9050919050565b613a7181613a56565b82525050565b6000602082019050613a8c6000830184613a68565b92915050565b613a9b81613a56565b8114613aa657600080fd5b50565b600081359050613ab881613a92565b92915050565b60008060408385031215613ad557613ad4613853565b5b6000613ae385828601613aa9565b9250506020613af4858286016139f4565b9150509250929050565b60007fffffffffffffffffffffffffffffffff0000000000000000000000000000000082169050919050565b613b3381613afe565b8114613b3e57600080fd5b50565b600081359050613b5081613b2a565b92915050565b600060208284031215613b6c57613b6b613853565b5b6000613b7a84828501613b41565b91505092915050565b613b8c816139d3565b82525050565b6000602082019050613ba76000830184613b83565b92915050565b600080fd5b600060608284031215613bc857613bc7613bad565b5b81905092915050565b600080600080600080600080610140898b031215613bf257613bf1613853565b5b6000613c008b828c01613b41565b9850506020613c118b828c01613b41565b9750506040613c228b828c01613b41565b9650506060613c338b828c016139f4565b9550506080613c448b828c016139f4565b94505060a0613c558b828c016139f4565b93505060c0613c668b828c016139f4565b92505060e0613c778b828c01613bb2565b9150509295985092959890939650565b600080600060608486031215613ca057613c9f613853565b5b6000613cae86828701613aa9565b9350506020613cbf86828701613aa9565b9250506040613cd0868287016139f4565b9150509250925092565b600060ff82169050919050565b613cf081613cda565b82525050565b6000602082019050613d0b6000830184613ce7565b92915050565b60008060008060808587031215613d2b57613d2a613853565b5b6000613d39878288016139f4565b9450506020613d4a878288016139f4565b9350506040613d5b87828801613b41565b9250506060613d6c87828801613b41565b91505092959194509250565b600067ffffffffffffffff82169050919050565b613d9581613d78565b8114613da057600080fd5b50565b600081359050613db281613d8c565b92915050565b600060208284031215613dce57613dcd613853565b5b6000613ddc84828501613da3565b91505092915050565b60008060008060808587031215613dff57613dfe613853565b5b6000613e0d87828801613b41565b9450506020613e1e87828801613b41565b9350506040613e2f878288016139f4565b9250506060613e40878288016139f4565b91505092959194509250565b600060208284031215613e6257613e61613853565b5b6000613e7084828501613aa9565b91505092915050565b613e8281613afe565b82525050565b600060e082019050613e9d600083018a613b83565b613eaa6020830189613b83565b613eb76040830188613b83565b613ec460608301876138ee565b613ed16080830186613a68565b613ede60a0830185613e79565b613eeb60c0830184613e79565b98975050505050505050565b613f00816138e2565b8114613f0b57600080fd5b50565b600081359050613f1d81613ef7565b92915050565b60008060408385031215613f3a57613f39613853565b5b6000613f4885828601613aa9565b9250506020613f5985828601613f0e565b9150509250929050565b613f6c81613d78565b82525050565b6000602082019050613f876000830184613f63565b92915050565b600080fd5b600080fd5b7f4e487b7100000000000000000000000000000000000000000000000000000000600052604160045260246000fd5b613fcf82613967565b810181811067ffffffffffffffff82111715613fee57613fed613f97565b5b80604052505050565b6000614001613849565b905061400d8282613fc6565b919050565b600067ffffffffffffffff82111561402d5761402c613f97565b5b61403682613967565b9050602081019050919050565b82818337600083830152505050565b600061406561406084614012565b613ff7565b90508281526020810184848401111561408157614080613f92565b5b61408c848285614043565b509392505050565b600082601f8301126140a9576140a8613f8d565b5b81356140b9848260208601614052565b91505092915050565b600080600080608085870312156140dc576140db613853565b5b60006140ea87828801613aa9565b94505060206140fb87828801613aa9565b935050604061410c878288016139f4565b925050606085013567ffffffffffffffff81111561412d5761412c613858565b5b61413987828801614094565b91505092959194509250565b6000806040838503121561415c5761415b613853565b5b600061416a85828601613aa9565b925050602061417b85828601613aa9565b9150509250929050565b7f4e487b7100000000000000000000000000000000000000000000000000000000600052602260045260246000fd5b600060028204905060018216806141cc57607f821691505b602082108114156141e0576141df614185565b5b50919050565b7f4552433732313a20617070726f76616c20746f2063757272656e74206f776e6560008201527f7200000000000000000000000000000000000000000000000000000000000000602082015250565b6000614242602183613923565b915061424d826141e6565b604082019050919050565b6000602082019050818103600083015261427181614235565b9050919050565b7f4552433732313a20617070726f76652063616c6c6572206973206e6f7420746f60008201527f6b656e206f776e6572206f7220617070726f76656420666f7220616c6c000000602082015250565b60006142d4603d83613923565b91506142df82614278565b604082019050919050565b60006020820190508181036000830152614303816142c7565b9050919050565b6000819050919050565b61432561432082613afe565b61430a565b82525050565b6000819050919050565b614346614341826139d3565b61432b565b82525050565b60006143588289614314565b6010820191506143688288614314565b6010820191506143788287614314565b6010820191506143888286614335565b6020820191506143988285614335565b6020820191506143a88284614335565b602082019150819050979650505050505050565b7f6261636b3a20496e76616c6964207369676e6174757265000000000000000000600082015250565b60006143f2601783613923565b91506143fd826143bc565b602082019050919050565b60006020820190508181036000830152614421816143e5565b9050919050565b7f4e487b7100000000000000000000000000000000000000000000000000000000600052600160045260246000fd5b7f4552433732313a2063616c6c6572206973206e6f7420746f6b656e206f776e6560008201527f72206f7220617070726f76656400000000000000000000000000000000000000602082015250565b60006144b3602d83613923565b91506144be82614457565b604082019050919050565b600060208201905081810360008301526144e2816144a6565b9050919050565b7f4e487b7100000000000000000000000000000000000000000000000000000000600052603260045260246000fd5b7f736574746c653a204265742068617320616c726561647920736574746c656400600082015250565b600061454e601f83613923565b915061455982614518565b602082019050919050565b6000602082019050818103600083015261457d81614541565b9050919050565b7f4552433732313a20696e76616c696420746f6b656e2049440000000000000000600082015250565b60006145ba601883613923565b91506145c582614584565b602082019050919050565b600060208201905081810360008301526145e9816145ad565b9050919050565b7f6772616e745369676e65723a20496e76616c6964207369676e6572206164647260008201527f6573730000000000000000000000000000000000000000000000000000000000602082015250565b600061464c602383613923565b9150614657826145f0565b604082019050919050565b6000602082019050818103600083015261467b8161463f565b9050919050565b7f4552433732313a2061646472657373207a65726f206973206e6f74206120766160008201527f6c6964206f776e65720000000000000000000000000000000000000000000000602082015250565b60006146de602983613923565b91506146e982614682565b604082019050919050565b6000602082019050818103600083015261470d816146d1565b9050919050565b7f4e487b7100000000000000000000000000000000000000000000000000000000600052601160045260246000fd5b600061474e82613d78565b915067ffffffffffffffff82141561476957614768614714565b5b600182019050919050565b7f7265766f6b655369676e65723a20496e76616c6964207369676e65722061646460008201527f7265737300000000000000000000000000000000000000000000000000000000602082015250565b60006147d0602483613923565b91506147db82614774565b604082019050919050565b600060208201905081810360008301526147ff816147c3565b9050919050565b600081905092915050565b7f68747470733a2f2f6170692e686f7273652e6c696e6b2f6265742f0000000000600082015250565b6000614847601b83614806565b915061485282614811565b601b82019050919050565b60006148688261483a565b91506148748284614335565b60208201915081905092915050565b7f4f776e61626c653a206e6577206f776e657220697320746865207a65726f206160008201527f6464726573730000000000000000000000000000000000000000000000000000602082015250565b60006148df602683613923565b91506148ea82614883565b604082019050919050565b6000602082019050818103600083015261490e816148d2565b9050919050565b6000819050919050565b61492881614915565b82525050565b61493781613cda565b811461494257600080fd5b50565b6000813590506149548161492e565b92915050565b60006149696020840184614945565b905092915050565b61497a81613cda565b82525050565b61498981614915565b811461499457600080fd5b50565b6000813590506149a681614980565b92915050565b60006149bb6020840184614997565b905092915050565b6149cc81614915565b82525050565b606082016149e3600083018361495a565b6149f06000850182614971565b506149fe60208301836149ac565b614a0b60208501826149c3565b50614a1960408301836149ac565b614a2660408501826149c3565b50505050565b6000608082019050614a41600083018561491f565b614a4e60208301846149d2565b9392505050565b600081519050614a6481613a92565b92915050565b600060208284031215614a8057614a7f613853565b5b6000614a8e84828501614a55565b91505092915050565b6000614aa2826139d3565b9150614aad836139d3565b9250817fffffffffffffffffffffffffffffffffffffffffffffffffffffffffffffffff0483118215151615614ae657614ae5614714565b5b828202905092915050565b7f4e487b7100000000000000000000000000000000000000000000000000000000600052601260045260246000fd5b6000614b2b826139d3565b9150614b36836139d3565b925082614b4657614b45614af1565b5b828204905092915050565b7f6261636b3a20496e76616c696420646174650000000000000000000000000000600082015250565b6000614b87601283613923565b9150614b9282614b51565b602082019050919050565b60006020820190508181036000830152614bb681614b7a565b9050919050565b6000604082019050614bd26000830185613e79565b614bdf6020830184613e79565b9392505050565b600081519050614bf581613ef7565b92915050565b600060208284031215614c1157614c10613853565b5b6000614c1f84828501614be6565b91505092915050565b7f6261636b3a204f7261636c6520726573756c7420616c7265616479207365742060008201527f666f722074686973206d61726b65740000000000000000000000000000000000602082015250565b6000614c84602f83613923565b9150614c8f82614c28565b604082019050919050565b60006020820190508181036000830152614cb381614c77565b9050919050565b6000606082019050614ccf6000830186613a68565b614cdc6020830185613a68565b614ce96040830184613b83565b949350505050565b6000614cfc826139d3565b9150614d07836139d3565b925082821015614d1a57614d19614714565b5b828203905092915050565b6000614d30826139d3565b9150614d3b836139d3565b9250827fffffffffffffffffffffffffffffffffffffffffffffffffffffffffffffffff03821115614d7057614d6f614714565b5b828201905092915050565b6000614d86826139d3565b91507fffffffffffffffffffffffffffffffffffffffffffffffffffffffffffffffff821415614db957614db8614714565b5b600182019050919050565b6000819050919050565b6000614de9614de4614ddf84613d78565b614dc4565b6139d3565b9050919050565b614df981614dce565b82525050565b600060a082019050614e146000830188614df0565b614e216020830187613e79565b614e2e6040830186613e79565b614e3b6060830185613b83565b614e486080830184613b83565b9695505050505050565b7f4552433732313a207472616e736665722066726f6d20696e636f72726563742060008201527f6f776e6572000000000000000000000000000000000000000000000000000000602082015250565b6000614eae602583613923565b9150614eb982614e52565b604082019050919050565b60006020820190508181036000830152614edd81614ea1565b9050919050565b7f4552433732313a207472616e7366657220746f20746865207a65726f2061646460008201527f7265737300000000000000000000000000000000000000000000000000000000602082015250565b6000614f40602483613923565b9150614f4b82614ee4565b604082019050919050565b60006020820190508181036000830152614f6f81614f33565b9050919050565b600081519050614f85816139dd565b92915050565b600060208284031215614fa157614fa0613853565b5b6000614faf84828501614f76565b91505092915050565b7f4f776e61626c653a2063616c6c6572206973206e6f7420746865206f776e6572600082015250565b6000614fee602083613923565b9150614ff982614fb8565b602082019050919050565b6000602082019050818103600083015261501d81614fe1565b9050919050565b7f4552433732313a20617070726f766520746f2063616c6c657200000000000000600082015250565b600061505a601983613923565b915061506582615024565b602082019050919050565b600060208201905081810360008301526150898161504d565b9050919050565b7f4552433732313a207472616e7366657220746f206e6f6e20455243373231526560008201527f63656976657220696d706c656d656e7465720000000000000000000000000000602082015250565b60006150ec603283613923565b91506150f782615090565b604082019050919050565b6000602082019050818103600083015261511b816150df565b9050919050565b7f4552433732313a206d696e7420746f20746865207a65726f2061646472657373600082015250565b6000615158602083613923565b915061516382615122565b602082019050919050565b600060208201905081810360008301526151878161514b565b9050919050565b7f4552433732313a20746f6b656e20616c7265616479206d696e74656400000000600082015250565b60006151c4601c83613923565b91506151cf8261518e565b602082019050919050565b600060208201905081810360008301526151f3816151b7565b9050919050565b615203816139d3565b82525050565b600060608201905061521e60008301866151fa565b61522b60208301856151fa565b61523860408301846151fa565b949350505050565b7f5f736574746c653a205061796f75742064617465206e6f742072656163686564600082015250565b6000615276602083613923565b915061528182615240565b602082019050919050565b600060208201905081810360008301526152a581615269565b9050919050565b60006152b7826139d3565b915060008214156152cb576152ca614714565b5b600182039050919050565b60006040820190506152eb6000830185613a68565b6152f86020830184613b83565b9392505050565b60006060820190506153146000830186613b83565b6153216020830185613b83565b61532e60408301846138ee565b949350505050565b600081519050919050565b600082825260208201905092915050565b600061535d82615336565b6153678185615341565b9350615377818560208601613934565b61538081613967565b840191505092915050565b60006080820190506153a06000830187613a68565b6153ad6020830186613a68565b6153ba6040830185613b83565b81810360608301526153cc8184615352565b905095945050505050565b6000815190506153e681613889565b92915050565b60006020828403121561540257615401613853565b5b6000615410848285016153d7565b9150509291505056fea2646970667358221220d6c5ef5b55ef40bc02f1c9e41a5d5ece5c79be82afef13bd0752948d93ffe4e464736f6c634300080a0033",
  "deployedBytecode": "0x608060405234801561001057600080fd5b506004361061021c5760003560e01c806370dea79a11610125578063b18b78dd116100ad578063c96121a81161007c578063c96121a814610669578063e4650fac14610687578063e985e9c5146106b7578063f2fde38b146106e7578063f8897945146107035761021c565b8063b18b78dd146105e3578063b88d4fde14610601578063c34b44a01461061d578063c87b56dd146106395761021c565b80638ac6d217116100f45780638ac6d2171461054f5780638da5cb5b1461056d57806395d89b411461058b578063a22cb465146105a9578063a87d942c146105c55761021c565b806370dea79a146104db578063715018a6146104f95780637df73e271461050357806388bc76ba146105335761021c565b806346e116a6116101a85780636352211e116101775780636352211e1461040b57806363c724f71461043b57806365cacaa4146104575780636b467d151461047557806370a08231146104ab5761021c565b806346e116a6146103715780634b9ba446146103a157806358439479146103bd5780636028421f146103db5761021c565b806312fa3bf1116101ef57806312fa3bf1146102bb578063207b8b53146102eb57806323b872dd1461031b57806325117b721461033757806342842e0e146103555761021c565b806301ffc9a71461022157806306fdde0314610251578063081812fc1461026f578063095ea7b31461029f575b600080fd5b61023b600480360381019061023691906138b5565b610721565b60405161024891906138fd565b60405180910390f35b610259610803565b60405161026691906139b1565b60405180910390f35b61028960048036038101906102849190613a09565b610895565b6040516102969190613a77565b60405180910390f35b6102b960048036038101906102b49190613abe565b6108db565b005b6102d560048036038101906102d09190613b56565b6109f3565b6040516102e29190613b92565b60405180910390f35b61030560048036038101906103009190613bd1565b610a36565b6040516103129190613b92565b60405180910390f35b61033560048036038101906103309190613c87565b610afb565b005b61033f610b5b565b60405161034c9190613cf6565b60405180910390f35b61036f600480360381019061036a9190613c87565b610b83565b005b61038b60048036038101906103869190613d11565b610ba3565b6040516103989190613b92565b60405180910390f35b6103bb60048036038101906103b69190613db8565b610bbb565b005b6103c5610d57565b6040516103d29190613b92565b60405180910390f35b6103f560048036038101906103f09190613de5565b610d61565b6040516104029190613b92565b60405180910390f35b61042560048036038101906104209190613a09565b610d79565b6040516104329190613a77565b60405180910390f35b61045560048036038101906104509190613e4c565b610e00565b005b61045f610ed3565b60405161046c9190613a77565b60405180910390f35b61048f600480360381019061048a9190613db8565b610efb565b6040516104a29796959493929190613e88565b60405180910390f35b6104c560048036038101906104c09190613e4c565b610f28565b6040516104d29190613b92565b60405180910390f35b6104e3610fe0565b6040516104f09190613b92565b60405180910390f35b610501611004565b005b61051d60048036038101906105189190613e4c565b611018565b60405161052a91906138fd565b60405180910390f35b61054d60048036038101906105489190613b56565b61102a565b005b6105576112a8565b6040516105649190613b92565b60405180910390f35b6105756112b2565b6040516105829190613a77565b60405180910390f35b6105936112db565b6040516105a091906139b1565b60405180910390f35b6105c360048036038101906105be9190613f23565b61136d565b005b6105cd611383565b6040516105da9190613f72565b60405180910390f35b6105eb611392565b6040516105f89190613a77565b60405180910390f35b61061b600480360381019061061691906140c2565b6113ba565b005b61063760048036038101906106329190613e4c565b61141c565b005b610653600480360381019061064e9190613a09565b6114ef565b60405161066091906139b1565b60405180910390f35b610671611518565b60405161067e9190613b92565b60405180910390f35b6106a1600480360381019061069c9190613db8565b611522565b6040516106ae9190613b92565b60405180910390f35b6106d160048036038101906106cc9190614145565b611534565b6040516106de91906138fd565b60405180910390f35b61070160048036038101906106fc9190613e4c565b6115c8565b005b61070b61164c565b6040516107189190613b92565b60405180910390f35b60007f80ac58cd000000000000000000000000000000000000000000000000000000007bffffffffffffffffffffffffffffffffffffffffffffffffffffffff1916827bffffffffffffffffffffffffffffffffffffffffffffffffffffffff191614806107ec57507f5b5e139f000000000000000000000000000000000000000000000000000000007bffffffffffffffffffffffffffffffffffffffffffffffffffffffff1916827bffffffffffffffffffffffffffffffffffffffffffffffffffffffff1916145b806107fc57506107fb82611670565b5b9050919050565b606060018054610812906141b4565b80601f016020809104026020016040519081016040528092919081815260200182805461083e906141b4565b801561088b5780601f106108605761010080835404028352916020019161088b565b820191906000526020600020905b81548152906001019060200180831161086e57829003601f168201915b5050505050905090565b60006108a0826116da565b6005600083815260200190815260200160002060009054906101000a900473ffffffffffffffffffffffffffffffffffffffff169050919050565b60006108e682610d79565b90508073ffffffffffffffffffffffffffffffffffffffff168373ffffffffffffffffffffffffffffffffffffffff161415610957576040517f08c379a000000000000000000000000000000000000000000000000000000000815260040161094e90614258565b60405180910390fd5b8073ffffffffffffffffffffffffffffffffffffffff16610976611725565b73ffffffffffffffffffffffffffffffffffffffff1614806109a557506109a48161099f611725565b611534565b5b6109e4576040517f08c379a00000000000000000000000000000000000000000000000000000000081526004016109db906142ea565b60405180910390fd5b6109ee838361172d565b505050565b6000600a6000836fffffffffffffffffffffffffffffffff19166fffffffffffffffffffffffffffffffff19168152602001908152602001600020549050919050565b600080898989888888604051602001610a549695949392919061434c565b60405160208183030381529060405280519060200120905060011515610a7a82856117e6565b151514610abc576040517f08c379a0000000000000000000000000000000000000000000000000000000008152600401610ab390614408565b60405180910390fd5b6000610aca8a8a8a8a6118b5565b905060008111610add57610adc614428565b5b610aeb8a8a8a8989866118f4565b9250505098975050505050505050565b610b0c610b06611725565b82611fe9565b610b4b576040517f08c379a0000000000000000000000000000000000000000000000000000000008152600401610b42906144c9565b60405180910390fd5b610b5683838361207e565b505050565b60007f0000000000000000000000000000000000000000000000000000000000000000905090565b610b9e838383604051806020016040528060008152506113ba565b505050565b6000610bb185858585612378565b9050949350505050565b600060088267ffffffffffffffff1681548110610bdb57610bda6144e9565b5b90600052602060002090600502016040518060e00160405290816000820160009054906101000a900460801b6fffffffffffffffffffffffffffffffff19166fffffffffffffffffffffffffffffffff191681526020016000820160109054906101000a900460801b6fffffffffffffffffffffffffffffffff19166fffffffffffffffffffffffffffffffff191681526020016001820154815260200160028201548152602001600382015481526020016004820160009054906101000a900460ff161515151581526020016004820160019054906101000a900473ffffffffffffffffffffffffffffffffffffffff1673ffffffffffffffffffffffffffffffffffffffff1673ffffffffffffffffffffffffffffffffffffffff16815250509050600015158160a00151151514610d4a576040517f08c379a0000000000000000000000000000000000000000000000000000000008152600401610d4190614564565b60405180910390fd5b610d53826124ee565b5050565b6000600d54905090565b6000610d6f858585856118b5565b9050949350505050565b600080610d8583612766565b9050600073ffffffffffffffffffffffffffffffffffffffff168173ffffffffffffffffffffffffffffffffffffffff161415610df7576040517f08c379a0000000000000000000000000000000000000000000000000000000008152600401610dee906145d0565b60405180910390fd5b80915050919050565b610e086127a3565b600073ffffffffffffffffffffffffffffffffffffffff168173ffffffffffffffffffffffffffffffffffffffff161415610e78576040517f08c379a0000000000000000000000000000000000000000000000000000000008152600401610e6f90614662565b60405180910390fd5b6001600f60008373ffffffffffffffffffffffffffffffffffffffff1673ffffffffffffffffffffffffffffffffffffffff16815260200190815260200160002060006101000a81548160ff02191690831515021790555050565b60007f0000000000000000000000000000000000000000000000000000000000000000905090565b6000806000806000806000610f0f88612821565b9650965096509650965096509650919395979092949650565b60008073ffffffffffffffffffffffffffffffffffffffff168273ffffffffffffffffffffffffffffffffffffffff161415610f99576040517f08c379a0000000000000000000000000000000000000000000000000000000008152600401610f90906146f4565b60405180910390fd5b600460008373ffffffffffffffffffffffffffffffffffffffff1673ffffffffffffffffffffffffffffffffffffffff168152602001908152602001600020549050919050565b7f000000000000000000000000000000000000000000000000000000000000000081565b61100c6127a3565b61101660006129ac565b565b600061102382612a70565b9050919050565b600060096000836fffffffffffffffffffffffffffffffff19166fffffffffffffffffffffffffffffffff191681526020019081526020016000208054806020026020016040519081016040528092919081815260200182805480156110e357602002820191906000526020600020906000905b82829054906101000a900467ffffffffffffffff1667ffffffffffffffff168152602001906008019060208260070104928301926001038202915080841161109e5790505b5050505050905060008151905060005b818167ffffffffffffffff1610156112a2576000838267ffffffffffffffff1681518110611124576111236144e9565b5b60200260200101519050600060088267ffffffffffffffff168154811061114e5761114d6144e9565b5b90600052602060002090600502016040518060e00160405290816000820160009054906101000a900460801b6fffffffffffffffffffffffffffffffff19166fffffffffffffffffffffffffffffffff191681526020016000820160109054906101000a900460801b6fffffffffffffffffffffffffffffffff19166fffffffffffffffffffffffffffffffff191681526020016001820154815260200160028201548152602001600382015481526020016004820160009054906101000a900460ff161515151581526020016004820160019054906101000a900473ffffffffffffffffffffffffffffffffffffffff1673ffffffffffffffffffffffffffffffffffffffff1673ffffffffffffffffffffffffffffffffffffffff16815250509050600015158160a001511515141561128d5761128c826124ee565b5b5050808061129a90614743565b9150506110f3565b50505050565b6000600e54905090565b60008060009054906101000a900473ffffffffffffffffffffffffffffffffffffffff16905090565b6060600280546112ea906141b4565b80601f0160208091040260200160405190810160405280929190818152602001828054611316906141b4565b80156113635780601f1061133857610100808354040283529160200191611363565b820191906000526020600020905b81548152906001019060200180831161134657829003601f168201915b5050505050905090565b61137f611378611725565b8383612ac6565b5050565b600061138d612c33565b905090565b60007f0000000000000000000000000000000000000000000000000000000000000000905090565b6113cb6113c5611725565b83611fe9565b61140a576040517f08c379a0000000000000000000000000000000000000000000000000000000008152600401611401906144c9565b60405180910390fd5b61141684848484612c40565b50505050565b6114246127a3565b600073ffffffffffffffffffffffffffffffffffffffff168173ffffffffffffffffffffffffffffffffffffffff161415611494576040517f08c379a000000000000000000000000000000000000000000000000000000000815260040161148b906147e6565b60405180910390fd5b6000600f60008373ffffffffffffffffffffffffffffffffffffffff1673ffffffffffffffffffffffffffffffffffffffff16815260200190815260200160002060006101000a81548160ff02191690831515021790555050565b606081604051602001611502919061485d565b6040516020818303038152906040529050919050565b6000600754905090565b600061152d82612c9c565b9050919050565b6000600660008473ffffffffffffffffffffffffffffffffffffffff1673ffffffffffffffffffffffffffffffffffffffff16815260200190815260200160002060008373ffffffffffffffffffffffffffffffffffffffff1673ffffffffffffffffffffffffffffffffffffffff16815260200190815260200160002060009054906101000a900460ff16905092915050565b6115d06127a3565b600073ffffffffffffffffffffffffffffffffffffffff168173ffffffffffffffffffffffffffffffffffffffff161415611640576040517f08c379a0000000000000000000000000000000000000000000000000000000008152600401611637906148f5565b60405180910390fd5b611649816129ac565b50565b7f000000000000000000000000000000000000000000000000000000000000000081565b60007f01ffc9a7000000000000000000000000000000000000000000000000000000007bffffffffffffffffffffffffffffffffffffffffffffffffffffffff1916827bffffffffffffffffffffffffffffffffffffffffffffffffffffffff1916149050919050565b6116e381612d00565b611722576040517f08c379a0000000000000000000000000000000000000000000000000000000008152600401611719906145d0565b60405180910390fd5b50565b600033905090565b816005600083815260200190815260200160002060006101000a81548173ffffffffffffffffffffffffffffffffffffffff021916908373ffffffffffffffffffffffffffffffffffffffff160217905550808273ffffffffffffffffffffffffffffffffffffffff166117a083610d79565b73ffffffffffffffffffffffffffffffffffffffff167f8c5be1e5ebec7d5bd14f71427d1e84f3dd0314c0f7b2291e5b200ac8c7c3b92560405160405180910390a45050565b60008073__$47464c6f7588c8075b5d384b19d082a8ec$__635cff288d85856040518363ffffffff1660e01b8152600401611822929190614a2c565b602060405180830381865af415801561183f573d6000803e3d6000fd5b505050506040513d601f19601f820116820180604052508101906118639190614a6a565b9050600073ffffffffffffffffffffffffffffffffffffffff168173ffffffffffffffffffffffffffffffffffffffff1614156118a3576118a2614428565b5b6118ac81612a70565b91505092915050565b6000806118c484848888612378565b90506118e984620f424086846118da9190614a97565b6118e49190614b20565b612d41565b915050949350505050565b6000428311801561190457508342115b611943576040517f08c379a000000000000000000000000000000000000000000000000000000000815260040161193a90614b9d565b60405180910390fd5b600015157f000000000000000000000000000000000000000000000000000000000000000073ffffffffffffffffffffffffffffffffffffffff166306c77ce7888a6040518363ffffffff1660e01b81526004016119a2929190614bbd565b602060405180830381865afa1580156119bf573d6000803e3d6000fd5b505050506040513d601f19601f820116820180604052508101906119e39190614bfb565b151514611a25576040517f08c379a0000000000000000000000000000000000000000000000000000000008152600401611a1c90614c9a565b60405180910390fd5b60007f000000000000000000000000000000000000000000000000000000000000000073ffffffffffffffffffffffffffffffffffffffff166338d52e0f6040518163ffffffff1660e01b8152600401602060405180830381865afa158015611a92573d6000803e3d6000fd5b505050506040513d601f19601f82011682018060405250810190611ab69190614a6a565b90508073ffffffffffffffffffffffffffffffffffffffff166323b872dd611adc611725565b7f0000000000000000000000000000000000000000000000000000000000000000896040518463ffffffff1660e01b8152600401611b1c93929190614cba565b6020604051808303816000875af1158015611b3b573d6000803e3d6000fd5b505050506040513d601f19601f82011682018060405250810190611b5f9190614bfb565b508073ffffffffffffffffffffffffffffffffffffffff166323b872dd7f00000000000000000000000000000000000000000000000000000000000000007f00000000000000000000000000000000000000000000000000000000000000008987611bca9190614cf1565b6040518463ffffffff1660e01b8152600401611be893929190614cba565b6020604051808303816000875af1158015611c07573d6000803e3d6000fd5b505050506040513d601f19601f82011682018060405250810190611c2b9190614bfb565b5085600a6000896fffffffffffffffffffffffffffffffff19166fffffffffffffffffffffffffffffffff191681526020019081526020016000206000828254611c759190614d25565b9250508190555082600c60008a6fffffffffffffffffffffffffffffffff19166fffffffffffffffffffffffffffffffff191681526020019081526020016000206000828254611cc59190614d25565b925050819055506000611cd6612c33565b9050611ceb8167ffffffffffffffff16612d5a565b60086040518060e001604052808b6fffffffffffffffffffffffffffffffff191681526020018a6fffffffffffffffffffffffffffffffff19168152602001898152602001868152602001878152602001600015158152602001611d4d611725565b73ffffffffffffffffffffffffffffffffffffffff16815250908060018154018082558091505060019003906000526020600020906005020160009091909190915060008201518160000160006101000a8154816fffffffffffffffffffffffffffffffff021916908360801c021790555060208201518160000160106101000a8154816fffffffffffffffffffffffffffffffff021916908360801c021790555060408201518160010155606082015181600201556080820151816003015560a08201518160040160006101000a81548160ff02191690831515021790555060c08201518160040160016101000a81548173ffffffffffffffffffffffffffffffffffffffff021916908373ffffffffffffffffffffffffffffffffffffffff160217905550505060096000896fffffffffffffffffffffffffffffffff19166fffffffffffffffffffffffffffffffff191681526020019081526020016000208190806001815401808255809150506001900390600052602060002090600491828204019190066008029091909190916101000a81548167ffffffffffffffff021916908367ffffffffffffffff160217905550611f1e611f0e611725565b8267ffffffffffffffff16612df3565b86600d6000828254611f309190614d25565b925050819055508684611f439190614cf1565b600e6000828254611f549190614d25565b9250508190555060076000815480929190611f6e90614d7b565b9190505550611f7b611725565b73ffffffffffffffffffffffffffffffffffffffff167f1d273ea6a1aea94de32fd06a09ab8046dff8e3261c5a4ecaa5e1a5705f3342ec828b8b8b89604051611fc8959493929190614dff565b60405180910390a28067ffffffffffffffff16925050509695505050505050565b600080611ff583610d79565b90508073ffffffffffffffffffffffffffffffffffffffff168473ffffffffffffffffffffffffffffffffffffffff16148061203757506120368185611534565b5b8061207557508373ffffffffffffffffffffffffffffffffffffffff1661205d84610895565b73ffffffffffffffffffffffffffffffffffffffff16145b91505092915050565b8273ffffffffffffffffffffffffffffffffffffffff1661209e82610d79565b73ffffffffffffffffffffffffffffffffffffffff16146120f4576040517f08c379a00000000000000000000000000000000000000000000000000000000081526004016120eb90614ec4565b60405180910390fd5b600073ffffffffffffffffffffffffffffffffffffffff168273ffffffffffffffffffffffffffffffffffffffff161415612164576040517f08c379a000000000000000000000000000000000000000000000000000000000815260040161215b90614f56565b60405180910390fd5b6121718383836001613011565b8273ffffffffffffffffffffffffffffffffffffffff1661219182610d79565b73ffffffffffffffffffffffffffffffffffffffff16146121e7576040517f08c379a00000000000000000000000000000000000000000000000000000000081526004016121de90614ec4565b60405180910390fd5b6005600082815260200190815260200160002060006101000a81549073ffffffffffffffffffffffffffffffffffffffff02191690556001600460008573ffffffffffffffffffffffffffffffffffffffff1673ffffffffffffffffffffffffffffffffffffffff168152602001908152602001600020600082825403925050819055506001600460008473ffffffffffffffffffffffffffffffffffffffff1673ffffffffffffffffffffffffffffffffffffffff16815260200190815260200160002060008282540192505081905550816003600083815260200190815260200160002060006101000a81548173ffffffffffffffffffffffffffffffffffffffff021916908373ffffffffffffffffffffffffffffffffffffffff160217905550808273ffffffffffffffffffffffffffffffffffffffff168473ffffffffffffffffffffffffffffffffffffffff167fddf252ad1be2c89b69c2b068fc378daa952ba7f163c4a11628f55a4df523b3ef60405160405180910390a46123738383836001613137565b505050565b600060018511158061238b575060018411155b1561239957600190506124e6565b60007f000000000000000000000000000000000000000000000000000000000000000073ffffffffffffffffffffffffffffffffffffffff1663b15031fa6040518163ffffffff1660e01b8152600401602060405180830381865afa158015612406573d6000803e3d6000fd5b505050506040513d601f19601f8201168201806040525081019061242a9190614f8b565b9050600081141561243f5760019150506124e6565b80600c6000866fffffffffffffffffffffffffffffffff19166fffffffffffffffffffffffffffffffff1916815260200190815260200160002054111561248a5760019150506124e6565b600c6000856fffffffffffffffffffffffffffffffff19166fffffffffffffffffffffffffffffffff1916815260200190815260200160002054816124cf9190614cf1565b905060006124de87878461313d565b905080925050505b949350505050565b600160088267ffffffffffffffff168154811061250e5761250d6144e9565b5b906000526020600020906005020160040160006101000a81548160ff02191690831515021790555061253f81612c9c565b4211156125605761255b8167ffffffffffffffff1660016131c4565b612763565b600060088267ffffffffffffffff16815481106125805761257f6144e9565b5b90600052602060002090600502016040518060e00160405290816000820160009054906101000a900460801b6fffffffffffffffffffffffffffffffff19166fffffffffffffffffffffffffffffffff191681526020016000820160109054906101000a900460801b6fffffffffffffffffffffffffffffffff19166fffffffffffffffffffffffffffffffff191681526020016001820154815260200160028201548152602001600382015481526020016004820160009054906101000a900460ff161515151581526020016004820160019054906101000a900473ffffffffffffffffffffffffffffffffffffffff1673ffffffffffffffffffffffffffffffffffffffff1673ffffffffffffffffffffffffffffffffffffffff1681525050905060007f000000000000000000000000000000000000000000000000000000000000000073ffffffffffffffffffffffffffffffffffffffff166306c77ce7836020015184600001516040518363ffffffff1660e01b8152600401612709929190614bbd565b602060405180830381865afa158015612726573d6000803e3d6000fd5b505050506040513d601f19601f8201168201806040525081019061274a9190614bfb565b90506127608367ffffffffffffffff16826131c4565b50505b50565b60006003600083815260200190815260200160002060009054906101000a900473ffffffffffffffffffffffffffffffffffffffff169050919050565b6127ab611725565b73ffffffffffffffffffffffffffffffffffffffff166127c96112b2565b73ffffffffffffffffffffffffffffffffffffffff161461281f576040517f08c379a000000000000000000000000000000000000000000000000000000000815260040161281690615004565b60405180910390fd5b565b60008060008060008060008060088967ffffffffffffffff168154811061284b5761284a6144e9565b5b90600052602060002090600502016040518060e00160405290816000820160009054906101000a900460801b6fffffffffffffffffffffffffffffffff19166fffffffffffffffffffffffffffffffff191681526020016000820160109054906101000a900460801b6fffffffffffffffffffffffffffffffff19166fffffffffffffffffffffffffffffffff191681526020016001820154815260200160028201548152602001600382015481526020016004820160009054906101000a900460ff161515151581526020016004820160019054906101000a900473ffffffffffffffffffffffffffffffffffffffff1673ffffffffffffffffffffffffffffffffffffffff1673ffffffffffffffffffffffffffffffffffffffff168152505090508060400151816060015182608001518360a001518460c0015185602001518660000151975097509750975097509750975050919395979092949650565b60008060009054906101000a900473ffffffffffffffffffffffffffffffffffffffff169050816000806101000a81548173ffffffffffffffffffffffffffffffffffffffff021916908373ffffffffffffffffffffffffffffffffffffffff1602179055508173ffffffffffffffffffffffffffffffffffffffff168173ffffffffffffffffffffffffffffffffffffffff167f8be0079c531659141344cd1fd0a4f28419497f9722a3daafe3b4186f6b6457e060405160405180910390a35050565b6000600f60008373ffffffffffffffffffffffffffffffffffffffff1673ffffffffffffffffffffffffffffffffffffffff16815260200190815260200160002060009054906101000a900460ff169050919050565b8173ffffffffffffffffffffffffffffffffffffffff168373ffffffffffffffffffffffffffffffffffffffff161415612b35576040517f08c379a0000000000000000000000000000000000000000000000000000000008152600401612b2c90615070565b60405180910390fd5b80600660008573ffffffffffffffffffffffffffffffffffffffff1673ffffffffffffffffffffffffffffffffffffffff16815260200190815260200160002060008473ffffffffffffffffffffffffffffffffffffffff1673ffffffffffffffffffffffffffffffffffffffff16815260200190815260200160002060006101000a81548160ff0219169083151502179055508173ffffffffffffffffffffffffffffffffffffffff168373ffffffffffffffffffffffffffffffffffffffff167f17307eab39ab6107e8899845ad3d59bd9653f200f220920489ca2b5937696c3183604051612c2691906138fd565b60405180910390a3505050565b6000600880549050905090565b612c4b84848461207e565b612c5784848484613527565b612c96576040517f08c379a0000000000000000000000000000000000000000000000000000000008152600401612c8d90615102565b60405180910390fd5b50505050565b60007f000000000000000000000000000000000000000000000000000000000000000060088367ffffffffffffffff1681548110612cdd57612cdc6144e9565b5b906000526020600020906005020160030154612cf99190614d25565b9050919050565b60008073ffffffffffffffffffffffffffffffffffffffff16612d2283612766565b73ffffffffffffffffffffffffffffffffffffffff1614159050919050565b6000818311612d505781612d52565b825b905092915050565b612df081604051602401612d6e9190613b92565b6040516020818303038152906040527ff82c50f1000000000000000000000000000000000000000000000000000000007bffffffffffffffffffffffffffffffffffffffffffffffffffffffff19166020820180517bffffffffffffffffffffffffffffffffffffffffffffffffffffffff83818316178352505050506136af565b50565b600073ffffffffffffffffffffffffffffffffffffffff168273ffffffffffffffffffffffffffffffffffffffff161415612e63576040517f08c379a0000000000000000000000000000000000000000000000000000000008152600401612e5a9061516e565b60405180910390fd5b612e6c81612d00565b15612eac576040517f08c379a0000000000000000000000000000000000000000000000000000000008152600401612ea3906151da565b60405180910390fd5b612eba600083836001613011565b612ec381612d00565b15612f03576040517f08c379a0000000000000000000000000000000000000000000000000000000008152600401612efa906151da565b60405180910390fd5b6001600460008473ffffffffffffffffffffffffffffffffffffffff1673ffffffffffffffffffffffffffffffffffffffff16815260200190815260200160002060008282540192505081905550816003600083815260200190815260200160002060006101000a81548173ffffffffffffffffffffffffffffffffffffffff021916908373ffffffffffffffffffffffffffffffffffffffff160217905550808273ffffffffffffffffffffffffffffffffffffffff16600073ffffffffffffffffffffffffffffffffffffffff167fddf252ad1be2c89b69c2b068fc378daa952ba7f163c4a11628f55a4df523b3ef60405160405180910390a461300d600083836001613137565b5050565b600181111561313157600073ffffffffffffffffffffffffffffffffffffffff168473ffffffffffffffffffffffffffffffffffffffff16146130a55780600460008673ffffffffffffffffffffffffffffffffffffffff1673ffffffffffffffffffffffffffffffffffffffff168152602001908152602001600020600082825461309d9190614cf1565b925050819055505b600073ffffffffffffffffffffffffffffffffffffffff168373ffffffffffffffffffffffffffffffffffffffff16146131305780600460008573ffffffffffffffffffffffffffffffffffffffff1673ffffffffffffffffffffffffffffffffffffffff16815260200190815260200160002060008282546131289190614d25565b925050819055505b5b50505050565b50505050565b600073__$488e0037c7b108d422da68056570fe35d6$__63a19dec438585856040518463ffffffff1660e01b815260040161317a93929190615209565b602060405180830381865af4158015613197573d6000803e3d6000fd5b505050506040513d601f19601f820116820180604052508101906131bb9190614f8b565b90509392505050565b42600883815481106131d9576131d86144e9565b5b9060005260206000209060050201600301541061322b576040517f08c379a00000000000000000000000000000000000000000000000000000000081526004016132229061528c565b60405180910390fd5b6008828154811061323f5761323e6144e9565b5b906000526020600020906005020160010154600d60008282546132629190614cf1565b925050819055506008828154811061327d5761327c6144e9565b5b906000526020600020906005020160010154600883815481106132a3576132a26144e9565b5b9060005260206000209060050201600201546132bf9190614cf1565b600e60008282546132d09190614cf1565b92505081905550600760008154809291906132ea906152ac565b919050555060007f000000000000000000000000000000000000000000000000000000000000000073ffffffffffffffffffffffffffffffffffffffff166338d52e0f6040518163ffffffff1660e01b8152600401602060405180830381865afa15801561335c573d6000803e3d6000fd5b505050506040513d601f19601f820116820180604052508101906133809190614a6a565b9050600060088481548110613398576133976144e9565b5b906000526020600020906005020160040160019054906101000a900473ffffffffffffffffffffffffffffffffffffffff1690506000151583151514156133fd577f000000000000000000000000000000000000000000000000000000000000000090505b8173ffffffffffffffffffffffffffffffffffffffff1663a9059cbb826008878154811061342e5761342d6144e9565b5b9060005260206000209060050201600201546040518363ffffffff1660e01b815260040161345d9291906152d6565b6020604051808303816000875af115801561347c573d6000803e3d6000fd5b505050506040513d601f19601f820116820180604052508101906134a09190614bfb565b506134aa846136d8565b8073ffffffffffffffffffffffffffffffffffffffff167f08a2a3d90b4a86017a5adf7503073c6b2b44051c48e9844a336190c9793c4af985600887815481106134f7576134f66144e9565b5b90600052602060002090600502016002015486604051613519939291906152ff565b60405180910390a250505050565b60006135488473ffffffffffffffffffffffffffffffffffffffff16613826565b156136a2578373ffffffffffffffffffffffffffffffffffffffff1663150b7a02613571611725565b8786866040518563ffffffff1660e01b8152600401613593949392919061538b565b6020604051808303816000875af19250505080156135cf57506040513d601f19601f820116820180604052508101906135cc91906153ec565b60015b613652573d80600081146135ff576040519150601f19603f3d011682016040523d82523d6000602084013e613604565b606091505b5060008151141561364a576040517f08c379a000000000000000000000000000000000000000000000000000000000815260040161364190615102565b60405180910390fd5b805181602001fd5b63150b7a0260e01b7bffffffffffffffffffffffffffffffffffffffffffffffffffffffff1916817bffffffffffffffffffffffffffffffffffffffffffffffffffffffff1916149150506136a7565b600190505b949350505050565b60008151905060006a636f6e736f6c652e6c6f679050602083016000808483855afa5050505050565b60006136e382610d79565b90506136f3816000846001613011565b6136fc82610d79565b90506005600083815260200190815260200160002060006101000a81549073ffffffffffffffffffffffffffffffffffffffff02191690556001600460008373ffffffffffffffffffffffffffffffffffffffff1673ffffffffffffffffffffffffffffffffffffffff168152602001908152602001600020600082825403925050819055506003600083815260200190815260200160002060006101000a81549073ffffffffffffffffffffffffffffffffffffffff021916905581600073ffffffffffffffffffffffffffffffffffffffff168273ffffffffffffffffffffffffffffffffffffffff167fddf252ad1be2c89b69c2b068fc378daa952ba7f163c4a11628f55a4df523b3ef60405160405180910390a4613822816000846001613137565b5050565b6000808273ffffffffffffffffffffffffffffffffffffffff163b119050919050565b6000604051905090565b600080fd5b600080fd5b60007fffffffff0000000000000000000000000000000000000000000000000000000082169050919050565b6138928161385d565b811461389d57600080fd5b50565b6000813590506138af81613889565b92915050565b6000602082840312156138cb576138ca613853565b5b60006138d9848285016138a0565b91505092915050565b60008115159050919050565b6138f7816138e2565b82525050565b600060208201905061391260008301846138ee565b92915050565b600081519050919050565b600082825260208201905092915050565b60005b83811015613952578082015181840152602081019050613937565b83811115613961576000848401525b50505050565b6000601f19601f8301169050919050565b600061398382613918565b61398d8185613923565b935061399d818560208601613934565b6139a681613967565b840191505092915050565b600060208201905081810360008301526139cb8184613978565b905092915050565b6000819050919050565b6139e6816139d3565b81146139f157600080fd5b50565b600081359050613a03816139dd565b92915050565b600060208284031215613a1f57613a1e613853565b5b6000613a2d848285016139f4565b91505092915050565b600073ffffffffffffffffffffffffffffffffffffffff82169050919050565b6000613a6182613a36565b9050919050565b613a7181613a56565b82525050565b6000602082019050613a8c6000830184613a68565b92915050565b613a9b81613a56565b8114613aa657600080fd5b50565b600081359050613ab881613a92565b92915050565b60008060408385031215613ad557613ad4613853565b5b6000613ae385828601613aa9565b9250506020613af4858286016139f4565b9150509250929050565b60007fffffffffffffffffffffffffffffffff0000000000000000000000000000000082169050919050565b613b3381613afe565b8114613b3e57600080fd5b50565b600081359050613b5081613b2a565b92915050565b600060208284031215613b6c57613b6b613853565b5b6000613b7a84828501613b41565b91505092915050565b613b8c816139d3565b82525050565b6000602082019050613ba76000830184613b83565b92915050565b600080fd5b600060608284031215613bc857613bc7613bad565b5b81905092915050565b600080600080600080600080610140898b031215613bf257613bf1613853565b5b6000613c008b828c01613b41565b9850506020613c118b828c01613b41565b9750506040613c228b828c01613b41565b9650506060613c338b828c016139f4565b9550506080613c448b828c016139f4565b94505060a0613c558b828c016139f4565b93505060c0613c668b828c016139f4565b92505060e0613c778b828c01613bb2565b9150509295985092959890939650565b600080600060608486031215613ca057613c9f613853565b5b6000613cae86828701613aa9565b9350506020613cbf86828701613aa9565b9250506040613cd0868287016139f4565b9150509250925092565b600060ff82169050919050565b613cf081613cda565b82525050565b6000602082019050613d0b6000830184613ce7565b92915050565b60008060008060808587031215613d2b57613d2a613853565b5b6000613d39878288016139f4565b9450506020613d4a878288016139f4565b9350506040613d5b87828801613b41565b9250506060613d6c87828801613b41565b91505092959194509250565b600067ffffffffffffffff82169050919050565b613d9581613d78565b8114613da057600080fd5b50565b600081359050613db281613d8c565b92915050565b600060208284031215613dce57613dcd613853565b5b6000613ddc84828501613da3565b91505092915050565b60008060008060808587031215613dff57613dfe613853565b5b6000613e0d87828801613b41565b9450506020613e1e87828801613b41565b9350506040613e2f878288016139f4565b9250506060613e40878288016139f4565b91505092959194509250565b600060208284031215613e6257613e61613853565b5b6000613e7084828501613aa9565b91505092915050565b613e8281613afe565b82525050565b600060e082019050613e9d600083018a613b83565b613eaa6020830189613b83565b613eb76040830188613b83565b613ec460608301876138ee565b613ed16080830186613a68565b613ede60a0830185613e79565b613eeb60c0830184613e79565b98975050505050505050565b613f00816138e2565b8114613f0b57600080fd5b50565b600081359050613f1d81613ef7565b92915050565b60008060408385031215613f3a57613f39613853565b5b6000613f4885828601613aa9565b9250506020613f5985828601613f0e565b9150509250929050565b613f6c81613d78565b82525050565b6000602082019050613f876000830184613f63565b92915050565b600080fd5b600080fd5b7f4e487b7100000000000000000000000000000000000000000000000000000000600052604160045260246000fd5b613fcf82613967565b810181811067ffffffffffffffff82111715613fee57613fed613f97565b5b80604052505050565b6000614001613849565b905061400d8282613fc6565b919050565b600067ffffffffffffffff82111561402d5761402c613f97565b5b61403682613967565b9050602081019050919050565b82818337600083830152505050565b600061406561406084614012565b613ff7565b90508281526020810184848401111561408157614080613f92565b5b61408c848285614043565b509392505050565b600082601f8301126140a9576140a8613f8d565b5b81356140b9848260208601614052565b91505092915050565b600080600080608085870312156140dc576140db613853565b5b60006140ea87828801613aa9565b94505060206140fb87828801613aa9565b935050604061410c878288016139f4565b925050606085013567ffffffffffffffff81111561412d5761412c613858565b5b61413987828801614094565b91505092959194509250565b6000806040838503121561415c5761415b613853565b5b600061416a85828601613aa9565b925050602061417b85828601613aa9565b9150509250929050565b7f4e487b7100000000000000000000000000000000000000000000000000000000600052602260045260246000fd5b600060028204905060018216806141cc57607f821691505b602082108114156141e0576141df614185565b5b50919050565b7f4552433732313a20617070726f76616c20746f2063757272656e74206f776e6560008201527f7200000000000000000000000000000000000000000000000000000000000000602082015250565b6000614242602183613923565b915061424d826141e6565b604082019050919050565b6000602082019050818103600083015261427181614235565b9050919050565b7f4552433732313a20617070726f76652063616c6c6572206973206e6f7420746f60008201527f6b656e206f776e6572206f7220617070726f76656420666f7220616c6c000000602082015250565b60006142d4603d83613923565b91506142df82614278565b604082019050919050565b60006020820190508181036000830152614303816142c7565b9050919050565b6000819050919050565b61432561432082613afe565b61430a565b82525050565b6000819050919050565b614346614341826139d3565b61432b565b82525050565b60006143588289614314565b6010820191506143688288614314565b6010820191506143788287614314565b6010820191506143888286614335565b6020820191506143988285614335565b6020820191506143a88284614335565b602082019150819050979650505050505050565b7f6261636b3a20496e76616c6964207369676e6174757265000000000000000000600082015250565b60006143f2601783613923565b91506143fd826143bc565b602082019050919050565b60006020820190508181036000830152614421816143e5565b9050919050565b7f4e487b7100000000000000000000000000000000000000000000000000000000600052600160045260246000fd5b7f4552433732313a2063616c6c6572206973206e6f7420746f6b656e206f776e6560008201527f72206f7220617070726f76656400000000000000000000000000000000000000602082015250565b60006144b3602d83613923565b91506144be82614457565b604082019050919050565b600060208201905081810360008301526144e2816144a6565b9050919050565b7f4e487b7100000000000000000000000000000000000000000000000000000000600052603260045260246000fd5b7f736574746c653a204265742068617320616c726561647920736574746c656400600082015250565b600061454e601f83613923565b915061455982614518565b602082019050919050565b6000602082019050818103600083015261457d81614541565b9050919050565b7f4552433732313a20696e76616c696420746f6b656e2049440000000000000000600082015250565b60006145ba601883613923565b91506145c582614584565b602082019050919050565b600060208201905081810360008301526145e9816145ad565b9050919050565b7f6772616e745369676e65723a20496e76616c6964207369676e6572206164647260008201527f6573730000000000000000000000000000000000000000000000000000000000602082015250565b600061464c602383613923565b9150614657826145f0565b604082019050919050565b6000602082019050818103600083015261467b8161463f565b9050919050565b7f4552433732313a2061646472657373207a65726f206973206e6f74206120766160008201527f6c6964206f776e65720000000000000000000000000000000000000000000000602082015250565b60006146de602983613923565b91506146e982614682565b604082019050919050565b6000602082019050818103600083015261470d816146d1565b9050919050565b7f4e487b7100000000000000000000000000000000000000000000000000000000600052601160045260246000fd5b600061474e82613d78565b915067ffffffffffffffff82141561476957614768614714565b5b600182019050919050565b7f7265766f6b655369676e65723a20496e76616c6964207369676e65722061646460008201527f7265737300000000000000000000000000000000000000000000000000000000602082015250565b60006147d0602483613923565b91506147db82614774565b604082019050919050565b600060208201905081810360008301526147ff816147c3565b9050919050565b600081905092915050565b7f68747470733a2f2f6170692e686f7273652e6c696e6b2f6265742f0000000000600082015250565b6000614847601b83614806565b915061485282614811565b601b82019050919050565b60006148688261483a565b91506148748284614335565b60208201915081905092915050565b7f4f776e61626c653a206e6577206f776e657220697320746865207a65726f206160008201527f6464726573730000000000000000000000000000000000000000000000000000602082015250565b60006148df602683613923565b91506148ea82614883565b604082019050919050565b6000602082019050818103600083015261490e816148d2565b9050919050565b6000819050919050565b61492881614915565b82525050565b61493781613cda565b811461494257600080fd5b50565b6000813590506149548161492e565b92915050565b60006149696020840184614945565b905092915050565b61497a81613cda565b82525050565b61498981614915565b811461499457600080fd5b50565b6000813590506149a681614980565b92915050565b60006149bb6020840184614997565b905092915050565b6149cc81614915565b82525050565b606082016149e3600083018361495a565b6149f06000850182614971565b506149fe60208301836149ac565b614a0b60208501826149c3565b50614a1960408301836149ac565b614a2660408501826149c3565b50505050565b6000608082019050614a41600083018561491f565b614a4e60208301846149d2565b9392505050565b600081519050614a6481613a92565b92915050565b600060208284031215614a8057614a7f613853565b5b6000614a8e84828501614a55565b91505092915050565b6000614aa2826139d3565b9150614aad836139d3565b9250817fffffffffffffffffffffffffffffffffffffffffffffffffffffffffffffffff0483118215151615614ae657614ae5614714565b5b828202905092915050565b7f4e487b7100000000000000000000000000000000000000000000000000000000600052601260045260246000fd5b6000614b2b826139d3565b9150614b36836139d3565b925082614b4657614b45614af1565b5b828204905092915050565b7f6261636b3a20496e76616c696420646174650000000000000000000000000000600082015250565b6000614b87601283613923565b9150614b9282614b51565b602082019050919050565b60006020820190508181036000830152614bb681614b7a565b9050919050565b6000604082019050614bd26000830185613e79565b614bdf6020830184613e79565b9392505050565b600081519050614bf581613ef7565b92915050565b600060208284031215614c1157614c10613853565b5b6000614c1f84828501614be6565b91505092915050565b7f6261636b3a204f7261636c6520726573756c7420616c7265616479207365742060008201527f666f722074686973206d61726b65740000000000000000000000000000000000602082015250565b6000614c84602f83613923565b9150614c8f82614c28565b604082019050919050565b60006020820190508181036000830152614cb381614c77565b9050919050565b6000606082019050614ccf6000830186613a68565b614cdc6020830185613a68565b614ce96040830184613b83565b949350505050565b6000614cfc826139d3565b9150614d07836139d3565b925082821015614d1a57614d19614714565b5b828203905092915050565b6000614d30826139d3565b9150614d3b836139d3565b9250827fffffffffffffffffffffffffffffffffffffffffffffffffffffffffffffffff03821115614d7057614d6f614714565b5b828201905092915050565b6000614d86826139d3565b91507fffffffffffffffffffffffffffffffffffffffffffffffffffffffffffffffff821415614db957614db8614714565b5b600182019050919050565b6000819050919050565b6000614de9614de4614ddf84613d78565b614dc4565b6139d3565b9050919050565b614df981614dce565b82525050565b600060a082019050614e146000830188614df0565b614e216020830187613e79565b614e2e6040830186613e79565b614e3b6060830185613b83565b614e486080830184613b83565b9695505050505050565b7f4552433732313a207472616e736665722066726f6d20696e636f72726563742060008201527f6f776e6572000000000000000000000000000000000000000000000000000000602082015250565b6000614eae602583613923565b9150614eb982614e52565b604082019050919050565b60006020820190508181036000830152614edd81614ea1565b9050919050565b7f4552433732313a207472616e7366657220746f20746865207a65726f2061646460008201527f7265737300000000000000000000000000000000000000000000000000000000602082015250565b6000614f40602483613923565b9150614f4b82614ee4565b604082019050919050565b60006020820190508181036000830152614f6f81614f33565b9050919050565b600081519050614f85816139dd565b92915050565b600060208284031215614fa157614fa0613853565b5b6000614faf84828501614f76565b91505092915050565b7f4f776e61626c653a2063616c6c6572206973206e6f7420746865206f776e6572600082015250565b6000614fee602083613923565b9150614ff982614fb8565b602082019050919050565b6000602082019050818103600083015261501d81614fe1565b9050919050565b7f4552433732313a20617070726f766520746f2063616c6c657200000000000000600082015250565b600061505a601983613923565b915061506582615024565b602082019050919050565b600060208201905081810360008301526150898161504d565b9050919050565b7f4552433732313a207472616e7366657220746f206e6f6e20455243373231526560008201527f63656976657220696d706c656d656e7465720000000000000000000000000000602082015250565b60006150ec603283613923565b91506150f782615090565b604082019050919050565b6000602082019050818103600083015261511b816150df565b9050919050565b7f4552433732313a206d696e7420746f20746865207a65726f2061646472657373600082015250565b6000615158602083613923565b915061516382615122565b602082019050919050565b600060208201905081810360008301526151878161514b565b9050919050565b7f4552433732313a20746f6b656e20616c7265616479206d696e74656400000000600082015250565b60006151c4601c83613923565b91506151cf8261518e565b602082019050919050565b600060208201905081810360008301526151f3816151b7565b9050919050565b615203816139d3565b82525050565b600060608201905061521e60008301866151fa565b61522b60208301856151fa565b61523860408301846151fa565b949350505050565b7f5f736574746c653a205061796f75742064617465206e6f742072656163686564600082015250565b6000615276602083613923565b915061528182615240565b602082019050919050565b600060208201905081810360008301526152a581615269565b9050919050565b60006152b7826139d3565b915060008214156152cb576152ca614714565b5b600182039050919050565b60006040820190506152eb6000830185613a68565b6152f86020830184613b83565b9392505050565b60006060820190506153146000830186613b83565b6153216020830185613b83565b61532e60408301846138ee565b949350505050565b600081519050919050565b600082825260208201905092915050565b600061535d82615336565b6153678185615341565b9350615377818560208601613934565b61538081613967565b840191505092915050565b60006080820190506153a06000830187613a68565b6153ad6020830186613a68565b6153ba6040830185613b83565b81810360608301526153cc8184615352565b905095945050505050565b6000815190506153e681613889565b92915050565b60006020828403121561540257615401613853565b5b6000615410848285016153d7565b9150509291505056fea2646970667358221220d6c5ef5b55ef40bc02f1c9e41a5d5ece5c79be82afef13bd0752948d93ffe4e464736f6c634300080a0033",
  "libraries": {
    "SignatureLib": "0x839ED5A99c6ec4d1B852a2550cCF98247d27B499",
    "OddsLib": "0xD26Ad878453b682E49E8a8b1E9dbe700E40Fc459"
  },
  "devdoc": {
    "kind": "dev",
    "methods": {
      "approve(address,uint256)": {
        "details": "See {IERC721-approve}."
      },
      "balanceOf(address)": {
        "details": "See {IERC721-balanceOf}."
      },
      "getApproved(uint256)": {
        "details": "See {IERC721-getApproved}."
      },
      "isApprovedForAll(address,address)": {
        "details": "See {IERC721-isApprovedForAll}."
      },
      "name()": {
        "details": "See {IERC721Metadata-name}."
      },
      "owner()": {
        "details": "Returns the address of the current owner."
      },
      "ownerOf(uint256)": {
        "details": "See {IERC721-ownerOf}."
      },
      "renounceOwnership()": {
        "details": "Leaves the contract without owner. It will not be possible to call `onlyOwner` functions anymore. Can only be called by the current owner. NOTE: Renouncing ownership will leave the contract without an owner, thereby removing any functionality that is only available to the owner."
      },
      "safeTransferFrom(address,address,uint256)": {
        "details": "See {IERC721-safeTransferFrom}."
      },
      "safeTransferFrom(address,address,uint256,bytes)": {
        "details": "See {IERC721-safeTransferFrom}."
      },
      "setApprovalForAll(address,bool)": {
        "details": "See {IERC721-setApprovalForAll}."
      },
      "supportsInterface(bytes4)": {
        "details": "See {IERC165-supportsInterface}."
      },
      "symbol()": {
        "details": "See {IERC721Metadata-symbol}."
      },
      "tokenURI(uint256)": {
        "details": "See {IERC721Metadata-tokenURI}."
      },
      "transferFrom(address,address,uint256)": {
        "details": "See {IERC721-transferFrom}."
      },
      "transferOwnership(address)": {
        "details": "Transfers ownership of the contract to a new account (`newOwner`). Can only be called by the current owner."
      }
    },
    "version": 1
  },
  "userdoc": {
    "kind": "user",
    "methods": {},
    "version": 1
  },
  "storageLayout": {
    "storage": [
      {
        "astId": 2722,
        "contract": "contracts/Market.sol:Market",
        "label": "_owner",
        "offset": 0,
        "slot": "0",
        "type": "t_address"
      },
      {
        "astId": 5038,
        "contract": "contracts/Market.sol:Market",
        "label": "_name",
        "offset": 0,
        "slot": "1",
        "type": "t_string_storage"
      },
      {
        "astId": 5040,
        "contract": "contracts/Market.sol:Market",
        "label": "_symbol",
        "offset": 0,
        "slot": "2",
        "type": "t_string_storage"
      },
      {
        "astId": 5044,
        "contract": "contracts/Market.sol:Market",
        "label": "_owners",
        "offset": 0,
        "slot": "3",
        "type": "t_mapping(t_uint256,t_address)"
      },
      {
        "astId": 5048,
        "contract": "contracts/Market.sol:Market",
        "label": "_balances",
        "offset": 0,
        "slot": "4",
        "type": "t_mapping(t_address,t_uint256)"
      },
      {
        "astId": 5052,
        "contract": "contracts/Market.sol:Market",
        "label": "_tokenApprovals",
        "offset": 0,
        "slot": "5",
        "type": "t_mapping(t_uint256,t_address)"
      },
      {
        "astId": 5058,
        "contract": "contracts/Market.sol:Market",
        "label": "_operatorApprovals",
        "offset": 0,
        "slot": "6",
        "type": "t_mapping(t_address,t_mapping(t_address,t_bool))"
      },
      {
        "astId": 8439,
        "contract": "contracts/Market.sol:Market",
        "label": "_inplayCount",
        "offset": 0,
        "slot": "7",
        "type": "t_uint256"
      },
      {
        "astId": 8443,
        "contract": "contracts/Market.sol:Market",
        "label": "_bets",
        "offset": 0,
        "slot": "8",
        "type": "t_array(t_struct(Bet)8421_storage)dyn_storage"
      },
      {
        "astId": 8448,
        "contract": "contracts/Market.sol:Market",
        "label": "_marketBets",
        "offset": 0,
        "slot": "9",
        "type": "t_mapping(t_bytes16,t_array(t_uint64)dyn_storage)"
      },
      {
        "astId": 8452,
        "contract": "contracts/Market.sol:Market",
        "label": "_marketTotal",
        "offset": 0,
        "slot": "10",
        "type": "t_mapping(t_bytes16,t_uint256)"
      },
      {
        "astId": 8458,
        "contract": "contracts/Market.sol:Market",
        "label": "_marketBetAmount",
        "offset": 0,
        "slot": "11",
        "type": "t_mapping(t_bytes16,t_mapping(t_uint16,t_uint256))"
      },
      {
        "astId": 8462,
        "contract": "contracts/Market.sol:Market",
        "label": "_potentialPayout",
        "offset": 0,
        "slot": "12",
        "type": "t_mapping(t_bytes16,t_uint256)"
      },
      {
        "astId": 8464,
        "contract": "contracts/Market.sol:Market",
        "label": "_totalInPlay",
        "offset": 0,
        "slot": "13",
        "type": "t_uint256"
      },
      {
        "astId": 8466,
        "contract": "contracts/Market.sol:Market",
        "label": "_totalExposure",
        "offset": 0,
        "slot": "14",
        "type": "t_uint256"
      },
      {
        "astId": 8474,
        "contract": "contracts/Market.sol:Market",
        "label": "_signers",
        "offset": 0,
        "slot": "15",
        "type": "t_mapping(t_address,t_bool)"
      }
    ],
    "types": {
      "t_address": {
        "encoding": "inplace",
        "label": "address",
        "numberOfBytes": "20"
      },
      "t_array(t_struct(Bet)8421_storage)dyn_storage": {
        "base": "t_struct(Bet)8421_storage",
        "encoding": "dynamic_array",
        "label": "struct Bet[]",
        "numberOfBytes": "32"
      },
      "t_array(t_uint64)dyn_storage": {
        "base": "t_uint64",
        "encoding": "dynamic_array",
        "label": "uint64[]",
        "numberOfBytes": "32"
      },
      "t_bool": {
        "encoding": "inplace",
        "label": "bool",
        "numberOfBytes": "1"
      },
      "t_bytes16": {
        "encoding": "inplace",
        "label": "bytes16",
        "numberOfBytes": "16"
      },
      "t_mapping(t_address,t_bool)": {
        "encoding": "mapping",
        "key": "t_address",
        "label": "mapping(address => bool)",
        "numberOfBytes": "32",
        "value": "t_bool"
      },
      "t_mapping(t_address,t_mapping(t_address,t_bool))": {
        "encoding": "mapping",
        "key": "t_address",
        "label": "mapping(address => mapping(address => bool))",
        "numberOfBytes": "32",
        "value": "t_mapping(t_address,t_bool)"
      },
      "t_mapping(t_address,t_uint256)": {
        "encoding": "mapping",
        "key": "t_address",
        "label": "mapping(address => uint256)",
        "numberOfBytes": "32",
        "value": "t_uint256"
      },
      "t_mapping(t_bytes16,t_array(t_uint64)dyn_storage)": {
        "encoding": "mapping",
        "key": "t_bytes16",
        "label": "mapping(bytes16 => uint64[])",
        "numberOfBytes": "32",
        "value": "t_array(t_uint64)dyn_storage"
      },
      "t_mapping(t_bytes16,t_mapping(t_uint16,t_uint256))": {
        "encoding": "mapping",
        "key": "t_bytes16",
        "label": "mapping(bytes16 => mapping(uint16 => uint256))",
        "numberOfBytes": "32",
        "value": "t_mapping(t_uint16,t_uint256)"
      },
      "t_mapping(t_bytes16,t_uint256)": {
        "encoding": "mapping",
        "key": "t_bytes16",
        "label": "mapping(bytes16 => uint256)",
        "numberOfBytes": "32",
        "value": "t_uint256"
      },
      "t_mapping(t_uint16,t_uint256)": {
        "encoding": "mapping",
        "key": "t_uint16",
        "label": "mapping(uint16 => uint256)",
        "numberOfBytes": "32",
        "value": "t_uint256"
      },
      "t_mapping(t_uint256,t_address)": {
        "encoding": "mapping",
        "key": "t_uint256",
        "label": "mapping(uint256 => address)",
        "numberOfBytes": "32",
        "value": "t_address"
      },
      "t_string_storage": {
        "encoding": "bytes",
        "label": "string",
        "numberOfBytes": "32"
      },
      "t_struct(Bet)8421_storage": {
        "encoding": "inplace",
        "label": "struct Bet",
        "members": [
          {
            "astId": 8408,
            "contract": "contracts/Market.sol:Market",
            "label": "propositionId",
            "offset": 0,
            "slot": "0",
            "type": "t_bytes16"
          },
          {
            "astId": 8410,
            "contract": "contracts/Market.sol:Market",
            "label": "marketId",
            "offset": 16,
            "slot": "0",
            "type": "t_bytes16"
          },
          {
            "astId": 8412,
            "contract": "contracts/Market.sol:Market",
            "label": "amount",
            "offset": 0,
            "slot": "1",
            "type": "t_uint256"
          },
          {
            "astId": 8414,
            "contract": "contracts/Market.sol:Market",
            "label": "payout",
            "offset": 0,
            "slot": "2",
            "type": "t_uint256"
          },
          {
            "astId": 8416,
            "contract": "contracts/Market.sol:Market",
            "label": "payoutDate",
            "offset": 0,
            "slot": "3",
            "type": "t_uint256"
          },
          {
            "astId": 8418,
            "contract": "contracts/Market.sol:Market",
            "label": "settled",
            "offset": 0,
            "slot": "4",
            "type": "t_bool"
          },
          {
            "astId": 8420,
            "contract": "contracts/Market.sol:Market",
            "label": "owner",
            "offset": 1,
            "slot": "4",
            "type": "t_address"
          }
        ],
        "numberOfBytes": "160"
      },
      "t_uint16": {
        "encoding": "inplace",
        "label": "uint16",
        "numberOfBytes": "2"
      },
      "t_uint256": {
        "encoding": "inplace",
        "label": "uint256",
        "numberOfBytes": "32"
      },
      "t_uint64": {
        "encoding": "inplace",
        "label": "uint64",
        "numberOfBytes": "8"
      }
    }
  }
}