{
  "address": "0x1F58B425dE244F09ca5F299E5CD871009AD2429E",
  "abi": [
    {
      "inputs": [
        {
          "internalType": "contract IVault",
          "name": "vault",
          "type": "address"
        },
        {
          "internalType": "uint8",
          "name": "margin",
          "type": "uint8"
        },
        {
          "internalType": "address",
          "name": "oracle",
          "type": "address"
        }
      ],
      "stateMutability": "nonpayable",
      "type": "constructor"
    },
    {
      "anonymous": false,
      "inputs": [
        {
          "indexed": true,
          "internalType": "address",
          "name": "owner",
          "type": "address"
        },
        {
          "indexed": true,
          "internalType": "address",
          "name": "approved",
          "type": "address"
        },
        {
          "indexed": true,
          "internalType": "uint256",
          "name": "tokenId",
          "type": "uint256"
        }
      ],
      "name": "Approval",
      "type": "event"
    },
    {
      "anonymous": false,
      "inputs": [
        {
          "indexed": true,
          "internalType": "address",
          "name": "owner",
          "type": "address"
        },
        {
          "indexed": true,
          "internalType": "address",
          "name": "operator",
          "type": "address"
        },
        {
          "indexed": false,
          "internalType": "bool",
          "name": "approved",
          "type": "bool"
        }
      ],
      "name": "ApprovalForAll",
      "type": "event"
    },
    {
      "anonymous": false,
      "inputs": [
        {
          "indexed": true,
          "internalType": "address",
          "name": "previousOwner",
          "type": "address"
        },
        {
          "indexed": true,
          "internalType": "address",
          "name": "newOwner",
          "type": "address"
        }
      ],
      "name": "OwnershipTransferred",
      "type": "event"
    },
    {
      "anonymous": false,
      "inputs": [
        {
          "indexed": false,
          "internalType": "uint256",
          "name": "index",
          "type": "uint256"
        },
        {
          "indexed": false,
          "internalType": "bytes16",
          "name": "propositionId",
          "type": "bytes16"
        },
        {
          "indexed": false,
          "internalType": "bytes16",
          "name": "marketId",
          "type": "bytes16"
        },
        {
          "indexed": false,
          "internalType": "uint256",
          "name": "amount",
          "type": "uint256"
        },
        {
          "indexed": false,
          "internalType": "uint256",
          "name": "payout",
          "type": "uint256"
        },
        {
          "indexed": true,
          "internalType": "address",
          "name": "owner",
          "type": "address"
        }
      ],
      "name": "Placed",
      "type": "event"
    },
    {
      "anonymous": false,
      "inputs": [
        {
          "indexed": false,
          "internalType": "uint256",
          "name": "id",
          "type": "uint256"
        },
        {
          "indexed": false,
          "internalType": "uint256",
          "name": "payout",
          "type": "uint256"
        },
        {
          "indexed": false,
          "internalType": "bool",
          "name": "result",
          "type": "bool"
        },
        {
          "indexed": true,
          "internalType": "address",
          "name": "owner",
          "type": "address"
        }
      ],
      "name": "Settled",
      "type": "event"
    },
    {
      "anonymous": false,
      "inputs": [
        {
          "indexed": true,
          "internalType": "address",
          "name": "from",
          "type": "address"
        },
        {
          "indexed": true,
          "internalType": "address",
          "name": "to",
          "type": "address"
        },
        {
          "indexed": true,
          "internalType": "uint256",
          "name": "tokenId",
          "type": "uint256"
        }
      ],
      "name": "Transfer",
      "type": "event"
    },
    {
      "inputs": [
        {
          "internalType": "address",
          "name": "to",
          "type": "address"
        },
        {
          "internalType": "uint256",
          "name": "tokenId",
          "type": "uint256"
        }
      ],
      "name": "approve",
      "outputs": [],
      "stateMutability": "nonpayable",
      "type": "function"
    },
    {
      "inputs": [
        {
          "internalType": "bytes16",
          "name": "nonce",
          "type": "bytes16"
        },
        {
          "internalType": "bytes16",
          "name": "propositionId",
          "type": "bytes16"
        },
        {
          "internalType": "bytes16",
          "name": "marketId",
          "type": "bytes16"
        },
        {
          "internalType": "uint256",
          "name": "wager",
          "type": "uint256"
        },
        {
          "internalType": "uint256",
          "name": "odds",
          "type": "uint256"
        },
        {
          "internalType": "uint256",
          "name": "close",
          "type": "uint256"
        },
        {
          "internalType": "uint256",
          "name": "end",
          "type": "uint256"
        },
        {
          "components": [
            {
              "internalType": "uint8",
              "name": "v",
              "type": "uint8"
            },
            {
              "internalType": "bytes32",
              "name": "r",
              "type": "bytes32"
            },
            {
              "internalType": "bytes32",
              "name": "s",
              "type": "bytes32"
            }
          ],
          "internalType": "struct SignatureLib.Signature",
          "name": "signature",
          "type": "tuple"
        }
      ],
      "name": "back",
      "outputs": [
        {
          "internalType": "uint256",
          "name": "",
          "type": "uint256"
        }
      ],
      "stateMutability": "nonpayable",
      "type": "function"
    },
    {
      "inputs": [
        {
          "internalType": "address",
          "name": "owner",
          "type": "address"
        }
      ],
      "name": "balanceOf",
      "outputs": [
        {
          "internalType": "uint256",
          "name": "",
          "type": "uint256"
        }
      ],
      "stateMutability": "view",
      "type": "function"
    },
    {
      "inputs": [
        {
          "internalType": "uint256",
          "name": "tokenId",
          "type": "uint256"
        }
      ],
      "name": "getApproved",
      "outputs": [
        {
          "internalType": "address",
          "name": "",
          "type": "address"
        }
      ],
      "stateMutability": "view",
      "type": "function"
    },
    {
      "inputs": [
        {
          "internalType": "uint256",
          "name": "index",
          "type": "uint256"
        }
      ],
      "name": "getBetByIndex",
      "outputs": [
        {
          "internalType": "uint256",
          "name": "",
          "type": "uint256"
        },
        {
          "internalType": "uint256",
          "name": "",
          "type": "uint256"
        },
        {
          "internalType": "uint256",
          "name": "",
          "type": "uint256"
        },
        {
          "internalType": "bool",
          "name": "",
          "type": "bool"
        },
        {
          "internalType": "address",
          "name": "",
          "type": "address"
        },
        {
          "internalType": "bytes16",
          "name": "",
          "type": "bytes16"
        },
        {
          "internalType": "bytes16",
          "name": "",
          "type": "bytes16"
        }
      ],
      "stateMutability": "view",
      "type": "function"
    },
    {
      "inputs": [],
      "name": "getCount",
      "outputs": [
        {
          "internalType": "uint256",
          "name": "",
          "type": "uint256"
        }
      ],
      "stateMutability": "view",
      "type": "function"
    },
    {
      "inputs": [
        {
          "internalType": "uint64",
          "name": "id",
          "type": "uint64"
        }
      ],
      "name": "getExpiry",
      "outputs": [
        {
          "internalType": "uint256",
          "name": "",
          "type": "uint256"
        }
      ],
      "stateMutability": "view",
      "type": "function"
    },
    {
      "inputs": [],
      "name": "getInPlayCount",
      "outputs": [
        {
          "internalType": "uint256",
          "name": "",
          "type": "uint256"
        }
      ],
      "stateMutability": "view",
      "type": "function"
    },
    {
      "inputs": [],
      "name": "getMargin",
      "outputs": [
        {
          "internalType": "uint8",
          "name": "",
          "type": "uint8"
        }
      ],
      "stateMutability": "view",
      "type": "function"
    },
    {
      "inputs": [
        {
          "internalType": "bytes16",
          "name": "marketId",
          "type": "bytes16"
        }
      ],
      "name": "getMarketTotal",
      "outputs": [
        {
          "internalType": "uint256",
          "name": "",
          "type": "uint256"
        }
      ],
      "stateMutability": "view",
      "type": "function"
    },
    {
      "inputs": [
        {
          "internalType": "uint256",
          "name": "wager",
          "type": "uint256"
        },
        {
          "internalType": "uint256",
          "name": "odds",
          "type": "uint256"
        },
        {
          "internalType": "bytes16",
          "name": "propositionId",
          "type": "bytes16"
        },
        {
          "internalType": "bytes16",
          "name": "marketId",
          "type": "bytes16"
        }
      ],
      "name": "getOdds",
      "outputs": [
        {
          "internalType": "uint256",
          "name": "",
          "type": "uint256"
        }
      ],
      "stateMutability": "view",
      "type": "function"
    },
    {
      "inputs": [],
      "name": "getOracleAddress",
      "outputs": [
        {
          "internalType": "address",
          "name": "",
          "type": "address"
        }
      ],
      "stateMutability": "view",
      "type": "function"
    },
    {
      "inputs": [
        {
          "internalType": "bytes16",
          "name": "propositionId",
          "type": "bytes16"
        },
        {
          "internalType": "bytes16",
          "name": "marketId",
          "type": "bytes16"
        },
        {
          "internalType": "uint256",
          "name": "wager",
          "type": "uint256"
        },
        {
          "internalType": "uint256",
          "name": "odds",
          "type": "uint256"
        }
      ],
      "name": "getPotentialPayout",
      "outputs": [
        {
          "internalType": "uint256",
          "name": "",
          "type": "uint256"
        }
      ],
      "stateMutability": "view",
      "type": "function"
    },
    {
      "inputs": [
        {
          "internalType": "bytes16",
          "name": "marketId",
          "type": "bytes16"
        }
      ],
      "name": "getRiskCoefficient",
      "outputs": [
        {
          "internalType": "uint256",
          "name": "",
          "type": "uint256"
        }
      ],
      "stateMutability": "view",
      "type": "function"
    },
    {
      "inputs": [],
      "name": "getTotalExposure",
      "outputs": [
        {
          "internalType": "uint256",
          "name": "",
          "type": "uint256"
        }
      ],
      "stateMutability": "view",
      "type": "function"
    },
    {
      "inputs": [],
      "name": "getTotalInPlay",
      "outputs": [
        {
          "internalType": "uint256",
          "name": "",
          "type": "uint256"
        }
      ],
      "stateMutability": "view",
      "type": "function"
    },
    {
      "inputs": [],
      "name": "getVaultAddress",
      "outputs": [
        {
          "internalType": "address",
          "name": "",
          "type": "address"
        }
      ],
      "stateMutability": "view",
      "type": "function"
    },
    {
      "inputs": [
        {
          "internalType": "address",
          "name": "signer",
          "type": "address"
        }
      ],
      "name": "grantSigner",
      "outputs": [],
      "stateMutability": "nonpayable",
      "type": "function"
    },
    {
      "inputs": [
        {
          "internalType": "address",
          "name": "owner",
          "type": "address"
        },
        {
          "internalType": "address",
          "name": "operator",
          "type": "address"
        }
      ],
      "name": "isApprovedForAll",
      "outputs": [
        {
          "internalType": "bool",
          "name": "",
          "type": "bool"
        }
      ],
      "stateMutability": "view",
      "type": "function"
    },
    {
      "inputs": [
        {
          "internalType": "address",
          "name": "signer",
          "type": "address"
        }
      ],
      "name": "isSigner",
      "outputs": [
        {
          "internalType": "bool",
          "name": "",
          "type": "bool"
        }
      ],
      "stateMutability": "view",
      "type": "function"
    },
    {
      "inputs": [],
      "name": "min",
      "outputs": [
        {
          "internalType": "uint256",
          "name": "",
          "type": "uint256"
        }
      ],
      "stateMutability": "view",
      "type": "function"
    },
    {
      "inputs": [],
      "name": "name",
      "outputs": [
        {
          "internalType": "string",
          "name": "",
          "type": "string"
        }
      ],
      "stateMutability": "view",
      "type": "function"
    },
    {
      "inputs": [],
      "name": "owner",
      "outputs": [
        {
          "internalType": "address",
          "name": "",
          "type": "address"
        }
      ],
      "stateMutability": "view",
      "type": "function"
    },
    {
      "inputs": [
        {
          "internalType": "uint256",
          "name": "tokenId",
          "type": "uint256"
        }
      ],
      "name": "ownerOf",
      "outputs": [
        {
          "internalType": "address",
          "name": "",
          "type": "address"
        }
      ],
      "stateMutability": "view",
      "type": "function"
    },
    {
      "inputs": [],
      "name": "renounceOwnership",
      "outputs": [],
      "stateMutability": "nonpayable",
      "type": "function"
    },
    {
      "inputs": [
        {
          "internalType": "address",
          "name": "signer",
          "type": "address"
        }
      ],
      "name": "revokeSigner",
      "outputs": [],
      "stateMutability": "nonpayable",
      "type": "function"
    },
    {
      "inputs": [
        {
          "internalType": "address",
          "name": "from",
          "type": "address"
        },
        {
          "internalType": "address",
          "name": "to",
          "type": "address"
        },
        {
          "internalType": "uint256",
          "name": "tokenId",
          "type": "uint256"
        }
      ],
      "name": "safeTransferFrom",
      "outputs": [],
      "stateMutability": "nonpayable",
      "type": "function"
    },
    {
      "inputs": [
        {
          "internalType": "address",
          "name": "from",
          "type": "address"
        },
        {
          "internalType": "address",
          "name": "to",
          "type": "address"
        },
        {
          "internalType": "uint256",
          "name": "tokenId",
          "type": "uint256"
        },
        {
          "internalType": "bytes",
          "name": "data",
          "type": "bytes"
        }
      ],
      "name": "safeTransferFrom",
      "outputs": [],
      "stateMutability": "nonpayable",
      "type": "function"
    },
    {
      "inputs": [
        {
          "internalType": "address",
          "name": "operator",
          "type": "address"
        },
        {
          "internalType": "bool",
          "name": "approved",
          "type": "bool"
        }
      ],
      "name": "setApprovalForAll",
      "outputs": [],
      "stateMutability": "nonpayable",
      "type": "function"
    },
    {
      "inputs": [
        {
          "internalType": "bytes16",
          "name": "marketId",
          "type": "bytes16"
        },
        {
          "internalType": "uint256",
          "name": "risk",
          "type": "uint256"
        }
      ],
      "name": "setRiskCoefficient",
      "outputs": [],
      "stateMutability": "nonpayable",
      "type": "function"
    },
    {
      "inputs": [
        {
          "internalType": "uint256",
          "name": "index",
          "type": "uint256"
        }
      ],
      "name": "settle",
      "outputs": [],
      "stateMutability": "nonpayable",
      "type": "function"
    },
    {
      "inputs": [
        {
          "internalType": "bytes4",
          "name": "interfaceId",
          "type": "bytes4"
        }
      ],
      "name": "supportsInterface",
      "outputs": [
        {
          "internalType": "bool",
          "name": "",
          "type": "bool"
        }
      ],
      "stateMutability": "view",
      "type": "function"
    },
    {
      "inputs": [],
      "name": "symbol",
      "outputs": [
        {
          "internalType": "string",
          "name": "",
          "type": "string"
        }
      ],
      "stateMutability": "view",
      "type": "function"
    },
    {
      "inputs": [],
      "name": "timeout",
      "outputs": [
        {
          "internalType": "uint256",
          "name": "",
          "type": "uint256"
        }
      ],
      "stateMutability": "view",
      "type": "function"
    },
    {
      "inputs": [
        {
          "internalType": "uint256",
          "name": "tokenId",
          "type": "uint256"
        }
      ],
      "name": "tokenURI",
      "outputs": [
        {
          "internalType": "string",
          "name": "",
          "type": "string"
        }
      ],
      "stateMutability": "pure",
      "type": "function"
    },
    {
      "inputs": [
        {
          "internalType": "address",
          "name": "from",
          "type": "address"
        },
        {
          "internalType": "address",
          "name": "to",
          "type": "address"
        },
        {
          "internalType": "uint256",
          "name": "tokenId",
          "type": "uint256"
        }
      ],
      "name": "transferFrom",
      "outputs": [],
      "stateMutability": "nonpayable",
      "type": "function"
    },
    {
      "inputs": [
        {
          "internalType": "address",
          "name": "newOwner",
          "type": "address"
        }
      ],
      "name": "transferOwnership",
      "outputs": [],
      "stateMutability": "nonpayable",
      "type": "function"
    }
  ],
  "transactionHash": "0x2aaa8b6ffc9644f854a43d282e0d8e9e8671e2723e17b8a13272260ddf649b98",
  "args": [
    "0xA8D7A640F657E950659Ef9c175f3048350A44a6D",
    0,
    "0x26d8Aa7d8A53f2Dc95E3C0d9F4FA7D7F178f9767"
  ],
  "numDeployments": 1,
  "solcInputHash": "8567b3a2d5e41daaa5da4899fd319464",
  "bytecode": "0x6101406040523480156200001257600080fd5b506040516200597e3803806200597e8339818101604052810190620000389190620004fc565b6040518060400160405280601381526020017f486f727365204c696e6b2042657420536c6970000000000000000000000000008152506040518060400160405280600681526020017f484c2d4245540000000000000000000000000000000000000000000000000000815250620000c4620000b86200026a60201b60201c565b6200027260201b60201c565b8160019080519060200190620000dc9291906200035f565b508060029080519060200190620000f59291906200035f565b505050600073ffffffffffffffffffffffffffffffffffffffff168373ffffffffffffffffffffffffffffffffffffffff16141562000139576200013862000558565b5b3073ffffffffffffffffffffffffffffffffffffffff1660c08173ffffffffffffffffffffffffffffffffffffffff16815250508273ffffffffffffffffffffffffffffffffffffffff1660a08173ffffffffffffffffffffffffffffffffffffffff16815250508160ff1660808160ff16815250508073ffffffffffffffffffffffffffffffffffffffff1660e08173ffffffffffffffffffffffffffffffffffffffff1681525050600160106000620001f96200033660201b60201c565b73ffffffffffffffffffffffffffffffffffffffff1673ffffffffffffffffffffffffffffffffffffffff16815260200190815260200160002060006101000a81548160ff02191690831515021790555062278d006101008181525050610e106101208181525050505050620005ec565b600033905090565b60008060009054906101000a900473ffffffffffffffffffffffffffffffffffffffff169050816000806101000a81548173ffffffffffffffffffffffffffffffffffffffff021916908373ffffffffffffffffffffffffffffffffffffffff1602179055508173ffffffffffffffffffffffffffffffffffffffff168173ffffffffffffffffffffffffffffffffffffffff167f8be0079c531659141344cd1fd0a4f28419497f9722a3daafe3b4186f6b6457e060405160405180910390a35050565b60008060009054906101000a900473ffffffffffffffffffffffffffffffffffffffff16905090565b8280546200036d90620005b6565b90600052602060002090601f016020900481019282620003915760008555620003dd565b82601f10620003ac57805160ff1916838001178555620003dd565b82800160010185558215620003dd579182015b82811115620003dc578251825591602001919060010190620003bf565b5b509050620003ec9190620003f0565b5090565b5b808211156200040b576000816000905550600101620003f1565b5090565b600080fd5b600073ffffffffffffffffffffffffffffffffffffffff82169050919050565b6000620004418262000414565b9050919050565b6000620004558262000434565b9050919050565b620004678162000448565b81146200047357600080fd5b50565b60008151905062000487816200045c565b92915050565b600060ff82169050919050565b620004a5816200048d565b8114620004b157600080fd5b50565b600081519050620004c5816200049a565b92915050565b620004d68162000434565b8114620004e257600080fd5b50565b600081519050620004f681620004cb565b92915050565b6000806000606084860312156200051857620005176200040f565b5b6000620005288682870162000476565b93505060206200053b86828701620004b4565b92505060406200054e86828701620004e5565b9150509250925092565b7f4e487b7100000000000000000000000000000000000000000000000000000000600052600160045260246000fd5b7f4e487b7100000000000000000000000000000000000000000000000000000000600052602260045260246000fd5b60006002820490506001821680620005cf57607f821691505b60208210811415620005e657620005e562000587565b5b50919050565b60805160a05160c05160e05161010051610120516153036200067b6000396000611c150152600081816115eb0152613003015260008181610c06015281816117ef015261195d015260008181610da40152610e65015260008181610ce601528181610e440152818161150d015281816126e501528181612b140152612cc5015260006112d501526153036000f3fe608060405234801561001057600080fd5b50600436106102275760003560e01c806370a0823111610130578063a87d942c116100b8578063c96121a81161007c578063c96121a8146106a4578063e4650fac146106c2578063e985e9c5146106f2578063f2fde38b14610722578063f88979451461073e57610227565b8063a87d942c14610600578063b18b78dd1461061e578063b88d4fde1461063c578063c34b44a014610658578063c87b56dd1461067457610227565b80638ac6d217116100ff5780638ac6d2171461056e5780638da5cb5b1461058c5780638df82800146105aa57806395d89b41146105c6578063a22cb465146105e457610227565b806370a08231146104e657806370dea79a14610516578063715018a6146105345780637df73e271461053e57610227565b806325117b72116101b35780635843947911610182578063584394791461042e5780636028421f1461044c5780636352211e1461047c57806363c724f7146104ac57806365cacaa4146104c857610227565b806325117b721461039457806342842e0e146103b257806344bf5199146103ce57806346e116a6146103fe57610227565b8063129c45fc116101fa578063129c45fc146102c657806312fa3bf1146102fc57806317f3ec241461032c578063207b8b531461034857806323b872dd1461037857610227565b806301ffc9a71461022c57806306fdde031461025c578063081812fc1461027a578063095ea7b3146102aa575b600080fd5b610246600480360381019061024191906135d5565b61075c565b604051610253919061361d565b60405180910390f35b61026461083e565b60405161027191906136d1565b60405180910390f35b610294600480360381019061028f9190613729565b6108d0565b6040516102a19190613797565b60405180910390f35b6102c460048036038101906102bf91906137de565b610916565b005b6102e060048036038101906102db9190613729565b610a2e565b6040516102f39796959493929190613868565b60405180910390f35b61031660048036038101906103119190613903565b610a5b565b6040516103239190613930565b60405180910390f35b6103466004803603810190610341919061394b565b610a9e565b005b610362600480360381019061035d91906139af565b610b2c565b60405161036f9190613930565b60405180910390f35b610392600480360381019061038d9190613a65565b611271565b005b61039c6112d1565b6040516103a99190613ad4565b60405180910390f35b6103cc60048036038101906103c79190613a65565b6112f9565b005b6103e860048036038101906103e39190613903565b611319565b6040516103f59190613930565b60405180910390f35b61041860048036038101906104139190613aef565b611375565b6040516104259190613930565b60405180910390f35b61043661138d565b6040516104439190613930565b60405180910390f35b61046660048036038101906104619190613b56565b611397565b6040516104739190613930565b60405180910390f35b61049660048036038101906104919190613729565b6113af565b6040516104a39190613797565b60405180910390f35b6104c660048036038101906104c19190613bbd565b611436565b005b6104d0611509565b6040516104dd9190613797565b60405180910390f35b61050060048036038101906104fb9190613bbd565b611531565b60405161050d9190613930565b60405180910390f35b61051e6115e9565b60405161052b9190613930565b60405180910390f35b61053c61160d565b005b61055860048036038101906105539190613bbd565b611621565b604051610565919061361d565b60405180910390f35b610576611633565b6040516105839190613930565b60405180910390f35b61059461163d565b6040516105a19190613797565b60405180910390f35b6105c460048036038101906105bf9190613729565b611666565b005b6105ce6118a2565b6040516105db91906136d1565b60405180910390f35b6105fe60048036038101906105f99190613c16565b611934565b005b61060861194a565b6040516106159190613930565b60405180910390f35b610626611959565b6040516106339190613797565b60405180910390f35b61065660048036038101906106519190613d8b565b611981565b005b610672600480360381019061066d9190613bbd565b6119e3565b005b61068e60048036038101906106899190613729565b611ab6565b60405161069b91906136d1565b60405180910390f35b6106ac611adf565b6040516106b99190613930565b60405180910390f35b6106dc60048036038101906106d79190613e4e565b611ae9565b6040516106e99190613930565b60405180910390f35b61070c60048036038101906107079190613e7b565b611afb565b604051610719919061361d565b60405180910390f35b61073c60048036038101906107379190613bbd565b611b8f565b005b610746611c13565b6040516107539190613930565b60405180910390f35b60007f80ac58cd000000000000000000000000000000000000000000000000000000007bffffffffffffffffffffffffffffffffffffffffffffffffffffffff1916827bffffffffffffffffffffffffffffffffffffffffffffffffffffffff1916148061082757507f5b5e139f000000000000000000000000000000000000000000000000000000007bffffffffffffffffffffffffffffffffffffffffffffffffffffffff1916827bffffffffffffffffffffffffffffffffffffffffffffffffffffffff1916145b80610837575061083682611c37565b5b9050919050565b60606001805461084d90613eea565b80601f016020809104026020016040519081016040528092919081815260200182805461087990613eea565b80156108c65780601f1061089b576101008083540402835291602001916108c6565b820191906000526020600020905b8154815290600101906020018083116108a957829003601f168201915b5050505050905090565b60006108db82611ca1565b6005600083815260200190815260200160002060009054906101000a900473ffffffffffffffffffffffffffffffffffffffff169050919050565b6000610921826113af565b90508073ffffffffffffffffffffffffffffffffffffffff168373ffffffffffffffffffffffffffffffffffffffff161415610992576040517f08c379a000000000000000000000000000000000000000000000000000000000815260040161098990613f8e565b60405180910390fd5b8073ffffffffffffffffffffffffffffffffffffffff166109b1611cec565b73ffffffffffffffffffffffffffffffffffffffff1614806109e057506109df816109da611cec565b611afb565b5b610a1f576040517f08c379a0000000000000000000000000000000000000000000000000000000008152600401610a1690614020565b60405180910390fd5b610a298383611cf4565b505050565b6000806000806000806000610a4288611dad565b9650965096509650965096509650919395979092949650565b6000600a6000836fffffffffffffffffffffffffffffffff19166fffffffffffffffffffffffffffffffff19168152602001908152602001600020549050919050565b610aa6611f2e565b6001811015610aea576040517f08c379a0000000000000000000000000000000000000000000000000000000008152600401610ae19061408c565b60405180910390fd5b80600c6000846fffffffffffffffffffffffffffffffff19166fffffffffffffffffffffffffffffffff19168152602001908152602001600020819055505050565b60004283118015610b3c57508342115b610b7b576040517f08c379a0000000000000000000000000000000000000000000000000000000008152600401610b72906140f8565b60405180910390fd5b6000898989888888604051602001610b989695949392919061415a565b60405160208183030381529060405280519060200120905060011515610bbe8285611fac565b151514610c00576040517f08c379a0000000000000000000000000000000000000000000000000000000008152600401610bf790614216565b60405180910390fd5b600015157f000000000000000000000000000000000000000000000000000000000000000073ffffffffffffffffffffffffffffffffffffffff166306c77ce78a8c6040518363ffffffff1660e01b8152600401610c5f929190614236565b602060405180830381865afa158015610c7c573d6000803e3d6000fd5b505050506040513d601f19601f82011682018060405250810190610ca09190614274565b151514610ce2576040517f08c379a0000000000000000000000000000000000000000000000000000000008152600401610cd990614313565b60405180910390fd5b60007f000000000000000000000000000000000000000000000000000000000000000073ffffffffffffffffffffffffffffffffffffffff166338d52e0f6040518163ffffffff1660e01b8152600401602060405180830381865afa158015610d4f573d6000803e3d6000fd5b505050506040513d601f19601f82011682018060405250810190610d739190614348565b90506000610d838b8b8b8b61207b565b90508173ffffffffffffffffffffffffffffffffffffffff166323b872dd337f00000000000000000000000000000000000000000000000000000000000000008c6040518463ffffffff1660e01b8152600401610de293929190614375565b6020604051808303816000875af1158015610e01573d6000803e3d6000fd5b505050506040513d601f19601f82011682018060405250810190610e259190614274565b508173ffffffffffffffffffffffffffffffffffffffff166323b872dd7f00000000000000000000000000000000000000000000000000000000000000007f00000000000000000000000000000000000000000000000000000000000000008c85610e9091906143db565b6040518463ffffffff1660e01b8152600401610eae93929190614375565b6020604051808303816000875af1158015610ecd573d6000803e3d6000fd5b505050506040513d601f19601f82011682018060405250810190610ef19190614274565b5088600a60008c6fffffffffffffffffffffffffffffffff19166fffffffffffffffffffffffffffffffff191681526020019081526020016000206000828254610f3b919061440f565b9250508190555080600d60008d6fffffffffffffffffffffffffffffffff19166fffffffffffffffffffffffffffffffff191681526020019081526020016000206000828254610f8b919061440f565b9250508190555060086040518060e001604052808d6fffffffffffffffffffffffffffffffff191681526020018c6fffffffffffffffffffffffffffffffff191681526020018b81526020018381526020018881526020016000151581526020013373ffffffffffffffffffffffffffffffffffffffff16815250908060018154018082558091505060019003906000526020600020906005020160009091909190915060008201518160000160006101000a8154816fffffffffffffffffffffffffffffffff021916908360801c021790555060208201518160000160106101000a8154816fffffffffffffffffffffffffffffffff021916908360801c021790555060408201518160010155606082015181600201556080820151816003015560a08201518160040160006101000a81548160ff02191690831515021790555060c08201518160040160016101000a81548173ffffffffffffffffffffffffffffffffffffffff021916908373ffffffffffffffffffffffffffffffffffffffff1602179055505050600960008b6fffffffffffffffffffffffffffffffff19166fffffffffffffffffffffffffffffffff191681526020019081526020016000206111576120ba565b908060018154018082558091505060019003906000526020600020016000909190919091505561119a33600161118b6120ba565b61119591906143db565b6120c7565b88600e60008282546111ac919061440f565b9250508190555088816111bf91906143db565b600f60008282546111d0919061440f565b92505081905550600760008154809291906111ea90614465565b91905055503373ffffffffffffffffffffffffffffffffffffffff167f1d273ea6a1aea94de32fd06a09ab8046dff8e3261c5a4ecaa5e1a5705f3342ec60016112316120ba565b61123b91906143db565b8d8d8d866040516112509594939291906144ae565b60405180910390a26112606120ba565b935050505098975050505050505050565b61128261127c611cec565b826122e5565b6112c1576040517f08c379a00000000000000000000000000000000000000000000000000000000081526004016112b890614573565b60405180910390fd5b6112cc83838361237a565b505050565b60007f0000000000000000000000000000000000000000000000000000000000000000905090565b61131483838360405180602001604052806000815250611981565b505050565b600080600c6000846fffffffffffffffffffffffffffffffff19166fffffffffffffffffffffffffffffffff19168152602001908152602001600020549050600181101561136b576001915050611370565b809150505b919050565b600061138385858585612674565b9050949350505050565b6000600e54905090565b60006113a58585858561207b565b9050949350505050565b6000806113bb83612850565b9050600073ffffffffffffffffffffffffffffffffffffffff168173ffffffffffffffffffffffffffffffffffffffff16141561142d576040517f08c379a0000000000000000000000000000000000000000000000000000000008152600401611424906145df565b60405180910390fd5b80915050919050565b61143e611f2e565b600073ffffffffffffffffffffffffffffffffffffffff168173ffffffffffffffffffffffffffffffffffffffff1614156114ae576040517f08c379a00000000000000000000000000000000000000000000000000000000081526004016114a590614671565b60405180910390fd5b6001601060008373ffffffffffffffffffffffffffffffffffffffff1673ffffffffffffffffffffffffffffffffffffffff16815260200190815260200160002060006101000a81548160ff02191690831515021790555050565b60007f0000000000000000000000000000000000000000000000000000000000000000905090565b60008073ffffffffffffffffffffffffffffffffffffffff168273ffffffffffffffffffffffffffffffffffffffff1614156115a2576040517f08c379a000000000000000000000000000000000000000000000000000000000815260040161159990614703565b60405180910390fd5b600460008373ffffffffffffffffffffffffffffffffffffffff1673ffffffffffffffffffffffffffffffffffffffff168152602001908152602001600020549050919050565b7f000000000000000000000000000000000000000000000000000000000000000081565b611615611f2e565b61161f600061288d565b565b600061162c82612951565b9050919050565b6000600f54905090565b60008060009054906101000a900473ffffffffffffffffffffffffffffffffffffffff16905090565b60006008828154811061167c5761167b614723565b5b90600052602060002090600502016040518060e00160405290816000820160009054906101000a900460801b6fffffffffffffffffffffffffffffffff19166fffffffffffffffffffffffffffffffff191681526020016000820160109054906101000a900460801b6fffffffffffffffffffffffffffffffff19166fffffffffffffffffffffffffffffffff191681526020016001820154815260200160028201548152602001600382015481526020016004820160009054906101000a900460ff161515151581526020016004820160019054906101000a900473ffffffffffffffffffffffffffffffffffffffff1673ffffffffffffffffffffffffffffffffffffffff1673ffffffffffffffffffffffffffffffffffffffff16815250509050600015158160a001511515146117eb576040517f08c379a00000000000000000000000000000000000000000000000000000000081526004016117e29061479e565b60405180910390fd5b60007f000000000000000000000000000000000000000000000000000000000000000073ffffffffffffffffffffffffffffffffffffffff166306c77ce7836020015184600001516040518363ffffffff1660e01b8152600401611850929190614236565b602060405180830381865afa15801561186d573d6000803e3d6000fd5b505050506040513d601f19601f820116820180604052508101906118919190614274565b905061189d83826129a7565b505050565b6060600280546118b190613eea565b80601f01602080910402602001604051908101604052809291908181526020018280546118dd90613eea565b801561192a5780601f106118ff5761010080835404028352916020019161192a565b820191906000526020600020905b81548152906001019060200180831161190d57829003601f168201915b5050505050905090565b61194661193f611cec565b8383612e36565b5050565b60006119546120ba565b905090565b60007f0000000000000000000000000000000000000000000000000000000000000000905090565b61199261198c611cec565b836122e5565b6119d1576040517f08c379a00000000000000000000000000000000000000000000000000000000081526004016119c890614573565b60405180910390fd5b6119dd84848484612fa3565b50505050565b6119eb611f2e565b600073ffffffffffffffffffffffffffffffffffffffff168173ffffffffffffffffffffffffffffffffffffffff161415611a5b576040517f08c379a0000000000000000000000000000000000000000000000000000000008152600401611a5290614830565b60405180910390fd5b6000601060008373ffffffffffffffffffffffffffffffffffffffff1673ffffffffffffffffffffffffffffffffffffffff16815260200190815260200160002060006101000a81548160ff02191690831515021790555050565b606081604051602001611ac991906148a7565b6040516020818303038152906040529050919050565b6000600754905090565b6000611af482612fff565b9050919050565b6000600660008473ffffffffffffffffffffffffffffffffffffffff1673ffffffffffffffffffffffffffffffffffffffff16815260200190815260200160002060008373ffffffffffffffffffffffffffffffffffffffff1673ffffffffffffffffffffffffffffffffffffffff16815260200190815260200160002060009054906101000a900460ff16905092915050565b611b97611f2e565b600073ffffffffffffffffffffffffffffffffffffffff168173ffffffffffffffffffffffffffffffffffffffff161415611c07576040517f08c379a0000000000000000000000000000000000000000000000000000000008152600401611bfe9061493f565b60405180910390fd5b611c108161288d565b50565b7f000000000000000000000000000000000000000000000000000000000000000081565b60007f01ffc9a7000000000000000000000000000000000000000000000000000000007bffffffffffffffffffffffffffffffffffffffffffffffffffffffff1916827bffffffffffffffffffffffffffffffffffffffffffffffffffffffff1916149050919050565b611caa81613063565b611ce9576040517f08c379a0000000000000000000000000000000000000000000000000000000008152600401611ce0906145df565b60405180910390fd5b50565b600033905090565b816005600083815260200190815260200160002060006101000a81548173ffffffffffffffffffffffffffffffffffffffff021916908373ffffffffffffffffffffffffffffffffffffffff160217905550808273ffffffffffffffffffffffffffffffffffffffff16611d67836113af565b73ffffffffffffffffffffffffffffffffffffffff167f8c5be1e5ebec7d5bd14f71427d1e84f3dd0314c0f7b2291e5b200ac8c7c3b92560405160405180910390a45050565b60008060008060008060008060088981548110611dcd57611dcc614723565b5b90600052602060002090600502016040518060e00160405290816000820160009054906101000a900460801b6fffffffffffffffffffffffffffffffff19166fffffffffffffffffffffffffffffffff191681526020016000820160109054906101000a900460801b6fffffffffffffffffffffffffffffffff19166fffffffffffffffffffffffffffffffff191681526020016001820154815260200160028201548152602001600382015481526020016004820160009054906101000a900460ff161515151581526020016004820160019054906101000a900473ffffffffffffffffffffffffffffffffffffffff1673ffffffffffffffffffffffffffffffffffffffff1673ffffffffffffffffffffffffffffffffffffffff168152505090508060400151816060015182608001518360a001518460c0015185602001518660000151975097509750975097509750975050919395979092949650565b611f36611cec565b73ffffffffffffffffffffffffffffffffffffffff16611f5461163d565b73ffffffffffffffffffffffffffffffffffffffff1614611faa576040517f08c379a0000000000000000000000000000000000000000000000000000000008152600401611fa1906149ab565b60405180910390fd5b565b60008073839ED5A99c6ec4d1B852a2550cCF98247d27B499635cff288d85856040518363ffffffff1660e01b8152600401611fe8929190614ae2565b602060405180830381865af4158015612005573d6000803e3d6000fd5b505050506040513d601f19601f820116820180604052508101906120299190614348565b9050600073ffffffffffffffffffffffffffffffffffffffff168173ffffffffffffffffffffffffffffffffffffffff16141561206957612068614b0b565b5b61207281612951565b91505092915050565b60008061208a84848888612674565b90506120af84620f424086846120a09190614b3a565b6120aa9190614bc3565b6130a4565b915050949350505050565b6000600880549050905090565b600073ffffffffffffffffffffffffffffffffffffffff168273ffffffffffffffffffffffffffffffffffffffff161415612137576040517f08c379a000000000000000000000000000000000000000000000000000000000815260040161212e90614c40565b60405180910390fd5b61214081613063565b15612180576040517f08c379a000000000000000000000000000000000000000000000000000000000815260040161217790614cac565b60405180910390fd5b61218e6000838360016130bd565b61219781613063565b156121d7576040517f08c379a00000000000000000000000000000000000000000000000000000000081526004016121ce90614cac565b60405180910390fd5b6001600460008473ffffffffffffffffffffffffffffffffffffffff1673ffffffffffffffffffffffffffffffffffffffff16815260200190815260200160002060008282540192505081905550816003600083815260200190815260200160002060006101000a81548173ffffffffffffffffffffffffffffffffffffffff021916908373ffffffffffffffffffffffffffffffffffffffff160217905550808273ffffffffffffffffffffffffffffffffffffffff16600073ffffffffffffffffffffffffffffffffffffffff167fddf252ad1be2c89b69c2b068fc378daa952ba7f163c4a11628f55a4df523b3ef60405160405180910390a46122e16000838360016131e3565b5050565b6000806122f1836113af565b90508073ffffffffffffffffffffffffffffffffffffffff168473ffffffffffffffffffffffffffffffffffffffff16148061233357506123328185611afb565b5b8061237157508373ffffffffffffffffffffffffffffffffffffffff16612359846108d0565b73ffffffffffffffffffffffffffffffffffffffff16145b91505092915050565b8273ffffffffffffffffffffffffffffffffffffffff1661239a826113af565b73ffffffffffffffffffffffffffffffffffffffff16146123f0576040517f08c379a00000000000000000000000000000000000000000000000000000000081526004016123e790614d3e565b60405180910390fd5b600073ffffffffffffffffffffffffffffffffffffffff168273ffffffffffffffffffffffffffffffffffffffff161415612460576040517f08c379a000000000000000000000000000000000000000000000000000000000815260040161245790614dd0565b60405180910390fd5b61246d83838360016130bd565b8273ffffffffffffffffffffffffffffffffffffffff1661248d826113af565b73ffffffffffffffffffffffffffffffffffffffff16146124e3576040517f08c379a00000000000000000000000000000000000000000000000000000000081526004016124da90614d3e565b60405180910390fd5b6005600082815260200190815260200160002060006101000a81549073ffffffffffffffffffffffffffffffffffffffff02191690556001600460008573ffffffffffffffffffffffffffffffffffffffff1673ffffffffffffffffffffffffffffffffffffffff168152602001908152602001600020600082825403925050819055506001600460008473ffffffffffffffffffffffffffffffffffffffff1673ffffffffffffffffffffffffffffffffffffffff16815260200190815260200160002060008282540192505081905550816003600083815260200190815260200160002060006101000a81548173ffffffffffffffffffffffffffffffffffffffff021916908373ffffffffffffffffffffffffffffffffffffffff160217905550808273ffffffffffffffffffffffffffffffffffffffff168473ffffffffffffffffffffffffffffffffffffffff167fddf252ad1be2c89b69c2b068fc378daa952ba7f163c4a11628f55a4df523b3ef60405160405180910390a461266f83838360016131e3565b505050565b600080600c6000846fffffffffffffffffffffffffffffffff19166fffffffffffffffffffffffffffffffff1916815260200190815260200160002054905060018110156126c157600190505b6001861115806126d2575060018511155b156126e1576001915050612848565b60007f000000000000000000000000000000000000000000000000000000000000000073ffffffffffffffffffffffffffffffffffffffff1663b15031fa6040518163ffffffff1660e01b8152600401602060405180830381865afa15801561274e573d6000803e3d6000fd5b505050506040513d601f19601f820116820180604052508101906127729190614e05565b9050600081141561278857600192505050612848565b80600d6000876fffffffffffffffffffffffffffffffff19166fffffffffffffffffffffffffffffffff191681526020019081526020016000205411156127d457600192505050612848565b600d6000866fffffffffffffffffffffffffffffffff19166fffffffffffffffffffffffffffffffff19168152602001908152602001600020548161281991906143db565b905060006128288888846131e9565b90506002836128379190614f65565b816128429190614bc3565b93505050505b949350505050565b60006003600083815260200190815260200160002060009054906101000a900473ffffffffffffffffffffffffffffffffffffffff169050919050565b60008060009054906101000a900473ffffffffffffffffffffffffffffffffffffffff169050816000806101000a81548173ffffffffffffffffffffffffffffffffffffffff021916908373ffffffffffffffffffffffffffffffffffffffff1602179055508173ffffffffffffffffffffffffffffffffffffffff168173ffffffffffffffffffffffffffffffffffffffff167f8be0079c531659141344cd1fd0a4f28419497f9722a3daafe3b4186f6b6457e060405160405180910390a35050565b6000601060008373ffffffffffffffffffffffffffffffffffffffff1673ffffffffffffffffffffffffffffffffffffffff16815260200190815260200160002060009054906101000a900460ff169050919050565b42600883815481106129bc576129bb614723565b5b90600052602060002090600502016003015410612a0e576040517f08c379a0000000000000000000000000000000000000000000000000000000008152600401612a0590614ffc565b60405180910390fd5b600160088381548110612a2457612a23614723565b5b906000526020600020906005020160040160006101000a81548160ff02191690831515021790555060088281548110612a6057612a5f614723565b5b906000526020600020906005020160010154600e6000828254612a8391906143db565b9250508190555060088281548110612a9e57612a9d614723565b5b90600052602060002090600502016001015460088381548110612ac457612ac3614723565b5b906000526020600020906005020160020154612ae091906143db565b600f6000828254612af191906143db565b9250508190555060076000815480929190612b0b9061501c565b919050555060007f000000000000000000000000000000000000000000000000000000000000000073ffffffffffffffffffffffffffffffffffffffff166338d52e0f6040518163ffffffff1660e01b8152600401602060405180830381865afa158015612b7d573d6000803e3d6000fd5b505050506040513d601f19601f82011682018060405250810190612ba19190614348565b9050600115158215151415612c9a578073ffffffffffffffffffffffffffffffffffffffff1663a9059cbb60088581548110612be057612bdf614723565b5b906000526020600020906005020160040160019054906101000a900473ffffffffffffffffffffffffffffffffffffffff1660088681548110612c2657612c25614723565b5b9060005260206000209060050201600201546040518363ffffffff1660e01b8152600401612c55929190615046565b6020604051808303816000875af1158015612c74573d6000803e3d6000fd5b505050506040513d601f19601f82011682018060405250810190612c989190614274565b505b600015158215151415612d6c578073ffffffffffffffffffffffffffffffffffffffff1663a9059cbb7f000000000000000000000000000000000000000000000000000000000000000060088681548110612cf857612cf7614723565b5b9060005260206000209060050201600201546040518363ffffffff1660e01b8152600401612d27929190615046565b6020604051808303816000875af1158015612d46573d6000803e3d6000fd5b505050506040513d601f19601f82011682018060405250810190612d6a9190614274565b505b612d7583613270565b60088381548110612d8957612d88614723565b5b906000526020600020906005020160040160019054906101000a900473ffffffffffffffffffffffffffffffffffffffff1673ffffffffffffffffffffffffffffffffffffffff167f08a2a3d90b4a86017a5adf7503073c6b2b44051c48e9844a336190c9793c4af98460088681548110612e0757612e06614723565b5b90600052602060002090600502016002015485604051612e299392919061506f565b60405180910390a2505050565b8173ffffffffffffffffffffffffffffffffffffffff168373ffffffffffffffffffffffffffffffffffffffff161415612ea5576040517f08c379a0000000000000000000000000000000000000000000000000000000008152600401612e9c906150f2565b60405180910390fd5b80600660008573ffffffffffffffffffffffffffffffffffffffff1673ffffffffffffffffffffffffffffffffffffffff16815260200190815260200160002060008473ffffffffffffffffffffffffffffffffffffffff1673ffffffffffffffffffffffffffffffffffffffff16815260200190815260200160002060006101000a81548160ff0219169083151502179055508173ffffffffffffffffffffffffffffffffffffffff168373ffffffffffffffffffffffffffffffffffffffff167f17307eab39ab6107e8899845ad3d59bd9653f200f220920489ca2b5937696c3183604051612f96919061361d565b60405180910390a3505050565b612fae84848461237a565b612fba848484846133be565b612ff9576040517f08c379a0000000000000000000000000000000000000000000000000000000008152600401612ff090615184565b60405180910390fd5b50505050565b60007f000000000000000000000000000000000000000000000000000000000000000060088367ffffffffffffffff16815481106130405761303f614723565b5b90600052602060002090600502016003015461305c919061440f565b9050919050565b60008073ffffffffffffffffffffffffffffffffffffffff1661308583612850565b73ffffffffffffffffffffffffffffffffffffffff1614159050919050565b60008183116130b357816130b5565b825b905092915050565b60018111156131dd57600073ffffffffffffffffffffffffffffffffffffffff168473ffffffffffffffffffffffffffffffffffffffff16146131515780600460008673ffffffffffffffffffffffffffffffffffffffff1673ffffffffffffffffffffffffffffffffffffffff168152602001908152602001600020600082825461314991906143db565b925050819055505b600073ffffffffffffffffffffffffffffffffffffffff168373ffffffffffffffffffffffffffffffffffffffff16146131dc5780600460008573ffffffffffffffffffffffffffffffffffffffff1673ffffffffffffffffffffffffffffffffffffffff16815260200190815260200160002060008282546131d4919061440f565b925050819055505b5b50505050565b50505050565b600073D26Ad878453b682E49E8a8b1E9dbe700E40Fc45963a19dec438585856040518463ffffffff1660e01b8152600401613226939291906151b3565b602060405180830381865af4158015613243573d6000803e3d6000fd5b505050506040513d601f19601f820116820180604052508101906132679190614e05565b90509392505050565b600061327b826113af565b905061328b8160008460016130bd565b613294826113af565b90506005600083815260200190815260200160002060006101000a81549073ffffffffffffffffffffffffffffffffffffffff02191690556001600460008373ffffffffffffffffffffffffffffffffffffffff1673ffffffffffffffffffffffffffffffffffffffff168152602001908152602001600020600082825403925050819055506003600083815260200190815260200160002060006101000a81549073ffffffffffffffffffffffffffffffffffffffff021916905581600073ffffffffffffffffffffffffffffffffffffffff168273ffffffffffffffffffffffffffffffffffffffff167fddf252ad1be2c89b69c2b068fc378daa952ba7f163c4a11628f55a4df523b3ef60405160405180910390a46133ba8160008460016131e3565b5050565b60006133df8473ffffffffffffffffffffffffffffffffffffffff16613546565b15613539578373ffffffffffffffffffffffffffffffffffffffff1663150b7a02613408611cec565b8786866040518563ffffffff1660e01b815260040161342a949392919061523f565b6020604051808303816000875af192505050801561346657506040513d601f19601f8201168201806040525081019061346391906152a0565b60015b6134e9573d8060008114613496576040519150601f19603f3d011682016040523d82523d6000602084013e61349b565b606091505b506000815114156134e1576040517f08c379a00000000000000000000000000000000000000000000000000000000081526004016134d890615184565b60405180910390fd5b805181602001fd5b63150b7a0260e01b7bffffffffffffffffffffffffffffffffffffffffffffffffffffffff1916817bffffffffffffffffffffffffffffffffffffffffffffffffffffffff19161491505061353e565b600190505b949350505050565b6000808273ffffffffffffffffffffffffffffffffffffffff163b119050919050565b6000604051905090565b600080fd5b600080fd5b60007fffffffff0000000000000000000000000000000000000000000000000000000082169050919050565b6135b28161357d565b81146135bd57600080fd5b50565b6000813590506135cf816135a9565b92915050565b6000602082840312156135eb576135ea613573565b5b60006135f9848285016135c0565b91505092915050565b60008115159050919050565b61361781613602565b82525050565b6000602082019050613632600083018461360e565b92915050565b600081519050919050565b600082825260208201905092915050565b60005b83811015613672578082015181840152602081019050613657565b83811115613681576000848401525b50505050565b6000601f19601f8301169050919050565b60006136a382613638565b6136ad8185613643565b93506136bd818560208601613654565b6136c681613687565b840191505092915050565b600060208201905081810360008301526136eb8184613698565b905092915050565b6000819050919050565b613706816136f3565b811461371157600080fd5b50565b600081359050613723816136fd565b92915050565b60006020828403121561373f5761373e613573565b5b600061374d84828501613714565b91505092915050565b600073ffffffffffffffffffffffffffffffffffffffff82169050919050565b600061378182613756565b9050919050565b61379181613776565b82525050565b60006020820190506137ac6000830184613788565b92915050565b6137bb81613776565b81146137c657600080fd5b50565b6000813590506137d8816137b2565b92915050565b600080604083850312156137f5576137f4613573565b5b6000613803858286016137c9565b925050602061381485828601613714565b9150509250929050565b613827816136f3565b82525050565b60007fffffffffffffffffffffffffffffffff0000000000000000000000000000000082169050919050565b6138628161382d565b82525050565b600060e08201905061387d600083018a61381e565b61388a602083018961381e565b613897604083018861381e565b6138a4606083018761360e565b6138b16080830186613788565b6138be60a0830185613859565b6138cb60c0830184613859565b98975050505050505050565b6138e08161382d565b81146138eb57600080fd5b50565b6000813590506138fd816138d7565b92915050565b60006020828403121561391957613918613573565b5b6000613927848285016138ee565b91505092915050565b6000602082019050613945600083018461381e565b92915050565b6000806040838503121561396257613961613573565b5b6000613970858286016138ee565b925050602061398185828601613714565b9150509250929050565b600080fd5b6000606082840312156139a6576139a561398b565b5b81905092915050565b600080600080600080600080610140898b0312156139d0576139cf613573565b5b60006139de8b828c016138ee565b98505060206139ef8b828c016138ee565b9750506040613a008b828c016138ee565b9650506060613a118b828c01613714565b9550506080613a228b828c01613714565b94505060a0613a338b828c01613714565b93505060c0613a448b828c01613714565b92505060e0613a558b828c01613990565b9150509295985092959890939650565b600080600060608486031215613a7e57613a7d613573565b5b6000613a8c868287016137c9565b9350506020613a9d868287016137c9565b9250506040613aae86828701613714565b9150509250925092565b600060ff82169050919050565b613ace81613ab8565b82525050565b6000602082019050613ae96000830184613ac5565b92915050565b60008060008060808587031215613b0957613b08613573565b5b6000613b1787828801613714565b9450506020613b2887828801613714565b9350506040613b39878288016138ee565b9250506060613b4a878288016138ee565b91505092959194509250565b60008060008060808587031215613b7057613b6f613573565b5b6000613b7e878288016138ee565b9450506020613b8f878288016138ee565b9350506040613ba087828801613714565b9250506060613bb187828801613714565b91505092959194509250565b600060208284031215613bd357613bd2613573565b5b6000613be1848285016137c9565b91505092915050565b613bf381613602565b8114613bfe57600080fd5b50565b600081359050613c1081613bea565b92915050565b60008060408385031215613c2d57613c2c613573565b5b6000613c3b858286016137c9565b9250506020613c4c85828601613c01565b9150509250929050565b600080fd5b600080fd5b7f4e487b7100000000000000000000000000000000000000000000000000000000600052604160045260246000fd5b613c9882613687565b810181811067ffffffffffffffff82111715613cb757613cb6613c60565b5b80604052505050565b6000613cca613569565b9050613cd68282613c8f565b919050565b600067ffffffffffffffff821115613cf657613cf5613c60565b5b613cff82613687565b9050602081019050919050565b82818337600083830152505050565b6000613d2e613d2984613cdb565b613cc0565b905082815260208101848484011115613d4a57613d49613c5b565b5b613d55848285613d0c565b509392505050565b600082601f830112613d7257613d71613c56565b5b8135613d82848260208601613d1b565b91505092915050565b60008060008060808587031215613da557613da4613573565b5b6000613db3878288016137c9565b9450506020613dc4878288016137c9565b9350506040613dd587828801613714565b925050606085013567ffffffffffffffff811115613df657613df5613578565b5b613e0287828801613d5d565b91505092959194509250565b600067ffffffffffffffff82169050919050565b613e2b81613e0e565b8114613e3657600080fd5b50565b600081359050613e4881613e22565b92915050565b600060208284031215613e6457613e63613573565b5b6000613e7284828501613e39565b91505092915050565b60008060408385031215613e9257613e91613573565b5b6000613ea0858286016137c9565b9250506020613eb1858286016137c9565b9150509250929050565b7f4e487b7100000000000000000000000000000000000000000000000000000000600052602260045260246000fd5b60006002820490506001821680613f0257607f821691505b60208210811415613f1657613f15613ebb565b5b50919050565b7f4552433732313a20617070726f76616c20746f2063757272656e74206f776e6560008201527f7200000000000000000000000000000000000000000000000000000000000000602082015250565b6000613f78602183613643565b9150613f8382613f1c565b604082019050919050565b60006020820190508181036000830152613fa781613f6b565b9050919050565b7f4552433732313a20617070726f76652063616c6c6572206973206e6f7420746f60008201527f6b656e206f776e6572206f7220617070726f76656420666f7220616c6c000000602082015250565b600061400a603d83613643565b915061401582613fae565b604082019050919050565b6000602082019050818103600083015261403981613ffd565b9050919050565b7f7269736b206d757374206265206774206f7220657120746f2031000000000000600082015250565b6000614076601a83613643565b915061408182614040565b602082019050919050565b600060208201905081810360008301526140a581614069565b9050919050565b7f6261636b3a20496e76616c696420646174650000000000000000000000000000600082015250565b60006140e2601283613643565b91506140ed826140ac565b602082019050919050565b60006020820190508181036000830152614111816140d5565b9050919050565b6000819050919050565b61413361412e8261382d565b614118565b82525050565b6000819050919050565b61415461414f826136f3565b614139565b82525050565b60006141668289614122565b6010820191506141768288614122565b6010820191506141868287614122565b6010820191506141968286614143565b6020820191506141a68285614143565b6020820191506141b68284614143565b602082019150819050979650505050505050565b7f6261636b3a20496e76616c6964207369676e6174757265000000000000000000600082015250565b6000614200601783613643565b915061420b826141ca565b602082019050919050565b6000602082019050818103600083015261422f816141f3565b9050919050565b600060408201905061424b6000830185613859565b6142586020830184613859565b9392505050565b60008151905061426e81613bea565b92915050565b60006020828403121561428a57614289613573565b5b60006142988482850161425f565b91505092915050565b7f6261636b3a204f7261636c6520726573756c7420616c7265616479207365742060008201527f666f722074686973206d61726b65740000000000000000000000000000000000602082015250565b60006142fd602f83613643565b9150614308826142a1565b604082019050919050565b6000602082019050818103600083015261432c816142f0565b9050919050565b600081519050614342816137b2565b92915050565b60006020828403121561435e5761435d613573565b5b600061436c84828501614333565b91505092915050565b600060608201905061438a6000830186613788565b6143976020830185613788565b6143a4604083018461381e565b949350505050565b7f4e487b7100000000000000000000000000000000000000000000000000000000600052601160045260246000fd5b60006143e6826136f3565b91506143f1836136f3565b925082821015614404576144036143ac565b5b828203905092915050565b600061441a826136f3565b9150614425836136f3565b9250827fffffffffffffffffffffffffffffffffffffffffffffffffffffffffffffffff0382111561445a576144596143ac565b5b828201905092915050565b6000614470826136f3565b91507fffffffffffffffffffffffffffffffffffffffffffffffffffffffffffffffff8214156144a3576144a26143ac565b5b600182019050919050565b600060a0820190506144c3600083018861381e565b6144d06020830187613859565b6144dd6040830186613859565b6144ea606083018561381e565b6144f7608083018461381e565b9695505050505050565b7f4552433732313a2063616c6c6572206973206e6f7420746f6b656e206f776e6560008201527f72206f7220617070726f76656400000000000000000000000000000000000000602082015250565b600061455d602d83613643565b915061456882614501565b604082019050919050565b6000602082019050818103600083015261458c81614550565b9050919050565b7f4552433732313a20696e76616c696420746f6b656e2049440000000000000000600082015250565b60006145c9601883613643565b91506145d482614593565b602082019050919050565b600060208201905081810360008301526145f8816145bc565b9050919050565b7f6772616e745369676e65723a20496e76616c6964207369676e6572206164647260008201527f6573730000000000000000000000000000000000000000000000000000000000602082015250565b600061465b602383613643565b9150614666826145ff565b604082019050919050565b6000602082019050818103600083015261468a8161464e565b9050919050565b7f4552433732313a2061646472657373207a65726f206973206e6f74206120766160008201527f6c6964206f776e65720000000000000000000000000000000000000000000000602082015250565b60006146ed602983613643565b91506146f882614691565b604082019050919050565b6000602082019050818103600083015261471c816146e0565b9050919050565b7f4e487b7100000000000000000000000000000000000000000000000000000000600052603260045260246000fd5b7f736574746c653a204265742068617320616c726561647920736574746c656400600082015250565b6000614788601f83613643565b915061479382614752565b602082019050919050565b600060208201905081810360008301526147b78161477b565b9050919050565b7f7265766f6b655369676e65723a20496e76616c6964207369676e65722061646460008201527f7265737300000000000000000000000000000000000000000000000000000000602082015250565b600061481a602483613643565b9150614825826147be565b604082019050919050565b600060208201905081810360008301526148498161480d565b9050919050565b600081905092915050565b7f68747470733a2f2f6170692e686f7273652e6c696e6b2f6265742f0000000000600082015250565b6000614891601b83614850565b915061489c8261485b565b601b82019050919050565b60006148b282614884565b91506148be8284614143565b60208201915081905092915050565b7f4f776e61626c653a206e6577206f776e657220697320746865207a65726f206160008201527f6464726573730000000000000000000000000000000000000000000000000000602082015250565b6000614929602683613643565b9150614934826148cd565b604082019050919050565b600060208201905081810360008301526149588161491c565b9050919050565b7f4f776e61626c653a2063616c6c6572206973206e6f7420746865206f776e6572600082015250565b6000614995602083613643565b91506149a08261495f565b602082019050919050565b600060208201905081810360008301526149c481614988565b9050919050565b6000819050919050565b6149de816149cb565b82525050565b6149ed81613ab8565b81146149f857600080fd5b50565b600081359050614a0a816149e4565b92915050565b6000614a1f60208401846149fb565b905092915050565b614a3081613ab8565b82525050565b614a3f816149cb565b8114614a4a57600080fd5b50565b600081359050614a5c81614a36565b92915050565b6000614a716020840184614a4d565b905092915050565b614a82816149cb565b82525050565b60608201614a996000830183614a10565b614aa66000850182614a27565b50614ab46020830183614a62565b614ac16020850182614a79565b50614acf6040830183614a62565b614adc6040850182614a79565b50505050565b6000608082019050614af760008301856149d5565b614b046020830184614a88565b9392505050565b7f4e487b7100000000000000000000000000000000000000000000000000000000600052600160045260246000fd5b6000614b45826136f3565b9150614b50836136f3565b9250817fffffffffffffffffffffffffffffffffffffffffffffffffffffffffffffffff0483118215151615614b8957614b886143ac565b5b828202905092915050565b7f4e487b7100000000000000000000000000000000000000000000000000000000600052601260045260246000fd5b6000614bce826136f3565b9150614bd9836136f3565b925082614be957614be8614b94565b5b828204905092915050565b7f4552433732313a206d696e7420746f20746865207a65726f2061646472657373600082015250565b6000614c2a602083613643565b9150614c3582614bf4565b602082019050919050565b60006020820190508181036000830152614c5981614c1d565b9050919050565b7f4552433732313a20746f6b656e20616c7265616479206d696e74656400000000600082015250565b6000614c96601c83613643565b9150614ca182614c60565b602082019050919050565b60006020820190508181036000830152614cc581614c89565b9050919050565b7f4552433732313a207472616e736665722066726f6d20696e636f72726563742060008201527f6f776e6572000000000000000000000000000000000000000000000000000000602082015250565b6000614d28602583613643565b9150614d3382614ccc565b604082019050919050565b60006020820190508181036000830152614d5781614d1b565b9050919050565b7f4552433732313a207472616e7366657220746f20746865207a65726f2061646460008201527f7265737300000000000000000000000000000000000000000000000000000000602082015250565b6000614dba602483613643565b9150614dc582614d5e565b604082019050919050565b60006020820190508181036000830152614de981614dad565b9050919050565b600081519050614dff816136fd565b92915050565b600060208284031215614e1b57614e1a613573565b5b6000614e2984828501614df0565b91505092915050565b60008160011c9050919050565b6000808291508390505b6001851115614e8957808604811115614e6557614e646143ac565b5b6001851615614e745780820291505b8081029050614e8285614e32565b9450614e49565b94509492505050565b600082614ea25760019050614f5e565b81614eb05760009050614f5e565b8160018114614ec65760028114614ed057614eff565b6001915050614f5e565b60ff841115614ee257614ee16143ac565b5b8360020a915084821115614ef957614ef86143ac565b5b50614f5e565b5060208310610133831016604e8410600b8410161715614f345782820a905083811115614f2f57614f2e6143ac565b5b614f5e565b614f418484846001614e3f565b92509050818404811115614f5857614f576143ac565b5b81810290505b9392505050565b6000614f70826136f3565b9150614f7b83613ab8565b9250614fa87fffffffffffffffffffffffffffffffffffffffffffffffffffffffffffffffff8484614e92565b905092915050565b7f5f736574746c653a205061796f75742064617465206e6f742072656163686564600082015250565b6000614fe6602083613643565b9150614ff182614fb0565b602082019050919050565b6000602082019050818103600083015261501581614fd9565b9050919050565b6000615027826136f3565b9150600082141561503b5761503a6143ac565b5b600182039050919050565b600060408201905061505b6000830185613788565b615068602083018461381e565b9392505050565b6000606082019050615084600083018661381e565b615091602083018561381e565b61509e604083018461360e565b949350505050565b7f4552433732313a20617070726f766520746f2063616c6c657200000000000000600082015250565b60006150dc601983613643565b91506150e7826150a6565b602082019050919050565b6000602082019050818103600083015261510b816150cf565b9050919050565b7f4552433732313a207472616e7366657220746f206e6f6e20455243373231526560008201527f63656976657220696d706c656d656e7465720000000000000000000000000000602082015250565b600061516e603283613643565b915061517982615112565b604082019050919050565b6000602082019050818103600083015261519d81615161565b9050919050565b6151ad816136f3565b82525050565b60006060820190506151c860008301866151a4565b6151d560208301856151a4565b6151e260408301846151a4565b949350505050565b600081519050919050565b600082825260208201905092915050565b6000615211826151ea565b61521b81856151f5565b935061522b818560208601613654565b61523481613687565b840191505092915050565b60006080820190506152546000830187613788565b6152616020830186613788565b61526e604083018561381e565b81810360608301526152808184615206565b905095945050505050565b60008151905061529a816135a9565b92915050565b6000602082840312156152b6576152b5613573565b5b60006152c48482850161528b565b9150509291505056fea26469706673582212203762f11f2472b81f3c6ee99be12339cb13f6e50d0b6a8d38b5d50c68ee285f2a64736f6c634300080a0033",
  "deployedBytecode": "0x608060405234801561001057600080fd5b50600436106102275760003560e01c806370a0823111610130578063a87d942c116100b8578063c96121a81161007c578063c96121a8146106a4578063e4650fac146106c2578063e985e9c5146106f2578063f2fde38b14610722578063f88979451461073e57610227565b8063a87d942c14610600578063b18b78dd1461061e578063b88d4fde1461063c578063c34b44a014610658578063c87b56dd1461067457610227565b80638ac6d217116100ff5780638ac6d2171461056e5780638da5cb5b1461058c5780638df82800146105aa57806395d89b41146105c6578063a22cb465146105e457610227565b806370a08231146104e657806370dea79a14610516578063715018a6146105345780637df73e271461053e57610227565b806325117b72116101b35780635843947911610182578063584394791461042e5780636028421f1461044c5780636352211e1461047c57806363c724f7146104ac57806365cacaa4146104c857610227565b806325117b721461039457806342842e0e146103b257806344bf5199146103ce57806346e116a6146103fe57610227565b8063129c45fc116101fa578063129c45fc146102c657806312fa3bf1146102fc57806317f3ec241461032c578063207b8b531461034857806323b872dd1461037857610227565b806301ffc9a71461022c57806306fdde031461025c578063081812fc1461027a578063095ea7b3146102aa575b600080fd5b610246600480360381019061024191906135d5565b61075c565b604051610253919061361d565b60405180910390f35b61026461083e565b60405161027191906136d1565b60405180910390f35b610294600480360381019061028f9190613729565b6108d0565b6040516102a19190613797565b60405180910390f35b6102c460048036038101906102bf91906137de565b610916565b005b6102e060048036038101906102db9190613729565b610a2e565b6040516102f39796959493929190613868565b60405180910390f35b61031660048036038101906103119190613903565b610a5b565b6040516103239190613930565b60405180910390f35b6103466004803603810190610341919061394b565b610a9e565b005b610362600480360381019061035d91906139af565b610b2c565b60405161036f9190613930565b60405180910390f35b610392600480360381019061038d9190613a65565b611271565b005b61039c6112d1565b6040516103a99190613ad4565b60405180910390f35b6103cc60048036038101906103c79190613a65565b6112f9565b005b6103e860048036038101906103e39190613903565b611319565b6040516103f59190613930565b60405180910390f35b61041860048036038101906104139190613aef565b611375565b6040516104259190613930565b60405180910390f35b61043661138d565b6040516104439190613930565b60405180910390f35b61046660048036038101906104619190613b56565b611397565b6040516104739190613930565b60405180910390f35b61049660048036038101906104919190613729565b6113af565b6040516104a39190613797565b60405180910390f35b6104c660048036038101906104c19190613bbd565b611436565b005b6104d0611509565b6040516104dd9190613797565b60405180910390f35b61050060048036038101906104fb9190613bbd565b611531565b60405161050d9190613930565b60405180910390f35b61051e6115e9565b60405161052b9190613930565b60405180910390f35b61053c61160d565b005b61055860048036038101906105539190613bbd565b611621565b604051610565919061361d565b60405180910390f35b610576611633565b6040516105839190613930565b60405180910390f35b61059461163d565b6040516105a19190613797565b60405180910390f35b6105c460048036038101906105bf9190613729565b611666565b005b6105ce6118a2565b6040516105db91906136d1565b60405180910390f35b6105fe60048036038101906105f99190613c16565b611934565b005b61060861194a565b6040516106159190613930565b60405180910390f35b610626611959565b6040516106339190613797565b60405180910390f35b61065660048036038101906106519190613d8b565b611981565b005b610672600480360381019061066d9190613bbd565b6119e3565b005b61068e60048036038101906106899190613729565b611ab6565b60405161069b91906136d1565b60405180910390f35b6106ac611adf565b6040516106b99190613930565b60405180910390f35b6106dc60048036038101906106d79190613e4e565b611ae9565b6040516106e99190613930565b60405180910390f35b61070c60048036038101906107079190613e7b565b611afb565b604051610719919061361d565b60405180910390f35b61073c60048036038101906107379190613bbd565b611b8f565b005b610746611c13565b6040516107539190613930565b60405180910390f35b60007f80ac58cd000000000000000000000000000000000000000000000000000000007bffffffffffffffffffffffffffffffffffffffffffffffffffffffff1916827bffffffffffffffffffffffffffffffffffffffffffffffffffffffff1916148061082757507f5b5e139f000000000000000000000000000000000000000000000000000000007bffffffffffffffffffffffffffffffffffffffffffffffffffffffff1916827bffffffffffffffffffffffffffffffffffffffffffffffffffffffff1916145b80610837575061083682611c37565b5b9050919050565b60606001805461084d90613eea565b80601f016020809104026020016040519081016040528092919081815260200182805461087990613eea565b80156108c65780601f1061089b576101008083540402835291602001916108c6565b820191906000526020600020905b8154815290600101906020018083116108a957829003601f168201915b5050505050905090565b60006108db82611ca1565b6005600083815260200190815260200160002060009054906101000a900473ffffffffffffffffffffffffffffffffffffffff169050919050565b6000610921826113af565b90508073ffffffffffffffffffffffffffffffffffffffff168373ffffffffffffffffffffffffffffffffffffffff161415610992576040517f08c379a000000000000000000000000000000000000000000000000000000000815260040161098990613f8e565b60405180910390fd5b8073ffffffffffffffffffffffffffffffffffffffff166109b1611cec565b73ffffffffffffffffffffffffffffffffffffffff1614806109e057506109df816109da611cec565b611afb565b5b610a1f576040517f08c379a0000000000000000000000000000000000000000000000000000000008152600401610a1690614020565b60405180910390fd5b610a298383611cf4565b505050565b6000806000806000806000610a4288611dad565b9650965096509650965096509650919395979092949650565b6000600a6000836fffffffffffffffffffffffffffffffff19166fffffffffffffffffffffffffffffffff19168152602001908152602001600020549050919050565b610aa6611f2e565b6001811015610aea576040517f08c379a0000000000000000000000000000000000000000000000000000000008152600401610ae19061408c565b60405180910390fd5b80600c6000846fffffffffffffffffffffffffffffffff19166fffffffffffffffffffffffffffffffff19168152602001908152602001600020819055505050565b60004283118015610b3c57508342115b610b7b576040517f08c379a0000000000000000000000000000000000000000000000000000000008152600401610b72906140f8565b60405180910390fd5b6000898989888888604051602001610b989695949392919061415a565b60405160208183030381529060405280519060200120905060011515610bbe8285611fac565b151514610c00576040517f08c379a0000000000000000000000000000000000000000000000000000000008152600401610bf790614216565b60405180910390fd5b600015157f000000000000000000000000000000000000000000000000000000000000000073ffffffffffffffffffffffffffffffffffffffff166306c77ce78a8c6040518363ffffffff1660e01b8152600401610c5f929190614236565b602060405180830381865afa158015610c7c573d6000803e3d6000fd5b505050506040513d601f19601f82011682018060405250810190610ca09190614274565b151514610ce2576040517f08c379a0000000000000000000000000000000000000000000000000000000008152600401610cd990614313565b60405180910390fd5b60007f000000000000000000000000000000000000000000000000000000000000000073ffffffffffffffffffffffffffffffffffffffff166338d52e0f6040518163ffffffff1660e01b8152600401602060405180830381865afa158015610d4f573d6000803e3d6000fd5b505050506040513d601f19601f82011682018060405250810190610d739190614348565b90506000610d838b8b8b8b61207b565b90508173ffffffffffffffffffffffffffffffffffffffff166323b872dd337f00000000000000000000000000000000000000000000000000000000000000008c6040518463ffffffff1660e01b8152600401610de293929190614375565b6020604051808303816000875af1158015610e01573d6000803e3d6000fd5b505050506040513d601f19601f82011682018060405250810190610e259190614274565b508173ffffffffffffffffffffffffffffffffffffffff166323b872dd7f00000000000000000000000000000000000000000000000000000000000000007f00000000000000000000000000000000000000000000000000000000000000008c85610e9091906143db565b6040518463ffffffff1660e01b8152600401610eae93929190614375565b6020604051808303816000875af1158015610ecd573d6000803e3d6000fd5b505050506040513d601f19601f82011682018060405250810190610ef19190614274565b5088600a60008c6fffffffffffffffffffffffffffffffff19166fffffffffffffffffffffffffffffffff191681526020019081526020016000206000828254610f3b919061440f565b9250508190555080600d60008d6fffffffffffffffffffffffffffffffff19166fffffffffffffffffffffffffffffffff191681526020019081526020016000206000828254610f8b919061440f565b9250508190555060086040518060e001604052808d6fffffffffffffffffffffffffffffffff191681526020018c6fffffffffffffffffffffffffffffffff191681526020018b81526020018381526020018881526020016000151581526020013373ffffffffffffffffffffffffffffffffffffffff16815250908060018154018082558091505060019003906000526020600020906005020160009091909190915060008201518160000160006101000a8154816fffffffffffffffffffffffffffffffff021916908360801c021790555060208201518160000160106101000a8154816fffffffffffffffffffffffffffffffff021916908360801c021790555060408201518160010155606082015181600201556080820151816003015560a08201518160040160006101000a81548160ff02191690831515021790555060c08201518160040160016101000a81548173ffffffffffffffffffffffffffffffffffffffff021916908373ffffffffffffffffffffffffffffffffffffffff1602179055505050600960008b6fffffffffffffffffffffffffffffffff19166fffffffffffffffffffffffffffffffff191681526020019081526020016000206111576120ba565b908060018154018082558091505060019003906000526020600020016000909190919091505561119a33600161118b6120ba565b61119591906143db565b6120c7565b88600e60008282546111ac919061440f565b9250508190555088816111bf91906143db565b600f60008282546111d0919061440f565b92505081905550600760008154809291906111ea90614465565b91905055503373ffffffffffffffffffffffffffffffffffffffff167f1d273ea6a1aea94de32fd06a09ab8046dff8e3261c5a4ecaa5e1a5705f3342ec60016112316120ba565b61123b91906143db565b8d8d8d866040516112509594939291906144ae565b60405180910390a26112606120ba565b935050505098975050505050505050565b61128261127c611cec565b826122e5565b6112c1576040517f08c379a00000000000000000000000000000000000000000000000000000000081526004016112b890614573565b60405180910390fd5b6112cc83838361237a565b505050565b60007f0000000000000000000000000000000000000000000000000000000000000000905090565b61131483838360405180602001604052806000815250611981565b505050565b600080600c6000846fffffffffffffffffffffffffffffffff19166fffffffffffffffffffffffffffffffff19168152602001908152602001600020549050600181101561136b576001915050611370565b809150505b919050565b600061138385858585612674565b9050949350505050565b6000600e54905090565b60006113a58585858561207b565b9050949350505050565b6000806113bb83612850565b9050600073ffffffffffffffffffffffffffffffffffffffff168173ffffffffffffffffffffffffffffffffffffffff16141561142d576040517f08c379a0000000000000000000000000000000000000000000000000000000008152600401611424906145df565b60405180910390fd5b80915050919050565b61143e611f2e565b600073ffffffffffffffffffffffffffffffffffffffff168173ffffffffffffffffffffffffffffffffffffffff1614156114ae576040517f08c379a00000000000000000000000000000000000000000000000000000000081526004016114a590614671565b60405180910390fd5b6001601060008373ffffffffffffffffffffffffffffffffffffffff1673ffffffffffffffffffffffffffffffffffffffff16815260200190815260200160002060006101000a81548160ff02191690831515021790555050565b60007f0000000000000000000000000000000000000000000000000000000000000000905090565b60008073ffffffffffffffffffffffffffffffffffffffff168273ffffffffffffffffffffffffffffffffffffffff1614156115a2576040517f08c379a000000000000000000000000000000000000000000000000000000000815260040161159990614703565b60405180910390fd5b600460008373ffffffffffffffffffffffffffffffffffffffff1673ffffffffffffffffffffffffffffffffffffffff168152602001908152602001600020549050919050565b7f000000000000000000000000000000000000000000000000000000000000000081565b611615611f2e565b61161f600061288d565b565b600061162c82612951565b9050919050565b6000600f54905090565b60008060009054906101000a900473ffffffffffffffffffffffffffffffffffffffff16905090565b60006008828154811061167c5761167b614723565b5b90600052602060002090600502016040518060e00160405290816000820160009054906101000a900460801b6fffffffffffffffffffffffffffffffff19166fffffffffffffffffffffffffffffffff191681526020016000820160109054906101000a900460801b6fffffffffffffffffffffffffffffffff19166fffffffffffffffffffffffffffffffff191681526020016001820154815260200160028201548152602001600382015481526020016004820160009054906101000a900460ff161515151581526020016004820160019054906101000a900473ffffffffffffffffffffffffffffffffffffffff1673ffffffffffffffffffffffffffffffffffffffff1673ffffffffffffffffffffffffffffffffffffffff16815250509050600015158160a001511515146117eb576040517f08c379a00000000000000000000000000000000000000000000000000000000081526004016117e29061479e565b60405180910390fd5b60007f000000000000000000000000000000000000000000000000000000000000000073ffffffffffffffffffffffffffffffffffffffff166306c77ce7836020015184600001516040518363ffffffff1660e01b8152600401611850929190614236565b602060405180830381865afa15801561186d573d6000803e3d6000fd5b505050506040513d601f19601f820116820180604052508101906118919190614274565b905061189d83826129a7565b505050565b6060600280546118b190613eea565b80601f01602080910402602001604051908101604052809291908181526020018280546118dd90613eea565b801561192a5780601f106118ff5761010080835404028352916020019161192a565b820191906000526020600020905b81548152906001019060200180831161190d57829003601f168201915b5050505050905090565b61194661193f611cec565b8383612e36565b5050565b60006119546120ba565b905090565b60007f0000000000000000000000000000000000000000000000000000000000000000905090565b61199261198c611cec565b836122e5565b6119d1576040517f08c379a00000000000000000000000000000000000000000000000000000000081526004016119c890614573565b60405180910390fd5b6119dd84848484612fa3565b50505050565b6119eb611f2e565b600073ffffffffffffffffffffffffffffffffffffffff168173ffffffffffffffffffffffffffffffffffffffff161415611a5b576040517f08c379a0000000000000000000000000000000000000000000000000000000008152600401611a5290614830565b60405180910390fd5b6000601060008373ffffffffffffffffffffffffffffffffffffffff1673ffffffffffffffffffffffffffffffffffffffff16815260200190815260200160002060006101000a81548160ff02191690831515021790555050565b606081604051602001611ac991906148a7565b6040516020818303038152906040529050919050565b6000600754905090565b6000611af482612fff565b9050919050565b6000600660008473ffffffffffffffffffffffffffffffffffffffff1673ffffffffffffffffffffffffffffffffffffffff16815260200190815260200160002060008373ffffffffffffffffffffffffffffffffffffffff1673ffffffffffffffffffffffffffffffffffffffff16815260200190815260200160002060009054906101000a900460ff16905092915050565b611b97611f2e565b600073ffffffffffffffffffffffffffffffffffffffff168173ffffffffffffffffffffffffffffffffffffffff161415611c07576040517f08c379a0000000000000000000000000000000000000000000000000000000008152600401611bfe9061493f565b60405180910390fd5b611c108161288d565b50565b7f000000000000000000000000000000000000000000000000000000000000000081565b60007f01ffc9a7000000000000000000000000000000000000000000000000000000007bffffffffffffffffffffffffffffffffffffffffffffffffffffffff1916827bffffffffffffffffffffffffffffffffffffffffffffffffffffffff1916149050919050565b611caa81613063565b611ce9576040517f08c379a0000000000000000000000000000000000000000000000000000000008152600401611ce0906145df565b60405180910390fd5b50565b600033905090565b816005600083815260200190815260200160002060006101000a81548173ffffffffffffffffffffffffffffffffffffffff021916908373ffffffffffffffffffffffffffffffffffffffff160217905550808273ffffffffffffffffffffffffffffffffffffffff16611d67836113af565b73ffffffffffffffffffffffffffffffffffffffff167f8c5be1e5ebec7d5bd14f71427d1e84f3dd0314c0f7b2291e5b200ac8c7c3b92560405160405180910390a45050565b60008060008060008060008060088981548110611dcd57611dcc614723565b5b90600052602060002090600502016040518060e00160405290816000820160009054906101000a900460801b6fffffffffffffffffffffffffffffffff19166fffffffffffffffffffffffffffffffff191681526020016000820160109054906101000a900460801b6fffffffffffffffffffffffffffffffff19166fffffffffffffffffffffffffffffffff191681526020016001820154815260200160028201548152602001600382015481526020016004820160009054906101000a900460ff161515151581526020016004820160019054906101000a900473ffffffffffffffffffffffffffffffffffffffff1673ffffffffffffffffffffffffffffffffffffffff1673ffffffffffffffffffffffffffffffffffffffff168152505090508060400151816060015182608001518360a001518460c0015185602001518660000151975097509750975097509750975050919395979092949650565b611f36611cec565b73ffffffffffffffffffffffffffffffffffffffff16611f5461163d565b73ffffffffffffffffffffffffffffffffffffffff1614611faa576040517f08c379a0000000000000000000000000000000000000000000000000000000008152600401611fa1906149ab565b60405180910390fd5b565b60008073__$47464c6f7588c8075b5d384b19d082a8ec$__635cff288d85856040518363ffffffff1660e01b8152600401611fe8929190614ae2565b602060405180830381865af4158015612005573d6000803e3d6000fd5b505050506040513d601f19601f820116820180604052508101906120299190614348565b9050600073ffffffffffffffffffffffffffffffffffffffff168173ffffffffffffffffffffffffffffffffffffffff16141561206957612068614b0b565b5b61207281612951565b91505092915050565b60008061208a84848888612674565b90506120af84620f424086846120a09190614b3a565b6120aa9190614bc3565b6130a4565b915050949350505050565b6000600880549050905090565b600073ffffffffffffffffffffffffffffffffffffffff168273ffffffffffffffffffffffffffffffffffffffff161415612137576040517f08c379a000000000000000000000000000000000000000000000000000000000815260040161212e90614c40565b60405180910390fd5b61214081613063565b15612180576040517f08c379a000000000000000000000000000000000000000000000000000000000815260040161217790614cac565b60405180910390fd5b61218e6000838360016130bd565b61219781613063565b156121d7576040517f08c379a00000000000000000000000000000000000000000000000000000000081526004016121ce90614cac565b60405180910390fd5b6001600460008473ffffffffffffffffffffffffffffffffffffffff1673ffffffffffffffffffffffffffffffffffffffff16815260200190815260200160002060008282540192505081905550816003600083815260200190815260200160002060006101000a81548173ffffffffffffffffffffffffffffffffffffffff021916908373ffffffffffffffffffffffffffffffffffffffff160217905550808273ffffffffffffffffffffffffffffffffffffffff16600073ffffffffffffffffffffffffffffffffffffffff167fddf252ad1be2c89b69c2b068fc378daa952ba7f163c4a11628f55a4df523b3ef60405160405180910390a46122e16000838360016131e3565b5050565b6000806122f1836113af565b90508073ffffffffffffffffffffffffffffffffffffffff168473ffffffffffffffffffffffffffffffffffffffff16148061233357506123328185611afb565b5b8061237157508373ffffffffffffffffffffffffffffffffffffffff16612359846108d0565b73ffffffffffffffffffffffffffffffffffffffff16145b91505092915050565b8273ffffffffffffffffffffffffffffffffffffffff1661239a826113af565b73ffffffffffffffffffffffffffffffffffffffff16146123f0576040517f08c379a00000000000000000000000000000000000000000000000000000000081526004016123e790614d3e565b60405180910390fd5b600073ffffffffffffffffffffffffffffffffffffffff168273ffffffffffffffffffffffffffffffffffffffff161415612460576040517f08c379a000000000000000000000000000000000000000000000000000000000815260040161245790614dd0565b60405180910390fd5b61246d83838360016130bd565b8273ffffffffffffffffffffffffffffffffffffffff1661248d826113af565b73ffffffffffffffffffffffffffffffffffffffff16146124e3576040517f08c379a00000000000000000000000000000000000000000000000000000000081526004016124da90614d3e565b60405180910390fd5b6005600082815260200190815260200160002060006101000a81549073ffffffffffffffffffffffffffffffffffffffff02191690556001600460008573ffffffffffffffffffffffffffffffffffffffff1673ffffffffffffffffffffffffffffffffffffffff168152602001908152602001600020600082825403925050819055506001600460008473ffffffffffffffffffffffffffffffffffffffff1673ffffffffffffffffffffffffffffffffffffffff16815260200190815260200160002060008282540192505081905550816003600083815260200190815260200160002060006101000a81548173ffffffffffffffffffffffffffffffffffffffff021916908373ffffffffffffffffffffffffffffffffffffffff160217905550808273ffffffffffffffffffffffffffffffffffffffff168473ffffffffffffffffffffffffffffffffffffffff167fddf252ad1be2c89b69c2b068fc378daa952ba7f163c4a11628f55a4df523b3ef60405160405180910390a461266f83838360016131e3565b505050565b600080600c6000846fffffffffffffffffffffffffffffffff19166fffffffffffffffffffffffffffffffff1916815260200190815260200160002054905060018110156126c157600190505b6001861115806126d2575060018511155b156126e1576001915050612848565b60007f000000000000000000000000000000000000000000000000000000000000000073ffffffffffffffffffffffffffffffffffffffff1663b15031fa6040518163ffffffff1660e01b8152600401602060405180830381865afa15801561274e573d6000803e3d6000fd5b505050506040513d601f19601f820116820180604052508101906127729190614e05565b9050600081141561278857600192505050612848565b80600d6000876fffffffffffffffffffffffffffffffff19166fffffffffffffffffffffffffffffffff191681526020019081526020016000205411156127d457600192505050612848565b600d6000866fffffffffffffffffffffffffffffffff19166fffffffffffffffffffffffffffffffff19168152602001908152602001600020548161281991906143db565b905060006128288888846131e9565b90506002836128379190614f65565b816128429190614bc3565b93505050505b949350505050565b60006003600083815260200190815260200160002060009054906101000a900473ffffffffffffffffffffffffffffffffffffffff169050919050565b60008060009054906101000a900473ffffffffffffffffffffffffffffffffffffffff169050816000806101000a81548173ffffffffffffffffffffffffffffffffffffffff021916908373ffffffffffffffffffffffffffffffffffffffff1602179055508173ffffffffffffffffffffffffffffffffffffffff168173ffffffffffffffffffffffffffffffffffffffff167f8be0079c531659141344cd1fd0a4f28419497f9722a3daafe3b4186f6b6457e060405160405180910390a35050565b6000601060008373ffffffffffffffffffffffffffffffffffffffff1673ffffffffffffffffffffffffffffffffffffffff16815260200190815260200160002060009054906101000a900460ff169050919050565b42600883815481106129bc576129bb614723565b5b90600052602060002090600502016003015410612a0e576040517f08c379a0000000000000000000000000000000000000000000000000000000008152600401612a0590614ffc565b60405180910390fd5b600160088381548110612a2457612a23614723565b5b906000526020600020906005020160040160006101000a81548160ff02191690831515021790555060088281548110612a6057612a5f614723565b5b906000526020600020906005020160010154600e6000828254612a8391906143db565b9250508190555060088281548110612a9e57612a9d614723565b5b90600052602060002090600502016001015460088381548110612ac457612ac3614723565b5b906000526020600020906005020160020154612ae091906143db565b600f6000828254612af191906143db565b9250508190555060076000815480929190612b0b9061501c565b919050555060007f000000000000000000000000000000000000000000000000000000000000000073ffffffffffffffffffffffffffffffffffffffff166338d52e0f6040518163ffffffff1660e01b8152600401602060405180830381865afa158015612b7d573d6000803e3d6000fd5b505050506040513d601f19601f82011682018060405250810190612ba19190614348565b9050600115158215151415612c9a578073ffffffffffffffffffffffffffffffffffffffff1663a9059cbb60088581548110612be057612bdf614723565b5b906000526020600020906005020160040160019054906101000a900473ffffffffffffffffffffffffffffffffffffffff1660088681548110612c2657612c25614723565b5b9060005260206000209060050201600201546040518363ffffffff1660e01b8152600401612c55929190615046565b6020604051808303816000875af1158015612c74573d6000803e3d6000fd5b505050506040513d601f19601f82011682018060405250810190612c989190614274565b505b600015158215151415612d6c578073ffffffffffffffffffffffffffffffffffffffff1663a9059cbb7f000000000000000000000000000000000000000000000000000000000000000060088681548110612cf857612cf7614723565b5b9060005260206000209060050201600201546040518363ffffffff1660e01b8152600401612d27929190615046565b6020604051808303816000875af1158015612d46573d6000803e3d6000fd5b505050506040513d601f19601f82011682018060405250810190612d6a9190614274565b505b612d7583613270565b60088381548110612d8957612d88614723565b5b906000526020600020906005020160040160019054906101000a900473ffffffffffffffffffffffffffffffffffffffff1673ffffffffffffffffffffffffffffffffffffffff167f08a2a3d90b4a86017a5adf7503073c6b2b44051c48e9844a336190c9793c4af98460088681548110612e0757612e06614723565b5b90600052602060002090600502016002015485604051612e299392919061506f565b60405180910390a2505050565b8173ffffffffffffffffffffffffffffffffffffffff168373ffffffffffffffffffffffffffffffffffffffff161415612ea5576040517f08c379a0000000000000000000000000000000000000000000000000000000008152600401612e9c906150f2565b60405180910390fd5b80600660008573ffffffffffffffffffffffffffffffffffffffff1673ffffffffffffffffffffffffffffffffffffffff16815260200190815260200160002060008473ffffffffffffffffffffffffffffffffffffffff1673ffffffffffffffffffffffffffffffffffffffff16815260200190815260200160002060006101000a81548160ff0219169083151502179055508173ffffffffffffffffffffffffffffffffffffffff168373ffffffffffffffffffffffffffffffffffffffff167f17307eab39ab6107e8899845ad3d59bd9653f200f220920489ca2b5937696c3183604051612f96919061361d565b60405180910390a3505050565b612fae84848461237a565b612fba848484846133be565b612ff9576040517f08c379a0000000000000000000000000000000000000000000000000000000008152600401612ff090615184565b60405180910390fd5b50505050565b60007f000000000000000000000000000000000000000000000000000000000000000060088367ffffffffffffffff16815481106130405761303f614723565b5b90600052602060002090600502016003015461305c919061440f565b9050919050565b60008073ffffffffffffffffffffffffffffffffffffffff1661308583612850565b73ffffffffffffffffffffffffffffffffffffffff1614159050919050565b60008183116130b357816130b5565b825b905092915050565b60018111156131dd57600073ffffffffffffffffffffffffffffffffffffffff168473ffffffffffffffffffffffffffffffffffffffff16146131515780600460008673ffffffffffffffffffffffffffffffffffffffff1673ffffffffffffffffffffffffffffffffffffffff168152602001908152602001600020600082825461314991906143db565b925050819055505b600073ffffffffffffffffffffffffffffffffffffffff168373ffffffffffffffffffffffffffffffffffffffff16146131dc5780600460008573ffffffffffffffffffffffffffffffffffffffff1673ffffffffffffffffffffffffffffffffffffffff16815260200190815260200160002060008282546131d4919061440f565b925050819055505b5b50505050565b50505050565b600073__$488e0037c7b108d422da68056570fe35d6$__63a19dec438585856040518463ffffffff1660e01b8152600401613226939291906151b3565b602060405180830381865af4158015613243573d6000803e3d6000fd5b505050506040513d601f19601f820116820180604052508101906132679190614e05565b90509392505050565b600061327b826113af565b905061328b8160008460016130bd565b613294826113af565b90506005600083815260200190815260200160002060006101000a81549073ffffffffffffffffffffffffffffffffffffffff02191690556001600460008373ffffffffffffffffffffffffffffffffffffffff1673ffffffffffffffffffffffffffffffffffffffff168152602001908152602001600020600082825403925050819055506003600083815260200190815260200160002060006101000a81549073ffffffffffffffffffffffffffffffffffffffff021916905581600073ffffffffffffffffffffffffffffffffffffffff168273ffffffffffffffffffffffffffffffffffffffff167fddf252ad1be2c89b69c2b068fc378daa952ba7f163c4a11628f55a4df523b3ef60405160405180910390a46133ba8160008460016131e3565b5050565b60006133df8473ffffffffffffffffffffffffffffffffffffffff16613546565b15613539578373ffffffffffffffffffffffffffffffffffffffff1663150b7a02613408611cec565b8786866040518563ffffffff1660e01b815260040161342a949392919061523f565b6020604051808303816000875af192505050801561346657506040513d601f19601f8201168201806040525081019061346391906152a0565b60015b6134e9573d8060008114613496576040519150601f19603f3d011682016040523d82523d6000602084013e61349b565b606091505b506000815114156134e1576040517f08c379a00000000000000000000000000000000000000000000000000000000081526004016134d890615184565b60405180910390fd5b805181602001fd5b63150b7a0260e01b7bffffffffffffffffffffffffffffffffffffffffffffffffffffffff1916817bffffffffffffffffffffffffffffffffffffffffffffffffffffffff19161491505061353e565b600190505b949350505050565b6000808273ffffffffffffffffffffffffffffffffffffffff163b119050919050565b6000604051905090565b600080fd5b600080fd5b60007fffffffff0000000000000000000000000000000000000000000000000000000082169050919050565b6135b28161357d565b81146135bd57600080fd5b50565b6000813590506135cf816135a9565b92915050565b6000602082840312156135eb576135ea613573565b5b60006135f9848285016135c0565b91505092915050565b60008115159050919050565b61361781613602565b82525050565b6000602082019050613632600083018461360e565b92915050565b600081519050919050565b600082825260208201905092915050565b60005b83811015613672578082015181840152602081019050613657565b83811115613681576000848401525b50505050565b6000601f19601f8301169050919050565b60006136a382613638565b6136ad8185613643565b93506136bd818560208601613654565b6136c681613687565b840191505092915050565b600060208201905081810360008301526136eb8184613698565b905092915050565b6000819050919050565b613706816136f3565b811461371157600080fd5b50565b600081359050613723816136fd565b92915050565b60006020828403121561373f5761373e613573565b5b600061374d84828501613714565b91505092915050565b600073ffffffffffffffffffffffffffffffffffffffff82169050919050565b600061378182613756565b9050919050565b61379181613776565b82525050565b60006020820190506137ac6000830184613788565b92915050565b6137bb81613776565b81146137c657600080fd5b50565b6000813590506137d8816137b2565b92915050565b600080604083850312156137f5576137f4613573565b5b6000613803858286016137c9565b925050602061381485828601613714565b9150509250929050565b613827816136f3565b82525050565b60007fffffffffffffffffffffffffffffffff0000000000000000000000000000000082169050919050565b6138628161382d565b82525050565b600060e08201905061387d600083018a61381e565b61388a602083018961381e565b613897604083018861381e565b6138a4606083018761360e565b6138b16080830186613788565b6138be60a0830185613859565b6138cb60c0830184613859565b98975050505050505050565b6138e08161382d565b81146138eb57600080fd5b50565b6000813590506138fd816138d7565b92915050565b60006020828403121561391957613918613573565b5b6000613927848285016138ee565b91505092915050565b6000602082019050613945600083018461381e565b92915050565b6000806040838503121561396257613961613573565b5b6000613970858286016138ee565b925050602061398185828601613714565b9150509250929050565b600080fd5b6000606082840312156139a6576139a561398b565b5b81905092915050565b600080600080600080600080610140898b0312156139d0576139cf613573565b5b60006139de8b828c016138ee565b98505060206139ef8b828c016138ee565b9750506040613a008b828c016138ee565b9650506060613a118b828c01613714565b9550506080613a228b828c01613714565b94505060a0613a338b828c01613714565b93505060c0613a448b828c01613714565b92505060e0613a558b828c01613990565b9150509295985092959890939650565b600080600060608486031215613a7e57613a7d613573565b5b6000613a8c868287016137c9565b9350506020613a9d868287016137c9565b9250506040613aae86828701613714565b9150509250925092565b600060ff82169050919050565b613ace81613ab8565b82525050565b6000602082019050613ae96000830184613ac5565b92915050565b60008060008060808587031215613b0957613b08613573565b5b6000613b1787828801613714565b9450506020613b2887828801613714565b9350506040613b39878288016138ee565b9250506060613b4a878288016138ee565b91505092959194509250565b60008060008060808587031215613b7057613b6f613573565b5b6000613b7e878288016138ee565b9450506020613b8f878288016138ee565b9350506040613ba087828801613714565b9250506060613bb187828801613714565b91505092959194509250565b600060208284031215613bd357613bd2613573565b5b6000613be1848285016137c9565b91505092915050565b613bf381613602565b8114613bfe57600080fd5b50565b600081359050613c1081613bea565b92915050565b60008060408385031215613c2d57613c2c613573565b5b6000613c3b858286016137c9565b9250506020613c4c85828601613c01565b9150509250929050565b600080fd5b600080fd5b7f4e487b7100000000000000000000000000000000000000000000000000000000600052604160045260246000fd5b613c9882613687565b810181811067ffffffffffffffff82111715613cb757613cb6613c60565b5b80604052505050565b6000613cca613569565b9050613cd68282613c8f565b919050565b600067ffffffffffffffff821115613cf657613cf5613c60565b5b613cff82613687565b9050602081019050919050565b82818337600083830152505050565b6000613d2e613d2984613cdb565b613cc0565b905082815260208101848484011115613d4a57613d49613c5b565b5b613d55848285613d0c565b509392505050565b600082601f830112613d7257613d71613c56565b5b8135613d82848260208601613d1b565b91505092915050565b60008060008060808587031215613da557613da4613573565b5b6000613db3878288016137c9565b9450506020613dc4878288016137c9565b9350506040613dd587828801613714565b925050606085013567ffffffffffffffff811115613df657613df5613578565b5b613e0287828801613d5d565b91505092959194509250565b600067ffffffffffffffff82169050919050565b613e2b81613e0e565b8114613e3657600080fd5b50565b600081359050613e4881613e22565b92915050565b600060208284031215613e6457613e63613573565b5b6000613e7284828501613e39565b91505092915050565b60008060408385031215613e9257613e91613573565b5b6000613ea0858286016137c9565b9250506020613eb1858286016137c9565b9150509250929050565b7f4e487b7100000000000000000000000000000000000000000000000000000000600052602260045260246000fd5b60006002820490506001821680613f0257607f821691505b60208210811415613f1657613f15613ebb565b5b50919050565b7f4552433732313a20617070726f76616c20746f2063757272656e74206f776e6560008201527f7200000000000000000000000000000000000000000000000000000000000000602082015250565b6000613f78602183613643565b9150613f8382613f1c565b604082019050919050565b60006020820190508181036000830152613fa781613f6b565b9050919050565b7f4552433732313a20617070726f76652063616c6c6572206973206e6f7420746f60008201527f6b656e206f776e6572206f7220617070726f76656420666f7220616c6c000000602082015250565b600061400a603d83613643565b915061401582613fae565b604082019050919050565b6000602082019050818103600083015261403981613ffd565b9050919050565b7f7269736b206d757374206265206774206f7220657120746f2031000000000000600082015250565b6000614076601a83613643565b915061408182614040565b602082019050919050565b600060208201905081810360008301526140a581614069565b9050919050565b7f6261636b3a20496e76616c696420646174650000000000000000000000000000600082015250565b60006140e2601283613643565b91506140ed826140ac565b602082019050919050565b60006020820190508181036000830152614111816140d5565b9050919050565b6000819050919050565b61413361412e8261382d565b614118565b82525050565b6000819050919050565b61415461414f826136f3565b614139565b82525050565b60006141668289614122565b6010820191506141768288614122565b6010820191506141868287614122565b6010820191506141968286614143565b6020820191506141a68285614143565b6020820191506141b68284614143565b602082019150819050979650505050505050565b7f6261636b3a20496e76616c6964207369676e6174757265000000000000000000600082015250565b6000614200601783613643565b915061420b826141ca565b602082019050919050565b6000602082019050818103600083015261422f816141f3565b9050919050565b600060408201905061424b6000830185613859565b6142586020830184613859565b9392505050565b60008151905061426e81613bea565b92915050565b60006020828403121561428a57614289613573565b5b60006142988482850161425f565b91505092915050565b7f6261636b3a204f7261636c6520726573756c7420616c7265616479207365742060008201527f666f722074686973206d61726b65740000000000000000000000000000000000602082015250565b60006142fd602f83613643565b9150614308826142a1565b604082019050919050565b6000602082019050818103600083015261432c816142f0565b9050919050565b600081519050614342816137b2565b92915050565b60006020828403121561435e5761435d613573565b5b600061436c84828501614333565b91505092915050565b600060608201905061438a6000830186613788565b6143976020830185613788565b6143a4604083018461381e565b949350505050565b7f4e487b7100000000000000000000000000000000000000000000000000000000600052601160045260246000fd5b60006143e6826136f3565b91506143f1836136f3565b925082821015614404576144036143ac565b5b828203905092915050565b600061441a826136f3565b9150614425836136f3565b9250827fffffffffffffffffffffffffffffffffffffffffffffffffffffffffffffffff0382111561445a576144596143ac565b5b828201905092915050565b6000614470826136f3565b91507fffffffffffffffffffffffffffffffffffffffffffffffffffffffffffffffff8214156144a3576144a26143ac565b5b600182019050919050565b600060a0820190506144c3600083018861381e565b6144d06020830187613859565b6144dd6040830186613859565b6144ea606083018561381e565b6144f7608083018461381e565b9695505050505050565b7f4552433732313a2063616c6c6572206973206e6f7420746f6b656e206f776e6560008201527f72206f7220617070726f76656400000000000000000000000000000000000000602082015250565b600061455d602d83613643565b915061456882614501565b604082019050919050565b6000602082019050818103600083015261458c81614550565b9050919050565b7f4552433732313a20696e76616c696420746f6b656e2049440000000000000000600082015250565b60006145c9601883613643565b91506145d482614593565b602082019050919050565b600060208201905081810360008301526145f8816145bc565b9050919050565b7f6772616e745369676e65723a20496e76616c6964207369676e6572206164647260008201527f6573730000000000000000000000000000000000000000000000000000000000602082015250565b600061465b602383613643565b9150614666826145ff565b604082019050919050565b6000602082019050818103600083015261468a8161464e565b9050919050565b7f4552433732313a2061646472657373207a65726f206973206e6f74206120766160008201527f6c6964206f776e65720000000000000000000000000000000000000000000000602082015250565b60006146ed602983613643565b91506146f882614691565b604082019050919050565b6000602082019050818103600083015261471c816146e0565b9050919050565b7f4e487b7100000000000000000000000000000000000000000000000000000000600052603260045260246000fd5b7f736574746c653a204265742068617320616c726561647920736574746c656400600082015250565b6000614788601f83613643565b915061479382614752565b602082019050919050565b600060208201905081810360008301526147b78161477b565b9050919050565b7f7265766f6b655369676e65723a20496e76616c6964207369676e65722061646460008201527f7265737300000000000000000000000000000000000000000000000000000000602082015250565b600061481a602483613643565b9150614825826147be565b604082019050919050565b600060208201905081810360008301526148498161480d565b9050919050565b600081905092915050565b7f68747470733a2f2f6170692e686f7273652e6c696e6b2f6265742f0000000000600082015250565b6000614891601b83614850565b915061489c8261485b565b601b82019050919050565b60006148b282614884565b91506148be8284614143565b60208201915081905092915050565b7f4f776e61626c653a206e6577206f776e657220697320746865207a65726f206160008201527f6464726573730000000000000000000000000000000000000000000000000000602082015250565b6000614929602683613643565b9150614934826148cd565b604082019050919050565b600060208201905081810360008301526149588161491c565b9050919050565b7f4f776e61626c653a2063616c6c6572206973206e6f7420746865206f776e6572600082015250565b6000614995602083613643565b91506149a08261495f565b602082019050919050565b600060208201905081810360008301526149c481614988565b9050919050565b6000819050919050565b6149de816149cb565b82525050565b6149ed81613ab8565b81146149f857600080fd5b50565b600081359050614a0a816149e4565b92915050565b6000614a1f60208401846149fb565b905092915050565b614a3081613ab8565b82525050565b614a3f816149cb565b8114614a4a57600080fd5b50565b600081359050614a5c81614a36565b92915050565b6000614a716020840184614a4d565b905092915050565b614a82816149cb565b82525050565b60608201614a996000830183614a10565b614aa66000850182614a27565b50614ab46020830183614a62565b614ac16020850182614a79565b50614acf6040830183614a62565b614adc6040850182614a79565b50505050565b6000608082019050614af760008301856149d5565b614b046020830184614a88565b9392505050565b7f4e487b7100000000000000000000000000000000000000000000000000000000600052600160045260246000fd5b6000614b45826136f3565b9150614b50836136f3565b9250817fffffffffffffffffffffffffffffffffffffffffffffffffffffffffffffffff0483118215151615614b8957614b886143ac565b5b828202905092915050565b7f4e487b7100000000000000000000000000000000000000000000000000000000600052601260045260246000fd5b6000614bce826136f3565b9150614bd9836136f3565b925082614be957614be8614b94565b5b828204905092915050565b7f4552433732313a206d696e7420746f20746865207a65726f2061646472657373600082015250565b6000614c2a602083613643565b9150614c3582614bf4565b602082019050919050565b60006020820190508181036000830152614c5981614c1d565b9050919050565b7f4552433732313a20746f6b656e20616c7265616479206d696e74656400000000600082015250565b6000614c96601c83613643565b9150614ca182614c60565b602082019050919050565b60006020820190508181036000830152614cc581614c89565b9050919050565b7f4552433732313a207472616e736665722066726f6d20696e636f72726563742060008201527f6f776e6572000000000000000000000000000000000000000000000000000000602082015250565b6000614d28602583613643565b9150614d3382614ccc565b604082019050919050565b60006020820190508181036000830152614d5781614d1b565b9050919050565b7f4552433732313a207472616e7366657220746f20746865207a65726f2061646460008201527f7265737300000000000000000000000000000000000000000000000000000000602082015250565b6000614dba602483613643565b9150614dc582614d5e565b604082019050919050565b60006020820190508181036000830152614de981614dad565b9050919050565b600081519050614dff816136fd565b92915050565b600060208284031215614e1b57614e1a613573565b5b6000614e2984828501614df0565b91505092915050565b60008160011c9050919050565b6000808291508390505b6001851115614e8957808604811115614e6557614e646143ac565b5b6001851615614e745780820291505b8081029050614e8285614e32565b9450614e49565b94509492505050565b600082614ea25760019050614f5e565b81614eb05760009050614f5e565b8160018114614ec65760028114614ed057614eff565b6001915050614f5e565b60ff841115614ee257614ee16143ac565b5b8360020a915084821115614ef957614ef86143ac565b5b50614f5e565b5060208310610133831016604e8410600b8410161715614f345782820a905083811115614f2f57614f2e6143ac565b5b614f5e565b614f418484846001614e3f565b92509050818404811115614f5857614f576143ac565b5b81810290505b9392505050565b6000614f70826136f3565b9150614f7b83613ab8565b9250614fa87fffffffffffffffffffffffffffffffffffffffffffffffffffffffffffffffff8484614e92565b905092915050565b7f5f736574746c653a205061796f75742064617465206e6f742072656163686564600082015250565b6000614fe6602083613643565b9150614ff182614fb0565b602082019050919050565b6000602082019050818103600083015261501581614fd9565b9050919050565b6000615027826136f3565b9150600082141561503b5761503a6143ac565b5b600182039050919050565b600060408201905061505b6000830185613788565b615068602083018461381e565b9392505050565b6000606082019050615084600083018661381e565b615091602083018561381e565b61509e604083018461360e565b949350505050565b7f4552433732313a20617070726f766520746f2063616c6c657200000000000000600082015250565b60006150dc601983613643565b91506150e7826150a6565b602082019050919050565b6000602082019050818103600083015261510b816150cf565b9050919050565b7f4552433732313a207472616e7366657220746f206e6f6e20455243373231526560008201527f63656976657220696d706c656d656e7465720000000000000000000000000000602082015250565b600061516e603283613643565b915061517982615112565b604082019050919050565b6000602082019050818103600083015261519d81615161565b9050919050565b6151ad816136f3565b82525050565b60006060820190506151c860008301866151a4565b6151d560208301856151a4565b6151e260408301846151a4565b949350505050565b600081519050919050565b600082825260208201905092915050565b6000615211826151ea565b61521b81856151f5565b935061522b818560208601613654565b61523481613687565b840191505092915050565b60006080820190506152546000830187613788565b6152616020830186613788565b61526e604083018561381e565b81810360608301526152808184615206565b905095945050505050565b60008151905061529a816135a9565b92915050565b6000602082840312156152b6576152b5613573565b5b60006152c48482850161528b565b9150509291505056fea26469706673582212203762f11f2472b81f3c6ee99be12339cb13f6e50d0b6a8d38b5d50c68ee285f2a64736f6c634300080a0033",
  "libraries": {
    "SignatureLib": "0x839ED5A99c6ec4d1B852a2550cCF98247d27B499",
    "OddsLib": "0xD26Ad878453b682E49E8a8b1E9dbe700E40Fc459"
  },
  "devdoc": {
    "kind": "dev",
    "methods": {
      "approve(address,uint256)": {
        "details": "See {IERC721-approve}."
      },
      "balanceOf(address)": {
        "details": "See {IERC721-balanceOf}."
      },
      "getApproved(uint256)": {
        "details": "See {IERC721-getApproved}."
      },
      "isApprovedForAll(address,address)": {
        "details": "See {IERC721-isApprovedForAll}."
      },
      "name()": {
        "details": "See {IERC721Metadata-name}."
      },
      "owner()": {
        "details": "Returns the address of the current owner."
      },
      "ownerOf(uint256)": {
        "details": "See {IERC721-ownerOf}."
      },
      "renounceOwnership()": {
        "details": "Leaves the contract without owner. It will not be possible to call `onlyOwner` functions anymore. Can only be called by the current owner. NOTE: Renouncing ownership will leave the contract without an owner, thereby removing any functionality that is only available to the owner."
      },
      "safeTransferFrom(address,address,uint256)": {
        "details": "See {IERC721-safeTransferFrom}."
      },
      "safeTransferFrom(address,address,uint256,bytes)": {
        "details": "See {IERC721-safeTransferFrom}."
      },
      "setApprovalForAll(address,bool)": {
        "details": "See {IERC721-setApprovalForAll}."
      },
      "supportsInterface(bytes4)": {
        "details": "See {IERC165-supportsInterface}."
      },
      "symbol()": {
        "details": "See {IERC721Metadata-symbol}."
      },
      "tokenURI(uint256)": {
        "details": "See {IERC721Metadata-tokenURI}."
      },
      "transferFrom(address,address,uint256)": {
        "details": "See {IERC721-transferFrom}."
      },
      "transferOwnership(address)": {
        "details": "Transfers ownership of the contract to a new account (`newOwner`). Can only be called by the current owner."
      }
    },
    "version": 1
  },
  "userdoc": {
    "kind": "user",
    "methods": {},
    "version": 1
  },
  "storageLayout": {
    "storage": [
      {
        "astId": 2722,
        "contract": "contracts/Market.sol:Market",
        "label": "_owner",
        "offset": 0,
        "slot": "0",
        "type": "t_address"
      },
      {
        "astId": 5038,
        "contract": "contracts/Market.sol:Market",
        "label": "_name",
        "offset": 0,
        "slot": "1",
        "type": "t_string_storage"
      },
      {
        "astId": 5040,
        "contract": "contracts/Market.sol:Market",
        "label": "_symbol",
        "offset": 0,
        "slot": "2",
        "type": "t_string_storage"
      },
      {
        "astId": 5044,
        "contract": "contracts/Market.sol:Market",
        "label": "_owners",
        "offset": 0,
        "slot": "3",
        "type": "t_mapping(t_uint256,t_address)"
      },
      {
        "astId": 5048,
        "contract": "contracts/Market.sol:Market",
        "label": "_balances",
        "offset": 0,
        "slot": "4",
        "type": "t_mapping(t_address,t_uint256)"
      },
      {
        "astId": 5052,
        "contract": "contracts/Market.sol:Market",
        "label": "_tokenApprovals",
        "offset": 0,
        "slot": "5",
        "type": "t_mapping(t_uint256,t_address)"
      },
      {
        "astId": 5058,
        "contract": "contracts/Market.sol:Market",
        "label": "_operatorApprovals",
        "offset": 0,
        "slot": "6",
        "type": "t_mapping(t_address,t_mapping(t_address,t_bool))"
      },
      {
        "astId": 8433,
        "contract": "contracts/Market.sol:Market",
        "label": "_inplayCount",
        "offset": 0,
        "slot": "7",
        "type": "t_uint256"
      },
      {
        "astId": 8437,
        "contract": "contracts/Market.sol:Market",
        "label": "_bets",
        "offset": 0,
        "slot": "8",
        "type": "t_array(t_struct(Bet)8415_storage)dyn_storage"
      },
      {
        "astId": 8442,
        "contract": "contracts/Market.sol:Market",
        "label": "_marketBets",
        "offset": 0,
        "slot": "9",
        "type": "t_mapping(t_bytes16,t_array(t_uint256)dyn_storage)"
      },
      {
        "astId": 8446,
        "contract": "contracts/Market.sol:Market",
        "label": "_marketTotal",
        "offset": 0,
        "slot": "10",
        "type": "t_mapping(t_bytes16,t_uint256)"
      },
      {
        "astId": 8452,
        "contract": "contracts/Market.sol:Market",
        "label": "_marketBetAmount",
        "offset": 0,
        "slot": "11",
        "type": "t_mapping(t_bytes16,t_mapping(t_uint16,t_uint256))"
      },
      {
        "astId": 8456,
        "contract": "contracts/Market.sol:Market",
        "label": "_riskCoefficients",
        "offset": 0,
        "slot": "12",
        "type": "t_mapping(t_bytes16,t_uint256)"
      },
      {
        "astId": 8460,
        "contract": "contracts/Market.sol:Market",
        "label": "_potentialPayout",
        "offset": 0,
        "slot": "13",
        "type": "t_mapping(t_bytes16,t_uint256)"
      },
      {
        "astId": 8462,
        "contract": "contracts/Market.sol:Market",
        "label": "_totalInPlay",
        "offset": 0,
        "slot": "14",
        "type": "t_uint256"
      },
      {
        "astId": 8464,
        "contract": "contracts/Market.sol:Market",
        "label": "_totalExposure",
        "offset": 0,
        "slot": "15",
        "type": "t_uint256"
      },
      {
        "astId": 8472,
        "contract": "contracts/Market.sol:Market",
        "label": "_signers",
        "offset": 0,
        "slot": "16",
        "type": "t_mapping(t_address,t_bool)"
      }
    ],
    "types": {
      "t_address": {
        "encoding": "inplace",
        "label": "address",
        "numberOfBytes": "20"
      },
      "t_array(t_struct(Bet)8415_storage)dyn_storage": {
        "base": "t_struct(Bet)8415_storage",
        "encoding": "dynamic_array",
        "label": "struct Bet[]",
        "numberOfBytes": "32"
      },
      "t_array(t_uint256)dyn_storage": {
        "base": "t_uint256",
        "encoding": "dynamic_array",
        "label": "uint256[]",
        "numberOfBytes": "32"
      },
      "t_bool": {
        "encoding": "inplace",
        "label": "bool",
        "numberOfBytes": "1"
      },
      "t_bytes16": {
        "encoding": "inplace",
        "label": "bytes16",
        "numberOfBytes": "16"
      },
      "t_mapping(t_address,t_bool)": {
        "encoding": "mapping",
        "key": "t_address",
        "label": "mapping(address => bool)",
        "numberOfBytes": "32",
        "value": "t_bool"
      },
      "t_mapping(t_address,t_mapping(t_address,t_bool))": {
        "encoding": "mapping",
        "key": "t_address",
        "label": "mapping(address => mapping(address => bool))",
        "numberOfBytes": "32",
        "value": "t_mapping(t_address,t_bool)"
      },
      "t_mapping(t_address,t_uint256)": {
        "encoding": "mapping",
        "key": "t_address",
        "label": "mapping(address => uint256)",
        "numberOfBytes": "32",
        "value": "t_uint256"
      },
      "t_mapping(t_bytes16,t_array(t_uint256)dyn_storage)": {
        "encoding": "mapping",
        "key": "t_bytes16",
        "label": "mapping(bytes16 => uint256[])",
        "numberOfBytes": "32",
        "value": "t_array(t_uint256)dyn_storage"
      },
      "t_mapping(t_bytes16,t_mapping(t_uint16,t_uint256))": {
        "encoding": "mapping",
        "key": "t_bytes16",
        "label": "mapping(bytes16 => mapping(uint16 => uint256))",
        "numberOfBytes": "32",
        "value": "t_mapping(t_uint16,t_uint256)"
      },
      "t_mapping(t_bytes16,t_uint256)": {
        "encoding": "mapping",
        "key": "t_bytes16",
        "label": "mapping(bytes16 => uint256)",
        "numberOfBytes": "32",
        "value": "t_uint256"
      },
      "t_mapping(t_uint16,t_uint256)": {
        "encoding": "mapping",
        "key": "t_uint16",
        "label": "mapping(uint16 => uint256)",
        "numberOfBytes": "32",
        "value": "t_uint256"
      },
      "t_mapping(t_uint256,t_address)": {
        "encoding": "mapping",
        "key": "t_uint256",
        "label": "mapping(uint256 => address)",
        "numberOfBytes": "32",
        "value": "t_address"
      },
      "t_string_storage": {
        "encoding": "bytes",
        "label": "string",
        "numberOfBytes": "32"
      },
      "t_struct(Bet)8415_storage": {
        "encoding": "inplace",
        "label": "struct Bet",
        "members": [
          {
            "astId": 8402,
            "contract": "contracts/Market.sol:Market",
            "label": "propositionId",
            "offset": 0,
            "slot": "0",
            "type": "t_bytes16"
          },
          {
            "astId": 8404,
            "contract": "contracts/Market.sol:Market",
            "label": "marketId",
            "offset": 16,
            "slot": "0",
            "type": "t_bytes16"
          },
          {
            "astId": 8406,
            "contract": "contracts/Market.sol:Market",
            "label": "amount",
            "offset": 0,
            "slot": "1",
            "type": "t_uint256"
          },
          {
            "astId": 8408,
            "contract": "contracts/Market.sol:Market",
            "label": "payout",
            "offset": 0,
            "slot": "2",
            "type": "t_uint256"
          },
          {
            "astId": 8410,
            "contract": "contracts/Market.sol:Market",
            "label": "payoutDate",
            "offset": 0,
            "slot": "3",
            "type": "t_uint256"
          },
          {
            "astId": 8412,
            "contract": "contracts/Market.sol:Market",
            "label": "settled",
            "offset": 0,
            "slot": "4",
            "type": "t_bool"
          },
          {
            "astId": 8414,
            "contract": "contracts/Market.sol:Market",
            "label": "owner",
            "offset": 1,
            "slot": "4",
            "type": "t_address"
          }
        ],
        "numberOfBytes": "160"
      },
      "t_uint16": {
        "encoding": "inplace",
        "label": "uint16",
        "numberOfBytes": "2"
      },
      "t_uint256": {
        "encoding": "inplace",
        "label": "uint256",
        "numberOfBytes": "32"
      }
    }
  }
}