{
  "address": "0x495Ddf0Be57841ECE38b702A7A53Eba18E495D30",
  "abi": [
    {
      "inputs": [
        {
          "internalType": "contract IVault",
          "name": "vault",
          "type": "address"
        },
        {
          "internalType": "uint8",
          "name": "fee",
          "type": "uint8"
        },
        {
          "internalType": "uint8",
          "name": "timeoutDays",
          "type": "uint8"
        },
        {
          "internalType": "address",
          "name": "oracle",
          "type": "address"
        }
      ],
      "stateMutability": "nonpayable",
      "type": "constructor"
    },
    {
      "anonymous": false,
      "inputs": [
        {
          "indexed": true,
          "internalType": "address",
          "name": "owner",
          "type": "address"
        },
        {
          "indexed": true,
          "internalType": "address",
          "name": "approved",
          "type": "address"
        },
        {
          "indexed": true,
          "internalType": "uint256",
          "name": "tokenId",
          "type": "uint256"
        }
      ],
      "name": "Approval",
      "type": "event"
    },
    {
      "anonymous": false,
      "inputs": [
        {
          "indexed": true,
          "internalType": "address",
          "name": "owner",
          "type": "address"
        },
        {
          "indexed": true,
          "internalType": "address",
          "name": "operator",
          "type": "address"
        },
        {
          "indexed": false,
          "internalType": "bool",
          "name": "approved",
          "type": "bool"
        }
      ],
      "name": "ApprovalForAll",
      "type": "event"
    },
    {
      "anonymous": false,
      "inputs": [
        {
          "indexed": true,
          "internalType": "address",
          "name": "previousOwner",
          "type": "address"
        },
        {
          "indexed": true,
          "internalType": "address",
          "name": "newOwner",
          "type": "address"
        }
      ],
      "name": "OwnershipTransferred",
      "type": "event"
    },
    {
      "anonymous": false,
      "inputs": [
        {
          "indexed": false,
          "internalType": "uint256",
          "name": "index",
          "type": "uint256"
        },
        {
          "indexed": false,
          "internalType": "bytes16",
          "name": "propositionId",
          "type": "bytes16"
        },
        {
          "indexed": false,
          "internalType": "bytes16",
          "name": "marketId",
          "type": "bytes16"
        },
        {
          "indexed": false,
          "internalType": "uint256",
          "name": "amount",
          "type": "uint256"
        },
        {
          "indexed": false,
          "internalType": "uint256",
          "name": "payout",
          "type": "uint256"
        },
        {
          "indexed": true,
          "internalType": "address",
          "name": "owner",
          "type": "address"
        }
      ],
      "name": "Placed",
      "type": "event"
    },
    {
      "anonymous": false,
      "inputs": [
        {
          "indexed": false,
          "internalType": "uint256",
          "name": "index",
          "type": "uint256"
        },
        {
          "indexed": false,
          "internalType": "uint256",
          "name": "payout",
          "type": "uint256"
        },
        {
          "indexed": false,
          "internalType": "uint8",
          "name": "result",
          "type": "uint8"
        },
        {
          "indexed": true,
          "internalType": "address",
          "name": "recipient",
          "type": "address"
        }
      ],
      "name": "Settled",
      "type": "event"
    },
    {
      "anonymous": false,
      "inputs": [
        {
          "indexed": true,
          "internalType": "address",
          "name": "from",
          "type": "address"
        },
        {
          "indexed": true,
          "internalType": "address",
          "name": "to",
          "type": "address"
        },
        {
          "indexed": true,
          "internalType": "uint256",
          "name": "tokenId",
          "type": "uint256"
        }
      ],
      "name": "Transfer",
      "type": "event"
    },
    {
      "inputs": [
        {
          "internalType": "address",
          "name": "to",
          "type": "address"
        },
        {
          "internalType": "uint256",
          "name": "tokenId",
          "type": "uint256"
        }
      ],
      "name": "approve",
      "outputs": [],
      "stateMutability": "nonpayable",
      "type": "function"
    },
    {
      "inputs": [
        {
          "internalType": "bytes16",
          "name": "nonce",
          "type": "bytes16"
        },
        {
          "internalType": "bytes16",
          "name": "propositionId",
          "type": "bytes16"
        },
        {
          "internalType": "bytes16",
          "name": "marketId",
          "type": "bytes16"
        },
        {
          "internalType": "uint256",
          "name": "wager",
          "type": "uint256"
        },
        {
          "internalType": "uint256",
          "name": "odds",
          "type": "uint256"
        },
        {
          "internalType": "uint256",
          "name": "close",
          "type": "uint256"
        },
        {
          "internalType": "uint256",
          "name": "end",
          "type": "uint256"
        },
        {
          "components": [
            {
              "internalType": "uint8",
              "name": "v",
              "type": "uint8"
            },
            {
              "internalType": "bytes32",
              "name": "r",
              "type": "bytes32"
            },
            {
              "internalType": "bytes32",
              "name": "s",
              "type": "bytes32"
            }
          ],
          "internalType": "struct SignatureLib.Signature",
          "name": "signature",
          "type": "tuple"
        }
      ],
      "name": "back",
      "outputs": [
        {
          "internalType": "uint256",
          "name": "",
          "type": "uint256"
        }
      ],
      "stateMutability": "nonpayable",
      "type": "function"
    },
    {
      "inputs": [
        {
          "internalType": "address",
          "name": "owner",
          "type": "address"
        }
      ],
      "name": "balanceOf",
      "outputs": [
        {
          "internalType": "uint256",
          "name": "",
          "type": "uint256"
        }
      ],
      "stateMutability": "view",
      "type": "function"
    },
    {
      "inputs": [],
      "name": "baseURI",
      "outputs": [
        {
          "internalType": "string",
          "name": "",
          "type": "string"
        }
      ],
      "stateMutability": "view",
      "type": "function"
    },
    {
      "inputs": [
        {
          "internalType": "uint256",
          "name": "tokenId",
          "type": "uint256"
        }
      ],
      "name": "getApproved",
      "outputs": [
        {
          "internalType": "address",
          "name": "",
          "type": "address"
        }
      ],
      "stateMutability": "view",
      "type": "function"
    },
    {
      "inputs": [
        {
          "internalType": "uint64",
          "name": "index",
          "type": "uint64"
        }
      ],
      "name": "getBetByIndex",
      "outputs": [
        {
          "internalType": "uint256",
          "name": "",
          "type": "uint256"
        },
        {
          "internalType": "uint256",
          "name": "",
          "type": "uint256"
        },
        {
          "internalType": "uint256",
          "name": "",
          "type": "uint256"
        },
        {
          "internalType": "uint256",
          "name": "",
          "type": "uint256"
        },
        {
          "internalType": "bool",
          "name": "",
          "type": "bool"
        },
        {
          "internalType": "bytes16",
          "name": "",
          "type": "bytes16"
        },
        {
          "internalType": "bytes16",
          "name": "",
          "type": "bytes16"
        }
      ],
      "stateMutability": "view",
      "type": "function"
    },
    {
      "inputs": [],
      "name": "getCount",
      "outputs": [
        {
          "internalType": "uint64",
          "name": "",
          "type": "uint64"
        }
      ],
      "stateMutability": "view",
      "type": "function"
    },
    {
      "inputs": [
        {
          "internalType": "uint64",
          "name": "index",
          "type": "uint64"
        }
      ],
      "name": "getExpiry",
      "outputs": [
        {
          "internalType": "uint256",
          "name": "",
          "type": "uint256"
        }
      ],
      "stateMutability": "view",
      "type": "function"
    },
    {
      "inputs": [],
      "name": "getInPlayCount",
      "outputs": [
        {
          "internalType": "uint256",
          "name": "",
          "type": "uint256"
        }
      ],
      "stateMutability": "view",
      "type": "function"
    },
    {
      "inputs": [],
      "name": "getMargin",
      "outputs": [
        {
          "internalType": "uint8",
          "name": "",
          "type": "uint8"
        }
      ],
      "stateMutability": "view",
      "type": "function"
    },
    {
      "inputs": [
        {
          "internalType": "bytes16",
          "name": "marketId",
          "type": "bytes16"
        }
      ],
      "name": "getMarketCollateral",
      "outputs": [
        {
          "internalType": "uint256",
          "name": "",
          "type": "uint256"
        }
      ],
      "stateMutability": "view",
      "type": "function"
    },
    {
      "inputs": [
        {
          "internalType": "bytes16",
          "name": "marketId",
          "type": "bytes16"
        }
      ],
      "name": "getMarketTotal",
      "outputs": [
        {
          "internalType": "uint256",
          "name": "",
          "type": "uint256"
        }
      ],
      "stateMutability": "view",
      "type": "function"
    },
    {
      "inputs": [
        {
          "internalType": "uint256",
          "name": "wager",
          "type": "uint256"
        },
        {
          "internalType": "uint256",
          "name": "odds",
          "type": "uint256"
        },
        {
          "internalType": "bytes16",
          "name": "propositionId",
          "type": "bytes16"
        },
        {
          "internalType": "bytes16",
          "name": "marketId",
          "type": "bytes16"
        }
      ],
      "name": "getOdds",
      "outputs": [
        {
          "internalType": "uint256",
          "name": "",
          "type": "uint256"
        }
      ],
      "stateMutability": "view",
      "type": "function"
    },
    {
      "inputs": [],
      "name": "getOracleAddress",
      "outputs": [
        {
          "internalType": "address",
          "name": "",
          "type": "address"
        }
      ],
      "stateMutability": "view",
      "type": "function"
    },
    {
      "inputs": [
        {
          "internalType": "bytes16",
          "name": "propositionId",
          "type": "bytes16"
        },
        {
          "internalType": "bytes16",
          "name": "marketId",
          "type": "bytes16"
        },
        {
          "internalType": "uint256",
          "name": "wager",
          "type": "uint256"
        },
        {
          "internalType": "uint256",
          "name": "odds",
          "type": "uint256"
        }
      ],
      "name": "getPotentialPayout",
      "outputs": [
        {
          "internalType": "uint256",
          "name": "",
          "type": "uint256"
        }
      ],
      "stateMutability": "view",
      "type": "function"
    },
    {
      "inputs": [],
      "name": "getTotalExposure",
      "outputs": [
        {
          "internalType": "uint256",
          "name": "",
          "type": "uint256"
        }
      ],
      "stateMutability": "view",
      "type": "function"
    },
    {
      "inputs": [],
      "name": "getTotalInPlay",
      "outputs": [
        {
          "internalType": "uint256",
          "name": "",
          "type": "uint256"
        }
      ],
      "stateMutability": "view",
      "type": "function"
    },
    {
      "inputs": [],
      "name": "getVaultAddress",
      "outputs": [
        {
          "internalType": "address",
          "name": "",
          "type": "address"
        }
      ],
      "stateMutability": "view",
      "type": "function"
    },
    {
      "inputs": [
        {
          "internalType": "address",
          "name": "signer",
          "type": "address"
        }
      ],
      "name": "grantSigner",
      "outputs": [],
      "stateMutability": "nonpayable",
      "type": "function"
    },
    {
      "inputs": [
        {
          "internalType": "address",
          "name": "owner",
          "type": "address"
        },
        {
          "internalType": "address",
          "name": "operator",
          "type": "address"
        }
      ],
      "name": "isApprovedForAll",
      "outputs": [
        {
          "internalType": "bool",
          "name": "",
          "type": "bool"
        }
      ],
      "stateMutability": "view",
      "type": "function"
    },
    {
      "inputs": [
        {
          "internalType": "address",
          "name": "signer",
          "type": "address"
        }
      ],
      "name": "isSigner",
      "outputs": [
        {
          "internalType": "bool",
          "name": "",
          "type": "bool"
        }
      ],
      "stateMutability": "view",
      "type": "function"
    },
    {
      "inputs": [],
      "name": "name",
      "outputs": [
        {
          "internalType": "string",
          "name": "",
          "type": "string"
        }
      ],
      "stateMutability": "view",
      "type": "function"
    },
    {
      "inputs": [],
      "name": "owner",
      "outputs": [
        {
          "internalType": "address",
          "name": "",
          "type": "address"
        }
      ],
      "stateMutability": "view",
      "type": "function"
    },
    {
      "inputs": [
        {
          "internalType": "uint256",
          "name": "tokenId",
          "type": "uint256"
        }
      ],
      "name": "ownerOf",
      "outputs": [
        {
          "internalType": "address",
          "name": "",
          "type": "address"
        }
      ],
      "stateMutability": "view",
      "type": "function"
    },
    {
      "inputs": [],
      "name": "refundCollateral",
      "outputs": [],
      "stateMutability": "nonpayable",
      "type": "function"
    },
    {
      "inputs": [],
      "name": "renounceOwnership",
      "outputs": [],
      "stateMutability": "nonpayable",
      "type": "function"
    },
    {
      "inputs": [
        {
          "internalType": "address",
          "name": "signer",
          "type": "address"
        }
      ],
      "name": "revokeSigner",
      "outputs": [],
      "stateMutability": "nonpayable",
      "type": "function"
    },
    {
      "inputs": [
        {
          "internalType": "address",
          "name": "from",
          "type": "address"
        },
        {
          "internalType": "address",
          "name": "to",
          "type": "address"
        },
        {
          "internalType": "uint256",
          "name": "tokenId",
          "type": "uint256"
        }
      ],
      "name": "safeTransferFrom",
      "outputs": [],
      "stateMutability": "nonpayable",
      "type": "function"
    },
    {
      "inputs": [
        {
          "internalType": "address",
          "name": "from",
          "type": "address"
        },
        {
          "internalType": "address",
          "name": "to",
          "type": "address"
        },
        {
          "internalType": "uint256",
          "name": "tokenId",
          "type": "uint256"
        },
        {
          "internalType": "bytes",
          "name": "data",
          "type": "bytes"
        }
      ],
      "name": "safeTransferFrom",
      "outputs": [],
      "stateMutability": "nonpayable",
      "type": "function"
    },
    {
      "inputs": [
        {
          "internalType": "address",
          "name": "operator",
          "type": "address"
        },
        {
          "internalType": "bool",
          "name": "approved",
          "type": "bool"
        }
      ],
      "name": "setApprovalForAll",
      "outputs": [],
      "stateMutability": "nonpayable",
      "type": "function"
    },
    {
      "inputs": [
        {
          "internalType": "uint64",
          "name": "index",
          "type": "uint64"
        }
      ],
      "name": "settle",
      "outputs": [],
      "stateMutability": "nonpayable",
      "type": "function"
    },
    {
      "inputs": [
        {
          "internalType": "bytes16",
          "name": "marketId",
          "type": "bytes16"
        }
      ],
      "name": "settleMarket",
      "outputs": [],
      "stateMutability": "nonpayable",
      "type": "function"
    },
    {
      "inputs": [
        {
          "internalType": "bytes4",
          "name": "interfaceId",
          "type": "bytes4"
        }
      ],
      "name": "supportsInterface",
      "outputs": [
        {
          "internalType": "bool",
          "name": "",
          "type": "bool"
        }
      ],
      "stateMutability": "view",
      "type": "function"
    },
    {
      "inputs": [],
      "name": "symbol",
      "outputs": [
        {
          "internalType": "string",
          "name": "",
          "type": "string"
        }
      ],
      "stateMutability": "view",
      "type": "function"
    },
    {
      "inputs": [],
      "name": "timeout",
      "outputs": [
        {
          "internalType": "uint256",
          "name": "",
          "type": "uint256"
        }
      ],
      "stateMutability": "view",
      "type": "function"
    },
    {
      "inputs": [
        {
          "internalType": "uint256",
          "name": "tokenId",
          "type": "uint256"
        }
      ],
      "name": "tokenURI",
      "outputs": [
        {
          "internalType": "string",
          "name": "",
          "type": "string"
        }
      ],
      "stateMutability": "view",
      "type": "function"
    },
    {
      "inputs": [
        {
          "internalType": "address",
          "name": "from",
          "type": "address"
        },
        {
          "internalType": "address",
          "name": "to",
          "type": "address"
        },
        {
          "internalType": "uint256",
          "name": "tokenId",
          "type": "uint256"
        }
      ],
      "name": "transferFrom",
      "outputs": [],
      "stateMutability": "nonpayable",
      "type": "function"
    },
    {
      "inputs": [
        {
          "internalType": "address",
          "name": "newOwner",
          "type": "address"
        }
      ],
      "name": "transferOwnership",
      "outputs": [],
      "stateMutability": "nonpayable",
      "type": "function"
    }
  ],
  "transactionHash": "0x17f92817440b0e2a2545fc55b4c5321e1d0ef31c74c8ed435df7e640525370ac",
  "args": [
    "0x125399e180Df9710Da4207EF491C4110FD27EE1b",
    0,
    1,
    "0xf965c35CC9b58747598BC55eB77AE7902950E096"
  ],
  "numDeployments": 1,
  "solcInputHash": "32024476170e1905fab984b2cdbfa4c3",
  "bytecode": "0x6101206040523480156200001257600080fd5b5060405162004120380380620041208339810160408190526200003591620001ee565b838383836040518060400160405280601381526020017f486f727365204c696e6b2042657420536c6970000000000000000000000000008152506040518060400160405280600681526020016512130b50915560d21b815250620000a8620000a26200016a60201b60201c565b6200016e565b6001620000b68382620002f4565b506002620000c58282620002f4565b5050506001600160a01b038416620000e157620000e1620003c0565b3060c0526001600160a01b0384811660a05260ff8416608052811660e0526001600f6000620001186000546001600160a01b031690565b6001600160a01b031681526020810191909152604001600020805460ff19169115159190911790556200015260ff831662015180620003d6565b62ffffff166101005250620004109650505050505050565b3390565b600080546001600160a01b038381166001600160a01b0319831681178455604051919092169283917f8be0079c531659141344cd1fd0a4f28419497f9722a3daafe3b4186f6b6457e09190a35050565b6001600160a01b0381168114620001d457600080fd5b50565b805160ff81168114620001e957600080fd5b919050565b600080600080608085870312156200020557600080fd5b84516200021281620001be565b93506200022260208601620001d7565b92506200023260408601620001d7565b915060608501516200024481620001be565b939692955090935050565b634e487b7160e01b600052604160045260246000fd5b600181811c908216806200027a57607f821691505b6020821081036200029b57634e487b7160e01b600052602260045260246000fd5b50919050565b601f821115620002ef57600081815260208120601f850160051c81016020861015620002ca5750805b601f850160051c820191505b81811015620002eb57828155600101620002d6565b5050505b505050565b81516001600160401b038111156200031057620003106200024f565b620003288162000321845462000265565b84620002a1565b602080601f831160018114620003605760008415620003475750858301515b600019600386901b1c1916600185901b178555620002eb565b600085815260208120601f198616915b82811015620003915788860151825594840194600190910190840162000370565b5085821015620003b05787850151600019600388901b60f8161c191681555b5050505050600190811b01905550565b634e487b7160e01b600052600160045260246000fd5b600062ffffff808316818516818304811182151516156200040757634e487b7160e01b600052601160045260246000fd5b02949350505050565b60805160a05160c05160e05161010051613c5b620004c560003960008181610462015261239f015260008181610532015281816113d901528181611d7a0152612d3c0152600081816110c00152818161157201526125b60152600081816103c70152818161098901528181610a19015281816114ba01528181611b2b01528181611dfd015281816124f70152818161258e015281816129c701528181612a810152612ca6015260006103210152613c5b6000f3fe608060405234801561001057600080fd5b50600436106102325760003560e01c806370a0823111610130578063a22cb465116100b8578063c87b56dd1161007c578063c87b56dd1461057c578063c96121a81461058f578063e4650fac14610597578063e985e9c5146105aa578063f2fde38b146105e657600080fd5b8063a22cb465146104fd578063a87d942c14610510578063b18b78dd14610530578063b88d4fde14610556578063c34b44a01461056957600080fd5b806388bc76ba116100ff57806388bc76ba1461049f5780638ac6d217146104b25780638da5cb5b146104ba57806395d89b41146104cb578063a166895e146104d357600080fd5b806370a082311461044a57806370dea79a1461045d578063715018a6146104845780637df73e271461048c57600080fd5b806342842e0e116101be5780636352211e116101825780636352211e1461039f57806363c724f7146103b257806365cacaa4146103c55780636b467d15146103eb5780636c0360eb1461044257600080fd5b806342842e0e1461034b57806346e116a61461035e5780634b9ba4461461037157806358439479146103845780636028421f1461038c57600080fd5b806312fa3bf11161020557806312fa3bf1146102b4578063207b8b53146102ec5780632098b7ff146102ff57806323b872dd1461030757806325117b721461031a57600080fd5b806301ffc9a71461023757806306fdde031461025f578063081812fc14610274578063095ea7b31461029f575b600080fd5b61024a6102453660046132dc565b6105f9565b60405190151581526020015b60405180910390f35b61026761064b565b6040516102569190613351565b610287610282366004613364565b6106dd565b6040516001600160a01b039091168152602001610256565b6102b26102ad366004613392565b610704565b005b6102de6102c23660046133d4565b6001600160801b0319166000908152600a602052604090205490565b604051908152602001610256565b6102de6102fa3660046133f1565b61081e565b6102b2610911565b6102b261031536600461347d565b610aba565b60405160ff7f0000000000000000000000000000000000000000000000000000000000000000168152602001610256565b6102b261035936600461347d565b610aeb565b6102de61036c3660046134be565b610b06565b6102b261037f366004613508565b610b1f565b600d546102de565b6102de61039a366004613531565b610c19565b6102876103ad366004613364565b610c27565b6102b26103c0366004613577565b610c87565b7f0000000000000000000000000000000000000000000000000000000000000000610287565b6103fe6103f9366004613508565b610d15565b604080519788526020880196909652948601939093526060850191909152151560808401526001600160801b031990811660a08401521660c082015260e001610256565b610267610d40565b6102de610458366004613577565b610d5c565b6102de7f000000000000000000000000000000000000000000000000000000000000000081565b6102b2610de2565b61024a61049a366004613577565b610df6565b6102b26104ad3660046133d4565b610e17565b600e546102de565b6000546001600160a01b0316610287565b610267610fb9565b6102de6104e13660046133d4565b6001600160801b03191660009081526010602052604090205490565b6102b261050b3660046135a2565b610fc8565b610518610fd3565b6040516001600160401b039091168152602001610256565b7f0000000000000000000000000000000000000000000000000000000000000000610287565b6102b261056436600461366b565b610fe3565b6102b2610577366004613577565b611015565b61026761058a366004613364565b6110a0565b6007546102de565b6102de6105a5366004613508565b611120565b61024a6105b836600461372e565b6001600160a01b03918216600090815260066020908152604080832093909416825291909152205460ff1690565b6102b26105f4366004613577565b61112b565b60006001600160e01b031982166380ac58cd60e01b148061062a57506001600160e01b03198216635b5e139f60e01b145b8061064557506301ffc9a760e01b6001600160e01b03198316145b92915050565b60606001805461065a9061375c565b80601f01602080910402602001604051908101604052809291908181526020018280546106869061375c565b80156106d35780601f106106a8576101008083540402835291602001916106d3565b820191906000526020600020905b8154815290600101906020018083116106b657829003601f168201915b5050505050905090565b60006106e8826111a1565b506000908152600560205260409020546001600160a01b031690565b600061070f82610c27565b9050806001600160a01b0316836001600160a01b0316036107815760405162461bcd60e51b815260206004820152602160248201527f4552433732313a20617070726f76616c20746f2063757272656e74206f776e656044820152603960f91b60648201526084015b60405180910390fd5b336001600160a01b038216148061079d575061079d81336105b8565b61080f5760405162461bcd60e51b815260206004820152603d60248201527f4552433732313a20617070726f76652063616c6c6572206973206e6f7420746f60448201527f6b656e206f776e6572206f7220617070726f76656420666f7220616c6c0000006064820152608401610778565b6108198383611200565b505050565b604080516001600160801b0319808b166020830152808a166030830152881691810191909152605081018590526070810184905260908101839052600090819060b001604051602081830303815290604052805190602001209050610883818461126e565b15156001146108d45760405162461bcd60e51b815260206004820152601760248201527f6261636b3a20496e76616c6964207369676e61747572650000000000000000006044820152606401610778565b60006108e28a8a8a8a611325565b9050600081116108f4576108f4613796565b6109028a8a8a898986611361565b9b9a5050505050505050505050565b6109196118be565b600e546011541161097e5760405162461bcd60e51b815260206004820152602960248201527f726566756e64436f6c6c61746572616c3a204e6f20636f6c6c61746572616c206044820152681d1bc81c99599d5b9960ba1b6064820152608401610778565b600e546011819055507f00000000000000000000000000000000000000000000000000000000000000006001600160a01b03166338d52e0f6040518163ffffffff1660e01b8152600401602060405180830381865afa1580156109e5573d6000803e3d6000fd5b505050506040513d601f19601f82011682018060405250810190610a0991906137ac565b6001600160a01b031663a9059cbb7f0000000000000000000000000000000000000000000000000000000000000000600e54601154610a4891906137df565b6040516001600160e01b031960e085901b1681526001600160a01b03909216600483015260248201526044016020604051808303816000875af1158015610a93573d6000803e3d6000fd5b505050506040513d601f19601f82011682018060405250810190610ab791906137f6565b50565b610ac43382611918565b610ae05760405162461bcd60e51b815260040161077890613813565b610819838383611996565b61081983838360405180602001604052806000815250610fe3565b6000610b1485858585611b07565b90505b949350505050565b60006008826001600160401b031681548110610b3d57610b3d613860565b60009182526020918290206040805160e081018252600690930290910180546001600160801b0319608082811b82168652600160801b909204821b169484019490945260018101549183019190915260028101546060830152600381015492820192909252600482015460a082015260059091015460ff1615801560c0830152909150610c0c5760405162461bcd60e51b815260206004820152601f60248201527f736574746c653a204265742068617320616c726561647920736574746c6564006044820152606401610778565b610c1582611c28565b5050565b6000610b1485858585611325565b6000818152600360205260408120546001600160a01b0316806106455760405162461bcd60e51b8152602060048201526018602482015277115490cdcc8c4e881a5b9d985b1a59081d1bdad95b88125160421b6044820152606401610778565b610c8f6118be565b6001600160a01b038116610cf15760405162461bcd60e51b815260206004820152602360248201527f6772616e745369676e65723a20496e76616c6964207369676e6572206164647260448201526265737360e81b6064820152608401610778565b6001600160a01b03166000908152600f60205260409020805460ff19166001179055565b6000806000806000806000610d2988611f50565b959e949d50929b5090995097509550909350915050565b604051806060016040528060228152602001613c046022913981565b60006001600160a01b038216610dc65760405162461bcd60e51b815260206004820152602960248201527f4552433732313a2061646472657373207a65726f206973206e6f7420612076616044820152683634b21037bbb732b960b91b6064820152608401610778565b506001600160a01b031660009081526004602052604090205490565b610dea6118be565b610df46000612016565b565b6001600160a01b0381166000908152600f602052604081205460ff16610645565b6001600160801b03198116600090815260096020908152604080832080548251818502810185019093528083529192909190830182828015610eaa57602002820191906000526020600020906000905b82829054906101000a90046001600160401b03166001600160401b031681526020019060080190602082600701049283019260010382029150808411610e675790505b505083519394506000925050505b81816001600160401b03161015610fb357600083826001600160401b031681518110610ee657610ee6613860565b6020026020010151905060006008826001600160401b031681548110610f0e57610f0e613860565b600091825260208083206040805160e081018252600690940290910180546001600160801b0319608082811b82168752600160801b909204821b169385019390935260018101549184019190915260028101546060840152600381015491830191909152600481015460a08301526005015460ff16151560c082018190529092509003610f9e57610f9e82611c28565b50508080610fab90613876565b915050610eb8565b50505050565b60606002805461065a9061375c565b610c15338383612066565b6000610fde60085490565b905090565b610fed3383611918565b6110095760405162461bcd60e51b815260040161077890613813565b610fb384848484612134565b61101d6118be565b6001600160a01b03811661107f5760405162461bcd60e51b8152602060048201526024808201527f7265766f6b655369676e65723a20496e76616c6964207369676e6572206164646044820152637265737360e01b6064820152608401610778565b6001600160a01b03166000908152600f60205260409020805460ff19169055565b6060604051806060016040528060228152602001613c04602291396110ef7f00000000000000000000000000000000000000000000000000000000000000006001600160a01b03166014612167565b6110f884612309565b60405160200161110a9392919061389c565b6040516020818303038152906040529050919050565b60006106458261239b565b6111336118be565b6001600160a01b0381166111985760405162461bcd60e51b815260206004820152602660248201527f4f776e61626c653a206e6577206f776e657220697320746865207a65726f206160448201526564647265737360d01b6064820152608401610778565b610ab781612016565b6000818152600360205260409020546001600160a01b0316610ab75760405162461bcd60e51b8152602060048201526018602482015277115490cdcc8c4e881a5b9d985b1a59081d1bdad95b88125160421b6044820152606401610778565b600081815260056020526040902080546001600160a01b0319166001600160a01b038416908117909155819061123582610c27565b6001600160a01b03167f8c5be1e5ebec7d5bd14f71427d1e84f3dd0314c0f7b2291e5b200ac8c7c3b92560405160405180910390a45050565b60008073da270572f48a366bBDa85b095303c85eb88B1503635cff288d85856040518363ffffffff1660e01b81526004016112aa9291906138fb565b602060405180830381865af41580156112c7573d6000803e3d6000fd5b505050506040513d601f19601f820116820180604052508101906112eb91906137ac565b90506001600160a01b03811661130357611303613796565b6001600160a01b03166000908152600f602052604090205460ff169392505050565b60008061133484848888611b07565b905061135784620f42406113488285613932565b6113529190613951565b6123f6565b9695505050505050565b6000428311801561137157504284115b6113b25760405162461bcd60e51b81526020600482015260126024820152716261636b3a20496e76616c6964206461746560701b6044820152606401610778565b6040516306c77ce760e01b81526001600160801b03198088166004830152881660248201527f00000000000000000000000000000000000000000000000000000000000000006001600160a01b0316906306c77ce790604401602060405180830381865afa158015611428573d6000803e3d6000fd5b505050506040513d601f19601f8201168201806040525081019061144c9190613973565b60ff166002146114b65760405162461bcd60e51b815260206004820152602f60248201527f6261636b3a204f7261636c6520726573756c7420616c7265616479207365742060448201526e199bdc881d1a1a5cc81b585c9ad95d608a1b6064820152608401610778565b60007f00000000000000000000000000000000000000000000000000000000000000006001600160a01b03166338d52e0f6040518163ffffffff1660e01b8152600401602060405180830381865afa158015611516573d6000803e3d6000fd5b505050506040513d601f19601f8201168201806040525081019061153a91906137ac565b90506001600160a01b0381166323b872dd3360405160e083901b6001600160e01b03191681526001600160a01b0391821660048201527f00000000000000000000000000000000000000000000000000000000000000009091166024820152604481018990526064016020604051808303816000875af11580156115c2573d6000803e3d6000fd5b505050506040513d601f19601f820116820180604052508101906115e691906137f6565b506001600160801b031987166000908152600a602052604081208054889290611610908490613990565b9250508190555085600d60008282546116299190613990565b90915550506007805490600061163e836139a8565b90915550506001600160801b031988166000908152600c60205260408120805485929061166c908490613990565b9091555061167e90508789888661240c565b600e600082825461168f9190613990565b9091555050600880546040805160e0810182526001600160801b03198c811682528b1660208083018281528385018d8152606085018b815260808087018e81524260a08901908152600060c08a018181526001808e018f558e83529a519751851c600160801b029790941c9690961760068c027ff3f7a9fe364faab93b216da50a3214154f22a0a2b415b23a84c8169e8b636ee381019190915594517ff3f7a9fe364faab93b216da50a3214154f22a0a2b415b23a84c8169e8b636ee486015592517ff3f7a9fe364faab93b216da50a3214154f22a0a2b415b23a84c8169e8b636ee5850155517ff3f7a9fe364faab93b216da50a3214154f22a0a2b415b23a84c8169e8b636ee684015590517ff3f7a9fe364faab93b216da50a3214154f22a0a2b415b23a84c8169e8b636ee7830155517ff3f7a9fe364faab93b216da50a3214154f22a0a2b415b23a84c8169e8b636ee8909101805491151560ff199092169190911790559182526009815292812080549283018155815291909120600482040180546001600160401b0380851660039094169095026101000a8381029502191693909317909255906118459033906126aa565b604080516001600160401b03831681526001600160801b03198b811660208301528a16818301526060810189905260808101869052905133917f1d273ea6a1aea94de32fd06a09ab8046dff8e3261c5a4ecaa5e1a5705f3342ec919081900360a00190a26001600160401b031698975050505050505050565b6000546001600160a01b03163314610df45760405162461bcd60e51b815260206004820181905260248201527f4f776e61626c653a2063616c6c6572206973206e6f7420746865206f776e65726044820152606401610778565b60008061192483610c27565b9050806001600160a01b0316846001600160a01b0316148061196b57506001600160a01b0380821660009081526006602090815260408083209388168352929052205460ff165b80610b175750836001600160a01b0316611984846106dd565b6001600160a01b031614949350505050565b826001600160a01b03166119a982610c27565b6001600160a01b0316146119cf5760405162461bcd60e51b8152600401610778906139c1565b6001600160a01b038216611a315760405162461bcd60e51b8152602060048201526024808201527f4552433732313a207472616e7366657220746f20746865207a65726f206164646044820152637265737360e01b6064820152608401610778565b611a3e8383836001612843565b826001600160a01b0316611a5182610c27565b6001600160a01b031614611a775760405162461bcd60e51b8152600401610778906139c1565b600081815260056020908152604080832080546001600160a01b03199081169091556001600160a01b0387811680865260048552838620805460001901905590871680865283862080546001019055868652600390945282852080549092168417909155905184937fddf252ad1be2c89b69c2b068fc378daa952ba7f163c4a11628f55a4df523b3ef91a4505050565b6000600185111580611b1a575060018411155b15611b2757506001610b17565b60007f00000000000000000000000000000000000000000000000000000000000000006001600160a01b031663b15031fa6040518163ffffffff1660e01b8152600401602060405180830381865afa158015611b87573d6000803e3d6000fd5b505050506040513d601f19601f82011682018060405250810190611bab9190613a06565b905080600003611bbf576001915050610b17565b6001600160801b031984166000908152600c6020526040902054811015611bea576001915050610b17565b6001600160801b031984166000908152600c6020526040902054611c0e90826137df565b90506000611c1d8787846128cb565b979650505050505050565b60006008826001600160401b031681548110611c4657611c46613860565b60009182526020918290206040805160e081018252600690930290910180546001600160801b0319608082811b82168652600160801b909204821b16948401949094526001808201549284019290925260028101546060840152600381015493830193909352600483015460a083015260059092015460ff16151560c082015260088054919350906001600160401b038516908110611ce757611ce7613860565b60009182526020822060069190910201600501805460ff19169215159290921790915580611d148461239b565b421115611d4c5760019150611d31846001600160401b0316610c27565b9050611d47846001600160401b03166001612950565b611eb9565b602083015183516040516306c77ce760e01b81526001600160801b03199283166004820152911660248201527f00000000000000000000000000000000000000000000000000000000000000006001600160a01b0316906306c77ce790604401602060405180830381865afa158015611dc9573d6000803e3d6000fd5b505050506040513d601f19601f82011682018060405250810190611ded9190613973565b915060011960ff831601611e21577f0000000000000000000000000000000000000000000000000000000000000000611e33565b611e33846001600160401b0316610c27565b905060001960ff831601611e4c57611e4a84612cd8565b505b611e5f846001600160401b031683612950565b6008846001600160401b031681548110611e7b57611e7b613860565b906000526020600020906006020160010154600d6000828254611e9e91906137df565b909155505060078054906000611eb383613a1f565b91905055505b806001600160a01b03167f7c2e00429f610bdb997681cabbb0ef3197390c07fe90ea4a98ac36438dd4217c856008876001600160401b031681548110611f0157611f01613860565b600091825260209182902060026006909202010154604080516001600160401b0390941684529183015260ff86169082015260600160405180910390a2610fb3846001600160401b031661303e565b6000806000806000806000806008896001600160401b031681548110611f7857611f78613860565b60009182526020918290206040805160e0810182526006939093029091018054608081811b6001600160801b0319908116808752600160801b909304821b1695850186905260018301549385018490526002830154606086018190526003840154918601829052600484015460a0870181905260059094015460ff16151560c0909601869052939f939e509c50909a50919850919650945092505050565b600080546001600160a01b038381166001600160a01b0319831681178455604051919092169283917f8be0079c531659141344cd1fd0a4f28419497f9722a3daafe3b4186f6b6457e09190a35050565b816001600160a01b0316836001600160a01b0316036120c75760405162461bcd60e51b815260206004820152601960248201527f4552433732313a20617070726f766520746f2063616c6c6572000000000000006044820152606401610778565b6001600160a01b03838116600081815260066020908152604080832094871680845294825291829020805460ff191686151590811790915591519182527f17307eab39ab6107e8899845ad3d59bd9653f200f220920489ca2b5937696c31910160405180910390a3505050565b61213f848484611996565b61214b848484846130e1565b610fb35760405162461bcd60e51b815260040161077890613a36565b60606000612176836002613932565b612181906002613990565b6001600160401b03811115612198576121986135db565b6040519080825280601f01601f1916602001820160405280156121c2576020820181803683370190505b509050600360fc1b816000815181106121dd576121dd613860565b60200101906001600160f81b031916908160001a905350600f60fb1b8160018151811061220c5761220c613860565b60200101906001600160f81b031916908160001a9053506000612230846002613932565b61223b906001613990565b90505b60018111156122b3576f181899199a1a9b1b9c1cb0b131b232b360811b85600f166010811061226f5761226f613860565b1a60f81b82828151811061228557612285613860565b60200101906001600160f81b031916908160001a90535060049490941c936122ac81613a1f565b905061223e565b5083156123025760405162461bcd60e51b815260206004820181905260248201527f537472696e67733a20686578206c656e67746820696e73756666696369656e746044820152606401610778565b9392505050565b60606000612316836131df565b60010190506000816001600160401b03811115612335576123356135db565b6040519080825280601f01601f19166020018201604052801561235f576020820181803683370190505b5090508181016020015b600019016f181899199a1a9b1b9c1cb0b131b232b360811b600a86061a8153600a850494508461236957509392505050565b60007f00000000000000000000000000000000000000000000000000000000000000006008836001600160401b0316815481106123da576123da613860565b9060005260206000209060060201600301546106459190613990565b60008183116124055781612302565b5090919050565b6001600160801b031984166000908152600a602090815260408083205460109092528220548291829161243f9190613990565b6001600160801b031987166000908152600c602052604090205490915081101561268c576001600160801b031987811660009081526012602090815260408083208054851660808c901c1790559289168252600c9052908120546124a49083906137df565b90506000600e546011546124b891906137df565b905060006124c683836132b7565b905080600e60008282546124da9190613990565b9091555050828110156126565760006124f382856137df565b90507f00000000000000000000000000000000000000000000000000000000000000006001600160a01b03166338d52e0f6040518163ffffffff1660e01b8152600401602060405180830381865afa158015612553573d6000803e3d6000fd5b505050506040513d601f19601f8201168201806040525081019061257791906137ac565b6040516323b872dd60e01b81526001600160a01b037f0000000000000000000000000000000000000000000000000000000000000000811660048301527f0000000000000000000000000000000000000000000000000000000000000000811660248301526044820184905291909116906323b872dd906064016020604051808303816000875af1158015612610573d6000803e3d6000fd5b505050506040513d601f19601f8201168201806040525081019061263491906137f6565b50809550856011600082825461264a9190613990565b9091555061265a915050565b8294505b6001600160801b03198a1660009081526010602052604081208054859290612683908490613990565b90915550505050505b50600854600090815260136020526040902081905595945050505050565b6001600160a01b0382166127005760405162461bcd60e51b815260206004820181905260248201527f4552433732313a206d696e7420746f20746865207a65726f20616464726573736044820152606401610778565b6000818152600360205260409020546001600160a01b0316156127655760405162461bcd60e51b815260206004820152601c60248201527f4552433732313a20746f6b656e20616c7265616479206d696e746564000000006044820152606401610778565b612773600083836001612843565b6000818152600360205260409020546001600160a01b0316156127d85760405162461bcd60e51b815260206004820152601c60248201527f4552433732313a20746f6b656e20616c7265616479206d696e746564000000006044820152606401610778565b6001600160a01b038216600081815260046020908152604080832080546001019055848352600390915280822080546001600160a01b0319168417905551839291907fddf252ad1be2c89b69c2b068fc378daa952ba7f163c4a11628f55a4df523b3ef908290a45050565b6001811115610fb3576001600160a01b03841615612889576001600160a01b038416600090815260046020526040812080548392906128839084906137df565b90915550505b6001600160a01b03831615610fb3576001600160a01b038316600090815260046020526040812080548392906128c0908490613990565b909155505050505050565b60405163a19dec4360e01b8152600481018490526024810183905260448101829052600090739dCbCB00B3E30917A71d0DFb92b63Ba4c211E5Fc9063a19dec4390606401602060405180830381865af415801561292c573d6000803e3d6000fd5b505050506040513d601f19601f82011682018060405250810190610b179190613a06565b426008838154811061296457612964613860565b906000526020600020906006020160030154106129c35760405162461bcd60e51b815260206004820181905260248201527f5f7061796f75743a205061796f75742064617465206e6f7420726561636865646044820152606401610778565b60007f00000000000000000000000000000000000000000000000000000000000000006001600160a01b03166338d52e0f6040518163ffffffff1660e01b8152600401602060405180830381865afa158015612a23573d6000803e3d6000fd5b505050506040513d601f19601f82011682018060405250810190612a4791906137ac565b90506013600084815260200190815260200160002054600e6000828254612a6e91906137df565b909155505060021960ff831601612baf577f00000000000000000000000000000000000000000000000000000000000000006001600160a01b03166338d52e0f6040518163ffffffff1660e01b8152600401602060405180830381865afa158015612add573d6000803e3d6000fd5b505050506040513d601f19601f82011682018060405250810190612b0191906137ac565b6001600160a01b031663a9059cbb612b1885610c27565b60088681548110612b2b57612b2b613860565b60009182526020909120600160069092020101546040516001600160e01b031960e085901b1681526001600160a01b03909216600483015260248201526044015b6020604051808303816000875af1158015612b8b573d6000803e3d6000fd5b505050506040513d601f19601f82011682018060405250810190610fb391906137f6565b60001960ff831601612c955760088381548110612bce57612bce613860565b90600052602060002090600602016001015460088481548110612bf357612bf3613860565b906000526020600020906006020160020154612c0f91906137df565b60116000828254612c2091906137df565b90915550506001600160a01b03811663a9059cbb612c3d85610c27565b60088681548110612c5057612c50613860565b60009182526020909120600260069092020101546040516001600160e01b031960e085901b1681526001600160a01b0390921660048301526024820152604401612b6c565b806001600160a01b031663a9059cbb7f000000000000000000000000000000000000000000000000000000000000000060088681548110612b2b57612b2b613860565b6000806008836001600160401b031681548110612cf757612cf7613860565b60009182526020822060069190910201546040516325a8f38560e11b8152600160801b90910460801b6001600160801b03198116600483015292506001600160a01b037f00000000000000000000000000000000000000000000000000000000000000001690634b51e70a90602401600060405180830381865afa158015612d83573d6000803e3d6000fd5b505050506040513d6000823e601f3d908101601f19168201604052612dab9190810190613a88565b90506000806008866001600160401b031681548110612dcc57612dcc613860565b90600052602060002090600602016004015490506000836020015151905060005b81811015612e60578285602001518281518110612e0c57612e0c613860565b6020026020010151602001511115612e4e5784602001518181518110612e3457612e34613860565b60200260200101516040015184612e4b9190613990565b93505b80612e58816139a8565b915050612ded565b50600083118015612e9e575060006008886001600160401b031681548110612e8a57612e8a613860565b906000526020600020906006020160010154115b156130045760006008886001600160401b031681548110612ec157612ec1613860565b9060005260206000209060060201600101546008896001600160401b031681548110612eef57612eef613860565b906000526020600020906006020160020154612f0b9190613951565b604051637869dde560e11b815260048101829052602481018690526216e3606044820152909150600090739dCbCB00B3E30917A71d0DFb92b63Ba4c211E5Fc9063f0d3bbca90606401602060405180830381865af4158015612f71573d6000803e3d6000fd5b505050506040513d601f19601f82011682018060405250810190612f959190613a06565b90508060088a6001600160401b031681548110612fb457612fb4613860565b906000526020600020906006020160010154612fd09190613932565b60088a6001600160401b031681548110612fec57612fec613860565b90600052602060002090600602016002018190555050505b6008876001600160401b03168154811061302057613020613860565b90600052602060002090600602016002015495505050505050919050565b600061304982610c27565b9050613059816000846001612843565b61306282610c27565b600083815260056020908152604080832080546001600160a01b03199081169091556001600160a01b0385168085526004845282852080546000190190558785526003909352818420805490911690555192935084927fddf252ad1be2c89b69c2b068fc378daa952ba7f163c4a11628f55a4df523b3ef908390a45050565b60006001600160a01b0384163b156131d757604051630a85bd0160e11b81526001600160a01b0385169063150b7a0290613125903390899088908890600401613bb3565b6020604051808303816000875af1925050508015613160575060408051601f3d908101601f1916820190925261315d91810190613be6565b60015b6131bd573d80801561318e576040519150601f19603f3d011682016040523d82523d6000602084013e613193565b606091505b5080516000036131b55760405162461bcd60e51b815260040161077890613a36565b805181602001fd5b6001600160e01b031916630a85bd0160e11b149050610b17565b506001610b17565b60008072184f03e93ff9f4daa797ed6e38ed64bf6a1f0160401b831061321e5772184f03e93ff9f4daa797ed6e38ed64bf6a1f0160401b830492506040015b6d04ee2d6d415b85acef8100000000831061324a576d04ee2d6d415b85acef8100000000830492506020015b662386f26fc10000831061326857662386f26fc10000830492506010015b6305f5e1008310613280576305f5e100830492506008015b612710831061329457612710830492506004015b606483106132a6576064830492506002015b600a83106106455760010192915050565b60008183106124055781612302565b6001600160e01b031981168114610ab757600080fd5b6000602082840312156132ee57600080fd5b8135612302816132c6565b60005b838110156133145781810151838201526020016132fc565b83811115610fb35750506000910152565b6000815180845261333d8160208601602086016132f9565b601f01601f19169290920160200192915050565b6020815260006123026020830184613325565b60006020828403121561337657600080fd5b5035919050565b6001600160a01b0381168114610ab757600080fd5b600080604083850312156133a557600080fd5b82356133b08161337d565b946020939093013593505050565b6001600160801b031981168114610ab757600080fd5b6000602082840312156133e657600080fd5b8135612302816133be565b600080600080600080600080888a0361014081121561340f57600080fd5b893561341a816133be565b985060208a013561342a816133be565b975060408a013561343a816133be565b965060608a810135965060808b0135955060a08b0135945060c08b0135935060df198201121561346957600080fd5b5060e0890190509295985092959890939650565b60008060006060848603121561349257600080fd5b833561349d8161337d565b925060208401356134ad8161337d565b929592945050506040919091013590565b600080600080608085870312156134d457600080fd5b843593506020850135925060408501356134ed816133be565b915060608501356134fd816133be565b939692955090935050565b60006020828403121561351a57600080fd5b81356001600160401b038116811461230257600080fd5b6000806000806080858703121561354757600080fd5b8435613552816133be565b93506020850135613562816133be565b93969395505050506040820135916060013590565b60006020828403121561358957600080fd5b81356123028161337d565b8015158114610ab757600080fd5b600080604083850312156135b557600080fd5b82356135c08161337d565b915060208301356135d081613594565b809150509250929050565b634e487b7160e01b600052604160045260246000fd5b604080519081016001600160401b0381118282101715613613576136136135db565b60405290565b604051608081016001600160401b0381118282101715613613576136136135db565b604051601f8201601f191681016001600160401b0381118282101715613663576136636135db565b604052919050565b6000806000806080858703121561368157600080fd5b843561368c8161337d565b935060208581013561369d8161337d565b93506040860135925060608601356001600160401b03808211156136c057600080fd5b818801915088601f8301126136d457600080fd5b8135818111156136e6576136e66135db565b6136f8601f8201601f1916850161363b565b9150808252898482850101111561370e57600080fd5b808484018584013760008482840101525080935050505092959194509250565b6000806040838503121561374157600080fd5b823561374c8161337d565b915060208301356135d08161337d565b600181811c9082168061377057607f821691505b60208210810361379057634e487b7160e01b600052602260045260246000fd5b50919050565b634e487b7160e01b600052600160045260246000fd5b6000602082840312156137be57600080fd5b81516123028161337d565b634e487b7160e01b600052601160045260246000fd5b6000828210156137f1576137f16137c9565b500390565b60006020828403121561380857600080fd5b815161230281613594565b6020808252602d908201527f4552433732313a2063616c6c6572206973206e6f7420746f6b656e206f776e6560408201526c1c881bdc88185c1c1c9bdd9959609a1b606082015260800190565b634e487b7160e01b600052603260045260246000fd5b60006001600160401b03808316818103613892576138926137c9565b6001019392505050565b600084516138ae8184602089016132f9565b8451908301906138c28183602089016132f9565b602f60f81b910190815283516138df8160018401602088016132f9565b0160010195945050505050565b60ff81168114610ab757600080fd5b82815260808101823561390d816138ec565b60ff811660208401525060208301356040830152604083013560608301529392505050565b600081600019048311821515161561394c5761394c6137c9565b500290565b60008261396e57634e487b7160e01b600052601260045260246000fd5b500490565b60006020828403121561398557600080fd5b8151612302816138ec565b600082198211156139a3576139a36137c9565b500190565b6000600182016139ba576139ba6137c9565b5060010190565b60208082526025908201527f4552433732313a207472616e736665722066726f6d20696e636f72726563742060408201526437bbb732b960d91b606082015260800190565b600060208284031215613a1857600080fd5b5051919050565b600081613a2e57613a2e6137c9565b506000190190565b60208082526032908201527f4552433732313a207472616e7366657220746f206e6f6e20455243373231526560408201527131b2b4bb32b91034b6b83632b6b2b73a32b960711b606082015260800190565b60006020808385031215613a9b57600080fd5b82516001600160401b0380821115613ab257600080fd5b81850191506040808388031215613ac857600080fd5b613ad06135f1565b8351613adb816133be565b81528385015183811115613aee57600080fd5b80850194505087601f850112613b0357600080fd5b835183811115613b1557613b156135db565b613b23868260051b0161363b565b818152868101945060079190911b850186019089821115613b4357600080fd5b948601945b81861015613ba1576080868b031215613b615760008081fd5b613b69613619565b8651613b74816133be565b81528688015188820152848701518582015260608088015190820152855260809095019493860193613b48565b95820195909552979650505050505050565b6001600160a01b038581168252841660208201526040810183905260806060820181905260009061135790830184613325565b600060208284031215613bf857600080fd5b8151612302816132c656fe68747470733a2f2f616c7068612e686f7273652e6c696e6b2f6170692f626574732fa2646970667358221220a85f5843958cbf8bd79c6f5549e6a9bec89e3a977f9687b296f4c4bf13ecac0564736f6c634300080f0033",
  "deployedBytecode": "0x608060405234801561001057600080fd5b50600436106102325760003560e01c806370a0823111610130578063a22cb465116100b8578063c87b56dd1161007c578063c87b56dd1461057c578063c96121a81461058f578063e4650fac14610597578063e985e9c5146105aa578063f2fde38b146105e657600080fd5b8063a22cb465146104fd578063a87d942c14610510578063b18b78dd14610530578063b88d4fde14610556578063c34b44a01461056957600080fd5b806388bc76ba116100ff57806388bc76ba1461049f5780638ac6d217146104b25780638da5cb5b146104ba57806395d89b41146104cb578063a166895e146104d357600080fd5b806370a082311461044a57806370dea79a1461045d578063715018a6146104845780637df73e271461048c57600080fd5b806342842e0e116101be5780636352211e116101825780636352211e1461039f57806363c724f7146103b257806365cacaa4146103c55780636b467d15146103eb5780636c0360eb1461044257600080fd5b806342842e0e1461034b57806346e116a61461035e5780634b9ba4461461037157806358439479146103845780636028421f1461038c57600080fd5b806312fa3bf11161020557806312fa3bf1146102b4578063207b8b53146102ec5780632098b7ff146102ff57806323b872dd1461030757806325117b721461031a57600080fd5b806301ffc9a71461023757806306fdde031461025f578063081812fc14610274578063095ea7b31461029f575b600080fd5b61024a6102453660046132dc565b6105f9565b60405190151581526020015b60405180910390f35b61026761064b565b6040516102569190613351565b610287610282366004613364565b6106dd565b6040516001600160a01b039091168152602001610256565b6102b26102ad366004613392565b610704565b005b6102de6102c23660046133d4565b6001600160801b0319166000908152600a602052604090205490565b604051908152602001610256565b6102de6102fa3660046133f1565b61081e565b6102b2610911565b6102b261031536600461347d565b610aba565b60405160ff7f0000000000000000000000000000000000000000000000000000000000000000168152602001610256565b6102b261035936600461347d565b610aeb565b6102de61036c3660046134be565b610b06565b6102b261037f366004613508565b610b1f565b600d546102de565b6102de61039a366004613531565b610c19565b6102876103ad366004613364565b610c27565b6102b26103c0366004613577565b610c87565b7f0000000000000000000000000000000000000000000000000000000000000000610287565b6103fe6103f9366004613508565b610d15565b604080519788526020880196909652948601939093526060850191909152151560808401526001600160801b031990811660a08401521660c082015260e001610256565b610267610d40565b6102de610458366004613577565b610d5c565b6102de7f000000000000000000000000000000000000000000000000000000000000000081565b6102b2610de2565b61024a61049a366004613577565b610df6565b6102b26104ad3660046133d4565b610e17565b600e546102de565b6000546001600160a01b0316610287565b610267610fb9565b6102de6104e13660046133d4565b6001600160801b03191660009081526010602052604090205490565b6102b261050b3660046135a2565b610fc8565b610518610fd3565b6040516001600160401b039091168152602001610256565b7f0000000000000000000000000000000000000000000000000000000000000000610287565b6102b261056436600461366b565b610fe3565b6102b2610577366004613577565b611015565b61026761058a366004613364565b6110a0565b6007546102de565b6102de6105a5366004613508565b611120565b61024a6105b836600461372e565b6001600160a01b03918216600090815260066020908152604080832093909416825291909152205460ff1690565b6102b26105f4366004613577565b61112b565b60006001600160e01b031982166380ac58cd60e01b148061062a57506001600160e01b03198216635b5e139f60e01b145b8061064557506301ffc9a760e01b6001600160e01b03198316145b92915050565b60606001805461065a9061375c565b80601f01602080910402602001604051908101604052809291908181526020018280546106869061375c565b80156106d35780601f106106a8576101008083540402835291602001916106d3565b820191906000526020600020905b8154815290600101906020018083116106b657829003601f168201915b5050505050905090565b60006106e8826111a1565b506000908152600560205260409020546001600160a01b031690565b600061070f82610c27565b9050806001600160a01b0316836001600160a01b0316036107815760405162461bcd60e51b815260206004820152602160248201527f4552433732313a20617070726f76616c20746f2063757272656e74206f776e656044820152603960f91b60648201526084015b60405180910390fd5b336001600160a01b038216148061079d575061079d81336105b8565b61080f5760405162461bcd60e51b815260206004820152603d60248201527f4552433732313a20617070726f76652063616c6c6572206973206e6f7420746f60448201527f6b656e206f776e6572206f7220617070726f76656420666f7220616c6c0000006064820152608401610778565b6108198383611200565b505050565b604080516001600160801b0319808b166020830152808a166030830152881691810191909152605081018590526070810184905260908101839052600090819060b001604051602081830303815290604052805190602001209050610883818461126e565b15156001146108d45760405162461bcd60e51b815260206004820152601760248201527f6261636b3a20496e76616c6964207369676e61747572650000000000000000006044820152606401610778565b60006108e28a8a8a8a611325565b9050600081116108f4576108f4613796565b6109028a8a8a898986611361565b9b9a5050505050505050505050565b6109196118be565b600e546011541161097e5760405162461bcd60e51b815260206004820152602960248201527f726566756e64436f6c6c61746572616c3a204e6f20636f6c6c61746572616c206044820152681d1bc81c99599d5b9960ba1b6064820152608401610778565b600e546011819055507f00000000000000000000000000000000000000000000000000000000000000006001600160a01b03166338d52e0f6040518163ffffffff1660e01b8152600401602060405180830381865afa1580156109e5573d6000803e3d6000fd5b505050506040513d601f19601f82011682018060405250810190610a0991906137ac565b6001600160a01b031663a9059cbb7f0000000000000000000000000000000000000000000000000000000000000000600e54601154610a4891906137df565b6040516001600160e01b031960e085901b1681526001600160a01b03909216600483015260248201526044016020604051808303816000875af1158015610a93573d6000803e3d6000fd5b505050506040513d601f19601f82011682018060405250810190610ab791906137f6565b50565b610ac43382611918565b610ae05760405162461bcd60e51b815260040161077890613813565b610819838383611996565b61081983838360405180602001604052806000815250610fe3565b6000610b1485858585611b07565b90505b949350505050565b60006008826001600160401b031681548110610b3d57610b3d613860565b60009182526020918290206040805160e081018252600690930290910180546001600160801b0319608082811b82168652600160801b909204821b169484019490945260018101549183019190915260028101546060830152600381015492820192909252600482015460a082015260059091015460ff1615801560c0830152909150610c0c5760405162461bcd60e51b815260206004820152601f60248201527f736574746c653a204265742068617320616c726561647920736574746c6564006044820152606401610778565b610c1582611c28565b5050565b6000610b1485858585611325565b6000818152600360205260408120546001600160a01b0316806106455760405162461bcd60e51b8152602060048201526018602482015277115490cdcc8c4e881a5b9d985b1a59081d1bdad95b88125160421b6044820152606401610778565b610c8f6118be565b6001600160a01b038116610cf15760405162461bcd60e51b815260206004820152602360248201527f6772616e745369676e65723a20496e76616c6964207369676e6572206164647260448201526265737360e81b6064820152608401610778565b6001600160a01b03166000908152600f60205260409020805460ff19166001179055565b6000806000806000806000610d2988611f50565b959e949d50929b5090995097509550909350915050565b604051806060016040528060228152602001613c046022913981565b60006001600160a01b038216610dc65760405162461bcd60e51b815260206004820152602960248201527f4552433732313a2061646472657373207a65726f206973206e6f7420612076616044820152683634b21037bbb732b960b91b6064820152608401610778565b506001600160a01b031660009081526004602052604090205490565b610dea6118be565b610df46000612016565b565b6001600160a01b0381166000908152600f602052604081205460ff16610645565b6001600160801b03198116600090815260096020908152604080832080548251818502810185019093528083529192909190830182828015610eaa57602002820191906000526020600020906000905b82829054906101000a90046001600160401b03166001600160401b031681526020019060080190602082600701049283019260010382029150808411610e675790505b505083519394506000925050505b81816001600160401b03161015610fb357600083826001600160401b031681518110610ee657610ee6613860565b6020026020010151905060006008826001600160401b031681548110610f0e57610f0e613860565b600091825260208083206040805160e081018252600690940290910180546001600160801b0319608082811b82168752600160801b909204821b169385019390935260018101549184019190915260028101546060840152600381015491830191909152600481015460a08301526005015460ff16151560c082018190529092509003610f9e57610f9e82611c28565b50508080610fab90613876565b915050610eb8565b50505050565b60606002805461065a9061375c565b610c15338383612066565b6000610fde60085490565b905090565b610fed3383611918565b6110095760405162461bcd60e51b815260040161077890613813565b610fb384848484612134565b61101d6118be565b6001600160a01b03811661107f5760405162461bcd60e51b8152602060048201526024808201527f7265766f6b655369676e65723a20496e76616c6964207369676e6572206164646044820152637265737360e01b6064820152608401610778565b6001600160a01b03166000908152600f60205260409020805460ff19169055565b6060604051806060016040528060228152602001613c04602291396110ef7f00000000000000000000000000000000000000000000000000000000000000006001600160a01b03166014612167565b6110f884612309565b60405160200161110a9392919061389c565b6040516020818303038152906040529050919050565b60006106458261239b565b6111336118be565b6001600160a01b0381166111985760405162461bcd60e51b815260206004820152602660248201527f4f776e61626c653a206e6577206f776e657220697320746865207a65726f206160448201526564647265737360d01b6064820152608401610778565b610ab781612016565b6000818152600360205260409020546001600160a01b0316610ab75760405162461bcd60e51b8152602060048201526018602482015277115490cdcc8c4e881a5b9d985b1a59081d1bdad95b88125160421b6044820152606401610778565b600081815260056020526040902080546001600160a01b0319166001600160a01b038416908117909155819061123582610c27565b6001600160a01b03167f8c5be1e5ebec7d5bd14f71427d1e84f3dd0314c0f7b2291e5b200ac8c7c3b92560405160405180910390a45050565b60008073__$47464c6f7588c8075b5d384b19d082a8ec$__635cff288d85856040518363ffffffff1660e01b81526004016112aa9291906138fb565b602060405180830381865af41580156112c7573d6000803e3d6000fd5b505050506040513d601f19601f820116820180604052508101906112eb91906137ac565b90506001600160a01b03811661130357611303613796565b6001600160a01b03166000908152600f602052604090205460ff169392505050565b60008061133484848888611b07565b905061135784620f42406113488285613932565b6113529190613951565b6123f6565b9695505050505050565b6000428311801561137157504284115b6113b25760405162461bcd60e51b81526020600482015260126024820152716261636b3a20496e76616c6964206461746560701b6044820152606401610778565b6040516306c77ce760e01b81526001600160801b03198088166004830152881660248201527f00000000000000000000000000000000000000000000000000000000000000006001600160a01b0316906306c77ce790604401602060405180830381865afa158015611428573d6000803e3d6000fd5b505050506040513d601f19601f8201168201806040525081019061144c9190613973565b60ff166002146114b65760405162461bcd60e51b815260206004820152602f60248201527f6261636b3a204f7261636c6520726573756c7420616c7265616479207365742060448201526e199bdc881d1a1a5cc81b585c9ad95d608a1b6064820152608401610778565b60007f00000000000000000000000000000000000000000000000000000000000000006001600160a01b03166338d52e0f6040518163ffffffff1660e01b8152600401602060405180830381865afa158015611516573d6000803e3d6000fd5b505050506040513d601f19601f8201168201806040525081019061153a91906137ac565b90506001600160a01b0381166323b872dd3360405160e083901b6001600160e01b03191681526001600160a01b0391821660048201527f00000000000000000000000000000000000000000000000000000000000000009091166024820152604481018990526064016020604051808303816000875af11580156115c2573d6000803e3d6000fd5b505050506040513d601f19601f820116820180604052508101906115e691906137f6565b506001600160801b031987166000908152600a602052604081208054889290611610908490613990565b9250508190555085600d60008282546116299190613990565b90915550506007805490600061163e836139a8565b90915550506001600160801b031988166000908152600c60205260408120805485929061166c908490613990565b9091555061167e90508789888661240c565b600e600082825461168f9190613990565b9091555050600880546040805160e0810182526001600160801b03198c811682528b1660208083018281528385018d8152606085018b815260808087018e81524260a08901908152600060c08a018181526001808e018f558e83529a519751851c600160801b029790941c9690961760068c027ff3f7a9fe364faab93b216da50a3214154f22a0a2b415b23a84c8169e8b636ee381019190915594517ff3f7a9fe364faab93b216da50a3214154f22a0a2b415b23a84c8169e8b636ee486015592517ff3f7a9fe364faab93b216da50a3214154f22a0a2b415b23a84c8169e8b636ee5850155517ff3f7a9fe364faab93b216da50a3214154f22a0a2b415b23a84c8169e8b636ee684015590517ff3f7a9fe364faab93b216da50a3214154f22a0a2b415b23a84c8169e8b636ee7830155517ff3f7a9fe364faab93b216da50a3214154f22a0a2b415b23a84c8169e8b636ee8909101805491151560ff199092169190911790559182526009815292812080549283018155815291909120600482040180546001600160401b0380851660039094169095026101000a8381029502191693909317909255906118459033906126aa565b604080516001600160401b03831681526001600160801b03198b811660208301528a16818301526060810189905260808101869052905133917f1d273ea6a1aea94de32fd06a09ab8046dff8e3261c5a4ecaa5e1a5705f3342ec919081900360a00190a26001600160401b031698975050505050505050565b6000546001600160a01b03163314610df45760405162461bcd60e51b815260206004820181905260248201527f4f776e61626c653a2063616c6c6572206973206e6f7420746865206f776e65726044820152606401610778565b60008061192483610c27565b9050806001600160a01b0316846001600160a01b0316148061196b57506001600160a01b0380821660009081526006602090815260408083209388168352929052205460ff165b80610b175750836001600160a01b0316611984846106dd565b6001600160a01b031614949350505050565b826001600160a01b03166119a982610c27565b6001600160a01b0316146119cf5760405162461bcd60e51b8152600401610778906139c1565b6001600160a01b038216611a315760405162461bcd60e51b8152602060048201526024808201527f4552433732313a207472616e7366657220746f20746865207a65726f206164646044820152637265737360e01b6064820152608401610778565b611a3e8383836001612843565b826001600160a01b0316611a5182610c27565b6001600160a01b031614611a775760405162461bcd60e51b8152600401610778906139c1565b600081815260056020908152604080832080546001600160a01b03199081169091556001600160a01b0387811680865260048552838620805460001901905590871680865283862080546001019055868652600390945282852080549092168417909155905184937fddf252ad1be2c89b69c2b068fc378daa952ba7f163c4a11628f55a4df523b3ef91a4505050565b6000600185111580611b1a575060018411155b15611b2757506001610b17565b60007f00000000000000000000000000000000000000000000000000000000000000006001600160a01b031663b15031fa6040518163ffffffff1660e01b8152600401602060405180830381865afa158015611b87573d6000803e3d6000fd5b505050506040513d601f19601f82011682018060405250810190611bab9190613a06565b905080600003611bbf576001915050610b17565b6001600160801b031984166000908152600c6020526040902054811015611bea576001915050610b17565b6001600160801b031984166000908152600c6020526040902054611c0e90826137df565b90506000611c1d8787846128cb565b979650505050505050565b60006008826001600160401b031681548110611c4657611c46613860565b60009182526020918290206040805160e081018252600690930290910180546001600160801b0319608082811b82168652600160801b909204821b16948401949094526001808201549284019290925260028101546060840152600381015493830193909352600483015460a083015260059092015460ff16151560c082015260088054919350906001600160401b038516908110611ce757611ce7613860565b60009182526020822060069190910201600501805460ff19169215159290921790915580611d148461239b565b421115611d4c5760019150611d31846001600160401b0316610c27565b9050611d47846001600160401b03166001612950565b611eb9565b602083015183516040516306c77ce760e01b81526001600160801b03199283166004820152911660248201527f00000000000000000000000000000000000000000000000000000000000000006001600160a01b0316906306c77ce790604401602060405180830381865afa158015611dc9573d6000803e3d6000fd5b505050506040513d601f19601f82011682018060405250810190611ded9190613973565b915060011960ff831601611e21577f0000000000000000000000000000000000000000000000000000000000000000611e33565b611e33846001600160401b0316610c27565b905060001960ff831601611e4c57611e4a84612cd8565b505b611e5f846001600160401b031683612950565b6008846001600160401b031681548110611e7b57611e7b613860565b906000526020600020906006020160010154600d6000828254611e9e91906137df565b909155505060078054906000611eb383613a1f565b91905055505b806001600160a01b03167f7c2e00429f610bdb997681cabbb0ef3197390c07fe90ea4a98ac36438dd4217c856008876001600160401b031681548110611f0157611f01613860565b600091825260209182902060026006909202010154604080516001600160401b0390941684529183015260ff86169082015260600160405180910390a2610fb3846001600160401b031661303e565b6000806000806000806000806008896001600160401b031681548110611f7857611f78613860565b60009182526020918290206040805160e0810182526006939093029091018054608081811b6001600160801b0319908116808752600160801b909304821b1695850186905260018301549385018490526002830154606086018190526003840154918601829052600484015460a0870181905260059094015460ff16151560c0909601869052939f939e509c50909a50919850919650945092505050565b600080546001600160a01b038381166001600160a01b0319831681178455604051919092169283917f8be0079c531659141344cd1fd0a4f28419497f9722a3daafe3b4186f6b6457e09190a35050565b816001600160a01b0316836001600160a01b0316036120c75760405162461bcd60e51b815260206004820152601960248201527f4552433732313a20617070726f766520746f2063616c6c6572000000000000006044820152606401610778565b6001600160a01b03838116600081815260066020908152604080832094871680845294825291829020805460ff191686151590811790915591519182527f17307eab39ab6107e8899845ad3d59bd9653f200f220920489ca2b5937696c31910160405180910390a3505050565b61213f848484611996565b61214b848484846130e1565b610fb35760405162461bcd60e51b815260040161077890613a36565b60606000612176836002613932565b612181906002613990565b6001600160401b03811115612198576121986135db565b6040519080825280601f01601f1916602001820160405280156121c2576020820181803683370190505b509050600360fc1b816000815181106121dd576121dd613860565b60200101906001600160f81b031916908160001a905350600f60fb1b8160018151811061220c5761220c613860565b60200101906001600160f81b031916908160001a9053506000612230846002613932565b61223b906001613990565b90505b60018111156122b3576f181899199a1a9b1b9c1cb0b131b232b360811b85600f166010811061226f5761226f613860565b1a60f81b82828151811061228557612285613860565b60200101906001600160f81b031916908160001a90535060049490941c936122ac81613a1f565b905061223e565b5083156123025760405162461bcd60e51b815260206004820181905260248201527f537472696e67733a20686578206c656e67746820696e73756666696369656e746044820152606401610778565b9392505050565b60606000612316836131df565b60010190506000816001600160401b03811115612335576123356135db565b6040519080825280601f01601f19166020018201604052801561235f576020820181803683370190505b5090508181016020015b600019016f181899199a1a9b1b9c1cb0b131b232b360811b600a86061a8153600a850494508461236957509392505050565b60007f00000000000000000000000000000000000000000000000000000000000000006008836001600160401b0316815481106123da576123da613860565b9060005260206000209060060201600301546106459190613990565b60008183116124055781612302565b5090919050565b6001600160801b031984166000908152600a602090815260408083205460109092528220548291829161243f9190613990565b6001600160801b031987166000908152600c602052604090205490915081101561268c576001600160801b031987811660009081526012602090815260408083208054851660808c901c1790559289168252600c9052908120546124a49083906137df565b90506000600e546011546124b891906137df565b905060006124c683836132b7565b905080600e60008282546124da9190613990565b9091555050828110156126565760006124f382856137df565b90507f00000000000000000000000000000000000000000000000000000000000000006001600160a01b03166338d52e0f6040518163ffffffff1660e01b8152600401602060405180830381865afa158015612553573d6000803e3d6000fd5b505050506040513d601f19601f8201168201806040525081019061257791906137ac565b6040516323b872dd60e01b81526001600160a01b037f0000000000000000000000000000000000000000000000000000000000000000811660048301527f0000000000000000000000000000000000000000000000000000000000000000811660248301526044820184905291909116906323b872dd906064016020604051808303816000875af1158015612610573d6000803e3d6000fd5b505050506040513d601f19601f8201168201806040525081019061263491906137f6565b50809550856011600082825461264a9190613990565b9091555061265a915050565b8294505b6001600160801b03198a1660009081526010602052604081208054859290612683908490613990565b90915550505050505b50600854600090815260136020526040902081905595945050505050565b6001600160a01b0382166127005760405162461bcd60e51b815260206004820181905260248201527f4552433732313a206d696e7420746f20746865207a65726f20616464726573736044820152606401610778565b6000818152600360205260409020546001600160a01b0316156127655760405162461bcd60e51b815260206004820152601c60248201527f4552433732313a20746f6b656e20616c7265616479206d696e746564000000006044820152606401610778565b612773600083836001612843565b6000818152600360205260409020546001600160a01b0316156127d85760405162461bcd60e51b815260206004820152601c60248201527f4552433732313a20746f6b656e20616c7265616479206d696e746564000000006044820152606401610778565b6001600160a01b038216600081815260046020908152604080832080546001019055848352600390915280822080546001600160a01b0319168417905551839291907fddf252ad1be2c89b69c2b068fc378daa952ba7f163c4a11628f55a4df523b3ef908290a45050565b6001811115610fb3576001600160a01b03841615612889576001600160a01b038416600090815260046020526040812080548392906128839084906137df565b90915550505b6001600160a01b03831615610fb3576001600160a01b038316600090815260046020526040812080548392906128c0908490613990565b909155505050505050565b60405163a19dec4360e01b815260048101849052602481018390526044810182905260009073__$488e0037c7b108d422da68056570fe35d6$__9063a19dec4390606401602060405180830381865af415801561292c573d6000803e3d6000fd5b505050506040513d601f19601f82011682018060405250810190610b179190613a06565b426008838154811061296457612964613860565b906000526020600020906006020160030154106129c35760405162461bcd60e51b815260206004820181905260248201527f5f7061796f75743a205061796f75742064617465206e6f7420726561636865646044820152606401610778565b60007f00000000000000000000000000000000000000000000000000000000000000006001600160a01b03166338d52e0f6040518163ffffffff1660e01b8152600401602060405180830381865afa158015612a23573d6000803e3d6000fd5b505050506040513d601f19601f82011682018060405250810190612a4791906137ac565b90506013600084815260200190815260200160002054600e6000828254612a6e91906137df565b909155505060021960ff831601612baf577f00000000000000000000000000000000000000000000000000000000000000006001600160a01b03166338d52e0f6040518163ffffffff1660e01b8152600401602060405180830381865afa158015612add573d6000803e3d6000fd5b505050506040513d601f19601f82011682018060405250810190612b0191906137ac565b6001600160a01b031663a9059cbb612b1885610c27565b60088681548110612b2b57612b2b613860565b60009182526020909120600160069092020101546040516001600160e01b031960e085901b1681526001600160a01b03909216600483015260248201526044015b6020604051808303816000875af1158015612b8b573d6000803e3d6000fd5b505050506040513d601f19601f82011682018060405250810190610fb391906137f6565b60001960ff831601612c955760088381548110612bce57612bce613860565b90600052602060002090600602016001015460088481548110612bf357612bf3613860565b906000526020600020906006020160020154612c0f91906137df565b60116000828254612c2091906137df565b90915550506001600160a01b03811663a9059cbb612c3d85610c27565b60088681548110612c5057612c50613860565b60009182526020909120600260069092020101546040516001600160e01b031960e085901b1681526001600160a01b0390921660048301526024820152604401612b6c565b806001600160a01b031663a9059cbb7f000000000000000000000000000000000000000000000000000000000000000060088681548110612b2b57612b2b613860565b6000806008836001600160401b031681548110612cf757612cf7613860565b60009182526020822060069190910201546040516325a8f38560e11b8152600160801b90910460801b6001600160801b03198116600483015292506001600160a01b037f00000000000000000000000000000000000000000000000000000000000000001690634b51e70a90602401600060405180830381865afa158015612d83573d6000803e3d6000fd5b505050506040513d6000823e601f3d908101601f19168201604052612dab9190810190613a88565b90506000806008866001600160401b031681548110612dcc57612dcc613860565b90600052602060002090600602016004015490506000836020015151905060005b81811015612e60578285602001518281518110612e0c57612e0c613860565b6020026020010151602001511115612e4e5784602001518181518110612e3457612e34613860565b60200260200101516040015184612e4b9190613990565b93505b80612e58816139a8565b915050612ded565b50600083118015612e9e575060006008886001600160401b031681548110612e8a57612e8a613860565b906000526020600020906006020160010154115b156130045760006008886001600160401b031681548110612ec157612ec1613860565b9060005260206000209060060201600101546008896001600160401b031681548110612eef57612eef613860565b906000526020600020906006020160020154612f0b9190613951565b604051637869dde560e11b815260048101829052602481018690526216e360604482015290915060009073__$488e0037c7b108d422da68056570fe35d6$__9063f0d3bbca90606401602060405180830381865af4158015612f71573d6000803e3d6000fd5b505050506040513d601f19601f82011682018060405250810190612f959190613a06565b90508060088a6001600160401b031681548110612fb457612fb4613860565b906000526020600020906006020160010154612fd09190613932565b60088a6001600160401b031681548110612fec57612fec613860565b90600052602060002090600602016002018190555050505b6008876001600160401b03168154811061302057613020613860565b90600052602060002090600602016002015495505050505050919050565b600061304982610c27565b9050613059816000846001612843565b61306282610c27565b600083815260056020908152604080832080546001600160a01b03199081169091556001600160a01b0385168085526004845282852080546000190190558785526003909352818420805490911690555192935084927fddf252ad1be2c89b69c2b068fc378daa952ba7f163c4a11628f55a4df523b3ef908390a45050565b60006001600160a01b0384163b156131d757604051630a85bd0160e11b81526001600160a01b0385169063150b7a0290613125903390899088908890600401613bb3565b6020604051808303816000875af1925050508015613160575060408051601f3d908101601f1916820190925261315d91810190613be6565b60015b6131bd573d80801561318e576040519150601f19603f3d011682016040523d82523d6000602084013e613193565b606091505b5080516000036131b55760405162461bcd60e51b815260040161077890613a36565b805181602001fd5b6001600160e01b031916630a85bd0160e11b149050610b17565b506001610b17565b60008072184f03e93ff9f4daa797ed6e38ed64bf6a1f0160401b831061321e5772184f03e93ff9f4daa797ed6e38ed64bf6a1f0160401b830492506040015b6d04ee2d6d415b85acef8100000000831061324a576d04ee2d6d415b85acef8100000000830492506020015b662386f26fc10000831061326857662386f26fc10000830492506010015b6305f5e1008310613280576305f5e100830492506008015b612710831061329457612710830492506004015b606483106132a6576064830492506002015b600a83106106455760010192915050565b60008183106124055781612302565b6001600160e01b031981168114610ab757600080fd5b6000602082840312156132ee57600080fd5b8135612302816132c6565b60005b838110156133145781810151838201526020016132fc565b83811115610fb35750506000910152565b6000815180845261333d8160208601602086016132f9565b601f01601f19169290920160200192915050565b6020815260006123026020830184613325565b60006020828403121561337657600080fd5b5035919050565b6001600160a01b0381168114610ab757600080fd5b600080604083850312156133a557600080fd5b82356133b08161337d565b946020939093013593505050565b6001600160801b031981168114610ab757600080fd5b6000602082840312156133e657600080fd5b8135612302816133be565b600080600080600080600080888a0361014081121561340f57600080fd5b893561341a816133be565b985060208a013561342a816133be565b975060408a013561343a816133be565b965060608a810135965060808b0135955060a08b0135945060c08b0135935060df198201121561346957600080fd5b5060e0890190509295985092959890939650565b60008060006060848603121561349257600080fd5b833561349d8161337d565b925060208401356134ad8161337d565b929592945050506040919091013590565b600080600080608085870312156134d457600080fd5b843593506020850135925060408501356134ed816133be565b915060608501356134fd816133be565b939692955090935050565b60006020828403121561351a57600080fd5b81356001600160401b038116811461230257600080fd5b6000806000806080858703121561354757600080fd5b8435613552816133be565b93506020850135613562816133be565b93969395505050506040820135916060013590565b60006020828403121561358957600080fd5b81356123028161337d565b8015158114610ab757600080fd5b600080604083850312156135b557600080fd5b82356135c08161337d565b915060208301356135d081613594565b809150509250929050565b634e487b7160e01b600052604160045260246000fd5b604080519081016001600160401b0381118282101715613613576136136135db565b60405290565b604051608081016001600160401b0381118282101715613613576136136135db565b604051601f8201601f191681016001600160401b0381118282101715613663576136636135db565b604052919050565b6000806000806080858703121561368157600080fd5b843561368c8161337d565b935060208581013561369d8161337d565b93506040860135925060608601356001600160401b03808211156136c057600080fd5b818801915088601f8301126136d457600080fd5b8135818111156136e6576136e66135db565b6136f8601f8201601f1916850161363b565b9150808252898482850101111561370e57600080fd5b808484018584013760008482840101525080935050505092959194509250565b6000806040838503121561374157600080fd5b823561374c8161337d565b915060208301356135d08161337d565b600181811c9082168061377057607f821691505b60208210810361379057634e487b7160e01b600052602260045260246000fd5b50919050565b634e487b7160e01b600052600160045260246000fd5b6000602082840312156137be57600080fd5b81516123028161337d565b634e487b7160e01b600052601160045260246000fd5b6000828210156137f1576137f16137c9565b500390565b60006020828403121561380857600080fd5b815161230281613594565b6020808252602d908201527f4552433732313a2063616c6c6572206973206e6f7420746f6b656e206f776e6560408201526c1c881bdc88185c1c1c9bdd9959609a1b606082015260800190565b634e487b7160e01b600052603260045260246000fd5b60006001600160401b03808316818103613892576138926137c9565b6001019392505050565b600084516138ae8184602089016132f9565b8451908301906138c28183602089016132f9565b602f60f81b910190815283516138df8160018401602088016132f9565b0160010195945050505050565b60ff81168114610ab757600080fd5b82815260808101823561390d816138ec565b60ff811660208401525060208301356040830152604083013560608301529392505050565b600081600019048311821515161561394c5761394c6137c9565b500290565b60008261396e57634e487b7160e01b600052601260045260246000fd5b500490565b60006020828403121561398557600080fd5b8151612302816138ec565b600082198211156139a3576139a36137c9565b500190565b6000600182016139ba576139ba6137c9565b5060010190565b60208082526025908201527f4552433732313a207472616e736665722066726f6d20696e636f72726563742060408201526437bbb732b960d91b606082015260800190565b600060208284031215613a1857600080fd5b5051919050565b600081613a2e57613a2e6137c9565b506000190190565b60208082526032908201527f4552433732313a207472616e7366657220746f206e6f6e20455243373231526560408201527131b2b4bb32b91034b6b83632b6b2b73a32b960711b606082015260800190565b60006020808385031215613a9b57600080fd5b82516001600160401b0380821115613ab257600080fd5b81850191506040808388031215613ac857600080fd5b613ad06135f1565b8351613adb816133be565b81528385015183811115613aee57600080fd5b80850194505087601f850112613b0357600080fd5b835183811115613b1557613b156135db565b613b23868260051b0161363b565b818152868101945060079190911b850186019089821115613b4357600080fd5b948601945b81861015613ba1576080868b031215613b615760008081fd5b613b69613619565b8651613b74816133be565b81528688015188820152848701518582015260608088015190820152855260809095019493860193613b48565b95820195909552979650505050505050565b6001600160a01b038581168252841660208201526040810183905260806060820181905260009061135790830184613325565b600060208284031215613bf857600080fd5b8151612302816132c656fe68747470733a2f2f616c7068612e686f7273652e6c696e6b2f6170692f626574732fa2646970667358221220a85f5843958cbf8bd79c6f5549e6a9bec89e3a977f9687b296f4c4bf13ecac0564736f6c634300080f0033",
  "libraries": {
    "SignatureLib": "0xda270572f48a366bBDa85b095303c85eb88B1503",
    "OddsLib": "0x9dCbCB00B3E30917A71d0DFb92b63Ba4c211E5Fc"
  },
  "devdoc": {
    "kind": "dev",
    "methods": {
      "approve(address,uint256)": {
        "details": "See {IERC721-approve}."
      },
      "balanceOf(address)": {
        "details": "See {IERC721-balanceOf}."
      },
      "getApproved(uint256)": {
        "details": "See {IERC721-getApproved}."
      },
      "isApprovedForAll(address,address)": {
        "details": "See {IERC721-isApprovedForAll}."
      },
      "name()": {
        "details": "See {IERC721Metadata-name}."
      },
      "owner()": {
        "details": "Returns the address of the current owner."
      },
      "ownerOf(uint256)": {
        "details": "See {IERC721-ownerOf}."
      },
      "renounceOwnership()": {
        "details": "Leaves the contract without owner. It will not be possible to call `onlyOwner` functions anymore. Can only be called by the current owner. NOTE: Renouncing ownership will leave the contract without an owner, thereby removing any functionality that is only available to the owner."
      },
      "safeTransferFrom(address,address,uint256)": {
        "details": "See {IERC721-safeTransferFrom}."
      },
      "safeTransferFrom(address,address,uint256,bytes)": {
        "details": "See {IERC721-safeTransferFrom}."
      },
      "setApprovalForAll(address,bool)": {
        "details": "See {IERC721-setApprovalForAll}."
      },
      "supportsInterface(bytes4)": {
        "details": "See {IERC165-supportsInterface}."
      },
      "symbol()": {
        "details": "See {IERC721Metadata-symbol}."
      },
      "tokenURI(uint256)": {
        "details": "See {IERC721Metadata-tokenURI}."
      },
      "transferFrom(address,address,uint256)": {
        "details": "See {IERC721-transferFrom}."
      },
      "transferOwnership(address)": {
        "details": "Transfers ownership of the contract to a new account (`newOwner`). Can only be called by the current owner."
      }
    },
    "version": 1
  },
  "userdoc": {
    "kind": "user",
    "methods": {},
    "version": 1
  },
  "storageLayout": {
    "storage": [
      {
        "astId": 2722,
        "contract": "contracts/presets/MarketCollateralisedLinear.sol:MarketCollateralisedLinear",
        "label": "_owner",
        "offset": 0,
        "slot": "0",
        "type": "t_address"
      },
      {
        "astId": 5039,
        "contract": "contracts/presets/MarketCollateralisedLinear.sol:MarketCollateralisedLinear",
        "label": "_name",
        "offset": 0,
        "slot": "1",
        "type": "t_string_storage"
      },
      {
        "astId": 5041,
        "contract": "contracts/presets/MarketCollateralisedLinear.sol:MarketCollateralisedLinear",
        "label": "_symbol",
        "offset": 0,
        "slot": "2",
        "type": "t_string_storage"
      },
      {
        "astId": 5045,
        "contract": "contracts/presets/MarketCollateralisedLinear.sol:MarketCollateralisedLinear",
        "label": "_owners",
        "offset": 0,
        "slot": "3",
        "type": "t_mapping(t_uint256,t_address)"
      },
      {
        "astId": 5049,
        "contract": "contracts/presets/MarketCollateralisedLinear.sol:MarketCollateralisedLinear",
        "label": "_balances",
        "offset": 0,
        "slot": "4",
        "type": "t_mapping(t_address,t_uint256)"
      },
      {
        "astId": 5053,
        "contract": "contracts/presets/MarketCollateralisedLinear.sol:MarketCollateralisedLinear",
        "label": "_tokenApprovals",
        "offset": 0,
        "slot": "5",
        "type": "t_mapping(t_uint256,t_address)"
      },
      {
        "astId": 5059,
        "contract": "contracts/presets/MarketCollateralisedLinear.sol:MarketCollateralisedLinear",
        "label": "_operatorApprovals",
        "offset": 0,
        "slot": "6",
        "type": "t_mapping(t_address,t_mapping(t_address,t_bool))"
      },
      {
        "astId": 11409,
        "contract": "contracts/presets/MarketCollateralisedLinear.sol:MarketCollateralisedLinear",
        "label": "_inplayCount",
        "offset": 0,
        "slot": "7",
        "type": "t_uint256"
      },
      {
        "astId": 11413,
        "contract": "contracts/presets/MarketCollateralisedLinear.sol:MarketCollateralisedLinear",
        "label": "_bets",
        "offset": 0,
        "slot": "8",
        "type": "t_array(t_struct(Bet)11382_storage)dyn_storage"
      },
      {
        "astId": 11418,
        "contract": "contracts/presets/MarketCollateralisedLinear.sol:MarketCollateralisedLinear",
        "label": "_marketBets",
        "offset": 0,
        "slot": "9",
        "type": "t_mapping(t_bytes16,t_array(t_uint64)dyn_storage)"
      },
      {
        "astId": 11422,
        "contract": "contracts/presets/MarketCollateralisedLinear.sol:MarketCollateralisedLinear",
        "label": "_marketTotal",
        "offset": 0,
        "slot": "10",
        "type": "t_mapping(t_bytes16,t_uint256)"
      },
      {
        "astId": 11428,
        "contract": "contracts/presets/MarketCollateralisedLinear.sol:MarketCollateralisedLinear",
        "label": "_marketBetAmount",
        "offset": 0,
        "slot": "11",
        "type": "t_mapping(t_bytes16,t_mapping(t_uint16,t_uint256))"
      },
      {
        "astId": 11432,
        "contract": "contracts/presets/MarketCollateralisedLinear.sol:MarketCollateralisedLinear",
        "label": "_potentialPayout",
        "offset": 0,
        "slot": "12",
        "type": "t_mapping(t_bytes16,t_uint256)"
      },
      {
        "astId": 11434,
        "contract": "contracts/presets/MarketCollateralisedLinear.sol:MarketCollateralisedLinear",
        "label": "_totalInPlay",
        "offset": 0,
        "slot": "13",
        "type": "t_uint256"
      },
      {
        "astId": 11436,
        "contract": "contracts/presets/MarketCollateralisedLinear.sol:MarketCollateralisedLinear",
        "label": "_totalExposure",
        "offset": 0,
        "slot": "14",
        "type": "t_uint256"
      },
      {
        "astId": 11442,
        "contract": "contracts/presets/MarketCollateralisedLinear.sol:MarketCollateralisedLinear",
        "label": "_signers",
        "offset": 0,
        "slot": "15",
        "type": "t_mapping(t_address,t_bool)"
      },
      {
        "astId": 12673,
        "contract": "contracts/presets/MarketCollateralisedLinear.sol:MarketCollateralisedLinear",
        "label": "_marketCollateral",
        "offset": 0,
        "slot": "16",
        "type": "t_mapping(t_bytes16,t_uint256)"
      },
      {
        "astId": 12675,
        "contract": "contracts/presets/MarketCollateralisedLinear.sol:MarketCollateralisedLinear",
        "label": "_totalCollateral",
        "offset": 0,
        "slot": "17",
        "type": "t_uint256"
      },
      {
        "astId": 12679,
        "contract": "contracts/presets/MarketCollateralisedLinear.sol:MarketCollateralisedLinear",
        "label": "_mostExpensivePropositionId",
        "offset": 0,
        "slot": "18",
        "type": "t_mapping(t_bytes16,t_bytes16)"
      },
      {
        "astId": 12683,
        "contract": "contracts/presets/MarketCollateralisedLinear.sol:MarketCollateralisedLinear",
        "label": "_betExposure",
        "offset": 0,
        "slot": "19",
        "type": "t_mapping(t_uint256,t_uint256)"
      }
    ],
    "types": {
      "t_address": {
        "encoding": "inplace",
        "label": "address",
        "numberOfBytes": "20"
      },
      "t_array(t_struct(Bet)11382_storage)dyn_storage": {
        "base": "t_struct(Bet)11382_storage",
        "encoding": "dynamic_array",
        "label": "struct Bet[]",
        "numberOfBytes": "32"
      },
      "t_array(t_uint64)dyn_storage": {
        "base": "t_uint64",
        "encoding": "dynamic_array",
        "label": "uint64[]",
        "numberOfBytes": "32"
      },
      "t_bool": {
        "encoding": "inplace",
        "label": "bool",
        "numberOfBytes": "1"
      },
      "t_bytes16": {
        "encoding": "inplace",
        "label": "bytes16",
        "numberOfBytes": "16"
      },
      "t_mapping(t_address,t_bool)": {
        "encoding": "mapping",
        "key": "t_address",
        "label": "mapping(address => bool)",
        "numberOfBytes": "32",
        "value": "t_bool"
      },
      "t_mapping(t_address,t_mapping(t_address,t_bool))": {
        "encoding": "mapping",
        "key": "t_address",
        "label": "mapping(address => mapping(address => bool))",
        "numberOfBytes": "32",
        "value": "t_mapping(t_address,t_bool)"
      },
      "t_mapping(t_address,t_uint256)": {
        "encoding": "mapping",
        "key": "t_address",
        "label": "mapping(address => uint256)",
        "numberOfBytes": "32",
        "value": "t_uint256"
      },
      "t_mapping(t_bytes16,t_array(t_uint64)dyn_storage)": {
        "encoding": "mapping",
        "key": "t_bytes16",
        "label": "mapping(bytes16 => uint64[])",
        "numberOfBytes": "32",
        "value": "t_array(t_uint64)dyn_storage"
      },
      "t_mapping(t_bytes16,t_bytes16)": {
        "encoding": "mapping",
        "key": "t_bytes16",
        "label": "mapping(bytes16 => bytes16)",
        "numberOfBytes": "32",
        "value": "t_bytes16"
      },
      "t_mapping(t_bytes16,t_mapping(t_uint16,t_uint256))": {
        "encoding": "mapping",
        "key": "t_bytes16",
        "label": "mapping(bytes16 => mapping(uint16 => uint256))",
        "numberOfBytes": "32",
        "value": "t_mapping(t_uint16,t_uint256)"
      },
      "t_mapping(t_bytes16,t_uint256)": {
        "encoding": "mapping",
        "key": "t_bytes16",
        "label": "mapping(bytes16 => uint256)",
        "numberOfBytes": "32",
        "value": "t_uint256"
      },
      "t_mapping(t_uint16,t_uint256)": {
        "encoding": "mapping",
        "key": "t_uint16",
        "label": "mapping(uint16 => uint256)",
        "numberOfBytes": "32",
        "value": "t_uint256"
      },
      "t_mapping(t_uint256,t_address)": {
        "encoding": "mapping",
        "key": "t_uint256",
        "label": "mapping(uint256 => address)",
        "numberOfBytes": "32",
        "value": "t_address"
      },
      "t_mapping(t_uint256,t_uint256)": {
        "encoding": "mapping",
        "key": "t_uint256",
        "label": "mapping(uint256 => uint256)",
        "numberOfBytes": "32",
        "value": "t_uint256"
      },
      "t_string_storage": {
        "encoding": "bytes",
        "label": "string",
        "numberOfBytes": "32"
      },
      "t_struct(Bet)11382_storage": {
        "encoding": "inplace",
        "label": "struct Bet",
        "members": [
          {
            "astId": 11369,
            "contract": "contracts/presets/MarketCollateralisedLinear.sol:MarketCollateralisedLinear",
            "label": "propositionId",
            "offset": 0,
            "slot": "0",
            "type": "t_bytes16"
          },
          {
            "astId": 11371,
            "contract": "contracts/presets/MarketCollateralisedLinear.sol:MarketCollateralisedLinear",
            "label": "marketId",
            "offset": 16,
            "slot": "0",
            "type": "t_bytes16"
          },
          {
            "astId": 11373,
            "contract": "contracts/presets/MarketCollateralisedLinear.sol:MarketCollateralisedLinear",
            "label": "amount",
            "offset": 0,
            "slot": "1",
            "type": "t_uint256"
          },
          {
            "astId": 11375,
            "contract": "contracts/presets/MarketCollateralisedLinear.sol:MarketCollateralisedLinear",
            "label": "payout",
            "offset": 0,
            "slot": "2",
            "type": "t_uint256"
          },
          {
            "astId": 11377,
            "contract": "contracts/presets/MarketCollateralisedLinear.sol:MarketCollateralisedLinear",
            "label": "payoutDate",
            "offset": 0,
            "slot": "3",
            "type": "t_uint256"
          },
          {
            "astId": 11379,
            "contract": "contracts/presets/MarketCollateralisedLinear.sol:MarketCollateralisedLinear",
            "label": "created",
            "offset": 0,
            "slot": "4",
            "type": "t_uint256"
          },
          {
            "astId": 11381,
            "contract": "contracts/presets/MarketCollateralisedLinear.sol:MarketCollateralisedLinear",
            "label": "settled",
            "offset": 0,
            "slot": "5",
            "type": "t_bool"
          }
        ],
        "numberOfBytes": "192"
      },
      "t_uint16": {
        "encoding": "inplace",
        "label": "uint16",
        "numberOfBytes": "2"
      },
      "t_uint256": {
        "encoding": "inplace",
        "label": "uint256",
        "numberOfBytes": "32"
      },
      "t_uint64": {
        "encoding": "inplace",
        "label": "uint64",
        "numberOfBytes": "8"
      }
    }
  }
}