{
  "address": "0x137a5dECbb02Db28b12d3a5a7c659e9d9b175c0c",
  "abi": [
    {
      "inputs": [
        {
          "internalType": "contract IVault",
          "name": "vault",
          "type": "address"
        },
        {
          "internalType": "uint8",
          "name": "margin",
          "type": "uint8"
        },
        {
          "internalType": "address",
          "name": "oracle",
          "type": "address"
        }
      ],
      "stateMutability": "nonpayable",
      "type": "constructor"
    },
    {
      "anonymous": false,
      "inputs": [
        {
          "indexed": true,
          "internalType": "address",
          "name": "owner",
          "type": "address"
        },
        {
          "indexed": true,
          "internalType": "address",
          "name": "approved",
          "type": "address"
        },
        {
          "indexed": true,
          "internalType": "uint256",
          "name": "tokenId",
          "type": "uint256"
        }
      ],
      "name": "Approval",
      "type": "event"
    },
    {
      "anonymous": false,
      "inputs": [
        {
          "indexed": true,
          "internalType": "address",
          "name": "owner",
          "type": "address"
        },
        {
          "indexed": true,
          "internalType": "address",
          "name": "operator",
          "type": "address"
        },
        {
          "indexed": false,
          "internalType": "bool",
          "name": "approved",
          "type": "bool"
        }
      ],
      "name": "ApprovalForAll",
      "type": "event"
    },
    {
      "anonymous": false,
      "inputs": [
        {
          "indexed": true,
          "internalType": "address",
          "name": "previousOwner",
          "type": "address"
        },
        {
          "indexed": true,
          "internalType": "address",
          "name": "newOwner",
          "type": "address"
        }
      ],
      "name": "OwnershipTransferred",
      "type": "event"
    },
    {
      "anonymous": false,
      "inputs": [
        {
          "indexed": false,
          "internalType": "uint256",
          "name": "index",
          "type": "uint256"
        },
        {
          "indexed": false,
          "internalType": "bytes16",
          "name": "propositionId",
          "type": "bytes16"
        },
        {
          "indexed": false,
          "internalType": "bytes16",
          "name": "marketId",
          "type": "bytes16"
        },
        {
          "indexed": false,
          "internalType": "uint256",
          "name": "amount",
          "type": "uint256"
        },
        {
          "indexed": false,
          "internalType": "uint256",
          "name": "payout",
          "type": "uint256"
        },
        {
          "indexed": true,
          "internalType": "address",
          "name": "owner",
          "type": "address"
        }
      ],
      "name": "Placed",
      "type": "event"
    },
    {
      "anonymous": false,
      "inputs": [
        {
          "indexed": false,
          "internalType": "uint256",
          "name": "id",
          "type": "uint256"
        },
        {
          "indexed": false,
          "internalType": "uint256",
          "name": "payout",
          "type": "uint256"
        },
        {
          "indexed": false,
          "internalType": "bool",
          "name": "result",
          "type": "bool"
        },
        {
          "indexed": true,
          "internalType": "address",
          "name": "owner",
          "type": "address"
        }
      ],
      "name": "Settled",
      "type": "event"
    },
    {
      "anonymous": false,
      "inputs": [
        {
          "indexed": true,
          "internalType": "address",
          "name": "from",
          "type": "address"
        },
        {
          "indexed": true,
          "internalType": "address",
          "name": "to",
          "type": "address"
        },
        {
          "indexed": true,
          "internalType": "uint256",
          "name": "tokenId",
          "type": "uint256"
        }
      ],
      "name": "Transfer",
      "type": "event"
    },
    {
      "inputs": [
        {
          "internalType": "address",
          "name": "to",
          "type": "address"
        },
        {
          "internalType": "uint256",
          "name": "tokenId",
          "type": "uint256"
        }
      ],
      "name": "approve",
      "outputs": [],
      "stateMutability": "nonpayable",
      "type": "function"
    },
    {
      "inputs": [
        {
          "internalType": "bytes16",
          "name": "nonce",
          "type": "bytes16"
        },
        {
          "internalType": "bytes16",
          "name": "propositionId",
          "type": "bytes16"
        },
        {
          "internalType": "bytes16",
          "name": "marketId",
          "type": "bytes16"
        },
        {
          "internalType": "uint256",
          "name": "wager",
          "type": "uint256"
        },
        {
          "internalType": "uint256",
          "name": "odds",
          "type": "uint256"
        },
        {
          "internalType": "uint256",
          "name": "close",
          "type": "uint256"
        },
        {
          "internalType": "uint256",
          "name": "end",
          "type": "uint256"
        },
        {
          "components": [
            {
              "internalType": "uint8",
              "name": "v",
              "type": "uint8"
            },
            {
              "internalType": "bytes32",
              "name": "r",
              "type": "bytes32"
            },
            {
              "internalType": "bytes32",
              "name": "s",
              "type": "bytes32"
            }
          ],
          "internalType": "struct SignatureLib.Signature",
          "name": "signature",
          "type": "tuple"
        }
      ],
      "name": "back",
      "outputs": [
        {
          "internalType": "uint256",
          "name": "",
          "type": "uint256"
        }
      ],
      "stateMutability": "nonpayable",
      "type": "function"
    },
    {
      "inputs": [
        {
          "internalType": "address",
          "name": "owner",
          "type": "address"
        }
      ],
      "name": "balanceOf",
      "outputs": [
        {
          "internalType": "uint256",
          "name": "",
          "type": "uint256"
        }
      ],
      "stateMutability": "view",
      "type": "function"
    },
    {
      "inputs": [
        {
          "internalType": "uint256",
          "name": "tokenId",
          "type": "uint256"
        }
      ],
      "name": "getApproved",
      "outputs": [
        {
          "internalType": "address",
          "name": "",
          "type": "address"
        }
      ],
      "stateMutability": "view",
      "type": "function"
    },
    {
      "inputs": [
        {
          "internalType": "uint256",
          "name": "index",
          "type": "uint256"
        }
      ],
      "name": "getBetByIndex",
      "outputs": [
        {
          "internalType": "uint256",
          "name": "",
          "type": "uint256"
        },
        {
          "internalType": "uint256",
          "name": "",
          "type": "uint256"
        },
        {
          "internalType": "uint256",
          "name": "",
          "type": "uint256"
        },
        {
          "internalType": "bool",
          "name": "",
          "type": "bool"
        },
        {
          "internalType": "address",
          "name": "",
          "type": "address"
        },
        {
          "internalType": "bytes16",
          "name": "",
          "type": "bytes16"
        },
        {
          "internalType": "bytes16",
          "name": "",
          "type": "bytes16"
        }
      ],
      "stateMutability": "view",
      "type": "function"
    },
    {
      "inputs": [],
      "name": "getCount",
      "outputs": [
        {
          "internalType": "uint256",
          "name": "",
          "type": "uint256"
        }
      ],
      "stateMutability": "view",
      "type": "function"
    },
    {
      "inputs": [
        {
          "internalType": "uint64",
          "name": "id",
          "type": "uint64"
        }
      ],
      "name": "getExpiry",
      "outputs": [
        {
          "internalType": "uint256",
          "name": "",
          "type": "uint256"
        }
      ],
      "stateMutability": "view",
      "type": "function"
    },
    {
      "inputs": [],
      "name": "getInPlayCount",
      "outputs": [
        {
          "internalType": "uint256",
          "name": "",
          "type": "uint256"
        }
      ],
      "stateMutability": "view",
      "type": "function"
    },
    {
      "inputs": [],
      "name": "getMargin",
      "outputs": [
        {
          "internalType": "uint8",
          "name": "",
          "type": "uint8"
        }
      ],
      "stateMutability": "view",
      "type": "function"
    },
    {
      "inputs": [
        {
          "internalType": "bytes16",
          "name": "marketId",
          "type": "bytes16"
        }
      ],
      "name": "getMarketTotal",
      "outputs": [
        {
          "internalType": "uint256",
          "name": "",
          "type": "uint256"
        }
      ],
      "stateMutability": "view",
      "type": "function"
    },
    {
      "inputs": [
        {
          "internalType": "uint256",
          "name": "wager",
          "type": "uint256"
        },
        {
          "internalType": "uint256",
          "name": "odds",
          "type": "uint256"
        },
        {
          "internalType": "bytes16",
          "name": "propositionId",
          "type": "bytes16"
        }
      ],
      "name": "getOdds",
      "outputs": [
        {
          "internalType": "uint256",
          "name": "",
          "type": "uint256"
        }
      ],
      "stateMutability": "view",
      "type": "function"
    },
    {
      "inputs": [],
      "name": "getOracleAddress",
      "outputs": [
        {
          "internalType": "address",
          "name": "",
          "type": "address"
        }
      ],
      "stateMutability": "view",
      "type": "function"
    },
    {
      "inputs": [
        {
          "internalType": "bytes16",
          "name": "propositionId",
          "type": "bytes16"
        },
        {
          "internalType": "uint256",
          "name": "wager",
          "type": "uint256"
        },
        {
          "internalType": "uint256",
          "name": "odds",
          "type": "uint256"
        }
      ],
      "name": "getPotentialPayout",
      "outputs": [
        {
          "internalType": "uint256",
          "name": "",
          "type": "uint256"
        }
      ],
      "stateMutability": "view",
      "type": "function"
    },
    {
      "inputs": [],
      "name": "getTotalExposure",
      "outputs": [
        {
          "internalType": "uint256",
          "name": "",
          "type": "uint256"
        }
      ],
      "stateMutability": "view",
      "type": "function"
    },
    {
      "inputs": [],
      "name": "getTotalInPlay",
      "outputs": [
        {
          "internalType": "uint256",
          "name": "",
          "type": "uint256"
        }
      ],
      "stateMutability": "view",
      "type": "function"
    },
    {
      "inputs": [],
      "name": "getVaultAddress",
      "outputs": [
        {
          "internalType": "address",
          "name": "",
          "type": "address"
        }
      ],
      "stateMutability": "view",
      "type": "function"
    },
    {
      "inputs": [
        {
          "internalType": "address",
          "name": "signer",
          "type": "address"
        }
      ],
      "name": "grantSigner",
      "outputs": [],
      "stateMutability": "nonpayable",
      "type": "function"
    },
    {
      "inputs": [
        {
          "internalType": "address",
          "name": "owner",
          "type": "address"
        },
        {
          "internalType": "address",
          "name": "operator",
          "type": "address"
        }
      ],
      "name": "isApprovedForAll",
      "outputs": [
        {
          "internalType": "bool",
          "name": "",
          "type": "bool"
        }
      ],
      "stateMutability": "view",
      "type": "function"
    },
    {
      "inputs": [
        {
          "internalType": "address",
          "name": "signer",
          "type": "address"
        }
      ],
      "name": "isSigner",
      "outputs": [
        {
          "internalType": "bool",
          "name": "",
          "type": "bool"
        }
      ],
      "stateMutability": "view",
      "type": "function"
    },
    {
      "inputs": [],
      "name": "min",
      "outputs": [
        {
          "internalType": "uint256",
          "name": "",
          "type": "uint256"
        }
      ],
      "stateMutability": "view",
      "type": "function"
    },
    {
      "inputs": [],
      "name": "name",
      "outputs": [
        {
          "internalType": "string",
          "name": "",
          "type": "string"
        }
      ],
      "stateMutability": "view",
      "type": "function"
    },
    {
      "inputs": [],
      "name": "owner",
      "outputs": [
        {
          "internalType": "address",
          "name": "",
          "type": "address"
        }
      ],
      "stateMutability": "view",
      "type": "function"
    },
    {
      "inputs": [
        {
          "internalType": "uint256",
          "name": "tokenId",
          "type": "uint256"
        }
      ],
      "name": "ownerOf",
      "outputs": [
        {
          "internalType": "address",
          "name": "",
          "type": "address"
        }
      ],
      "stateMutability": "view",
      "type": "function"
    },
    {
      "inputs": [],
      "name": "renounceOwnership",
      "outputs": [],
      "stateMutability": "nonpayable",
      "type": "function"
    },
    {
      "inputs": [
        {
          "internalType": "address",
          "name": "signer",
          "type": "address"
        }
      ],
      "name": "revokeSigner",
      "outputs": [],
      "stateMutability": "nonpayable",
      "type": "function"
    },
    {
      "inputs": [
        {
          "internalType": "address",
          "name": "from",
          "type": "address"
        },
        {
          "internalType": "address",
          "name": "to",
          "type": "address"
        },
        {
          "internalType": "uint256",
          "name": "tokenId",
          "type": "uint256"
        }
      ],
      "name": "safeTransferFrom",
      "outputs": [],
      "stateMutability": "nonpayable",
      "type": "function"
    },
    {
      "inputs": [
        {
          "internalType": "address",
          "name": "from",
          "type": "address"
        },
        {
          "internalType": "address",
          "name": "to",
          "type": "address"
        },
        {
          "internalType": "uint256",
          "name": "tokenId",
          "type": "uint256"
        },
        {
          "internalType": "bytes",
          "name": "data",
          "type": "bytes"
        }
      ],
      "name": "safeTransferFrom",
      "outputs": [],
      "stateMutability": "nonpayable",
      "type": "function"
    },
    {
      "inputs": [
        {
          "internalType": "address",
          "name": "operator",
          "type": "address"
        },
        {
          "internalType": "bool",
          "name": "approved",
          "type": "bool"
        }
      ],
      "name": "setApprovalForAll",
      "outputs": [],
      "stateMutability": "nonpayable",
      "type": "function"
    },
    {
      "inputs": [
        {
          "internalType": "uint256",
          "name": "index",
          "type": "uint256"
        }
      ],
      "name": "settle",
      "outputs": [],
      "stateMutability": "nonpayable",
      "type": "function"
    },
    {
      "inputs": [
        {
          "internalType": "bytes4",
          "name": "interfaceId",
          "type": "bytes4"
        }
      ],
      "name": "supportsInterface",
      "outputs": [
        {
          "internalType": "bool",
          "name": "",
          "type": "bool"
        }
      ],
      "stateMutability": "view",
      "type": "function"
    },
    {
      "inputs": [],
      "name": "symbol",
      "outputs": [
        {
          "internalType": "string",
          "name": "",
          "type": "string"
        }
      ],
      "stateMutability": "view",
      "type": "function"
    },
    {
      "inputs": [],
      "name": "timeout",
      "outputs": [
        {
          "internalType": "uint256",
          "name": "",
          "type": "uint256"
        }
      ],
      "stateMutability": "view",
      "type": "function"
    },
    {
      "inputs": [
        {
          "internalType": "uint256",
          "name": "tokenId",
          "type": "uint256"
        }
      ],
      "name": "tokenURI",
      "outputs": [
        {
          "internalType": "string",
          "name": "",
          "type": "string"
        }
      ],
      "stateMutability": "pure",
      "type": "function"
    },
    {
      "inputs": [
        {
          "internalType": "address",
          "name": "from",
          "type": "address"
        },
        {
          "internalType": "address",
          "name": "to",
          "type": "address"
        },
        {
          "internalType": "uint256",
          "name": "tokenId",
          "type": "uint256"
        }
      ],
      "name": "transferFrom",
      "outputs": [],
      "stateMutability": "nonpayable",
      "type": "function"
    },
    {
      "inputs": [
        {
          "internalType": "address",
          "name": "newOwner",
          "type": "address"
        }
      ],
      "name": "transferOwnership",
      "outputs": [],
      "stateMutability": "nonpayable",
      "type": "function"
    }
  ],
  "transactionHash": "0x79fde4646622a26fa5ff5e9953979014f0185cbe097d21cfc5447a7793aad7df",
  "args": [
    "0xd6608A24B362e3E042Fe75fA61F57A015c9f9aeb",
    0,
    "0x6E3871bde903C8022A93b5f434f1096878744eC8"
  ],
  "numDeployments": 1,
  "solcInputHash": "c1e203e5f0313dd9b7d23c9f3bb11085",
  "bytecode": "0x6101406040523480156200001257600080fd5b506040516200556c3803806200556c8339818101604052810190620000389190620004fc565b6040518060400160405280601381526020017f486f727365204c696e6b2042657420536c6970000000000000000000000000008152506040518060400160405280600681526020017f484c2d4245540000000000000000000000000000000000000000000000000000815250620000c4620000b86200026a60201b60201c565b6200027260201b60201c565b8160019080519060200190620000dc9291906200035f565b508060029080519060200190620000f59291906200035f565b505050600073ffffffffffffffffffffffffffffffffffffffff168373ffffffffffffffffffffffffffffffffffffffff16141562000139576200013862000558565b5b3073ffffffffffffffffffffffffffffffffffffffff1660c08173ffffffffffffffffffffffffffffffffffffffff16815250508273ffffffffffffffffffffffffffffffffffffffff1660a08173ffffffffffffffffffffffffffffffffffffffff16815250508160ff1660808160ff16815250508073ffffffffffffffffffffffffffffffffffffffff1660e08173ffffffffffffffffffffffffffffffffffffffff16815250506001600f6000620001f96200033660201b60201c565b73ffffffffffffffffffffffffffffffffffffffff1673ffffffffffffffffffffffffffffffffffffffff16815260200190815260200160002060006101000a81548160ff02191690831515021790555062278d006101008181525050610e106101208181525050505050620005ec565b600033905090565b60008060009054906101000a900473ffffffffffffffffffffffffffffffffffffffff169050816000806101000a81548173ffffffffffffffffffffffffffffffffffffffff021916908373ffffffffffffffffffffffffffffffffffffffff1602179055508173ffffffffffffffffffffffffffffffffffffffff168173ffffffffffffffffffffffffffffffffffffffff167f8be0079c531659141344cd1fd0a4f28419497f9722a3daafe3b4186f6b6457e060405160405180910390a35050565b60008060009054906101000a900473ffffffffffffffffffffffffffffffffffffffff16905090565b8280546200036d90620005b6565b90600052602060002090601f016020900481019282620003915760008555620003dd565b82601f10620003ac57805160ff1916838001178555620003dd565b82800160010185558215620003dd579182015b82811115620003dc578251825591602001919060010190620003bf565b5b509050620003ec9190620003f0565b5090565b5b808211156200040b576000816000905550600101620003f1565b5090565b600080fd5b600073ffffffffffffffffffffffffffffffffffffffff82169050919050565b6000620004418262000414565b9050919050565b6000620004558262000434565b9050919050565b620004678162000448565b81146200047357600080fd5b50565b60008151905062000487816200045c565b92915050565b600060ff82169050919050565b620004a5816200048d565b8114620004b157600080fd5b50565b600081519050620004c5816200049a565b92915050565b620004d68162000434565b8114620004e257600080fd5b50565b600081519050620004f681620004cb565b92915050565b6000806000606084860312156200051857620005176200040f565b5b6000620005288682870162000476565b93505060206200053b86828701620004b4565b92505060406200054e86828701620004e5565b9150509250925092565b7f4e487b7100000000000000000000000000000000000000000000000000000000600052600160045260246000fd5b7f4e487b7100000000000000000000000000000000000000000000000000000000600052602260045260246000fd5b60006002820490506001821680620005cf57607f821691505b60208210811415620005e657620005e562000587565b5b50919050565b60805160a05160c05160e0516101005161012051614ef16200067b6000396000611ac40152600081816114840152612e43015260008181610b1601528181611688015261180c015260008181610cb30152610d74015260008181610bf601528181610d53015281816113a6015281816124c8015281816129540152612b05015260006111e40152614ef16000f3fe608060405234801561001057600080fd5b50600436106102115760003560e01c8063715018a611610125578063b18b78dd116100ad578063c96121a81161007c578063c96121a814610642578063e4650fac14610660578063e985e9c514610690578063f2fde38b146106c0578063f8897945146106dc57610211565b8063b18b78dd146105bc578063b88d4fde146105da578063c34b44a0146105f6578063c87b56dd1461061257610211565b80638df82800116100f45780638df828001461051857806391b414ea1461053457806395d89b4114610564578063a22cb46514610582578063a87d942c1461059e57610211565b8063715018a6146104a25780637df73e27146104ac5780638ac6d217146104dc5780638da5cb5b146104fa57610211565b806325117b72116101a85780636352211e116101775780636352211e146103ea57806363c724f71461041a57806365cacaa41461043657806370a082311461045457806370dea79a1461048457610211565b806325117b721461036257806342842e0e1461038057806349df86941461039c57806358439479146103cc57610211565b8063129c45fc116101e4578063129c45fc146102b057806312fa3bf1146102e6578063207b8b531461031657806323b872dd1461034657610211565b806301ffc9a71461021657806306fdde0314610246578063081812fc14610264578063095ea7b314610294575b600080fd5b610230600480360381019061022b9190613415565b6106fa565b60405161023d919061345d565b60405180910390f35b61024e6107dc565b60405161025b9190613511565b60405180910390f35b61027e60048036038101906102799190613569565b61086e565b60405161028b91906135d7565b60405180910390f35b6102ae60048036038101906102a9919061361e565b6108b4565b005b6102ca60048036038101906102c59190613569565b6109cc565b6040516102dd97969594939291906136a8565b60405180910390f35b61030060048036038101906102fb9190613743565b6109f9565b60405161030d9190613770565b60405180910390f35b610330600480360381019061032b91906137af565b610a3c565b60405161033d9190613770565b60405180910390f35b610360600480360381019061035b9190613865565b611180565b005b61036a6111e0565b60405161037791906138d4565b60405180910390f35b61039a60048036038101906103959190613865565b611208565b005b6103b660048036038101906103b191906138ef565b611228565b6040516103c39190613770565b60405180910390f35b6103d461123e565b6040516103e19190613770565b60405180910390f35b61040460048036038101906103ff9190613569565b611248565b60405161041191906135d7565b60405180910390f35b610434600480360381019061042f9190613942565b6112cf565b005b61043e6113a2565b60405161044b91906135d7565b60405180910390f35b61046e60048036038101906104699190613942565b6113ca565b60405161047b9190613770565b60405180910390f35b61048c611482565b6040516104999190613770565b60405180910390f35b6104aa6114a6565b005b6104c660048036038101906104c19190613942565b6114ba565b6040516104d3919061345d565b60405180910390f35b6104e46114cc565b6040516104f19190613770565b60405180910390f35b6105026114d6565b60405161050f91906135d7565b60405180910390f35b610532600480360381019061052d9190613569565b6114ff565b005b61054e6004803603810190610549919061396f565b61173b565b60405161055b9190613770565b60405180910390f35b61056c611751565b6040516105799190613511565b60405180910390f35b61059c600480360381019061059791906139ee565b6117e3565b005b6105a66117f9565b6040516105b39190613770565b60405180910390f35b6105c4611808565b6040516105d191906135d7565b60405180910390f35b6105f460048036038101906105ef9190613b63565b611830565b005b610610600480360381019061060b9190613942565b611892565b005b61062c60048036038101906106279190613569565b611965565b6040516106399190613511565b60405180910390f35b61064a61198e565b6040516106579190613770565b60405180910390f35b61067a60048036038101906106759190613c26565b611998565b6040516106879190613770565b60405180910390f35b6106aa60048036038101906106a59190613c53565b6119aa565b6040516106b7919061345d565b60405180910390f35b6106da60048036038101906106d59190613942565b611a3e565b005b6106e4611ac2565b6040516106f19190613770565b60405180910390f35b60007f80ac58cd000000000000000000000000000000000000000000000000000000007bffffffffffffffffffffffffffffffffffffffffffffffffffffffff1916827bffffffffffffffffffffffffffffffffffffffffffffffffffffffff191614806107c557507f5b5e139f000000000000000000000000000000000000000000000000000000007bffffffffffffffffffffffffffffffffffffffffffffffffffffffff1916827bffffffffffffffffffffffffffffffffffffffffffffffffffffffff1916145b806107d557506107d482611ae6565b5b9050919050565b6060600180546107eb90613cc2565b80601f016020809104026020016040519081016040528092919081815260200182805461081790613cc2565b80156108645780601f1061083957610100808354040283529160200191610864565b820191906000526020600020905b81548152906001019060200180831161084757829003601f168201915b5050505050905090565b600061087982611b50565b6005600083815260200190815260200160002060009054906101000a900473ffffffffffffffffffffffffffffffffffffffff169050919050565b60006108bf82611248565b90508073ffffffffffffffffffffffffffffffffffffffff168373ffffffffffffffffffffffffffffffffffffffff161415610930576040517f08c379a000000000000000000000000000000000000000000000000000000000815260040161092790613d66565b60405180910390fd5b8073ffffffffffffffffffffffffffffffffffffffff1661094f611b9b565b73ffffffffffffffffffffffffffffffffffffffff16148061097e575061097d81610978611b9b565b6119aa565b5b6109bd576040517f08c379a00000000000000000000000000000000000000000000000000000000081526004016109b490613df8565b60405180910390fd5b6109c78383611ba3565b505050565b60008060008060008060006109e088611c5c565b9650965096509650965096509650919395979092949650565b6000600a6000836fffffffffffffffffffffffffffffffff19166fffffffffffffffffffffffffffffffff19168152602001908152602001600020549050919050565b60004283118015610a4c57508342115b610a8b576040517f08c379a0000000000000000000000000000000000000000000000000000000008152600401610a8290613e64565b60405180910390fd5b6000898989888888604051602001610aa896959493929190613ec6565b60405160208183030381529060405280519060200120905060011515610ace8285611ddd565b151514610b10576040517f08c379a0000000000000000000000000000000000000000000000000000000008152600401610b0790613f82565b60405180910390fd5b600015157f000000000000000000000000000000000000000000000000000000000000000073ffffffffffffffffffffffffffffffffffffffff166306c77ce78a8c6040518363ffffffff1660e01b8152600401610b6f929190613fa2565b602060405180830381865afa158015610b8c573d6000803e3d6000fd5b505050506040513d601f19601f82011682018060405250810190610bb09190613fe0565b151514610bf2576040517f08c379a0000000000000000000000000000000000000000000000000000000008152600401610be99061407f565b60405180910390fd5b60007f000000000000000000000000000000000000000000000000000000000000000073ffffffffffffffffffffffffffffffffffffffff166338d52e0f6040518163ffffffff1660e01b8152600401602060405180830381865afa158015610c5f573d6000803e3d6000fd5b505050506040513d601f19601f82011682018060405250810190610c8391906140b4565b90506000610c928b8a8a611eac565b90508173ffffffffffffffffffffffffffffffffffffffff166323b872dd337f00000000000000000000000000000000000000000000000000000000000000008c6040518463ffffffff1660e01b8152600401610cf1939291906140e1565b6020604051808303816000875af1158015610d10573d6000803e3d6000fd5b505050506040513d601f19601f82011682018060405250810190610d349190613fe0565b508173ffffffffffffffffffffffffffffffffffffffff166323b872dd7f00000000000000000000000000000000000000000000000000000000000000007f00000000000000000000000000000000000000000000000000000000000000008c85610d9f9190614147565b6040518463ffffffff1660e01b8152600401610dbd939291906140e1565b6020604051808303816000875af1158015610ddc573d6000803e3d6000fd5b505050506040513d601f19601f82011682018060405250810190610e009190613fe0565b5088600a60008c6fffffffffffffffffffffffffffffffff19166fffffffffffffffffffffffffffffffff191681526020019081526020016000206000828254610e4a919061417b565b9250508190555080600c60008d6fffffffffffffffffffffffffffffffff19166fffffffffffffffffffffffffffffffff191681526020019081526020016000206000828254610e9a919061417b565b9250508190555060086040518060e001604052808d6fffffffffffffffffffffffffffffffff191681526020018c6fffffffffffffffffffffffffffffffff191681526020018b81526020018381526020018881526020016000151581526020013373ffffffffffffffffffffffffffffffffffffffff16815250908060018154018082558091505060019003906000526020600020906005020160009091909190915060008201518160000160006101000a8154816fffffffffffffffffffffffffffffffff021916908360801c021790555060208201518160000160106101000a8154816fffffffffffffffffffffffffffffffff021916908360801c021790555060408201518160010155606082015181600201556080820151816003015560a08201518160040160006101000a81548160ff02191690831515021790555060c08201518160040160016101000a81548173ffffffffffffffffffffffffffffffffffffffff021916908373ffffffffffffffffffffffffffffffffffffffff1602179055505050600960008b6fffffffffffffffffffffffffffffffff19166fffffffffffffffffffffffffffffffff19168152602001908152602001600020611066611ee9565b90806001815401808255809150506001900390600052602060002001600090919091909150556110a933600161109a611ee9565b6110a49190614147565b611ef6565b88600d60008282546110bb919061417b565b9250508190555088816110ce9190614147565b600e60008282546110df919061417b565b92505081905550600760008154809291906110f9906141d1565b91905055503373ffffffffffffffffffffffffffffffffffffffff167f1d273ea6a1aea94de32fd06a09ab8046dff8e3261c5a4ecaa5e1a5705f3342ec6001611140611ee9565b61114a9190614147565b8d8d8d8660405161115f95949392919061421a565b60405180910390a261116f611ee9565b935050505098975050505050505050565b61119161118b611b9b565b82612114565b6111d0576040517f08c379a00000000000000000000000000000000000000000000000000000000081526004016111c7906142df565b60405180910390fd5b6111db8383836121a9565b505050565b60007f0000000000000000000000000000000000000000000000000000000000000000905090565b61122383838360405180602001604052806000815250611830565b505050565b60006112358484846124a3565b90509392505050565b6000600d54905090565b60008061125483612612565b9050600073ffffffffffffffffffffffffffffffffffffffff168173ffffffffffffffffffffffffffffffffffffffff1614156112c6576040517f08c379a00000000000000000000000000000000000000000000000000000000081526004016112bd9061434b565b60405180910390fd5b80915050919050565b6112d761264f565b600073ffffffffffffffffffffffffffffffffffffffff168173ffffffffffffffffffffffffffffffffffffffff161415611347576040517f08c379a000000000000000000000000000000000000000000000000000000000815260040161133e906143dd565b60405180910390fd5b6001600f60008373ffffffffffffffffffffffffffffffffffffffff1673ffffffffffffffffffffffffffffffffffffffff16815260200190815260200160002060006101000a81548160ff02191690831515021790555050565b60007f0000000000000000000000000000000000000000000000000000000000000000905090565b60008073ffffffffffffffffffffffffffffffffffffffff168273ffffffffffffffffffffffffffffffffffffffff16141561143b576040517f08c379a00000000000000000000000000000000000000000000000000000000081526004016114329061446f565b60405180910390fd5b600460008373ffffffffffffffffffffffffffffffffffffffff1673ffffffffffffffffffffffffffffffffffffffff168152602001908152602001600020549050919050565b7f000000000000000000000000000000000000000000000000000000000000000081565b6114ae61264f565b6114b860006126cd565b565b60006114c582612791565b9050919050565b6000600e54905090565b60008060009054906101000a900473ffffffffffffffffffffffffffffffffffffffff16905090565b6000600882815481106115155761151461448f565b5b90600052602060002090600502016040518060e00160405290816000820160009054906101000a900460801b6fffffffffffffffffffffffffffffffff19166fffffffffffffffffffffffffffffffff191681526020016000820160109054906101000a900460801b6fffffffffffffffffffffffffffffffff19166fffffffffffffffffffffffffffffffff191681526020016001820154815260200160028201548152602001600382015481526020016004820160009054906101000a900460ff161515151581526020016004820160019054906101000a900473ffffffffffffffffffffffffffffffffffffffff1673ffffffffffffffffffffffffffffffffffffffff1673ffffffffffffffffffffffffffffffffffffffff16815250509050600015158160a00151151514611684576040517f08c379a000000000000000000000000000000000000000000000000000000000815260040161167b9061450a565b60405180910390fd5b60007f000000000000000000000000000000000000000000000000000000000000000073ffffffffffffffffffffffffffffffffffffffff166306c77ce7836020015184600001516040518363ffffffff1660e01b81526004016116e9929190613fa2565b602060405180830381865afa158015611706573d6000803e3d6000fd5b505050506040513d601f19601f8201168201806040525081019061172a9190613fe0565b905061173683826127e7565b505050565b6000611748848484611eac565b90509392505050565b60606002805461176090613cc2565b80601f016020809104026020016040519081016040528092919081815260200182805461178c90613cc2565b80156117d95780601f106117ae576101008083540402835291602001916117d9565b820191906000526020600020905b8154815290600101906020018083116117bc57829003601f168201915b5050505050905090565b6117f56117ee611b9b565b8383612c76565b5050565b6000611803611ee9565b905090565b60007f0000000000000000000000000000000000000000000000000000000000000000905090565b61184161183b611b9b565b83612114565b611880576040517f08c379a0000000000000000000000000000000000000000000000000000000008152600401611877906142df565b60405180910390fd5b61188c84848484612de3565b50505050565b61189a61264f565b600073ffffffffffffffffffffffffffffffffffffffff168173ffffffffffffffffffffffffffffffffffffffff16141561190a576040517f08c379a00000000000000000000000000000000000000000000000000000000081526004016119019061459c565b60405180910390fd5b6000600f60008373ffffffffffffffffffffffffffffffffffffffff1673ffffffffffffffffffffffffffffffffffffffff16815260200190815260200160002060006101000a81548160ff02191690831515021790555050565b6060816040516020016119789190614613565b6040516020818303038152906040529050919050565b6000600754905090565b60006119a382612e3f565b9050919050565b6000600660008473ffffffffffffffffffffffffffffffffffffffff1673ffffffffffffffffffffffffffffffffffffffff16815260200190815260200160002060008373ffffffffffffffffffffffffffffffffffffffff1673ffffffffffffffffffffffffffffffffffffffff16815260200190815260200160002060009054906101000a900460ff16905092915050565b611a4661264f565b600073ffffffffffffffffffffffffffffffffffffffff168173ffffffffffffffffffffffffffffffffffffffff161415611ab6576040517f08c379a0000000000000000000000000000000000000000000000000000000008152600401611aad906146ab565b60405180910390fd5b611abf816126cd565b50565b7f000000000000000000000000000000000000000000000000000000000000000081565b60007f01ffc9a7000000000000000000000000000000000000000000000000000000007bffffffffffffffffffffffffffffffffffffffffffffffffffffffff1916827bffffffffffffffffffffffffffffffffffffffffffffffffffffffff1916149050919050565b611b5981612ea3565b611b98576040517f08c379a0000000000000000000000000000000000000000000000000000000008152600401611b8f9061434b565b60405180910390fd5b50565b600033905090565b816005600083815260200190815260200160002060006101000a81548173ffffffffffffffffffffffffffffffffffffffff021916908373ffffffffffffffffffffffffffffffffffffffff160217905550808273ffffffffffffffffffffffffffffffffffffffff16611c1683611248565b73ffffffffffffffffffffffffffffffffffffffff167f8c5be1e5ebec7d5bd14f71427d1e84f3dd0314c0f7b2291e5b200ac8c7c3b92560405160405180910390a45050565b60008060008060008060008060088981548110611c7c57611c7b61448f565b5b90600052602060002090600502016040518060e00160405290816000820160009054906101000a900460801b6fffffffffffffffffffffffffffffffff19166fffffffffffffffffffffffffffffffff191681526020016000820160109054906101000a900460801b6fffffffffffffffffffffffffffffffff19166fffffffffffffffffffffffffffffffff191681526020016001820154815260200160028201548152602001600382015481526020016004820160009054906101000a900460ff161515151581526020016004820160019054906101000a900473ffffffffffffffffffffffffffffffffffffffff1673ffffffffffffffffffffffffffffffffffffffff1673ffffffffffffffffffffffffffffffffffffffff168152505090508060400151816060015182608001518360a001518460c0015185602001518660000151975097509750975097509750975050919395979092949650565b60008073839ED5A99c6ec4d1B852a2550cCF98247d27B499635cff288d85856040518363ffffffff1660e01b8152600401611e199291906147e2565b602060405180830381865af4158015611e36573d6000803e3d6000fd5b505050506040513d601f19601f82011682018060405250810190611e5a91906140b4565b9050600073ffffffffffffffffffffffffffffffffffffffff168173ffffffffffffffffffffffffffffffffffffffff161415611e9a57611e9961480b565b5b611ea381612791565b91505092915050565b600080611eba8484876124a3565b9050611edf84620f42408684611ed0919061483a565b611eda91906148c3565b612ee4565b9150509392505050565b6000600880549050905090565b600073ffffffffffffffffffffffffffffffffffffffff168273ffffffffffffffffffffffffffffffffffffffff161415611f66576040517f08c379a0000000000000000000000000000000000000000000000000000000008152600401611f5d90614940565b60405180910390fd5b611f6f81612ea3565b15611faf576040517f08c379a0000000000000000000000000000000000000000000000000000000008152600401611fa6906149ac565b60405180910390fd5b611fbd600083836001612efd565b611fc681612ea3565b15612006576040517f08c379a0000000000000000000000000000000000000000000000000000000008152600401611ffd906149ac565b60405180910390fd5b6001600460008473ffffffffffffffffffffffffffffffffffffffff1673ffffffffffffffffffffffffffffffffffffffff16815260200190815260200160002060008282540192505081905550816003600083815260200190815260200160002060006101000a81548173ffffffffffffffffffffffffffffffffffffffff021916908373ffffffffffffffffffffffffffffffffffffffff160217905550808273ffffffffffffffffffffffffffffffffffffffff16600073ffffffffffffffffffffffffffffffffffffffff167fddf252ad1be2c89b69c2b068fc378daa952ba7f163c4a11628f55a4df523b3ef60405160405180910390a4612110600083836001613023565b5050565b60008061212083611248565b90508073ffffffffffffffffffffffffffffffffffffffff168473ffffffffffffffffffffffffffffffffffffffff161480612162575061216181856119aa565b5b806121a057508373ffffffffffffffffffffffffffffffffffffffff166121888461086e565b73ffffffffffffffffffffffffffffffffffffffff16145b91505092915050565b8273ffffffffffffffffffffffffffffffffffffffff166121c982611248565b73ffffffffffffffffffffffffffffffffffffffff161461221f576040517f08c379a000000000000000000000000000000000000000000000000000000000815260040161221690614a3e565b60405180910390fd5b600073ffffffffffffffffffffffffffffffffffffffff168273ffffffffffffffffffffffffffffffffffffffff16141561228f576040517f08c379a000000000000000000000000000000000000000000000000000000000815260040161228690614ad0565b60405180910390fd5b61229c8383836001612efd565b8273ffffffffffffffffffffffffffffffffffffffff166122bc82611248565b73ffffffffffffffffffffffffffffffffffffffff1614612312576040517f08c379a000000000000000000000000000000000000000000000000000000000815260040161230990614a3e565b60405180910390fd5b6005600082815260200190815260200160002060006101000a81549073ffffffffffffffffffffffffffffffffffffffff02191690556001600460008573ffffffffffffffffffffffffffffffffffffffff1673ffffffffffffffffffffffffffffffffffffffff168152602001908152602001600020600082825403925050819055506001600460008473ffffffffffffffffffffffffffffffffffffffff1673ffffffffffffffffffffffffffffffffffffffff16815260200190815260200160002060008282540192505081905550816003600083815260200190815260200160002060006101000a81548173ffffffffffffffffffffffffffffffffffffffff021916908373ffffffffffffffffffffffffffffffffffffffff160217905550808273ffffffffffffffffffffffffffffffffffffffff168473ffffffffffffffffffffffffffffffffffffffff167fddf252ad1be2c89b69c2b068fc378daa952ba7f163c4a11628f55a4df523b3ef60405160405180910390a461249e8383836001613023565b505050565b60006001841115806124b6575060018311155b156124c4576001905061260b565b60007f000000000000000000000000000000000000000000000000000000000000000073ffffffffffffffffffffffffffffffffffffffff1663b15031fa6040518163ffffffff1660e01b8152600401602060405180830381865afa158015612531573d6000803e3d6000fd5b505050506040513d601f19601f820116820180604052508101906125559190614b05565b9050600081141561256a57600191505061260b565b80600c6000856fffffffffffffffffffffffffffffffff19166fffffffffffffffffffffffffffffffff191681526020019081526020016000205411156125b557600191505061260b565b600c6000846fffffffffffffffffffffffffffffffff19166fffffffffffffffffffffffffffffffff1916815260200190815260200160002054816125fa9190614147565b9050612607858583613029565b9150505b9392505050565b60006003600083815260200190815260200160002060009054906101000a900473ffffffffffffffffffffffffffffffffffffffff169050919050565b612657611b9b565b73ffffffffffffffffffffffffffffffffffffffff166126756114d6565b73ffffffffffffffffffffffffffffffffffffffff16146126cb576040517f08c379a00000000000000000000000000000000000000000000000000000000081526004016126c290614b7e565b60405180910390fd5b565b60008060009054906101000a900473ffffffffffffffffffffffffffffffffffffffff169050816000806101000a81548173ffffffffffffffffffffffffffffffffffffffff021916908373ffffffffffffffffffffffffffffffffffffffff1602179055508173ffffffffffffffffffffffffffffffffffffffff168173ffffffffffffffffffffffffffffffffffffffff167f8be0079c531659141344cd1fd0a4f28419497f9722a3daafe3b4186f6b6457e060405160405180910390a35050565b6000600f60008373ffffffffffffffffffffffffffffffffffffffff1673ffffffffffffffffffffffffffffffffffffffff16815260200190815260200160002060009054906101000a900460ff169050919050565b42600883815481106127fc576127fb61448f565b5b9060005260206000209060050201600301541061284e576040517f08c379a000000000000000000000000000000000000000000000000000000000815260040161284590614bea565b60405180910390fd5b6001600883815481106128645761286361448f565b5b906000526020600020906005020160040160006101000a81548160ff021916908315150217905550600882815481106128a05761289f61448f565b5b906000526020600020906005020160010154600d60008282546128c39190614147565b92505081905550600882815481106128de576128dd61448f565b5b906000526020600020906005020160010154600883815481106129045761290361448f565b5b9060005260206000209060050201600201546129209190614147565b600e60008282546129319190614147565b925050819055506007600081548092919061294b90614c0a565b919050555060007f000000000000000000000000000000000000000000000000000000000000000073ffffffffffffffffffffffffffffffffffffffff166338d52e0f6040518163ffffffff1660e01b8152600401602060405180830381865afa1580156129bd573d6000803e3d6000fd5b505050506040513d601f19601f820116820180604052508101906129e191906140b4565b9050600115158215151415612ada578073ffffffffffffffffffffffffffffffffffffffff1663a9059cbb60088581548110612a2057612a1f61448f565b5b906000526020600020906005020160040160019054906101000a900473ffffffffffffffffffffffffffffffffffffffff1660088681548110612a6657612a6561448f565b5b9060005260206000209060050201600201546040518363ffffffff1660e01b8152600401612a95929190614c34565b6020604051808303816000875af1158015612ab4573d6000803e3d6000fd5b505050506040513d601f19601f82011682018060405250810190612ad89190613fe0565b505b600015158215151415612bac578073ffffffffffffffffffffffffffffffffffffffff1663a9059cbb7f000000000000000000000000000000000000000000000000000000000000000060088681548110612b3857612b3761448f565b5b9060005260206000209060050201600201546040518363ffffffff1660e01b8152600401612b67929190614c34565b6020604051808303816000875af1158015612b86573d6000803e3d6000fd5b505050506040513d601f19601f82011682018060405250810190612baa9190613fe0565b505b612bb5836130b0565b60088381548110612bc957612bc861448f565b5b906000526020600020906005020160040160019054906101000a900473ffffffffffffffffffffffffffffffffffffffff1673ffffffffffffffffffffffffffffffffffffffff167f08a2a3d90b4a86017a5adf7503073c6b2b44051c48e9844a336190c9793c4af98460088681548110612c4757612c4661448f565b5b90600052602060002090600502016002015485604051612c6993929190614c5d565b60405180910390a2505050565b8173ffffffffffffffffffffffffffffffffffffffff168373ffffffffffffffffffffffffffffffffffffffff161415612ce5576040517f08c379a0000000000000000000000000000000000000000000000000000000008152600401612cdc90614ce0565b60405180910390fd5b80600660008573ffffffffffffffffffffffffffffffffffffffff1673ffffffffffffffffffffffffffffffffffffffff16815260200190815260200160002060008473ffffffffffffffffffffffffffffffffffffffff1673ffffffffffffffffffffffffffffffffffffffff16815260200190815260200160002060006101000a81548160ff0219169083151502179055508173ffffffffffffffffffffffffffffffffffffffff168373ffffffffffffffffffffffffffffffffffffffff167f17307eab39ab6107e8899845ad3d59bd9653f200f220920489ca2b5937696c3183604051612dd6919061345d565b60405180910390a3505050565b612dee8484846121a9565b612dfa848484846131fe565b612e39576040517f08c379a0000000000000000000000000000000000000000000000000000000008152600401612e3090614d72565b60405180910390fd5b50505050565b60007f000000000000000000000000000000000000000000000000000000000000000060088367ffffffffffffffff1681548110612e8057612e7f61448f565b5b906000526020600020906005020160030154612e9c919061417b565b9050919050565b60008073ffffffffffffffffffffffffffffffffffffffff16612ec583612612565b73ffffffffffffffffffffffffffffffffffffffff1614159050919050565b6000818311612ef35781612ef5565b825b905092915050565b600181111561301d57600073ffffffffffffffffffffffffffffffffffffffff168473ffffffffffffffffffffffffffffffffffffffff1614612f915780600460008673ffffffffffffffffffffffffffffffffffffffff1673ffffffffffffffffffffffffffffffffffffffff1681526020019081526020016000206000828254612f899190614147565b925050819055505b600073ffffffffffffffffffffffffffffffffffffffff168373ffffffffffffffffffffffffffffffffffffffff161461301c5780600460008573ffffffffffffffffffffffffffffffffffffffff1673ffffffffffffffffffffffffffffffffffffffff1681526020019081526020016000206000828254613014919061417b565b925050819055505b5b50505050565b50505050565b600073D26Ad878453b682E49E8a8b1E9dbe700E40Fc45963a19dec438585856040518463ffffffff1660e01b815260040161306693929190614da1565b602060405180830381865af4158015613083573d6000803e3d6000fd5b505050506040513d601f19601f820116820180604052508101906130a79190614b05565b90509392505050565b60006130bb82611248565b90506130cb816000846001612efd565b6130d482611248565b90506005600083815260200190815260200160002060006101000a81549073ffffffffffffffffffffffffffffffffffffffff02191690556001600460008373ffffffffffffffffffffffffffffffffffffffff1673ffffffffffffffffffffffffffffffffffffffff168152602001908152602001600020600082825403925050819055506003600083815260200190815260200160002060006101000a81549073ffffffffffffffffffffffffffffffffffffffff021916905581600073ffffffffffffffffffffffffffffffffffffffff168273ffffffffffffffffffffffffffffffffffffffff167fddf252ad1be2c89b69c2b068fc378daa952ba7f163c4a11628f55a4df523b3ef60405160405180910390a46131fa816000846001613023565b5050565b600061321f8473ffffffffffffffffffffffffffffffffffffffff16613386565b15613379578373ffffffffffffffffffffffffffffffffffffffff1663150b7a02613248611b9b565b8786866040518563ffffffff1660e01b815260040161326a9493929190614e2d565b6020604051808303816000875af19250505080156132a657506040513d601f19601f820116820180604052508101906132a39190614e8e565b60015b613329573d80600081146132d6576040519150601f19603f3d011682016040523d82523d6000602084013e6132db565b606091505b50600081511415613321576040517f08c379a000000000000000000000000000000000000000000000000000000000815260040161331890614d72565b60405180910390fd5b805181602001fd5b63150b7a0260e01b7bffffffffffffffffffffffffffffffffffffffffffffffffffffffff1916817bffffffffffffffffffffffffffffffffffffffffffffffffffffffff19161491505061337e565b600190505b949350505050565b6000808273ffffffffffffffffffffffffffffffffffffffff163b119050919050565b6000604051905090565b600080fd5b600080fd5b60007fffffffff0000000000000000000000000000000000000000000000000000000082169050919050565b6133f2816133bd565b81146133fd57600080fd5b50565b60008135905061340f816133e9565b92915050565b60006020828403121561342b5761342a6133b3565b5b600061343984828501613400565b91505092915050565b60008115159050919050565b61345781613442565b82525050565b6000602082019050613472600083018461344e565b92915050565b600081519050919050565b600082825260208201905092915050565b60005b838110156134b2578082015181840152602081019050613497565b838111156134c1576000848401525b50505050565b6000601f19601f8301169050919050565b60006134e382613478565b6134ed8185613483565b93506134fd818560208601613494565b613506816134c7565b840191505092915050565b6000602082019050818103600083015261352b81846134d8565b905092915050565b6000819050919050565b61354681613533565b811461355157600080fd5b50565b6000813590506135638161353d565b92915050565b60006020828403121561357f5761357e6133b3565b5b600061358d84828501613554565b91505092915050565b600073ffffffffffffffffffffffffffffffffffffffff82169050919050565b60006135c182613596565b9050919050565b6135d1816135b6565b82525050565b60006020820190506135ec60008301846135c8565b92915050565b6135fb816135b6565b811461360657600080fd5b50565b600081359050613618816135f2565b92915050565b60008060408385031215613635576136346133b3565b5b600061364385828601613609565b925050602061365485828601613554565b9150509250929050565b61366781613533565b82525050565b60007fffffffffffffffffffffffffffffffff0000000000000000000000000000000082169050919050565b6136a28161366d565b82525050565b600060e0820190506136bd600083018a61365e565b6136ca602083018961365e565b6136d7604083018861365e565b6136e4606083018761344e565b6136f160808301866135c8565b6136fe60a0830185613699565b61370b60c0830184613699565b98975050505050505050565b6137208161366d565b811461372b57600080fd5b50565b60008135905061373d81613717565b92915050565b600060208284031215613759576137586133b3565b5b60006137678482850161372e565b91505092915050565b6000602082019050613785600083018461365e565b92915050565b600080fd5b6000606082840312156137a6576137a561378b565b5b81905092915050565b600080600080600080600080610140898b0312156137d0576137cf6133b3565b5b60006137de8b828c0161372e565b98505060206137ef8b828c0161372e565b97505060406138008b828c0161372e565b96505060606138118b828c01613554565b95505060806138228b828c01613554565b94505060a06138338b828c01613554565b93505060c06138448b828c01613554565b92505060e06138558b828c01613790565b9150509295985092959890939650565b60008060006060848603121561387e5761387d6133b3565b5b600061388c86828701613609565b935050602061389d86828701613609565b92505060406138ae86828701613554565b9150509250925092565b600060ff82169050919050565b6138ce816138b8565b82525050565b60006020820190506138e960008301846138c5565b92915050565b600080600060608486031215613908576139076133b3565b5b600061391686828701613554565b935050602061392786828701613554565b92505060406139388682870161372e565b9150509250925092565b600060208284031215613958576139576133b3565b5b600061396684828501613609565b91505092915050565b600080600060608486031215613988576139876133b3565b5b60006139968682870161372e565b93505060206139a786828701613554565b92505060406139b886828701613554565b9150509250925092565b6139cb81613442565b81146139d657600080fd5b50565b6000813590506139e8816139c2565b92915050565b60008060408385031215613a0557613a046133b3565b5b6000613a1385828601613609565b9250506020613a24858286016139d9565b9150509250929050565b600080fd5b600080fd5b7f4e487b7100000000000000000000000000000000000000000000000000000000600052604160045260246000fd5b613a70826134c7565b810181811067ffffffffffffffff82111715613a8f57613a8e613a38565b5b80604052505050565b6000613aa26133a9565b9050613aae8282613a67565b919050565b600067ffffffffffffffff821115613ace57613acd613a38565b5b613ad7826134c7565b9050602081019050919050565b82818337600083830152505050565b6000613b06613b0184613ab3565b613a98565b905082815260208101848484011115613b2257613b21613a33565b5b613b2d848285613ae4565b509392505050565b600082601f830112613b4a57613b49613a2e565b5b8135613b5a848260208601613af3565b91505092915050565b60008060008060808587031215613b7d57613b7c6133b3565b5b6000613b8b87828801613609565b9450506020613b9c87828801613609565b9350506040613bad87828801613554565b925050606085013567ffffffffffffffff811115613bce57613bcd6133b8565b5b613bda87828801613b35565b91505092959194509250565b600067ffffffffffffffff82169050919050565b613c0381613be6565b8114613c0e57600080fd5b50565b600081359050613c2081613bfa565b92915050565b600060208284031215613c3c57613c3b6133b3565b5b6000613c4a84828501613c11565b91505092915050565b60008060408385031215613c6a57613c696133b3565b5b6000613c7885828601613609565b9250506020613c8985828601613609565b9150509250929050565b7f4e487b7100000000000000000000000000000000000000000000000000000000600052602260045260246000fd5b60006002820490506001821680613cda57607f821691505b60208210811415613cee57613ced613c93565b5b50919050565b7f4552433732313a20617070726f76616c20746f2063757272656e74206f776e6560008201527f7200000000000000000000000000000000000000000000000000000000000000602082015250565b6000613d50602183613483565b9150613d5b82613cf4565b604082019050919050565b60006020820190508181036000830152613d7f81613d43565b9050919050565b7f4552433732313a20617070726f76652063616c6c6572206973206e6f7420746f60008201527f6b656e206f776e6572206f7220617070726f76656420666f7220616c6c000000602082015250565b6000613de2603d83613483565b9150613ded82613d86565b604082019050919050565b60006020820190508181036000830152613e1181613dd5565b9050919050565b7f6261636b3a20496e76616c696420646174650000000000000000000000000000600082015250565b6000613e4e601283613483565b9150613e5982613e18565b602082019050919050565b60006020820190508181036000830152613e7d81613e41565b9050919050565b6000819050919050565b613e9f613e9a8261366d565b613e84565b82525050565b6000819050919050565b613ec0613ebb82613533565b613ea5565b82525050565b6000613ed28289613e8e565b601082019150613ee28288613e8e565b601082019150613ef28287613e8e565b601082019150613f028286613eaf565b602082019150613f128285613eaf565b602082019150613f228284613eaf565b602082019150819050979650505050505050565b7f6261636b3a20496e76616c6964207369676e6174757265000000000000000000600082015250565b6000613f6c601783613483565b9150613f7782613f36565b602082019050919050565b60006020820190508181036000830152613f9b81613f5f565b9050919050565b6000604082019050613fb76000830185613699565b613fc46020830184613699565b9392505050565b600081519050613fda816139c2565b92915050565b600060208284031215613ff657613ff56133b3565b5b600061400484828501613fcb565b91505092915050565b7f6261636b3a204f7261636c6520726573756c7420616c7265616479207365742060008201527f666f722074686973206d61726b65740000000000000000000000000000000000602082015250565b6000614069602f83613483565b91506140748261400d565b604082019050919050565b600060208201905081810360008301526140988161405c565b9050919050565b6000815190506140ae816135f2565b92915050565b6000602082840312156140ca576140c96133b3565b5b60006140d88482850161409f565b91505092915050565b60006060820190506140f660008301866135c8565b61410360208301856135c8565b614110604083018461365e565b949350505050565b7f4e487b7100000000000000000000000000000000000000000000000000000000600052601160045260246000fd5b600061415282613533565b915061415d83613533565b9250828210156141705761416f614118565b5b828203905092915050565b600061418682613533565b915061419183613533565b9250827fffffffffffffffffffffffffffffffffffffffffffffffffffffffffffffffff038211156141c6576141c5614118565b5b828201905092915050565b60006141dc82613533565b91507fffffffffffffffffffffffffffffffffffffffffffffffffffffffffffffffff82141561420f5761420e614118565b5b600182019050919050565b600060a08201905061422f600083018861365e565b61423c6020830187613699565b6142496040830186613699565b614256606083018561365e565b614263608083018461365e565b9695505050505050565b7f4552433732313a2063616c6c6572206973206e6f7420746f6b656e206f776e6560008201527f72206f7220617070726f76656400000000000000000000000000000000000000602082015250565b60006142c9602d83613483565b91506142d48261426d565b604082019050919050565b600060208201905081810360008301526142f8816142bc565b9050919050565b7f4552433732313a20696e76616c696420746f6b656e2049440000000000000000600082015250565b6000614335601883613483565b9150614340826142ff565b602082019050919050565b6000602082019050818103600083015261436481614328565b9050919050565b7f6772616e745369676e65723a20496e76616c6964207369676e6572206164647260008201527f6573730000000000000000000000000000000000000000000000000000000000602082015250565b60006143c7602383613483565b91506143d28261436b565b604082019050919050565b600060208201905081810360008301526143f6816143ba565b9050919050565b7f4552433732313a2061646472657373207a65726f206973206e6f74206120766160008201527f6c6964206f776e65720000000000000000000000000000000000000000000000602082015250565b6000614459602983613483565b9150614464826143fd565b604082019050919050565b600060208201905081810360008301526144888161444c565b9050919050565b7f4e487b7100000000000000000000000000000000000000000000000000000000600052603260045260246000fd5b7f736574746c653a204265742068617320616c726561647920736574746c656400600082015250565b60006144f4601f83613483565b91506144ff826144be565b602082019050919050565b60006020820190508181036000830152614523816144e7565b9050919050565b7f7265766f6b655369676e65723a20496e76616c6964207369676e65722061646460008201527f7265737300000000000000000000000000000000000000000000000000000000602082015250565b6000614586602483613483565b91506145918261452a565b604082019050919050565b600060208201905081810360008301526145b581614579565b9050919050565b600081905092915050565b7f68747470733a2f2f6170692e686f7273652e6c696e6b2f6265742f0000000000600082015250565b60006145fd601b836145bc565b9150614608826145c7565b601b82019050919050565b600061461e826145f0565b915061462a8284613eaf565b60208201915081905092915050565b7f4f776e61626c653a206e6577206f776e657220697320746865207a65726f206160008201527f6464726573730000000000000000000000000000000000000000000000000000602082015250565b6000614695602683613483565b91506146a082614639565b604082019050919050565b600060208201905081810360008301526146c481614688565b9050919050565b6000819050919050565b6146de816146cb565b82525050565b6146ed816138b8565b81146146f857600080fd5b50565b60008135905061470a816146e4565b92915050565b600061471f60208401846146fb565b905092915050565b614730816138b8565b82525050565b61473f816146cb565b811461474a57600080fd5b50565b60008135905061475c81614736565b92915050565b6000614771602084018461474d565b905092915050565b614782816146cb565b82525050565b606082016147996000830183614710565b6147a66000850182614727565b506147b46020830183614762565b6147c16020850182614779565b506147cf6040830183614762565b6147dc6040850182614779565b50505050565b60006080820190506147f760008301856146d5565b6148046020830184614788565b9392505050565b7f4e487b7100000000000000000000000000000000000000000000000000000000600052600160045260246000fd5b600061484582613533565b915061485083613533565b9250817fffffffffffffffffffffffffffffffffffffffffffffffffffffffffffffffff048311821515161561488957614888614118565b5b828202905092915050565b7f4e487b7100000000000000000000000000000000000000000000000000000000600052601260045260246000fd5b60006148ce82613533565b91506148d983613533565b9250826148e9576148e8614894565b5b828204905092915050565b7f4552433732313a206d696e7420746f20746865207a65726f2061646472657373600082015250565b600061492a602083613483565b9150614935826148f4565b602082019050919050565b600060208201905081810360008301526149598161491d565b9050919050565b7f4552433732313a20746f6b656e20616c7265616479206d696e74656400000000600082015250565b6000614996601c83613483565b91506149a182614960565b602082019050919050565b600060208201905081810360008301526149c581614989565b9050919050565b7f4552433732313a207472616e736665722066726f6d20696e636f72726563742060008201527f6f776e6572000000000000000000000000000000000000000000000000000000602082015250565b6000614a28602583613483565b9150614a33826149cc565b604082019050919050565b60006020820190508181036000830152614a5781614a1b565b9050919050565b7f4552433732313a207472616e7366657220746f20746865207a65726f2061646460008201527f7265737300000000000000000000000000000000000000000000000000000000602082015250565b6000614aba602483613483565b9150614ac582614a5e565b604082019050919050565b60006020820190508181036000830152614ae981614aad565b9050919050565b600081519050614aff8161353d565b92915050565b600060208284031215614b1b57614b1a6133b3565b5b6000614b2984828501614af0565b91505092915050565b7f4f776e61626c653a2063616c6c6572206973206e6f7420746865206f776e6572600082015250565b6000614b68602083613483565b9150614b7382614b32565b602082019050919050565b60006020820190508181036000830152614b9781614b5b565b9050919050565b7f5f736574746c653a205061796f75742064617465206e6f742072656163686564600082015250565b6000614bd4602083613483565b9150614bdf82614b9e565b602082019050919050565b60006020820190508181036000830152614c0381614bc7565b9050919050565b6000614c1582613533565b91506000821415614c2957614c28614118565b5b600182039050919050565b6000604082019050614c4960008301856135c8565b614c56602083018461365e565b9392505050565b6000606082019050614c72600083018661365e565b614c7f602083018561365e565b614c8c604083018461344e565b949350505050565b7f4552433732313a20617070726f766520746f2063616c6c657200000000000000600082015250565b6000614cca601983613483565b9150614cd582614c94565b602082019050919050565b60006020820190508181036000830152614cf981614cbd565b9050919050565b7f4552433732313a207472616e7366657220746f206e6f6e20455243373231526560008201527f63656976657220696d706c656d656e7465720000000000000000000000000000602082015250565b6000614d5c603283613483565b9150614d6782614d00565b604082019050919050565b60006020820190508181036000830152614d8b81614d4f565b9050919050565b614d9b81613533565b82525050565b6000606082019050614db66000830186614d92565b614dc36020830185614d92565b614dd06040830184614d92565b949350505050565b600081519050919050565b600082825260208201905092915050565b6000614dff82614dd8565b614e098185614de3565b9350614e19818560208601613494565b614e22816134c7565b840191505092915050565b6000608082019050614e4260008301876135c8565b614e4f60208301866135c8565b614e5c604083018561365e565b8181036060830152614e6e8184614df4565b905095945050505050565b600081519050614e88816133e9565b92915050565b600060208284031215614ea457614ea36133b3565b5b6000614eb284828501614e79565b9150509291505056fea264697066735822122052a0f0915837e74ddedc4f18210e21d2825d90f500bfbb7075cd75d8c78ba17164736f6c634300080a0033",
  "deployedBytecode": "0x608060405234801561001057600080fd5b50600436106102115760003560e01c8063715018a611610125578063b18b78dd116100ad578063c96121a81161007c578063c96121a814610642578063e4650fac14610660578063e985e9c514610690578063f2fde38b146106c0578063f8897945146106dc57610211565b8063b18b78dd146105bc578063b88d4fde146105da578063c34b44a0146105f6578063c87b56dd1461061257610211565b80638df82800116100f45780638df828001461051857806391b414ea1461053457806395d89b4114610564578063a22cb46514610582578063a87d942c1461059e57610211565b8063715018a6146104a25780637df73e27146104ac5780638ac6d217146104dc5780638da5cb5b146104fa57610211565b806325117b72116101a85780636352211e116101775780636352211e146103ea57806363c724f71461041a57806365cacaa41461043657806370a082311461045457806370dea79a1461048457610211565b806325117b721461036257806342842e0e1461038057806349df86941461039c57806358439479146103cc57610211565b8063129c45fc116101e4578063129c45fc146102b057806312fa3bf1146102e6578063207b8b531461031657806323b872dd1461034657610211565b806301ffc9a71461021657806306fdde0314610246578063081812fc14610264578063095ea7b314610294575b600080fd5b610230600480360381019061022b9190613415565b6106fa565b60405161023d919061345d565b60405180910390f35b61024e6107dc565b60405161025b9190613511565b60405180910390f35b61027e60048036038101906102799190613569565b61086e565b60405161028b91906135d7565b60405180910390f35b6102ae60048036038101906102a9919061361e565b6108b4565b005b6102ca60048036038101906102c59190613569565b6109cc565b6040516102dd97969594939291906136a8565b60405180910390f35b61030060048036038101906102fb9190613743565b6109f9565b60405161030d9190613770565b60405180910390f35b610330600480360381019061032b91906137af565b610a3c565b60405161033d9190613770565b60405180910390f35b610360600480360381019061035b9190613865565b611180565b005b61036a6111e0565b60405161037791906138d4565b60405180910390f35b61039a60048036038101906103959190613865565b611208565b005b6103b660048036038101906103b191906138ef565b611228565b6040516103c39190613770565b60405180910390f35b6103d461123e565b6040516103e19190613770565b60405180910390f35b61040460048036038101906103ff9190613569565b611248565b60405161041191906135d7565b60405180910390f35b610434600480360381019061042f9190613942565b6112cf565b005b61043e6113a2565b60405161044b91906135d7565b60405180910390f35b61046e60048036038101906104699190613942565b6113ca565b60405161047b9190613770565b60405180910390f35b61048c611482565b6040516104999190613770565b60405180910390f35b6104aa6114a6565b005b6104c660048036038101906104c19190613942565b6114ba565b6040516104d3919061345d565b60405180910390f35b6104e46114cc565b6040516104f19190613770565b60405180910390f35b6105026114d6565b60405161050f91906135d7565b60405180910390f35b610532600480360381019061052d9190613569565b6114ff565b005b61054e6004803603810190610549919061396f565b61173b565b60405161055b9190613770565b60405180910390f35b61056c611751565b6040516105799190613511565b60405180910390f35b61059c600480360381019061059791906139ee565b6117e3565b005b6105a66117f9565b6040516105b39190613770565b60405180910390f35b6105c4611808565b6040516105d191906135d7565b60405180910390f35b6105f460048036038101906105ef9190613b63565b611830565b005b610610600480360381019061060b9190613942565b611892565b005b61062c60048036038101906106279190613569565b611965565b6040516106399190613511565b60405180910390f35b61064a61198e565b6040516106579190613770565b60405180910390f35b61067a60048036038101906106759190613c26565b611998565b6040516106879190613770565b60405180910390f35b6106aa60048036038101906106a59190613c53565b6119aa565b6040516106b7919061345d565b60405180910390f35b6106da60048036038101906106d59190613942565b611a3e565b005b6106e4611ac2565b6040516106f19190613770565b60405180910390f35b60007f80ac58cd000000000000000000000000000000000000000000000000000000007bffffffffffffffffffffffffffffffffffffffffffffffffffffffff1916827bffffffffffffffffffffffffffffffffffffffffffffffffffffffff191614806107c557507f5b5e139f000000000000000000000000000000000000000000000000000000007bffffffffffffffffffffffffffffffffffffffffffffffffffffffff1916827bffffffffffffffffffffffffffffffffffffffffffffffffffffffff1916145b806107d557506107d482611ae6565b5b9050919050565b6060600180546107eb90613cc2565b80601f016020809104026020016040519081016040528092919081815260200182805461081790613cc2565b80156108645780601f1061083957610100808354040283529160200191610864565b820191906000526020600020905b81548152906001019060200180831161084757829003601f168201915b5050505050905090565b600061087982611b50565b6005600083815260200190815260200160002060009054906101000a900473ffffffffffffffffffffffffffffffffffffffff169050919050565b60006108bf82611248565b90508073ffffffffffffffffffffffffffffffffffffffff168373ffffffffffffffffffffffffffffffffffffffff161415610930576040517f08c379a000000000000000000000000000000000000000000000000000000000815260040161092790613d66565b60405180910390fd5b8073ffffffffffffffffffffffffffffffffffffffff1661094f611b9b565b73ffffffffffffffffffffffffffffffffffffffff16148061097e575061097d81610978611b9b565b6119aa565b5b6109bd576040517f08c379a00000000000000000000000000000000000000000000000000000000081526004016109b490613df8565b60405180910390fd5b6109c78383611ba3565b505050565b60008060008060008060006109e088611c5c565b9650965096509650965096509650919395979092949650565b6000600a6000836fffffffffffffffffffffffffffffffff19166fffffffffffffffffffffffffffffffff19168152602001908152602001600020549050919050565b60004283118015610a4c57508342115b610a8b576040517f08c379a0000000000000000000000000000000000000000000000000000000008152600401610a8290613e64565b60405180910390fd5b6000898989888888604051602001610aa896959493929190613ec6565b60405160208183030381529060405280519060200120905060011515610ace8285611ddd565b151514610b10576040517f08c379a0000000000000000000000000000000000000000000000000000000008152600401610b0790613f82565b60405180910390fd5b600015157f000000000000000000000000000000000000000000000000000000000000000073ffffffffffffffffffffffffffffffffffffffff166306c77ce78a8c6040518363ffffffff1660e01b8152600401610b6f929190613fa2565b602060405180830381865afa158015610b8c573d6000803e3d6000fd5b505050506040513d601f19601f82011682018060405250810190610bb09190613fe0565b151514610bf2576040517f08c379a0000000000000000000000000000000000000000000000000000000008152600401610be99061407f565b60405180910390fd5b60007f000000000000000000000000000000000000000000000000000000000000000073ffffffffffffffffffffffffffffffffffffffff166338d52e0f6040518163ffffffff1660e01b8152600401602060405180830381865afa158015610c5f573d6000803e3d6000fd5b505050506040513d601f19601f82011682018060405250810190610c8391906140b4565b90506000610c928b8a8a611eac565b90508173ffffffffffffffffffffffffffffffffffffffff166323b872dd337f00000000000000000000000000000000000000000000000000000000000000008c6040518463ffffffff1660e01b8152600401610cf1939291906140e1565b6020604051808303816000875af1158015610d10573d6000803e3d6000fd5b505050506040513d601f19601f82011682018060405250810190610d349190613fe0565b508173ffffffffffffffffffffffffffffffffffffffff166323b872dd7f00000000000000000000000000000000000000000000000000000000000000007f00000000000000000000000000000000000000000000000000000000000000008c85610d9f9190614147565b6040518463ffffffff1660e01b8152600401610dbd939291906140e1565b6020604051808303816000875af1158015610ddc573d6000803e3d6000fd5b505050506040513d601f19601f82011682018060405250810190610e009190613fe0565b5088600a60008c6fffffffffffffffffffffffffffffffff19166fffffffffffffffffffffffffffffffff191681526020019081526020016000206000828254610e4a919061417b565b9250508190555080600c60008d6fffffffffffffffffffffffffffffffff19166fffffffffffffffffffffffffffffffff191681526020019081526020016000206000828254610e9a919061417b565b9250508190555060086040518060e001604052808d6fffffffffffffffffffffffffffffffff191681526020018c6fffffffffffffffffffffffffffffffff191681526020018b81526020018381526020018881526020016000151581526020013373ffffffffffffffffffffffffffffffffffffffff16815250908060018154018082558091505060019003906000526020600020906005020160009091909190915060008201518160000160006101000a8154816fffffffffffffffffffffffffffffffff021916908360801c021790555060208201518160000160106101000a8154816fffffffffffffffffffffffffffffffff021916908360801c021790555060408201518160010155606082015181600201556080820151816003015560a08201518160040160006101000a81548160ff02191690831515021790555060c08201518160040160016101000a81548173ffffffffffffffffffffffffffffffffffffffff021916908373ffffffffffffffffffffffffffffffffffffffff1602179055505050600960008b6fffffffffffffffffffffffffffffffff19166fffffffffffffffffffffffffffffffff19168152602001908152602001600020611066611ee9565b90806001815401808255809150506001900390600052602060002001600090919091909150556110a933600161109a611ee9565b6110a49190614147565b611ef6565b88600d60008282546110bb919061417b565b9250508190555088816110ce9190614147565b600e60008282546110df919061417b565b92505081905550600760008154809291906110f9906141d1565b91905055503373ffffffffffffffffffffffffffffffffffffffff167f1d273ea6a1aea94de32fd06a09ab8046dff8e3261c5a4ecaa5e1a5705f3342ec6001611140611ee9565b61114a9190614147565b8d8d8d8660405161115f95949392919061421a565b60405180910390a261116f611ee9565b935050505098975050505050505050565b61119161118b611b9b565b82612114565b6111d0576040517f08c379a00000000000000000000000000000000000000000000000000000000081526004016111c7906142df565b60405180910390fd5b6111db8383836121a9565b505050565b60007f0000000000000000000000000000000000000000000000000000000000000000905090565b61122383838360405180602001604052806000815250611830565b505050565b60006112358484846124a3565b90509392505050565b6000600d54905090565b60008061125483612612565b9050600073ffffffffffffffffffffffffffffffffffffffff168173ffffffffffffffffffffffffffffffffffffffff1614156112c6576040517f08c379a00000000000000000000000000000000000000000000000000000000081526004016112bd9061434b565b60405180910390fd5b80915050919050565b6112d761264f565b600073ffffffffffffffffffffffffffffffffffffffff168173ffffffffffffffffffffffffffffffffffffffff161415611347576040517f08c379a000000000000000000000000000000000000000000000000000000000815260040161133e906143dd565b60405180910390fd5b6001600f60008373ffffffffffffffffffffffffffffffffffffffff1673ffffffffffffffffffffffffffffffffffffffff16815260200190815260200160002060006101000a81548160ff02191690831515021790555050565b60007f0000000000000000000000000000000000000000000000000000000000000000905090565b60008073ffffffffffffffffffffffffffffffffffffffff168273ffffffffffffffffffffffffffffffffffffffff16141561143b576040517f08c379a00000000000000000000000000000000000000000000000000000000081526004016114329061446f565b60405180910390fd5b600460008373ffffffffffffffffffffffffffffffffffffffff1673ffffffffffffffffffffffffffffffffffffffff168152602001908152602001600020549050919050565b7f000000000000000000000000000000000000000000000000000000000000000081565b6114ae61264f565b6114b860006126cd565b565b60006114c582612791565b9050919050565b6000600e54905090565b60008060009054906101000a900473ffffffffffffffffffffffffffffffffffffffff16905090565b6000600882815481106115155761151461448f565b5b90600052602060002090600502016040518060e00160405290816000820160009054906101000a900460801b6fffffffffffffffffffffffffffffffff19166fffffffffffffffffffffffffffffffff191681526020016000820160109054906101000a900460801b6fffffffffffffffffffffffffffffffff19166fffffffffffffffffffffffffffffffff191681526020016001820154815260200160028201548152602001600382015481526020016004820160009054906101000a900460ff161515151581526020016004820160019054906101000a900473ffffffffffffffffffffffffffffffffffffffff1673ffffffffffffffffffffffffffffffffffffffff1673ffffffffffffffffffffffffffffffffffffffff16815250509050600015158160a00151151514611684576040517f08c379a000000000000000000000000000000000000000000000000000000000815260040161167b9061450a565b60405180910390fd5b60007f000000000000000000000000000000000000000000000000000000000000000073ffffffffffffffffffffffffffffffffffffffff166306c77ce7836020015184600001516040518363ffffffff1660e01b81526004016116e9929190613fa2565b602060405180830381865afa158015611706573d6000803e3d6000fd5b505050506040513d601f19601f8201168201806040525081019061172a9190613fe0565b905061173683826127e7565b505050565b6000611748848484611eac565b90509392505050565b60606002805461176090613cc2565b80601f016020809104026020016040519081016040528092919081815260200182805461178c90613cc2565b80156117d95780601f106117ae576101008083540402835291602001916117d9565b820191906000526020600020905b8154815290600101906020018083116117bc57829003601f168201915b5050505050905090565b6117f56117ee611b9b565b8383612c76565b5050565b6000611803611ee9565b905090565b60007f0000000000000000000000000000000000000000000000000000000000000000905090565b61184161183b611b9b565b83612114565b611880576040517f08c379a0000000000000000000000000000000000000000000000000000000008152600401611877906142df565b60405180910390fd5b61188c84848484612de3565b50505050565b61189a61264f565b600073ffffffffffffffffffffffffffffffffffffffff168173ffffffffffffffffffffffffffffffffffffffff16141561190a576040517f08c379a00000000000000000000000000000000000000000000000000000000081526004016119019061459c565b60405180910390fd5b6000600f60008373ffffffffffffffffffffffffffffffffffffffff1673ffffffffffffffffffffffffffffffffffffffff16815260200190815260200160002060006101000a81548160ff02191690831515021790555050565b6060816040516020016119789190614613565b6040516020818303038152906040529050919050565b6000600754905090565b60006119a382612e3f565b9050919050565b6000600660008473ffffffffffffffffffffffffffffffffffffffff1673ffffffffffffffffffffffffffffffffffffffff16815260200190815260200160002060008373ffffffffffffffffffffffffffffffffffffffff1673ffffffffffffffffffffffffffffffffffffffff16815260200190815260200160002060009054906101000a900460ff16905092915050565b611a4661264f565b600073ffffffffffffffffffffffffffffffffffffffff168173ffffffffffffffffffffffffffffffffffffffff161415611ab6576040517f08c379a0000000000000000000000000000000000000000000000000000000008152600401611aad906146ab565b60405180910390fd5b611abf816126cd565b50565b7f000000000000000000000000000000000000000000000000000000000000000081565b60007f01ffc9a7000000000000000000000000000000000000000000000000000000007bffffffffffffffffffffffffffffffffffffffffffffffffffffffff1916827bffffffffffffffffffffffffffffffffffffffffffffffffffffffff1916149050919050565b611b5981612ea3565b611b98576040517f08c379a0000000000000000000000000000000000000000000000000000000008152600401611b8f9061434b565b60405180910390fd5b50565b600033905090565b816005600083815260200190815260200160002060006101000a81548173ffffffffffffffffffffffffffffffffffffffff021916908373ffffffffffffffffffffffffffffffffffffffff160217905550808273ffffffffffffffffffffffffffffffffffffffff16611c1683611248565b73ffffffffffffffffffffffffffffffffffffffff167f8c5be1e5ebec7d5bd14f71427d1e84f3dd0314c0f7b2291e5b200ac8c7c3b92560405160405180910390a45050565b60008060008060008060008060088981548110611c7c57611c7b61448f565b5b90600052602060002090600502016040518060e00160405290816000820160009054906101000a900460801b6fffffffffffffffffffffffffffffffff19166fffffffffffffffffffffffffffffffff191681526020016000820160109054906101000a900460801b6fffffffffffffffffffffffffffffffff19166fffffffffffffffffffffffffffffffff191681526020016001820154815260200160028201548152602001600382015481526020016004820160009054906101000a900460ff161515151581526020016004820160019054906101000a900473ffffffffffffffffffffffffffffffffffffffff1673ffffffffffffffffffffffffffffffffffffffff1673ffffffffffffffffffffffffffffffffffffffff168152505090508060400151816060015182608001518360a001518460c0015185602001518660000151975097509750975097509750975050919395979092949650565b60008073__$47464c6f7588c8075b5d384b19d082a8ec$__635cff288d85856040518363ffffffff1660e01b8152600401611e199291906147e2565b602060405180830381865af4158015611e36573d6000803e3d6000fd5b505050506040513d601f19601f82011682018060405250810190611e5a91906140b4565b9050600073ffffffffffffffffffffffffffffffffffffffff168173ffffffffffffffffffffffffffffffffffffffff161415611e9a57611e9961480b565b5b611ea381612791565b91505092915050565b600080611eba8484876124a3565b9050611edf84620f42408684611ed0919061483a565b611eda91906148c3565b612ee4565b9150509392505050565b6000600880549050905090565b600073ffffffffffffffffffffffffffffffffffffffff168273ffffffffffffffffffffffffffffffffffffffff161415611f66576040517f08c379a0000000000000000000000000000000000000000000000000000000008152600401611f5d90614940565b60405180910390fd5b611f6f81612ea3565b15611faf576040517f08c379a0000000000000000000000000000000000000000000000000000000008152600401611fa6906149ac565b60405180910390fd5b611fbd600083836001612efd565b611fc681612ea3565b15612006576040517f08c379a0000000000000000000000000000000000000000000000000000000008152600401611ffd906149ac565b60405180910390fd5b6001600460008473ffffffffffffffffffffffffffffffffffffffff1673ffffffffffffffffffffffffffffffffffffffff16815260200190815260200160002060008282540192505081905550816003600083815260200190815260200160002060006101000a81548173ffffffffffffffffffffffffffffffffffffffff021916908373ffffffffffffffffffffffffffffffffffffffff160217905550808273ffffffffffffffffffffffffffffffffffffffff16600073ffffffffffffffffffffffffffffffffffffffff167fddf252ad1be2c89b69c2b068fc378daa952ba7f163c4a11628f55a4df523b3ef60405160405180910390a4612110600083836001613023565b5050565b60008061212083611248565b90508073ffffffffffffffffffffffffffffffffffffffff168473ffffffffffffffffffffffffffffffffffffffff161480612162575061216181856119aa565b5b806121a057508373ffffffffffffffffffffffffffffffffffffffff166121888461086e565b73ffffffffffffffffffffffffffffffffffffffff16145b91505092915050565b8273ffffffffffffffffffffffffffffffffffffffff166121c982611248565b73ffffffffffffffffffffffffffffffffffffffff161461221f576040517f08c379a000000000000000000000000000000000000000000000000000000000815260040161221690614a3e565b60405180910390fd5b600073ffffffffffffffffffffffffffffffffffffffff168273ffffffffffffffffffffffffffffffffffffffff16141561228f576040517f08c379a000000000000000000000000000000000000000000000000000000000815260040161228690614ad0565b60405180910390fd5b61229c8383836001612efd565b8273ffffffffffffffffffffffffffffffffffffffff166122bc82611248565b73ffffffffffffffffffffffffffffffffffffffff1614612312576040517f08c379a000000000000000000000000000000000000000000000000000000000815260040161230990614a3e565b60405180910390fd5b6005600082815260200190815260200160002060006101000a81549073ffffffffffffffffffffffffffffffffffffffff02191690556001600460008573ffffffffffffffffffffffffffffffffffffffff1673ffffffffffffffffffffffffffffffffffffffff168152602001908152602001600020600082825403925050819055506001600460008473ffffffffffffffffffffffffffffffffffffffff1673ffffffffffffffffffffffffffffffffffffffff16815260200190815260200160002060008282540192505081905550816003600083815260200190815260200160002060006101000a81548173ffffffffffffffffffffffffffffffffffffffff021916908373ffffffffffffffffffffffffffffffffffffffff160217905550808273ffffffffffffffffffffffffffffffffffffffff168473ffffffffffffffffffffffffffffffffffffffff167fddf252ad1be2c89b69c2b068fc378daa952ba7f163c4a11628f55a4df523b3ef60405160405180910390a461249e8383836001613023565b505050565b60006001841115806124b6575060018311155b156124c4576001905061260b565b60007f000000000000000000000000000000000000000000000000000000000000000073ffffffffffffffffffffffffffffffffffffffff1663b15031fa6040518163ffffffff1660e01b8152600401602060405180830381865afa158015612531573d6000803e3d6000fd5b505050506040513d601f19601f820116820180604052508101906125559190614b05565b9050600081141561256a57600191505061260b565b80600c6000856fffffffffffffffffffffffffffffffff19166fffffffffffffffffffffffffffffffff191681526020019081526020016000205411156125b557600191505061260b565b600c6000846fffffffffffffffffffffffffffffffff19166fffffffffffffffffffffffffffffffff1916815260200190815260200160002054816125fa9190614147565b9050612607858583613029565b9150505b9392505050565b60006003600083815260200190815260200160002060009054906101000a900473ffffffffffffffffffffffffffffffffffffffff169050919050565b612657611b9b565b73ffffffffffffffffffffffffffffffffffffffff166126756114d6565b73ffffffffffffffffffffffffffffffffffffffff16146126cb576040517f08c379a00000000000000000000000000000000000000000000000000000000081526004016126c290614b7e565b60405180910390fd5b565b60008060009054906101000a900473ffffffffffffffffffffffffffffffffffffffff169050816000806101000a81548173ffffffffffffffffffffffffffffffffffffffff021916908373ffffffffffffffffffffffffffffffffffffffff1602179055508173ffffffffffffffffffffffffffffffffffffffff168173ffffffffffffffffffffffffffffffffffffffff167f8be0079c531659141344cd1fd0a4f28419497f9722a3daafe3b4186f6b6457e060405160405180910390a35050565b6000600f60008373ffffffffffffffffffffffffffffffffffffffff1673ffffffffffffffffffffffffffffffffffffffff16815260200190815260200160002060009054906101000a900460ff169050919050565b42600883815481106127fc576127fb61448f565b5b9060005260206000209060050201600301541061284e576040517f08c379a000000000000000000000000000000000000000000000000000000000815260040161284590614bea565b60405180910390fd5b6001600883815481106128645761286361448f565b5b906000526020600020906005020160040160006101000a81548160ff021916908315150217905550600882815481106128a05761289f61448f565b5b906000526020600020906005020160010154600d60008282546128c39190614147565b92505081905550600882815481106128de576128dd61448f565b5b906000526020600020906005020160010154600883815481106129045761290361448f565b5b9060005260206000209060050201600201546129209190614147565b600e60008282546129319190614147565b925050819055506007600081548092919061294b90614c0a565b919050555060007f000000000000000000000000000000000000000000000000000000000000000073ffffffffffffffffffffffffffffffffffffffff166338d52e0f6040518163ffffffff1660e01b8152600401602060405180830381865afa1580156129bd573d6000803e3d6000fd5b505050506040513d601f19601f820116820180604052508101906129e191906140b4565b9050600115158215151415612ada578073ffffffffffffffffffffffffffffffffffffffff1663a9059cbb60088581548110612a2057612a1f61448f565b5b906000526020600020906005020160040160019054906101000a900473ffffffffffffffffffffffffffffffffffffffff1660088681548110612a6657612a6561448f565b5b9060005260206000209060050201600201546040518363ffffffff1660e01b8152600401612a95929190614c34565b6020604051808303816000875af1158015612ab4573d6000803e3d6000fd5b505050506040513d601f19601f82011682018060405250810190612ad89190613fe0565b505b600015158215151415612bac578073ffffffffffffffffffffffffffffffffffffffff1663a9059cbb7f000000000000000000000000000000000000000000000000000000000000000060088681548110612b3857612b3761448f565b5b9060005260206000209060050201600201546040518363ffffffff1660e01b8152600401612b67929190614c34565b6020604051808303816000875af1158015612b86573d6000803e3d6000fd5b505050506040513d601f19601f82011682018060405250810190612baa9190613fe0565b505b612bb5836130b0565b60088381548110612bc957612bc861448f565b5b906000526020600020906005020160040160019054906101000a900473ffffffffffffffffffffffffffffffffffffffff1673ffffffffffffffffffffffffffffffffffffffff167f08a2a3d90b4a86017a5adf7503073c6b2b44051c48e9844a336190c9793c4af98460088681548110612c4757612c4661448f565b5b90600052602060002090600502016002015485604051612c6993929190614c5d565b60405180910390a2505050565b8173ffffffffffffffffffffffffffffffffffffffff168373ffffffffffffffffffffffffffffffffffffffff161415612ce5576040517f08c379a0000000000000000000000000000000000000000000000000000000008152600401612cdc90614ce0565b60405180910390fd5b80600660008573ffffffffffffffffffffffffffffffffffffffff1673ffffffffffffffffffffffffffffffffffffffff16815260200190815260200160002060008473ffffffffffffffffffffffffffffffffffffffff1673ffffffffffffffffffffffffffffffffffffffff16815260200190815260200160002060006101000a81548160ff0219169083151502179055508173ffffffffffffffffffffffffffffffffffffffff168373ffffffffffffffffffffffffffffffffffffffff167f17307eab39ab6107e8899845ad3d59bd9653f200f220920489ca2b5937696c3183604051612dd6919061345d565b60405180910390a3505050565b612dee8484846121a9565b612dfa848484846131fe565b612e39576040517f08c379a0000000000000000000000000000000000000000000000000000000008152600401612e3090614d72565b60405180910390fd5b50505050565b60007f000000000000000000000000000000000000000000000000000000000000000060088367ffffffffffffffff1681548110612e8057612e7f61448f565b5b906000526020600020906005020160030154612e9c919061417b565b9050919050565b60008073ffffffffffffffffffffffffffffffffffffffff16612ec583612612565b73ffffffffffffffffffffffffffffffffffffffff1614159050919050565b6000818311612ef35781612ef5565b825b905092915050565b600181111561301d57600073ffffffffffffffffffffffffffffffffffffffff168473ffffffffffffffffffffffffffffffffffffffff1614612f915780600460008673ffffffffffffffffffffffffffffffffffffffff1673ffffffffffffffffffffffffffffffffffffffff1681526020019081526020016000206000828254612f899190614147565b925050819055505b600073ffffffffffffffffffffffffffffffffffffffff168373ffffffffffffffffffffffffffffffffffffffff161461301c5780600460008573ffffffffffffffffffffffffffffffffffffffff1673ffffffffffffffffffffffffffffffffffffffff1681526020019081526020016000206000828254613014919061417b565b925050819055505b5b50505050565b50505050565b600073__$488e0037c7b108d422da68056570fe35d6$__63a19dec438585856040518463ffffffff1660e01b815260040161306693929190614da1565b602060405180830381865af4158015613083573d6000803e3d6000fd5b505050506040513d601f19601f820116820180604052508101906130a79190614b05565b90509392505050565b60006130bb82611248565b90506130cb816000846001612efd565b6130d482611248565b90506005600083815260200190815260200160002060006101000a81549073ffffffffffffffffffffffffffffffffffffffff02191690556001600460008373ffffffffffffffffffffffffffffffffffffffff1673ffffffffffffffffffffffffffffffffffffffff168152602001908152602001600020600082825403925050819055506003600083815260200190815260200160002060006101000a81549073ffffffffffffffffffffffffffffffffffffffff021916905581600073ffffffffffffffffffffffffffffffffffffffff168273ffffffffffffffffffffffffffffffffffffffff167fddf252ad1be2c89b69c2b068fc378daa952ba7f163c4a11628f55a4df523b3ef60405160405180910390a46131fa816000846001613023565b5050565b600061321f8473ffffffffffffffffffffffffffffffffffffffff16613386565b15613379578373ffffffffffffffffffffffffffffffffffffffff1663150b7a02613248611b9b565b8786866040518563ffffffff1660e01b815260040161326a9493929190614e2d565b6020604051808303816000875af19250505080156132a657506040513d601f19601f820116820180604052508101906132a39190614e8e565b60015b613329573d80600081146132d6576040519150601f19603f3d011682016040523d82523d6000602084013e6132db565b606091505b50600081511415613321576040517f08c379a000000000000000000000000000000000000000000000000000000000815260040161331890614d72565b60405180910390fd5b805181602001fd5b63150b7a0260e01b7bffffffffffffffffffffffffffffffffffffffffffffffffffffffff1916817bffffffffffffffffffffffffffffffffffffffffffffffffffffffff19161491505061337e565b600190505b949350505050565b6000808273ffffffffffffffffffffffffffffffffffffffff163b119050919050565b6000604051905090565b600080fd5b600080fd5b60007fffffffff0000000000000000000000000000000000000000000000000000000082169050919050565b6133f2816133bd565b81146133fd57600080fd5b50565b60008135905061340f816133e9565b92915050565b60006020828403121561342b5761342a6133b3565b5b600061343984828501613400565b91505092915050565b60008115159050919050565b61345781613442565b82525050565b6000602082019050613472600083018461344e565b92915050565b600081519050919050565b600082825260208201905092915050565b60005b838110156134b2578082015181840152602081019050613497565b838111156134c1576000848401525b50505050565b6000601f19601f8301169050919050565b60006134e382613478565b6134ed8185613483565b93506134fd818560208601613494565b613506816134c7565b840191505092915050565b6000602082019050818103600083015261352b81846134d8565b905092915050565b6000819050919050565b61354681613533565b811461355157600080fd5b50565b6000813590506135638161353d565b92915050565b60006020828403121561357f5761357e6133b3565b5b600061358d84828501613554565b91505092915050565b600073ffffffffffffffffffffffffffffffffffffffff82169050919050565b60006135c182613596565b9050919050565b6135d1816135b6565b82525050565b60006020820190506135ec60008301846135c8565b92915050565b6135fb816135b6565b811461360657600080fd5b50565b600081359050613618816135f2565b92915050565b60008060408385031215613635576136346133b3565b5b600061364385828601613609565b925050602061365485828601613554565b9150509250929050565b61366781613533565b82525050565b60007fffffffffffffffffffffffffffffffff0000000000000000000000000000000082169050919050565b6136a28161366d565b82525050565b600060e0820190506136bd600083018a61365e565b6136ca602083018961365e565b6136d7604083018861365e565b6136e4606083018761344e565b6136f160808301866135c8565b6136fe60a0830185613699565b61370b60c0830184613699565b98975050505050505050565b6137208161366d565b811461372b57600080fd5b50565b60008135905061373d81613717565b92915050565b600060208284031215613759576137586133b3565b5b60006137678482850161372e565b91505092915050565b6000602082019050613785600083018461365e565b92915050565b600080fd5b6000606082840312156137a6576137a561378b565b5b81905092915050565b600080600080600080600080610140898b0312156137d0576137cf6133b3565b5b60006137de8b828c0161372e565b98505060206137ef8b828c0161372e565b97505060406138008b828c0161372e565b96505060606138118b828c01613554565b95505060806138228b828c01613554565b94505060a06138338b828c01613554565b93505060c06138448b828c01613554565b92505060e06138558b828c01613790565b9150509295985092959890939650565b60008060006060848603121561387e5761387d6133b3565b5b600061388c86828701613609565b935050602061389d86828701613609565b92505060406138ae86828701613554565b9150509250925092565b600060ff82169050919050565b6138ce816138b8565b82525050565b60006020820190506138e960008301846138c5565b92915050565b600080600060608486031215613908576139076133b3565b5b600061391686828701613554565b935050602061392786828701613554565b92505060406139388682870161372e565b9150509250925092565b600060208284031215613958576139576133b3565b5b600061396684828501613609565b91505092915050565b600080600060608486031215613988576139876133b3565b5b60006139968682870161372e565b93505060206139a786828701613554565b92505060406139b886828701613554565b9150509250925092565b6139cb81613442565b81146139d657600080fd5b50565b6000813590506139e8816139c2565b92915050565b60008060408385031215613a0557613a046133b3565b5b6000613a1385828601613609565b9250506020613a24858286016139d9565b9150509250929050565b600080fd5b600080fd5b7f4e487b7100000000000000000000000000000000000000000000000000000000600052604160045260246000fd5b613a70826134c7565b810181811067ffffffffffffffff82111715613a8f57613a8e613a38565b5b80604052505050565b6000613aa26133a9565b9050613aae8282613a67565b919050565b600067ffffffffffffffff821115613ace57613acd613a38565b5b613ad7826134c7565b9050602081019050919050565b82818337600083830152505050565b6000613b06613b0184613ab3565b613a98565b905082815260208101848484011115613b2257613b21613a33565b5b613b2d848285613ae4565b509392505050565b600082601f830112613b4a57613b49613a2e565b5b8135613b5a848260208601613af3565b91505092915050565b60008060008060808587031215613b7d57613b7c6133b3565b5b6000613b8b87828801613609565b9450506020613b9c87828801613609565b9350506040613bad87828801613554565b925050606085013567ffffffffffffffff811115613bce57613bcd6133b8565b5b613bda87828801613b35565b91505092959194509250565b600067ffffffffffffffff82169050919050565b613c0381613be6565b8114613c0e57600080fd5b50565b600081359050613c2081613bfa565b92915050565b600060208284031215613c3c57613c3b6133b3565b5b6000613c4a84828501613c11565b91505092915050565b60008060408385031215613c6a57613c696133b3565b5b6000613c7885828601613609565b9250506020613c8985828601613609565b9150509250929050565b7f4e487b7100000000000000000000000000000000000000000000000000000000600052602260045260246000fd5b60006002820490506001821680613cda57607f821691505b60208210811415613cee57613ced613c93565b5b50919050565b7f4552433732313a20617070726f76616c20746f2063757272656e74206f776e6560008201527f7200000000000000000000000000000000000000000000000000000000000000602082015250565b6000613d50602183613483565b9150613d5b82613cf4565b604082019050919050565b60006020820190508181036000830152613d7f81613d43565b9050919050565b7f4552433732313a20617070726f76652063616c6c6572206973206e6f7420746f60008201527f6b656e206f776e6572206f7220617070726f76656420666f7220616c6c000000602082015250565b6000613de2603d83613483565b9150613ded82613d86565b604082019050919050565b60006020820190508181036000830152613e1181613dd5565b9050919050565b7f6261636b3a20496e76616c696420646174650000000000000000000000000000600082015250565b6000613e4e601283613483565b9150613e5982613e18565b602082019050919050565b60006020820190508181036000830152613e7d81613e41565b9050919050565b6000819050919050565b613e9f613e9a8261366d565b613e84565b82525050565b6000819050919050565b613ec0613ebb82613533565b613ea5565b82525050565b6000613ed28289613e8e565b601082019150613ee28288613e8e565b601082019150613ef28287613e8e565b601082019150613f028286613eaf565b602082019150613f128285613eaf565b602082019150613f228284613eaf565b602082019150819050979650505050505050565b7f6261636b3a20496e76616c6964207369676e6174757265000000000000000000600082015250565b6000613f6c601783613483565b9150613f7782613f36565b602082019050919050565b60006020820190508181036000830152613f9b81613f5f565b9050919050565b6000604082019050613fb76000830185613699565b613fc46020830184613699565b9392505050565b600081519050613fda816139c2565b92915050565b600060208284031215613ff657613ff56133b3565b5b600061400484828501613fcb565b91505092915050565b7f6261636b3a204f7261636c6520726573756c7420616c7265616479207365742060008201527f666f722074686973206d61726b65740000000000000000000000000000000000602082015250565b6000614069602f83613483565b91506140748261400d565b604082019050919050565b600060208201905081810360008301526140988161405c565b9050919050565b6000815190506140ae816135f2565b92915050565b6000602082840312156140ca576140c96133b3565b5b60006140d88482850161409f565b91505092915050565b60006060820190506140f660008301866135c8565b61410360208301856135c8565b614110604083018461365e565b949350505050565b7f4e487b7100000000000000000000000000000000000000000000000000000000600052601160045260246000fd5b600061415282613533565b915061415d83613533565b9250828210156141705761416f614118565b5b828203905092915050565b600061418682613533565b915061419183613533565b9250827fffffffffffffffffffffffffffffffffffffffffffffffffffffffffffffffff038211156141c6576141c5614118565b5b828201905092915050565b60006141dc82613533565b91507fffffffffffffffffffffffffffffffffffffffffffffffffffffffffffffffff82141561420f5761420e614118565b5b600182019050919050565b600060a08201905061422f600083018861365e565b61423c6020830187613699565b6142496040830186613699565b614256606083018561365e565b614263608083018461365e565b9695505050505050565b7f4552433732313a2063616c6c6572206973206e6f7420746f6b656e206f776e6560008201527f72206f7220617070726f76656400000000000000000000000000000000000000602082015250565b60006142c9602d83613483565b91506142d48261426d565b604082019050919050565b600060208201905081810360008301526142f8816142bc565b9050919050565b7f4552433732313a20696e76616c696420746f6b656e2049440000000000000000600082015250565b6000614335601883613483565b9150614340826142ff565b602082019050919050565b6000602082019050818103600083015261436481614328565b9050919050565b7f6772616e745369676e65723a20496e76616c6964207369676e6572206164647260008201527f6573730000000000000000000000000000000000000000000000000000000000602082015250565b60006143c7602383613483565b91506143d28261436b565b604082019050919050565b600060208201905081810360008301526143f6816143ba565b9050919050565b7f4552433732313a2061646472657373207a65726f206973206e6f74206120766160008201527f6c6964206f776e65720000000000000000000000000000000000000000000000602082015250565b6000614459602983613483565b9150614464826143fd565b604082019050919050565b600060208201905081810360008301526144888161444c565b9050919050565b7f4e487b7100000000000000000000000000000000000000000000000000000000600052603260045260246000fd5b7f736574746c653a204265742068617320616c726561647920736574746c656400600082015250565b60006144f4601f83613483565b91506144ff826144be565b602082019050919050565b60006020820190508181036000830152614523816144e7565b9050919050565b7f7265766f6b655369676e65723a20496e76616c6964207369676e65722061646460008201527f7265737300000000000000000000000000000000000000000000000000000000602082015250565b6000614586602483613483565b91506145918261452a565b604082019050919050565b600060208201905081810360008301526145b581614579565b9050919050565b600081905092915050565b7f68747470733a2f2f6170692e686f7273652e6c696e6b2f6265742f0000000000600082015250565b60006145fd601b836145bc565b9150614608826145c7565b601b82019050919050565b600061461e826145f0565b915061462a8284613eaf565b60208201915081905092915050565b7f4f776e61626c653a206e6577206f776e657220697320746865207a65726f206160008201527f6464726573730000000000000000000000000000000000000000000000000000602082015250565b6000614695602683613483565b91506146a082614639565b604082019050919050565b600060208201905081810360008301526146c481614688565b9050919050565b6000819050919050565b6146de816146cb565b82525050565b6146ed816138b8565b81146146f857600080fd5b50565b60008135905061470a816146e4565b92915050565b600061471f60208401846146fb565b905092915050565b614730816138b8565b82525050565b61473f816146cb565b811461474a57600080fd5b50565b60008135905061475c81614736565b92915050565b6000614771602084018461474d565b905092915050565b614782816146cb565b82525050565b606082016147996000830183614710565b6147a66000850182614727565b506147b46020830183614762565b6147c16020850182614779565b506147cf6040830183614762565b6147dc6040850182614779565b50505050565b60006080820190506147f760008301856146d5565b6148046020830184614788565b9392505050565b7f4e487b7100000000000000000000000000000000000000000000000000000000600052600160045260246000fd5b600061484582613533565b915061485083613533565b9250817fffffffffffffffffffffffffffffffffffffffffffffffffffffffffffffffff048311821515161561488957614888614118565b5b828202905092915050565b7f4e487b7100000000000000000000000000000000000000000000000000000000600052601260045260246000fd5b60006148ce82613533565b91506148d983613533565b9250826148e9576148e8614894565b5b828204905092915050565b7f4552433732313a206d696e7420746f20746865207a65726f2061646472657373600082015250565b600061492a602083613483565b9150614935826148f4565b602082019050919050565b600060208201905081810360008301526149598161491d565b9050919050565b7f4552433732313a20746f6b656e20616c7265616479206d696e74656400000000600082015250565b6000614996601c83613483565b91506149a182614960565b602082019050919050565b600060208201905081810360008301526149c581614989565b9050919050565b7f4552433732313a207472616e736665722066726f6d20696e636f72726563742060008201527f6f776e6572000000000000000000000000000000000000000000000000000000602082015250565b6000614a28602583613483565b9150614a33826149cc565b604082019050919050565b60006020820190508181036000830152614a5781614a1b565b9050919050565b7f4552433732313a207472616e7366657220746f20746865207a65726f2061646460008201527f7265737300000000000000000000000000000000000000000000000000000000602082015250565b6000614aba602483613483565b9150614ac582614a5e565b604082019050919050565b60006020820190508181036000830152614ae981614aad565b9050919050565b600081519050614aff8161353d565b92915050565b600060208284031215614b1b57614b1a6133b3565b5b6000614b2984828501614af0565b91505092915050565b7f4f776e61626c653a2063616c6c6572206973206e6f7420746865206f776e6572600082015250565b6000614b68602083613483565b9150614b7382614b32565b602082019050919050565b60006020820190508181036000830152614b9781614b5b565b9050919050565b7f5f736574746c653a205061796f75742064617465206e6f742072656163686564600082015250565b6000614bd4602083613483565b9150614bdf82614b9e565b602082019050919050565b60006020820190508181036000830152614c0381614bc7565b9050919050565b6000614c1582613533565b91506000821415614c2957614c28614118565b5b600182039050919050565b6000604082019050614c4960008301856135c8565b614c56602083018461365e565b9392505050565b6000606082019050614c72600083018661365e565b614c7f602083018561365e565b614c8c604083018461344e565b949350505050565b7f4552433732313a20617070726f766520746f2063616c6c657200000000000000600082015250565b6000614cca601983613483565b9150614cd582614c94565b602082019050919050565b60006020820190508181036000830152614cf981614cbd565b9050919050565b7f4552433732313a207472616e7366657220746f206e6f6e20455243373231526560008201527f63656976657220696d706c656d656e7465720000000000000000000000000000602082015250565b6000614d5c603283613483565b9150614d6782614d00565b604082019050919050565b60006020820190508181036000830152614d8b81614d4f565b9050919050565b614d9b81613533565b82525050565b6000606082019050614db66000830186614d92565b614dc36020830185614d92565b614dd06040830184614d92565b949350505050565b600081519050919050565b600082825260208201905092915050565b6000614dff82614dd8565b614e098185614de3565b9350614e19818560208601613494565b614e22816134c7565b840191505092915050565b6000608082019050614e4260008301876135c8565b614e4f60208301866135c8565b614e5c604083018561365e565b8181036060830152614e6e8184614df4565b905095945050505050565b600081519050614e88816133e9565b92915050565b600060208284031215614ea457614ea36133b3565b5b6000614eb284828501614e79565b9150509291505056fea264697066735822122052a0f0915837e74ddedc4f18210e21d2825d90f500bfbb7075cd75d8c78ba17164736f6c634300080a0033",
  "libraries": {
    "SignatureLib": "0x839ED5A99c6ec4d1B852a2550cCF98247d27B499",
    "OddsLib": "0xD26Ad878453b682E49E8a8b1E9dbe700E40Fc459"
  },
  "devdoc": {
    "kind": "dev",
    "methods": {
      "approve(address,uint256)": {
        "details": "See {IERC721-approve}."
      },
      "balanceOf(address)": {
        "details": "See {IERC721-balanceOf}."
      },
      "getApproved(uint256)": {
        "details": "See {IERC721-getApproved}."
      },
      "isApprovedForAll(address,address)": {
        "details": "See {IERC721-isApprovedForAll}."
      },
      "name()": {
        "details": "See {IERC721Metadata-name}."
      },
      "owner()": {
        "details": "Returns the address of the current owner."
      },
      "ownerOf(uint256)": {
        "details": "See {IERC721-ownerOf}."
      },
      "renounceOwnership()": {
        "details": "Leaves the contract without owner. It will not be possible to call `onlyOwner` functions anymore. Can only be called by the current owner. NOTE: Renouncing ownership will leave the contract without an owner, thereby removing any functionality that is only available to the owner."
      },
      "safeTransferFrom(address,address,uint256)": {
        "details": "See {IERC721-safeTransferFrom}."
      },
      "safeTransferFrom(address,address,uint256,bytes)": {
        "details": "See {IERC721-safeTransferFrom}."
      },
      "setApprovalForAll(address,bool)": {
        "details": "See {IERC721-setApprovalForAll}."
      },
      "supportsInterface(bytes4)": {
        "details": "See {IERC165-supportsInterface}."
      },
      "symbol()": {
        "details": "See {IERC721Metadata-symbol}."
      },
      "tokenURI(uint256)": {
        "details": "See {IERC721Metadata-tokenURI}."
      },
      "transferFrom(address,address,uint256)": {
        "details": "See {IERC721-transferFrom}."
      },
      "transferOwnership(address)": {
        "details": "Transfers ownership of the contract to a new account (`newOwner`). Can only be called by the current owner."
      }
    },
    "version": 1
  },
  "userdoc": {
    "kind": "user",
    "methods": {},
    "version": 1
  },
  "storageLayout": {
    "storage": [
      {
        "astId": 2722,
        "contract": "contracts/Market.sol:Market",
        "label": "_owner",
        "offset": 0,
        "slot": "0",
        "type": "t_address"
      },
      {
        "astId": 5038,
        "contract": "contracts/Market.sol:Market",
        "label": "_name",
        "offset": 0,
        "slot": "1",
        "type": "t_string_storage"
      },
      {
        "astId": 5040,
        "contract": "contracts/Market.sol:Market",
        "label": "_symbol",
        "offset": 0,
        "slot": "2",
        "type": "t_string_storage"
      },
      {
        "astId": 5044,
        "contract": "contracts/Market.sol:Market",
        "label": "_owners",
        "offset": 0,
        "slot": "3",
        "type": "t_mapping(t_uint256,t_address)"
      },
      {
        "astId": 5048,
        "contract": "contracts/Market.sol:Market",
        "label": "_balances",
        "offset": 0,
        "slot": "4",
        "type": "t_mapping(t_address,t_uint256)"
      },
      {
        "astId": 5052,
        "contract": "contracts/Market.sol:Market",
        "label": "_tokenApprovals",
        "offset": 0,
        "slot": "5",
        "type": "t_mapping(t_uint256,t_address)"
      },
      {
        "astId": 5058,
        "contract": "contracts/Market.sol:Market",
        "label": "_operatorApprovals",
        "offset": 0,
        "slot": "6",
        "type": "t_mapping(t_address,t_mapping(t_address,t_bool))"
      },
      {
        "astId": 14412,
        "contract": "contracts/Market.sol:Market",
        "label": "_inplayCount",
        "offset": 0,
        "slot": "7",
        "type": "t_uint256"
      },
      {
        "astId": 14416,
        "contract": "contracts/Market.sol:Market",
        "label": "_bets",
        "offset": 0,
        "slot": "8",
        "type": "t_array(t_struct(Bet)14396_storage)dyn_storage"
      },
      {
        "astId": 14421,
        "contract": "contracts/Market.sol:Market",
        "label": "_marketBets",
        "offset": 0,
        "slot": "9",
        "type": "t_mapping(t_bytes16,t_array(t_uint256)dyn_storage)"
      },
      {
        "astId": 14425,
        "contract": "contracts/Market.sol:Market",
        "label": "_marketTotal",
        "offset": 0,
        "slot": "10",
        "type": "t_mapping(t_bytes16,t_uint256)"
      },
      {
        "astId": 14431,
        "contract": "contracts/Market.sol:Market",
        "label": "_marketBetAmount",
        "offset": 0,
        "slot": "11",
        "type": "t_mapping(t_bytes16,t_mapping(t_uint16,t_uint256))"
      },
      {
        "astId": 14435,
        "contract": "contracts/Market.sol:Market",
        "label": "_potentialPayout",
        "offset": 0,
        "slot": "12",
        "type": "t_mapping(t_bytes16,t_uint256)"
      },
      {
        "astId": 14437,
        "contract": "contracts/Market.sol:Market",
        "label": "_totalInPlay",
        "offset": 0,
        "slot": "13",
        "type": "t_uint256"
      },
      {
        "astId": 14439,
        "contract": "contracts/Market.sol:Market",
        "label": "_totalExposure",
        "offset": 0,
        "slot": "14",
        "type": "t_uint256"
      },
      {
        "astId": 14447,
        "contract": "contracts/Market.sol:Market",
        "label": "_signers",
        "offset": 0,
        "slot": "15",
        "type": "t_mapping(t_address,t_bool)"
      }
    ],
    "types": {
      "t_address": {
        "encoding": "inplace",
        "label": "address",
        "numberOfBytes": "20"
      },
      "t_array(t_struct(Bet)14396_storage)dyn_storage": {
        "base": "t_struct(Bet)14396_storage",
        "encoding": "dynamic_array",
        "label": "struct Bet[]",
        "numberOfBytes": "32"
      },
      "t_array(t_uint256)dyn_storage": {
        "base": "t_uint256",
        "encoding": "dynamic_array",
        "label": "uint256[]",
        "numberOfBytes": "32"
      },
      "t_bool": {
        "encoding": "inplace",
        "label": "bool",
        "numberOfBytes": "1"
      },
      "t_bytes16": {
        "encoding": "inplace",
        "label": "bytes16",
        "numberOfBytes": "16"
      },
      "t_mapping(t_address,t_bool)": {
        "encoding": "mapping",
        "key": "t_address",
        "label": "mapping(address => bool)",
        "numberOfBytes": "32",
        "value": "t_bool"
      },
      "t_mapping(t_address,t_mapping(t_address,t_bool))": {
        "encoding": "mapping",
        "key": "t_address",
        "label": "mapping(address => mapping(address => bool))",
        "numberOfBytes": "32",
        "value": "t_mapping(t_address,t_bool)"
      },
      "t_mapping(t_address,t_uint256)": {
        "encoding": "mapping",
        "key": "t_address",
        "label": "mapping(address => uint256)",
        "numberOfBytes": "32",
        "value": "t_uint256"
      },
      "t_mapping(t_bytes16,t_array(t_uint256)dyn_storage)": {
        "encoding": "mapping",
        "key": "t_bytes16",
        "label": "mapping(bytes16 => uint256[])",
        "numberOfBytes": "32",
        "value": "t_array(t_uint256)dyn_storage"
      },
      "t_mapping(t_bytes16,t_mapping(t_uint16,t_uint256))": {
        "encoding": "mapping",
        "key": "t_bytes16",
        "label": "mapping(bytes16 => mapping(uint16 => uint256))",
        "numberOfBytes": "32",
        "value": "t_mapping(t_uint16,t_uint256)"
      },
      "t_mapping(t_bytes16,t_uint256)": {
        "encoding": "mapping",
        "key": "t_bytes16",
        "label": "mapping(bytes16 => uint256)",
        "numberOfBytes": "32",
        "value": "t_uint256"
      },
      "t_mapping(t_uint16,t_uint256)": {
        "encoding": "mapping",
        "key": "t_uint16",
        "label": "mapping(uint16 => uint256)",
        "numberOfBytes": "32",
        "value": "t_uint256"
      },
      "t_mapping(t_uint256,t_address)": {
        "encoding": "mapping",
        "key": "t_uint256",
        "label": "mapping(uint256 => address)",
        "numberOfBytes": "32",
        "value": "t_address"
      },
      "t_string_storage": {
        "encoding": "bytes",
        "label": "string",
        "numberOfBytes": "32"
      },
      "t_struct(Bet)14396_storage": {
        "encoding": "inplace",
        "label": "struct Bet",
        "members": [
          {
            "astId": 14383,
            "contract": "contracts/Market.sol:Market",
            "label": "propositionId",
            "offset": 0,
            "slot": "0",
            "type": "t_bytes16"
          },
          {
            "astId": 14385,
            "contract": "contracts/Market.sol:Market",
            "label": "marketId",
            "offset": 16,
            "slot": "0",
            "type": "t_bytes16"
          },
          {
            "astId": 14387,
            "contract": "contracts/Market.sol:Market",
            "label": "amount",
            "offset": 0,
            "slot": "1",
            "type": "t_uint256"
          },
          {
            "astId": 14389,
            "contract": "contracts/Market.sol:Market",
            "label": "payout",
            "offset": 0,
            "slot": "2",
            "type": "t_uint256"
          },
          {
            "astId": 14391,
            "contract": "contracts/Market.sol:Market",
            "label": "payoutDate",
            "offset": 0,
            "slot": "3",
            "type": "t_uint256"
          },
          {
            "astId": 14393,
            "contract": "contracts/Market.sol:Market",
            "label": "settled",
            "offset": 0,
            "slot": "4",
            "type": "t_bool"
          },
          {
            "astId": 14395,
            "contract": "contracts/Market.sol:Market",
            "label": "owner",
            "offset": 1,
            "slot": "4",
            "type": "t_address"
          }
        ],
        "numberOfBytes": "160"
      },
      "t_uint16": {
        "encoding": "inplace",
        "label": "uint16",
        "numberOfBytes": "2"
      },
      "t_uint256": {
        "encoding": "inplace",
        "label": "uint256",
        "numberOfBytes": "32"
      }
    }
  }
}