{
  "address": "0xA8D7A640F657E950659Ef9c175f3048350A44a6D",
  "abi": [
    {
      "inputs": [
        {
          "internalType": "contract IERC20Metadata",
          "name": "asset_",
          "type": "address"
        },
        {
          "internalType": "uint256",
          "name": "lockDuration_",
          "type": "uint256"
        }
      ],
      "stateMutability": "nonpayable",
      "type": "constructor"
    },
    {
      "anonymous": false,
      "inputs": [
        {
          "indexed": true,
          "internalType": "address",
          "name": "owner",
          "type": "address"
        },
        {
          "indexed": true,
          "internalType": "address",
          "name": "spender",
          "type": "address"
        },
        {
          "indexed": false,
          "internalType": "uint256",
          "name": "value",
          "type": "uint256"
        }
      ],
      "name": "Approval",
      "type": "event"
    },
    {
      "anonymous": false,
      "inputs": [
        {
          "indexed": true,
          "internalType": "address",
          "name": "sender",
          "type": "address"
        },
        {
          "indexed": true,
          "internalType": "address",
          "name": "owner",
          "type": "address"
        },
        {
          "indexed": false,
          "internalType": "uint256",
          "name": "assets",
          "type": "uint256"
        },
        {
          "indexed": false,
          "internalType": "uint256",
          "name": "shares",
          "type": "uint256"
        }
      ],
      "name": "Deposit",
      "type": "event"
    },
    {
      "anonymous": false,
      "inputs": [
        {
          "indexed": true,
          "internalType": "address",
          "name": "previousOwner",
          "type": "address"
        },
        {
          "indexed": true,
          "internalType": "address",
          "name": "newOwner",
          "type": "address"
        }
      ],
      "name": "OwnershipTransferred",
      "type": "event"
    },
    {
      "anonymous": false,
      "inputs": [
        {
          "indexed": true,
          "internalType": "address",
          "name": "from",
          "type": "address"
        },
        {
          "indexed": true,
          "internalType": "address",
          "name": "to",
          "type": "address"
        },
        {
          "indexed": false,
          "internalType": "uint256",
          "name": "value",
          "type": "uint256"
        }
      ],
      "name": "Transfer",
      "type": "event"
    },
    {
      "anonymous": false,
      "inputs": [
        {
          "indexed": true,
          "internalType": "address",
          "name": "sender",
          "type": "address"
        },
        {
          "indexed": true,
          "internalType": "address",
          "name": "receiver",
          "type": "address"
        },
        {
          "indexed": true,
          "internalType": "address",
          "name": "owner",
          "type": "address"
        },
        {
          "indexed": false,
          "internalType": "uint256",
          "name": "assets",
          "type": "uint256"
        },
        {
          "indexed": false,
          "internalType": "uint256",
          "name": "shares",
          "type": "uint256"
        }
      ],
      "name": "Withdraw",
      "type": "event"
    },
    {
      "inputs": [
        {
          "internalType": "address",
          "name": "owner",
          "type": "address"
        },
        {
          "internalType": "address",
          "name": "spender",
          "type": "address"
        }
      ],
      "name": "allowance",
      "outputs": [
        {
          "internalType": "uint256",
          "name": "",
          "type": "uint256"
        }
      ],
      "stateMutability": "view",
      "type": "function"
    },
    {
      "inputs": [
        {
          "internalType": "address",
          "name": "spender",
          "type": "address"
        },
        {
          "internalType": "uint256",
          "name": "amount",
          "type": "uint256"
        }
      ],
      "name": "approve",
      "outputs": [
        {
          "internalType": "bool",
          "name": "",
          "type": "bool"
        }
      ],
      "stateMutability": "nonpayable",
      "type": "function"
    },
    {
      "inputs": [],
      "name": "asset",
      "outputs": [
        {
          "internalType": "address",
          "name": "",
          "type": "address"
        }
      ],
      "stateMutability": "view",
      "type": "function"
    },
    {
      "inputs": [
        {
          "internalType": "address",
          "name": "account",
          "type": "address"
        }
      ],
      "name": "balanceOf",
      "outputs": [
        {
          "internalType": "uint256",
          "name": "",
          "type": "uint256"
        }
      ],
      "stateMutability": "view",
      "type": "function"
    },
    {
      "inputs": [
        {
          "internalType": "uint256",
          "name": "shares",
          "type": "uint256"
        }
      ],
      "name": "convertToAssets",
      "outputs": [
        {
          "internalType": "uint256",
          "name": "assets",
          "type": "uint256"
        }
      ],
      "stateMutability": "view",
      "type": "function"
    },
    {
      "inputs": [
        {
          "internalType": "uint256",
          "name": "assets",
          "type": "uint256"
        }
      ],
      "name": "convertToShares",
      "outputs": [
        {
          "internalType": "uint256",
          "name": "shares",
          "type": "uint256"
        }
      ],
      "stateMutability": "view",
      "type": "function"
    },
    {
      "inputs": [],
      "name": "decimals",
      "outputs": [
        {
          "internalType": "uint8",
          "name": "",
          "type": "uint8"
        }
      ],
      "stateMutability": "view",
      "type": "function"
    },
    {
      "inputs": [
        {
          "internalType": "address",
          "name": "spender",
          "type": "address"
        },
        {
          "internalType": "uint256",
          "name": "subtractedValue",
          "type": "uint256"
        }
      ],
      "name": "decreaseAllowance",
      "outputs": [
        {
          "internalType": "bool",
          "name": "",
          "type": "bool"
        }
      ],
      "stateMutability": "nonpayable",
      "type": "function"
    },
    {
      "inputs": [
        {
          "internalType": "uint256",
          "name": "assets",
          "type": "uint256"
        },
        {
          "internalType": "address",
          "name": "receiver",
          "type": "address"
        }
      ],
      "name": "deposit",
      "outputs": [
        {
          "internalType": "uint256",
          "name": "",
          "type": "uint256"
        }
      ],
      "stateMutability": "nonpayable",
      "type": "function"
    },
    {
      "inputs": [],
      "name": "getMarket",
      "outputs": [
        {
          "internalType": "address",
          "name": "",
          "type": "address"
        }
      ],
      "stateMutability": "view",
      "type": "function"
    },
    {
      "inputs": [],
      "name": "getMarketAllowance",
      "outputs": [
        {
          "internalType": "uint256",
          "name": "",
          "type": "uint256"
        }
      ],
      "stateMutability": "view",
      "type": "function"
    },
    {
      "inputs": [],
      "name": "getPerformance",
      "outputs": [
        {
          "internalType": "uint256",
          "name": "",
          "type": "uint256"
        }
      ],
      "stateMutability": "view",
      "type": "function"
    },
    {
      "inputs": [
        {
          "internalType": "address",
          "name": "spender",
          "type": "address"
        },
        {
          "internalType": "uint256",
          "name": "addedValue",
          "type": "uint256"
        }
      ],
      "name": "increaseAllowance",
      "outputs": [
        {
          "internalType": "bool",
          "name": "",
          "type": "bool"
        }
      ],
      "stateMutability": "nonpayable",
      "type": "function"
    },
    {
      "inputs": [],
      "name": "lockDuration",
      "outputs": [
        {
          "internalType": "uint256",
          "name": "",
          "type": "uint256"
        }
      ],
      "stateMutability": "view",
      "type": "function"
    },
    {
      "inputs": [
        {
          "internalType": "address",
          "name": "",
          "type": "address"
        }
      ],
      "name": "lockedTime",
      "outputs": [
        {
          "internalType": "uint256",
          "name": "",
          "type": "uint256"
        }
      ],
      "stateMutability": "view",
      "type": "function"
    },
    {
      "inputs": [
        {
          "internalType": "address",
          "name": "",
          "type": "address"
        }
      ],
      "name": "maxDeposit",
      "outputs": [
        {
          "internalType": "uint256",
          "name": "",
          "type": "uint256"
        }
      ],
      "stateMutability": "view",
      "type": "function"
    },
    {
      "inputs": [
        {
          "internalType": "address",
          "name": "",
          "type": "address"
        }
      ],
      "name": "maxMint",
      "outputs": [
        {
          "internalType": "uint256",
          "name": "",
          "type": "uint256"
        }
      ],
      "stateMutability": "view",
      "type": "function"
    },
    {
      "inputs": [
        {
          "internalType": "address",
          "name": "owner",
          "type": "address"
        }
      ],
      "name": "maxRedeem",
      "outputs": [
        {
          "internalType": "uint256",
          "name": "",
          "type": "uint256"
        }
      ],
      "stateMutability": "view",
      "type": "function"
    },
    {
      "inputs": [
        {
          "internalType": "address",
          "name": "owner",
          "type": "address"
        }
      ],
      "name": "maxWithdraw",
      "outputs": [
        {
          "internalType": "uint256",
          "name": "",
          "type": "uint256"
        }
      ],
      "stateMutability": "view",
      "type": "function"
    },
    {
      "inputs": [
        {
          "internalType": "uint256",
          "name": "shares",
          "type": "uint256"
        },
        {
          "internalType": "address",
          "name": "receiver",
          "type": "address"
        }
      ],
      "name": "mint",
      "outputs": [
        {
          "internalType": "uint256",
          "name": "",
          "type": "uint256"
        }
      ],
      "stateMutability": "nonpayable",
      "type": "function"
    },
    {
      "inputs": [],
      "name": "name",
      "outputs": [
        {
          "internalType": "string",
          "name": "",
          "type": "string"
        }
      ],
      "stateMutability": "view",
      "type": "function"
    },
    {
      "inputs": [],
      "name": "owner",
      "outputs": [
        {
          "internalType": "address",
          "name": "",
          "type": "address"
        }
      ],
      "stateMutability": "view",
      "type": "function"
    },
    {
      "inputs": [
        {
          "internalType": "uint256",
          "name": "assets",
          "type": "uint256"
        }
      ],
      "name": "previewDeposit",
      "outputs": [
        {
          "internalType": "uint256",
          "name": "",
          "type": "uint256"
        }
      ],
      "stateMutability": "view",
      "type": "function"
    },
    {
      "inputs": [
        {
          "internalType": "uint256",
          "name": "shares",
          "type": "uint256"
        }
      ],
      "name": "previewMint",
      "outputs": [
        {
          "internalType": "uint256",
          "name": "",
          "type": "uint256"
        }
      ],
      "stateMutability": "view",
      "type": "function"
    },
    {
      "inputs": [
        {
          "internalType": "uint256",
          "name": "shares",
          "type": "uint256"
        }
      ],
      "name": "previewRedeem",
      "outputs": [
        {
          "internalType": "uint256",
          "name": "",
          "type": "uint256"
        }
      ],
      "stateMutability": "view",
      "type": "function"
    },
    {
      "inputs": [
        {
          "internalType": "uint256",
          "name": "assets",
          "type": "uint256"
        }
      ],
      "name": "previewWithdraw",
      "outputs": [
        {
          "internalType": "uint256",
          "name": "",
          "type": "uint256"
        }
      ],
      "stateMutability": "view",
      "type": "function"
    },
    {
      "inputs": [
        {
          "internalType": "uint256",
          "name": "shares",
          "type": "uint256"
        },
        {
          "internalType": "address",
          "name": "receiver",
          "type": "address"
        },
        {
          "internalType": "address",
          "name": "owner",
          "type": "address"
        }
      ],
      "name": "redeem",
      "outputs": [
        {
          "internalType": "uint256",
          "name": "",
          "type": "uint256"
        }
      ],
      "stateMutability": "nonpayable",
      "type": "function"
    },
    {
      "inputs": [],
      "name": "renounceOwnership",
      "outputs": [],
      "stateMutability": "nonpayable",
      "type": "function"
    },
    {
      "inputs": [
        {
          "internalType": "address",
          "name": "market",
          "type": "address"
        },
        {
          "internalType": "uint256",
          "name": "max",
          "type": "uint256"
        }
      ],
      "name": "setMarket",
      "outputs": [],
      "stateMutability": "nonpayable",
      "type": "function"
    },
    {
      "inputs": [],
      "name": "symbol",
      "outputs": [
        {
          "internalType": "string",
          "name": "",
          "type": "string"
        }
      ],
      "stateMutability": "view",
      "type": "function"
    },
    {
      "inputs": [],
      "name": "totalAssets",
      "outputs": [
        {
          "internalType": "uint256",
          "name": "",
          "type": "uint256"
        }
      ],
      "stateMutability": "view",
      "type": "function"
    },
    {
      "inputs": [],
      "name": "totalAssetsLocked",
      "outputs": [
        {
          "internalType": "uint256",
          "name": "",
          "type": "uint256"
        }
      ],
      "stateMutability": "view",
      "type": "function"
    },
    {
      "inputs": [],
      "name": "totalSupply",
      "outputs": [
        {
          "internalType": "uint256",
          "name": "",
          "type": "uint256"
        }
      ],
      "stateMutability": "view",
      "type": "function"
    },
    {
      "inputs": [
        {
          "internalType": "address",
          "name": "to",
          "type": "address"
        },
        {
          "internalType": "uint256",
          "name": "amount",
          "type": "uint256"
        }
      ],
      "name": "transfer",
      "outputs": [
        {
          "internalType": "bool",
          "name": "",
          "type": "bool"
        }
      ],
      "stateMutability": "nonpayable",
      "type": "function"
    },
    {
      "inputs": [
        {
          "internalType": "address",
          "name": "from",
          "type": "address"
        },
        {
          "internalType": "address",
          "name": "to",
          "type": "address"
        },
        {
          "internalType": "uint256",
          "name": "amount",
          "type": "uint256"
        }
      ],
      "name": "transferFrom",
      "outputs": [
        {
          "internalType": "bool",
          "name": "",
          "type": "bool"
        }
      ],
      "stateMutability": "nonpayable",
      "type": "function"
    },
    {
      "inputs": [
        {
          "internalType": "address",
          "name": "newOwner",
          "type": "address"
        }
      ],
      "name": "transferOwnership",
      "outputs": [],
      "stateMutability": "nonpayable",
      "type": "function"
    },
    {
      "inputs": [
        {
          "internalType": "uint256",
          "name": "assets",
          "type": "uint256"
        },
        {
          "internalType": "address",
          "name": "receiver",
          "type": "address"
        },
        {
          "internalType": "address",
          "name": "owner",
          "type": "address"
        }
      ],
      "name": "withdraw",
      "outputs": [
        {
          "internalType": "uint256",
          "name": "",
          "type": "uint256"
        }
      ],
      "stateMutability": "nonpayable",
      "type": "function"
    }
  ],
  "transactionHash": "0x6ad12881592edffc435b31336c1a09ffa5ee8cfeb41b5365737955936de077da",
  "args": [
    "0x5c6662a1fde46B8d0FbfA8d992f18A2E0Fc055b4",
    "1800"
  ],
  "numDeployments": 1,
  "solcInputHash": "8567b3a2d5e41daaa5da4899fd319464",
  "bytecode": "0x6101006040523480156200001257600080fd5b50604051620047403803806200474083398181016040528101906200003891906200070e565b8180808273ffffffffffffffffffffffffffffffffffffffff166306fdde036040518163ffffffff1660e01b8152600401600060405180830381865afa15801562000087573d6000803e3d6000fd5b505050506040513d6000823e3d601f19601f82011682018060405250810190620000b29190620008de565b604051602001620000c49190620009cc565b6040516020818303038152906040528373ffffffffffffffffffffffffffffffffffffffff166395d89b416040518163ffffffff1660e01b8152600401600060405180830381865afa1580156200011f573d6000803e3d6000fd5b505050506040513d6000823e3d601f19601f820116820180604052508101906200014a9190620008de565b6040516020016200015c919062000a42565b60405160208183030381529060405281600390805190602001906200018392919062000596565b5080600490805190602001906200019c92919062000596565b505050600080620001b3836200038360201b60201c565b9150915081620001d857620001d2620004bf60201b620013f61760201c565b620001da565b805b60ff1660a08160ff16815250508273ffffffffffffffffffffffffffffffffffffffff1660808173ffffffffffffffffffffffffffffffffffffffff1681525050505050506200023f62000233620004c860201b60201c565b620004d060201b60201c565b600073ffffffffffffffffffffffffffffffffffffffff168173ffffffffffffffffffffffffffffffffffffffff161415620002b2576040517f08c379a0000000000000000000000000000000000000000000000000000000008152600401620002a99062000ac9565b60405180910390fd5b8073ffffffffffffffffffffffffffffffffffffffff1663313ce5676040518163ffffffff1660e01b8152600401602060405180830381865afa158015620002fe573d6000803e3d6000fd5b505050506040513d601f19601f8201168201806040525081019062000324919062000b29565b60ff1660c08160ff168152505030600760006101000a81548173ffffffffffffffffffffffffffffffffffffffff021916908373ffffffffffffffffffffffffffffffffffffffff160217905550508060e08181525050505062000c58565b6000806000808473ffffffffffffffffffffffffffffffffffffffff1663313ce56760e01b604051602401604051602081830303815290604052907bffffffffffffffffffffffffffffffffffffffffffffffffffffffff19166020820180517bffffffffffffffffffffffffffffffffffffffffffffffffffffffff83818316178352505050506040516200041a919062000ba8565b6000604051808303816000865af19150503d806000811462000459576040519150601f19603f3d011682016040523d82523d6000602084013e6200045e565b606091505b50915091508180156200047357506020815110155b15620004b05760008180602001905181019062000491919062000bc1565b905060ff80168111620004ae5760018194509450505050620004ba565b505b6000809350935050505b915091565b60006012905090565b600033905090565b6000600560009054906101000a900473ffffffffffffffffffffffffffffffffffffffff16905081600560006101000a81548173ffffffffffffffffffffffffffffffffffffffff021916908373ffffffffffffffffffffffffffffffffffffffff1602179055508173ffffffffffffffffffffffffffffffffffffffff168173ffffffffffffffffffffffffffffffffffffffff167f8be0079c531659141344cd1fd0a4f28419497f9722a3daafe3b4186f6b6457e060405160405180910390a35050565b828054620005a49062000c22565b90600052602060002090601f016020900481019282620005c8576000855562000614565b82601f10620005e357805160ff191683800117855562000614565b8280016001018555821562000614579182015b8281111562000613578251825591602001919060010190620005f6565b5b50905062000623919062000627565b5090565b5b808211156200064257600081600090555060010162000628565b5090565b6000604051905090565b600080fd5b600080fd5b600073ffffffffffffffffffffffffffffffffffffffff82169050919050565b600062000687826200065a565b9050919050565b60006200069b826200067a565b9050919050565b620006ad816200068e565b8114620006b957600080fd5b50565b600081519050620006cd81620006a2565b92915050565b6000819050919050565b620006e881620006d3565b8114620006f457600080fd5b50565b6000815190506200070881620006dd565b92915050565b6000806040838503121562000728576200072762000650565b5b60006200073885828601620006bc565b92505060206200074b85828601620006f7565b9150509250929050565b600080fd5b600080fd5b6000601f19601f8301169050919050565b7f4e487b7100000000000000000000000000000000000000000000000000000000600052604160045260246000fd5b620007aa826200075f565b810181811067ffffffffffffffff82111715620007cc57620007cb62000770565b5b80604052505050565b6000620007e162000646565b9050620007ef82826200079f565b919050565b600067ffffffffffffffff82111562000812576200081162000770565b5b6200081d826200075f565b9050602081019050919050565b60005b838110156200084a5780820151818401526020810190506200082d565b838111156200085a576000848401525b50505050565b6000620008776200087184620007f4565b620007d5565b9050828152602081018484840111156200089657620008956200075a565b5b620008a38482856200082a565b509392505050565b600082601f830112620008c357620008c262000755565b5b8151620008d584826020860162000860565b91505092915050565b600060208284031215620008f757620008f662000650565b5b600082015167ffffffffffffffff81111562000918576200091762000655565b5b6200092684828501620008ab565b91505092915050565b600081905092915050565b7f484c200000000000000000000000000000000000000000000000000000000000600082015250565b6000620009726003836200092f565b91506200097f826200093a565b600382019050919050565b600081519050919050565b6000620009a2826200098a565b620009ae81856200092f565b9350620009c08185602086016200082a565b80840191505092915050565b6000620009d98262000963565b9150620009e7828462000995565b915081905092915050565b7f484c000000000000000000000000000000000000000000000000000000000000600082015250565b600062000a2a6002836200092f565b915062000a3782620009f2565b600282019050919050565b600062000a4f8262000a1b565b915062000a5d828462000995565b915081905092915050565b600082825260208201905092915050565b7f556e6465726c79696e67206164647265737320697320696e76616c6964000000600082015250565b600062000ab1601d8362000a68565b915062000abe8262000a79565b602082019050919050565b6000602082019050818103600083015262000ae48162000aa2565b9050919050565b600060ff82169050919050565b62000b038162000aeb565b811462000b0f57600080fd5b50565b60008151905062000b238162000af8565b92915050565b60006020828403121562000b425762000b4162000650565b5b600062000b528482850162000b12565b91505092915050565b600081519050919050565b600081905092915050565b600062000b7e8262000b5b565b62000b8a818562000b66565b935062000b9c8185602086016200082a565b80840191505092915050565b600062000bb6828462000b71565b915081905092915050565b60006020828403121562000bda5762000bd962000650565b5b600062000bea84828501620006f7565b91505092915050565b7f4e487b7100000000000000000000000000000000000000000000000000000000600052602260045260246000fd5b6000600282049050600182168062000c3b57607f821691505b6020821081141562000c525762000c5162000bf3565b5b50919050565b60805160a05160c05160e051613a9c62000ca4600039600081816108a201526119b801526000610a7601526000505060008181610ab601528181611dd50152611ec10152613a9c6000f3fe608060405234801561001057600080fd5b50600436106102275760003560e01c8063715018a611610130578063b460af94116100b8578063d905777e1161007c578063d905777e1461072c578063dd62ed3e1461075c578063ef8b30f71461078c578063f1be1679146107bc578063f2fde38b146107da57610227565b8063b460af941461063c578063ba0876521461066c578063c63d75b61461069c578063c6e6f592146106cc578063ce96cb77146106fc57610227565b8063a3947323116100ff578063a394732314610572578063a457c2d71461058e578063a9059cbb146105be578063b15031fa146105ee578063b3d7f6b91461060c57610227565b8063715018a6146104fc5780638da5cb5b1461050657806394bf804d1461052457806395d89b411461055457610227565b8063313ce567116101b3578063402d267d11610182578063402d267d1461041e57806342de4e9c1461044e5780634cdad5061461046c5780636e553f651461049c57806370a08231146104cc57610227565b8063313ce567146103825780633266fb05146103a057806338d52e0f146103d057806339509351146103ee57610227565b8063095ea7b3116101fa578063095ea7b3146102b65780630a28a477146102e65780631738e42d1461031657806318160ddd1461033457806323b872dd1461035257610227565b806301e1d1141461022c578063045544431461024a57806306fdde031461026857806307a2d13a14610286575b600080fd5b6102346107f6565b6040516102419190612734565b60405180910390f35b6102526108a0565b60405161025f9190612734565b60405180910390f35b6102706108c4565b60405161027d91906127e8565b60405180910390f35b6102a0600480360381019061029b919061283b565b610956565b6040516102ad9190612734565b60405180910390f35b6102d060048036038101906102cb91906128c6565b61096a565b6040516102dd9190612921565b60405180910390f35b61030060048036038101906102fb919061283b565b61098d565b60405161030d9190612734565b60405180910390f35b61031e6109a1565b60405161032b9190612734565b60405180910390f35b61033c610a39565b6040516103499190612734565b60405180910390f35b61036c6004803603810190610367919061293c565b610a43565b6040516103799190612921565b60405180910390f35b61038a610a72565b60405161039791906129ab565b60405180910390f35b6103ba60048036038101906103b591906129c6565b610a9a565b6040516103c79190612734565b60405180910390f35b6103d8610ab2565b6040516103e59190612a02565b60405180910390f35b610408600480360381019061040391906128c6565b610ada565b6040516104159190612921565b60405180910390f35b610438600480360381019061043391906129c6565b610b11565b6040516104459190612734565b60405180910390f35b610456610b4f565b6040516104639190612734565b60405180910390f35b6104866004803603810190610481919061283b565b610b5e565b6040516104939190612734565b60405180910390f35b6104b660048036038101906104b19190612a1d565b610b72565b6040516104c39190612734565b60405180910390f35b6104e660048036038101906104e191906129c6565b610bc5565b6040516104f39190612734565b60405180910390f35b610504610c0d565b005b61050e610c21565b60405161051b9190612a02565b60405180910390f35b61053e60048036038101906105399190612a1d565b610c4b565b60405161054b9190612734565b60405180910390f35b61055c610cc2565b60405161056991906127e8565b60405180910390f35b61058c600480360381019061058791906128c6565b610d54565b005b6105a860048036038101906105a391906128c6565b610eda565b6040516105b59190612921565b60405180910390f35b6105d860048036038101906105d391906128c6565b610f51565b6040516105e59190612921565b60405180910390f35b6105f6610f74565b6040516106039190612734565b60405180910390f35b6106266004803603810190610621919061283b565b6110f9565b6040516106339190612734565b60405180910390f35b61065660048036038101906106519190612a5d565b61110d565b6040516106639190612734565b60405180910390f35b61068660048036038101906106819190612a5d565b611186565b6040516106939190612734565b60405180910390f35b6106b660048036038101906106b191906129c6565b6111ff565b6040516106c39190612734565b60405180910390f35b6106e660048036038101906106e1919061283b565b611229565b6040516106f39190612734565b60405180910390f35b610716600480360381019061071191906129c6565b61123d565b6040516107239190612734565b60405180910390f35b610746600480360381019061074191906129c6565b611259565b6040516107539190612734565b60405180910390f35b61077660048036038101906107719190612ab0565b6112ad565b6040516107839190612734565b60405180910390f35b6107a660048036038101906107a1919061283b565b611334565b6040516107b39190612734565b60405180910390f35b6107c4611348565b6040516107d19190612a02565b60405180910390f35b6107f460048036038101906107ef91906129c6565b611372565b005b6000610800610ab2565b73ffffffffffffffffffffffffffffffffffffffff166370a08231600760009054906101000a900473ffffffffffffffffffffffffffffffffffffffff166040518263ffffffff1660e01b815260040161085a9190612a02565b602060405180830381865afa158015610877573d6000803e3d6000fd5b505050506040513d601f19601f8201168201806040525081019061089b9190612b05565b905090565b7f000000000000000000000000000000000000000000000000000000000000000081565b6060600380546108d390612b61565b80601f01602080910402602001604051908101604052809291908181526020018280546108ff90612b61565b801561094c5780601f106109215761010080835404028352916020019161094c565b820191906000526020600020905b81548152906001019060200180831161092f57829003601f168201915b5050505050905090565b60006109638260006113ff565b9050919050565b60008061097561144b565b9050610982818585611453565b600191505092915050565b600061099a82600161161e565b9050919050565b6000600660009054906101000a900473ffffffffffffffffffffffffffffffffffffffff1673ffffffffffffffffffffffffffffffffffffffff16638ac6d2176040518163ffffffff1660e01b8152600401602060405180830381865afa158015610a10573d6000803e3d6000fd5b505050506040513d601f19601f82011682018060405250810190610a349190612b05565b905090565b6000600254905090565b600080610a4e61144b565b9050610a5b858285611675565b610a66858585611701565b60019150509392505050565b60007f0000000000000000000000000000000000000000000000000000000000000000905090565b60086020528060005260406000206000915090505481565b60007f0000000000000000000000000000000000000000000000000000000000000000905090565b600080610ae561144b565b9050610b06818585610af785896112ad565b610b019190612bc2565b611453565b600191505092915050565b6000610b1b611792565b610b26576000610b48565b7fffffffffffffffffffffffffffffffffffffffffffffffffffffffffffffffff5b9050919050565b6000610b596117b5565b905090565b6000610b6b8260006113ff565b9050919050565b60008073ffffffffffffffffffffffffffffffffffffffff168273ffffffffffffffffffffffffffffffffffffffff161415610bb357610bb061144b565b91505b610bbd83836117fb565b905092915050565b60008060008373ffffffffffffffffffffffffffffffffffffffff1673ffffffffffffffffffffffffffffffffffffffff168152602001908152602001600020549050919050565b610c15611872565b610c1f60006118f0565b565b6000600560009054906101000a900473ffffffffffffffffffffffffffffffffffffffff16905090565b6000610c56826111ff565b831115610c98576040517f08c379a0000000000000000000000000000000000000000000000000000000008152600401610c8f90612c64565b60405180910390fd5b6000610ca3846110f9565b9050610cb8610cb061144b565b8483876119b6565b8091505092915050565b606060048054610cd190612b61565b80601f0160208091040260200160405190810160405280929190818152602001828054610cfd90612b61565b8015610d4a5780601f10610d1f57610100808354040283529160200191610d4a565b820191906000526020600020905b815481529060010190602001808311610d2d57829003601f168201915b5050505050905090565b610d5c611872565b600073ffffffffffffffffffffffffffffffffffffffff16600660009054906101000a900473ffffffffffffffffffffffffffffffffffffffff1673ffffffffffffffffffffffffffffffffffffffff1614610ded576040517f08c379a0000000000000000000000000000000000000000000000000000000008152600401610de490612cd0565b60405180910390fd5b81600660006101000a81548173ffffffffffffffffffffffffffffffffffffffff021916908373ffffffffffffffffffffffffffffffffffffffff160217905550610e36610ab2565b73ffffffffffffffffffffffffffffffffffffffff1663095ea7b3600660009054906101000a900473ffffffffffffffffffffffffffffffffffffffff16836040518363ffffffff1660e01b8152600401610e92929190612cf0565b6020604051808303816000875af1158015610eb1573d6000803e3d6000fd5b505050506040513d601f19601f82011682018060405250810190610ed59190612d45565b505050565b600080610ee561144b565b90506000610ef382866112ad565b905083811015610f38576040517f08c379a0000000000000000000000000000000000000000000000000000000008152600401610f2f90612de4565b60405180910390fd5b610f458286868403611453565b60019250505092915050565b600080610f5c61144b565b9050610f69818585611701565b600191505092915050565b60008073ffffffffffffffffffffffffffffffffffffffff16600660009054906101000a900473ffffffffffffffffffffffffffffffffffffffff1673ffffffffffffffffffffffffffffffffffffffff161415611007576040517f08c379a0000000000000000000000000000000000000000000000000000000008152600401610ffe90612e76565b60405180910390fd5b6000611011610ab2565b73ffffffffffffffffffffffffffffffffffffffff1663dd62ed3e600760009054906101000a900473ffffffffffffffffffffffffffffffffffffffff16600660009054906101000a900473ffffffffffffffffffffffffffffffffffffffff166040518363ffffffff1660e01b815260040161108f929190612e96565b602060405180830381865afa1580156110ac573d6000803e3d6000fd5b505050506040513d601f19601f820116820180604052508101906110d09190612b05565b90506110da6107f6565b8111156110f1576110e96107f6565b9150506110f6565b809150505b90565b60006111068260016113ff565b9050919050565b60006111188261123d565b84111561115a576040517f08c379a000000000000000000000000000000000000000000000000000000000815260040161115190612f0b565b60405180910390fd5b60006111658561098d565b905061117b61117261144b565b85858885611a37565b809150509392505050565b600061119182611259565b8411156111d3576040517f08c379a00000000000000000000000000000000000000000000000000000000081526004016111ca90612f77565b60405180910390fd5b60006111de85610b5e565b90506111f46111eb61144b565b85858489611a37565b809150509392505050565b60007fffffffffffffffffffffffffffffffffffffffffffffffffffffffffffffffff9050919050565b600061123682600061161e565b9050919050565b600061125261124b83610bc5565b60006113ff565b9050919050565b6000806112646107f6565b141561127357600090506112a8565b600061127e83610bc5565b9050600061128a6107f6565b826112959190612fc6565b905080826112a39190612ff7565b925050505b919050565b6000600160008473ffffffffffffffffffffffffffffffffffffffff1673ffffffffffffffffffffffffffffffffffffffff16815260200190815260200160002060008373ffffffffffffffffffffffffffffffffffffffff1673ffffffffffffffffffffffffffffffffffffffff16815260200190815260200160002054905092915050565b600061134182600061161e565b9050919050565b6000600660009054906101000a900473ffffffffffffffffffffffffffffffffffffffff16905090565b61137a611872565b600073ffffffffffffffffffffffffffffffffffffffff168173ffffffffffffffffffffffffffffffffffffffff1614156113ea576040517f08c379a00000000000000000000000000000000000000000000000000000000081526004016113e19061309d565b60405180910390fd5b6113f3816118f0565b50565b60006012905090565b60008061140a610a39565b9050600081146114375761143261141f6107f6565b828587611acc909392919063ffffffff16565b611442565b6114418484611b42565b5b91505092915050565b600033905090565b600073ffffffffffffffffffffffffffffffffffffffff168373ffffffffffffffffffffffffffffffffffffffff1614156114c3576040517f08c379a00000000000000000000000000000000000000000000000000000000081526004016114ba9061312f565b60405180910390fd5b600073ffffffffffffffffffffffffffffffffffffffff168273ffffffffffffffffffffffffffffffffffffffff161415611533576040517f08c379a000000000000000000000000000000000000000000000000000000000815260040161152a906131c1565b60405180910390fd5b80600160008573ffffffffffffffffffffffffffffffffffffffff1673ffffffffffffffffffffffffffffffffffffffff16815260200190815260200160002060008473ffffffffffffffffffffffffffffffffffffffff1673ffffffffffffffffffffffffffffffffffffffff168152602001908152602001600020819055508173ffffffffffffffffffffffffffffffffffffffff168373ffffffffffffffffffffffffffffffffffffffff167f8c5be1e5ebec7d5bd14f71427d1e84f3dd0314c0f7b2291e5b200ac8c7c3b925836040516116119190612734565b60405180910390a3505050565b600080611629610a39565b9050600084148061163a5750600081145b6116615761165c8161164a6107f6565b8587611acc909392919063ffffffff16565b61166c565b61166b8484611b4d565b5b91505092915050565b600061168184846112ad565b90507fffffffffffffffffffffffffffffffffffffffffffffffffffffffffffffffff81146116fb57818110156116ed576040517f08c379a00000000000000000000000000000000000000000000000000000000081526004016116e49061322d565b60405180910390fd5b6116fa8484848403611453565b5b50505050565b42600860008573ffffffffffffffffffffffffffffffffffffffff1673ffffffffffffffffffffffffffffffffffffffff1681526020019081526020016000205410611782576040517f08c379a0000000000000000000000000000000000000000000000000000000008152600401611779906132bf565b60405180910390fd5b61178d838383611b58565b505050565b60008061179d6107f6565b11806117b0575060006117ae610a39565b145b905090565b6000806117c06107f6565b905060008111156117f2578060646117d6610a39565b6117e091906132df565b6117ea9190612fc6565b9150506117f8565b60009150505b90565b600061180682610b11565b831115611848576040517f08c379a000000000000000000000000000000000000000000000000000000000815260040161183f90613385565b60405180910390fd5b600061185384611334565b905061186861186061144b565b8486846119b6565b8091505092915050565b61187a61144b565b73ffffffffffffffffffffffffffffffffffffffff16611898610c21565b73ffffffffffffffffffffffffffffffffffffffff16146118ee576040517f08c379a00000000000000000000000000000000000000000000000000000000081526004016118e5906133f1565b60405180910390fd5b565b6000600560009054906101000a900473ffffffffffffffffffffffffffffffffffffffff16905081600560006101000a81548173ffffffffffffffffffffffffffffffffffffffff021916908373ffffffffffffffffffffffffffffffffffffffff1602179055508173ffffffffffffffffffffffffffffffffffffffff168173ffffffffffffffffffffffffffffffffffffffff167f8be0079c531659141344cd1fd0a4f28419497f9722a3daafe3b4186f6b6457e060405160405180910390a35050565b7f0000000000000000000000000000000000000000000000000000000000000000426119e29190612bc2565b600860008573ffffffffffffffffffffffffffffffffffffffff1673ffffffffffffffffffffffffffffffffffffffff16815260200190815260200160002081905550611a3184848484611dd0565b50505050565b42600860008573ffffffffffffffffffffffffffffffffffffffff1673ffffffffffffffffffffffffffffffffffffffff1681526020019081526020016000205410611ab8576040517f08c379a0000000000000000000000000000000000000000000000000000000008152600401611aaf90613483565b60405180910390fd5b611ac58585858585611e73565b5050505050565b600080611ada868686611f6c565b905060016002811115611af057611aef6134a3565b5b836002811115611b0357611b026134a3565b5b148015611b21575060008480611b1c57611b1b612f97565b5b868809115b15611b3657600181611b339190612bc2565b90505b80915050949350505050565b600082905092915050565b600082905092915050565b600073ffffffffffffffffffffffffffffffffffffffff168373ffffffffffffffffffffffffffffffffffffffff161415611bc8576040517f08c379a0000000000000000000000000000000000000000000000000000000008152600401611bbf90613544565b60405180910390fd5b600073ffffffffffffffffffffffffffffffffffffffff168273ffffffffffffffffffffffffffffffffffffffff161415611c38576040517f08c379a0000000000000000000000000000000000000000000000000000000008152600401611c2f906135d6565b60405180910390fd5b611c43838383612048565b60008060008573ffffffffffffffffffffffffffffffffffffffff1673ffffffffffffffffffffffffffffffffffffffff16815260200190815260200160002054905081811015611cc9576040517f08c379a0000000000000000000000000000000000000000000000000000000008152600401611cc090613668565b60405180910390fd5b8181036000808673ffffffffffffffffffffffffffffffffffffffff1673ffffffffffffffffffffffffffffffffffffffff16815260200190815260200160002081905550816000808573ffffffffffffffffffffffffffffffffffffffff1673ffffffffffffffffffffffffffffffffffffffff168152602001908152602001600020600082825401925050819055508273ffffffffffffffffffffffffffffffffffffffff168473ffffffffffffffffffffffffffffffffffffffff167fddf252ad1be2c89b69c2b068fc378daa952ba7f163c4a11628f55a4df523b3ef84604051611db79190612734565b60405180910390a3611dca84848461204d565b50505050565b611dfc7f0000000000000000000000000000000000000000000000000000000000000000853085612052565b611e0683826120db565b8273ffffffffffffffffffffffffffffffffffffffff168473ffffffffffffffffffffffffffffffffffffffff167fdcbc1c05240f31ff3ad067ef1ee35ce4997762752e3a095284754544f4c709d78484604051611e65929190613688565b60405180910390a350505050565b8273ffffffffffffffffffffffffffffffffffffffff168573ffffffffffffffffffffffffffffffffffffffff1614611eb257611eb1838683611675565b5b611ebc8382612232565b611ee77f00000000000000000000000000000000000000000000000000000000000000008584612400565b8273ffffffffffffffffffffffffffffffffffffffff168473ffffffffffffffffffffffffffffffffffffffff168673ffffffffffffffffffffffffffffffffffffffff167ffbde797d201c681b91056529119e0b02407c7bb96a4a2c75c01fc9667232c8db8585604051611f5d929190613688565b60405180910390a45050505050565b600080600080198587098587029250828110838203039150506000811415611fa857838281611f9e57611f9d612f97565b5b0492505050612041565b808411611fb457600080fd5b60008486880990508281118203915080830392506000600186190186169050808604955080840493506001818260000304019050808302841793506000600287600302189050808702600203810290508087026002038102905080870260020381029050808702600203810290508087026002038102905080870260020381029050808502955050505050505b9392505050565b505050565b505050565b6120d5846323b872dd60e01b858585604051602401612073939291906136b1565b604051602081830303815290604052907bffffffffffffffffffffffffffffffffffffffffffffffffffffffff19166020820180517bffffffffffffffffffffffffffffffffffffffffffffffffffffffff8381831617835250505050612486565b50505050565b600073ffffffffffffffffffffffffffffffffffffffff168273ffffffffffffffffffffffffffffffffffffffff16141561214b576040517f08c379a000000000000000000000000000000000000000000000000000000000815260040161214290613734565b60405180910390fd5b61215760008383612048565b80600260008282546121699190612bc2565b92505081905550806000808473ffffffffffffffffffffffffffffffffffffffff1673ffffffffffffffffffffffffffffffffffffffff168152602001908152602001600020600082825401925050819055508173ffffffffffffffffffffffffffffffffffffffff16600073ffffffffffffffffffffffffffffffffffffffff167fddf252ad1be2c89b69c2b068fc378daa952ba7f163c4a11628f55a4df523b3ef8360405161221a9190612734565b60405180910390a361222e6000838361204d565b5050565b600073ffffffffffffffffffffffffffffffffffffffff168273ffffffffffffffffffffffffffffffffffffffff1614156122a2576040517f08c379a0000000000000000000000000000000000000000000000000000000008152600401612299906137c6565b60405180910390fd5b6122ae82600083612048565b60008060008473ffffffffffffffffffffffffffffffffffffffff1673ffffffffffffffffffffffffffffffffffffffff16815260200190815260200160002054905081811015612334576040517f08c379a000000000000000000000000000000000000000000000000000000000815260040161232b90613858565b60405180910390fd5b8181036000808573ffffffffffffffffffffffffffffffffffffffff1673ffffffffffffffffffffffffffffffffffffffff1681526020019081526020016000208190555081600260008282540392505081905550600073ffffffffffffffffffffffffffffffffffffffff168373ffffffffffffffffffffffffffffffffffffffff167fddf252ad1be2c89b69c2b068fc378daa952ba7f163c4a11628f55a4df523b3ef846040516123e79190612734565b60405180910390a36123fb8360008461204d565b505050565b6124818363a9059cbb60e01b848460405160240161241f929190612cf0565b604051602081830303815290604052907bffffffffffffffffffffffffffffffffffffffffffffffffffffffff19166020820180517bffffffffffffffffffffffffffffffffffffffffffffffffffffffff8381831617835250505050612486565b505050565b60006124e8826040518060400160405280602081526020017f5361666545524332303a206c6f772d6c6576656c2063616c6c206661696c65648152508573ffffffffffffffffffffffffffffffffffffffff1661254d9092919063ffffffff16565b905060008151111561254857808060200190518101906125089190612d45565b612547576040517f08c379a000000000000000000000000000000000000000000000000000000000815260040161253e906138ea565b60405180910390fd5b5b505050565b606061255c8484600085612565565b90509392505050565b6060824710156125aa576040517f08c379a00000000000000000000000000000000000000000000000000000000081526004016125a19061397c565b60405180910390fd5b6000808673ffffffffffffffffffffffffffffffffffffffff1685876040516125d391906139e3565b60006040518083038185875af1925050503d8060008114612610576040519150601f19603f3d011682016040523d82523d6000602084013e612615565b606091505b509150915061262687838387612632565b92505050949350505050565b606083156126955760008351141561268d5761264d856126a8565b61268c576040517f08c379a000000000000000000000000000000000000000000000000000000000815260040161268390613a46565b60405180910390fd5b5b8290506126a0565b61269f83836126cb565b5b949350505050565b6000808273ffffffffffffffffffffffffffffffffffffffff163b119050919050565b6000825111156126de5781518083602001fd5b806040517f08c379a000000000000000000000000000000000000000000000000000000000815260040161271291906127e8565b60405180910390fd5b6000819050919050565b61272e8161271b565b82525050565b60006020820190506127496000830184612725565b92915050565b600081519050919050565b600082825260208201905092915050565b60005b8381101561278957808201518184015260208101905061276e565b83811115612798576000848401525b50505050565b6000601f19601f8301169050919050565b60006127ba8261274f565b6127c4818561275a565b93506127d481856020860161276b565b6127dd8161279e565b840191505092915050565b6000602082019050818103600083015261280281846127af565b905092915050565b600080fd5b6128188161271b565b811461282357600080fd5b50565b6000813590506128358161280f565b92915050565b6000602082840312156128515761285061280a565b5b600061285f84828501612826565b91505092915050565b600073ffffffffffffffffffffffffffffffffffffffff82169050919050565b600061289382612868565b9050919050565b6128a381612888565b81146128ae57600080fd5b50565b6000813590506128c08161289a565b92915050565b600080604083850312156128dd576128dc61280a565b5b60006128eb858286016128b1565b92505060206128fc85828601612826565b9150509250929050565b60008115159050919050565b61291b81612906565b82525050565b60006020820190506129366000830184612912565b92915050565b6000806000606084860312156129555761295461280a565b5b6000612963868287016128b1565b9350506020612974868287016128b1565b925050604061298586828701612826565b9150509250925092565b600060ff82169050919050565b6129a58161298f565b82525050565b60006020820190506129c0600083018461299c565b92915050565b6000602082840312156129dc576129db61280a565b5b60006129ea848285016128b1565b91505092915050565b6129fc81612888565b82525050565b6000602082019050612a1760008301846129f3565b92915050565b60008060408385031215612a3457612a3361280a565b5b6000612a4285828601612826565b9250506020612a53858286016128b1565b9150509250929050565b600080600060608486031215612a7657612a7561280a565b5b6000612a8486828701612826565b9350506020612a95868287016128b1565b9250506040612aa6868287016128b1565b9150509250925092565b60008060408385031215612ac757612ac661280a565b5b6000612ad5858286016128b1565b9250506020612ae6858286016128b1565b9150509250929050565b600081519050612aff8161280f565b92915050565b600060208284031215612b1b57612b1a61280a565b5b6000612b2984828501612af0565b91505092915050565b7f4e487b7100000000000000000000000000000000000000000000000000000000600052602260045260246000fd5b60006002820490506001821680612b7957607f821691505b60208210811415612b8d57612b8c612b32565b5b50919050565b7f4e487b7100000000000000000000000000000000000000000000000000000000600052601160045260246000fd5b6000612bcd8261271b565b9150612bd88361271b565b9250827fffffffffffffffffffffffffffffffffffffffffffffffffffffffffffffffff03821115612c0d57612c0c612b93565b5b828201905092915050565b7f455243343632363a206d696e74206d6f7265207468616e206d61780000000000600082015250565b6000612c4e601b8361275a565b9150612c5982612c18565b602082019050919050565b60006020820190508181036000830152612c7d81612c41565b9050919050565b7f7365744d61726b65743a204d61726b657420616c726561647920736574000000600082015250565b6000612cba601d8361275a565b9150612cc582612c84565b602082019050919050565b60006020820190508181036000830152612ce981612cad565b9050919050565b6000604082019050612d0560008301856129f3565b612d126020830184612725565b9392505050565b612d2281612906565b8114612d2d57600080fd5b50565b600081519050612d3f81612d19565b92915050565b600060208284031215612d5b57612d5a61280a565b5b6000612d6984828501612d30565b91505092915050565b7f45524332303a2064656372656173656420616c6c6f77616e63652062656c6f7760008201527f207a65726f000000000000000000000000000000000000000000000000000000602082015250565b6000612dce60258361275a565b9150612dd982612d72565b604082019050919050565b60006020820190508181036000830152612dfd81612dc1565b9050919050565b7f6465706f7369743a204e6f7420616c6c6f77656420756e74696c206d61726b6560008201527f7420697320736574000000000000000000000000000000000000000000000000602082015250565b6000612e6060288361275a565b9150612e6b82612e04565b604082019050919050565b60006020820190508181036000830152612e8f81612e53565b9050919050565b6000604082019050612eab60008301856129f3565b612eb860208301846129f3565b9392505050565b7f455243343632363a207769746864726177206d6f7265207468616e206d617800600082015250565b6000612ef5601f8361275a565b9150612f0082612ebf565b602082019050919050565b60006020820190508181036000830152612f2481612ee8565b9050919050565b7f455243343632363a2072656465656d206d6f7265207468616e206d6178000000600082015250565b6000612f61601d8361275a565b9150612f6c82612f2b565b602082019050919050565b60006020820190508181036000830152612f9081612f54565b9050919050565b7f4e487b7100000000000000000000000000000000000000000000000000000000600052601260045260246000fd5b6000612fd18261271b565b9150612fdc8361271b565b925082612fec57612feb612f97565b5b828204905092915050565b60006130028261271b565b915061300d8361271b565b9250828210156130205761301f612b93565b5b828203905092915050565b7f4f776e61626c653a206e6577206f776e657220697320746865207a65726f206160008201527f6464726573730000000000000000000000000000000000000000000000000000602082015250565b600061308760268361275a565b91506130928261302b565b604082019050919050565b600060208201905081810360008301526130b68161307a565b9050919050565b7f45524332303a20617070726f76652066726f6d20746865207a65726f2061646460008201527f7265737300000000000000000000000000000000000000000000000000000000602082015250565b600061311960248361275a565b9150613124826130bd565b604082019050919050565b600060208201905081810360008301526131488161310c565b9050919050565b7f45524332303a20617070726f766520746f20746865207a65726f20616464726560008201527f7373000000000000000000000000000000000000000000000000000000000000602082015250565b60006131ab60228361275a565b91506131b68261314f565b604082019050919050565b600060208201905081810360008301526131da8161319e565b9050919050565b7f45524332303a20696e73756666696369656e7420616c6c6f77616e6365000000600082015250565b6000613217601d8361275a565b9150613222826131e1565b602082019050919050565b600060208201905081810360008301526132468161320a565b9050919050565b7f5f7472616e736665723a204c6f636b65642074696d65206e6f7420706173736560008201527f6400000000000000000000000000000000000000000000000000000000000000602082015250565b60006132a960218361275a565b91506132b48261324d565b604082019050919050565b600060208201905081810360008301526132d88161329c565b9050919050565b60006132ea8261271b565b91506132f58361271b565b9250817fffffffffffffffffffffffffffffffffffffffffffffffffffffffffffffffff048311821515161561332e5761332d612b93565b5b828202905092915050565b7f455243343632363a206465706f736974206d6f7265207468616e206d61780000600082015250565b600061336f601e8361275a565b915061337a82613339565b602082019050919050565b6000602082019050818103600083015261339e81613362565b9050919050565b7f4f776e61626c653a2063616c6c6572206973206e6f7420746865206f776e6572600082015250565b60006133db60208361275a565b91506133e6826133a5565b602082019050919050565b6000602082019050818103600083015261340a816133ce565b9050919050565b7f5f77697468647261773a204c6f636b65642074696d65206e6f7420706173736560008201527f6400000000000000000000000000000000000000000000000000000000000000602082015250565b600061346d60218361275a565b915061347882613411565b604082019050919050565b6000602082019050818103600083015261349c81613460565b9050919050565b7f4e487b7100000000000000000000000000000000000000000000000000000000600052602160045260246000fd5b7f45524332303a207472616e736665722066726f6d20746865207a65726f20616460008201527f6472657373000000000000000000000000000000000000000000000000000000602082015250565b600061352e60258361275a565b9150613539826134d2565b604082019050919050565b6000602082019050818103600083015261355d81613521565b9050919050565b7f45524332303a207472616e7366657220746f20746865207a65726f206164647260008201527f6573730000000000000000000000000000000000000000000000000000000000602082015250565b60006135c060238361275a565b91506135cb82613564565b604082019050919050565b600060208201905081810360008301526135ef816135b3565b9050919050565b7f45524332303a207472616e7366657220616d6f756e742065786365656473206260008201527f616c616e63650000000000000000000000000000000000000000000000000000602082015250565b600061365260268361275a565b915061365d826135f6565b604082019050919050565b6000602082019050818103600083015261368181613645565b9050919050565b600060408201905061369d6000830185612725565b6136aa6020830184612725565b9392505050565b60006060820190506136c660008301866129f3565b6136d360208301856129f3565b6136e06040830184612725565b949350505050565b7f45524332303a206d696e7420746f20746865207a65726f206164647265737300600082015250565b600061371e601f8361275a565b9150613729826136e8565b602082019050919050565b6000602082019050818103600083015261374d81613711565b9050919050565b7f45524332303a206275726e2066726f6d20746865207a65726f2061646472657360008201527f7300000000000000000000000000000000000000000000000000000000000000602082015250565b60006137b060218361275a565b91506137bb82613754565b604082019050919050565b600060208201905081810360008301526137df816137a3565b9050919050565b7f45524332303a206275726e20616d6f756e7420657863656564732062616c616e60008201527f6365000000000000000000000000000000000000000000000000000000000000602082015250565b600061384260228361275a565b915061384d826137e6565b604082019050919050565b6000602082019050818103600083015261387181613835565b9050919050565b7f5361666545524332303a204552433230206f7065726174696f6e20646964206e60008201527f6f74207375636365656400000000000000000000000000000000000000000000602082015250565b60006138d4602a8361275a565b91506138df82613878565b604082019050919050565b60006020820190508181036000830152613903816138c7565b9050919050565b7f416464726573733a20696e73756666696369656e742062616c616e636520666f60008201527f722063616c6c0000000000000000000000000000000000000000000000000000602082015250565b600061396660268361275a565b91506139718261390a565b604082019050919050565b6000602082019050818103600083015261399581613959565b9050919050565b600081519050919050565b600081905092915050565b60006139bd8261399c565b6139c781856139a7565b93506139d781856020860161276b565b80840191505092915050565b60006139ef82846139b2565b915081905092915050565b7f416464726573733a2063616c6c20746f206e6f6e2d636f6e7472616374000000600082015250565b6000613a30601d8361275a565b9150613a3b826139fa565b602082019050919050565b60006020820190508181036000830152613a5f81613a23565b905091905056fea2646970667358221220ddf437f66e0a3ac4337b1bf38afbea027f2317b4757151876e79a5a2f629849a64736f6c634300080a0033",
  "devdoc": {
    "kind": "dev",
    "methods": {
      "allowance(address,address)": {
        "details": "See {IERC20-allowance}."
      },
      "approve(address,uint256)": {
        "details": "See {IERC20-approve}. NOTE: If `amount` is the maximum `uint256`, the allowance is not updated on `transferFrom`. This is semantically equivalent to an infinite approval. Requirements: - `spender` cannot be the zero address."
      },
      "asset()": {
        "details": "See {IERC4626-asset}. "
      },
      "balanceOf(address)": {
        "details": "See {IERC20-balanceOf}."
      },
      "convertToAssets(uint256)": {
        "details": "See {IERC4626-convertToAssets}. "
      },
      "convertToShares(uint256)": {
        "details": "See {IERC4626-convertToShares}. "
      },
      "decimals()": {
        "details": "Decimals are read from the underlying asset in the constructor and cached. If this fails (e.g., the asset has not been created yet), the cached value is set to a default obtained by `super.decimals()` (which depends on inheritance but is most likely 18). Override this function in order to set a guaranteed hardcoded value. See {IERC20Metadata-decimals}."
      },
      "decreaseAllowance(address,uint256)": {
        "details": "Atomically decreases the allowance granted to `spender` by the caller. This is an alternative to {approve} that can be used as a mitigation for problems described in {IERC20-approve}. Emits an {Approval} event indicating the updated allowance. Requirements: - `spender` cannot be the zero address. - `spender` must have allowance for the caller of at least `subtractedValue`."
      },
      "deposit(uint256,address)": {
        "details": "See {IERC4626-deposit}. "
      },
      "increaseAllowance(address,uint256)": {
        "details": "Atomically increases the allowance granted to `spender` by the caller. This is an alternative to {approve} that can be used as a mitigation for problems described in {IERC20-approve}. Emits an {Approval} event indicating the updated allowance. Requirements: - `spender` cannot be the zero address."
      },
      "maxDeposit(address)": {
        "details": "See {IERC4626-maxDeposit}. "
      },
      "maxMint(address)": {
        "details": "See {IERC4626-maxMint}. "
      },
      "maxRedeem(address)": {
        "details": "See {IERC4626-maxRedeem}. "
      },
      "maxWithdraw(address)": {
        "details": "See {IERC4626-maxWithdraw}. "
      },
      "mint(uint256,address)": {
        "details": "See {IERC4626-mint}. "
      },
      "name()": {
        "details": "Returns the name of the token."
      },
      "owner()": {
        "details": "Returns the address of the current owner."
      },
      "previewDeposit(uint256)": {
        "details": "See {IERC4626-previewDeposit}. "
      },
      "previewMint(uint256)": {
        "details": "See {IERC4626-previewMint}. "
      },
      "previewRedeem(uint256)": {
        "details": "See {IERC4626-previewRedeem}. "
      },
      "previewWithdraw(uint256)": {
        "details": "See {IERC4626-previewWithdraw}. "
      },
      "redeem(uint256,address,address)": {
        "details": "See {IERC4626-redeem}. "
      },
      "renounceOwnership()": {
        "details": "Leaves the contract without owner. It will not be possible to call `onlyOwner` functions anymore. Can only be called by the current owner. NOTE: Renouncing ownership will leave the contract without an owner, thereby removing any functionality that is only available to the owner."
      },
      "symbol()": {
        "details": "Returns the symbol of the token, usually a shorter version of the name."
      },
      "totalAssets()": {
        "details": "See {IERC4626-totalAssets}. "
      },
      "totalSupply()": {
        "details": "See {IERC20-totalSupply}."
      },
      "transfer(address,uint256)": {
        "details": "See {IERC20-transfer}. Requirements: - `to` cannot be the zero address. - the caller must have a balance of at least `amount`."
      },
      "transferFrom(address,address,uint256)": {
        "details": "See {IERC20-transferFrom}. Emits an {Approval} event indicating the updated allowance. This is not required by the EIP. See the note at the beginning of {ERC20}. NOTE: Does not update the allowance if the current allowance is the maximum `uint256`. Requirements: - `from` and `to` cannot be the zero address. - `from` must have a balance of at least `amount`. - the caller must have allowance for ``from``'s tokens of at least `amount`."
      },
      "transferOwnership(address)": {
        "details": "Transfers ownership of the contract to a new account (`newOwner`). Can only be called by the current owner."
      },
      "withdraw(uint256,address,address)": {
        "details": "See {IERC4626-withdraw}. "
      }
    },
    "version": 1
  },
  "userdoc": {
    "kind": "user",
    "methods": {},
    "version": 1
  },
  "storageLayout": {
    "storage": [
      {
        "astId": 3122,
        "contract": "contracts/VaultTimeLock.sol:VaultTimeLock",
        "label": "_balances",
        "offset": 0,
        "slot": "0",
        "type": "t_mapping(t_address,t_uint256)"
      },
      {
        "astId": 3128,
        "contract": "contracts/VaultTimeLock.sol:VaultTimeLock",
        "label": "_allowances",
        "offset": 0,
        "slot": "1",
        "type": "t_mapping(t_address,t_mapping(t_address,t_uint256))"
      },
      {
        "astId": 3130,
        "contract": "contracts/VaultTimeLock.sol:VaultTimeLock",
        "label": "_totalSupply",
        "offset": 0,
        "slot": "2",
        "type": "t_uint256"
      },
      {
        "astId": 3132,
        "contract": "contracts/VaultTimeLock.sol:VaultTimeLock",
        "label": "_name",
        "offset": 0,
        "slot": "3",
        "type": "t_string_storage"
      },
      {
        "astId": 3134,
        "contract": "contracts/VaultTimeLock.sol:VaultTimeLock",
        "label": "_symbol",
        "offset": 0,
        "slot": "4",
        "type": "t_string_storage"
      },
      {
        "astId": 2722,
        "contract": "contracts/VaultTimeLock.sol:VaultTimeLock",
        "label": "_owner",
        "offset": 0,
        "slot": "5",
        "type": "t_address"
      },
      {
        "astId": 10234,
        "contract": "contracts/VaultTimeLock.sol:VaultTimeLock",
        "label": "_market",
        "offset": 0,
        "slot": "6",
        "type": "t_address"
      },
      {
        "astId": 10238,
        "contract": "contracts/VaultTimeLock.sol:VaultTimeLock",
        "label": "_self",
        "offset": 0,
        "slot": "7",
        "type": "t_address"
      },
      {
        "astId": 10549,
        "contract": "contracts/VaultTimeLock.sol:VaultTimeLock",
        "label": "lockedTime",
        "offset": 0,
        "slot": "8",
        "type": "t_mapping(t_address,t_uint256)"
      }
    ],
    "types": {
      "t_address": {
        "encoding": "inplace",
        "label": "address",
        "numberOfBytes": "20"
      },
      "t_mapping(t_address,t_mapping(t_address,t_uint256))": {
        "encoding": "mapping",
        "key": "t_address",
        "label": "mapping(address => mapping(address => uint256))",
        "numberOfBytes": "32",
        "value": "t_mapping(t_address,t_uint256)"
      },
      "t_mapping(t_address,t_uint256)": {
        "encoding": "mapping",
        "key": "t_address",
        "label": "mapping(address => uint256)",
        "numberOfBytes": "32",
        "value": "t_uint256"
      },
      "t_string_storage": {
        "encoding": "bytes",
        "label": "string",
        "numberOfBytes": "32"
      },
      "t_uint256": {
        "encoding": "inplace",
        "label": "uint256",
        "numberOfBytes": "32"
      }
    }
  }
}