{
  "address": "0x43Cfc59a824fd6b7A6f6159810aFE6b4dbCAB541",
  "abi": [
    {
      "inputs": [
        {
          "internalType": "contract IVault",
          "name": "vault",
          "type": "address"
        },
        {
          "internalType": "uint8",
          "name": "fee",
          "type": "uint8"
        },
        {
          "internalType": "uint8",
          "name": "timeoutDays",
          "type": "uint8"
        },
        {
          "internalType": "address",
          "name": "oracle",
          "type": "address"
        }
      ],
      "stateMutability": "nonpayable",
      "type": "constructor"
    },
    {
      "anonymous": false,
      "inputs": [
        {
          "indexed": true,
          "internalType": "address",
          "name": "owner",
          "type": "address"
        },
        {
          "indexed": true,
          "internalType": "address",
          "name": "approved",
          "type": "address"
        },
        {
          "indexed": true,
          "internalType": "uint256",
          "name": "tokenId",
          "type": "uint256"
        }
      ],
      "name": "Approval",
      "type": "event"
    },
    {
      "anonymous": false,
      "inputs": [
        {
          "indexed": true,
          "internalType": "address",
          "name": "owner",
          "type": "address"
        },
        {
          "indexed": true,
          "internalType": "address",
          "name": "operator",
          "type": "address"
        },
        {
          "indexed": false,
          "internalType": "bool",
          "name": "approved",
          "type": "bool"
        }
      ],
      "name": "ApprovalForAll",
      "type": "event"
    },
    {
      "anonymous": false,
      "inputs": [
        {
          "indexed": true,
          "internalType": "address",
          "name": "previousOwner",
          "type": "address"
        },
        {
          "indexed": true,
          "internalType": "address",
          "name": "newOwner",
          "type": "address"
        }
      ],
      "name": "OwnershipTransferred",
      "type": "event"
    },
    {
      "anonymous": false,
      "inputs": [
        {
          "indexed": false,
          "internalType": "uint256",
          "name": "index",
          "type": "uint256"
        },
        {
          "indexed": false,
          "internalType": "bytes16",
          "name": "propositionId",
          "type": "bytes16"
        },
        {
          "indexed": false,
          "internalType": "bytes16",
          "name": "marketId",
          "type": "bytes16"
        },
        {
          "indexed": false,
          "internalType": "uint256",
          "name": "amount",
          "type": "uint256"
        },
        {
          "indexed": false,
          "internalType": "uint256",
          "name": "payout",
          "type": "uint256"
        },
        {
          "indexed": true,
          "internalType": "address",
          "name": "owner",
          "type": "address"
        }
      ],
      "name": "Placed",
      "type": "event"
    },
    {
      "anonymous": false,
      "inputs": [
        {
          "indexed": false,
          "internalType": "uint256",
          "name": "index",
          "type": "uint256"
        },
        {
          "indexed": false,
          "internalType": "uint256",
          "name": "payout",
          "type": "uint256"
        },
        {
          "indexed": false,
          "internalType": "uint8",
          "name": "result",
          "type": "uint8"
        },
        {
          "indexed": true,
          "internalType": "address",
          "name": "recipient",
          "type": "address"
        }
      ],
      "name": "Settled",
      "type": "event"
    },
    {
      "anonymous": false,
      "inputs": [
        {
          "indexed": true,
          "internalType": "address",
          "name": "from",
          "type": "address"
        },
        {
          "indexed": true,
          "internalType": "address",
          "name": "to",
          "type": "address"
        },
        {
          "indexed": true,
          "internalType": "uint256",
          "name": "tokenId",
          "type": "uint256"
        }
      ],
      "name": "Transfer",
      "type": "event"
    },
    {
      "inputs": [
        {
          "internalType": "address",
          "name": "to",
          "type": "address"
        },
        {
          "internalType": "uint256",
          "name": "tokenId",
          "type": "uint256"
        }
      ],
      "name": "approve",
      "outputs": [],
      "stateMutability": "nonpayable",
      "type": "function"
    },
    {
      "inputs": [
        {
          "internalType": "bytes16",
          "name": "nonce",
          "type": "bytes16"
        },
        {
          "internalType": "bytes16",
          "name": "propositionId",
          "type": "bytes16"
        },
        {
          "internalType": "bytes16",
          "name": "marketId",
          "type": "bytes16"
        },
        {
          "internalType": "uint256",
          "name": "wager",
          "type": "uint256"
        },
        {
          "internalType": "uint256",
          "name": "odds",
          "type": "uint256"
        },
        {
          "internalType": "uint256",
          "name": "close",
          "type": "uint256"
        },
        {
          "internalType": "uint256",
          "name": "end",
          "type": "uint256"
        },
        {
          "components": [
            {
              "internalType": "uint8",
              "name": "v",
              "type": "uint8"
            },
            {
              "internalType": "bytes32",
              "name": "r",
              "type": "bytes32"
            },
            {
              "internalType": "bytes32",
              "name": "s",
              "type": "bytes32"
            }
          ],
          "internalType": "struct SignatureLib.Signature",
          "name": "signature",
          "type": "tuple"
        }
      ],
      "name": "back",
      "outputs": [
        {
          "internalType": "uint256",
          "name": "",
          "type": "uint256"
        }
      ],
      "stateMutability": "nonpayable",
      "type": "function"
    },
    {
      "inputs": [
        {
          "internalType": "address",
          "name": "owner",
          "type": "address"
        }
      ],
      "name": "balanceOf",
      "outputs": [
        {
          "internalType": "uint256",
          "name": "",
          "type": "uint256"
        }
      ],
      "stateMutability": "view",
      "type": "function"
    },
    {
      "inputs": [],
      "name": "baseURI",
      "outputs": [
        {
          "internalType": "string",
          "name": "",
          "type": "string"
        }
      ],
      "stateMutability": "view",
      "type": "function"
    },
    {
      "inputs": [
        {
          "internalType": "uint256",
          "name": "tokenId",
          "type": "uint256"
        }
      ],
      "name": "getApproved",
      "outputs": [
        {
          "internalType": "address",
          "name": "",
          "type": "address"
        }
      ],
      "stateMutability": "view",
      "type": "function"
    },
    {
      "inputs": [
        {
          "internalType": "uint64",
          "name": "index",
          "type": "uint64"
        }
      ],
      "name": "getBetByIndex",
      "outputs": [
        {
          "internalType": "uint256",
          "name": "",
          "type": "uint256"
        },
        {
          "internalType": "uint256",
          "name": "",
          "type": "uint256"
        },
        {
          "internalType": "uint256",
          "name": "",
          "type": "uint256"
        },
        {
          "internalType": "uint256",
          "name": "",
          "type": "uint256"
        },
        {
          "internalType": "bool",
          "name": "",
          "type": "bool"
        },
        {
          "internalType": "bytes16",
          "name": "",
          "type": "bytes16"
        },
        {
          "internalType": "bytes16",
          "name": "",
          "type": "bytes16"
        }
      ],
      "stateMutability": "view",
      "type": "function"
    },
    {
      "inputs": [],
      "name": "getCount",
      "outputs": [
        {
          "internalType": "uint64",
          "name": "",
          "type": "uint64"
        }
      ],
      "stateMutability": "view",
      "type": "function"
    },
    {
      "inputs": [
        {
          "internalType": "uint64",
          "name": "index",
          "type": "uint64"
        }
      ],
      "name": "getExpiry",
      "outputs": [
        {
          "internalType": "uint256",
          "name": "",
          "type": "uint256"
        }
      ],
      "stateMutability": "view",
      "type": "function"
    },
    {
      "inputs": [],
      "name": "getInPlayCount",
      "outputs": [
        {
          "internalType": "uint256",
          "name": "",
          "type": "uint256"
        }
      ],
      "stateMutability": "view",
      "type": "function"
    },
    {
      "inputs": [],
      "name": "getMargin",
      "outputs": [
        {
          "internalType": "uint8",
          "name": "",
          "type": "uint8"
        }
      ],
      "stateMutability": "view",
      "type": "function"
    },
    {
      "inputs": [
        {
          "internalType": "bytes16",
          "name": "marketId",
          "type": "bytes16"
        }
      ],
      "name": "getMarketCollateral",
      "outputs": [
        {
          "internalType": "uint256",
          "name": "",
          "type": "uint256"
        }
      ],
      "stateMutability": "view",
      "type": "function"
    },
    {
      "inputs": [
        {
          "internalType": "bytes16",
          "name": "marketId",
          "type": "bytes16"
        }
      ],
      "name": "getMarketTotal",
      "outputs": [
        {
          "internalType": "uint256",
          "name": "",
          "type": "uint256"
        }
      ],
      "stateMutability": "view",
      "type": "function"
    },
    {
      "inputs": [
        {
          "internalType": "uint256",
          "name": "wager",
          "type": "uint256"
        },
        {
          "internalType": "uint256",
          "name": "odds",
          "type": "uint256"
        },
        {
          "internalType": "bytes16",
          "name": "propositionId",
          "type": "bytes16"
        },
        {
          "internalType": "bytes16",
          "name": "marketId",
          "type": "bytes16"
        }
      ],
      "name": "getOdds",
      "outputs": [
        {
          "internalType": "uint256",
          "name": "",
          "type": "uint256"
        }
      ],
      "stateMutability": "view",
      "type": "function"
    },
    {
      "inputs": [],
      "name": "getOracleAddress",
      "outputs": [
        {
          "internalType": "address",
          "name": "",
          "type": "address"
        }
      ],
      "stateMutability": "view",
      "type": "function"
    },
    {
      "inputs": [
        {
          "internalType": "bytes16",
          "name": "propositionId",
          "type": "bytes16"
        },
        {
          "internalType": "bytes16",
          "name": "marketId",
          "type": "bytes16"
        },
        {
          "internalType": "uint256",
          "name": "wager",
          "type": "uint256"
        },
        {
          "internalType": "uint256",
          "name": "odds",
          "type": "uint256"
        }
      ],
      "name": "getPotentialPayout",
      "outputs": [
        {
          "internalType": "uint256",
          "name": "",
          "type": "uint256"
        }
      ],
      "stateMutability": "view",
      "type": "function"
    },
    {
      "inputs": [],
      "name": "getTotalExposure",
      "outputs": [
        {
          "internalType": "uint256",
          "name": "",
          "type": "uint256"
        }
      ],
      "stateMutability": "view",
      "type": "function"
    },
    {
      "inputs": [],
      "name": "getTotalInPlay",
      "outputs": [
        {
          "internalType": "uint256",
          "name": "",
          "type": "uint256"
        }
      ],
      "stateMutability": "view",
      "type": "function"
    },
    {
      "inputs": [],
      "name": "getVaultAddress",
      "outputs": [
        {
          "internalType": "address",
          "name": "",
          "type": "address"
        }
      ],
      "stateMutability": "view",
      "type": "function"
    },
    {
      "inputs": [
        {
          "internalType": "address",
          "name": "signer",
          "type": "address"
        }
      ],
      "name": "grantSigner",
      "outputs": [],
      "stateMutability": "nonpayable",
      "type": "function"
    },
    {
      "inputs": [
        {
          "internalType": "address",
          "name": "owner",
          "type": "address"
        },
        {
          "internalType": "address",
          "name": "operator",
          "type": "address"
        }
      ],
      "name": "isApprovedForAll",
      "outputs": [
        {
          "internalType": "bool",
          "name": "",
          "type": "bool"
        }
      ],
      "stateMutability": "view",
      "type": "function"
    },
    {
      "inputs": [
        {
          "internalType": "address",
          "name": "signer",
          "type": "address"
        }
      ],
      "name": "isSigner",
      "outputs": [
        {
          "internalType": "bool",
          "name": "",
          "type": "bool"
        }
      ],
      "stateMutability": "view",
      "type": "function"
    },
    {
      "inputs": [],
      "name": "name",
      "outputs": [
        {
          "internalType": "string",
          "name": "",
          "type": "string"
        }
      ],
      "stateMutability": "view",
      "type": "function"
    },
    {
      "inputs": [],
      "name": "owner",
      "outputs": [
        {
          "internalType": "address",
          "name": "",
          "type": "address"
        }
      ],
      "stateMutability": "view",
      "type": "function"
    },
    {
      "inputs": [
        {
          "internalType": "uint256",
          "name": "tokenId",
          "type": "uint256"
        }
      ],
      "name": "ownerOf",
      "outputs": [
        {
          "internalType": "address",
          "name": "",
          "type": "address"
        }
      ],
      "stateMutability": "view",
      "type": "function"
    },
    {
      "inputs": [],
      "name": "refundCollateral",
      "outputs": [],
      "stateMutability": "nonpayable",
      "type": "function"
    },
    {
      "inputs": [],
      "name": "renounceOwnership",
      "outputs": [],
      "stateMutability": "nonpayable",
      "type": "function"
    },
    {
      "inputs": [
        {
          "internalType": "address",
          "name": "signer",
          "type": "address"
        }
      ],
      "name": "revokeSigner",
      "outputs": [],
      "stateMutability": "nonpayable",
      "type": "function"
    },
    {
      "inputs": [
        {
          "internalType": "address",
          "name": "from",
          "type": "address"
        },
        {
          "internalType": "address",
          "name": "to",
          "type": "address"
        },
        {
          "internalType": "uint256",
          "name": "tokenId",
          "type": "uint256"
        }
      ],
      "name": "safeTransferFrom",
      "outputs": [],
      "stateMutability": "nonpayable",
      "type": "function"
    },
    {
      "inputs": [
        {
          "internalType": "address",
          "name": "from",
          "type": "address"
        },
        {
          "internalType": "address",
          "name": "to",
          "type": "address"
        },
        {
          "internalType": "uint256",
          "name": "tokenId",
          "type": "uint256"
        },
        {
          "internalType": "bytes",
          "name": "data",
          "type": "bytes"
        }
      ],
      "name": "safeTransferFrom",
      "outputs": [],
      "stateMutability": "nonpayable",
      "type": "function"
    },
    {
      "inputs": [
        {
          "internalType": "address",
          "name": "operator",
          "type": "address"
        },
        {
          "internalType": "bool",
          "name": "approved",
          "type": "bool"
        }
      ],
      "name": "setApprovalForAll",
      "outputs": [],
      "stateMutability": "nonpayable",
      "type": "function"
    },
    {
      "inputs": [
        {
          "internalType": "uint64",
          "name": "index",
          "type": "uint64"
        }
      ],
      "name": "settle",
      "outputs": [],
      "stateMutability": "nonpayable",
      "type": "function"
    },
    {
      "inputs": [
        {
          "internalType": "bytes16",
          "name": "marketId",
          "type": "bytes16"
        }
      ],
      "name": "settleMarket",
      "outputs": [],
      "stateMutability": "nonpayable",
      "type": "function"
    },
    {
      "inputs": [
        {
          "internalType": "bytes4",
          "name": "interfaceId",
          "type": "bytes4"
        }
      ],
      "name": "supportsInterface",
      "outputs": [
        {
          "internalType": "bool",
          "name": "",
          "type": "bool"
        }
      ],
      "stateMutability": "view",
      "type": "function"
    },
    {
      "inputs": [],
      "name": "symbol",
      "outputs": [
        {
          "internalType": "string",
          "name": "",
          "type": "string"
        }
      ],
      "stateMutability": "view",
      "type": "function"
    },
    {
      "inputs": [],
      "name": "timeout",
      "outputs": [
        {
          "internalType": "uint256",
          "name": "",
          "type": "uint256"
        }
      ],
      "stateMutability": "view",
      "type": "function"
    },
    {
      "inputs": [
        {
          "internalType": "uint256",
          "name": "tokenId",
          "type": "uint256"
        }
      ],
      "name": "tokenURI",
      "outputs": [
        {
          "internalType": "string",
          "name": "",
          "type": "string"
        }
      ],
      "stateMutability": "view",
      "type": "function"
    },
    {
      "inputs": [
        {
          "internalType": "address",
          "name": "from",
          "type": "address"
        },
        {
          "internalType": "address",
          "name": "to",
          "type": "address"
        },
        {
          "internalType": "uint256",
          "name": "tokenId",
          "type": "uint256"
        }
      ],
      "name": "transferFrom",
      "outputs": [],
      "stateMutability": "nonpayable",
      "type": "function"
    },
    {
      "inputs": [
        {
          "internalType": "address",
          "name": "newOwner",
          "type": "address"
        }
      ],
      "name": "transferOwnership",
      "outputs": [],
      "stateMutability": "nonpayable",
      "type": "function"
    }
  ],
  "transactionHash": "0xa3bda06fc6ecbfd5659525bfd4620bfdc28c54bbc9252d9eb31b71c4ce692207",
  "args": [
    "0xB3f1A7428D072A3D62f3FF3A8938f47f33232cc5",
    0,
    1,
    "0x1EDE02b30490448e6250f331f78B1F4416C56460"
  ],
  "numDeployments": 1,
  "solcInputHash": "b7aa2fc4e9ed17b0a7a6d4ddaaf78195",
  "bytecode": "0x6101206040523480156200001257600080fd5b5060405162003c9538038062003c958339810160408190526200003591620001ee565b838383836040518060400160405280601381526020017f486f727365204c696e6b2042657420536c6970000000000000000000000000008152506040518060400160405280600681526020016512130b50915560d21b815250620000a8620000a26200016a60201b60201c565b6200016e565b6001620000b68382620002f4565b506002620000c58282620002f4565b5050506001600160a01b038416620000e157620000e1620003c0565b3060c0526001600160a01b0384811660a05260ff8416608052811660e0526001600f6000620001186000546001600160a01b031690565b6001600160a01b031681526020810191909152604001600020805460ff19169115159190911790556200015260ff831662015180620003d6565b62ffffff166101005250620004109650505050505050565b3390565b600080546001600160a01b038381166001600160a01b0319831681178455604051919092169283917f8be0079c531659141344cd1fd0a4f28419497f9722a3daafe3b4186f6b6457e09190a35050565b6001600160a01b0381168114620001d457600080fd5b50565b805160ff81168114620001e957600080fd5b919050565b600080600080608085870312156200020557600080fd5b84516200021281620001be565b93506200022260208601620001d7565b92506200023260408601620001d7565b915060608501516200024481620001be565b939692955090935050565b634e487b7160e01b600052604160045260246000fd5b600181811c908216806200027a57607f821691505b6020821081036200029b57634e487b7160e01b600052602260045260246000fd5b50919050565b601f821115620002ef57600081815260208120601f850160051c81016020861015620002ca5750805b601f850160051c820191505b81811015620002eb57828155600101620002d6565b5050505b505050565b81516001600160401b038111156200031057620003106200024f565b620003288162000321845462000265565b84620002a1565b602080601f831160018114620003605760008415620003475750858301515b600019600386901b1c1916600185901b178555620002eb565b600085815260208120601f198616915b82811015620003915788860151825594840194600190910190840162000370565b5085821015620003b05787850151600019600388901b60f8161c191681555b5050505050600190811b01905550565b634e487b7160e01b600052600160045260246000fd5b600062ffffff808316818516818304811182151516156200040757634e487b7160e01b600052601160045260246000fd5b02949350505050565b60805160a05160c05160e051610100516137d7620004be600039600081816104960152612376015260008181610566015281816113b40152611d6801526000818161109b0152818161154d015261255c0152600081816103c701528181610964015281816109f40152818161149501528181611b1901528181611deb0152818161249d015281816125340152818161295701528181612b170152612d3c0152600061032101526137d76000f3fe608060405234801561001057600080fd5b50600436106102325760003560e01c806370a0823111610130578063a22cb465116100b8578063c87b56dd1161007c578063c87b56dd146105b0578063c96121a8146105c3578063e4650fac146105cb578063e985e9c5146105de578063f2fde38b1461061a57600080fd5b8063a22cb46514610531578063a87d942c14610544578063b18b78dd14610564578063b88d4fde1461058a578063c34b44a01461059d57600080fd5b806388bc76ba116100ff57806388bc76ba146104d35780638ac6d217146104e65780638da5cb5b146104ee57806395d89b41146104ff578063a166895e1461050757600080fd5b806370a082311461047e57806370dea79a14610491578063715018a6146104b85780637df73e27146104c057600080fd5b806342842e0e116101be5780636352211e116101825780636352211e1461039f57806363c724f7146103b257806365cacaa4146103c55780636b467d15146103eb5780636c0360eb1461044257600080fd5b806342842e0e1461034b57806346e116a61461035e5780634b9ba4461461037157806358439479146103845780636028421f1461038c57600080fd5b806312fa3bf11161020557806312fa3bf1146102b4578063207b8b53146102ec5780632098b7ff146102ff57806323b872dd1461030757806325117b721461031a57600080fd5b806301ffc9a71461023757806306fdde031461025f578063081812fc14610274578063095ea7b31461029f575b600080fd5b61024a61024536600461300c565b61062d565b60405190151581526020015b60405180910390f35b61026761067f565b6040516102569190613081565b610287610282366004613094565b610711565b6040516001600160a01b039091168152602001610256565b6102b26102ad3660046130c2565b610738565b005b6102de6102c236600461310b565b6001600160801b0319166000908152600a602052604090205490565b604051908152602001610256565b6102de6102fa366004613126565b610852565b6102b2610945565b6102b26103153660046131ac565b610a96565b60405160ff7f0000000000000000000000000000000000000000000000000000000000000000168152602001610256565b6102b26103593660046131ac565b610ac7565b6102de61036c3660046131ed565b610ae2565b6102b261037f366004613233565b610afb565b600d546102de565b6102de61039a36600461325c565b610bf5565b6102876103ad366004613094565b610c03565b6102b26103c036600461329e565b610c63565b7f0000000000000000000000000000000000000000000000000000000000000000610287565b6103fe6103f9366004613233565b610cf1565b604080519788526020880196909652948601939093526060850191909152151560808401526001600160801b031990811660a08401521660c082015260e001610256565b6102676040518060400160405280601c81526020017f68747470733a2f2f686f7273652e6c696e6b2f6170692f626574732f0000000081525081565b6102de61048c36600461329e565b610d1c565b6102de7f000000000000000000000000000000000000000000000000000000000000000081565b6102b2610da2565b61024a6104ce36600461329e565b610db4565b6102b26104e136600461310b565b610dd5565b600e546102de565b6000546001600160a01b0316610287565b610267610f77565b6102de61051536600461310b565b6001600160801b03191660009081526010602052604090205490565b6102b261053f3660046132c9565b610f86565b61054c610f91565b6040516001600160401b039091168152602001610256565b7f0000000000000000000000000000000000000000000000000000000000000000610287565b6102b2610598366004613318565b610fa1565b6102b26105ab36600461329e565b610fd3565b6102676105be366004613094565b61105e565b6007546102de565b6102de6105d9366004613233565b6110fb565b61024a6105ec3660046133f7565b6001600160a01b03918216600090815260066020908152604080832093909416825291909152205460ff1690565b6102b261062836600461329e565b611106565b60006001600160e01b031982166380ac58cd60e01b148061065e57506001600160e01b03198216635b5e139f60e01b145b8061067957506301ffc9a760e01b6001600160e01b03198316145b92915050565b60606001805461068e90613425565b80601f01602080910402602001604051908101604052809291908181526020018280546106ba90613425565b80156107075780601f106106dc57610100808354040283529160200191610707565b820191906000526020600020905b8154815290600101906020018083116106ea57829003601f168201915b5050505050905090565b600061071c8261117c565b506000908152600560205260409020546001600160a01b031690565b600061074382610c03565b9050806001600160a01b0316836001600160a01b0316036107b55760405162461bcd60e51b815260206004820152602160248201527f4552433732313a20617070726f76616c20746f2063757272656e74206f776e656044820152603960f91b60648201526084015b60405180910390fd5b336001600160a01b03821614806107d157506107d181336105ec565b6108435760405162461bcd60e51b815260206004820152603d60248201527f4552433732313a20617070726f76652063616c6c6572206973206e6f7420746f60448201527f6b656e206f776e6572206f7220617070726f76656420666f7220616c6c00000060648201526084016107ac565b61084d83836111db565b505050565b604080516001600160801b0319808b166020830152808a166030830152881691810191909152605081018590526070810184905260908101839052600090819060b0016040516020818303038152906040528051906020012090506108b78184611249565b15156001146109085760405162461bcd60e51b815260206004820152601760248201527f6261636b3a20496e76616c6964207369676e617475726500000000000000000060448201526064016107ac565b60006109168a8a8a8a611300565b9050600081116109285761092861345f565b6109368a8a8a89898661133c565b9b9a5050505050505050505050565b61094d6118ac565b600e546011541115610a9457600e546011819055507f00000000000000000000000000000000000000000000000000000000000000006001600160a01b03166338d52e0f6040518163ffffffff1660e01b8152600401602060405180830381865afa1580156109c0573d6000803e3d6000fd5b505050506040513d601f19601f820116820180604052508101906109e49190613475565b6001600160a01b031663a9059cbb7f0000000000000000000000000000000000000000000000000000000000000000600e54601154610a2391906134a8565b6040516001600160e01b031960e085901b1681526001600160a01b03909216600483015260248201526044016020604051808303816000875af1158015610a6e573d6000803e3d6000fd5b505050506040513d601f19601f82011682018060405250810190610a9291906134bf565b505b565b610aa03382611906565b610abc5760405162461bcd60e51b81526004016107ac906134dc565b61084d838383611984565b61084d83838360405180602001604052806000815250610fa1565b6000610af085858585611af5565b90505b949350505050565b60006008826001600160401b031681548110610b1957610b19613529565b60009182526020918290206040805160e081018252600690930290910180546001600160801b0319608082811b82168652600160801b909204821b169484019490945260018101549183019190915260028101546060830152600381015492820192909252600482015460a082015260059091015460ff1615801560c0830152909150610be85760405162461bcd60e51b815260206004820152601f60248201527f736574746c653a204265742068617320616c726561647920736574746c65640060448201526064016107ac565b610bf182611c16565b5050565b6000610af085858585611300565b6000818152600360205260408120546001600160a01b0316806106795760405162461bcd60e51b8152602060048201526018602482015277115490cdcc8c4e881a5b9d985b1a59081d1bdad95b88125160421b60448201526064016107ac565b610c6b6118ac565b6001600160a01b038116610ccd5760405162461bcd60e51b815260206004820152602360248201527f6772616e745369676e65723a20496e76616c6964207369676e6572206164647260448201526265737360e81b60648201526084016107ac565b6001600160a01b03166000908152600f60205260409020805460ff19166001179055565b6000806000806000806000610d0588611f27565b959e949d50929b5090995097509550909350915050565b60006001600160a01b038216610d865760405162461bcd60e51b815260206004820152602960248201527f4552433732313a2061646472657373207a65726f206973206e6f7420612076616044820152683634b21037bbb732b960b91b60648201526084016107ac565b506001600160a01b031660009081526004602052604090205490565b610daa6118ac565b610a946000611fed565b6001600160a01b0381166000908152600f602052604081205460ff16610679565b6001600160801b03198116600090815260096020908152604080832080548251818502810185019093528083529192909190830182828015610e6857602002820191906000526020600020906000905b82829054906101000a90046001600160401b03166001600160401b031681526020019060080190602082600701049283019260010382029150808411610e255790505b505083519394506000925050505b81816001600160401b03161015610f7157600083826001600160401b031681518110610ea457610ea4613529565b6020026020010151905060006008826001600160401b031681548110610ecc57610ecc613529565b600091825260208083206040805160e081018252600690940290910180546001600160801b0319608082811b82168752600160801b909204821b169385019390935260018101549184019190915260028101546060840152600381015491830191909152600481015460a08301526005015460ff16151560c082018190529092509003610f5c57610f5c82611c16565b50508080610f699061353f565b915050610e76565b50505050565b60606002805461068e90613425565b610bf133838361203d565b6000610f9c60085490565b905090565b610fab3383611906565b610fc75760405162461bcd60e51b81526004016107ac906134dc565b610f718484848461210b565b610fdb6118ac565b6001600160a01b03811661103d5760405162461bcd60e51b8152602060048201526024808201527f7265766f6b655369676e65723a20496e76616c6964207369676e6572206164646044820152637265737360e01b60648201526084016107ac565b6001600160a01b03166000908152600f60205260409020805460ff19169055565b60606040518060400160405280601c81526020017f68747470733a2f2f686f7273652e6c696e6b2f6170692f626574732f000000008152506110ca7f00000000000000000000000000000000000000000000000000000000000000006001600160a01b0316601461213e565b6110d3846122e0565b6040516020016110e593929190613565565b6040516020818303038152906040529050919050565b600061067982612372565b61110e6118ac565b6001600160a01b0381166111735760405162461bcd60e51b815260206004820152602660248201527f4f776e61626c653a206e6577206f776e657220697320746865207a65726f206160448201526564647265737360d01b60648201526084016107ac565b610a9281611fed565b6000818152600360205260409020546001600160a01b0316610a925760405162461bcd60e51b8152602060048201526018602482015277115490cdcc8c4e881a5b9d985b1a59081d1bdad95b88125160421b60448201526064016107ac565b600081815260056020526040902080546001600160a01b0319166001600160a01b038416908117909155819061121082610c03565b6001600160a01b03167f8c5be1e5ebec7d5bd14f71427d1e84f3dd0314c0f7b2291e5b200ac8c7c3b92560405160405180910390a45050565b600080732686e2ec431b90b5c5b21408771ebf377dbb07bd635cff288d85856040518363ffffffff1660e01b81526004016112859291906135c4565b602060405180830381865af41580156112a2573d6000803e3d6000fd5b505050506040513d601f19601f820116820180604052508101906112c69190613475565b90506001600160a01b0381166112de576112de61345f565b6001600160a01b03166000908152600f602052604090205460ff169392505050565b60008061130f84848888611af5565b905061133284620f424061132382856135fb565b61132d919061361a565b6123cd565b9695505050505050565b6000428311801561134c57504284115b61138d5760405162461bcd60e51b81526020600482015260126024820152716261636b3a20496e76616c6964206461746560701b60448201526064016107ac565b6040516306c77ce760e01b81526001600160801b03198088166004830152881660248201527f00000000000000000000000000000000000000000000000000000000000000006001600160a01b0316906306c77ce790604401602060405180830381865afa158015611403573d6000803e3d6000fd5b505050506040513d601f19601f82011682018060405250810190611427919061363c565b60ff166002146114915760405162461bcd60e51b815260206004820152602f60248201527f6261636b3a204f7261636c6520726573756c7420616c7265616479207365742060448201526e199bdc881d1a1a5cc81b585c9ad95d608a1b60648201526084016107ac565b60007f00000000000000000000000000000000000000000000000000000000000000006001600160a01b03166338d52e0f6040518163ffffffff1660e01b8152600401602060405180830381865afa1580156114f1573d6000803e3d6000fd5b505050506040513d601f19601f820116820180604052508101906115159190613475565b90506001600160a01b0381166323b872dd3360405160e083901b6001600160e01b03191681526001600160a01b0391821660048201527f00000000000000000000000000000000000000000000000000000000000000009091166024820152604481018990526064016020604051808303816000875af115801561159d573d6000803e3d6000fd5b505050506040513d601f19601f820116820180604052508101906115c191906134bf565b506001600160801b031987166000908152600a6020526040812080548892906115eb908490613659565b9250508190555085600d60008282546116049190613659565b90915550506007805490600061161983613671565b909155506000905061162b87856134a8565b6001600160801b03198a166000908152600c6020526040812080549293508392909190611659908490613659565b9091555061166b9050888a89876123e3565b600e600082825461167c9190613659565b9091555050600880546040805160e0810182526001600160801b03198d811682528c1660208083018281528385018e8152606085018c815260808087018f81524260a08901908152600060c08a018181526001808e018f558e83529a519751851c600160801b029790941c9690961760068c027ff3f7a9fe364faab93b216da50a3214154f22a0a2b415b23a84c8169e8b636ee381019190915594517ff3f7a9fe364faab93b216da50a3214154f22a0a2b415b23a84c8169e8b636ee486015592517ff3f7a9fe364faab93b216da50a3214154f22a0a2b415b23a84c8169e8b636ee5850155517ff3f7a9fe364faab93b216da50a3214154f22a0a2b415b23a84c8169e8b636ee684015590517ff3f7a9fe364faab93b216da50a3214154f22a0a2b415b23a84c8169e8b636ee7830155517ff3f7a9fe364faab93b216da50a3214154f22a0a2b415b23a84c8169e8b636ee8909101805491151560ff199092169190911790559182526009815292812080549283018155815291909120600482040180546001600160401b0380851660039094169095026101000a83810295021916939093179092559061183290339061263a565b604080516001600160401b03831681526001600160801b03198c811660208301528b1681830152606081018a905260808101879052905133917f1d273ea6a1aea94de32fd06a09ab8046dff8e3261c5a4ecaa5e1a5705f3342ec919081900360a00190a26001600160401b03169998505050505050505050565b6000546001600160a01b03163314610a945760405162461bcd60e51b815260206004820181905260248201527f4f776e61626c653a2063616c6c6572206973206e6f7420746865206f776e657260448201526064016107ac565b60008061191283610c03565b9050806001600160a01b0316846001600160a01b0316148061195957506001600160a01b0380821660009081526006602090815260408083209388168352929052205460ff165b80610af35750836001600160a01b031661197284610711565b6001600160a01b031614949350505050565b826001600160a01b031661199782610c03565b6001600160a01b0316146119bd5760405162461bcd60e51b81526004016107ac9061368a565b6001600160a01b038216611a1f5760405162461bcd60e51b8152602060048201526024808201527f4552433732313a207472616e7366657220746f20746865207a65726f206164646044820152637265737360e01b60648201526084016107ac565b611a2c83838360016127d3565b826001600160a01b0316611a3f82610c03565b6001600160a01b031614611a655760405162461bcd60e51b81526004016107ac9061368a565b600081815260056020908152604080832080546001600160a01b03199081169091556001600160a01b0387811680865260048552838620805460001901905590871680865283862080546001019055868652600390945282852080549092168417909155905184937fddf252ad1be2c89b69c2b068fc378daa952ba7f163c4a11628f55a4df523b3ef91a4505050565b6000600185111580611b08575060018411155b15611b1557506001610af3565b60007f00000000000000000000000000000000000000000000000000000000000000006001600160a01b031663b15031fa6040518163ffffffff1660e01b8152600401602060405180830381865afa158015611b75573d6000803e3d6000fd5b505050506040513d601f19601f82011682018060405250810190611b9991906136cf565b905080600003611bad576001915050610af3565b6001600160801b031984166000908152600c6020526040902054811015611bd8576001915050610af3565b6001600160801b031984166000908152600c6020526040902054611bfc90826134a8565b90506000611c0b87878461285b565b979650505050505050565b60006008826001600160401b031681548110611c3457611c34613529565b60009182526020918290206040805160e081018252600690930290910180546001600160801b0319608082811b82168652600160801b909204821b16948401949094526001808201549284019290925260028101546060840152600381015493830193909352600483015460a083015260059092015460ff16151560c082015260088054919350906001600160401b038516908110611cd557611cd5613529565b60009182526020822060069190910201600501805460ff19169215159290921790915580611d0284612372565b421115611d3a5760019150611d1f846001600160401b0316610c03565b9050611d35846001600160401b031660016128e0565b611e90565b602083015183516040516306c77ce760e01b81526001600160801b03199283166004820152911660248201527f00000000000000000000000000000000000000000000000000000000000000006001600160a01b0316906306c77ce790604401602060405180830381865afa158015611db7573d6000803e3d6000fd5b505050506040513d601f19601f82011682018060405250810190611ddb919061363c565b915060011960ff831601611e0f577f0000000000000000000000000000000000000000000000000000000000000000611e21565b611e21846001600160401b0316610c03565b9050611e36846001600160401b0316836128e0565b6008846001600160401b031681548110611e5257611e52613529565b906000526020600020906006020160010154600d6000828254611e7591906134a8565b909155505060078054906000611e8a836136e8565b91905055505b806001600160a01b03167f7c2e00429f610bdb997681cabbb0ef3197390c07fe90ea4a98ac36438dd4217c856008876001600160401b031681548110611ed857611ed8613529565b600091825260209182902060026006909202010154604080516001600160401b0390941684529183015260ff86169082015260600160405180910390a2610f71846001600160401b0316612d6e565b6000806000806000806000806008896001600160401b031681548110611f4f57611f4f613529565b60009182526020918290206040805160e0810182526006939093029091018054608081811b6001600160801b0319908116808752600160801b909304821b1695850186905260018301549385018490526002830154606086018190526003840154918601829052600484015460a0870181905260059094015460ff16151560c0909601869052939f939e509c50909a50919850919650945092505050565b600080546001600160a01b038381166001600160a01b0319831681178455604051919092169283917f8be0079c531659141344cd1fd0a4f28419497f9722a3daafe3b4186f6b6457e09190a35050565b816001600160a01b0316836001600160a01b03160361209e5760405162461bcd60e51b815260206004820152601960248201527f4552433732313a20617070726f766520746f2063616c6c65720000000000000060448201526064016107ac565b6001600160a01b03838116600081815260066020908152604080832094871680845294825291829020805460ff191686151590811790915591519182527f17307eab39ab6107e8899845ad3d59bd9653f200f220920489ca2b5937696c31910160405180910390a3505050565b612116848484611984565b61212284848484612e11565b610f715760405162461bcd60e51b81526004016107ac906136ff565b6060600061214d8360026135fb565b612158906002613659565b6001600160401b0381111561216f5761216f613302565b6040519080825280601f01601f191660200182016040528015612199576020820181803683370190505b509050600360fc1b816000815181106121b4576121b4613529565b60200101906001600160f81b031916908160001a905350600f60fb1b816001815181106121e3576121e3613529565b60200101906001600160f81b031916908160001a90535060006122078460026135fb565b612212906001613659565b90505b600181111561228a576f181899199a1a9b1b9c1cb0b131b232b360811b85600f166010811061224657612246613529565b1a60f81b82828151811061225c5761225c613529565b60200101906001600160f81b031916908160001a90535060049490941c93612283816136e8565b9050612215565b5083156122d95760405162461bcd60e51b815260206004820181905260248201527f537472696e67733a20686578206c656e67746820696e73756666696369656e7460448201526064016107ac565b9392505050565b606060006122ed83612f0f565b60010190506000816001600160401b0381111561230c5761230c613302565b6040519080825280601f01601f191660200182016040528015612336576020820181803683370190505b5090508181016020015b600019016f181899199a1a9b1b9c1cb0b131b232b360811b600a86061a8153600a850494508461234057509392505050565b60007f00000000000000000000000000000000000000000000000000000000000000006008836001600160401b0316815481106123b1576123b1613529565b9060005260206000209060060201600301546106799190613659565b60008183116123dc57816122d9565b5090919050565b6001600160801b03198085166000908152601060209081526040808320549387168352600c909152812054909182911115610af0576001600160801b031986811660009081526012602090815260408083208054851660808b901c17905560108252808320549389168352600c9091528120549091612461916134a8565b90506000600e5460115461247591906134a8565b905060006124838383612fe7565b9050828110156125fc57600061249982856134a8565b90507f00000000000000000000000000000000000000000000000000000000000000006001600160a01b03166338d52e0f6040518163ffffffff1660e01b8152600401602060405180830381865afa1580156124f9573d6000803e3d6000fd5b505050506040513d601f19601f8201168201806040525081019061251d9190613475565b6040516323b872dd60e01b81526001600160a01b037f0000000000000000000000000000000000000000000000000000000000000000811660048301527f0000000000000000000000000000000000000000000000000000000000000000811660248301526044820184905291909116906323b872dd906064016020604051808303816000875af11580156125b6573d6000803e3d6000fd5b505050506040513d601f19601f820116820180604052508101906125da91906134bf565b5080945084601160008282546125f09190613659565b90915550612600915050565b8293505b6001600160801b0319891660009081526010602052604081208054859290612629908490613659565b909155505050505095945050505050565b6001600160a01b0382166126905760405162461bcd60e51b815260206004820181905260248201527f4552433732313a206d696e7420746f20746865207a65726f206164647265737360448201526064016107ac565b6000818152600360205260409020546001600160a01b0316156126f55760405162461bcd60e51b815260206004820152601c60248201527f4552433732313a20746f6b656e20616c7265616479206d696e7465640000000060448201526064016107ac565b6127036000838360016127d3565b6000818152600360205260409020546001600160a01b0316156127685760405162461bcd60e51b815260206004820152601c60248201527f4552433732313a20746f6b656e20616c7265616479206d696e7465640000000060448201526064016107ac565b6001600160a01b038216600081815260046020908152604080832080546001019055848352600390915280822080546001600160a01b0319168417905551839291907fddf252ad1be2c89b69c2b068fc378daa952ba7f163c4a11628f55a4df523b3ef908290a45050565b6001811115610f71576001600160a01b03841615612819576001600160a01b038416600090815260046020526040812080548392906128139084906134a8565b90915550505b6001600160a01b03831615610f71576001600160a01b03831660009081526004602052604081208054839290612850908490613659565b909155505050505050565b60405163a19dec4360e01b8152600481018490526024810183905260448101829052600090732fc6Ae36691A9cd57B3dB9F22883efCd68Eda6E99063a19dec4390606401602060405180830381865af41580156128bc573d6000803e3d6000fd5b505050506040513d601f19601f82011682018060405250810190610af391906136cf565b42600883815481106128f4576128f4613529565b906000526020600020906006020160030154106129535760405162461bcd60e51b815260206004820181905260248201527f5f7061796f75743a205061796f75742064617465206e6f74207265616368656460448201526064016107ac565b60007f00000000000000000000000000000000000000000000000000000000000000006001600160a01b03166338d52e0f6040518163ffffffff1660e01b8152600401602060405180830381865afa1580156129b3573d6000803e3d6000fd5b505050506040513d601f19601f820116820180604052508101906129d79190613475565b9050612a95600884815481106129ef576129ef613529565b60009182526020909120600690910201546008805460809290921b9186908110612a1b57612a1b613529565b6000918252602080832060069290920290910154600160801b9004608090811b6001600160801b0319908116845260128352604093849020548451921b8116828401528351601081840301815260308301855280519084012094166050820152825180820384018152606090910190925281519101201490565b1515600103612b095760088381548110612ab157612ab1613529565b90600052602060002090600602016001015460088481548110612ad657612ad6613529565b906000526020600020906006020160020154612af291906134a8565b600e6000828254612b0391906134a8565b90915550505b60021960ff831601612c45577f00000000000000000000000000000000000000000000000000000000000000006001600160a01b03166338d52e0f6040518163ffffffff1660e01b8152600401602060405180830381865afa158015612b73573d6000803e3d6000fd5b505050506040513d601f19601f82011682018060405250810190612b979190613475565b6001600160a01b031663a9059cbb612bae85610c03565b60088681548110612bc157612bc1613529565b60009182526020909120600160069092020101546040516001600160e01b031960e085901b1681526001600160a01b03909216600483015260248201526044015b6020604051808303816000875af1158015612c21573d6000803e3d6000fd5b505050506040513d601f19601f82011682018060405250810190610f7191906134bf565b60001960ff831601612d2b5760088381548110612c6457612c64613529565b90600052602060002090600602016001015460088481548110612c8957612c89613529565b906000526020600020906006020160020154612ca591906134a8565b60116000828254612cb691906134a8565b90915550506001600160a01b03811663a9059cbb612cd385610c03565b60088681548110612ce657612ce6613529565b60009182526020909120600260069092020101546040516001600160e01b031960e085901b1681526001600160a01b0390921660048301526024820152604401612c02565b806001600160a01b031663a9059cbb7f000000000000000000000000000000000000000000000000000000000000000060088681548110612bc157612bc1613529565b6000612d7982610c03565b9050612d898160008460016127d3565b612d9282610c03565b600083815260056020908152604080832080546001600160a01b03199081169091556001600160a01b0385168085526004845282852080546000190190558785526003909352818420805490911690555192935084927fddf252ad1be2c89b69c2b068fc378daa952ba7f163c4a11628f55a4df523b3ef908390a45050565b60006001600160a01b0384163b15612f0757604051630a85bd0160e11b81526001600160a01b0385169063150b7a0290612e55903390899088908890600401613751565b6020604051808303816000875af1925050508015612e90575060408051601f3d908101601f19168201909252612e8d91810190613784565b60015b612eed573d808015612ebe576040519150601f19603f3d011682016040523d82523d6000602084013e612ec3565b606091505b508051600003612ee55760405162461bcd60e51b81526004016107ac906136ff565b805181602001fd5b6001600160e01b031916630a85bd0160e11b149050610af3565b506001610af3565b60008072184f03e93ff9f4daa797ed6e38ed64bf6a1f0160401b8310612f4e5772184f03e93ff9f4daa797ed6e38ed64bf6a1f0160401b830492506040015b6d04ee2d6d415b85acef81000000008310612f7a576d04ee2d6d415b85acef8100000000830492506020015b662386f26fc100008310612f9857662386f26fc10000830492506010015b6305f5e1008310612fb0576305f5e100830492506008015b6127108310612fc457612710830492506004015b60648310612fd6576064830492506002015b600a83106106795760010192915050565b60008183106123dc57816122d9565b6001600160e01b031981168114610a9257600080fd5b60006020828403121561301e57600080fd5b81356122d981612ff6565b60005b8381101561304457818101518382015260200161302c565b83811115610f715750506000910152565b6000815180845261306d816020860160208601613029565b601f01601f19169290920160200192915050565b6020815260006122d96020830184613055565b6000602082840312156130a657600080fd5b5035919050565b6001600160a01b0381168114610a9257600080fd5b600080604083850312156130d557600080fd5b82356130e0816130ad565b946020939093013593505050565b80356001600160801b03198116811461310657600080fd5b919050565b60006020828403121561311d57600080fd5b6122d9826130ee565b600080600080600080600080888a0361014081121561314457600080fd5b61314d8a6130ee565b985061315b60208b016130ee565b975061316960408b016130ee565b965060608a810135965060808b0135955060a08b0135945060c08b0135935060df198201121561319857600080fd5b5060e0890190509295985092959890939650565b6000806000606084860312156131c157600080fd5b83356131cc816130ad565b925060208401356131dc816130ad565b929592945050506040919091013590565b6000806000806080858703121561320357600080fd5b843593506020850135925061321a604086016130ee565b9150613228606086016130ee565b905092959194509250565b60006020828403121561324557600080fd5b81356001600160401b03811681146122d957600080fd5b6000806000806080858703121561327257600080fd5b61327b856130ee565b9350613289602086016130ee565b93969395505050506040820135916060013590565b6000602082840312156132b057600080fd5b81356122d9816130ad565b8015158114610a9257600080fd5b600080604083850312156132dc57600080fd5b82356132e7816130ad565b915060208301356132f7816132bb565b809150509250929050565b634e487b7160e01b600052604160045260246000fd5b6000806000806080858703121561332e57600080fd5b8435613339816130ad565b93506020850135613349816130ad565b92506040850135915060608501356001600160401b038082111561336c57600080fd5b818701915087601f83011261338057600080fd5b81358181111561339257613392613302565b604051601f8201601f19908116603f011681019083821181831017156133ba576133ba613302565b816040528281528a60208487010111156133d357600080fd5b82602086016020830137600060208483010152809550505050505092959194509250565b6000806040838503121561340a57600080fd5b8235613415816130ad565b915060208301356132f7816130ad565b600181811c9082168061343957607f821691505b60208210810361345957634e487b7160e01b600052602260045260246000fd5b50919050565b634e487b7160e01b600052600160045260246000fd5b60006020828403121561348757600080fd5b81516122d9816130ad565b634e487b7160e01b600052601160045260246000fd5b6000828210156134ba576134ba613492565b500390565b6000602082840312156134d157600080fd5b81516122d9816132bb565b6020808252602d908201527f4552433732313a2063616c6c6572206973206e6f7420746f6b656e206f776e6560408201526c1c881bdc88185c1c1c9bdd9959609a1b606082015260800190565b634e487b7160e01b600052603260045260246000fd5b60006001600160401b0380831681810361355b5761355b613492565b6001019392505050565b60008451613577818460208901613029565b84519083019061358b818360208901613029565b602f60f81b910190815283516135a8816001840160208801613029565b0160010195945050505050565b60ff81168114610a9257600080fd5b8281526080810182356135d6816135b5565b60ff811660208401525060208301356040830152604083013560608301529392505050565b600081600019048311821515161561361557613615613492565b500290565b60008261363757634e487b7160e01b600052601260045260246000fd5b500490565b60006020828403121561364e57600080fd5b81516122d9816135b5565b6000821982111561366c5761366c613492565b500190565b60006001820161368357613683613492565b5060010190565b60208082526025908201527f4552433732313a207472616e736665722066726f6d20696e636f72726563742060408201526437bbb732b960d91b606082015260800190565b6000602082840312156136e157600080fd5b5051919050565b6000816136f7576136f7613492565b506000190190565b60208082526032908201527f4552433732313a207472616e7366657220746f206e6f6e20455243373231526560408201527131b2b4bb32b91034b6b83632b6b2b73a32b960711b606082015260800190565b6001600160a01b038581168252841660208201526040810183905260806060820181905260009061133290830184613055565b60006020828403121561379657600080fd5b81516122d981612ff656fea2646970667358221220b99fd724dd0efbe53ea2503f354d9d1b19ebc180f8b48abd48c6f65f1726f56264736f6c634300080f0033",
  "deployedBytecode": "0x608060405234801561001057600080fd5b50600436106102325760003560e01c806370a0823111610130578063a22cb465116100b8578063c87b56dd1161007c578063c87b56dd146105b0578063c96121a8146105c3578063e4650fac146105cb578063e985e9c5146105de578063f2fde38b1461061a57600080fd5b8063a22cb46514610531578063a87d942c14610544578063b18b78dd14610564578063b88d4fde1461058a578063c34b44a01461059d57600080fd5b806388bc76ba116100ff57806388bc76ba146104d35780638ac6d217146104e65780638da5cb5b146104ee57806395d89b41146104ff578063a166895e1461050757600080fd5b806370a082311461047e57806370dea79a14610491578063715018a6146104b85780637df73e27146104c057600080fd5b806342842e0e116101be5780636352211e116101825780636352211e1461039f57806363c724f7146103b257806365cacaa4146103c55780636b467d15146103eb5780636c0360eb1461044257600080fd5b806342842e0e1461034b57806346e116a61461035e5780634b9ba4461461037157806358439479146103845780636028421f1461038c57600080fd5b806312fa3bf11161020557806312fa3bf1146102b4578063207b8b53146102ec5780632098b7ff146102ff57806323b872dd1461030757806325117b721461031a57600080fd5b806301ffc9a71461023757806306fdde031461025f578063081812fc14610274578063095ea7b31461029f575b600080fd5b61024a61024536600461300c565b61062d565b60405190151581526020015b60405180910390f35b61026761067f565b6040516102569190613081565b610287610282366004613094565b610711565b6040516001600160a01b039091168152602001610256565b6102b26102ad3660046130c2565b610738565b005b6102de6102c236600461310b565b6001600160801b0319166000908152600a602052604090205490565b604051908152602001610256565b6102de6102fa366004613126565b610852565b6102b2610945565b6102b26103153660046131ac565b610a96565b60405160ff7f0000000000000000000000000000000000000000000000000000000000000000168152602001610256565b6102b26103593660046131ac565b610ac7565b6102de61036c3660046131ed565b610ae2565b6102b261037f366004613233565b610afb565b600d546102de565b6102de61039a36600461325c565b610bf5565b6102876103ad366004613094565b610c03565b6102b26103c036600461329e565b610c63565b7f0000000000000000000000000000000000000000000000000000000000000000610287565b6103fe6103f9366004613233565b610cf1565b604080519788526020880196909652948601939093526060850191909152151560808401526001600160801b031990811660a08401521660c082015260e001610256565b6102676040518060400160405280601c81526020017f68747470733a2f2f686f7273652e6c696e6b2f6170692f626574732f0000000081525081565b6102de61048c36600461329e565b610d1c565b6102de7f000000000000000000000000000000000000000000000000000000000000000081565b6102b2610da2565b61024a6104ce36600461329e565b610db4565b6102b26104e136600461310b565b610dd5565b600e546102de565b6000546001600160a01b0316610287565b610267610f77565b6102de61051536600461310b565b6001600160801b03191660009081526010602052604090205490565b6102b261053f3660046132c9565b610f86565b61054c610f91565b6040516001600160401b039091168152602001610256565b7f0000000000000000000000000000000000000000000000000000000000000000610287565b6102b2610598366004613318565b610fa1565b6102b26105ab36600461329e565b610fd3565b6102676105be366004613094565b61105e565b6007546102de565b6102de6105d9366004613233565b6110fb565b61024a6105ec3660046133f7565b6001600160a01b03918216600090815260066020908152604080832093909416825291909152205460ff1690565b6102b261062836600461329e565b611106565b60006001600160e01b031982166380ac58cd60e01b148061065e57506001600160e01b03198216635b5e139f60e01b145b8061067957506301ffc9a760e01b6001600160e01b03198316145b92915050565b60606001805461068e90613425565b80601f01602080910402602001604051908101604052809291908181526020018280546106ba90613425565b80156107075780601f106106dc57610100808354040283529160200191610707565b820191906000526020600020905b8154815290600101906020018083116106ea57829003601f168201915b5050505050905090565b600061071c8261117c565b506000908152600560205260409020546001600160a01b031690565b600061074382610c03565b9050806001600160a01b0316836001600160a01b0316036107b55760405162461bcd60e51b815260206004820152602160248201527f4552433732313a20617070726f76616c20746f2063757272656e74206f776e656044820152603960f91b60648201526084015b60405180910390fd5b336001600160a01b03821614806107d157506107d181336105ec565b6108435760405162461bcd60e51b815260206004820152603d60248201527f4552433732313a20617070726f76652063616c6c6572206973206e6f7420746f60448201527f6b656e206f776e6572206f7220617070726f76656420666f7220616c6c00000060648201526084016107ac565b61084d83836111db565b505050565b604080516001600160801b0319808b166020830152808a166030830152881691810191909152605081018590526070810184905260908101839052600090819060b0016040516020818303038152906040528051906020012090506108b78184611249565b15156001146109085760405162461bcd60e51b815260206004820152601760248201527f6261636b3a20496e76616c6964207369676e617475726500000000000000000060448201526064016107ac565b60006109168a8a8a8a611300565b9050600081116109285761092861345f565b6109368a8a8a89898661133c565b9b9a5050505050505050505050565b61094d6118ac565b600e546011541115610a9457600e546011819055507f00000000000000000000000000000000000000000000000000000000000000006001600160a01b03166338d52e0f6040518163ffffffff1660e01b8152600401602060405180830381865afa1580156109c0573d6000803e3d6000fd5b505050506040513d601f19601f820116820180604052508101906109e49190613475565b6001600160a01b031663a9059cbb7f0000000000000000000000000000000000000000000000000000000000000000600e54601154610a2391906134a8565b6040516001600160e01b031960e085901b1681526001600160a01b03909216600483015260248201526044016020604051808303816000875af1158015610a6e573d6000803e3d6000fd5b505050506040513d601f19601f82011682018060405250810190610a9291906134bf565b505b565b610aa03382611906565b610abc5760405162461bcd60e51b81526004016107ac906134dc565b61084d838383611984565b61084d83838360405180602001604052806000815250610fa1565b6000610af085858585611af5565b90505b949350505050565b60006008826001600160401b031681548110610b1957610b19613529565b60009182526020918290206040805160e081018252600690930290910180546001600160801b0319608082811b82168652600160801b909204821b169484019490945260018101549183019190915260028101546060830152600381015492820192909252600482015460a082015260059091015460ff1615801560c0830152909150610be85760405162461bcd60e51b815260206004820152601f60248201527f736574746c653a204265742068617320616c726561647920736574746c65640060448201526064016107ac565b610bf182611c16565b5050565b6000610af085858585611300565b6000818152600360205260408120546001600160a01b0316806106795760405162461bcd60e51b8152602060048201526018602482015277115490cdcc8c4e881a5b9d985b1a59081d1bdad95b88125160421b60448201526064016107ac565b610c6b6118ac565b6001600160a01b038116610ccd5760405162461bcd60e51b815260206004820152602360248201527f6772616e745369676e65723a20496e76616c6964207369676e6572206164647260448201526265737360e81b60648201526084016107ac565b6001600160a01b03166000908152600f60205260409020805460ff19166001179055565b6000806000806000806000610d0588611f27565b959e949d50929b5090995097509550909350915050565b60006001600160a01b038216610d865760405162461bcd60e51b815260206004820152602960248201527f4552433732313a2061646472657373207a65726f206973206e6f7420612076616044820152683634b21037bbb732b960b91b60648201526084016107ac565b506001600160a01b031660009081526004602052604090205490565b610daa6118ac565b610a946000611fed565b6001600160a01b0381166000908152600f602052604081205460ff16610679565b6001600160801b03198116600090815260096020908152604080832080548251818502810185019093528083529192909190830182828015610e6857602002820191906000526020600020906000905b82829054906101000a90046001600160401b03166001600160401b031681526020019060080190602082600701049283019260010382029150808411610e255790505b505083519394506000925050505b81816001600160401b03161015610f7157600083826001600160401b031681518110610ea457610ea4613529565b6020026020010151905060006008826001600160401b031681548110610ecc57610ecc613529565b600091825260208083206040805160e081018252600690940290910180546001600160801b0319608082811b82168752600160801b909204821b169385019390935260018101549184019190915260028101546060840152600381015491830191909152600481015460a08301526005015460ff16151560c082018190529092509003610f5c57610f5c82611c16565b50508080610f699061353f565b915050610e76565b50505050565b60606002805461068e90613425565b610bf133838361203d565b6000610f9c60085490565b905090565b610fab3383611906565b610fc75760405162461bcd60e51b81526004016107ac906134dc565b610f718484848461210b565b610fdb6118ac565b6001600160a01b03811661103d5760405162461bcd60e51b8152602060048201526024808201527f7265766f6b655369676e65723a20496e76616c6964207369676e6572206164646044820152637265737360e01b60648201526084016107ac565b6001600160a01b03166000908152600f60205260409020805460ff19169055565b60606040518060400160405280601c81526020017f68747470733a2f2f686f7273652e6c696e6b2f6170692f626574732f000000008152506110ca7f00000000000000000000000000000000000000000000000000000000000000006001600160a01b0316601461213e565b6110d3846122e0565b6040516020016110e593929190613565565b6040516020818303038152906040529050919050565b600061067982612372565b61110e6118ac565b6001600160a01b0381166111735760405162461bcd60e51b815260206004820152602660248201527f4f776e61626c653a206e6577206f776e657220697320746865207a65726f206160448201526564647265737360d01b60648201526084016107ac565b610a9281611fed565b6000818152600360205260409020546001600160a01b0316610a925760405162461bcd60e51b8152602060048201526018602482015277115490cdcc8c4e881a5b9d985b1a59081d1bdad95b88125160421b60448201526064016107ac565b600081815260056020526040902080546001600160a01b0319166001600160a01b038416908117909155819061121082610c03565b6001600160a01b03167f8c5be1e5ebec7d5bd14f71427d1e84f3dd0314c0f7b2291e5b200ac8c7c3b92560405160405180910390a45050565b60008073__$47464c6f7588c8075b5d384b19d082a8ec$__635cff288d85856040518363ffffffff1660e01b81526004016112859291906135c4565b602060405180830381865af41580156112a2573d6000803e3d6000fd5b505050506040513d601f19601f820116820180604052508101906112c69190613475565b90506001600160a01b0381166112de576112de61345f565b6001600160a01b03166000908152600f602052604090205460ff169392505050565b60008061130f84848888611af5565b905061133284620f424061132382856135fb565b61132d919061361a565b6123cd565b9695505050505050565b6000428311801561134c57504284115b61138d5760405162461bcd60e51b81526020600482015260126024820152716261636b3a20496e76616c6964206461746560701b60448201526064016107ac565b6040516306c77ce760e01b81526001600160801b03198088166004830152881660248201527f00000000000000000000000000000000000000000000000000000000000000006001600160a01b0316906306c77ce790604401602060405180830381865afa158015611403573d6000803e3d6000fd5b505050506040513d601f19601f82011682018060405250810190611427919061363c565b60ff166002146114915760405162461bcd60e51b815260206004820152602f60248201527f6261636b3a204f7261636c6520726573756c7420616c7265616479207365742060448201526e199bdc881d1a1a5cc81b585c9ad95d608a1b60648201526084016107ac565b60007f00000000000000000000000000000000000000000000000000000000000000006001600160a01b03166338d52e0f6040518163ffffffff1660e01b8152600401602060405180830381865afa1580156114f1573d6000803e3d6000fd5b505050506040513d601f19601f820116820180604052508101906115159190613475565b90506001600160a01b0381166323b872dd3360405160e083901b6001600160e01b03191681526001600160a01b0391821660048201527f00000000000000000000000000000000000000000000000000000000000000009091166024820152604481018990526064016020604051808303816000875af115801561159d573d6000803e3d6000fd5b505050506040513d601f19601f820116820180604052508101906115c191906134bf565b506001600160801b031987166000908152600a6020526040812080548892906115eb908490613659565b9250508190555085600d60008282546116049190613659565b90915550506007805490600061161983613671565b909155506000905061162b87856134a8565b6001600160801b03198a166000908152600c6020526040812080549293508392909190611659908490613659565b9091555061166b9050888a89876123e3565b600e600082825461167c9190613659565b9091555050600880546040805160e0810182526001600160801b03198d811682528c1660208083018281528385018e8152606085018c815260808087018f81524260a08901908152600060c08a018181526001808e018f558e83529a519751851c600160801b029790941c9690961760068c027ff3f7a9fe364faab93b216da50a3214154f22a0a2b415b23a84c8169e8b636ee381019190915594517ff3f7a9fe364faab93b216da50a3214154f22a0a2b415b23a84c8169e8b636ee486015592517ff3f7a9fe364faab93b216da50a3214154f22a0a2b415b23a84c8169e8b636ee5850155517ff3f7a9fe364faab93b216da50a3214154f22a0a2b415b23a84c8169e8b636ee684015590517ff3f7a9fe364faab93b216da50a3214154f22a0a2b415b23a84c8169e8b636ee7830155517ff3f7a9fe364faab93b216da50a3214154f22a0a2b415b23a84c8169e8b636ee8909101805491151560ff199092169190911790559182526009815292812080549283018155815291909120600482040180546001600160401b0380851660039094169095026101000a83810295021916939093179092559061183290339061263a565b604080516001600160401b03831681526001600160801b03198c811660208301528b1681830152606081018a905260808101879052905133917f1d273ea6a1aea94de32fd06a09ab8046dff8e3261c5a4ecaa5e1a5705f3342ec919081900360a00190a26001600160401b03169998505050505050505050565b6000546001600160a01b03163314610a945760405162461bcd60e51b815260206004820181905260248201527f4f776e61626c653a2063616c6c6572206973206e6f7420746865206f776e657260448201526064016107ac565b60008061191283610c03565b9050806001600160a01b0316846001600160a01b0316148061195957506001600160a01b0380821660009081526006602090815260408083209388168352929052205460ff165b80610af35750836001600160a01b031661197284610711565b6001600160a01b031614949350505050565b826001600160a01b031661199782610c03565b6001600160a01b0316146119bd5760405162461bcd60e51b81526004016107ac9061368a565b6001600160a01b038216611a1f5760405162461bcd60e51b8152602060048201526024808201527f4552433732313a207472616e7366657220746f20746865207a65726f206164646044820152637265737360e01b60648201526084016107ac565b611a2c83838360016127d3565b826001600160a01b0316611a3f82610c03565b6001600160a01b031614611a655760405162461bcd60e51b81526004016107ac9061368a565b600081815260056020908152604080832080546001600160a01b03199081169091556001600160a01b0387811680865260048552838620805460001901905590871680865283862080546001019055868652600390945282852080549092168417909155905184937fddf252ad1be2c89b69c2b068fc378daa952ba7f163c4a11628f55a4df523b3ef91a4505050565b6000600185111580611b08575060018411155b15611b1557506001610af3565b60007f00000000000000000000000000000000000000000000000000000000000000006001600160a01b031663b15031fa6040518163ffffffff1660e01b8152600401602060405180830381865afa158015611b75573d6000803e3d6000fd5b505050506040513d601f19601f82011682018060405250810190611b9991906136cf565b905080600003611bad576001915050610af3565b6001600160801b031984166000908152600c6020526040902054811015611bd8576001915050610af3565b6001600160801b031984166000908152600c6020526040902054611bfc90826134a8565b90506000611c0b87878461285b565b979650505050505050565b60006008826001600160401b031681548110611c3457611c34613529565b60009182526020918290206040805160e081018252600690930290910180546001600160801b0319608082811b82168652600160801b909204821b16948401949094526001808201549284019290925260028101546060840152600381015493830193909352600483015460a083015260059092015460ff16151560c082015260088054919350906001600160401b038516908110611cd557611cd5613529565b60009182526020822060069190910201600501805460ff19169215159290921790915580611d0284612372565b421115611d3a5760019150611d1f846001600160401b0316610c03565b9050611d35846001600160401b031660016128e0565b611e90565b602083015183516040516306c77ce760e01b81526001600160801b03199283166004820152911660248201527f00000000000000000000000000000000000000000000000000000000000000006001600160a01b0316906306c77ce790604401602060405180830381865afa158015611db7573d6000803e3d6000fd5b505050506040513d601f19601f82011682018060405250810190611ddb919061363c565b915060011960ff831601611e0f577f0000000000000000000000000000000000000000000000000000000000000000611e21565b611e21846001600160401b0316610c03565b9050611e36846001600160401b0316836128e0565b6008846001600160401b031681548110611e5257611e52613529565b906000526020600020906006020160010154600d6000828254611e7591906134a8565b909155505060078054906000611e8a836136e8565b91905055505b806001600160a01b03167f7c2e00429f610bdb997681cabbb0ef3197390c07fe90ea4a98ac36438dd4217c856008876001600160401b031681548110611ed857611ed8613529565b600091825260209182902060026006909202010154604080516001600160401b0390941684529183015260ff86169082015260600160405180910390a2610f71846001600160401b0316612d6e565b6000806000806000806000806008896001600160401b031681548110611f4f57611f4f613529565b60009182526020918290206040805160e0810182526006939093029091018054608081811b6001600160801b0319908116808752600160801b909304821b1695850186905260018301549385018490526002830154606086018190526003840154918601829052600484015460a0870181905260059094015460ff16151560c0909601869052939f939e509c50909a50919850919650945092505050565b600080546001600160a01b038381166001600160a01b0319831681178455604051919092169283917f8be0079c531659141344cd1fd0a4f28419497f9722a3daafe3b4186f6b6457e09190a35050565b816001600160a01b0316836001600160a01b03160361209e5760405162461bcd60e51b815260206004820152601960248201527f4552433732313a20617070726f766520746f2063616c6c65720000000000000060448201526064016107ac565b6001600160a01b03838116600081815260066020908152604080832094871680845294825291829020805460ff191686151590811790915591519182527f17307eab39ab6107e8899845ad3d59bd9653f200f220920489ca2b5937696c31910160405180910390a3505050565b612116848484611984565b61212284848484612e11565b610f715760405162461bcd60e51b81526004016107ac906136ff565b6060600061214d8360026135fb565b612158906002613659565b6001600160401b0381111561216f5761216f613302565b6040519080825280601f01601f191660200182016040528015612199576020820181803683370190505b509050600360fc1b816000815181106121b4576121b4613529565b60200101906001600160f81b031916908160001a905350600f60fb1b816001815181106121e3576121e3613529565b60200101906001600160f81b031916908160001a90535060006122078460026135fb565b612212906001613659565b90505b600181111561228a576f181899199a1a9b1b9c1cb0b131b232b360811b85600f166010811061224657612246613529565b1a60f81b82828151811061225c5761225c613529565b60200101906001600160f81b031916908160001a90535060049490941c93612283816136e8565b9050612215565b5083156122d95760405162461bcd60e51b815260206004820181905260248201527f537472696e67733a20686578206c656e67746820696e73756666696369656e7460448201526064016107ac565b9392505050565b606060006122ed83612f0f565b60010190506000816001600160401b0381111561230c5761230c613302565b6040519080825280601f01601f191660200182016040528015612336576020820181803683370190505b5090508181016020015b600019016f181899199a1a9b1b9c1cb0b131b232b360811b600a86061a8153600a850494508461234057509392505050565b60007f00000000000000000000000000000000000000000000000000000000000000006008836001600160401b0316815481106123b1576123b1613529565b9060005260206000209060060201600301546106799190613659565b60008183116123dc57816122d9565b5090919050565b6001600160801b03198085166000908152601060209081526040808320549387168352600c909152812054909182911115610af0576001600160801b031986811660009081526012602090815260408083208054851660808b901c17905560108252808320549389168352600c9091528120549091612461916134a8565b90506000600e5460115461247591906134a8565b905060006124838383612fe7565b9050828110156125fc57600061249982856134a8565b90507f00000000000000000000000000000000000000000000000000000000000000006001600160a01b03166338d52e0f6040518163ffffffff1660e01b8152600401602060405180830381865afa1580156124f9573d6000803e3d6000fd5b505050506040513d601f19601f8201168201806040525081019061251d9190613475565b6040516323b872dd60e01b81526001600160a01b037f0000000000000000000000000000000000000000000000000000000000000000811660048301527f0000000000000000000000000000000000000000000000000000000000000000811660248301526044820184905291909116906323b872dd906064016020604051808303816000875af11580156125b6573d6000803e3d6000fd5b505050506040513d601f19601f820116820180604052508101906125da91906134bf565b5080945084601160008282546125f09190613659565b90915550612600915050565b8293505b6001600160801b0319891660009081526010602052604081208054859290612629908490613659565b909155505050505095945050505050565b6001600160a01b0382166126905760405162461bcd60e51b815260206004820181905260248201527f4552433732313a206d696e7420746f20746865207a65726f206164647265737360448201526064016107ac565b6000818152600360205260409020546001600160a01b0316156126f55760405162461bcd60e51b815260206004820152601c60248201527f4552433732313a20746f6b656e20616c7265616479206d696e7465640000000060448201526064016107ac565b6127036000838360016127d3565b6000818152600360205260409020546001600160a01b0316156127685760405162461bcd60e51b815260206004820152601c60248201527f4552433732313a20746f6b656e20616c7265616479206d696e7465640000000060448201526064016107ac565b6001600160a01b038216600081815260046020908152604080832080546001019055848352600390915280822080546001600160a01b0319168417905551839291907fddf252ad1be2c89b69c2b068fc378daa952ba7f163c4a11628f55a4df523b3ef908290a45050565b6001811115610f71576001600160a01b03841615612819576001600160a01b038416600090815260046020526040812080548392906128139084906134a8565b90915550505b6001600160a01b03831615610f71576001600160a01b03831660009081526004602052604081208054839290612850908490613659565b909155505050505050565b60405163a19dec4360e01b815260048101849052602481018390526044810182905260009073__$488e0037c7b108d422da68056570fe35d6$__9063a19dec4390606401602060405180830381865af41580156128bc573d6000803e3d6000fd5b505050506040513d601f19601f82011682018060405250810190610af391906136cf565b42600883815481106128f4576128f4613529565b906000526020600020906006020160030154106129535760405162461bcd60e51b815260206004820181905260248201527f5f7061796f75743a205061796f75742064617465206e6f74207265616368656460448201526064016107ac565b60007f00000000000000000000000000000000000000000000000000000000000000006001600160a01b03166338d52e0f6040518163ffffffff1660e01b8152600401602060405180830381865afa1580156129b3573d6000803e3d6000fd5b505050506040513d601f19601f820116820180604052508101906129d79190613475565b9050612a95600884815481106129ef576129ef613529565b60009182526020909120600690910201546008805460809290921b9186908110612a1b57612a1b613529565b6000918252602080832060069290920290910154600160801b9004608090811b6001600160801b0319908116845260128352604093849020548451921b8116828401528351601081840301815260308301855280519084012094166050820152825180820384018152606090910190925281519101201490565b1515600103612b095760088381548110612ab157612ab1613529565b90600052602060002090600602016001015460088481548110612ad657612ad6613529565b906000526020600020906006020160020154612af291906134a8565b600e6000828254612b0391906134a8565b90915550505b60021960ff831601612c45577f00000000000000000000000000000000000000000000000000000000000000006001600160a01b03166338d52e0f6040518163ffffffff1660e01b8152600401602060405180830381865afa158015612b73573d6000803e3d6000fd5b505050506040513d601f19601f82011682018060405250810190612b979190613475565b6001600160a01b031663a9059cbb612bae85610c03565b60088681548110612bc157612bc1613529565b60009182526020909120600160069092020101546040516001600160e01b031960e085901b1681526001600160a01b03909216600483015260248201526044015b6020604051808303816000875af1158015612c21573d6000803e3d6000fd5b505050506040513d601f19601f82011682018060405250810190610f7191906134bf565b60001960ff831601612d2b5760088381548110612c6457612c64613529565b90600052602060002090600602016001015460088481548110612c8957612c89613529565b906000526020600020906006020160020154612ca591906134a8565b60116000828254612cb691906134a8565b90915550506001600160a01b03811663a9059cbb612cd385610c03565b60088681548110612ce657612ce6613529565b60009182526020909120600260069092020101546040516001600160e01b031960e085901b1681526001600160a01b0390921660048301526024820152604401612c02565b806001600160a01b031663a9059cbb7f000000000000000000000000000000000000000000000000000000000000000060088681548110612bc157612bc1613529565b6000612d7982610c03565b9050612d898160008460016127d3565b612d9282610c03565b600083815260056020908152604080832080546001600160a01b03199081169091556001600160a01b0385168085526004845282852080546000190190558785526003909352818420805490911690555192935084927fddf252ad1be2c89b69c2b068fc378daa952ba7f163c4a11628f55a4df523b3ef908390a45050565b60006001600160a01b0384163b15612f0757604051630a85bd0160e11b81526001600160a01b0385169063150b7a0290612e55903390899088908890600401613751565b6020604051808303816000875af1925050508015612e90575060408051601f3d908101601f19168201909252612e8d91810190613784565b60015b612eed573d808015612ebe576040519150601f19603f3d011682016040523d82523d6000602084013e612ec3565b606091505b508051600003612ee55760405162461bcd60e51b81526004016107ac906136ff565b805181602001fd5b6001600160e01b031916630a85bd0160e11b149050610af3565b506001610af3565b60008072184f03e93ff9f4daa797ed6e38ed64bf6a1f0160401b8310612f4e5772184f03e93ff9f4daa797ed6e38ed64bf6a1f0160401b830492506040015b6d04ee2d6d415b85acef81000000008310612f7a576d04ee2d6d415b85acef8100000000830492506020015b662386f26fc100008310612f9857662386f26fc10000830492506010015b6305f5e1008310612fb0576305f5e100830492506008015b6127108310612fc457612710830492506004015b60648310612fd6576064830492506002015b600a83106106795760010192915050565b60008183106123dc57816122d9565b6001600160e01b031981168114610a9257600080fd5b60006020828403121561301e57600080fd5b81356122d981612ff6565b60005b8381101561304457818101518382015260200161302c565b83811115610f715750506000910152565b6000815180845261306d816020860160208601613029565b601f01601f19169290920160200192915050565b6020815260006122d96020830184613055565b6000602082840312156130a657600080fd5b5035919050565b6001600160a01b0381168114610a9257600080fd5b600080604083850312156130d557600080fd5b82356130e0816130ad565b946020939093013593505050565b80356001600160801b03198116811461310657600080fd5b919050565b60006020828403121561311d57600080fd5b6122d9826130ee565b600080600080600080600080888a0361014081121561314457600080fd5b61314d8a6130ee565b985061315b60208b016130ee565b975061316960408b016130ee565b965060608a810135965060808b0135955060a08b0135945060c08b0135935060df198201121561319857600080fd5b5060e0890190509295985092959890939650565b6000806000606084860312156131c157600080fd5b83356131cc816130ad565b925060208401356131dc816130ad565b929592945050506040919091013590565b6000806000806080858703121561320357600080fd5b843593506020850135925061321a604086016130ee565b9150613228606086016130ee565b905092959194509250565b60006020828403121561324557600080fd5b81356001600160401b03811681146122d957600080fd5b6000806000806080858703121561327257600080fd5b61327b856130ee565b9350613289602086016130ee565b93969395505050506040820135916060013590565b6000602082840312156132b057600080fd5b81356122d9816130ad565b8015158114610a9257600080fd5b600080604083850312156132dc57600080fd5b82356132e7816130ad565b915060208301356132f7816132bb565b809150509250929050565b634e487b7160e01b600052604160045260246000fd5b6000806000806080858703121561332e57600080fd5b8435613339816130ad565b93506020850135613349816130ad565b92506040850135915060608501356001600160401b038082111561336c57600080fd5b818701915087601f83011261338057600080fd5b81358181111561339257613392613302565b604051601f8201601f19908116603f011681019083821181831017156133ba576133ba613302565b816040528281528a60208487010111156133d357600080fd5b82602086016020830137600060208483010152809550505050505092959194509250565b6000806040838503121561340a57600080fd5b8235613415816130ad565b915060208301356132f7816130ad565b600181811c9082168061343957607f821691505b60208210810361345957634e487b7160e01b600052602260045260246000fd5b50919050565b634e487b7160e01b600052600160045260246000fd5b60006020828403121561348757600080fd5b81516122d9816130ad565b634e487b7160e01b600052601160045260246000fd5b6000828210156134ba576134ba613492565b500390565b6000602082840312156134d157600080fd5b81516122d9816132bb565b6020808252602d908201527f4552433732313a2063616c6c6572206973206e6f7420746f6b656e206f776e6560408201526c1c881bdc88185c1c1c9bdd9959609a1b606082015260800190565b634e487b7160e01b600052603260045260246000fd5b60006001600160401b0380831681810361355b5761355b613492565b6001019392505050565b60008451613577818460208901613029565b84519083019061358b818360208901613029565b602f60f81b910190815283516135a8816001840160208801613029565b0160010195945050505050565b60ff81168114610a9257600080fd5b8281526080810182356135d6816135b5565b60ff811660208401525060208301356040830152604083013560608301529392505050565b600081600019048311821515161561361557613615613492565b500290565b60008261363757634e487b7160e01b600052601260045260246000fd5b500490565b60006020828403121561364e57600080fd5b81516122d9816135b5565b6000821982111561366c5761366c613492565b500190565b60006001820161368357613683613492565b5060010190565b60208082526025908201527f4552433732313a207472616e736665722066726f6d20696e636f72726563742060408201526437bbb732b960d91b606082015260800190565b6000602082840312156136e157600080fd5b5051919050565b6000816136f7576136f7613492565b506000190190565b60208082526032908201527f4552433732313a207472616e7366657220746f206e6f6e20455243373231526560408201527131b2b4bb32b91034b6b83632b6b2b73a32b960711b606082015260800190565b6001600160a01b038581168252841660208201526040810183905260806060820181905260009061133290830184613055565b60006020828403121561379657600080fd5b81516122d981612ff656fea2646970667358221220b99fd724dd0efbe53ea2503f354d9d1b19ebc180f8b48abd48c6f65f1726f56264736f6c634300080f0033",
  "libraries": {
    "SignatureLib": "0x2686e2ec431b90b5c5b21408771ebf377dbb07bd",
    "OddsLib": "0x2fc6Ae36691A9cd57B3dB9F22883efCd68Eda6E9"
  },
  "devdoc": {
    "kind": "dev",
    "methods": {
      "approve(address,uint256)": {
        "details": "See {IERC721-approve}."
      },
      "balanceOf(address)": {
        "details": "See {IERC721-balanceOf}."
      },
      "getApproved(uint256)": {
        "details": "See {IERC721-getApproved}."
      },
      "isApprovedForAll(address,address)": {
        "details": "See {IERC721-isApprovedForAll}."
      },
      "name()": {
        "details": "See {IERC721Metadata-name}."
      },
      "owner()": {
        "details": "Returns the address of the current owner."
      },
      "ownerOf(uint256)": {
        "details": "See {IERC721-ownerOf}."
      },
      "renounceOwnership()": {
        "details": "Leaves the contract without owner. It will not be possible to call `onlyOwner` functions anymore. Can only be called by the current owner. NOTE: Renouncing ownership will leave the contract without an owner, thereby removing any functionality that is only available to the owner."
      },
      "safeTransferFrom(address,address,uint256)": {
        "details": "See {IERC721-safeTransferFrom}."
      },
      "safeTransferFrom(address,address,uint256,bytes)": {
        "details": "See {IERC721-safeTransferFrom}."
      },
      "setApprovalForAll(address,bool)": {
        "details": "See {IERC721-setApprovalForAll}."
      },
      "supportsInterface(bytes4)": {
        "details": "See {IERC165-supportsInterface}."
      },
      "symbol()": {
        "details": "See {IERC721Metadata-symbol}."
      },
      "tokenURI(uint256)": {
        "details": "See {IERC721Metadata-tokenURI}."
      },
      "transferFrom(address,address,uint256)": {
        "details": "See {IERC721-transferFrom}."
      },
      "transferOwnership(address)": {
        "details": "Transfers ownership of the contract to a new account (`newOwner`). Can only be called by the current owner."
      }
    },
    "version": 1
  },
  "userdoc": {
    "kind": "user",
    "methods": {},
    "version": 1
  },
  "storageLayout": {
    "storage": [
      {
        "astId": 2722,
        "contract": "contracts/presets/MarketCollateralisedLinear.sol:MarketCollateralisedLinear",
        "label": "_owner",
        "offset": 0,
        "slot": "0",
        "type": "t_address"
      },
      {
        "astId": 5039,
        "contract": "contracts/presets/MarketCollateralisedLinear.sol:MarketCollateralisedLinear",
        "label": "_name",
        "offset": 0,
        "slot": "1",
        "type": "t_string_storage"
      },
      {
        "astId": 5041,
        "contract": "contracts/presets/MarketCollateralisedLinear.sol:MarketCollateralisedLinear",
        "label": "_symbol",
        "offset": 0,
        "slot": "2",
        "type": "t_string_storage"
      },
      {
        "astId": 5045,
        "contract": "contracts/presets/MarketCollateralisedLinear.sol:MarketCollateralisedLinear",
        "label": "_owners",
        "offset": 0,
        "slot": "3",
        "type": "t_mapping(t_uint256,t_address)"
      },
      {
        "astId": 5049,
        "contract": "contracts/presets/MarketCollateralisedLinear.sol:MarketCollateralisedLinear",
        "label": "_balances",
        "offset": 0,
        "slot": "4",
        "type": "t_mapping(t_address,t_uint256)"
      },
      {
        "astId": 5053,
        "contract": "contracts/presets/MarketCollateralisedLinear.sol:MarketCollateralisedLinear",
        "label": "_tokenApprovals",
        "offset": 0,
        "slot": "5",
        "type": "t_mapping(t_uint256,t_address)"
      },
      {
        "astId": 5059,
        "contract": "contracts/presets/MarketCollateralisedLinear.sol:MarketCollateralisedLinear",
        "label": "_operatorApprovals",
        "offset": 0,
        "slot": "6",
        "type": "t_mapping(t_address,t_mapping(t_address,t_bool))"
      },
      {
        "astId": 8488,
        "contract": "contracts/presets/MarketCollateralisedLinear.sol:MarketCollateralisedLinear",
        "label": "_inplayCount",
        "offset": 0,
        "slot": "7",
        "type": "t_uint256"
      },
      {
        "astId": 8492,
        "contract": "contracts/presets/MarketCollateralisedLinear.sol:MarketCollateralisedLinear",
        "label": "_bets",
        "offset": 0,
        "slot": "8",
        "type": "t_array(t_struct(Bet)8464_storage)dyn_storage"
      },
      {
        "astId": 8497,
        "contract": "contracts/presets/MarketCollateralisedLinear.sol:MarketCollateralisedLinear",
        "label": "_marketBets",
        "offset": 0,
        "slot": "9",
        "type": "t_mapping(t_bytes16,t_array(t_uint64)dyn_storage)"
      },
      {
        "astId": 8501,
        "contract": "contracts/presets/MarketCollateralisedLinear.sol:MarketCollateralisedLinear",
        "label": "_marketTotal",
        "offset": 0,
        "slot": "10",
        "type": "t_mapping(t_bytes16,t_uint256)"
      },
      {
        "astId": 8507,
        "contract": "contracts/presets/MarketCollateralisedLinear.sol:MarketCollateralisedLinear",
        "label": "_marketBetAmount",
        "offset": 0,
        "slot": "11",
        "type": "t_mapping(t_bytes16,t_mapping(t_uint16,t_uint256))"
      },
      {
        "astId": 8511,
        "contract": "contracts/presets/MarketCollateralisedLinear.sol:MarketCollateralisedLinear",
        "label": "_potentialPayout",
        "offset": 0,
        "slot": "12",
        "type": "t_mapping(t_bytes16,t_uint256)"
      },
      {
        "astId": 8513,
        "contract": "contracts/presets/MarketCollateralisedLinear.sol:MarketCollateralisedLinear",
        "label": "_totalInPlay",
        "offset": 0,
        "slot": "13",
        "type": "t_uint256"
      },
      {
        "astId": 8515,
        "contract": "contracts/presets/MarketCollateralisedLinear.sol:MarketCollateralisedLinear",
        "label": "_totalExposure",
        "offset": 0,
        "slot": "14",
        "type": "t_uint256"
      },
      {
        "astId": 8521,
        "contract": "contracts/presets/MarketCollateralisedLinear.sol:MarketCollateralisedLinear",
        "label": "_signers",
        "offset": 0,
        "slot": "15",
        "type": "t_mapping(t_address,t_bool)"
      },
      {
        "astId": 9627,
        "contract": "contracts/presets/MarketCollateralisedLinear.sol:MarketCollateralisedLinear",
        "label": "_marketCollateral",
        "offset": 0,
        "slot": "16",
        "type": "t_mapping(t_bytes16,t_uint256)"
      },
      {
        "astId": 9629,
        "contract": "contracts/presets/MarketCollateralisedLinear.sol:MarketCollateralisedLinear",
        "label": "_totalCollateral",
        "offset": 0,
        "slot": "17",
        "type": "t_uint256"
      },
      {
        "astId": 9633,
        "contract": "contracts/presets/MarketCollateralisedLinear.sol:MarketCollateralisedLinear",
        "label": "_mostExpensivePropositionId",
        "offset": 0,
        "slot": "18",
        "type": "t_mapping(t_bytes16,t_bytes16)"
      }
    ],
    "types": {
      "t_address": {
        "encoding": "inplace",
        "label": "address",
        "numberOfBytes": "20"
      },
      "t_array(t_struct(Bet)8464_storage)dyn_storage": {
        "base": "t_struct(Bet)8464_storage",
        "encoding": "dynamic_array",
        "label": "struct Bet[]",
        "numberOfBytes": "32"
      },
      "t_array(t_uint64)dyn_storage": {
        "base": "t_uint64",
        "encoding": "dynamic_array",
        "label": "uint64[]",
        "numberOfBytes": "32"
      },
      "t_bool": {
        "encoding": "inplace",
        "label": "bool",
        "numberOfBytes": "1"
      },
      "t_bytes16": {
        "encoding": "inplace",
        "label": "bytes16",
        "numberOfBytes": "16"
      },
      "t_mapping(t_address,t_bool)": {
        "encoding": "mapping",
        "key": "t_address",
        "label": "mapping(address => bool)",
        "numberOfBytes": "32",
        "value": "t_bool"
      },
      "t_mapping(t_address,t_mapping(t_address,t_bool))": {
        "encoding": "mapping",
        "key": "t_address",
        "label": "mapping(address => mapping(address => bool))",
        "numberOfBytes": "32",
        "value": "t_mapping(t_address,t_bool)"
      },
      "t_mapping(t_address,t_uint256)": {
        "encoding": "mapping",
        "key": "t_address",
        "label": "mapping(address => uint256)",
        "numberOfBytes": "32",
        "value": "t_uint256"
      },
      "t_mapping(t_bytes16,t_array(t_uint64)dyn_storage)": {
        "encoding": "mapping",
        "key": "t_bytes16",
        "label": "mapping(bytes16 => uint64[])",
        "numberOfBytes": "32",
        "value": "t_array(t_uint64)dyn_storage"
      },
      "t_mapping(t_bytes16,t_bytes16)": {
        "encoding": "mapping",
        "key": "t_bytes16",
        "label": "mapping(bytes16 => bytes16)",
        "numberOfBytes": "32",
        "value": "t_bytes16"
      },
      "t_mapping(t_bytes16,t_mapping(t_uint16,t_uint256))": {
        "encoding": "mapping",
        "key": "t_bytes16",
        "label": "mapping(bytes16 => mapping(uint16 => uint256))",
        "numberOfBytes": "32",
        "value": "t_mapping(t_uint16,t_uint256)"
      },
      "t_mapping(t_bytes16,t_uint256)": {
        "encoding": "mapping",
        "key": "t_bytes16",
        "label": "mapping(bytes16 => uint256)",
        "numberOfBytes": "32",
        "value": "t_uint256"
      },
      "t_mapping(t_uint16,t_uint256)": {
        "encoding": "mapping",
        "key": "t_uint16",
        "label": "mapping(uint16 => uint256)",
        "numberOfBytes": "32",
        "value": "t_uint256"
      },
      "t_mapping(t_uint256,t_address)": {
        "encoding": "mapping",
        "key": "t_uint256",
        "label": "mapping(uint256 => address)",
        "numberOfBytes": "32",
        "value": "t_address"
      },
      "t_string_storage": {
        "encoding": "bytes",
        "label": "string",
        "numberOfBytes": "32"
      },
      "t_struct(Bet)8464_storage": {
        "encoding": "inplace",
        "label": "struct Bet",
        "members": [
          {
            "astId": 8451,
            "contract": "contracts/presets/MarketCollateralisedLinear.sol:MarketCollateralisedLinear",
            "label": "propositionId",
            "offset": 0,
            "slot": "0",
            "type": "t_bytes16"
          },
          {
            "astId": 8453,
            "contract": "contracts/presets/MarketCollateralisedLinear.sol:MarketCollateralisedLinear",
            "label": "marketId",
            "offset": 16,
            "slot": "0",
            "type": "t_bytes16"
          },
          {
            "astId": 8455,
            "contract": "contracts/presets/MarketCollateralisedLinear.sol:MarketCollateralisedLinear",
            "label": "amount",
            "offset": 0,
            "slot": "1",
            "type": "t_uint256"
          },
          {
            "astId": 8457,
            "contract": "contracts/presets/MarketCollateralisedLinear.sol:MarketCollateralisedLinear",
            "label": "payout",
            "offset": 0,
            "slot": "2",
            "type": "t_uint256"
          },
          {
            "astId": 8459,
            "contract": "contracts/presets/MarketCollateralisedLinear.sol:MarketCollateralisedLinear",
            "label": "payoutDate",
            "offset": 0,
            "slot": "3",
            "type": "t_uint256"
          },
          {
            "astId": 8461,
            "contract": "contracts/presets/MarketCollateralisedLinear.sol:MarketCollateralisedLinear",
            "label": "created",
            "offset": 0,
            "slot": "4",
            "type": "t_uint256"
          },
          {
            "astId": 8463,
            "contract": "contracts/presets/MarketCollateralisedLinear.sol:MarketCollateralisedLinear",
            "label": "settled",
            "offset": 0,
            "slot": "5",
            "type": "t_bool"
          }
        ],
        "numberOfBytes": "192"
      },
      "t_uint16": {
        "encoding": "inplace",
        "label": "uint16",
        "numberOfBytes": "2"
      },
      "t_uint256": {
        "encoding": "inplace",
        "label": "uint256",
        "numberOfBytes": "32"
      },
      "t_uint64": {
        "encoding": "inplace",
        "label": "uint64",
        "numberOfBytes": "8"
      }
    }
  }
}