{
  "address": "0x7908C7202cEE13b90604267eB08C38Df886Ef41A",
  "abi": [
    {
      "inputs": [],
      "stateMutability": "nonpayable",
      "type": "constructor"
    },
    {
      "anonymous": false,
      "inputs": [
        {
          "indexed": true,
          "internalType": "bytes16",
          "name": "marketId",
          "type": "bytes16"
        },
        {
          "indexed": true,
          "internalType": "bytes16",
          "name": "propositionId",
          "type": "bytes16"
        }
      ],
      "name": "ResultSet",
      "type": "event"
    },
    {
      "anonymous": false,
      "inputs": [
        {
          "indexed": true,
          "internalType": "bytes16",
          "name": "marketId",
          "type": "bytes16"
        },
        {
          "indexed": true,
          "internalType": "bytes16",
          "name": "propositionId",
          "type": "bytes16"
        }
      ],
      "name": "ScratchedSet",
      "type": "event"
    },
    {
      "inputs": [],
      "name": "LOSER",
      "outputs": [
        {
          "internalType": "uint8",
          "name": "",
          "type": "uint8"
        }
      ],
      "stateMutability": "view",
      "type": "function"
    },
    {
      "inputs": [],
      "name": "SCRATCHED",
      "outputs": [
        {
          "internalType": "uint8",
          "name": "",
          "type": "uint8"
        }
      ],
      "stateMutability": "view",
      "type": "function"
    },
    {
      "inputs": [],
      "name": "WINNER",
      "outputs": [
        {
          "internalType": "uint8",
          "name": "",
          "type": "uint8"
        }
      ],
      "stateMutability": "view",
      "type": "function"
    },
    {
      "inputs": [
        {
          "internalType": "bytes16",
          "name": "marketId",
          "type": "bytes16"
        },
        {
          "internalType": "bytes16",
          "name": "propositionId",
          "type": "bytes16"
        }
      ],
      "name": "checkResult",
      "outputs": [
        {
          "internalType": "uint8",
          "name": "",
          "type": "uint8"
        }
      ],
      "stateMutability": "view",
      "type": "function"
    },
    {
      "inputs": [],
      "name": "getOwner",
      "outputs": [
        {
          "internalType": "address",
          "name": "",
          "type": "address"
        }
      ],
      "stateMutability": "view",
      "type": "function"
    },
    {
      "inputs": [
        {
          "internalType": "bytes16",
          "name": "marketId",
          "type": "bytes16"
        }
      ],
      "name": "getResult",
      "outputs": [
        {
          "components": [
            {
              "internalType": "bytes16",
              "name": "winningPropositionId",
              "type": "bytes16"
            },
            {
              "components": [
                {
                  "internalType": "bytes16",
                  "name": "scratchedPropositionId",
                  "type": "bytes16"
                },
                {
                  "internalType": "uint256",
                  "name": "timestamp",
                  "type": "uint256"
                },
                {
                  "internalType": "uint256",
                  "name": "odds",
                  "type": "uint256"
                },
                {
                  "internalType": "uint256",
                  "name": "totalOdds",
                  "type": "uint256"
                }
              ],
              "internalType": "struct IOracle.Scratched[]",
              "name": "scratched",
              "type": "tuple[]"
            }
          ],
          "internalType": "struct IOracle.Result",
          "name": "",
          "type": "tuple"
        }
      ],
      "stateMutability": "view",
      "type": "function"
    },
    {
      "inputs": [
        {
          "internalType": "bytes16",
          "name": "marketId",
          "type": "bytes16"
        },
        {
          "internalType": "bytes16",
          "name": "winningPropositionId",
          "type": "bytes16"
        },
        {
          "components": [
            {
              "internalType": "uint8",
              "name": "v",
              "type": "uint8"
            },
            {
              "internalType": "bytes32",
              "name": "r",
              "type": "bytes32"
            },
            {
              "internalType": "bytes32",
              "name": "s",
              "type": "bytes32"
            }
          ],
          "internalType": "struct SignatureLib.Signature",
          "name": "signature",
          "type": "tuple"
        }
      ],
      "name": "setResult",
      "outputs": [],
      "stateMutability": "nonpayable",
      "type": "function"
    },
    {
      "inputs": [
        {
          "internalType": "bytes16",
          "name": "marketId",
          "type": "bytes16"
        },
        {
          "internalType": "bytes16",
          "name": "scratchedPropositionId",
          "type": "bytes16"
        },
        {
          "internalType": "uint256",
          "name": "odds",
          "type": "uint256"
        },
        {
          "internalType": "uint256",
          "name": "totalOdds",
          "type": "uint256"
        },
        {
          "components": [
            {
              "internalType": "uint8",
              "name": "v",
              "type": "uint8"
            },
            {
              "internalType": "bytes32",
              "name": "r",
              "type": "bytes32"
            },
            {
              "internalType": "bytes32",
              "name": "s",
              "type": "bytes32"
            }
          ],
          "internalType": "struct SignatureLib.Signature",
          "name": "signature",
          "type": "tuple"
        }
      ],
      "name": "setScratchedResult",
      "outputs": [],
      "stateMutability": "nonpayable",
      "type": "function"
    }
  ],
  "transactionHash": "0x1256111359368acc4801c453f1fb649524bd688e7a12fd2270b236155fb6660e",
  "args": [],
  "numDeployments": 1,
  "solcInputHash": "292f6ba2dbabdd1f5b177ec6945557f2",
  "bytecode": "0x60a060405234801561001057600080fd5b5033608052608051610b666100366000396000818160e401526108410152610b666000f3fe608060405234801561001057600080fd5b50600436106100885760003560e01c8063b108501f1161005b578063b108501f14610123578063bc985bc91461012b578063c85f93fb14610133578063d1e90d621461014657600080fd5b806306c77ce71461008d5780634b51e70a146100b7578063893d20e8146100d75780639a56d9191461010e575b600080fd5b6100a061009b36600461089a565b61014e565b60405160ff90911681526020015b60405180910390f35b6100ca6100c53660046108cd565b61025b565b6040516100ae91906108ef565b6040516001600160a01b037f00000000000000000000000000000000000000000000000000000000000000001681526020016100ae565b61012161011c366004610996565b610356565b005b6100a0600181565b6100a0600381565b6101216101413660046109da565b6104fd565b6100a0600281565b60006001600160801b031982166101805760405162461bcd60e51b815260040161017790610a32565b60405180910390fd5b6001600160801b031983811660009081526020819052604090205481841660809190911b909116036101b457506001610255565b6001600160801b03198316600090815260208190526040812060010154905b8181101561024e576001600160801b031985811660009081526020819052604090206001018054918616918390811061020e5761020e610a78565b600091825260209091206004909102015460801b6001600160801b0319160361023c57600392505050610255565b8061024681610a8e565b9150506101d3565b5060029150505b92915050565b6040805180820190915260008152606060208201526001600160801b031982166102975760405162461bcd60e51b815260040161017790610a32565b6001600160801b031980831660009081526020818152604080832081518083018352815460801b909516855260018101805483518186028101860190945280845291948685019491929184015b82821015610348576000848152602090819020604080516080808201835260048702909301805490931b6001600160801b031916815260018084015482860152600284015492820192909252600390920154606083015290835290920191016102e4565b505050915250909392505050565b604080516001600160801b03198086166020830152841660308201526000910160405160208183030381529060405280519060200120905061039881836107aa565b6103e45760405162461bcd60e51b815260206004820152601c60248201527f736574526573756c743a20496e76616c6964207369676e6174757265000000006044820152606401610177565b6001600160801b0319831661043b5760405162461bcd60e51b815260206004820181905260248201527f736574526573756c743a20496e76616c69642070726f706f736974696f6e49646044820152606401610177565b6001600160801b031984811660009081526020819052604090205460801b16156104a75760405162461bcd60e51b815260206004820152601d60248201527f736574526573756c743a20526573756c7420616c7265616479207365740000006044820152606401610177565b6001600160801b031984811660008181526020819052604080822080548516608089901c17905551928616927f1a26e02557415617cb31ed9c9ac1bbe2c8f5e32b8f13ddc706d9ad0afb3c2b449190a350505050565b604080516001600160801b03198088166020830152861660308201529081018490526060810183905260009060800160405160208183030381529060405280519060200120905061054e81836107aa565b6105a85760405162461bcd60e51b815260206004820152602560248201527f736574536372617463686564526573756c743a20496e76616c6964207369676e604482015264617475726560d81b6064820152608401610177565b6001600160801b031985166106115760405162461bcd60e51b815260206004820152602960248201527f736574536372617463686564526573756c743a20496e76616c69642070726f706044820152681bdcda5d1a5bdb925960ba1b6064820152608401610177565b6001600160801b03198616600090815260208190526040812060010154905b818110156106f7576001600160801b031988811660009081526020819052604090206001018054918916918390811061066b5761066b610a78565b600091825260209091206004909102015460801b6001600160801b031916036106e55760405162461bcd60e51b815260206004820152602660248201527f736574536372617463686564526573756c743a20526573756c7420616c726561604482015265191e481cd95d60d21b6064820152608401610177565b806106ef81610a8e565b915050610630565b506001600160801b03198781166000818152602081815260408083208151608080820184528d8816808352428387019081528386018f8152606085018f8152600196870180548089018255908b52988a20955160049099029095018054909b169790931c969096178955945192880192909255905160028701555160039095019490945592517f7ebfaa5cc08727235b615a1e2ac630f84eea185e0687caccec932c2134922e129190a350505050505050565b60008073da270572f48a366bBDa85b095303c85eb88B1503635cff288d85856040518363ffffffff1660e01b81526004016107e6929190610ab5565b602060405180830381865af4158015610803573d6000803e3d6000fd5b505050506040513d601f19601f820116820180604052508101906108279190610af1565b90506001600160a01b03811661083f5761083f610b1a565b7f00000000000000000000000000000000000000000000000000000000000000006001600160a01b0316816001600160a01b03161491505092915050565b80356001600160801b03198116811461089557600080fd5b919050565b600080604083850312156108ad57600080fd5b6108b68361087d565b91506108c46020840161087d565b90509250929050565b6000602082840312156108df57600080fd5b6108e88261087d565b9392505050565b6000602080835260608084016fffffffffffffffffffffffffffffffff198087511684870152838701516040808189015283825180865260809550858a019150878401935060005b8181101561096e578451805187168452898101518a8501528481015185850152880151888401529388019391860191600101610937565b50909a9950505050505050505050565b60006060828403121561099057600080fd5b50919050565b600080600060a084860312156109ab57600080fd5b6109b48461087d565b92506109c26020850161087d565b91506109d1856040860161097e565b90509250925092565b600080600080600060e086880312156109f257600080fd5b6109fb8661087d565b9450610a096020870161087d565b93506040860135925060608601359150610a26876080880161097e565b90509295509295909350565b60208082526026908201527f67657442696e617279526573756c743a20496e76616c69642070726f706f73696040820152651d1a5bdb925960d21b606082015260800190565b634e487b7160e01b600052603260045260246000fd5b600060018201610aae57634e487b7160e01b600052601160045260246000fd5b5060010190565b82815260808101823560ff8116808214610ace57600080fd5b806020850152505060208301356040830152604083013560608301529392505050565b600060208284031215610b0357600080fd5b81516001600160a01b03811681146108e857600080fd5b634e487b7160e01b600052600160045260246000fdfea264697066735822122047a7c5b342a49b3274122ce3a6577df6a4b45b6ac5b35e886fc35e8032a0fde164736f6c634300080f0033",
  "deployedBytecode": "0x608060405234801561001057600080fd5b50600436106100885760003560e01c8063b108501f1161005b578063b108501f14610123578063bc985bc91461012b578063c85f93fb14610133578063d1e90d621461014657600080fd5b806306c77ce71461008d5780634b51e70a146100b7578063893d20e8146100d75780639a56d9191461010e575b600080fd5b6100a061009b36600461089a565b61014e565b60405160ff90911681526020015b60405180910390f35b6100ca6100c53660046108cd565b61025b565b6040516100ae91906108ef565b6040516001600160a01b037f00000000000000000000000000000000000000000000000000000000000000001681526020016100ae565b61012161011c366004610996565b610356565b005b6100a0600181565b6100a0600381565b6101216101413660046109da565b6104fd565b6100a0600281565b60006001600160801b031982166101805760405162461bcd60e51b815260040161017790610a32565b60405180910390fd5b6001600160801b031983811660009081526020819052604090205481841660809190911b909116036101b457506001610255565b6001600160801b03198316600090815260208190526040812060010154905b8181101561024e576001600160801b031985811660009081526020819052604090206001018054918616918390811061020e5761020e610a78565b600091825260209091206004909102015460801b6001600160801b0319160361023c57600392505050610255565b8061024681610a8e565b9150506101d3565b5060029150505b92915050565b6040805180820190915260008152606060208201526001600160801b031982166102975760405162461bcd60e51b815260040161017790610a32565b6001600160801b031980831660009081526020818152604080832081518083018352815460801b909516855260018101805483518186028101860190945280845291948685019491929184015b82821015610348576000848152602090819020604080516080808201835260048702909301805490931b6001600160801b031916815260018084015482860152600284015492820192909252600390920154606083015290835290920191016102e4565b505050915250909392505050565b604080516001600160801b03198086166020830152841660308201526000910160405160208183030381529060405280519060200120905061039881836107aa565b6103e45760405162461bcd60e51b815260206004820152601c60248201527f736574526573756c743a20496e76616c6964207369676e6174757265000000006044820152606401610177565b6001600160801b0319831661043b5760405162461bcd60e51b815260206004820181905260248201527f736574526573756c743a20496e76616c69642070726f706f736974696f6e49646044820152606401610177565b6001600160801b031984811660009081526020819052604090205460801b16156104a75760405162461bcd60e51b815260206004820152601d60248201527f736574526573756c743a20526573756c7420616c7265616479207365740000006044820152606401610177565b6001600160801b031984811660008181526020819052604080822080548516608089901c17905551928616927f1a26e02557415617cb31ed9c9ac1bbe2c8f5e32b8f13ddc706d9ad0afb3c2b449190a350505050565b604080516001600160801b03198088166020830152861660308201529081018490526060810183905260009060800160405160208183030381529060405280519060200120905061054e81836107aa565b6105a85760405162461bcd60e51b815260206004820152602560248201527f736574536372617463686564526573756c743a20496e76616c6964207369676e604482015264617475726560d81b6064820152608401610177565b6001600160801b031985166106115760405162461bcd60e51b815260206004820152602960248201527f736574536372617463686564526573756c743a20496e76616c69642070726f706044820152681bdcda5d1a5bdb925960ba1b6064820152608401610177565b6001600160801b03198616600090815260208190526040812060010154905b818110156106f7576001600160801b031988811660009081526020819052604090206001018054918916918390811061066b5761066b610a78565b600091825260209091206004909102015460801b6001600160801b031916036106e55760405162461bcd60e51b815260206004820152602660248201527f736574536372617463686564526573756c743a20526573756c7420616c726561604482015265191e481cd95d60d21b6064820152608401610177565b806106ef81610a8e565b915050610630565b506001600160801b03198781166000818152602081815260408083208151608080820184528d8816808352428387019081528386018f8152606085018f8152600196870180548089018255908b52988a20955160049099029095018054909b169790931c969096178955945192880192909255905160028701555160039095019490945592517f7ebfaa5cc08727235b615a1e2ac630f84eea185e0687caccec932c2134922e129190a350505050505050565b60008073__$47464c6f7588c8075b5d384b19d082a8ec$__635cff288d85856040518363ffffffff1660e01b81526004016107e6929190610ab5565b602060405180830381865af4158015610803573d6000803e3d6000fd5b505050506040513d601f19601f820116820180604052508101906108279190610af1565b90506001600160a01b03811661083f5761083f610b1a565b7f00000000000000000000000000000000000000000000000000000000000000006001600160a01b0316816001600160a01b03161491505092915050565b80356001600160801b03198116811461089557600080fd5b919050565b600080604083850312156108ad57600080fd5b6108b68361087d565b91506108c46020840161087d565b90509250929050565b6000602082840312156108df57600080fd5b6108e88261087d565b9392505050565b6000602080835260608084016fffffffffffffffffffffffffffffffff198087511684870152838701516040808189015283825180865260809550858a019150878401935060005b8181101561096e578451805187168452898101518a8501528481015185850152880151888401529388019391860191600101610937565b50909a9950505050505050505050565b60006060828403121561099057600080fd5b50919050565b600080600060a084860312156109ab57600080fd5b6109b48461087d565b92506109c26020850161087d565b91506109d1856040860161097e565b90509250925092565b600080600080600060e086880312156109f257600080fd5b6109fb8661087d565b9450610a096020870161087d565b93506040860135925060608601359150610a26876080880161097e565b90509295509295909350565b60208082526026908201527f67657442696e617279526573756c743a20496e76616c69642070726f706f73696040820152651d1a5bdb925960d21b606082015260800190565b634e487b7160e01b600052603260045260246000fd5b600060018201610aae57634e487b7160e01b600052601160045260246000fd5b5060010190565b82815260808101823560ff8116808214610ace57600080fd5b806020850152505060208301356040830152604083013560608301529392505050565b600060208284031215610b0357600080fd5b81516001600160a01b03811681146108e857600080fd5b634e487b7160e01b600052600160045260246000fdfea264697066735822122047a7c5b342a49b3274122ce3a6577df6a4b45b6ac5b35e886fc35e8032a0fde164736f6c634300080f0033",
  "libraries": {
    "SignatureLib": "0xda270572f48a366bBDa85b095303c85eb88B1503"
  },
  "devdoc": {
    "kind": "dev",
    "methods": {},
    "version": 1
  },
  "userdoc": {
    "kind": "user",
    "methods": {},
    "version": 1
  },
  "storageLayout": {
    "storage": [
      {
        "astId": 13028,
        "contract": "contracts/MarketOracle.sol:MarketOracle",
        "label": "_results",
        "offset": 0,
        "slot": "0",
        "type": "t_mapping(t_bytes16,t_struct(Result)11265_storage)"
      }
    ],
    "types": {
      "t_array(t_struct(Scratched)11258_storage)dyn_storage": {
        "base": "t_struct(Scratched)11258_storage",
        "encoding": "dynamic_array",
        "label": "struct IOracle.Scratched[]",
        "numberOfBytes": "32"
      },
      "t_bytes16": {
        "encoding": "inplace",
        "label": "bytes16",
        "numberOfBytes": "16"
      },
      "t_mapping(t_bytes16,t_struct(Result)11265_storage)": {
        "encoding": "mapping",
        "key": "t_bytes16",
        "label": "mapping(bytes16 => struct IOracle.Result)",
        "numberOfBytes": "32",
        "value": "t_struct(Result)11265_storage"
      },
      "t_struct(Result)11265_storage": {
        "encoding": "inplace",
        "label": "struct IOracle.Result",
        "members": [
          {
            "astId": 11260,
            "contract": "contracts/MarketOracle.sol:MarketOracle",
            "label": "winningPropositionId",
            "offset": 0,
            "slot": "0",
            "type": "t_bytes16"
          },
          {
            "astId": 11264,
            "contract": "contracts/MarketOracle.sol:MarketOracle",
            "label": "scratched",
            "offset": 0,
            "slot": "1",
            "type": "t_array(t_struct(Scratched)11258_storage)dyn_storage"
          }
        ],
        "numberOfBytes": "64"
      },
      "t_struct(Scratched)11258_storage": {
        "encoding": "inplace",
        "label": "struct IOracle.Scratched",
        "members": [
          {
            "astId": 11251,
            "contract": "contracts/MarketOracle.sol:MarketOracle",
            "label": "scratchedPropositionId",
            "offset": 0,
            "slot": "0",
            "type": "t_bytes16"
          },
          {
            "astId": 11253,
            "contract": "contracts/MarketOracle.sol:MarketOracle",
            "label": "timestamp",
            "offset": 0,
            "slot": "1",
            "type": "t_uint256"
          },
          {
            "astId": 11255,
            "contract": "contracts/MarketOracle.sol:MarketOracle",
            "label": "odds",
            "offset": 0,
            "slot": "2",
            "type": "t_uint256"
          },
          {
            "astId": 11257,
            "contract": "contracts/MarketOracle.sol:MarketOracle",
            "label": "totalOdds",
            "offset": 0,
            "slot": "3",
            "type": "t_uint256"
          }
        ],
        "numberOfBytes": "128"
      },
      "t_uint256": {
        "encoding": "inplace",
        "label": "uint256",
        "numberOfBytes": "32"
      }
    }
  }
}