{
  "address": "0x2fc6Ae36691A9cd57B3dB9F22883efCd68Eda6E9",
  "abi": [
    {
      "inputs": [],
      "name": "PRECISION",
      "outputs": [
        {
          "internalType": "uint256",
          "name": "",
          "type": "uint256"
        }
      ],
      "stateMutability": "view",
      "type": "function"
    },
    {
      "inputs": [
        {
          "internalType": "uint256",
          "name": "wager",
          "type": "uint256"
        },
        {
          "internalType": "uint256",
          "name": "odds",
          "type": "uint256"
        },
        {
          "internalType": "uint256",
          "name": "liquidity",
          "type": "uint256"
        }
      ],
      "name": "getCurvedAdjustedOdds",
      "outputs": [
        {
          "internalType": "uint256",
          "name": "",
          "type": "uint256"
        }
      ],
      "stateMutability": "pure",
      "type": "function"
    },
    {
      "inputs": [
        {
          "internalType": "uint256",
          "name": "wager",
          "type": "uint256"
        },
        {
          "internalType": "uint256",
          "name": "odds",
          "type": "uint256"
        },
        {
          "internalType": "uint256",
          "name": "liquidity",
          "type": "uint256"
        }
      ],
      "name": "getLinearAdjustedOdds",
      "outputs": [
        {
          "internalType": "uint256",
          "name": "",
          "type": "uint256"
        }
      ],
      "stateMutability": "pure",
      "type": "function"
    }
  ],
  "transactionHash": "0xe34b4b935998b35d90da23db060fe97622588167ad1248235c854681da0f8986",
  "args": [],
  "numDeployments": 1,
  "solcInputHash": "f0d1e3127cf87b77ede243c3423713ff",
  "bytecode": "0x6108fc610053600b82828239805160001a607314610046577f4e487b7100000000000000000000000000000000000000000000000000000000600052600060045260246000fd5b30600052607381538281f3fe730000000000000000000000000000000000000000301460806040526004361061004b5760003560e01c80639c90641f14610050578063a19dec4314610080578063aaf5eb68146100b0575b600080fd5b61006a60048036038101906100659190610678565b6100ce565b60405161007791906106da565b60405180910390f35b61009a60048036038101906100959190610678565b6101cd565b6040516100a791906106da565b60405180910390f35b6100b861027a565b6040516100c591906106da565b60405180910390f35b6000620f424060016100e09190610724565b8310156100f0576100ef61077e565b5b60006103e890506000620f424085876101099190610724565b61011391906107dc565b90506000610161620f4240600161012a9190610724565b86620f42408561013a9190610724565b60026101469190610724565b61015091906107dc565b61015a919061080d565b6001610281565b838661016d9190610724565b61017791906107dc565b8786610183919061080d565b61018d9190610863565b90506101c1620f424060016101a29190610724565b88620f4240846101b29190610724565b6101bc91906107dc565b6102e0565b93505050509392505050565b6000620f424060016101df9190610724565b8310156101ef576101ee61077e565b5b6000620f424085856102019190610724565b61020b91906107dc565b9050600061022785838887610220919061080d565b60006102f9565b90508481111561024a57620f424060016102419190610724565b92505050610273565b61026e620f4240600161025d9190610724565b82876102699190610863565b6102e0565b925050505b9392505050565b620f424081565b60008061028d8461036f565b9050600160028111156102a3576102a2610897565b5b8360028111156102b6576102b5610897565b5b1480156102c4575083818202105b6102cf5760006102d2565b60015b60ff16810191505092915050565b60008183116102ef57816102f1565b825b905092915050565b600080610307868686610468565b90506001600281111561031d5761031c610897565b5b8360028111156103305761032f610897565b5b14801561034e575060008480610349576103486107ad565b5b868809115b1561036357600181610360919061080d565b90505b80915050949350505050565b60008082036103815760009050610463565b6000600161038e84610543565b901c6001901b905060018184816103a8576103a76107ad565b5b048201901c905060018184816103c1576103c06107ad565b5b048201901c905060018184816103da576103d96107ad565b5b048201901c905060018184816103f3576103f26107ad565b5b048201901c9050600181848161040c5761040b6107ad565b5b048201901c90506001818481610425576104246107ad565b5b048201901c9050600181848161043e5761043d6107ad565b5b048201901c905061045f81828581610459576104586107ad565b5b04610624565b9150505b919050565b60008060008019858709858702925082811083820303915050600081036104a357838281610499576104986107ad565b5b049250505061053c565b8084116104af57600080fd5b60008486880990508281118203915080830392506000600186190186169050808604955080840493506001818260000304019050808302841793506000600287600302189050808702600203810290508087026002038102905080870260020381029050808702600203810290508087026002038102905080870260020381029050808502955050505050505b9392505050565b600080600090506000608084901c111561056557608083901c92506080810190505b6000604084901c111561058057604083901c92506040810190505b6000602084901c111561059b57602083901c92506020810190505b6000601084901c11156105b657601083901c92506010810190505b6000600884901c11156105d157600883901c92506008810190505b6000600484901c11156105ec57600483901c92506004810190505b6000600284901c111561060757600283901c92506002810190505b6000600184901c111561061b576001810190505b80915050919050565b60008183106106335781610635565b825b905092915050565b600080fd5b6000819050919050565b61065581610642565b811461066057600080fd5b50565b6000813590506106728161064c565b92915050565b6000806000606084860312156106915761069061063d565b5b600061069f86828701610663565b93505060206106b086828701610663565b92505060406106c186828701610663565b9150509250925092565b6106d481610642565b82525050565b60006020820190506106ef60008301846106cb565b92915050565b7f4e487b7100000000000000000000000000000000000000000000000000000000600052601160045260246000fd5b600061072f82610642565b915061073a83610642565b9250817fffffffffffffffffffffffffffffffffffffffffffffffffffffffffffffffff0483118215151615610773576107726106f5565b5b828202905092915050565b7f4e487b7100000000000000000000000000000000000000000000000000000000600052600160045260246000fd5b7f4e487b7100000000000000000000000000000000000000000000000000000000600052601260045260246000fd5b60006107e782610642565b91506107f283610642565b925082610802576108016107ad565b5b828204905092915050565b600061081882610642565b915061082383610642565b9250827fffffffffffffffffffffffffffffffffffffffffffffffffffffffffffffffff03821115610858576108576106f5565b5b828201905092915050565b600061086e82610642565b915061087983610642565b92508282101561088c5761088b6106f5565b5b828203905092915050565b7f4e487b7100000000000000000000000000000000000000000000000000000000600052602160045260246000fdfea2646970667358221220cd566cc5481519b5e14c493bf79ebd1a5f5a74f0f2c14eea3323b03f9745e9ff64736f6c634300080f0033",
  "devdoc": {
    "kind": "dev",
    "methods": {},
    "version": 1
  },
  "userdoc": {
    "kind": "user",
    "methods": {},
    "version": 1
  },
  "storageLayout": {
    "storage": [],
    "types": null
  }
}