{
  "address": "0xbE1F392430C3DEc4ef2f1f3De65881f69644284B",
  "abi": [
    {
      "inputs": [
        {
          "internalType": "contract IERC20Metadata",
          "name": "token",
          "type": "address"
        }
      ],
      "stateMutability": "nonpayable",
      "type": "constructor"
    },
    {
      "anonymous": false,
      "inputs": [
        {
          "indexed": true,
          "internalType": "address",
          "name": "market",
          "type": "address"
        }
      ],
      "name": "MarketAdded",
      "type": "event"
    },
    {
      "anonymous": false,
      "inputs": [
        {
          "indexed": false,
          "internalType": "uint256",
          "name": "threshold",
          "type": "uint256"
        }
      ],
      "name": "ThresholdUpdated",
      "type": "event"
    },
    {
      "anonymous": false,
      "inputs": [
        {
          "indexed": true,
          "internalType": "address",
          "name": "vault",
          "type": "address"
        }
      ],
      "name": "VaultAdded",
      "type": "event"
    },
    {
      "inputs": [
        {
          "internalType": "address",
          "name": "market",
          "type": "address"
        }
      ],
      "name": "addMarket",
      "outputs": [],
      "stateMutability": "nonpayable",
      "type": "function"
    },
    {
      "inputs": [
        {
          "internalType": "address",
          "name": "vault",
          "type": "address"
        }
      ],
      "name": "addVault",
      "outputs": [],
      "stateMutability": "nonpayable",
      "type": "function"
    },
    {
      "inputs": [],
      "name": "marketCount",
      "outputs": [
        {
          "internalType": "uint256",
          "name": "",
          "type": "uint256"
        }
      ],
      "stateMutability": "view",
      "type": "function"
    },
    {
      "inputs": [
        {
          "internalType": "uint256",
          "name": "",
          "type": "uint256"
        }
      ],
      "name": "markets",
      "outputs": [
        {
          "internalType": "address",
          "name": "",
          "type": "address"
        }
      ],
      "stateMutability": "view",
      "type": "function"
    },
    {
      "inputs": [
        {
          "internalType": "uint256",
          "name": "threshold",
          "type": "uint256"
        }
      ],
      "name": "setThreshold",
      "outputs": [],
      "stateMutability": "nonpayable",
      "type": "function"
    },
    {
      "inputs": [],
      "name": "vaultCount",
      "outputs": [
        {
          "internalType": "uint256",
          "name": "",
          "type": "uint256"
        }
      ],
      "stateMutability": "view",
      "type": "function"
    },
    {
      "inputs": [
        {
          "internalType": "uint256",
          "name": "",
          "type": "uint256"
        }
      ],
      "name": "vaults",
      "outputs": [
        {
          "internalType": "address",
          "name": "",
          "type": "address"
        }
      ],
      "stateMutability": "view",
      "type": "function"
    }
  ],
  "transactionHash": "0xc4524bca1dea7b91a3ec459228f6859f942dd910c79356c1d619150862d90044",
  "args": [
    "0xF9f351063562A41A98075D406b5f8665F1A73a23"
  ],
  "numDeployments": 2,
  "solcInputHash": "271361eb13ce4f1fafa2d842780ccd55",
  "bytecode": "0x60c06040523480156200001157600080fd5b5060405162000fed38038062000fed833981810160405281019062000037919062000124565b3373ffffffffffffffffffffffffffffffffffffffff1660808173ffffffffffffffffffffffffffffffffffffffff16815250508073ffffffffffffffffffffffffffffffffffffffff1660a08173ffffffffffffffffffffffffffffffffffffffff16815250505062000156565b600080fd5b600073ffffffffffffffffffffffffffffffffffffffff82169050919050565b6000620000d882620000ab565b9050919050565b6000620000ec82620000cb565b9050919050565b620000fe81620000df565b81146200010a57600080fd5b50565b6000815190506200011e81620000f3565b92915050565b6000602082840312156200013d576200013c620000a6565b5b60006200014d848285016200010d565b91505092915050565b60805160a051610e6a6200018360003960008181610177015261053b0152600061080b0152610e6a6000f3fe608060405234801561001057600080fd5b506004361061007d5760003560e01c8063960bfe041161005b578063960bfe04146100ea578063a7c6a10014610106578063b1283e7714610124578063ec979082146101545761007d565b8063256b5a02146100825780638c64ea4a1461009e57806393e30633146100ce575b600080fd5b61009c600480360381019061009791906109d8565b610172565b005b6100b860048036038101906100b39190610a3b565b6104f7565b6040516100c59190610a77565b60405180910390f35b6100e860048036038101906100e391906109d8565b610536565b005b61010460048036038101906100ff9190610a3b565b610809565b005b61010e61091d565b60405161011b9190610aa1565b60405180910390f35b61013e60048036038101906101399190610a3b565b61092a565b60405161014b9190610a77565b60405180910390f35b61015c610969565b6040516101699190610aa1565b60405180910390f35b6004547f000000000000000000000000000000000000000000000000000000000000000073ffffffffffffffffffffffffffffffffffffffff166370a08231336040518263ffffffff1660e01b81526004016101ce9190610a77565b602060405180830381865afa1580156101eb573d6000803e3d6000fd5b505050506040513d601f19601f8201168201806040525081019061020f9190610ad1565b1015610250576040517f08c379a000000000000000000000000000000000000000000000000000000000815260040161024790610b81565b60405180910390fd5b600073ffffffffffffffffffffffffffffffffffffffff168173ffffffffffffffffffffffffffffffffffffffff16141561028e5761028d610ba1565b5b60008173ffffffffffffffffffffffffffffffffffffffff166338d52e0f6040518163ffffffff1660e01b8152600401602060405180830381865afa1580156102db573d6000803e3d6000fd5b505050506040513d601f19601f820116820180604052508101906102ff9190610be5565b9050600073ffffffffffffffffffffffffffffffffffffffff16600260008373ffffffffffffffffffffffffffffffffffffffff1673ffffffffffffffffffffffffffffffffffffffff16815260200190815260200160002060009054906101000a900473ffffffffffffffffffffffffffffffffffffffff1673ffffffffffffffffffffffffffffffffffffffff16146103cf576040517f08c379a00000000000000000000000000000000000000000000000000000000081526004016103c690610c84565b60405180910390fd5b6001829080600181540180825580915050600190039060005260206000200160009091909190916101000a81548173ffffffffffffffffffffffffffffffffffffffff021916908373ffffffffffffffffffffffffffffffffffffffff16021790555081600260008373ffffffffffffffffffffffffffffffffffffffff1673ffffffffffffffffffffffffffffffffffffffff16815260200190815260200160002060006101000a81548173ffffffffffffffffffffffffffffffffffffffff021916908373ffffffffffffffffffffffffffffffffffffffff1602179055508173ffffffffffffffffffffffffffffffffffffffff167f7b7ef7a864d96a85497a1ed846adb39940dd6ccef678ff6ac8d55505e09b8cc460405160405180910390a25050565b6001818154811061050757600080fd5b906000526020600020016000915054906101000a900473ffffffffffffffffffffffffffffffffffffffff1681565b6004547f000000000000000000000000000000000000000000000000000000000000000073ffffffffffffffffffffffffffffffffffffffff166370a08231336040518263ffffffff1660e01b81526004016105929190610a77565b602060405180830381865afa1580156105af573d6000803e3d6000fd5b505050506040513d601f19601f820116820180604052508101906105d39190610ad1565b1015610614576040517f08c379a000000000000000000000000000000000000000000000000000000000815260040161060b90610b81565b60405180910390fd5b600073ffffffffffffffffffffffffffffffffffffffff16600360008373ffffffffffffffffffffffffffffffffffffffff1673ffffffffffffffffffffffffffffffffffffffff16815260200190815260200160002060009054906101000a900473ffffffffffffffffffffffffffffffffffffffff1673ffffffffffffffffffffffffffffffffffffffff16146106e2576040517f08c379a00000000000000000000000000000000000000000000000000000000081526004016106d990610cf0565b60405180910390fd5b80600360008373ffffffffffffffffffffffffffffffffffffffff1673ffffffffffffffffffffffffffffffffffffffff16815260200190815260200160002060006101000a81548173ffffffffffffffffffffffffffffffffffffffff021916908373ffffffffffffffffffffffffffffffffffffffff1602179055506000819080600181540180825580915050600190039060005260206000200160009091909190916101000a81548173ffffffffffffffffffffffffffffffffffffffff021916908373ffffffffffffffffffffffffffffffffffffffff1602179055508073ffffffffffffffffffffffffffffffffffffffff167fbc600b1f03d316c479b49930c28e328809316458d5b5dacbb7419df5f6f8964760405160405180910390a250565b7f000000000000000000000000000000000000000000000000000000000000000073ffffffffffffffffffffffffffffffffffffffff163373ffffffffffffffffffffffffffffffffffffffff1614610897576040517f08c379a000000000000000000000000000000000000000000000000000000000815260040161088e90610d82565b60405180910390fd5b6004548114156108dc576040517f08c379a00000000000000000000000000000000000000000000000000000000081526004016108d390610e14565b60405180910390fd5b806004819055507fadfa8ecb21b6962ebcd0adbd9ab985b7b4c5b5eb3b0dead683171565c7bfe171816040516109129190610aa1565b60405180910390a150565b6000600180549050905090565b6000818154811061093a57600080fd5b906000526020600020016000915054906101000a900473ffffffffffffffffffffffffffffffffffffffff1681565b60008080549050905090565b600080fd5b600073ffffffffffffffffffffffffffffffffffffffff82169050919050565b60006109a58261097a565b9050919050565b6109b58161099a565b81146109c057600080fd5b50565b6000813590506109d2816109ac565b92915050565b6000602082840312156109ee576109ed610975565b5b60006109fc848285016109c3565b91505092915050565b6000819050919050565b610a1881610a05565b8114610a2357600080fd5b50565b600081359050610a3581610a0f565b92915050565b600060208284031215610a5157610a50610975565b5b6000610a5f84828501610a26565b91505092915050565b610a718161099a565b82525050565b6000602082019050610a8c6000830184610a68565b92915050565b610a9b81610a05565b82525050565b6000602082019050610ab66000830184610a92565b92915050565b600081519050610acb81610a0f565b92915050565b600060208284031215610ae757610ae6610975565b5b6000610af584828501610abc565b91505092915050565b600082825260208201905092915050565b7f6f6e6c79546f6b656e486f6c646572733a2043616c6c657220646f6573206e6f60008201527f7420686f6c6420656e6f75676820746f6b656e73000000000000000000000000602082015250565b6000610b6b603483610afe565b9150610b7682610b0f565b604082019050919050565b60006020820190508181036000830152610b9a81610b5e565b9050919050565b7f4e487b7100000000000000000000000000000000000000000000000000000000600052600160045260246000fd5b600081519050610bdf816109ac565b92915050565b600060208284031215610bfb57610bfa610975565b5b6000610c0984828501610bd0565b91505092915050565b7f6164645661756c743a205661756c74207769746820746869732061737365742060008201527f746f6b656e20616c726561647920616464656400000000000000000000000000602082015250565b6000610c6e603383610afe565b9150610c7982610c12565b604082019050919050565b60006020820190508181036000830152610c9d81610c61565b9050919050565b7f6164644d61726b65743a204d61726b657420616c726561647920616464656400600082015250565b6000610cda601f83610afe565b9150610ce582610ca4565b602082019050919050565b60006020820190508181036000830152610d0981610ccd565b9050919050565b7f6f6e6c794f776e65723a2043616c6c6572206973206e6f742074686520636f6e60008201527f7472616374206f776e6572000000000000000000000000000000000000000000602082015250565b6000610d6c602b83610afe565b9150610d7782610d10565b604082019050919050565b60006020820190508181036000830152610d9b81610d5f565b9050919050565b7f7365745468726573686f6c643a205468726573686f6c6420616c72656164792060008201527f7365740000000000000000000000000000000000000000000000000000000000602082015250565b6000610dfe602383610afe565b9150610e0982610da2565b604082019050919050565b60006020820190508181036000830152610e2d81610df1565b905091905056fea26469706673582212206f47e6d1e812a0019c928f4a3504e5debe7e6b966d098dfd3f9e0ce82a89a51464736f6c634300080a0033",
  "devdoc": {
    "kind": "dev",
    "methods": {},
    "version": 1
  },
  "userdoc": {
    "kind": "user",
    "methods": {},
    "version": 1
  },
  "storageLayout": {
    "storage": [
      {
        "astId": 9848,
        "contract": "contracts/Registry.sol:Registry",
        "label": "markets",
        "offset": 0,
        "slot": "0",
        "type": "t_array(t_address)dyn_storage"
      },
      {
        "astId": 9851,
        "contract": "contracts/Registry.sol:Registry",
        "label": "vaults",
        "offset": 0,
        "slot": "1",
        "type": "t_array(t_address)dyn_storage"
      },
      {
        "astId": 9855,
        "contract": "contracts/Registry.sol:Registry",
        "label": "_vaultByAsset",
        "offset": 0,
        "slot": "2",
        "type": "t_mapping(t_address,t_address)"
      },
      {
        "astId": 9859,
        "contract": "contracts/Registry.sol:Registry",
        "label": "_markets",
        "offset": 0,
        "slot": "3",
        "type": "t_mapping(t_address,t_address)"
      },
      {
        "astId": 9866,
        "contract": "contracts/Registry.sol:Registry",
        "label": "_threshold",
        "offset": 0,
        "slot": "4",
        "type": "t_uint256"
      }
    ],
    "types": {
      "t_address": {
        "encoding": "inplace",
        "label": "address",
        "numberOfBytes": "20"
      },
      "t_array(t_address)dyn_storage": {
        "base": "t_address",
        "encoding": "dynamic_array",
        "label": "address[]",
        "numberOfBytes": "32"
      },
      "t_mapping(t_address,t_address)": {
        "encoding": "mapping",
        "key": "t_address",
        "label": "mapping(address => address)",
        "numberOfBytes": "32",
        "value": "t_address"
      },
      "t_uint256": {
        "encoding": "inplace",
        "label": "uint256",
        "numberOfBytes": "32"
      }
    }
  }
}