{
  "address": "0x95f3934e2aB2Ebd70dB09B1De7f694AD1D49962A",
  "abi": [
    {
      "inputs": [
        {
          "internalType": "contract IVault",
          "name": "vault",
          "type": "address"
        },
        {
          "internalType": "uint8",
          "name": "margin",
          "type": "uint8"
        },
        {
          "internalType": "address",
          "name": "oracle",
          "type": "address"
        }
      ],
      "stateMutability": "nonpayable",
      "type": "constructor"
    },
    {
      "anonymous": false,
      "inputs": [
        {
          "indexed": true,
          "internalType": "address",
          "name": "owner",
          "type": "address"
        },
        {
          "indexed": true,
          "internalType": "address",
          "name": "approved",
          "type": "address"
        },
        {
          "indexed": true,
          "internalType": "uint256",
          "name": "tokenId",
          "type": "uint256"
        }
      ],
      "name": "Approval",
      "type": "event"
    },
    {
      "anonymous": false,
      "inputs": [
        {
          "indexed": true,
          "internalType": "address",
          "name": "owner",
          "type": "address"
        },
        {
          "indexed": true,
          "internalType": "address",
          "name": "operator",
          "type": "address"
        },
        {
          "indexed": false,
          "internalType": "bool",
          "name": "approved",
          "type": "bool"
        }
      ],
      "name": "ApprovalForAll",
      "type": "event"
    },
    {
      "anonymous": false,
      "inputs": [
        {
          "indexed": true,
          "internalType": "address",
          "name": "previousOwner",
          "type": "address"
        },
        {
          "indexed": true,
          "internalType": "address",
          "name": "newOwner",
          "type": "address"
        }
      ],
      "name": "OwnershipTransferred",
      "type": "event"
    },
    {
      "anonymous": false,
      "inputs": [
        {
          "indexed": false,
          "internalType": "uint256",
          "name": "index",
          "type": "uint256"
        },
        {
          "indexed": false,
          "internalType": "bytes16",
          "name": "propositionId",
          "type": "bytes16"
        },
        {
          "indexed": false,
          "internalType": "bytes16",
          "name": "marketId",
          "type": "bytes16"
        },
        {
          "indexed": false,
          "internalType": "uint256",
          "name": "amount",
          "type": "uint256"
        },
        {
          "indexed": false,
          "internalType": "uint256",
          "name": "payout",
          "type": "uint256"
        },
        {
          "indexed": true,
          "internalType": "address",
          "name": "owner",
          "type": "address"
        }
      ],
      "name": "Placed",
      "type": "event"
    },
    {
      "anonymous": false,
      "inputs": [
        {
          "indexed": false,
          "internalType": "uint256",
          "name": "index",
          "type": "uint256"
        },
        {
          "indexed": false,
          "internalType": "uint256",
          "name": "payout",
          "type": "uint256"
        },
        {
          "indexed": false,
          "internalType": "bool",
          "name": "result",
          "type": "bool"
        },
        {
          "indexed": true,
          "internalType": "address",
          "name": "recipient",
          "type": "address"
        }
      ],
      "name": "Settled",
      "type": "event"
    },
    {
      "anonymous": false,
      "inputs": [
        {
          "indexed": true,
          "internalType": "address",
          "name": "from",
          "type": "address"
        },
        {
          "indexed": true,
          "internalType": "address",
          "name": "to",
          "type": "address"
        },
        {
          "indexed": true,
          "internalType": "uint256",
          "name": "tokenId",
          "type": "uint256"
        }
      ],
      "name": "Transfer",
      "type": "event"
    },
    {
      "inputs": [
        {
          "internalType": "address",
          "name": "to",
          "type": "address"
        },
        {
          "internalType": "uint256",
          "name": "tokenId",
          "type": "uint256"
        }
      ],
      "name": "approve",
      "outputs": [],
      "stateMutability": "nonpayable",
      "type": "function"
    },
    {
      "inputs": [
        {
          "internalType": "bytes16",
          "name": "nonce",
          "type": "bytes16"
        },
        {
          "internalType": "bytes16",
          "name": "propositionId",
          "type": "bytes16"
        },
        {
          "internalType": "bytes16",
          "name": "marketId",
          "type": "bytes16"
        },
        {
          "internalType": "uint256",
          "name": "wager",
          "type": "uint256"
        },
        {
          "internalType": "uint256",
          "name": "odds",
          "type": "uint256"
        },
        {
          "internalType": "uint256",
          "name": "close",
          "type": "uint256"
        },
        {
          "internalType": "uint256",
          "name": "end",
          "type": "uint256"
        },
        {
          "components": [
            {
              "internalType": "uint8",
              "name": "v",
              "type": "uint8"
            },
            {
              "internalType": "bytes32",
              "name": "r",
              "type": "bytes32"
            },
            {
              "internalType": "bytes32",
              "name": "s",
              "type": "bytes32"
            }
          ],
          "internalType": "struct SignatureLib.Signature",
          "name": "signature",
          "type": "tuple"
        }
      ],
      "name": "back",
      "outputs": [
        {
          "internalType": "uint256",
          "name": "",
          "type": "uint256"
        }
      ],
      "stateMutability": "nonpayable",
      "type": "function"
    },
    {
      "inputs": [
        {
          "internalType": "address",
          "name": "owner",
          "type": "address"
        }
      ],
      "name": "balanceOf",
      "outputs": [
        {
          "internalType": "uint256",
          "name": "",
          "type": "uint256"
        }
      ],
      "stateMutability": "view",
      "type": "function"
    },
    {
      "inputs": [
        {
          "internalType": "uint256",
          "name": "tokenId",
          "type": "uint256"
        }
      ],
      "name": "getApproved",
      "outputs": [
        {
          "internalType": "address",
          "name": "",
          "type": "address"
        }
      ],
      "stateMutability": "view",
      "type": "function"
    },
    {
      "inputs": [
        {
          "internalType": "uint64",
          "name": "index",
          "type": "uint64"
        }
      ],
      "name": "getBetByIndex",
      "outputs": [
        {
          "internalType": "uint256",
          "name": "",
          "type": "uint256"
        },
        {
          "internalType": "uint256",
          "name": "",
          "type": "uint256"
        },
        {
          "internalType": "uint256",
          "name": "",
          "type": "uint256"
        },
        {
          "internalType": "bool",
          "name": "",
          "type": "bool"
        },
        {
          "internalType": "address",
          "name": "",
          "type": "address"
        },
        {
          "internalType": "bytes16",
          "name": "",
          "type": "bytes16"
        },
        {
          "internalType": "bytes16",
          "name": "",
          "type": "bytes16"
        }
      ],
      "stateMutability": "view",
      "type": "function"
    },
    {
      "inputs": [],
      "name": "getCount",
      "outputs": [
        {
          "internalType": "uint64",
          "name": "",
          "type": "uint64"
        }
      ],
      "stateMutability": "view",
      "type": "function"
    },
    {
      "inputs": [
        {
          "internalType": "uint64",
          "name": "index",
          "type": "uint64"
        }
      ],
      "name": "getExpiry",
      "outputs": [
        {
          "internalType": "uint256",
          "name": "",
          "type": "uint256"
        }
      ],
      "stateMutability": "view",
      "type": "function"
    },
    {
      "inputs": [],
      "name": "getInPlayCount",
      "outputs": [
        {
          "internalType": "uint256",
          "name": "",
          "type": "uint256"
        }
      ],
      "stateMutability": "view",
      "type": "function"
    },
    {
      "inputs": [],
      "name": "getMargin",
      "outputs": [
        {
          "internalType": "uint8",
          "name": "",
          "type": "uint8"
        }
      ],
      "stateMutability": "view",
      "type": "function"
    },
    {
      "inputs": [
        {
          "internalType": "bytes16",
          "name": "marketId",
          "type": "bytes16"
        }
      ],
      "name": "getMarketTotal",
      "outputs": [
        {
          "internalType": "uint256",
          "name": "",
          "type": "uint256"
        }
      ],
      "stateMutability": "view",
      "type": "function"
    },
    {
      "inputs": [
        {
          "internalType": "uint256",
          "name": "wager",
          "type": "uint256"
        },
        {
          "internalType": "uint256",
          "name": "odds",
          "type": "uint256"
        },
        {
          "internalType": "bytes16",
          "name": "propositionId",
          "type": "bytes16"
        },
        {
          "internalType": "bytes16",
          "name": "marketId",
          "type": "bytes16"
        }
      ],
      "name": "getOdds",
      "outputs": [
        {
          "internalType": "uint256",
          "name": "",
          "type": "uint256"
        }
      ],
      "stateMutability": "view",
      "type": "function"
    },
    {
      "inputs": [],
      "name": "getOracleAddress",
      "outputs": [
        {
          "internalType": "address",
          "name": "",
          "type": "address"
        }
      ],
      "stateMutability": "view",
      "type": "function"
    },
    {
      "inputs": [
        {
          "internalType": "bytes16",
          "name": "propositionId",
          "type": "bytes16"
        },
        {
          "internalType": "bytes16",
          "name": "marketId",
          "type": "bytes16"
        },
        {
          "internalType": "uint256",
          "name": "wager",
          "type": "uint256"
        },
        {
          "internalType": "uint256",
          "name": "odds",
          "type": "uint256"
        }
      ],
      "name": "getPotentialPayout",
      "outputs": [
        {
          "internalType": "uint256",
          "name": "",
          "type": "uint256"
        }
      ],
      "stateMutability": "view",
      "type": "function"
    },
    {
      "inputs": [],
      "name": "getTotalExposure",
      "outputs": [
        {
          "internalType": "uint256",
          "name": "",
          "type": "uint256"
        }
      ],
      "stateMutability": "view",
      "type": "function"
    },
    {
      "inputs": [],
      "name": "getTotalInPlay",
      "outputs": [
        {
          "internalType": "uint256",
          "name": "",
          "type": "uint256"
        }
      ],
      "stateMutability": "view",
      "type": "function"
    },
    {
      "inputs": [],
      "name": "getVaultAddress",
      "outputs": [
        {
          "internalType": "address",
          "name": "",
          "type": "address"
        }
      ],
      "stateMutability": "view",
      "type": "function"
    },
    {
      "inputs": [
        {
          "internalType": "address",
          "name": "signer",
          "type": "address"
        }
      ],
      "name": "grantSigner",
      "outputs": [],
      "stateMutability": "nonpayable",
      "type": "function"
    },
    {
      "inputs": [
        {
          "internalType": "address",
          "name": "owner",
          "type": "address"
        },
        {
          "internalType": "address",
          "name": "operator",
          "type": "address"
        }
      ],
      "name": "isApprovedForAll",
      "outputs": [
        {
          "internalType": "bool",
          "name": "",
          "type": "bool"
        }
      ],
      "stateMutability": "view",
      "type": "function"
    },
    {
      "inputs": [
        {
          "internalType": "address",
          "name": "signer",
          "type": "address"
        }
      ],
      "name": "isSigner",
      "outputs": [
        {
          "internalType": "bool",
          "name": "",
          "type": "bool"
        }
      ],
      "stateMutability": "view",
      "type": "function"
    },
    {
      "inputs": [],
      "name": "min",
      "outputs": [
        {
          "internalType": "uint256",
          "name": "",
          "type": "uint256"
        }
      ],
      "stateMutability": "view",
      "type": "function"
    },
    {
      "inputs": [],
      "name": "name",
      "outputs": [
        {
          "internalType": "string",
          "name": "",
          "type": "string"
        }
      ],
      "stateMutability": "view",
      "type": "function"
    },
    {
      "inputs": [],
      "name": "owner",
      "outputs": [
        {
          "internalType": "address",
          "name": "",
          "type": "address"
        }
      ],
      "stateMutability": "view",
      "type": "function"
    },
    {
      "inputs": [
        {
          "internalType": "uint256",
          "name": "tokenId",
          "type": "uint256"
        }
      ],
      "name": "ownerOf",
      "outputs": [
        {
          "internalType": "address",
          "name": "",
          "type": "address"
        }
      ],
      "stateMutability": "view",
      "type": "function"
    },
    {
      "inputs": [],
      "name": "renounceOwnership",
      "outputs": [],
      "stateMutability": "nonpayable",
      "type": "function"
    },
    {
      "inputs": [
        {
          "internalType": "address",
          "name": "signer",
          "type": "address"
        }
      ],
      "name": "revokeSigner",
      "outputs": [],
      "stateMutability": "nonpayable",
      "type": "function"
    },
    {
      "inputs": [
        {
          "internalType": "address",
          "name": "from",
          "type": "address"
        },
        {
          "internalType": "address",
          "name": "to",
          "type": "address"
        },
        {
          "internalType": "uint256",
          "name": "tokenId",
          "type": "uint256"
        }
      ],
      "name": "safeTransferFrom",
      "outputs": [],
      "stateMutability": "nonpayable",
      "type": "function"
    },
    {
      "inputs": [
        {
          "internalType": "address",
          "name": "from",
          "type": "address"
        },
        {
          "internalType": "address",
          "name": "to",
          "type": "address"
        },
        {
          "internalType": "uint256",
          "name": "tokenId",
          "type": "uint256"
        },
        {
          "internalType": "bytes",
          "name": "data",
          "type": "bytes"
        }
      ],
      "name": "safeTransferFrom",
      "outputs": [],
      "stateMutability": "nonpayable",
      "type": "function"
    },
    {
      "inputs": [
        {
          "internalType": "address",
          "name": "operator",
          "type": "address"
        },
        {
          "internalType": "bool",
          "name": "approved",
          "type": "bool"
        }
      ],
      "name": "setApprovalForAll",
      "outputs": [],
      "stateMutability": "nonpayable",
      "type": "function"
    },
    {
      "inputs": [
        {
          "internalType": "uint64",
          "name": "index",
          "type": "uint64"
        }
      ],
      "name": "settle",
      "outputs": [],
      "stateMutability": "nonpayable",
      "type": "function"
    },
    {
      "inputs": [
        {
          "internalType": "bytes16",
          "name": "marketId",
          "type": "bytes16"
        }
      ],
      "name": "settleMarket",
      "outputs": [],
      "stateMutability": "nonpayable",
      "type": "function"
    },
    {
      "inputs": [
        {
          "internalType": "bytes4",
          "name": "interfaceId",
          "type": "bytes4"
        }
      ],
      "name": "supportsInterface",
      "outputs": [
        {
          "internalType": "bool",
          "name": "",
          "type": "bool"
        }
      ],
      "stateMutability": "view",
      "type": "function"
    },
    {
      "inputs": [],
      "name": "symbol",
      "outputs": [
        {
          "internalType": "string",
          "name": "",
          "type": "string"
        }
      ],
      "stateMutability": "view",
      "type": "function"
    },
    {
      "inputs": [],
      "name": "timeout",
      "outputs": [
        {
          "internalType": "uint256",
          "name": "",
          "type": "uint256"
        }
      ],
      "stateMutability": "view",
      "type": "function"
    },
    {
      "inputs": [
        {
          "internalType": "uint256",
          "name": "tokenId",
          "type": "uint256"
        }
      ],
      "name": "tokenURI",
      "outputs": [
        {
          "internalType": "string",
          "name": "",
          "type": "string"
        }
      ],
      "stateMutability": "pure",
      "type": "function"
    },
    {
      "inputs": [
        {
          "internalType": "address",
          "name": "from",
          "type": "address"
        },
        {
          "internalType": "address",
          "name": "to",
          "type": "address"
        },
        {
          "internalType": "uint256",
          "name": "tokenId",
          "type": "uint256"
        }
      ],
      "name": "transferFrom",
      "outputs": [],
      "stateMutability": "nonpayable",
      "type": "function"
    },
    {
      "inputs": [
        {
          "internalType": "address",
          "name": "newOwner",
          "type": "address"
        }
      ],
      "name": "transferOwnership",
      "outputs": [],
      "stateMutability": "nonpayable",
      "type": "function"
    }
  ],
  "transactionHash": "0x2be430b89dceb5020ecdadb29735646d1460215b750b24661dc80d1cfa0adf4b",
  "args": [
    "0xf5D11D8ddBD880D2E0d2B8bCF18626530dC16e7F",
    0,
    "0xdA5795A850aDEFCdC070c580b2CC6bEc3443fA3f"
  ],
  "numDeployments": 1,
  "solcInputHash": "a4277726a6c0c8713fb9930aa18f6d54",
  "bytecode": "0x6101406040523480156200001257600080fd5b50604051620059f5380380620059f58339818101604052810190620000389190620004fc565b6040518060400160405280601381526020017f486f727365204c696e6b2042657420536c6970000000000000000000000000008152506040518060400160405280600681526020017f484c2d4245540000000000000000000000000000000000000000000000000000815250620000c4620000b86200026a60201b60201c565b6200027260201b60201c565b8160019080519060200190620000dc9291906200035f565b508060029080519060200190620000f59291906200035f565b505050600073ffffffffffffffffffffffffffffffffffffffff168373ffffffffffffffffffffffffffffffffffffffff16141562000139576200013862000558565b5b3073ffffffffffffffffffffffffffffffffffffffff1660c08173ffffffffffffffffffffffffffffffffffffffff16815250508273ffffffffffffffffffffffffffffffffffffffff1660a08173ffffffffffffffffffffffffffffffffffffffff16815250508160ff1660808160ff16815250508073ffffffffffffffffffffffffffffffffffffffff1660e08173ffffffffffffffffffffffffffffffffffffffff16815250506001600f6000620001f96200033660201b60201c565b73ffffffffffffffffffffffffffffffffffffffff1673ffffffffffffffffffffffffffffffffffffffff16815260200190815260200160002060006101000a81548160ff02191690831515021790555062278d006101008181525050610e106101208181525050505050620005ec565b600033905090565b60008060009054906101000a900473ffffffffffffffffffffffffffffffffffffffff169050816000806101000a81548173ffffffffffffffffffffffffffffffffffffffff021916908373ffffffffffffffffffffffffffffffffffffffff1602179055508173ffffffffffffffffffffffffffffffffffffffff168173ffffffffffffffffffffffffffffffffffffffff167f8be0079c531659141344cd1fd0a4f28419497f9722a3daafe3b4186f6b6457e060405160405180910390a35050565b60008060009054906101000a900473ffffffffffffffffffffffffffffffffffffffff16905090565b8280546200036d90620005b6565b90600052602060002090601f016020900481019282620003915760008555620003dd565b82601f10620003ac57805160ff1916838001178555620003dd565b82800160010185558215620003dd579182015b82811115620003dc578251825591602001919060010190620003bf565b5b509050620003ec9190620003f0565b5090565b5b808211156200040b576000816000905550600101620003f1565b5090565b600080fd5b600073ffffffffffffffffffffffffffffffffffffffff82169050919050565b6000620004418262000414565b9050919050565b6000620004558262000434565b9050919050565b620004678162000448565b81146200047357600080fd5b50565b60008151905062000487816200045c565b92915050565b600060ff82169050919050565b620004a5816200048d565b8114620004b157600080fd5b50565b600081519050620004c5816200049a565b92915050565b620004d68162000434565b8114620004e257600080fd5b50565b600081519050620004f681620004cb565b92915050565b6000806000606084860312156200051857620005176200040f565b5b6000620005288682870162000476565b93505060206200053b86828701620004b4565b92505060406200054e86828701620004e5565b9150509250925092565b7f4e487b7100000000000000000000000000000000000000000000000000000000600052600160045260246000fd5b7f4e487b7100000000000000000000000000000000000000000000000000000000600052602260045260246000fd5b60006002820490506001821680620005cf57607f821691505b60208210811415620005e657620005e562000587565b5b50919050565b60805160a05160c05160e051610100516101205161537a6200067b600039600061164e015260008181610fe20152612c8d015260008181611396015281816119490152612695015260008181611ade0152611b9f015260008181610ed701528181611a2901528181611b7e0152818161238a01528181613247015261332f01526000610b5f015261537a6000f3fe608060405234801561001057600080fd5b506004361061021c5760003560e01c806370dea79a11610125578063b18b78dd116100ad578063c96121a81161007c578063c96121a814610669578063e4650fac14610687578063e985e9c5146106b7578063f2fde38b146106e7578063f8897945146107035761021c565b8063b18b78dd146105e3578063b88d4fde14610601578063c34b44a01461061d578063c87b56dd146106395761021c565b80638ac6d217116100f45780638ac6d2171461054f5780638da5cb5b1461056d57806395d89b411461058b578063a22cb465146105a9578063a87d942c146105c55761021c565b806370dea79a146104db578063715018a6146104f95780637df73e271461050357806388bc76ba146105335761021c565b806346e116a6116101a85780636352211e116101775780636352211e1461040b57806363c724f71461043b57806365cacaa4146104575780636b467d151461047557806370a08231146104ab5761021c565b806346e116a6146103715780634b9ba446146103a157806358439479146103bd5780636028421f146103db5761021c565b806312fa3bf1116101ef57806312fa3bf1146102bb578063207b8b53146102eb57806323b872dd1461031b57806325117b721461033757806342842e0e146103555761021c565b806301ffc9a71461022157806306fdde0314610251578063081812fc1461026f578063095ea7b31461029f575b600080fd5b61023b600480360381019061023691906137e0565b610721565b6040516102489190613828565b60405180910390f35b610259610803565b60405161026691906138dc565b60405180910390f35b61028960048036038101906102849190613934565b610895565b60405161029691906139a2565b60405180910390f35b6102b960048036038101906102b491906139e9565b6108db565b005b6102d560048036038101906102d09190613a81565b6109f3565b6040516102e29190613abd565b60405180910390f35b61030560048036038101906103009190613afc565b610a36565b6040516103129190613abd565b60405180910390f35b61033560048036038101906103309190613bb2565b610afb565b005b61033f610b5b565b60405161034c9190613c21565b60405180910390f35b61036f600480360381019061036a9190613bb2565b610b83565b005b61038b60048036038101906103869190613c3c565b610ba3565b6040516103989190613abd565b60405180910390f35b6103bb60048036038101906103b69190613ce3565b610bbb565b005b6103c5610d57565b6040516103d29190613abd565b60405180910390f35b6103f560048036038101906103f09190613d10565b610d61565b6040516104029190613abd565b60405180910390f35b61042560048036038101906104209190613934565b610d79565b60405161043291906139a2565b60405180910390f35b61045560048036038101906104509190613d77565b610e00565b005b61045f610ed3565b60405161046c91906139a2565b60405180910390f35b61048f600480360381019061048a9190613ce3565b610efb565b6040516104a29796959493929190613db3565b60405180910390f35b6104c560048036038101906104c09190613d77565b610f28565b6040516104d29190613abd565b60405180910390f35b6104e3610fe0565b6040516104f09190613abd565b60405180910390f35b610501611004565b005b61051d60048036038101906105189190613d77565b611018565b60405161052a9190613828565b60405180910390f35b61054d60048036038101906105489190613a81565b61102a565b005b6105576112a8565b6040516105649190613abd565b60405180910390f35b6105756112b2565b60405161058291906139a2565b60405180910390f35b6105936112db565b6040516105a091906138dc565b60405180910390f35b6105c360048036038101906105be9190613e4e565b61136d565b005b6105cd611383565b6040516105da9190613e9d565b60405180910390f35b6105eb611392565b6040516105f891906139a2565b60405180910390f35b61061b60048036038101906106169190613fed565b6113ba565b005b61063760048036038101906106329190613d77565b61141c565b005b610653600480360381019061064e9190613934565b6114ef565b60405161066091906138dc565b60405180910390f35b610671611518565b60405161067e9190613abd565b60405180910390f35b6106a1600480360381019061069c9190613ce3565b611522565b6040516106ae9190613abd565b60405180910390f35b6106d160048036038101906106cc9190614070565b611534565b6040516106de9190613828565b60405180910390f35b61070160048036038101906106fc9190613d77565b6115c8565b005b61070b61164c565b6040516107189190613abd565b60405180910390f35b60007f80ac58cd000000000000000000000000000000000000000000000000000000007bffffffffffffffffffffffffffffffffffffffffffffffffffffffff1916827bffffffffffffffffffffffffffffffffffffffffffffffffffffffff191614806107ec57507f5b5e139f000000000000000000000000000000000000000000000000000000007bffffffffffffffffffffffffffffffffffffffffffffffffffffffff1916827bffffffffffffffffffffffffffffffffffffffffffffffffffffffff1916145b806107fc57506107fb82611670565b5b9050919050565b606060018054610812906140df565b80601f016020809104026020016040519081016040528092919081815260200182805461083e906140df565b801561088b5780601f106108605761010080835404028352916020019161088b565b820191906000526020600020905b81548152906001019060200180831161086e57829003601f168201915b5050505050905090565b60006108a0826116da565b6005600083815260200190815260200160002060009054906101000a900473ffffffffffffffffffffffffffffffffffffffff169050919050565b60006108e682610d79565b90508073ffffffffffffffffffffffffffffffffffffffff168373ffffffffffffffffffffffffffffffffffffffff161415610957576040517f08c379a000000000000000000000000000000000000000000000000000000000815260040161094e90614183565b60405180910390fd5b8073ffffffffffffffffffffffffffffffffffffffff16610976611725565b73ffffffffffffffffffffffffffffffffffffffff1614806109a557506109a48161099f611725565b611534565b5b6109e4576040517f08c379a00000000000000000000000000000000000000000000000000000000081526004016109db90614215565b60405180910390fd5b6109ee838361172d565b505050565b6000600a6000836fffffffffffffffffffffffffffffffff19166fffffffffffffffffffffffffffffffff19168152602001908152602001600020549050919050565b600080898989888888604051602001610a5496959493929190614277565b60405160208183030381529060405280519060200120905060011515610a7a82856117e6565b151514610abc576040517f08c379a0000000000000000000000000000000000000000000000000000000008152600401610ab390614333565b60405180910390fd5b6000610aca8a8a8a8a6118b5565b905060008111610add57610adc614353565b5b610aeb8a8a8a8989866118f4565b9250505098975050505050505050565b610b0c610b06611725565b82611fd6565b610b4b576040517f08c379a0000000000000000000000000000000000000000000000000000000008152600401610b42906143f4565b60405180910390fd5b610b5683838361206b565b505050565b60007f0000000000000000000000000000000000000000000000000000000000000000905090565b610b9e838383604051806020016040528060008152506113ba565b505050565b6000610bb185858585612365565b9050949350505050565b600060088267ffffffffffffffff1681548110610bdb57610bda614414565b5b90600052602060002090600502016040518060e00160405290816000820160009054906101000a900460801b6fffffffffffffffffffffffffffffffff19166fffffffffffffffffffffffffffffffff191681526020016000820160109054906101000a900460801b6fffffffffffffffffffffffffffffffff19166fffffffffffffffffffffffffffffffff191681526020016001820154815260200160028201548152602001600382015481526020016004820160009054906101000a900460ff161515151581526020016004820160019054906101000a900473ffffffffffffffffffffffffffffffffffffffff1673ffffffffffffffffffffffffffffffffffffffff1673ffffffffffffffffffffffffffffffffffffffff16815250509050600015158160a00151151514610d4a576040517f08c379a0000000000000000000000000000000000000000000000000000000008152600401610d419061448f565b60405180910390fd5b610d53826124db565b5050565b6000600d54905090565b6000610d6f858585856118b5565b9050949350505050565b600080610d8583612753565b9050600073ffffffffffffffffffffffffffffffffffffffff168173ffffffffffffffffffffffffffffffffffffffff161415610df7576040517f08c379a0000000000000000000000000000000000000000000000000000000008152600401610dee906144fb565b60405180910390fd5b80915050919050565b610e08612790565b600073ffffffffffffffffffffffffffffffffffffffff168173ffffffffffffffffffffffffffffffffffffffff161415610e78576040517f08c379a0000000000000000000000000000000000000000000000000000000008152600401610e6f9061458d565b60405180910390fd5b6001600f60008373ffffffffffffffffffffffffffffffffffffffff1673ffffffffffffffffffffffffffffffffffffffff16815260200190815260200160002060006101000a81548160ff02191690831515021790555050565b60007f0000000000000000000000000000000000000000000000000000000000000000905090565b6000806000806000806000610f0f8861280e565b9650965096509650965096509650919395979092949650565b60008073ffffffffffffffffffffffffffffffffffffffff168273ffffffffffffffffffffffffffffffffffffffff161415610f99576040517f08c379a0000000000000000000000000000000000000000000000000000000008152600401610f909061461f565b60405180910390fd5b600460008373ffffffffffffffffffffffffffffffffffffffff1673ffffffffffffffffffffffffffffffffffffffff168152602001908152602001600020549050919050565b7f000000000000000000000000000000000000000000000000000000000000000081565b61100c612790565b6110166000612999565b565b600061102382612a5d565b9050919050565b600060096000836fffffffffffffffffffffffffffffffff19166fffffffffffffffffffffffffffffffff191681526020019081526020016000208054806020026020016040519081016040528092919081815260200182805480156110e357602002820191906000526020600020906000905b82829054906101000a900467ffffffffffffffff1667ffffffffffffffff168152602001906008019060208260070104928301926001038202915080841161109e5790505b5050505050905060008151905060005b818167ffffffffffffffff1610156112a2576000838267ffffffffffffffff168151811061112457611123614414565b5b60200260200101519050600060088267ffffffffffffffff168154811061114e5761114d614414565b5b90600052602060002090600502016040518060e00160405290816000820160009054906101000a900460801b6fffffffffffffffffffffffffffffffff19166fffffffffffffffffffffffffffffffff191681526020016000820160109054906101000a900460801b6fffffffffffffffffffffffffffffffff19166fffffffffffffffffffffffffffffffff191681526020016001820154815260200160028201548152602001600382015481526020016004820160009054906101000a900460ff161515151581526020016004820160019054906101000a900473ffffffffffffffffffffffffffffffffffffffff1673ffffffffffffffffffffffffffffffffffffffff1673ffffffffffffffffffffffffffffffffffffffff16815250509050600015158160a001511515141561128d5761128c826124db565b5b5050808061129a9061466e565b9150506110f3565b50505050565b6000600e54905090565b60008060009054906101000a900473ffffffffffffffffffffffffffffffffffffffff16905090565b6060600280546112ea906140df565b80601f0160208091040260200160405190810160405280929190818152602001828054611316906140df565b80156113635780601f1061133857610100808354040283529160200191611363565b820191906000526020600020905b81548152906001019060200180831161134657829003601f168201915b5050505050905090565b61137f611378611725565b8383612ab3565b5050565b600061138d612c20565b905090565b60007f0000000000000000000000000000000000000000000000000000000000000000905090565b6113cb6113c5611725565b83611fd6565b61140a576040517f08c379a0000000000000000000000000000000000000000000000000000000008152600401611401906143f4565b60405180910390fd5b61141684848484612c2d565b50505050565b611424612790565b600073ffffffffffffffffffffffffffffffffffffffff168173ffffffffffffffffffffffffffffffffffffffff161415611494576040517f08c379a000000000000000000000000000000000000000000000000000000000815260040161148b90614711565b60405180910390fd5b6000600f60008373ffffffffffffffffffffffffffffffffffffffff1673ffffffffffffffffffffffffffffffffffffffff16815260200190815260200160002060006101000a81548160ff02191690831515021790555050565b6060816040516020016115029190614788565b6040516020818303038152906040529050919050565b6000600754905090565b600061152d82612c89565b9050919050565b6000600660008473ffffffffffffffffffffffffffffffffffffffff1673ffffffffffffffffffffffffffffffffffffffff16815260200190815260200160002060008373ffffffffffffffffffffffffffffffffffffffff1673ffffffffffffffffffffffffffffffffffffffff16815260200190815260200160002060009054906101000a900460ff16905092915050565b6115d0612790565b600073ffffffffffffffffffffffffffffffffffffffff168173ffffffffffffffffffffffffffffffffffffffff161415611640576040517f08c379a000000000000000000000000000000000000000000000000000000000815260040161163790614820565b60405180910390fd5b61164981612999565b50565b7f000000000000000000000000000000000000000000000000000000000000000081565b60007f01ffc9a7000000000000000000000000000000000000000000000000000000007bffffffffffffffffffffffffffffffffffffffffffffffffffffffff1916827bffffffffffffffffffffffffffffffffffffffffffffffffffffffff1916149050919050565b6116e381612ced565b611722576040517f08c379a0000000000000000000000000000000000000000000000000000000008152600401611719906144fb565b60405180910390fd5b50565b600033905090565b816005600083815260200190815260200160002060006101000a81548173ffffffffffffffffffffffffffffffffffffffff021916908373ffffffffffffffffffffffffffffffffffffffff160217905550808273ffffffffffffffffffffffffffffffffffffffff166117a083610d79565b73ffffffffffffffffffffffffffffffffffffffff167f8c5be1e5ebec7d5bd14f71427d1e84f3dd0314c0f7b2291e5b200ac8c7c3b92560405160405180910390a45050565b600080732686e2ec431b90b5c5b21408771ebf377dbb07bd635cff288d85856040518363ffffffff1660e01b8152600401611822929190614957565b602060405180830381865af415801561183f573d6000803e3d6000fd5b505050506040513d601f19601f820116820180604052508101906118639190614995565b9050600073ffffffffffffffffffffffffffffffffffffffff168173ffffffffffffffffffffffffffffffffffffffff1614156118a3576118a2614353565b5b6118ac81612a5d565b91505092915050565b6000806118c484848888612365565b90506118e984620f424086846118da91906149c2565b6118e49190614a4b565b612d2e565b915050949350505050565b6000428311801561190457508342115b611943576040517f08c379a000000000000000000000000000000000000000000000000000000000815260040161193a90614ac8565b60405180910390fd5b600015157f000000000000000000000000000000000000000000000000000000000000000073ffffffffffffffffffffffffffffffffffffffff166306c77ce7888a6040518363ffffffff1660e01b81526004016119a2929190614ae8565b602060405180830381865afa1580156119bf573d6000803e3d6000fd5b505050506040513d601f19601f820116820180604052508101906119e39190614b26565b151514611a25576040517f08c379a0000000000000000000000000000000000000000000000000000000008152600401611a1c90614bc5565b60405180910390fd5b60007f000000000000000000000000000000000000000000000000000000000000000073ffffffffffffffffffffffffffffffffffffffff166338d52e0f6040518163ffffffff1660e01b8152600401602060405180830381865afa158015611a92573d6000803e3d6000fd5b505050506040513d601f19601f82011682018060405250810190611ab69190614995565b90508073ffffffffffffffffffffffffffffffffffffffff166323b872dd611adc611725565b7f0000000000000000000000000000000000000000000000000000000000000000896040518463ffffffff1660e01b8152600401611b1c93929190614be5565b6020604051808303816000875af1158015611b3b573d6000803e3d6000fd5b505050506040513d601f19601f82011682018060405250810190611b5f9190614b26565b508073ffffffffffffffffffffffffffffffffffffffff166323b872dd7f00000000000000000000000000000000000000000000000000000000000000007f00000000000000000000000000000000000000000000000000000000000000008987611bca9190614c1c565b6040518463ffffffff1660e01b8152600401611be893929190614be5565b6020604051808303816000875af1158015611c07573d6000803e3d6000fd5b505050506040513d601f19601f82011682018060405250810190611c2b9190614b26565b5085600a6000896fffffffffffffffffffffffffffffffff19166fffffffffffffffffffffffffffffffff191681526020019081526020016000206000828254611c759190614c50565b9250508190555082600c60008a6fffffffffffffffffffffffffffffffff19166fffffffffffffffffffffffffffffffff191681526020019081526020016000206000828254611cc59190614c50565b925050819055506000611cd6612c20565b905060086040518060e001604052808b6fffffffffffffffffffffffffffffffff191681526020018a6fffffffffffffffffffffffffffffffff19168152602001898152602001868152602001878152602001600015158152602001611d3a611725565b73ffffffffffffffffffffffffffffffffffffffff16815250908060018154018082558091505060019003906000526020600020906005020160009091909190915060008201518160000160006101000a8154816fffffffffffffffffffffffffffffffff021916908360801c021790555060208201518160000160106101000a8154816fffffffffffffffffffffffffffffffff021916908360801c021790555060408201518160010155606082015181600201556080820151816003015560a08201518160040160006101000a81548160ff02191690831515021790555060c08201518160040160016101000a81548173ffffffffffffffffffffffffffffffffffffffff021916908373ffffffffffffffffffffffffffffffffffffffff160217905550505060096000896fffffffffffffffffffffffffffffffff19166fffffffffffffffffffffffffffffffff191681526020019081526020016000208190806001815401808255809150506001900390600052602060002090600491828204019190066008029091909190916101000a81548167ffffffffffffffff021916908367ffffffffffffffff160217905550611f0b611efb611725565b8267ffffffffffffffff16612d47565b86600d6000828254611f1d9190614c50565b925050819055508684611f309190614c1c565b600e6000828254611f419190614c50565b9250508190555060076000815480929190611f5b90614ca6565b9190505550611f68611725565b73ffffffffffffffffffffffffffffffffffffffff167f1d273ea6a1aea94de32fd06a09ab8046dff8e3261c5a4ecaa5e1a5705f3342ec828b8b8b89604051611fb5959493929190614d2a565b60405180910390a28067ffffffffffffffff16925050509695505050505050565b600080611fe283610d79565b90508073ffffffffffffffffffffffffffffffffffffffff168473ffffffffffffffffffffffffffffffffffffffff16148061202457506120238185611534565b5b8061206257508373ffffffffffffffffffffffffffffffffffffffff1661204a84610895565b73ffffffffffffffffffffffffffffffffffffffff16145b91505092915050565b8273ffffffffffffffffffffffffffffffffffffffff1661208b82610d79565b73ffffffffffffffffffffffffffffffffffffffff16146120e1576040517f08c379a00000000000000000000000000000000000000000000000000000000081526004016120d890614def565b60405180910390fd5b600073ffffffffffffffffffffffffffffffffffffffff168273ffffffffffffffffffffffffffffffffffffffff161415612151576040517f08c379a000000000000000000000000000000000000000000000000000000000815260040161214890614e81565b60405180910390fd5b61215e8383836001612f65565b8273ffffffffffffffffffffffffffffffffffffffff1661217e82610d79565b73ffffffffffffffffffffffffffffffffffffffff16146121d4576040517f08c379a00000000000000000000000000000000000000000000000000000000081526004016121cb90614def565b60405180910390fd5b6005600082815260200190815260200160002060006101000a81549073ffffffffffffffffffffffffffffffffffffffff02191690556001600460008573ffffffffffffffffffffffffffffffffffffffff1673ffffffffffffffffffffffffffffffffffffffff168152602001908152602001600020600082825403925050819055506001600460008473ffffffffffffffffffffffffffffffffffffffff1673ffffffffffffffffffffffffffffffffffffffff16815260200190815260200160002060008282540192505081905550816003600083815260200190815260200160002060006101000a81548173ffffffffffffffffffffffffffffffffffffffff021916908373ffffffffffffffffffffffffffffffffffffffff160217905550808273ffffffffffffffffffffffffffffffffffffffff168473ffffffffffffffffffffffffffffffffffffffff167fddf252ad1be2c89b69c2b068fc378daa952ba7f163c4a11628f55a4df523b3ef60405160405180910390a4612360838383600161308b565b505050565b6000600185111580612378575060018411155b1561238657600190506124d3565b60007f000000000000000000000000000000000000000000000000000000000000000073ffffffffffffffffffffffffffffffffffffffff1663b15031fa6040518163ffffffff1660e01b8152600401602060405180830381865afa1580156123f3573d6000803e3d6000fd5b505050506040513d601f19601f820116820180604052508101906124179190614eb6565b9050600081141561242c5760019150506124d3565b80600c6000866fffffffffffffffffffffffffffffffff19166fffffffffffffffffffffffffffffffff191681526020019081526020016000205411156124775760019150506124d3565b600c6000856fffffffffffffffffffffffffffffffff19166fffffffffffffffffffffffffffffffff1916815260200190815260200160002054816124bc9190614c1c565b905060006124cb878784613091565b905080925050505b949350505050565b600160088267ffffffffffffffff16815481106124fb576124fa614414565b5b906000526020600020906005020160040160006101000a81548160ff02191690831515021790555061252c81612c89565b42111561254d576125488167ffffffffffffffff166001613118565b612750565b600060088267ffffffffffffffff168154811061256d5761256c614414565b5b90600052602060002090600502016040518060e00160405290816000820160009054906101000a900460801b6fffffffffffffffffffffffffffffffff19166fffffffffffffffffffffffffffffffff191681526020016000820160109054906101000a900460801b6fffffffffffffffffffffffffffffffff19166fffffffffffffffffffffffffffffffff191681526020016001820154815260200160028201548152602001600382015481526020016004820160009054906101000a900460ff161515151581526020016004820160019054906101000a900473ffffffffffffffffffffffffffffffffffffffff1673ffffffffffffffffffffffffffffffffffffffff1673ffffffffffffffffffffffffffffffffffffffff1681525050905060007f000000000000000000000000000000000000000000000000000000000000000073ffffffffffffffffffffffffffffffffffffffff166306c77ce7836020015184600001516040518363ffffffff1660e01b81526004016126f6929190614ae8565b602060405180830381865afa158015612713573d6000803e3d6000fd5b505050506040513d601f19601f820116820180604052508101906127379190614b26565b905061274d8367ffffffffffffffff1682613118565b50505b50565b60006003600083815260200190815260200160002060009054906101000a900473ffffffffffffffffffffffffffffffffffffffff169050919050565b612798611725565b73ffffffffffffffffffffffffffffffffffffffff166127b66112b2565b73ffffffffffffffffffffffffffffffffffffffff161461280c576040517f08c379a000000000000000000000000000000000000000000000000000000000815260040161280390614f2f565b60405180910390fd5b565b60008060008060008060008060088967ffffffffffffffff168154811061283857612837614414565b5b90600052602060002090600502016040518060e00160405290816000820160009054906101000a900460801b6fffffffffffffffffffffffffffffffff19166fffffffffffffffffffffffffffffffff191681526020016000820160109054906101000a900460801b6fffffffffffffffffffffffffffffffff19166fffffffffffffffffffffffffffffffff191681526020016001820154815260200160028201548152602001600382015481526020016004820160009054906101000a900460ff161515151581526020016004820160019054906101000a900473ffffffffffffffffffffffffffffffffffffffff1673ffffffffffffffffffffffffffffffffffffffff1673ffffffffffffffffffffffffffffffffffffffff168152505090508060400151816060015182608001518360a001518460c0015185602001518660000151975097509750975097509750975050919395979092949650565b60008060009054906101000a900473ffffffffffffffffffffffffffffffffffffffff169050816000806101000a81548173ffffffffffffffffffffffffffffffffffffffff021916908373ffffffffffffffffffffffffffffffffffffffff1602179055508173ffffffffffffffffffffffffffffffffffffffff168173ffffffffffffffffffffffffffffffffffffffff167f8be0079c531659141344cd1fd0a4f28419497f9722a3daafe3b4186f6b6457e060405160405180910390a35050565b6000600f60008373ffffffffffffffffffffffffffffffffffffffff1673ffffffffffffffffffffffffffffffffffffffff16815260200190815260200160002060009054906101000a900460ff169050919050565b8173ffffffffffffffffffffffffffffffffffffffff168373ffffffffffffffffffffffffffffffffffffffff161415612b22576040517f08c379a0000000000000000000000000000000000000000000000000000000008152600401612b1990614f9b565b60405180910390fd5b80600660008573ffffffffffffffffffffffffffffffffffffffff1673ffffffffffffffffffffffffffffffffffffffff16815260200190815260200160002060008473ffffffffffffffffffffffffffffffffffffffff1673ffffffffffffffffffffffffffffffffffffffff16815260200190815260200160002060006101000a81548160ff0219169083151502179055508173ffffffffffffffffffffffffffffffffffffffff168373ffffffffffffffffffffffffffffffffffffffff167f17307eab39ab6107e8899845ad3d59bd9653f200f220920489ca2b5937696c3183604051612c139190613828565b60405180910390a3505050565b6000600880549050905090565b612c3884848461206b565b612c448484848461347b565b612c83576040517f08c379a0000000000000000000000000000000000000000000000000000000008152600401612c7a9061502d565b60405180910390fd5b50505050565b60007f000000000000000000000000000000000000000000000000000000000000000060088367ffffffffffffffff1681548110612cca57612cc9614414565b5b906000526020600020906005020160030154612ce69190614c50565b9050919050565b60008073ffffffffffffffffffffffffffffffffffffffff16612d0f83612753565b73ffffffffffffffffffffffffffffffffffffffff1614159050919050565b6000818311612d3d5781612d3f565b825b905092915050565b600073ffffffffffffffffffffffffffffffffffffffff168273ffffffffffffffffffffffffffffffffffffffff161415612db7576040517f08c379a0000000000000000000000000000000000000000000000000000000008152600401612dae90615099565b60405180910390fd5b612dc081612ced565b15612e00576040517f08c379a0000000000000000000000000000000000000000000000000000000008152600401612df790615105565b60405180910390fd5b612e0e600083836001612f65565b612e1781612ced565b15612e57576040517f08c379a0000000000000000000000000000000000000000000000000000000008152600401612e4e90615105565b60405180910390fd5b6001600460008473ffffffffffffffffffffffffffffffffffffffff1673ffffffffffffffffffffffffffffffffffffffff16815260200190815260200160002060008282540192505081905550816003600083815260200190815260200160002060006101000a81548173ffffffffffffffffffffffffffffffffffffffff021916908373ffffffffffffffffffffffffffffffffffffffff160217905550808273ffffffffffffffffffffffffffffffffffffffff16600073ffffffffffffffffffffffffffffffffffffffff167fddf252ad1be2c89b69c2b068fc378daa952ba7f163c4a11628f55a4df523b3ef60405160405180910390a4612f6160008383600161308b565b5050565b600181111561308557600073ffffffffffffffffffffffffffffffffffffffff168473ffffffffffffffffffffffffffffffffffffffff1614612ff95780600460008673ffffffffffffffffffffffffffffffffffffffff1673ffffffffffffffffffffffffffffffffffffffff1681526020019081526020016000206000828254612ff19190614c1c565b925050819055505b600073ffffffffffffffffffffffffffffffffffffffff168373ffffffffffffffffffffffffffffffffffffffff16146130845780600460008573ffffffffffffffffffffffffffffffffffffffff1673ffffffffffffffffffffffffffffffffffffffff168152602001908152602001600020600082825461307c9190614c50565b925050819055505b5b50505050565b50505050565b6000731C3A4A0FACbdC8237469C312E3B121E8A97864c063a19dec438585856040518463ffffffff1660e01b81526004016130ce93929190615134565b602060405180830381865af41580156130eb573d6000803e3d6000fd5b505050506040513d601f19601f8201168201806040525081019061310f9190614eb6565b90509392505050565b426008838154811061312d5761312c614414565b5b9060005260206000209060050201600301541061317f576040517f08c379a0000000000000000000000000000000000000000000000000000000008152600401613176906151b7565b60405180910390fd5b6008828154811061319357613192614414565b5b906000526020600020906005020160010154600d60008282546131b69190614c1c565b92505081905550600882815481106131d1576131d0614414565b5b906000526020600020906005020160010154600883815481106131f7576131f6614414565b5b9060005260206000209060050201600201546132139190614c1c565b600e60008282546132249190614c1c565b925050819055506007600081548092919061323e906151d7565b919050555060007f000000000000000000000000000000000000000000000000000000000000000073ffffffffffffffffffffffffffffffffffffffff166338d52e0f6040518163ffffffff1660e01b8152600401602060405180830381865afa1580156132b0573d6000803e3d6000fd5b505050506040513d601f19601f820116820180604052508101906132d49190614995565b90506000600884815481106132ec576132eb614414565b5b906000526020600020906005020160040160019054906101000a900473ffffffffffffffffffffffffffffffffffffffff169050600015158315151415613351577f000000000000000000000000000000000000000000000000000000000000000090505b8173ffffffffffffffffffffffffffffffffffffffff1663a9059cbb826008878154811061338257613381614414565b5b9060005260206000209060050201600201546040518363ffffffff1660e01b81526004016133b1929190615201565b6020604051808303816000875af11580156133d0573d6000803e3d6000fd5b505050506040513d601f19601f820116820180604052508101906133f49190614b26565b506133fe84613603565b8073ffffffffffffffffffffffffffffffffffffffff167f08a2a3d90b4a86017a5adf7503073c6b2b44051c48e9844a336190c9793c4af9856008878154811061344b5761344a614414565b5b9060005260206000209060050201600201548660405161346d9392919061522a565b60405180910390a250505050565b600061349c8473ffffffffffffffffffffffffffffffffffffffff16613751565b156135f6578373ffffffffffffffffffffffffffffffffffffffff1663150b7a026134c5611725565b8786866040518563ffffffff1660e01b81526004016134e794939291906152b6565b6020604051808303816000875af192505050801561352357506040513d601f19601f820116820180604052508101906135209190615317565b60015b6135a6573d8060008114613553576040519150601f19603f3d011682016040523d82523d6000602084013e613558565b606091505b5060008151141561359e576040517f08c379a00000000000000000000000000000000000000000000000000000000081526004016135959061502d565b60405180910390fd5b805181602001fd5b63150b7a0260e01b7bffffffffffffffffffffffffffffffffffffffffffffffffffffffff1916817bffffffffffffffffffffffffffffffffffffffffffffffffffffffff1916149150506135fb565b600190505b949350505050565b600061360e82610d79565b905061361e816000846001612f65565b61362782610d79565b90506005600083815260200190815260200160002060006101000a81549073ffffffffffffffffffffffffffffffffffffffff02191690556001600460008373ffffffffffffffffffffffffffffffffffffffff1673ffffffffffffffffffffffffffffffffffffffff168152602001908152602001600020600082825403925050819055506003600083815260200190815260200160002060006101000a81549073ffffffffffffffffffffffffffffffffffffffff021916905581600073ffffffffffffffffffffffffffffffffffffffff168273ffffffffffffffffffffffffffffffffffffffff167fddf252ad1be2c89b69c2b068fc378daa952ba7f163c4a11628f55a4df523b3ef60405160405180910390a461374d81600084600161308b565b5050565b6000808273ffffffffffffffffffffffffffffffffffffffff163b119050919050565b6000604051905090565b600080fd5b600080fd5b60007fffffffff0000000000000000000000000000000000000000000000000000000082169050919050565b6137bd81613788565b81146137c857600080fd5b50565b6000813590506137da816137b4565b92915050565b6000602082840312156137f6576137f561377e565b5b6000613804848285016137cb565b91505092915050565b60008115159050919050565b6138228161380d565b82525050565b600060208201905061383d6000830184613819565b92915050565b600081519050919050565b600082825260208201905092915050565b60005b8381101561387d578082015181840152602081019050613862565b8381111561388c576000848401525b50505050565b6000601f19601f8301169050919050565b60006138ae82613843565b6138b8818561384e565b93506138c881856020860161385f565b6138d181613892565b840191505092915050565b600060208201905081810360008301526138f681846138a3565b905092915050565b6000819050919050565b613911816138fe565b811461391c57600080fd5b50565b60008135905061392e81613908565b92915050565b60006020828403121561394a5761394961377e565b5b60006139588482850161391f565b91505092915050565b600073ffffffffffffffffffffffffffffffffffffffff82169050919050565b600061398c82613961565b9050919050565b61399c81613981565b82525050565b60006020820190506139b76000830184613993565b92915050565b6139c681613981565b81146139d157600080fd5b50565b6000813590506139e3816139bd565b92915050565b60008060408385031215613a00576139ff61377e565b5b6000613a0e858286016139d4565b9250506020613a1f8582860161391f565b9150509250929050565b60007fffffffffffffffffffffffffffffffff0000000000000000000000000000000082169050919050565b613a5e81613a29565b8114613a6957600080fd5b50565b600081359050613a7b81613a55565b92915050565b600060208284031215613a9757613a9661377e565b5b6000613aa584828501613a6c565b91505092915050565b613ab7816138fe565b82525050565b6000602082019050613ad26000830184613aae565b92915050565b600080fd5b600060608284031215613af357613af2613ad8565b5b81905092915050565b600080600080600080600080610140898b031215613b1d57613b1c61377e565b5b6000613b2b8b828c01613a6c565b9850506020613b3c8b828c01613a6c565b9750506040613b4d8b828c01613a6c565b9650506060613b5e8b828c0161391f565b9550506080613b6f8b828c0161391f565b94505060a0613b808b828c0161391f565b93505060c0613b918b828c0161391f565b92505060e0613ba28b828c01613add565b9150509295985092959890939650565b600080600060608486031215613bcb57613bca61377e565b5b6000613bd9868287016139d4565b9350506020613bea868287016139d4565b9250506040613bfb8682870161391f565b9150509250925092565b600060ff82169050919050565b613c1b81613c05565b82525050565b6000602082019050613c366000830184613c12565b92915050565b60008060008060808587031215613c5657613c5561377e565b5b6000613c648782880161391f565b9450506020613c758782880161391f565b9350506040613c8687828801613a6c565b9250506060613c9787828801613a6c565b91505092959194509250565b600067ffffffffffffffff82169050919050565b613cc081613ca3565b8114613ccb57600080fd5b50565b600081359050613cdd81613cb7565b92915050565b600060208284031215613cf957613cf861377e565b5b6000613d0784828501613cce565b91505092915050565b60008060008060808587031215613d2a57613d2961377e565b5b6000613d3887828801613a6c565b9450506020613d4987828801613a6c565b9350506040613d5a8782880161391f565b9250506060613d6b8782880161391f565b91505092959194509250565b600060208284031215613d8d57613d8c61377e565b5b6000613d9b848285016139d4565b91505092915050565b613dad81613a29565b82525050565b600060e082019050613dc8600083018a613aae565b613dd56020830189613aae565b613de26040830188613aae565b613def6060830187613819565b613dfc6080830186613993565b613e0960a0830185613da4565b613e1660c0830184613da4565b98975050505050505050565b613e2b8161380d565b8114613e3657600080fd5b50565b600081359050613e4881613e22565b92915050565b60008060408385031215613e6557613e6461377e565b5b6000613e73858286016139d4565b9250506020613e8485828601613e39565b9150509250929050565b613e9781613ca3565b82525050565b6000602082019050613eb26000830184613e8e565b92915050565b600080fd5b600080fd5b7f4e487b7100000000000000000000000000000000000000000000000000000000600052604160045260246000fd5b613efa82613892565b810181811067ffffffffffffffff82111715613f1957613f18613ec2565b5b80604052505050565b6000613f2c613774565b9050613f388282613ef1565b919050565b600067ffffffffffffffff821115613f5857613f57613ec2565b5b613f6182613892565b9050602081019050919050565b82818337600083830152505050565b6000613f90613f8b84613f3d565b613f22565b905082815260208101848484011115613fac57613fab613ebd565b5b613fb7848285613f6e565b509392505050565b600082601f830112613fd457613fd3613eb8565b5b8135613fe4848260208601613f7d565b91505092915050565b600080600080608085870312156140075761400661377e565b5b6000614015878288016139d4565b9450506020614026878288016139d4565b93505060406140378782880161391f565b925050606085013567ffffffffffffffff81111561405857614057613783565b5b61406487828801613fbf565b91505092959194509250565b600080604083850312156140875761408661377e565b5b6000614095858286016139d4565b92505060206140a6858286016139d4565b9150509250929050565b7f4e487b7100000000000000000000000000000000000000000000000000000000600052602260045260246000fd5b600060028204905060018216806140f757607f821691505b6020821081141561410b5761410a6140b0565b5b50919050565b7f4552433732313a20617070726f76616c20746f2063757272656e74206f776e6560008201527f7200000000000000000000000000000000000000000000000000000000000000602082015250565b600061416d60218361384e565b915061417882614111565b604082019050919050565b6000602082019050818103600083015261419c81614160565b9050919050565b7f4552433732313a20617070726f76652063616c6c6572206973206e6f7420746f60008201527f6b656e206f776e6572206f7220617070726f76656420666f7220616c6c000000602082015250565b60006141ff603d8361384e565b915061420a826141a3565b604082019050919050565b6000602082019050818103600083015261422e816141f2565b9050919050565b6000819050919050565b61425061424b82613a29565b614235565b82525050565b6000819050919050565b61427161426c826138fe565b614256565b82525050565b6000614283828961423f565b601082019150614293828861423f565b6010820191506142a3828761423f565b6010820191506142b38286614260565b6020820191506142c38285614260565b6020820191506142d38284614260565b602082019150819050979650505050505050565b7f6261636b3a20496e76616c6964207369676e6174757265000000000000000000600082015250565b600061431d60178361384e565b9150614328826142e7565b602082019050919050565b6000602082019050818103600083015261434c81614310565b9050919050565b7f4e487b7100000000000000000000000000000000000000000000000000000000600052600160045260246000fd5b7f4552433732313a2063616c6c6572206973206e6f7420746f6b656e206f776e6560008201527f72206f7220617070726f76656400000000000000000000000000000000000000602082015250565b60006143de602d8361384e565b91506143e982614382565b604082019050919050565b6000602082019050818103600083015261440d816143d1565b9050919050565b7f4e487b7100000000000000000000000000000000000000000000000000000000600052603260045260246000fd5b7f736574746c653a204265742068617320616c726561647920736574746c656400600082015250565b6000614479601f8361384e565b915061448482614443565b602082019050919050565b600060208201905081810360008301526144a88161446c565b9050919050565b7f4552433732313a20696e76616c696420746f6b656e2049440000000000000000600082015250565b60006144e560188361384e565b91506144f0826144af565b602082019050919050565b60006020820190508181036000830152614514816144d8565b9050919050565b7f6772616e745369676e65723a20496e76616c6964207369676e6572206164647260008201527f6573730000000000000000000000000000000000000000000000000000000000602082015250565b600061457760238361384e565b91506145828261451b565b604082019050919050565b600060208201905081810360008301526145a68161456a565b9050919050565b7f4552433732313a2061646472657373207a65726f206973206e6f74206120766160008201527f6c6964206f776e65720000000000000000000000000000000000000000000000602082015250565b600061460960298361384e565b9150614614826145ad565b604082019050919050565b60006020820190508181036000830152614638816145fc565b9050919050565b7f4e487b7100000000000000000000000000000000000000000000000000000000600052601160045260246000fd5b600061467982613ca3565b915067ffffffffffffffff8214156146945761469361463f565b5b600182019050919050565b7f7265766f6b655369676e65723a20496e76616c6964207369676e65722061646460008201527f7265737300000000000000000000000000000000000000000000000000000000602082015250565b60006146fb60248361384e565b91506147068261469f565b604082019050919050565b6000602082019050818103600083015261472a816146ee565b9050919050565b600081905092915050565b7f68747470733a2f2f6170692e686f7273652e6c696e6b2f6265742f0000000000600082015250565b6000614772601b83614731565b915061477d8261473c565b601b82019050919050565b600061479382614765565b915061479f8284614260565b60208201915081905092915050565b7f4f776e61626c653a206e6577206f776e657220697320746865207a65726f206160008201527f6464726573730000000000000000000000000000000000000000000000000000602082015250565b600061480a60268361384e565b9150614815826147ae565b604082019050919050565b60006020820190508181036000830152614839816147fd565b9050919050565b6000819050919050565b61485381614840565b82525050565b61486281613c05565b811461486d57600080fd5b50565b60008135905061487f81614859565b92915050565b60006148946020840184614870565b905092915050565b6148a581613c05565b82525050565b6148b481614840565b81146148bf57600080fd5b50565b6000813590506148d1816148ab565b92915050565b60006148e660208401846148c2565b905092915050565b6148f781614840565b82525050565b6060820161490e6000830183614885565b61491b600085018261489c565b5061492960208301836148d7565b61493660208501826148ee565b5061494460408301836148d7565b61495160408501826148ee565b50505050565b600060808201905061496c600083018561484a565b61497960208301846148fd565b9392505050565b60008151905061498f816139bd565b92915050565b6000602082840312156149ab576149aa61377e565b5b60006149b984828501614980565b91505092915050565b60006149cd826138fe565b91506149d8836138fe565b9250817fffffffffffffffffffffffffffffffffffffffffffffffffffffffffffffffff0483118215151615614a1157614a1061463f565b5b828202905092915050565b7f4e487b7100000000000000000000000000000000000000000000000000000000600052601260045260246000fd5b6000614a56826138fe565b9150614a61836138fe565b925082614a7157614a70614a1c565b5b828204905092915050565b7f6261636b3a20496e76616c696420646174650000000000000000000000000000600082015250565b6000614ab260128361384e565b9150614abd82614a7c565b602082019050919050565b60006020820190508181036000830152614ae181614aa5565b9050919050565b6000604082019050614afd6000830185613da4565b614b0a6020830184613da4565b9392505050565b600081519050614b2081613e22565b92915050565b600060208284031215614b3c57614b3b61377e565b5b6000614b4a84828501614b11565b91505092915050565b7f6261636b3a204f7261636c6520726573756c7420616c7265616479207365742060008201527f666f722074686973206d61726b65740000000000000000000000000000000000602082015250565b6000614baf602f8361384e565b9150614bba82614b53565b604082019050919050565b60006020820190508181036000830152614bde81614ba2565b9050919050565b6000606082019050614bfa6000830186613993565b614c076020830185613993565b614c146040830184613aae565b949350505050565b6000614c27826138fe565b9150614c32836138fe565b925082821015614c4557614c4461463f565b5b828203905092915050565b6000614c5b826138fe565b9150614c66836138fe565b9250827fffffffffffffffffffffffffffffffffffffffffffffffffffffffffffffffff03821115614c9b57614c9a61463f565b5b828201905092915050565b6000614cb1826138fe565b91507fffffffffffffffffffffffffffffffffffffffffffffffffffffffffffffffff821415614ce457614ce361463f565b5b600182019050919050565b6000819050919050565b6000614d14614d0f614d0a84613ca3565b614cef565b6138fe565b9050919050565b614d2481614cf9565b82525050565b600060a082019050614d3f6000830188614d1b565b614d4c6020830187613da4565b614d596040830186613da4565b614d666060830185613aae565b614d736080830184613aae565b9695505050505050565b7f4552433732313a207472616e736665722066726f6d20696e636f72726563742060008201527f6f776e6572000000000000000000000000000000000000000000000000000000602082015250565b6000614dd960258361384e565b9150614de482614d7d565b604082019050919050565b60006020820190508181036000830152614e0881614dcc565b9050919050565b7f4552433732313a207472616e7366657220746f20746865207a65726f2061646460008201527f7265737300000000000000000000000000000000000000000000000000000000602082015250565b6000614e6b60248361384e565b9150614e7682614e0f565b604082019050919050565b60006020820190508181036000830152614e9a81614e5e565b9050919050565b600081519050614eb081613908565b92915050565b600060208284031215614ecc57614ecb61377e565b5b6000614eda84828501614ea1565b91505092915050565b7f4f776e61626c653a2063616c6c6572206973206e6f7420746865206f776e6572600082015250565b6000614f1960208361384e565b9150614f2482614ee3565b602082019050919050565b60006020820190508181036000830152614f4881614f0c565b9050919050565b7f4552433732313a20617070726f766520746f2063616c6c657200000000000000600082015250565b6000614f8560198361384e565b9150614f9082614f4f565b602082019050919050565b60006020820190508181036000830152614fb481614f78565b9050919050565b7f4552433732313a207472616e7366657220746f206e6f6e20455243373231526560008201527f63656976657220696d706c656d656e7465720000000000000000000000000000602082015250565b600061501760328361384e565b915061502282614fbb565b604082019050919050565b600060208201905081810360008301526150468161500a565b9050919050565b7f4552433732313a206d696e7420746f20746865207a65726f2061646472657373600082015250565b600061508360208361384e565b915061508e8261504d565b602082019050919050565b600060208201905081810360008301526150b281615076565b9050919050565b7f4552433732313a20746f6b656e20616c7265616479206d696e74656400000000600082015250565b60006150ef601c8361384e565b91506150fa826150b9565b602082019050919050565b6000602082019050818103600083015261511e816150e2565b9050919050565b61512e816138fe565b82525050565b60006060820190506151496000830186615125565b6151566020830185615125565b6151636040830184615125565b949350505050565b7f5f736574746c653a205061796f75742064617465206e6f742072656163686564600082015250565b60006151a160208361384e565b91506151ac8261516b565b602082019050919050565b600060208201905081810360008301526151d081615194565b9050919050565b60006151e2826138fe565b915060008214156151f6576151f561463f565b5b600182039050919050565b60006040820190506152166000830185613993565b6152236020830184613aae565b9392505050565b600060608201905061523f6000830186613aae565b61524c6020830185613aae565b6152596040830184613819565b949350505050565b600081519050919050565b600082825260208201905092915050565b600061528882615261565b615292818561526c565b93506152a281856020860161385f565b6152ab81613892565b840191505092915050565b60006080820190506152cb6000830187613993565b6152d86020830186613993565b6152e56040830185613aae565b81810360608301526152f7818461527d565b905095945050505050565b600081519050615311816137b4565b92915050565b60006020828403121561532d5761532c61377e565b5b600061533b84828501615302565b9150509291505056fea26469706673582212201521b36a880923b71d4956941684744dc7f2eb71664c4290c7af330716b6536964736f6c634300080a0033",
  "deployedBytecode": "0x608060405234801561001057600080fd5b506004361061021c5760003560e01c806370dea79a11610125578063b18b78dd116100ad578063c96121a81161007c578063c96121a814610669578063e4650fac14610687578063e985e9c5146106b7578063f2fde38b146106e7578063f8897945146107035761021c565b8063b18b78dd146105e3578063b88d4fde14610601578063c34b44a01461061d578063c87b56dd146106395761021c565b80638ac6d217116100f45780638ac6d2171461054f5780638da5cb5b1461056d57806395d89b411461058b578063a22cb465146105a9578063a87d942c146105c55761021c565b806370dea79a146104db578063715018a6146104f95780637df73e271461050357806388bc76ba146105335761021c565b806346e116a6116101a85780636352211e116101775780636352211e1461040b57806363c724f71461043b57806365cacaa4146104575780636b467d151461047557806370a08231146104ab5761021c565b806346e116a6146103715780634b9ba446146103a157806358439479146103bd5780636028421f146103db5761021c565b806312fa3bf1116101ef57806312fa3bf1146102bb578063207b8b53146102eb57806323b872dd1461031b57806325117b721461033757806342842e0e146103555761021c565b806301ffc9a71461022157806306fdde0314610251578063081812fc1461026f578063095ea7b31461029f575b600080fd5b61023b600480360381019061023691906137e0565b610721565b6040516102489190613828565b60405180910390f35b610259610803565b60405161026691906138dc565b60405180910390f35b61028960048036038101906102849190613934565b610895565b60405161029691906139a2565b60405180910390f35b6102b960048036038101906102b491906139e9565b6108db565b005b6102d560048036038101906102d09190613a81565b6109f3565b6040516102e29190613abd565b60405180910390f35b61030560048036038101906103009190613afc565b610a36565b6040516103129190613abd565b60405180910390f35b61033560048036038101906103309190613bb2565b610afb565b005b61033f610b5b565b60405161034c9190613c21565b60405180910390f35b61036f600480360381019061036a9190613bb2565b610b83565b005b61038b60048036038101906103869190613c3c565b610ba3565b6040516103989190613abd565b60405180910390f35b6103bb60048036038101906103b69190613ce3565b610bbb565b005b6103c5610d57565b6040516103d29190613abd565b60405180910390f35b6103f560048036038101906103f09190613d10565b610d61565b6040516104029190613abd565b60405180910390f35b61042560048036038101906104209190613934565b610d79565b60405161043291906139a2565b60405180910390f35b61045560048036038101906104509190613d77565b610e00565b005b61045f610ed3565b60405161046c91906139a2565b60405180910390f35b61048f600480360381019061048a9190613ce3565b610efb565b6040516104a29796959493929190613db3565b60405180910390f35b6104c560048036038101906104c09190613d77565b610f28565b6040516104d29190613abd565b60405180910390f35b6104e3610fe0565b6040516104f09190613abd565b60405180910390f35b610501611004565b005b61051d60048036038101906105189190613d77565b611018565b60405161052a9190613828565b60405180910390f35b61054d60048036038101906105489190613a81565b61102a565b005b6105576112a8565b6040516105649190613abd565b60405180910390f35b6105756112b2565b60405161058291906139a2565b60405180910390f35b6105936112db565b6040516105a091906138dc565b60405180910390f35b6105c360048036038101906105be9190613e4e565b61136d565b005b6105cd611383565b6040516105da9190613e9d565b60405180910390f35b6105eb611392565b6040516105f891906139a2565b60405180910390f35b61061b60048036038101906106169190613fed565b6113ba565b005b61063760048036038101906106329190613d77565b61141c565b005b610653600480360381019061064e9190613934565b6114ef565b60405161066091906138dc565b60405180910390f35b610671611518565b60405161067e9190613abd565b60405180910390f35b6106a1600480360381019061069c9190613ce3565b611522565b6040516106ae9190613abd565b60405180910390f35b6106d160048036038101906106cc9190614070565b611534565b6040516106de9190613828565b60405180910390f35b61070160048036038101906106fc9190613d77565b6115c8565b005b61070b61164c565b6040516107189190613abd565b60405180910390f35b60007f80ac58cd000000000000000000000000000000000000000000000000000000007bffffffffffffffffffffffffffffffffffffffffffffffffffffffff1916827bffffffffffffffffffffffffffffffffffffffffffffffffffffffff191614806107ec57507f5b5e139f000000000000000000000000000000000000000000000000000000007bffffffffffffffffffffffffffffffffffffffffffffffffffffffff1916827bffffffffffffffffffffffffffffffffffffffffffffffffffffffff1916145b806107fc57506107fb82611670565b5b9050919050565b606060018054610812906140df565b80601f016020809104026020016040519081016040528092919081815260200182805461083e906140df565b801561088b5780601f106108605761010080835404028352916020019161088b565b820191906000526020600020905b81548152906001019060200180831161086e57829003601f168201915b5050505050905090565b60006108a0826116da565b6005600083815260200190815260200160002060009054906101000a900473ffffffffffffffffffffffffffffffffffffffff169050919050565b60006108e682610d79565b90508073ffffffffffffffffffffffffffffffffffffffff168373ffffffffffffffffffffffffffffffffffffffff161415610957576040517f08c379a000000000000000000000000000000000000000000000000000000000815260040161094e90614183565b60405180910390fd5b8073ffffffffffffffffffffffffffffffffffffffff16610976611725565b73ffffffffffffffffffffffffffffffffffffffff1614806109a557506109a48161099f611725565b611534565b5b6109e4576040517f08c379a00000000000000000000000000000000000000000000000000000000081526004016109db90614215565b60405180910390fd5b6109ee838361172d565b505050565b6000600a6000836fffffffffffffffffffffffffffffffff19166fffffffffffffffffffffffffffffffff19168152602001908152602001600020549050919050565b600080898989888888604051602001610a5496959493929190614277565b60405160208183030381529060405280519060200120905060011515610a7a82856117e6565b151514610abc576040517f08c379a0000000000000000000000000000000000000000000000000000000008152600401610ab390614333565b60405180910390fd5b6000610aca8a8a8a8a6118b5565b905060008111610add57610adc614353565b5b610aeb8a8a8a8989866118f4565b9250505098975050505050505050565b610b0c610b06611725565b82611fd6565b610b4b576040517f08c379a0000000000000000000000000000000000000000000000000000000008152600401610b42906143f4565b60405180910390fd5b610b5683838361206b565b505050565b60007f0000000000000000000000000000000000000000000000000000000000000000905090565b610b9e838383604051806020016040528060008152506113ba565b505050565b6000610bb185858585612365565b9050949350505050565b600060088267ffffffffffffffff1681548110610bdb57610bda614414565b5b90600052602060002090600502016040518060e00160405290816000820160009054906101000a900460801b6fffffffffffffffffffffffffffffffff19166fffffffffffffffffffffffffffffffff191681526020016000820160109054906101000a900460801b6fffffffffffffffffffffffffffffffff19166fffffffffffffffffffffffffffffffff191681526020016001820154815260200160028201548152602001600382015481526020016004820160009054906101000a900460ff161515151581526020016004820160019054906101000a900473ffffffffffffffffffffffffffffffffffffffff1673ffffffffffffffffffffffffffffffffffffffff1673ffffffffffffffffffffffffffffffffffffffff16815250509050600015158160a00151151514610d4a576040517f08c379a0000000000000000000000000000000000000000000000000000000008152600401610d419061448f565b60405180910390fd5b610d53826124db565b5050565b6000600d54905090565b6000610d6f858585856118b5565b9050949350505050565b600080610d8583612753565b9050600073ffffffffffffffffffffffffffffffffffffffff168173ffffffffffffffffffffffffffffffffffffffff161415610df7576040517f08c379a0000000000000000000000000000000000000000000000000000000008152600401610dee906144fb565b60405180910390fd5b80915050919050565b610e08612790565b600073ffffffffffffffffffffffffffffffffffffffff168173ffffffffffffffffffffffffffffffffffffffff161415610e78576040517f08c379a0000000000000000000000000000000000000000000000000000000008152600401610e6f9061458d565b60405180910390fd5b6001600f60008373ffffffffffffffffffffffffffffffffffffffff1673ffffffffffffffffffffffffffffffffffffffff16815260200190815260200160002060006101000a81548160ff02191690831515021790555050565b60007f0000000000000000000000000000000000000000000000000000000000000000905090565b6000806000806000806000610f0f8861280e565b9650965096509650965096509650919395979092949650565b60008073ffffffffffffffffffffffffffffffffffffffff168273ffffffffffffffffffffffffffffffffffffffff161415610f99576040517f08c379a0000000000000000000000000000000000000000000000000000000008152600401610f909061461f565b60405180910390fd5b600460008373ffffffffffffffffffffffffffffffffffffffff1673ffffffffffffffffffffffffffffffffffffffff168152602001908152602001600020549050919050565b7f000000000000000000000000000000000000000000000000000000000000000081565b61100c612790565b6110166000612999565b565b600061102382612a5d565b9050919050565b600060096000836fffffffffffffffffffffffffffffffff19166fffffffffffffffffffffffffffffffff191681526020019081526020016000208054806020026020016040519081016040528092919081815260200182805480156110e357602002820191906000526020600020906000905b82829054906101000a900467ffffffffffffffff1667ffffffffffffffff168152602001906008019060208260070104928301926001038202915080841161109e5790505b5050505050905060008151905060005b818167ffffffffffffffff1610156112a2576000838267ffffffffffffffff168151811061112457611123614414565b5b60200260200101519050600060088267ffffffffffffffff168154811061114e5761114d614414565b5b90600052602060002090600502016040518060e00160405290816000820160009054906101000a900460801b6fffffffffffffffffffffffffffffffff19166fffffffffffffffffffffffffffffffff191681526020016000820160109054906101000a900460801b6fffffffffffffffffffffffffffffffff19166fffffffffffffffffffffffffffffffff191681526020016001820154815260200160028201548152602001600382015481526020016004820160009054906101000a900460ff161515151581526020016004820160019054906101000a900473ffffffffffffffffffffffffffffffffffffffff1673ffffffffffffffffffffffffffffffffffffffff1673ffffffffffffffffffffffffffffffffffffffff16815250509050600015158160a001511515141561128d5761128c826124db565b5b5050808061129a9061466e565b9150506110f3565b50505050565b6000600e54905090565b60008060009054906101000a900473ffffffffffffffffffffffffffffffffffffffff16905090565b6060600280546112ea906140df565b80601f0160208091040260200160405190810160405280929190818152602001828054611316906140df565b80156113635780601f1061133857610100808354040283529160200191611363565b820191906000526020600020905b81548152906001019060200180831161134657829003601f168201915b5050505050905090565b61137f611378611725565b8383612ab3565b5050565b600061138d612c20565b905090565b60007f0000000000000000000000000000000000000000000000000000000000000000905090565b6113cb6113c5611725565b83611fd6565b61140a576040517f08c379a0000000000000000000000000000000000000000000000000000000008152600401611401906143f4565b60405180910390fd5b61141684848484612c2d565b50505050565b611424612790565b600073ffffffffffffffffffffffffffffffffffffffff168173ffffffffffffffffffffffffffffffffffffffff161415611494576040517f08c379a000000000000000000000000000000000000000000000000000000000815260040161148b90614711565b60405180910390fd5b6000600f60008373ffffffffffffffffffffffffffffffffffffffff1673ffffffffffffffffffffffffffffffffffffffff16815260200190815260200160002060006101000a81548160ff02191690831515021790555050565b6060816040516020016115029190614788565b6040516020818303038152906040529050919050565b6000600754905090565b600061152d82612c89565b9050919050565b6000600660008473ffffffffffffffffffffffffffffffffffffffff1673ffffffffffffffffffffffffffffffffffffffff16815260200190815260200160002060008373ffffffffffffffffffffffffffffffffffffffff1673ffffffffffffffffffffffffffffffffffffffff16815260200190815260200160002060009054906101000a900460ff16905092915050565b6115d0612790565b600073ffffffffffffffffffffffffffffffffffffffff168173ffffffffffffffffffffffffffffffffffffffff161415611640576040517f08c379a000000000000000000000000000000000000000000000000000000000815260040161163790614820565b60405180910390fd5b61164981612999565b50565b7f000000000000000000000000000000000000000000000000000000000000000081565b60007f01ffc9a7000000000000000000000000000000000000000000000000000000007bffffffffffffffffffffffffffffffffffffffffffffffffffffffff1916827bffffffffffffffffffffffffffffffffffffffffffffffffffffffff1916149050919050565b6116e381612ced565b611722576040517f08c379a0000000000000000000000000000000000000000000000000000000008152600401611719906144fb565b60405180910390fd5b50565b600033905090565b816005600083815260200190815260200160002060006101000a81548173ffffffffffffffffffffffffffffffffffffffff021916908373ffffffffffffffffffffffffffffffffffffffff160217905550808273ffffffffffffffffffffffffffffffffffffffff166117a083610d79565b73ffffffffffffffffffffffffffffffffffffffff167f8c5be1e5ebec7d5bd14f71427d1e84f3dd0314c0f7b2291e5b200ac8c7c3b92560405160405180910390a45050565b60008073__$47464c6f7588c8075b5d384b19d082a8ec$__635cff288d85856040518363ffffffff1660e01b8152600401611822929190614957565b602060405180830381865af415801561183f573d6000803e3d6000fd5b505050506040513d601f19601f820116820180604052508101906118639190614995565b9050600073ffffffffffffffffffffffffffffffffffffffff168173ffffffffffffffffffffffffffffffffffffffff1614156118a3576118a2614353565b5b6118ac81612a5d565b91505092915050565b6000806118c484848888612365565b90506118e984620f424086846118da91906149c2565b6118e49190614a4b565b612d2e565b915050949350505050565b6000428311801561190457508342115b611943576040517f08c379a000000000000000000000000000000000000000000000000000000000815260040161193a90614ac8565b60405180910390fd5b600015157f000000000000000000000000000000000000000000000000000000000000000073ffffffffffffffffffffffffffffffffffffffff166306c77ce7888a6040518363ffffffff1660e01b81526004016119a2929190614ae8565b602060405180830381865afa1580156119bf573d6000803e3d6000fd5b505050506040513d601f19601f820116820180604052508101906119e39190614b26565b151514611a25576040517f08c379a0000000000000000000000000000000000000000000000000000000008152600401611a1c90614bc5565b60405180910390fd5b60007f000000000000000000000000000000000000000000000000000000000000000073ffffffffffffffffffffffffffffffffffffffff166338d52e0f6040518163ffffffff1660e01b8152600401602060405180830381865afa158015611a92573d6000803e3d6000fd5b505050506040513d601f19601f82011682018060405250810190611ab69190614995565b90508073ffffffffffffffffffffffffffffffffffffffff166323b872dd611adc611725565b7f0000000000000000000000000000000000000000000000000000000000000000896040518463ffffffff1660e01b8152600401611b1c93929190614be5565b6020604051808303816000875af1158015611b3b573d6000803e3d6000fd5b505050506040513d601f19601f82011682018060405250810190611b5f9190614b26565b508073ffffffffffffffffffffffffffffffffffffffff166323b872dd7f00000000000000000000000000000000000000000000000000000000000000007f00000000000000000000000000000000000000000000000000000000000000008987611bca9190614c1c565b6040518463ffffffff1660e01b8152600401611be893929190614be5565b6020604051808303816000875af1158015611c07573d6000803e3d6000fd5b505050506040513d601f19601f82011682018060405250810190611c2b9190614b26565b5085600a6000896fffffffffffffffffffffffffffffffff19166fffffffffffffffffffffffffffffffff191681526020019081526020016000206000828254611c759190614c50565b9250508190555082600c60008a6fffffffffffffffffffffffffffffffff19166fffffffffffffffffffffffffffffffff191681526020019081526020016000206000828254611cc59190614c50565b925050819055506000611cd6612c20565b905060086040518060e001604052808b6fffffffffffffffffffffffffffffffff191681526020018a6fffffffffffffffffffffffffffffffff19168152602001898152602001868152602001878152602001600015158152602001611d3a611725565b73ffffffffffffffffffffffffffffffffffffffff16815250908060018154018082558091505060019003906000526020600020906005020160009091909190915060008201518160000160006101000a8154816fffffffffffffffffffffffffffffffff021916908360801c021790555060208201518160000160106101000a8154816fffffffffffffffffffffffffffffffff021916908360801c021790555060408201518160010155606082015181600201556080820151816003015560a08201518160040160006101000a81548160ff02191690831515021790555060c08201518160040160016101000a81548173ffffffffffffffffffffffffffffffffffffffff021916908373ffffffffffffffffffffffffffffffffffffffff160217905550505060096000896fffffffffffffffffffffffffffffffff19166fffffffffffffffffffffffffffffffff191681526020019081526020016000208190806001815401808255809150506001900390600052602060002090600491828204019190066008029091909190916101000a81548167ffffffffffffffff021916908367ffffffffffffffff160217905550611f0b611efb611725565b8267ffffffffffffffff16612d47565b86600d6000828254611f1d9190614c50565b925050819055508684611f309190614c1c565b600e6000828254611f419190614c50565b9250508190555060076000815480929190611f5b90614ca6565b9190505550611f68611725565b73ffffffffffffffffffffffffffffffffffffffff167f1d273ea6a1aea94de32fd06a09ab8046dff8e3261c5a4ecaa5e1a5705f3342ec828b8b8b89604051611fb5959493929190614d2a565b60405180910390a28067ffffffffffffffff16925050509695505050505050565b600080611fe283610d79565b90508073ffffffffffffffffffffffffffffffffffffffff168473ffffffffffffffffffffffffffffffffffffffff16148061202457506120238185611534565b5b8061206257508373ffffffffffffffffffffffffffffffffffffffff1661204a84610895565b73ffffffffffffffffffffffffffffffffffffffff16145b91505092915050565b8273ffffffffffffffffffffffffffffffffffffffff1661208b82610d79565b73ffffffffffffffffffffffffffffffffffffffff16146120e1576040517f08c379a00000000000000000000000000000000000000000000000000000000081526004016120d890614def565b60405180910390fd5b600073ffffffffffffffffffffffffffffffffffffffff168273ffffffffffffffffffffffffffffffffffffffff161415612151576040517f08c379a000000000000000000000000000000000000000000000000000000000815260040161214890614e81565b60405180910390fd5b61215e8383836001612f65565b8273ffffffffffffffffffffffffffffffffffffffff1661217e82610d79565b73ffffffffffffffffffffffffffffffffffffffff16146121d4576040517f08c379a00000000000000000000000000000000000000000000000000000000081526004016121cb90614def565b60405180910390fd5b6005600082815260200190815260200160002060006101000a81549073ffffffffffffffffffffffffffffffffffffffff02191690556001600460008573ffffffffffffffffffffffffffffffffffffffff1673ffffffffffffffffffffffffffffffffffffffff168152602001908152602001600020600082825403925050819055506001600460008473ffffffffffffffffffffffffffffffffffffffff1673ffffffffffffffffffffffffffffffffffffffff16815260200190815260200160002060008282540192505081905550816003600083815260200190815260200160002060006101000a81548173ffffffffffffffffffffffffffffffffffffffff021916908373ffffffffffffffffffffffffffffffffffffffff160217905550808273ffffffffffffffffffffffffffffffffffffffff168473ffffffffffffffffffffffffffffffffffffffff167fddf252ad1be2c89b69c2b068fc378daa952ba7f163c4a11628f55a4df523b3ef60405160405180910390a4612360838383600161308b565b505050565b6000600185111580612378575060018411155b1561238657600190506124d3565b60007f000000000000000000000000000000000000000000000000000000000000000073ffffffffffffffffffffffffffffffffffffffff1663b15031fa6040518163ffffffff1660e01b8152600401602060405180830381865afa1580156123f3573d6000803e3d6000fd5b505050506040513d601f19601f820116820180604052508101906124179190614eb6565b9050600081141561242c5760019150506124d3565b80600c6000866fffffffffffffffffffffffffffffffff19166fffffffffffffffffffffffffffffffff191681526020019081526020016000205411156124775760019150506124d3565b600c6000856fffffffffffffffffffffffffffffffff19166fffffffffffffffffffffffffffffffff1916815260200190815260200160002054816124bc9190614c1c565b905060006124cb878784613091565b905080925050505b949350505050565b600160088267ffffffffffffffff16815481106124fb576124fa614414565b5b906000526020600020906005020160040160006101000a81548160ff02191690831515021790555061252c81612c89565b42111561254d576125488167ffffffffffffffff166001613118565b612750565b600060088267ffffffffffffffff168154811061256d5761256c614414565b5b90600052602060002090600502016040518060e00160405290816000820160009054906101000a900460801b6fffffffffffffffffffffffffffffffff19166fffffffffffffffffffffffffffffffff191681526020016000820160109054906101000a900460801b6fffffffffffffffffffffffffffffffff19166fffffffffffffffffffffffffffffffff191681526020016001820154815260200160028201548152602001600382015481526020016004820160009054906101000a900460ff161515151581526020016004820160019054906101000a900473ffffffffffffffffffffffffffffffffffffffff1673ffffffffffffffffffffffffffffffffffffffff1673ffffffffffffffffffffffffffffffffffffffff1681525050905060007f000000000000000000000000000000000000000000000000000000000000000073ffffffffffffffffffffffffffffffffffffffff166306c77ce7836020015184600001516040518363ffffffff1660e01b81526004016126f6929190614ae8565b602060405180830381865afa158015612713573d6000803e3d6000fd5b505050506040513d601f19601f820116820180604052508101906127379190614b26565b905061274d8367ffffffffffffffff1682613118565b50505b50565b60006003600083815260200190815260200160002060009054906101000a900473ffffffffffffffffffffffffffffffffffffffff169050919050565b612798611725565b73ffffffffffffffffffffffffffffffffffffffff166127b66112b2565b73ffffffffffffffffffffffffffffffffffffffff161461280c576040517f08c379a000000000000000000000000000000000000000000000000000000000815260040161280390614f2f565b60405180910390fd5b565b60008060008060008060008060088967ffffffffffffffff168154811061283857612837614414565b5b90600052602060002090600502016040518060e00160405290816000820160009054906101000a900460801b6fffffffffffffffffffffffffffffffff19166fffffffffffffffffffffffffffffffff191681526020016000820160109054906101000a900460801b6fffffffffffffffffffffffffffffffff19166fffffffffffffffffffffffffffffffff191681526020016001820154815260200160028201548152602001600382015481526020016004820160009054906101000a900460ff161515151581526020016004820160019054906101000a900473ffffffffffffffffffffffffffffffffffffffff1673ffffffffffffffffffffffffffffffffffffffff1673ffffffffffffffffffffffffffffffffffffffff168152505090508060400151816060015182608001518360a001518460c0015185602001518660000151975097509750975097509750975050919395979092949650565b60008060009054906101000a900473ffffffffffffffffffffffffffffffffffffffff169050816000806101000a81548173ffffffffffffffffffffffffffffffffffffffff021916908373ffffffffffffffffffffffffffffffffffffffff1602179055508173ffffffffffffffffffffffffffffffffffffffff168173ffffffffffffffffffffffffffffffffffffffff167f8be0079c531659141344cd1fd0a4f28419497f9722a3daafe3b4186f6b6457e060405160405180910390a35050565b6000600f60008373ffffffffffffffffffffffffffffffffffffffff1673ffffffffffffffffffffffffffffffffffffffff16815260200190815260200160002060009054906101000a900460ff169050919050565b8173ffffffffffffffffffffffffffffffffffffffff168373ffffffffffffffffffffffffffffffffffffffff161415612b22576040517f08c379a0000000000000000000000000000000000000000000000000000000008152600401612b1990614f9b565b60405180910390fd5b80600660008573ffffffffffffffffffffffffffffffffffffffff1673ffffffffffffffffffffffffffffffffffffffff16815260200190815260200160002060008473ffffffffffffffffffffffffffffffffffffffff1673ffffffffffffffffffffffffffffffffffffffff16815260200190815260200160002060006101000a81548160ff0219169083151502179055508173ffffffffffffffffffffffffffffffffffffffff168373ffffffffffffffffffffffffffffffffffffffff167f17307eab39ab6107e8899845ad3d59bd9653f200f220920489ca2b5937696c3183604051612c139190613828565b60405180910390a3505050565b6000600880549050905090565b612c3884848461206b565b612c448484848461347b565b612c83576040517f08c379a0000000000000000000000000000000000000000000000000000000008152600401612c7a9061502d565b60405180910390fd5b50505050565b60007f000000000000000000000000000000000000000000000000000000000000000060088367ffffffffffffffff1681548110612cca57612cc9614414565b5b906000526020600020906005020160030154612ce69190614c50565b9050919050565b60008073ffffffffffffffffffffffffffffffffffffffff16612d0f83612753565b73ffffffffffffffffffffffffffffffffffffffff1614159050919050565b6000818311612d3d5781612d3f565b825b905092915050565b600073ffffffffffffffffffffffffffffffffffffffff168273ffffffffffffffffffffffffffffffffffffffff161415612db7576040517f08c379a0000000000000000000000000000000000000000000000000000000008152600401612dae90615099565b60405180910390fd5b612dc081612ced565b15612e00576040517f08c379a0000000000000000000000000000000000000000000000000000000008152600401612df790615105565b60405180910390fd5b612e0e600083836001612f65565b612e1781612ced565b15612e57576040517f08c379a0000000000000000000000000000000000000000000000000000000008152600401612e4e90615105565b60405180910390fd5b6001600460008473ffffffffffffffffffffffffffffffffffffffff1673ffffffffffffffffffffffffffffffffffffffff16815260200190815260200160002060008282540192505081905550816003600083815260200190815260200160002060006101000a81548173ffffffffffffffffffffffffffffffffffffffff021916908373ffffffffffffffffffffffffffffffffffffffff160217905550808273ffffffffffffffffffffffffffffffffffffffff16600073ffffffffffffffffffffffffffffffffffffffff167fddf252ad1be2c89b69c2b068fc378daa952ba7f163c4a11628f55a4df523b3ef60405160405180910390a4612f6160008383600161308b565b5050565b600181111561308557600073ffffffffffffffffffffffffffffffffffffffff168473ffffffffffffffffffffffffffffffffffffffff1614612ff95780600460008673ffffffffffffffffffffffffffffffffffffffff1673ffffffffffffffffffffffffffffffffffffffff1681526020019081526020016000206000828254612ff19190614c1c565b925050819055505b600073ffffffffffffffffffffffffffffffffffffffff168373ffffffffffffffffffffffffffffffffffffffff16146130845780600460008573ffffffffffffffffffffffffffffffffffffffff1673ffffffffffffffffffffffffffffffffffffffff168152602001908152602001600020600082825461307c9190614c50565b925050819055505b5b50505050565b50505050565b600073__$488e0037c7b108d422da68056570fe35d6$__63a19dec438585856040518463ffffffff1660e01b81526004016130ce93929190615134565b602060405180830381865af41580156130eb573d6000803e3d6000fd5b505050506040513d601f19601f8201168201806040525081019061310f9190614eb6565b90509392505050565b426008838154811061312d5761312c614414565b5b9060005260206000209060050201600301541061317f576040517f08c379a0000000000000000000000000000000000000000000000000000000008152600401613176906151b7565b60405180910390fd5b6008828154811061319357613192614414565b5b906000526020600020906005020160010154600d60008282546131b69190614c1c565b92505081905550600882815481106131d1576131d0614414565b5b906000526020600020906005020160010154600883815481106131f7576131f6614414565b5b9060005260206000209060050201600201546132139190614c1c565b600e60008282546132249190614c1c565b925050819055506007600081548092919061323e906151d7565b919050555060007f000000000000000000000000000000000000000000000000000000000000000073ffffffffffffffffffffffffffffffffffffffff166338d52e0f6040518163ffffffff1660e01b8152600401602060405180830381865afa1580156132b0573d6000803e3d6000fd5b505050506040513d601f19601f820116820180604052508101906132d49190614995565b90506000600884815481106132ec576132eb614414565b5b906000526020600020906005020160040160019054906101000a900473ffffffffffffffffffffffffffffffffffffffff169050600015158315151415613351577f000000000000000000000000000000000000000000000000000000000000000090505b8173ffffffffffffffffffffffffffffffffffffffff1663a9059cbb826008878154811061338257613381614414565b5b9060005260206000209060050201600201546040518363ffffffff1660e01b81526004016133b1929190615201565b6020604051808303816000875af11580156133d0573d6000803e3d6000fd5b505050506040513d601f19601f820116820180604052508101906133f49190614b26565b506133fe84613603565b8073ffffffffffffffffffffffffffffffffffffffff167f08a2a3d90b4a86017a5adf7503073c6b2b44051c48e9844a336190c9793c4af9856008878154811061344b5761344a614414565b5b9060005260206000209060050201600201548660405161346d9392919061522a565b60405180910390a250505050565b600061349c8473ffffffffffffffffffffffffffffffffffffffff16613751565b156135f6578373ffffffffffffffffffffffffffffffffffffffff1663150b7a026134c5611725565b8786866040518563ffffffff1660e01b81526004016134e794939291906152b6565b6020604051808303816000875af192505050801561352357506040513d601f19601f820116820180604052508101906135209190615317565b60015b6135a6573d8060008114613553576040519150601f19603f3d011682016040523d82523d6000602084013e613558565b606091505b5060008151141561359e576040517f08c379a00000000000000000000000000000000000000000000000000000000081526004016135959061502d565b60405180910390fd5b805181602001fd5b63150b7a0260e01b7bffffffffffffffffffffffffffffffffffffffffffffffffffffffff1916817bffffffffffffffffffffffffffffffffffffffffffffffffffffffff1916149150506135fb565b600190505b949350505050565b600061360e82610d79565b905061361e816000846001612f65565b61362782610d79565b90506005600083815260200190815260200160002060006101000a81549073ffffffffffffffffffffffffffffffffffffffff02191690556001600460008373ffffffffffffffffffffffffffffffffffffffff1673ffffffffffffffffffffffffffffffffffffffff168152602001908152602001600020600082825403925050819055506003600083815260200190815260200160002060006101000a81549073ffffffffffffffffffffffffffffffffffffffff021916905581600073ffffffffffffffffffffffffffffffffffffffff168273ffffffffffffffffffffffffffffffffffffffff167fddf252ad1be2c89b69c2b068fc378daa952ba7f163c4a11628f55a4df523b3ef60405160405180910390a461374d81600084600161308b565b5050565b6000808273ffffffffffffffffffffffffffffffffffffffff163b119050919050565b6000604051905090565b600080fd5b600080fd5b60007fffffffff0000000000000000000000000000000000000000000000000000000082169050919050565b6137bd81613788565b81146137c857600080fd5b50565b6000813590506137da816137b4565b92915050565b6000602082840312156137f6576137f561377e565b5b6000613804848285016137cb565b91505092915050565b60008115159050919050565b6138228161380d565b82525050565b600060208201905061383d6000830184613819565b92915050565b600081519050919050565b600082825260208201905092915050565b60005b8381101561387d578082015181840152602081019050613862565b8381111561388c576000848401525b50505050565b6000601f19601f8301169050919050565b60006138ae82613843565b6138b8818561384e565b93506138c881856020860161385f565b6138d181613892565b840191505092915050565b600060208201905081810360008301526138f681846138a3565b905092915050565b6000819050919050565b613911816138fe565b811461391c57600080fd5b50565b60008135905061392e81613908565b92915050565b60006020828403121561394a5761394961377e565b5b60006139588482850161391f565b91505092915050565b600073ffffffffffffffffffffffffffffffffffffffff82169050919050565b600061398c82613961565b9050919050565b61399c81613981565b82525050565b60006020820190506139b76000830184613993565b92915050565b6139c681613981565b81146139d157600080fd5b50565b6000813590506139e3816139bd565b92915050565b60008060408385031215613a00576139ff61377e565b5b6000613a0e858286016139d4565b9250506020613a1f8582860161391f565b9150509250929050565b60007fffffffffffffffffffffffffffffffff0000000000000000000000000000000082169050919050565b613a5e81613a29565b8114613a6957600080fd5b50565b600081359050613a7b81613a55565b92915050565b600060208284031215613a9757613a9661377e565b5b6000613aa584828501613a6c565b91505092915050565b613ab7816138fe565b82525050565b6000602082019050613ad26000830184613aae565b92915050565b600080fd5b600060608284031215613af357613af2613ad8565b5b81905092915050565b600080600080600080600080610140898b031215613b1d57613b1c61377e565b5b6000613b2b8b828c01613a6c565b9850506020613b3c8b828c01613a6c565b9750506040613b4d8b828c01613a6c565b9650506060613b5e8b828c0161391f565b9550506080613b6f8b828c0161391f565b94505060a0613b808b828c0161391f565b93505060c0613b918b828c0161391f565b92505060e0613ba28b828c01613add565b9150509295985092959890939650565b600080600060608486031215613bcb57613bca61377e565b5b6000613bd9868287016139d4565b9350506020613bea868287016139d4565b9250506040613bfb8682870161391f565b9150509250925092565b600060ff82169050919050565b613c1b81613c05565b82525050565b6000602082019050613c366000830184613c12565b92915050565b60008060008060808587031215613c5657613c5561377e565b5b6000613c648782880161391f565b9450506020613c758782880161391f565b9350506040613c8687828801613a6c565b9250506060613c9787828801613a6c565b91505092959194509250565b600067ffffffffffffffff82169050919050565b613cc081613ca3565b8114613ccb57600080fd5b50565b600081359050613cdd81613cb7565b92915050565b600060208284031215613cf957613cf861377e565b5b6000613d0784828501613cce565b91505092915050565b60008060008060808587031215613d2a57613d2961377e565b5b6000613d3887828801613a6c565b9450506020613d4987828801613a6c565b9350506040613d5a8782880161391f565b9250506060613d6b8782880161391f565b91505092959194509250565b600060208284031215613d8d57613d8c61377e565b5b6000613d9b848285016139d4565b91505092915050565b613dad81613a29565b82525050565b600060e082019050613dc8600083018a613aae565b613dd56020830189613aae565b613de26040830188613aae565b613def6060830187613819565b613dfc6080830186613993565b613e0960a0830185613da4565b613e1660c0830184613da4565b98975050505050505050565b613e2b8161380d565b8114613e3657600080fd5b50565b600081359050613e4881613e22565b92915050565b60008060408385031215613e6557613e6461377e565b5b6000613e73858286016139d4565b9250506020613e8485828601613e39565b9150509250929050565b613e9781613ca3565b82525050565b6000602082019050613eb26000830184613e8e565b92915050565b600080fd5b600080fd5b7f4e487b7100000000000000000000000000000000000000000000000000000000600052604160045260246000fd5b613efa82613892565b810181811067ffffffffffffffff82111715613f1957613f18613ec2565b5b80604052505050565b6000613f2c613774565b9050613f388282613ef1565b919050565b600067ffffffffffffffff821115613f5857613f57613ec2565b5b613f6182613892565b9050602081019050919050565b82818337600083830152505050565b6000613f90613f8b84613f3d565b613f22565b905082815260208101848484011115613fac57613fab613ebd565b5b613fb7848285613f6e565b509392505050565b600082601f830112613fd457613fd3613eb8565b5b8135613fe4848260208601613f7d565b91505092915050565b600080600080608085870312156140075761400661377e565b5b6000614015878288016139d4565b9450506020614026878288016139d4565b93505060406140378782880161391f565b925050606085013567ffffffffffffffff81111561405857614057613783565b5b61406487828801613fbf565b91505092959194509250565b600080604083850312156140875761408661377e565b5b6000614095858286016139d4565b92505060206140a6858286016139d4565b9150509250929050565b7f4e487b7100000000000000000000000000000000000000000000000000000000600052602260045260246000fd5b600060028204905060018216806140f757607f821691505b6020821081141561410b5761410a6140b0565b5b50919050565b7f4552433732313a20617070726f76616c20746f2063757272656e74206f776e6560008201527f7200000000000000000000000000000000000000000000000000000000000000602082015250565b600061416d60218361384e565b915061417882614111565b604082019050919050565b6000602082019050818103600083015261419c81614160565b9050919050565b7f4552433732313a20617070726f76652063616c6c6572206973206e6f7420746f60008201527f6b656e206f776e6572206f7220617070726f76656420666f7220616c6c000000602082015250565b60006141ff603d8361384e565b915061420a826141a3565b604082019050919050565b6000602082019050818103600083015261422e816141f2565b9050919050565b6000819050919050565b61425061424b82613a29565b614235565b82525050565b6000819050919050565b61427161426c826138fe565b614256565b82525050565b6000614283828961423f565b601082019150614293828861423f565b6010820191506142a3828761423f565b6010820191506142b38286614260565b6020820191506142c38285614260565b6020820191506142d38284614260565b602082019150819050979650505050505050565b7f6261636b3a20496e76616c6964207369676e6174757265000000000000000000600082015250565b600061431d60178361384e565b9150614328826142e7565b602082019050919050565b6000602082019050818103600083015261434c81614310565b9050919050565b7f4e487b7100000000000000000000000000000000000000000000000000000000600052600160045260246000fd5b7f4552433732313a2063616c6c6572206973206e6f7420746f6b656e206f776e6560008201527f72206f7220617070726f76656400000000000000000000000000000000000000602082015250565b60006143de602d8361384e565b91506143e982614382565b604082019050919050565b6000602082019050818103600083015261440d816143d1565b9050919050565b7f4e487b7100000000000000000000000000000000000000000000000000000000600052603260045260246000fd5b7f736574746c653a204265742068617320616c726561647920736574746c656400600082015250565b6000614479601f8361384e565b915061448482614443565b602082019050919050565b600060208201905081810360008301526144a88161446c565b9050919050565b7f4552433732313a20696e76616c696420746f6b656e2049440000000000000000600082015250565b60006144e560188361384e565b91506144f0826144af565b602082019050919050565b60006020820190508181036000830152614514816144d8565b9050919050565b7f6772616e745369676e65723a20496e76616c6964207369676e6572206164647260008201527f6573730000000000000000000000000000000000000000000000000000000000602082015250565b600061457760238361384e565b91506145828261451b565b604082019050919050565b600060208201905081810360008301526145a68161456a565b9050919050565b7f4552433732313a2061646472657373207a65726f206973206e6f74206120766160008201527f6c6964206f776e65720000000000000000000000000000000000000000000000602082015250565b600061460960298361384e565b9150614614826145ad565b604082019050919050565b60006020820190508181036000830152614638816145fc565b9050919050565b7f4e487b7100000000000000000000000000000000000000000000000000000000600052601160045260246000fd5b600061467982613ca3565b915067ffffffffffffffff8214156146945761469361463f565b5b600182019050919050565b7f7265766f6b655369676e65723a20496e76616c6964207369676e65722061646460008201527f7265737300000000000000000000000000000000000000000000000000000000602082015250565b60006146fb60248361384e565b91506147068261469f565b604082019050919050565b6000602082019050818103600083015261472a816146ee565b9050919050565b600081905092915050565b7f68747470733a2f2f6170692e686f7273652e6c696e6b2f6265742f0000000000600082015250565b6000614772601b83614731565b915061477d8261473c565b601b82019050919050565b600061479382614765565b915061479f8284614260565b60208201915081905092915050565b7f4f776e61626c653a206e6577206f776e657220697320746865207a65726f206160008201527f6464726573730000000000000000000000000000000000000000000000000000602082015250565b600061480a60268361384e565b9150614815826147ae565b604082019050919050565b60006020820190508181036000830152614839816147fd565b9050919050565b6000819050919050565b61485381614840565b82525050565b61486281613c05565b811461486d57600080fd5b50565b60008135905061487f81614859565b92915050565b60006148946020840184614870565b905092915050565b6148a581613c05565b82525050565b6148b481614840565b81146148bf57600080fd5b50565b6000813590506148d1816148ab565b92915050565b60006148e660208401846148c2565b905092915050565b6148f781614840565b82525050565b6060820161490e6000830183614885565b61491b600085018261489c565b5061492960208301836148d7565b61493660208501826148ee565b5061494460408301836148d7565b61495160408501826148ee565b50505050565b600060808201905061496c600083018561484a565b61497960208301846148fd565b9392505050565b60008151905061498f816139bd565b92915050565b6000602082840312156149ab576149aa61377e565b5b60006149b984828501614980565b91505092915050565b60006149cd826138fe565b91506149d8836138fe565b9250817fffffffffffffffffffffffffffffffffffffffffffffffffffffffffffffffff0483118215151615614a1157614a1061463f565b5b828202905092915050565b7f4e487b7100000000000000000000000000000000000000000000000000000000600052601260045260246000fd5b6000614a56826138fe565b9150614a61836138fe565b925082614a7157614a70614a1c565b5b828204905092915050565b7f6261636b3a20496e76616c696420646174650000000000000000000000000000600082015250565b6000614ab260128361384e565b9150614abd82614a7c565b602082019050919050565b60006020820190508181036000830152614ae181614aa5565b9050919050565b6000604082019050614afd6000830185613da4565b614b0a6020830184613da4565b9392505050565b600081519050614b2081613e22565b92915050565b600060208284031215614b3c57614b3b61377e565b5b6000614b4a84828501614b11565b91505092915050565b7f6261636b3a204f7261636c6520726573756c7420616c7265616479207365742060008201527f666f722074686973206d61726b65740000000000000000000000000000000000602082015250565b6000614baf602f8361384e565b9150614bba82614b53565b604082019050919050565b60006020820190508181036000830152614bde81614ba2565b9050919050565b6000606082019050614bfa6000830186613993565b614c076020830185613993565b614c146040830184613aae565b949350505050565b6000614c27826138fe565b9150614c32836138fe565b925082821015614c4557614c4461463f565b5b828203905092915050565b6000614c5b826138fe565b9150614c66836138fe565b9250827fffffffffffffffffffffffffffffffffffffffffffffffffffffffffffffffff03821115614c9b57614c9a61463f565b5b828201905092915050565b6000614cb1826138fe565b91507fffffffffffffffffffffffffffffffffffffffffffffffffffffffffffffffff821415614ce457614ce361463f565b5b600182019050919050565b6000819050919050565b6000614d14614d0f614d0a84613ca3565b614cef565b6138fe565b9050919050565b614d2481614cf9565b82525050565b600060a082019050614d3f6000830188614d1b565b614d4c6020830187613da4565b614d596040830186613da4565b614d666060830185613aae565b614d736080830184613aae565b9695505050505050565b7f4552433732313a207472616e736665722066726f6d20696e636f72726563742060008201527f6f776e6572000000000000000000000000000000000000000000000000000000602082015250565b6000614dd960258361384e565b9150614de482614d7d565b604082019050919050565b60006020820190508181036000830152614e0881614dcc565b9050919050565b7f4552433732313a207472616e7366657220746f20746865207a65726f2061646460008201527f7265737300000000000000000000000000000000000000000000000000000000602082015250565b6000614e6b60248361384e565b9150614e7682614e0f565b604082019050919050565b60006020820190508181036000830152614e9a81614e5e565b9050919050565b600081519050614eb081613908565b92915050565b600060208284031215614ecc57614ecb61377e565b5b6000614eda84828501614ea1565b91505092915050565b7f4f776e61626c653a2063616c6c6572206973206e6f7420746865206f776e6572600082015250565b6000614f1960208361384e565b9150614f2482614ee3565b602082019050919050565b60006020820190508181036000830152614f4881614f0c565b9050919050565b7f4552433732313a20617070726f766520746f2063616c6c657200000000000000600082015250565b6000614f8560198361384e565b9150614f9082614f4f565b602082019050919050565b60006020820190508181036000830152614fb481614f78565b9050919050565b7f4552433732313a207472616e7366657220746f206e6f6e20455243373231526560008201527f63656976657220696d706c656d656e7465720000000000000000000000000000602082015250565b600061501760328361384e565b915061502282614fbb565b604082019050919050565b600060208201905081810360008301526150468161500a565b9050919050565b7f4552433732313a206d696e7420746f20746865207a65726f2061646472657373600082015250565b600061508360208361384e565b915061508e8261504d565b602082019050919050565b600060208201905081810360008301526150b281615076565b9050919050565b7f4552433732313a20746f6b656e20616c7265616479206d696e74656400000000600082015250565b60006150ef601c8361384e565b91506150fa826150b9565b602082019050919050565b6000602082019050818103600083015261511e816150e2565b9050919050565b61512e816138fe565b82525050565b60006060820190506151496000830186615125565b6151566020830185615125565b6151636040830184615125565b949350505050565b7f5f736574746c653a205061796f75742064617465206e6f742072656163686564600082015250565b60006151a160208361384e565b91506151ac8261516b565b602082019050919050565b600060208201905081810360008301526151d081615194565b9050919050565b60006151e2826138fe565b915060008214156151f6576151f561463f565b5b600182039050919050565b60006040820190506152166000830185613993565b6152236020830184613aae565b9392505050565b600060608201905061523f6000830186613aae565b61524c6020830185613aae565b6152596040830184613819565b949350505050565b600081519050919050565b600082825260208201905092915050565b600061528882615261565b615292818561526c565b93506152a281856020860161385f565b6152ab81613892565b840191505092915050565b60006080820190506152cb6000830187613993565b6152d86020830186613993565b6152e56040830185613aae565b81810360608301526152f7818461527d565b905095945050505050565b600081519050615311816137b4565b92915050565b60006020828403121561532d5761532c61377e565b5b600061533b84828501615302565b9150509291505056fea26469706673582212201521b36a880923b71d4956941684744dc7f2eb71664c4290c7af330716b6536964736f6c634300080a0033",
  "libraries": {
    "SignatureLib": "0x2686e2ec431b90b5c5b21408771ebf377dbb07bd",
    "OddsLib": "0x1C3A4A0FACbdC8237469C312E3B121E8A97864c0"
  },
  "devdoc": {
    "kind": "dev",
    "methods": {
      "approve(address,uint256)": {
        "details": "See {IERC721-approve}."
      },
      "balanceOf(address)": {
        "details": "See {IERC721-balanceOf}."
      },
      "getApproved(uint256)": {
        "details": "See {IERC721-getApproved}."
      },
      "isApprovedForAll(address,address)": {
        "details": "See {IERC721-isApprovedForAll}."
      },
      "name()": {
        "details": "See {IERC721Metadata-name}."
      },
      "owner()": {
        "details": "Returns the address of the current owner."
      },
      "ownerOf(uint256)": {
        "details": "See {IERC721-ownerOf}."
      },
      "renounceOwnership()": {
        "details": "Leaves the contract without owner. It will not be possible to call `onlyOwner` functions anymore. Can only be called by the current owner. NOTE: Renouncing ownership will leave the contract without an owner, thereby removing any functionality that is only available to the owner."
      },
      "safeTransferFrom(address,address,uint256)": {
        "details": "See {IERC721-safeTransferFrom}."
      },
      "safeTransferFrom(address,address,uint256,bytes)": {
        "details": "See {IERC721-safeTransferFrom}."
      },
      "setApprovalForAll(address,bool)": {
        "details": "See {IERC721-setApprovalForAll}."
      },
      "supportsInterface(bytes4)": {
        "details": "See {IERC165-supportsInterface}."
      },
      "symbol()": {
        "details": "See {IERC721Metadata-symbol}."
      },
      "tokenURI(uint256)": {
        "details": "See {IERC721Metadata-tokenURI}."
      },
      "transferFrom(address,address,uint256)": {
        "details": "See {IERC721-transferFrom}."
      },
      "transferOwnership(address)": {
        "details": "Transfers ownership of the contract to a new account (`newOwner`). Can only be called by the current owner."
      }
    },
    "version": 1
  },
  "userdoc": {
    "kind": "user",
    "methods": {},
    "version": 1
  },
  "storageLayout": {
    "storage": [
      {
        "astId": 2722,
        "contract": "contracts/Market.sol:Market",
        "label": "_owner",
        "offset": 0,
        "slot": "0",
        "type": "t_address"
      },
      {
        "astId": 5038,
        "contract": "contracts/Market.sol:Market",
        "label": "_name",
        "offset": 0,
        "slot": "1",
        "type": "t_string_storage"
      },
      {
        "astId": 5040,
        "contract": "contracts/Market.sol:Market",
        "label": "_symbol",
        "offset": 0,
        "slot": "2",
        "type": "t_string_storage"
      },
      {
        "astId": 5044,
        "contract": "contracts/Market.sol:Market",
        "label": "_owners",
        "offset": 0,
        "slot": "3",
        "type": "t_mapping(t_uint256,t_address)"
      },
      {
        "astId": 5048,
        "contract": "contracts/Market.sol:Market",
        "label": "_balances",
        "offset": 0,
        "slot": "4",
        "type": "t_mapping(t_address,t_uint256)"
      },
      {
        "astId": 5052,
        "contract": "contracts/Market.sol:Market",
        "label": "_tokenApprovals",
        "offset": 0,
        "slot": "5",
        "type": "t_mapping(t_uint256,t_address)"
      },
      {
        "astId": 5058,
        "contract": "contracts/Market.sol:Market",
        "label": "_operatorApprovals",
        "offset": 0,
        "slot": "6",
        "type": "t_mapping(t_address,t_mapping(t_address,t_bool))"
      },
      {
        "astId": 8443,
        "contract": "contracts/Market.sol:Market",
        "label": "_inplayCount",
        "offset": 0,
        "slot": "7",
        "type": "t_uint256"
      },
      {
        "astId": 8447,
        "contract": "contracts/Market.sol:Market",
        "label": "_bets",
        "offset": 0,
        "slot": "8",
        "type": "t_array(t_struct(Bet)8425_storage)dyn_storage"
      },
      {
        "astId": 8452,
        "contract": "contracts/Market.sol:Market",
        "label": "_marketBets",
        "offset": 0,
        "slot": "9",
        "type": "t_mapping(t_bytes16,t_array(t_uint64)dyn_storage)"
      },
      {
        "astId": 8456,
        "contract": "contracts/Market.sol:Market",
        "label": "_marketTotal",
        "offset": 0,
        "slot": "10",
        "type": "t_mapping(t_bytes16,t_uint256)"
      },
      {
        "astId": 8462,
        "contract": "contracts/Market.sol:Market",
        "label": "_marketBetAmount",
        "offset": 0,
        "slot": "11",
        "type": "t_mapping(t_bytes16,t_mapping(t_uint16,t_uint256))"
      },
      {
        "astId": 8466,
        "contract": "contracts/Market.sol:Market",
        "label": "_potentialPayout",
        "offset": 0,
        "slot": "12",
        "type": "t_mapping(t_bytes16,t_uint256)"
      },
      {
        "astId": 8468,
        "contract": "contracts/Market.sol:Market",
        "label": "_totalInPlay",
        "offset": 0,
        "slot": "13",
        "type": "t_uint256"
      },
      {
        "astId": 8470,
        "contract": "contracts/Market.sol:Market",
        "label": "_totalExposure",
        "offset": 0,
        "slot": "14",
        "type": "t_uint256"
      },
      {
        "astId": 8478,
        "contract": "contracts/Market.sol:Market",
        "label": "_signers",
        "offset": 0,
        "slot": "15",
        "type": "t_mapping(t_address,t_bool)"
      }
    ],
    "types": {
      "t_address": {
        "encoding": "inplace",
        "label": "address",
        "numberOfBytes": "20"
      },
      "t_array(t_struct(Bet)8425_storage)dyn_storage": {
        "base": "t_struct(Bet)8425_storage",
        "encoding": "dynamic_array",
        "label": "struct Bet[]",
        "numberOfBytes": "32"
      },
      "t_array(t_uint64)dyn_storage": {
        "base": "t_uint64",
        "encoding": "dynamic_array",
        "label": "uint64[]",
        "numberOfBytes": "32"
      },
      "t_bool": {
        "encoding": "inplace",
        "label": "bool",
        "numberOfBytes": "1"
      },
      "t_bytes16": {
        "encoding": "inplace",
        "label": "bytes16",
        "numberOfBytes": "16"
      },
      "t_mapping(t_address,t_bool)": {
        "encoding": "mapping",
        "key": "t_address",
        "label": "mapping(address => bool)",
        "numberOfBytes": "32",
        "value": "t_bool"
      },
      "t_mapping(t_address,t_mapping(t_address,t_bool))": {
        "encoding": "mapping",
        "key": "t_address",
        "label": "mapping(address => mapping(address => bool))",
        "numberOfBytes": "32",
        "value": "t_mapping(t_address,t_bool)"
      },
      "t_mapping(t_address,t_uint256)": {
        "encoding": "mapping",
        "key": "t_address",
        "label": "mapping(address => uint256)",
        "numberOfBytes": "32",
        "value": "t_uint256"
      },
      "t_mapping(t_bytes16,t_array(t_uint64)dyn_storage)": {
        "encoding": "mapping",
        "key": "t_bytes16",
        "label": "mapping(bytes16 => uint64[])",
        "numberOfBytes": "32",
        "value": "t_array(t_uint64)dyn_storage"
      },
      "t_mapping(t_bytes16,t_mapping(t_uint16,t_uint256))": {
        "encoding": "mapping",
        "key": "t_bytes16",
        "label": "mapping(bytes16 => mapping(uint16 => uint256))",
        "numberOfBytes": "32",
        "value": "t_mapping(t_uint16,t_uint256)"
      },
      "t_mapping(t_bytes16,t_uint256)": {
        "encoding": "mapping",
        "key": "t_bytes16",
        "label": "mapping(bytes16 => uint256)",
        "numberOfBytes": "32",
        "value": "t_uint256"
      },
      "t_mapping(t_uint16,t_uint256)": {
        "encoding": "mapping",
        "key": "t_uint16",
        "label": "mapping(uint16 => uint256)",
        "numberOfBytes": "32",
        "value": "t_uint256"
      },
      "t_mapping(t_uint256,t_address)": {
        "encoding": "mapping",
        "key": "t_uint256",
        "label": "mapping(uint256 => address)",
        "numberOfBytes": "32",
        "value": "t_address"
      },
      "t_string_storage": {
        "encoding": "bytes",
        "label": "string",
        "numberOfBytes": "32"
      },
      "t_struct(Bet)8425_storage": {
        "encoding": "inplace",
        "label": "struct Bet",
        "members": [
          {
            "astId": 8412,
            "contract": "contracts/Market.sol:Market",
            "label": "propositionId",
            "offset": 0,
            "slot": "0",
            "type": "t_bytes16"
          },
          {
            "astId": 8414,
            "contract": "contracts/Market.sol:Market",
            "label": "marketId",
            "offset": 16,
            "slot": "0",
            "type": "t_bytes16"
          },
          {
            "astId": 8416,
            "contract": "contracts/Market.sol:Market",
            "label": "amount",
            "offset": 0,
            "slot": "1",
            "type": "t_uint256"
          },
          {
            "astId": 8418,
            "contract": "contracts/Market.sol:Market",
            "label": "payout",
            "offset": 0,
            "slot": "2",
            "type": "t_uint256"
          },
          {
            "astId": 8420,
            "contract": "contracts/Market.sol:Market",
            "label": "payoutDate",
            "offset": 0,
            "slot": "3",
            "type": "t_uint256"
          },
          {
            "astId": 8422,
            "contract": "contracts/Market.sol:Market",
            "label": "settled",
            "offset": 0,
            "slot": "4",
            "type": "t_bool"
          },
          {
            "astId": 8424,
            "contract": "contracts/Market.sol:Market",
            "label": "owner",
            "offset": 1,
            "slot": "4",
            "type": "t_address"
          }
        ],
        "numberOfBytes": "160"
      },
      "t_uint16": {
        "encoding": "inplace",
        "label": "uint16",
        "numberOfBytes": "2"
      },
      "t_uint256": {
        "encoding": "inplace",
        "label": "uint256",
        "numberOfBytes": "32"
      },
      "t_uint64": {
        "encoding": "inplace",
        "label": "uint64",
        "numberOfBytes": "8"
      }
    }
  }
}