{
  "address": "0xE700AaAad0918d7650bc512c7C079b413466Ea6c",
  "abi": [
    {
      "inputs": [
        {
          "internalType": "contract IVault",
          "name": "vault",
          "type": "address"
        },
        {
          "internalType": "uint8",
          "name": "fee",
          "type": "uint8"
        },
        {
          "internalType": "uint8",
          "name": "timeoutDays",
          "type": "uint8"
        },
        {
          "internalType": "address",
          "name": "oracle",
          "type": "address"
        }
      ],
      "stateMutability": "nonpayable",
      "type": "constructor"
    },
    {
      "anonymous": false,
      "inputs": [
        {
          "indexed": true,
          "internalType": "address",
          "name": "owner",
          "type": "address"
        },
        {
          "indexed": true,
          "internalType": "address",
          "name": "approved",
          "type": "address"
        },
        {
          "indexed": true,
          "internalType": "uint256",
          "name": "tokenId",
          "type": "uint256"
        }
      ],
      "name": "Approval",
      "type": "event"
    },
    {
      "anonymous": false,
      "inputs": [
        {
          "indexed": true,
          "internalType": "address",
          "name": "owner",
          "type": "address"
        },
        {
          "indexed": true,
          "internalType": "address",
          "name": "operator",
          "type": "address"
        },
        {
          "indexed": false,
          "internalType": "bool",
          "name": "approved",
          "type": "bool"
        }
      ],
      "name": "ApprovalForAll",
      "type": "event"
    },
    {
      "anonymous": false,
      "inputs": [
        {
          "indexed": true,
          "internalType": "address",
          "name": "previousOwner",
          "type": "address"
        },
        {
          "indexed": true,
          "internalType": "address",
          "name": "newOwner",
          "type": "address"
        }
      ],
      "name": "OwnershipTransferred",
      "type": "event"
    },
    {
      "anonymous": false,
      "inputs": [
        {
          "indexed": false,
          "internalType": "uint256",
          "name": "index",
          "type": "uint256"
        },
        {
          "indexed": false,
          "internalType": "bytes16",
          "name": "propositionId",
          "type": "bytes16"
        },
        {
          "indexed": false,
          "internalType": "bytes16",
          "name": "marketId",
          "type": "bytes16"
        },
        {
          "indexed": false,
          "internalType": "uint256",
          "name": "amount",
          "type": "uint256"
        },
        {
          "indexed": false,
          "internalType": "uint256",
          "name": "payout",
          "type": "uint256"
        },
        {
          "indexed": true,
          "internalType": "address",
          "name": "owner",
          "type": "address"
        }
      ],
      "name": "Placed",
      "type": "event"
    },
    {
      "anonymous": false,
      "inputs": [
        {
          "indexed": false,
          "internalType": "uint256",
          "name": "index",
          "type": "uint256"
        },
        {
          "indexed": false,
          "internalType": "uint256",
          "name": "payout",
          "type": "uint256"
        },
        {
          "indexed": false,
          "internalType": "uint8",
          "name": "result",
          "type": "uint8"
        },
        {
          "indexed": true,
          "internalType": "address",
          "name": "recipient",
          "type": "address"
        }
      ],
      "name": "Settled",
      "type": "event"
    },
    {
      "anonymous": false,
      "inputs": [
        {
          "indexed": true,
          "internalType": "address",
          "name": "from",
          "type": "address"
        },
        {
          "indexed": true,
          "internalType": "address",
          "name": "to",
          "type": "address"
        },
        {
          "indexed": true,
          "internalType": "uint256",
          "name": "tokenId",
          "type": "uint256"
        }
      ],
      "name": "Transfer",
      "type": "event"
    },
    {
      "inputs": [
        {
          "internalType": "address",
          "name": "to",
          "type": "address"
        },
        {
          "internalType": "uint256",
          "name": "tokenId",
          "type": "uint256"
        }
      ],
      "name": "approve",
      "outputs": [],
      "stateMutability": "nonpayable",
      "type": "function"
    },
    {
      "inputs": [
        {
          "components": [
            {
              "internalType": "bytes16",
              "name": "nonce",
              "type": "bytes16"
            },
            {
              "internalType": "bytes16",
              "name": "propositionId",
              "type": "bytes16"
            },
            {
              "internalType": "bytes16",
              "name": "marketId",
              "type": "bytes16"
            },
            {
              "internalType": "uint256",
              "name": "wager",
              "type": "uint256"
            },
            {
              "internalType": "uint256",
              "name": "odds",
              "type": "uint256"
            },
            {
              "internalType": "uint256",
              "name": "close",
              "type": "uint256"
            },
            {
              "internalType": "uint256",
              "name": "end",
              "type": "uint256"
            },
            {
              "components": [
                {
                  "internalType": "uint8",
                  "name": "v",
                  "type": "uint8"
                },
                {
                  "internalType": "bytes32",
                  "name": "r",
                  "type": "bytes32"
                },
                {
                  "internalType": "bytes32",
                  "name": "s",
                  "type": "bytes32"
                }
              ],
              "internalType": "struct SignatureLib.Signature",
              "name": "signature",
              "type": "tuple"
            }
          ],
          "internalType": "struct IMarket.Back",
          "name": "backData",
          "type": "tuple"
        }
      ],
      "name": "back",
      "outputs": [
        {
          "internalType": "uint256",
          "name": "",
          "type": "uint256"
        }
      ],
      "stateMutability": "nonpayable",
      "type": "function"
    },
    {
      "inputs": [
        {
          "internalType": "address",
          "name": "owner",
          "type": "address"
        }
      ],
      "name": "balanceOf",
      "outputs": [
        {
          "internalType": "uint256",
          "name": "",
          "type": "uint256"
        }
      ],
      "stateMutability": "view",
      "type": "function"
    },
    {
      "inputs": [],
      "name": "baseURI",
      "outputs": [
        {
          "internalType": "string",
          "name": "",
          "type": "string"
        }
      ],
      "stateMutability": "view",
      "type": "function"
    },
    {
      "inputs": [
        {
          "internalType": "uint256",
          "name": "tokenId",
          "type": "uint256"
        }
      ],
      "name": "getApproved",
      "outputs": [
        {
          "internalType": "address",
          "name": "",
          "type": "address"
        }
      ],
      "stateMutability": "view",
      "type": "function"
    },
    {
      "inputs": [
        {
          "internalType": "uint64",
          "name": "index",
          "type": "uint64"
        }
      ],
      "name": "getBetByIndex",
      "outputs": [
        {
          "internalType": "uint256",
          "name": "",
          "type": "uint256"
        },
        {
          "internalType": "uint256",
          "name": "",
          "type": "uint256"
        },
        {
          "internalType": "uint256",
          "name": "",
          "type": "uint256"
        },
        {
          "internalType": "uint256",
          "name": "",
          "type": "uint256"
        },
        {
          "internalType": "bool",
          "name": "",
          "type": "bool"
        },
        {
          "internalType": "bytes16",
          "name": "",
          "type": "bytes16"
        },
        {
          "internalType": "bytes16",
          "name": "",
          "type": "bytes16"
        }
      ],
      "stateMutability": "view",
      "type": "function"
    },
    {
      "inputs": [],
      "name": "getCount",
      "outputs": [
        {
          "internalType": "uint64",
          "name": "",
          "type": "uint64"
        }
      ],
      "stateMutability": "view",
      "type": "function"
    },
    {
      "inputs": [
        {
          "internalType": "uint64",
          "name": "index",
          "type": "uint64"
        }
      ],
      "name": "getExpiry",
      "outputs": [
        {
          "internalType": "uint256",
          "name": "",
          "type": "uint256"
        }
      ],
      "stateMutability": "view",
      "type": "function"
    },
    {
      "inputs": [],
      "name": "getInPlayCount",
      "outputs": [
        {
          "internalType": "uint256",
          "name": "",
          "type": "uint256"
        }
      ],
      "stateMutability": "view",
      "type": "function"
    },
    {
      "inputs": [],
      "name": "getMargin",
      "outputs": [
        {
          "internalType": "uint8",
          "name": "",
          "type": "uint8"
        }
      ],
      "stateMutability": "view",
      "type": "function"
    },
    {
      "inputs": [
        {
          "internalType": "bytes16",
          "name": "marketId",
          "type": "bytes16"
        }
      ],
      "name": "getMarketCollateral",
      "outputs": [
        {
          "internalType": "uint256",
          "name": "",
          "type": "uint256"
        }
      ],
      "stateMutability": "view",
      "type": "function"
    },
    {
      "inputs": [
        {
          "internalType": "bytes16",
          "name": "marketId",
          "type": "bytes16"
        }
      ],
      "name": "getMarketTotal",
      "outputs": [
        {
          "internalType": "uint256",
          "name": "",
          "type": "uint256"
        }
      ],
      "stateMutability": "view",
      "type": "function"
    },
    {
      "inputs": [
        {
          "internalType": "uint256",
          "name": "wager",
          "type": "uint256"
        },
        {
          "internalType": "uint256",
          "name": "odds",
          "type": "uint256"
        },
        {
          "internalType": "bytes16",
          "name": "propositionId",
          "type": "bytes16"
        },
        {
          "internalType": "bytes16",
          "name": "marketId",
          "type": "bytes16"
        }
      ],
      "name": "getOdds",
      "outputs": [
        {
          "internalType": "uint256",
          "name": "",
          "type": "uint256"
        }
      ],
      "stateMutability": "view",
      "type": "function"
    },
    {
      "inputs": [],
      "name": "getOracleAddress",
      "outputs": [
        {
          "internalType": "address",
          "name": "",
          "type": "address"
        }
      ],
      "stateMutability": "view",
      "type": "function"
    },
    {
      "inputs": [
        {
          "internalType": "bytes16",
          "name": "propositionId",
          "type": "bytes16"
        },
        {
          "internalType": "bytes16",
          "name": "marketId",
          "type": "bytes16"
        },
        {
          "internalType": "uint256",
          "name": "wager",
          "type": "uint256"
        },
        {
          "internalType": "uint256",
          "name": "odds",
          "type": "uint256"
        }
      ],
      "name": "getPotentialPayout",
      "outputs": [
        {
          "internalType": "uint256",
          "name": "",
          "type": "uint256"
        }
      ],
      "stateMutability": "view",
      "type": "function"
    },
    {
      "inputs": [],
      "name": "getTotalExposure",
      "outputs": [
        {
          "internalType": "uint256",
          "name": "",
          "type": "uint256"
        }
      ],
      "stateMutability": "view",
      "type": "function"
    },
    {
      "inputs": [],
      "name": "getTotalInPlay",
      "outputs": [
        {
          "internalType": "uint256",
          "name": "",
          "type": "uint256"
        }
      ],
      "stateMutability": "view",
      "type": "function"
    },
    {
      "inputs": [],
      "name": "getVaultAddress",
      "outputs": [
        {
          "internalType": "address",
          "name": "",
          "type": "address"
        }
      ],
      "stateMutability": "view",
      "type": "function"
    },
    {
      "inputs": [
        {
          "internalType": "address",
          "name": "signer",
          "type": "address"
        }
      ],
      "name": "grantSigner",
      "outputs": [],
      "stateMutability": "nonpayable",
      "type": "function"
    },
    {
      "inputs": [
        {
          "internalType": "address",
          "name": "owner",
          "type": "address"
        },
        {
          "internalType": "address",
          "name": "operator",
          "type": "address"
        }
      ],
      "name": "isApprovedForAll",
      "outputs": [
        {
          "internalType": "bool",
          "name": "",
          "type": "bool"
        }
      ],
      "stateMutability": "view",
      "type": "function"
    },
    {
      "inputs": [
        {
          "internalType": "address",
          "name": "signer",
          "type": "address"
        }
      ],
      "name": "isSigner",
      "outputs": [
        {
          "internalType": "bool",
          "name": "",
          "type": "bool"
        }
      ],
      "stateMutability": "view",
      "type": "function"
    },
    {
      "inputs": [
        {
          "components": [
            {
              "internalType": "bytes16",
              "name": "nonce",
              "type": "bytes16"
            },
            {
              "internalType": "bytes16",
              "name": "propositionId",
              "type": "bytes16"
            },
            {
              "internalType": "bytes16",
              "name": "marketId",
              "type": "bytes16"
            },
            {
              "internalType": "uint256",
              "name": "wager",
              "type": "uint256"
            },
            {
              "internalType": "uint256",
              "name": "odds",
              "type": "uint256"
            },
            {
              "internalType": "uint256",
              "name": "close",
              "type": "uint256"
            },
            {
              "internalType": "uint256",
              "name": "end",
              "type": "uint256"
            },
            {
              "components": [
                {
                  "internalType": "uint8",
                  "name": "v",
                  "type": "uint8"
                },
                {
                  "internalType": "bytes32",
                  "name": "r",
                  "type": "bytes32"
                },
                {
                  "internalType": "bytes32",
                  "name": "s",
                  "type": "bytes32"
                }
              ],
              "internalType": "struct SignatureLib.Signature",
              "name": "signature",
              "type": "tuple"
            }
          ],
          "internalType": "struct IMarket.Back[]",
          "name": "backArray",
          "type": "tuple[]"
        }
      ],
      "name": "multiBack",
      "outputs": [
        {
          "internalType": "uint256[]",
          "name": "",
          "type": "uint256[]"
        }
      ],
      "stateMutability": "nonpayable",
      "type": "function"
    },
    {
      "inputs": [],
      "name": "name",
      "outputs": [
        {
          "internalType": "string",
          "name": "",
          "type": "string"
        }
      ],
      "stateMutability": "view",
      "type": "function"
    },
    {
      "inputs": [],
      "name": "owner",
      "outputs": [
        {
          "internalType": "address",
          "name": "",
          "type": "address"
        }
      ],
      "stateMutability": "view",
      "type": "function"
    },
    {
      "inputs": [
        {
          "internalType": "uint256",
          "name": "tokenId",
          "type": "uint256"
        }
      ],
      "name": "ownerOf",
      "outputs": [
        {
          "internalType": "address",
          "name": "",
          "type": "address"
        }
      ],
      "stateMutability": "view",
      "type": "function"
    },
    {
      "inputs": [],
      "name": "refundCollateral",
      "outputs": [],
      "stateMutability": "nonpayable",
      "type": "function"
    },
    {
      "inputs": [],
      "name": "renounceOwnership",
      "outputs": [],
      "stateMutability": "nonpayable",
      "type": "function"
    },
    {
      "inputs": [
        {
          "internalType": "address",
          "name": "signer",
          "type": "address"
        }
      ],
      "name": "revokeSigner",
      "outputs": [],
      "stateMutability": "nonpayable",
      "type": "function"
    },
    {
      "inputs": [
        {
          "internalType": "address",
          "name": "from",
          "type": "address"
        },
        {
          "internalType": "address",
          "name": "to",
          "type": "address"
        },
        {
          "internalType": "uint256",
          "name": "tokenId",
          "type": "uint256"
        }
      ],
      "name": "safeTransferFrom",
      "outputs": [],
      "stateMutability": "nonpayable",
      "type": "function"
    },
    {
      "inputs": [
        {
          "internalType": "address",
          "name": "from",
          "type": "address"
        },
        {
          "internalType": "address",
          "name": "to",
          "type": "address"
        },
        {
          "internalType": "uint256",
          "name": "tokenId",
          "type": "uint256"
        },
        {
          "internalType": "bytes",
          "name": "data",
          "type": "bytes"
        }
      ],
      "name": "safeTransferFrom",
      "outputs": [],
      "stateMutability": "nonpayable",
      "type": "function"
    },
    {
      "inputs": [
        {
          "internalType": "address",
          "name": "operator",
          "type": "address"
        },
        {
          "internalType": "bool",
          "name": "approved",
          "type": "bool"
        }
      ],
      "name": "setApprovalForAll",
      "outputs": [],
      "stateMutability": "nonpayable",
      "type": "function"
    },
    {
      "inputs": [
        {
          "internalType": "uint64",
          "name": "index",
          "type": "uint64"
        }
      ],
      "name": "settle",
      "outputs": [],
      "stateMutability": "nonpayable",
      "type": "function"
    },
    {
      "inputs": [
        {
          "internalType": "bytes16",
          "name": "marketId",
          "type": "bytes16"
        }
      ],
      "name": "settleMarket",
      "outputs": [],
      "stateMutability": "nonpayable",
      "type": "function"
    },
    {
      "inputs": [
        {
          "internalType": "bytes4",
          "name": "interfaceId",
          "type": "bytes4"
        }
      ],
      "name": "supportsInterface",
      "outputs": [
        {
          "internalType": "bool",
          "name": "",
          "type": "bool"
        }
      ],
      "stateMutability": "view",
      "type": "function"
    },
    {
      "inputs": [],
      "name": "symbol",
      "outputs": [
        {
          "internalType": "string",
          "name": "",
          "type": "string"
        }
      ],
      "stateMutability": "view",
      "type": "function"
    },
    {
      "inputs": [],
      "name": "timeout",
      "outputs": [
        {
          "internalType": "uint256",
          "name": "",
          "type": "uint256"
        }
      ],
      "stateMutability": "view",
      "type": "function"
    },
    {
      "inputs": [
        {
          "internalType": "uint256",
          "name": "tokenId",
          "type": "uint256"
        }
      ],
      "name": "tokenURI",
      "outputs": [
        {
          "internalType": "string",
          "name": "",
          "type": "string"
        }
      ],
      "stateMutability": "view",
      "type": "function"
    },
    {
      "inputs": [
        {
          "internalType": "address",
          "name": "from",
          "type": "address"
        },
        {
          "internalType": "address",
          "name": "to",
          "type": "address"
        },
        {
          "internalType": "uint256",
          "name": "tokenId",
          "type": "uint256"
        }
      ],
      "name": "transferFrom",
      "outputs": [],
      "stateMutability": "nonpayable",
      "type": "function"
    },
    {
      "inputs": [
        {
          "internalType": "address",
          "name": "newOwner",
          "type": "address"
        }
      ],
      "name": "transferOwnership",
      "outputs": [],
      "stateMutability": "nonpayable",
      "type": "function"
    }
  ],
  "transactionHash": "0x38e493950e70d676684e2aee194f3977c7835eba4101d68c502ba4870c0ac52d",
  "args": [
    "0x218E7147c3ac5ecC78AAb8258256b114624b768E",
    0,
    1,
    "0xA32b09d8673B999475c21208393F215a27Ee9e74"
  ],
  "numDeployments": 1,
  "solcInputHash": "e430a217775a15930c97f34bb2bb74b5",
  "bytecode": "0x6101206040523480156200001257600080fd5b5060405162004358380380620043588339810160408190526200003591620001ee565b838383836040518060400160405280601381526020017f486f727365204c696e6b2042657420536c6970000000000000000000000000008152506040518060400160405280600681526020016512130b50915560d21b815250620000a8620000a26200016a60201b60201c565b6200016e565b6001620000b68382620002f4565b506002620000c58282620002f4565b5050506001600160a01b038416620000e157620000e1620003c0565b3060c0526001600160a01b0384811660a05260ff8416608052811660e0526001600f6000620001186000546001600160a01b031690565b6001600160a01b031681526020810191909152604001600020805460ff19169115159190911790556200015260ff831662015180620003d6565b62ffffff166101005250620004109650505050505050565b3390565b600080546001600160a01b038381166001600160a01b0319831681178455604051919092169283917f8be0079c531659141344cd1fd0a4f28419497f9722a3daafe3b4186f6b6457e09190a35050565b6001600160a01b0381168114620001d457600080fd5b50565b805160ff81168114620001e957600080fd5b919050565b600080600080608085870312156200020557600080fd5b84516200021281620001be565b93506200022260208601620001d7565b92506200023260408601620001d7565b915060608501516200024481620001be565b939692955090935050565b634e487b7160e01b600052604160045260246000fd5b600181811c908216806200027a57607f821691505b6020821081036200029b57634e487b7160e01b600052602260045260246000fd5b50919050565b601f821115620002ef57600081815260208120601f850160051c81016020861015620002ca5750805b601f850160051c820191505b81811015620002eb57828155600101620002d6565b5050505b505050565b81516001600160401b038111156200031057620003106200024f565b620003288162000321845462000265565b84620002a1565b602080601f831160018114620003605760008415620003475750858301515b600019600386901b1c1916600185901b178555620002eb565b600085815260208120601f198616915b82811015620003915788860151825594840194600190910190840162000370565b5085821015620003b05787850151600019600388901b60f8161c191681555b5050505050600190811b01905550565b634e487b7160e01b600052600160045260246000fd5b600062ffffff808316818516818304811182151516156200040757634e487b7160e01b600052601160045260246000fd5b02949350505050565b60805160a05160c05160e05161010051613e93620004c56000396000818161047a01526124fc01526000818161055d0152818161188601528181611cdd0152612ace01526000818161121901528181611e77015261303c0152600081816103bf015281816108b801528181610948015281816116370152818161190901528181611dbf015281816127080152818161283b015281816129f301528181612f7d0152613014015260006103190152613e936000f3fe608060405234801561001057600080fd5b506004361061023d5760003560e01c806370a082311161013b578063a22cb465116100b8578063c87b56dd1161007c578063c87b56dd146105a7578063c96121a8146105ba578063e4650fac146105c2578063e985e9c5146105d5578063f2fde38b1461061157600080fd5b8063a22cb46514610528578063a87d942c1461053b578063b18b78dd1461055b578063b88d4fde14610581578063c34b44a01461059457600080fd5b806388bc76ba116100ff57806388bc76ba146104ca5780638ac6d217146104dd5780638da5cb5b146104e557806395d89b41146104f6578063a166895e146104fe57600080fd5b806370a082311461046257806370dea79a14610475578063715018a61461049c5780637b5df1c9146104a45780637df73e27146104b757600080fd5b806346e116a6116101c957806363c724f71161018d57806363c724f7146103aa57806365cacaa4146103bd5780636b467d15146103e35780636c0360eb1461043a578063702595861461044257600080fd5b806346e116a6146103565780634b9ba44614610369578063584394791461037c5780636028421f146103845780636352211e1461039757600080fd5b806312fa3bf11161021057806312fa3bf1146102bf5780632098b7ff146102f757806323b872dd146102ff57806325117b721461031257806342842e0e1461034357600080fd5b806301ffc9a71461024257806306fdde031461026a578063081812fc1461027f578063095ea7b3146102aa575b600080fd5b6102556102503660046134b5565b610624565b60405190151581526020015b60405180910390f35b610272610676565b604051610261919061352a565b61029261028d36600461353d565b610708565b6040516001600160a01b039091168152602001610261565b6102bd6102b836600461356b565b61072f565b005b6102e96102cd3660046135ad565b6001600160801b0319166000908152600a602052604090205490565b604051908152602001610261565b6102bd610849565b6102bd61030d3660046135ca565b6109ef565b60405160ff7f0000000000000000000000000000000000000000000000000000000000000000168152602001610261565b6102bd6103513660046135ca565b610a20565b6102e961036436600461360b565b610a3b565b6102bd610377366004613655565b610a54565b600d546102e9565b6102e961039236600461367e565b610b4e565b6102926103a536600461353d565b610b5c565b6102bd6103b83660046136c4565b610bbc565b7f0000000000000000000000000000000000000000000000000000000000000000610292565b6103f66103f1366004613655565b610c4a565b604080519788526020880196909652948601939093526060850191909152151560808401526001600160801b031990811660a08401521660c082015260e001610261565b610272610c75565b6104556104503660046136e1565b610c91565b6040516102619190613756565b6102e96104703660046136c4565b610d4a565b6102e97f000000000000000000000000000000000000000000000000000000000000000081565b6102bd610dd0565b6102e96104b236600461379a565b610de4565b6102556104c53660046136c4565b610f4f565b6102bd6104d83660046135ad565b610f70565b600e546102e9565b6000546001600160a01b0316610292565b610272611112565b6102e961050c3660046135ad565b6001600160801b03191660009081526010602052604090205490565b6102bd6105363660046137c1565b611121565b61054361112c565b6040516001600160401b039091168152602001610261565b7f0000000000000000000000000000000000000000000000000000000000000000610292565b6102bd61058f36600461388a565b61113c565b6102bd6105a23660046136c4565b61116e565b6102726105b536600461353d565b6111f9565b6007546102e9565b6102e96105d0366004613655565b611279565b6102556105e336600461394d565b6001600160a01b03918216600090815260066020908152604080832093909416825291909152205460ff1690565b6102bd61061f3660046136c4565b611284565b60006001600160e01b031982166380ac58cd60e01b148061065557506001600160e01b03198216635b5e139f60e01b145b8061067057506301ffc9a760e01b6001600160e01b03198316145b92915050565b6060600180546106859061397b565b80601f01602080910402602001604051908101604052809291908181526020018280546106b19061397b565b80156106fe5780601f106106d3576101008083540402835291602001916106fe565b820191906000526020600020905b8154815290600101906020018083116106e157829003601f168201915b5050505050905090565b6000610713826112fd565b506000908152600560205260409020546001600160a01b031690565b600061073a82610b5c565b9050806001600160a01b0316836001600160a01b0316036107ac5760405162461bcd60e51b815260206004820152602160248201527f4552433732313a20617070726f76616c20746f2063757272656e74206f776e656044820152603960f91b60648201526084015b60405180910390fd5b336001600160a01b03821614806107c857506107c881336105e3565b61083a5760405162461bcd60e51b815260206004820152603d60248201527f4552433732313a20617070726f76652063616c6c6572206973206e6f7420746f60448201527f6b656e206f776e6572206f7220617070726f76656420666f7220616c6c00000060648201526084016107a3565b610844838361135c565b505050565b6108516113ca565b600e54601154116108b65760405162461bcd60e51b815260206004820152602960248201527f726566756e64436f6c6c61746572616c3a204e6f20636f6c6c61746572616c206044820152681d1bc81c99599d5b9960ba1b60648201526084016107a3565b7f00000000000000000000000000000000000000000000000000000000000000006001600160a01b03166338d52e0f6040518163ffffffff1660e01b8152600401602060405180830381865afa158015610914573d6000803e3d6000fd5b505050506040513d601f19601f8201168201806040525081019061093891906139af565b6001600160a01b031663a9059cbb7f0000000000000000000000000000000000000000000000000000000000000000600e5460115461097791906139e2565b6040516001600160e01b031960e085901b1681526001600160a01b03909216600483015260248201526044016020604051808303816000875af11580156109c2573d6000803e3d6000fd5b505050506040513d601f19601f820116820180604052508101906109e691906139f9565b50600e54601155565b6109f93382611424565b610a155760405162461bcd60e51b81526004016107a390613a16565b6108448383836114a2565b6108448383836040518060200160405280600081525061113c565b6000610a4985858585611613565b90505b949350505050565b60006008826001600160401b031681548110610a7257610a72613a63565b60009182526020918290206040805160e081018252600690930290910180546001600160801b0319608082811b82168652600160801b909204821b169484019490945260018101549183019190915260028101546060830152600381015492820192909252600482015460a082015260059091015460ff1615801560c0830152909150610b415760405162461bcd60e51b815260206004820152601f60248201527f736574746c653a204265742068617320616c726561647920736574746c65640060448201526064016107a3565b610b4a82611734565b5050565b6000610a4985858585611a5c565b6000818152600360205260408120546001600160a01b0316806106705760405162461bcd60e51b8152602060048201526018602482015277115490cdcc8c4e881a5b9d985b1a59081d1bdad95b88125160421b60448201526064016107a3565b610bc46113ca565b6001600160a01b038116610c265760405162461bcd60e51b815260206004820152602360248201527f6772616e745369676e65723a20496e76616c6964207369676e6572206164647260448201526265737360e81b60648201526084016107a3565b6001600160a01b03166000908152600f60205260409020805460ff19166001179055565b6000806000806000806000610c5e88611a98565b959e949d50929b5090995097509550909350915050565b604051806060016040528060228152602001613e3c6022913981565b60606000826001600160401b03811115610cad57610cad6137fa565b604051908082528060200260200182016040528015610cd6578160200160208202803683370190505b50905060005b60ff8116841115610d42573685858360ff16818110610cfd57610cfd613a63565b905061014002019050610d0f81610de4565b838360ff1681518110610d2457610d24613a63565b60209081029190910101525080610d3a81613a79565b915050610cdc565b509392505050565b60006001600160a01b038216610db45760405162461bcd60e51b815260206004820152602960248201527f4552433732313a2061646472657373207a65726f206973206e6f7420612076616044820152683634b21037bbb732b960b91b60648201526084016107a3565b506001600160a01b031660009081526004602052604090205490565b610dd86113ca565b610de26000611b5e565b565b600080610df460208401846135ad565b610e0460408501602086016135ad565b610e1460608601604087016135ad565b604080516001600160801b0319948516602082015292841660308401529216918101919091526080840135605082015260a0840135607082015260c0840135609082015260b001604051602081830303815290604052805190602001209050610e80818460e001611bae565b1515600114610ed15760405162461bcd60e51b815260206004820152601760248201527f6261636b3a20496e76616c6964207369676e617475726500000000000000000060448201526064016107a3565b6000610f05610ee660408601602087016135ad565b610ef660608701604088016135ad565b86606001358760800135611a5c565b905060008111610f1757610f17613a98565b610a4c610f2a60408601602087016135ad565b610f3a60608701604088016135ad565b86606001358760a001358860c0013586611c64565b6001600160a01b0381166000908152600f602052604081205460ff16610670565b6001600160801b0319811660009081526009602090815260408083208054825181850281018501909352808352919290919083018282801561100357602002820191906000526020600020906000905b82829054906101000a90046001600160401b03166001600160401b031681526020019060080190602082600701049283019260010382029150808411610fc05790505b505083519394506000925050505b81816001600160401b0316101561110c57600083826001600160401b03168151811061103f5761103f613a63565b6020026020010151905060006008826001600160401b03168154811061106757611067613a63565b600091825260208083206040805160e081018252600690940290910180546001600160801b0319608082811b82168752600160801b909204821b169385019390935260018101549184019190915260028101546060840152600381015491830191909152600481015460a08301526005015460ff16151560c0820181905290925090036110f7576110f782611734565b5050808061110490613aae565b915050611011565b50505050565b6060600280546106859061397b565b610b4a3383836121c3565b600061113760085490565b905090565b6111463383611424565b6111625760405162461bcd60e51b81526004016107a390613a16565b61110c84848484612291565b6111766113ca565b6001600160a01b0381166111d85760405162461bcd60e51b8152602060048201526024808201527f7265766f6b655369676e65723a20496e76616c6964207369676e6572206164646044820152637265737360e01b60648201526084016107a3565b6001600160a01b03166000908152600f60205260409020805460ff19169055565b6060604051806060016040528060228152602001613e3c602291396112487f00000000000000000000000000000000000000000000000000000000000000006001600160a01b031660146122c4565b61125184612466565b60405160200161126393929190613ad4565b6040516020818303038152906040529050919050565b6000610670826124f8565b61128c6113ca565b6001600160a01b0381166112f15760405162461bcd60e51b815260206004820152602660248201527f4f776e61626c653a206e6577206f776e657220697320746865207a65726f206160448201526564647265737360d01b60648201526084016107a3565b6112fa81611b5e565b50565b6000818152600360205260409020546001600160a01b03166112fa5760405162461bcd60e51b8152602060048201526018602482015277115490cdcc8c4e881a5b9d985b1a59081d1bdad95b88125160421b60448201526064016107a3565b600081815260056020526040902080546001600160a01b0319166001600160a01b038416908117909155819061139182610b5c565b6001600160a01b03167f8c5be1e5ebec7d5bd14f71427d1e84f3dd0314c0f7b2291e5b200ac8c7c3b92560405160405180910390a45050565b6000546001600160a01b03163314610de25760405162461bcd60e51b815260206004820181905260248201527f4f776e61626c653a2063616c6c6572206973206e6f7420746865206f776e657260448201526064016107a3565b60008061143083610b5c565b9050806001600160a01b0316846001600160a01b0316148061147757506001600160a01b0380821660009081526006602090815260408083209388168352929052205460ff165b80610a4c5750836001600160a01b031661149084610708565b6001600160a01b031614949350505050565b826001600160a01b03166114b582610b5c565b6001600160a01b0316146114db5760405162461bcd60e51b81526004016107a390613b24565b6001600160a01b03821661153d5760405162461bcd60e51b8152602060048201526024808201527f4552433732313a207472616e7366657220746f20746865207a65726f206164646044820152637265737360e01b60648201526084016107a3565b61154a8383836001612553565b826001600160a01b031661155d82610b5c565b6001600160a01b0316146115835760405162461bcd60e51b81526004016107a390613b24565b600081815260056020908152604080832080546001600160a01b03199081169091556001600160a01b0387811680865260048552838620805460001901905590871680865283862080546001019055868652600390945282852080549092168417909155905184937fddf252ad1be2c89b69c2b068fc378daa952ba7f163c4a11628f55a4df523b3ef91a4505050565b6000600185111580611626575060018411155b1561163357506001610a4c565b60007f00000000000000000000000000000000000000000000000000000000000000006001600160a01b031663b15031fa6040518163ffffffff1660e01b8152600401602060405180830381865afa158015611693573d6000803e3d6000fd5b505050506040513d601f19601f820116820180604052508101906116b79190613b69565b9050806000036116cb576001915050610a4c565b6001600160801b031984166000908152600c60205260409020548110156116f6576001915050610a4c565b6001600160801b031984166000908152600c602052604090205461171a90826139e2565b905060006117298787846125db565b979650505050505050565b60006008826001600160401b03168154811061175257611752613a63565b60009182526020918290206040805160e081018252600690930290910180546001600160801b0319608082811b82168652600160801b909204821b16948401949094526001808201549284019290925260028101546060840152600381015493830193909352600483015460a083015260059092015460ff16151560c082015260088054919350906001600160401b0385169081106117f3576117f3613a63565b60009182526020822060069190910201600501805460ff19169215159290921790915580611820846124f8565b421115611858576001915061183d846001600160401b0316610b5c565b9050611853846001600160401b03166001612660565b6119c5565b602083015183516040516306c77ce760e01b81526001600160801b03199283166004820152911660248201527f00000000000000000000000000000000000000000000000000000000000000006001600160a01b0316906306c77ce790604401602060405180830381865afa1580156118d5573d6000803e3d6000fd5b505050506040513d601f19601f820116820180604052508101906118f99190613b91565b915060011960ff83160161192d577f000000000000000000000000000000000000000000000000000000000000000061193f565b61193f846001600160401b0316610b5c565b905060001960ff8316016119585761195684612a6a565b505b61196b846001600160401b031683612660565b6008846001600160401b03168154811061198757611987613a63565b906000526020600020906006020160010154600d60008282546119aa91906139e2565b9091555050600780549060006119bf83613bae565b91905055505b806001600160a01b03167f7c2e00429f610bdb997681cabbb0ef3197390c07fe90ea4a98ac36438dd4217c856008876001600160401b031681548110611a0d57611a0d613a63565b600091825260209182902060026006909202010154604080516001600160401b0390941684529183015260ff86169082015260600160405180910390a261110c846001600160401b0316612dd0565b600080611a6b84848888611613565b9050611a8e84620f4240611a7f8285613bc5565b611a899190613be4565b612e73565b9695505050505050565b6000806000806000806000806008896001600160401b031681548110611ac057611ac0613a63565b60009182526020918290206040805160e0810182526006939093029091018054608081811b6001600160801b0319908116808752600160801b909304821b1695850186905260018301549385018490526002830154606086018190526003840154918601829052600484015460a0870181905260059094015460ff16151560c0909601869052939f939e509c50909a50919850919650945092505050565b600080546001600160a01b038381166001600160a01b0319831681178455604051919092169283917f8be0079c531659141344cd1fd0a4f28419497f9722a3daafe3b4186f6b6457e09190a35050565b60008073da270572f48a366bBDa85b095303c85eb88B1503635cff288d85856040518363ffffffff1660e01b8152600401611bea929190613c06565b602060405180830381865af4158015611c07573d6000803e3d6000fd5b505050506040513d601f19601f82011682018060405250810190611c2b91906139af565b90506001600160a01b038116611c4357611c43613a98565b6001600160a01b0381166000908152600f602052604090205460ff16610a4c565b60004283118015611c7457504284115b611cb65760405162461bcd60e51b81526020600482015260136024820152725f6261636b3a20496e76616c6964206461746560681b60448201526064016107a3565b6040516306c77ce760e01b81526001600160801b03198088166004830152881660248201527f00000000000000000000000000000000000000000000000000000000000000006001600160a01b0316906306c77ce790604401602060405180830381865afa158015611d2c573d6000803e3d6000fd5b505050506040513d601f19601f82011682018060405250810190611d509190613b91565b60ff16600214611dbb5760405162461bcd60e51b815260206004820152603060248201527f5f6261636b3a204f7261636c6520726573756c7420616c72656164792073657460448201526f08199bdc881d1a1a5cc81b585c9ad95d60821b60648201526084016107a3565b60007f00000000000000000000000000000000000000000000000000000000000000006001600160a01b03166338d52e0f6040518163ffffffff1660e01b8152600401602060405180830381865afa158015611e1b573d6000803e3d6000fd5b505050506040513d601f19601f82011682018060405250810190611e3f91906139af565b90506001600160a01b0381166323b872dd3360405160e083901b6001600160e01b03191681526001600160a01b0391821660048201527f00000000000000000000000000000000000000000000000000000000000000009091166024820152604481018990526064016020604051808303816000875af1158015611ec7573d6000803e3d6000fd5b505050506040513d601f19601f82011682018060405250810190611eeb91906139f9565b506001600160801b031987166000908152600a602052604081208054889290611f15908490613c3d565b9250508190555085600d6000828254611f2e9190613c3d565b909155505060078054906000611f4383613c55565b90915550506001600160801b031988166000908152600c602052604081208054859290611f71908490613c3d565b90915550611f83905087898886612e89565b600e6000828254611f949190613c3d565b9091555050600880546040805160e0810182526001600160801b03198c811682528b1660208083018281528385018d8152606085018b815260808087018e81524260a08901908152600060c08a018181526001808e018f558e83529a519751851c600160801b029790941c9690961760068c027ff3f7a9fe364faab93b216da50a3214154f22a0a2b415b23a84c8169e8b636ee381019190915594517ff3f7a9fe364faab93b216da50a3214154f22a0a2b415b23a84c8169e8b636ee486015592517ff3f7a9fe364faab93b216da50a3214154f22a0a2b415b23a84c8169e8b636ee5850155517ff3f7a9fe364faab93b216da50a3214154f22a0a2b415b23a84c8169e8b636ee684015590517ff3f7a9fe364faab93b216da50a3214154f22a0a2b415b23a84c8169e8b636ee7830155517ff3f7a9fe364faab93b216da50a3214154f22a0a2b415b23a84c8169e8b636ee8909101805491151560ff199092169190911790559182526009815292812080549283018155815291909120600482040180546001600160401b0380851660039094169095026101000a83810295021916939093179092559061214a903390613121565b604080516001600160401b03831681526001600160801b03198b811660208301528a16818301526060810189905260808101869052905133917f1d273ea6a1aea94de32fd06a09ab8046dff8e3261c5a4ecaa5e1a5705f3342ec919081900360a00190a26001600160401b031698975050505050505050565b816001600160a01b0316836001600160a01b0316036122245760405162461bcd60e51b815260206004820152601960248201527f4552433732313a20617070726f766520746f2063616c6c65720000000000000060448201526064016107a3565b6001600160a01b03838116600081815260066020908152604080832094871680845294825291829020805460ff191686151590811790915591519182527f17307eab39ab6107e8899845ad3d59bd9653f200f220920489ca2b5937696c31910160405180910390a3505050565b61229c8484846114a2565b6122a8848484846132ba565b61110c5760405162461bcd60e51b81526004016107a390613c6e565b606060006122d3836002613bc5565b6122de906002613c3d565b6001600160401b038111156122f5576122f56137fa565b6040519080825280601f01601f19166020018201604052801561231f576020820181803683370190505b509050600360fc1b8160008151811061233a5761233a613a63565b60200101906001600160f81b031916908160001a905350600f60fb1b8160018151811061236957612369613a63565b60200101906001600160f81b031916908160001a905350600061238d846002613bc5565b612398906001613c3d565b90505b6001811115612410576f181899199a1a9b1b9c1cb0b131b232b360811b85600f16601081106123cc576123cc613a63565b1a60f81b8282815181106123e2576123e2613a63565b60200101906001600160f81b031916908160001a90535060049490941c9361240981613bae565b905061239b565b50831561245f5760405162461bcd60e51b815260206004820181905260248201527f537472696e67733a20686578206c656e67746820696e73756666696369656e7460448201526064016107a3565b9392505050565b60606000612473836133b8565b60010190506000816001600160401b03811115612492576124926137fa565b6040519080825280601f01601f1916602001820160405280156124bc576020820181803683370190505b5090508181016020015b600019016f181899199a1a9b1b9c1cb0b131b232b360811b600a86061a8153600a85049450846124c657509392505050565b60007f00000000000000000000000000000000000000000000000000000000000000006008836001600160401b03168154811061253757612537613a63565b9060005260206000209060060201600301546106709190613c3d565b600181111561110c576001600160a01b03841615612599576001600160a01b038416600090815260046020526040812080548392906125939084906139e2565b90915550505b6001600160a01b0383161561110c576001600160a01b038316600090815260046020526040812080548392906125d0908490613c3d565b909155505050505050565b60405163a19dec4360e01b8152600481018490526024810183905260448101829052600090739dCbCB00B3E30917A71d0DFb92b63Ba4c211E5Fc9063a19dec4390606401602060405180830381865af415801561263c573d6000803e3d6000fd5b505050506040513d601f19601f82011682018060405250810190610a4c9190613b69565b426008838154811061267457612674613a63565b906000526020600020906006020160030154106126d35760405162461bcd60e51b815260206004820181905260248201527f5f7061796f75743a205061796f75742064617465206e6f74207265616368656460448201526064016107a3565b600082815260136020526040812054600e8054919290916126f59084906139e2565b909155505060021960ff821601612837577f00000000000000000000000000000000000000000000000000000000000000006001600160a01b03166338d52e0f6040518163ffffffff1660e01b8152600401602060405180830381865afa158015612764573d6000803e3d6000fd5b505050506040513d601f19601f8201168201806040525081019061278891906139af565b6001600160a01b031663a9059cbb61279f84610b5c565b600885815481106127b2576127b2613a63565b60009182526020909120600160069092020101546040516001600160e01b031960e085901b1681526001600160a01b03909216600483015260248201526044016020604051808303816000875af1158015612811573d6000803e3d6000fd5b505050506040513d601f19601f8201168201806040525081019061283591906139f9565b505b60007f00000000000000000000000000000000000000000000000000000000000000006001600160a01b03166338d52e0f6040518163ffffffff1660e01b8152600401602060405180830381865afa158015612897573d6000803e3d6000fd5b505050506040513d601f19601f820116820180604052508101906128bb91906139af565b905060001960ff8316016129e257600883815481106128dc576128dc613a63565b9060005260206000209060060201600101546008848154811061290157612901613a63565b90600052602060002090600602016002015461291d91906139e2565b6011600082825461292e91906139e2565b90915550506001600160a01b03811663a9059cbb61294b85610b5c565b6008868154811061295e5761295e613a63565b60009182526020909120600260069092020101546040516001600160e01b031960e085901b1681526001600160a01b03909216600483015260248201526044015b6020604051808303816000875af11580156129be573d6000803e3d6000fd5b505050506040513d601f19601f8201168201806040525081019061110c91906139f9565b806001600160a01b031663a9059cbb7f000000000000000000000000000000000000000000000000000000000000000060088681548110612a2557612a25613a63565b60009182526020909120600160069092020101546040516001600160e01b031960e085901b1681526001600160a01b039092166004830152602482015260440161299f565b6000806008836001600160401b031681548110612a8957612a89613a63565b60009182526020822060069190910201546040516325a8f38560e11b8152600160801b90910460801b6001600160801b03198116600483015292506001600160a01b037f00000000000000000000000000000000000000000000000000000000000000001690634b51e70a90602401600060405180830381865afa158015612b15573d6000803e3d6000fd5b505050506040513d6000823e601f3d908101601f19168201604052612b3d9190810190613cc0565b90506000806008866001600160401b031681548110612b5e57612b5e613a63565b90600052602060002090600602016004015490506000836020015151905060005b81811015612bf2578285602001518281518110612b9e57612b9e613a63565b6020026020010151602001511115612be05784602001518181518110612bc657612bc6613a63565b60200260200101516040015184612bdd9190613c3d565b93505b80612bea81613c55565b915050612b7f565b50600083118015612c30575060006008886001600160401b031681548110612c1c57612c1c613a63565b906000526020600020906006020160010154115b15612d965760006008886001600160401b031681548110612c5357612c53613a63565b9060005260206000209060060201600101546008896001600160401b031681548110612c8157612c81613a63565b906000526020600020906006020160020154612c9d9190613be4565b604051637869dde560e11b815260048101829052602481018690526216e3606044820152909150600090739dCbCB00B3E30917A71d0DFb92b63Ba4c211E5Fc9063f0d3bbca90606401602060405180830381865af4158015612d03573d6000803e3d6000fd5b505050506040513d601f19601f82011682018060405250810190612d279190613b69565b90508060088a6001600160401b031681548110612d4657612d46613a63565b906000526020600020906006020160010154612d629190613bc5565b60088a6001600160401b031681548110612d7e57612d7e613a63565b90600052602060002090600602016002018190555050505b6008876001600160401b031681548110612db257612db2613a63565b90600052602060002090600602016002015495505050505050919050565b6000612ddb82610b5c565b9050612deb816000846001612553565b612df482610b5c565b600083815260056020908152604080832080546001600160a01b03199081169091556001600160a01b0385168085526004845282852080546000190190558785526003909352818420805490911690555192935084927fddf252ad1be2c89b69c2b068fc378daa952ba7f163c4a11628f55a4df523b3ef908390a45050565b6000818311612e82578161245f565b5090919050565b6001600160801b031984166000908152600a60209081526040808320546010909252822054829182918291612ebd91613c3d565b6001600160801b031988166000908152600c6020526040902054909150811015613102576001600160801b031988811660009081526012602090815260408083208054851660808d901c179055928a168252600c90522054612f209082906139e2565b9250600e546011541115612f67576000600e54601154612f4091906139e2565b9050612f4c8482613490565b925082600e6000828254612f609190613c3d565b9091555050505b828210156130d357612f7982846139e2565b92507f00000000000000000000000000000000000000000000000000000000000000006001600160a01b03166338d52e0f6040518163ffffffff1660e01b8152600401602060405180830381865afa158015612fd9573d6000803e3d6000fd5b505050506040513d601f19601f82011682018060405250810190612ffd91906139af565b6040516323b872dd60e01b81526001600160a01b037f0000000000000000000000000000000000000000000000000000000000000000811660048301527f0000000000000000000000000000000000000000000000000000000000000000811660248301526044820186905291909116906323b872dd906064016020604051808303816000875af1158015613096573d6000803e3d6000fd5b505050506040513d601f19601f820116820180604052508101906130ba91906139f9565b5082601160008282546130cd9190613c3d565b90915550505b6001600160801b03198816600090815260106020526040812080548592906130fc908490613c3d565b90915550505b5050600854600090815260136020526040902081905595945050505050565b6001600160a01b0382166131775760405162461bcd60e51b815260206004820181905260248201527f4552433732313a206d696e7420746f20746865207a65726f206164647265737360448201526064016107a3565b6000818152600360205260409020546001600160a01b0316156131dc5760405162461bcd60e51b815260206004820152601c60248201527f4552433732313a20746f6b656e20616c7265616479206d696e7465640000000060448201526064016107a3565b6131ea600083836001612553565b6000818152600360205260409020546001600160a01b03161561324f5760405162461bcd60e51b815260206004820152601c60248201527f4552433732313a20746f6b656e20616c7265616479206d696e7465640000000060448201526064016107a3565b6001600160a01b038216600081815260046020908152604080832080546001019055848352600390915280822080546001600160a01b0319168417905551839291907fddf252ad1be2c89b69c2b068fc378daa952ba7f163c4a11628f55a4df523b3ef908290a45050565b60006001600160a01b0384163b156133b057604051630a85bd0160e11b81526001600160a01b0385169063150b7a02906132fe903390899088908890600401613deb565b6020604051808303816000875af1925050508015613339575060408051601f3d908101601f1916820190925261333691810190613e1e565b60015b613396573d808015613367576040519150601f19603f3d011682016040523d82523d6000602084013e61336c565b606091505b50805160000361338e5760405162461bcd60e51b81526004016107a390613c6e565b805181602001fd5b6001600160e01b031916630a85bd0160e11b149050610a4c565b506001610a4c565b60008072184f03e93ff9f4daa797ed6e38ed64bf6a1f0160401b83106133f75772184f03e93ff9f4daa797ed6e38ed64bf6a1f0160401b830492506040015b6d04ee2d6d415b85acef81000000008310613423576d04ee2d6d415b85acef8100000000830492506020015b662386f26fc10000831061344157662386f26fc10000830492506010015b6305f5e1008310613459576305f5e100830492506008015b612710831061346d57612710830492506004015b6064831061347f576064830492506002015b600a83106106705760010192915050565b6000818310612e82578161245f565b6001600160e01b0319811681146112fa57600080fd5b6000602082840312156134c757600080fd5b813561245f8161349f565b60005b838110156134ed5781810151838201526020016134d5565b8381111561110c5750506000910152565b600081518084526135168160208601602086016134d2565b601f01601f19169290920160200192915050565b60208152600061245f60208301846134fe565b60006020828403121561354f57600080fd5b5035919050565b6001600160a01b03811681146112fa57600080fd5b6000806040838503121561357e57600080fd5b823561358981613556565b946020939093013593505050565b6001600160801b0319811681146112fa57600080fd5b6000602082840312156135bf57600080fd5b813561245f81613597565b6000806000606084860312156135df57600080fd5b83356135ea81613556565b925060208401356135fa81613556565b929592945050506040919091013590565b6000806000806080858703121561362157600080fd5b8435935060208501359250604085013561363a81613597565b9150606085013561364a81613597565b939692955090935050565b60006020828403121561366757600080fd5b81356001600160401b038116811461245f57600080fd5b6000806000806080858703121561369457600080fd5b843561369f81613597565b935060208501356136af81613597565b93969395505050506040820135916060013590565b6000602082840312156136d657600080fd5b813561245f81613556565b600080602083850312156136f457600080fd5b82356001600160401b038082111561370b57600080fd5b818501915085601f83011261371f57600080fd5b81358181111561372e57600080fd5b8660206101408302850101111561374457600080fd5b60209290920196919550909350505050565b6020808252825182820181905260009190848201906040850190845b8181101561378e57835183529284019291840191600101613772565b50909695505050505050565b600061014082840312156137ad57600080fd5b50919050565b80151581146112fa57600080fd5b600080604083850312156137d457600080fd5b82356137df81613556565b915060208301356137ef816137b3565b809150509250929050565b634e487b7160e01b600052604160045260246000fd5b604080519081016001600160401b0381118282101715613832576138326137fa565b60405290565b604051608081016001600160401b0381118282101715613832576138326137fa565b604051601f8201601f191681016001600160401b0381118282101715613882576138826137fa565b604052919050565b600080600080608085870312156138a057600080fd5b84356138ab81613556565b93506020858101356138bc81613556565b93506040860135925060608601356001600160401b03808211156138df57600080fd5b818801915088601f8301126138f357600080fd5b813581811115613905576139056137fa565b613917601f8201601f1916850161385a565b9150808252898482850101111561392d57600080fd5b808484018584013760008482840101525080935050505092959194509250565b6000806040838503121561396057600080fd5b823561396b81613556565b915060208301356137ef81613556565b600181811c9082168061398f57607f821691505b6020821081036137ad57634e487b7160e01b600052602260045260246000fd5b6000602082840312156139c157600080fd5b815161245f81613556565b634e487b7160e01b600052601160045260246000fd5b6000828210156139f4576139f46139cc565b500390565b600060208284031215613a0b57600080fd5b815161245f816137b3565b6020808252602d908201527f4552433732313a2063616c6c6572206973206e6f7420746f6b656e206f776e6560408201526c1c881bdc88185c1c1c9bdd9959609a1b606082015260800190565b634e487b7160e01b600052603260045260246000fd5b600060ff821660ff8103613a8f57613a8f6139cc565b60010192915050565b634e487b7160e01b600052600160045260246000fd5b60006001600160401b03808316818103613aca57613aca6139cc565b6001019392505050565b60008451613ae68184602089016134d2565b845190830190613afa8183602089016134d2565b602f60f81b91019081528351613b178160018401602088016134d2565b0160010195945050505050565b60208082526025908201527f4552433732313a207472616e736665722066726f6d20696e636f72726563742060408201526437bbb732b960d91b606082015260800190565b600060208284031215613b7b57600080fd5b5051919050565b60ff811681146112fa57600080fd5b600060208284031215613ba357600080fd5b815161245f81613b82565b600081613bbd57613bbd6139cc565b506000190190565b6000816000190483118215151615613bdf57613bdf6139cc565b500290565b600082613c0157634e487b7160e01b600052601260045260246000fd5b500490565b828152608081018235613c1881613b82565b60ff811660208401525060208301356040830152604083013560608301529392505050565b60008219821115613c5057613c506139cc565b500190565b600060018201613c6757613c676139cc565b5060010190565b60208082526032908201527f4552433732313a207472616e7366657220746f206e6f6e20455243373231526560408201527131b2b4bb32b91034b6b83632b6b2b73a32b960711b606082015260800190565b60006020808385031215613cd357600080fd5b82516001600160401b0380821115613cea57600080fd5b81850191506040808388031215613d0057600080fd5b613d08613810565b8351613d1381613597565b81528385015183811115613d2657600080fd5b80850194505087601f850112613d3b57600080fd5b835183811115613d4d57613d4d6137fa565b613d5b868260051b0161385a565b818152868101945060079190911b850186019089821115613d7b57600080fd5b948601945b81861015613dd9576080868b031215613d995760008081fd5b613da1613838565b8651613dac81613597565b81528688015188820152848701518582015260608088015190820152855260809095019493860193613d80565b95820195909552979650505050505050565b6001600160a01b0385811682528416602082015260408101839052608060608201819052600090611a8e908301846134fe565b600060208284031215613e3057600080fd5b815161245f8161349f56fe68747470733a2f2f616c7068612e686f7273652e6c696e6b2f6170692f626574732fa2646970667358221220c419ea086055df57cf267f7f09841e16ae1ed2862b98594e820aec7aa96e283464736f6c634300080f0033",
  "deployedBytecode": "0x608060405234801561001057600080fd5b506004361061023d5760003560e01c806370a082311161013b578063a22cb465116100b8578063c87b56dd1161007c578063c87b56dd146105a7578063c96121a8146105ba578063e4650fac146105c2578063e985e9c5146105d5578063f2fde38b1461061157600080fd5b8063a22cb46514610528578063a87d942c1461053b578063b18b78dd1461055b578063b88d4fde14610581578063c34b44a01461059457600080fd5b806388bc76ba116100ff57806388bc76ba146104ca5780638ac6d217146104dd5780638da5cb5b146104e557806395d89b41146104f6578063a166895e146104fe57600080fd5b806370a082311461046257806370dea79a14610475578063715018a61461049c5780637b5df1c9146104a45780637df73e27146104b757600080fd5b806346e116a6116101c957806363c724f71161018d57806363c724f7146103aa57806365cacaa4146103bd5780636b467d15146103e35780636c0360eb1461043a578063702595861461044257600080fd5b806346e116a6146103565780634b9ba44614610369578063584394791461037c5780636028421f146103845780636352211e1461039757600080fd5b806312fa3bf11161021057806312fa3bf1146102bf5780632098b7ff146102f757806323b872dd146102ff57806325117b721461031257806342842e0e1461034357600080fd5b806301ffc9a71461024257806306fdde031461026a578063081812fc1461027f578063095ea7b3146102aa575b600080fd5b6102556102503660046134b5565b610624565b60405190151581526020015b60405180910390f35b610272610676565b604051610261919061352a565b61029261028d36600461353d565b610708565b6040516001600160a01b039091168152602001610261565b6102bd6102b836600461356b565b61072f565b005b6102e96102cd3660046135ad565b6001600160801b0319166000908152600a602052604090205490565b604051908152602001610261565b6102bd610849565b6102bd61030d3660046135ca565b6109ef565b60405160ff7f0000000000000000000000000000000000000000000000000000000000000000168152602001610261565b6102bd6103513660046135ca565b610a20565b6102e961036436600461360b565b610a3b565b6102bd610377366004613655565b610a54565b600d546102e9565b6102e961039236600461367e565b610b4e565b6102926103a536600461353d565b610b5c565b6102bd6103b83660046136c4565b610bbc565b7f0000000000000000000000000000000000000000000000000000000000000000610292565b6103f66103f1366004613655565b610c4a565b604080519788526020880196909652948601939093526060850191909152151560808401526001600160801b031990811660a08401521660c082015260e001610261565b610272610c75565b6104556104503660046136e1565b610c91565b6040516102619190613756565b6102e96104703660046136c4565b610d4a565b6102e97f000000000000000000000000000000000000000000000000000000000000000081565b6102bd610dd0565b6102e96104b236600461379a565b610de4565b6102556104c53660046136c4565b610f4f565b6102bd6104d83660046135ad565b610f70565b600e546102e9565b6000546001600160a01b0316610292565b610272611112565b6102e961050c3660046135ad565b6001600160801b03191660009081526010602052604090205490565b6102bd6105363660046137c1565b611121565b61054361112c565b6040516001600160401b039091168152602001610261565b7f0000000000000000000000000000000000000000000000000000000000000000610292565b6102bd61058f36600461388a565b61113c565b6102bd6105a23660046136c4565b61116e565b6102726105b536600461353d565b6111f9565b6007546102e9565b6102e96105d0366004613655565b611279565b6102556105e336600461394d565b6001600160a01b03918216600090815260066020908152604080832093909416825291909152205460ff1690565b6102bd61061f3660046136c4565b611284565b60006001600160e01b031982166380ac58cd60e01b148061065557506001600160e01b03198216635b5e139f60e01b145b8061067057506301ffc9a760e01b6001600160e01b03198316145b92915050565b6060600180546106859061397b565b80601f01602080910402602001604051908101604052809291908181526020018280546106b19061397b565b80156106fe5780601f106106d3576101008083540402835291602001916106fe565b820191906000526020600020905b8154815290600101906020018083116106e157829003601f168201915b5050505050905090565b6000610713826112fd565b506000908152600560205260409020546001600160a01b031690565b600061073a82610b5c565b9050806001600160a01b0316836001600160a01b0316036107ac5760405162461bcd60e51b815260206004820152602160248201527f4552433732313a20617070726f76616c20746f2063757272656e74206f776e656044820152603960f91b60648201526084015b60405180910390fd5b336001600160a01b03821614806107c857506107c881336105e3565b61083a5760405162461bcd60e51b815260206004820152603d60248201527f4552433732313a20617070726f76652063616c6c6572206973206e6f7420746f60448201527f6b656e206f776e6572206f7220617070726f76656420666f7220616c6c00000060648201526084016107a3565b610844838361135c565b505050565b6108516113ca565b600e54601154116108b65760405162461bcd60e51b815260206004820152602960248201527f726566756e64436f6c6c61746572616c3a204e6f20636f6c6c61746572616c206044820152681d1bc81c99599d5b9960ba1b60648201526084016107a3565b7f00000000000000000000000000000000000000000000000000000000000000006001600160a01b03166338d52e0f6040518163ffffffff1660e01b8152600401602060405180830381865afa158015610914573d6000803e3d6000fd5b505050506040513d601f19601f8201168201806040525081019061093891906139af565b6001600160a01b031663a9059cbb7f0000000000000000000000000000000000000000000000000000000000000000600e5460115461097791906139e2565b6040516001600160e01b031960e085901b1681526001600160a01b03909216600483015260248201526044016020604051808303816000875af11580156109c2573d6000803e3d6000fd5b505050506040513d601f19601f820116820180604052508101906109e691906139f9565b50600e54601155565b6109f93382611424565b610a155760405162461bcd60e51b81526004016107a390613a16565b6108448383836114a2565b6108448383836040518060200160405280600081525061113c565b6000610a4985858585611613565b90505b949350505050565b60006008826001600160401b031681548110610a7257610a72613a63565b60009182526020918290206040805160e081018252600690930290910180546001600160801b0319608082811b82168652600160801b909204821b169484019490945260018101549183019190915260028101546060830152600381015492820192909252600482015460a082015260059091015460ff1615801560c0830152909150610b415760405162461bcd60e51b815260206004820152601f60248201527f736574746c653a204265742068617320616c726561647920736574746c65640060448201526064016107a3565b610b4a82611734565b5050565b6000610a4985858585611a5c565b6000818152600360205260408120546001600160a01b0316806106705760405162461bcd60e51b8152602060048201526018602482015277115490cdcc8c4e881a5b9d985b1a59081d1bdad95b88125160421b60448201526064016107a3565b610bc46113ca565b6001600160a01b038116610c265760405162461bcd60e51b815260206004820152602360248201527f6772616e745369676e65723a20496e76616c6964207369676e6572206164647260448201526265737360e81b60648201526084016107a3565b6001600160a01b03166000908152600f60205260409020805460ff19166001179055565b6000806000806000806000610c5e88611a98565b959e949d50929b5090995097509550909350915050565b604051806060016040528060228152602001613e3c6022913981565b60606000826001600160401b03811115610cad57610cad6137fa565b604051908082528060200260200182016040528015610cd6578160200160208202803683370190505b50905060005b60ff8116841115610d42573685858360ff16818110610cfd57610cfd613a63565b905061014002019050610d0f81610de4565b838360ff1681518110610d2457610d24613a63565b60209081029190910101525080610d3a81613a79565b915050610cdc565b509392505050565b60006001600160a01b038216610db45760405162461bcd60e51b815260206004820152602960248201527f4552433732313a2061646472657373207a65726f206973206e6f7420612076616044820152683634b21037bbb732b960b91b60648201526084016107a3565b506001600160a01b031660009081526004602052604090205490565b610dd86113ca565b610de26000611b5e565b565b600080610df460208401846135ad565b610e0460408501602086016135ad565b610e1460608601604087016135ad565b604080516001600160801b0319948516602082015292841660308401529216918101919091526080840135605082015260a0840135607082015260c0840135609082015260b001604051602081830303815290604052805190602001209050610e80818460e001611bae565b1515600114610ed15760405162461bcd60e51b815260206004820152601760248201527f6261636b3a20496e76616c6964207369676e617475726500000000000000000060448201526064016107a3565b6000610f05610ee660408601602087016135ad565b610ef660608701604088016135ad565b86606001358760800135611a5c565b905060008111610f1757610f17613a98565b610a4c610f2a60408601602087016135ad565b610f3a60608701604088016135ad565b86606001358760a001358860c0013586611c64565b6001600160a01b0381166000908152600f602052604081205460ff16610670565b6001600160801b0319811660009081526009602090815260408083208054825181850281018501909352808352919290919083018282801561100357602002820191906000526020600020906000905b82829054906101000a90046001600160401b03166001600160401b031681526020019060080190602082600701049283019260010382029150808411610fc05790505b505083519394506000925050505b81816001600160401b0316101561110c57600083826001600160401b03168151811061103f5761103f613a63565b6020026020010151905060006008826001600160401b03168154811061106757611067613a63565b600091825260208083206040805160e081018252600690940290910180546001600160801b0319608082811b82168752600160801b909204821b169385019390935260018101549184019190915260028101546060840152600381015491830191909152600481015460a08301526005015460ff16151560c0820181905290925090036110f7576110f782611734565b5050808061110490613aae565b915050611011565b50505050565b6060600280546106859061397b565b610b4a3383836121c3565b600061113760085490565b905090565b6111463383611424565b6111625760405162461bcd60e51b81526004016107a390613a16565b61110c84848484612291565b6111766113ca565b6001600160a01b0381166111d85760405162461bcd60e51b8152602060048201526024808201527f7265766f6b655369676e65723a20496e76616c6964207369676e6572206164646044820152637265737360e01b60648201526084016107a3565b6001600160a01b03166000908152600f60205260409020805460ff19169055565b6060604051806060016040528060228152602001613e3c602291396112487f00000000000000000000000000000000000000000000000000000000000000006001600160a01b031660146122c4565b61125184612466565b60405160200161126393929190613ad4565b6040516020818303038152906040529050919050565b6000610670826124f8565b61128c6113ca565b6001600160a01b0381166112f15760405162461bcd60e51b815260206004820152602660248201527f4f776e61626c653a206e6577206f776e657220697320746865207a65726f206160448201526564647265737360d01b60648201526084016107a3565b6112fa81611b5e565b50565b6000818152600360205260409020546001600160a01b03166112fa5760405162461bcd60e51b8152602060048201526018602482015277115490cdcc8c4e881a5b9d985b1a59081d1bdad95b88125160421b60448201526064016107a3565b600081815260056020526040902080546001600160a01b0319166001600160a01b038416908117909155819061139182610b5c565b6001600160a01b03167f8c5be1e5ebec7d5bd14f71427d1e84f3dd0314c0f7b2291e5b200ac8c7c3b92560405160405180910390a45050565b6000546001600160a01b03163314610de25760405162461bcd60e51b815260206004820181905260248201527f4f776e61626c653a2063616c6c6572206973206e6f7420746865206f776e657260448201526064016107a3565b60008061143083610b5c565b9050806001600160a01b0316846001600160a01b0316148061147757506001600160a01b0380821660009081526006602090815260408083209388168352929052205460ff165b80610a4c5750836001600160a01b031661149084610708565b6001600160a01b031614949350505050565b826001600160a01b03166114b582610b5c565b6001600160a01b0316146114db5760405162461bcd60e51b81526004016107a390613b24565b6001600160a01b03821661153d5760405162461bcd60e51b8152602060048201526024808201527f4552433732313a207472616e7366657220746f20746865207a65726f206164646044820152637265737360e01b60648201526084016107a3565b61154a8383836001612553565b826001600160a01b031661155d82610b5c565b6001600160a01b0316146115835760405162461bcd60e51b81526004016107a390613b24565b600081815260056020908152604080832080546001600160a01b03199081169091556001600160a01b0387811680865260048552838620805460001901905590871680865283862080546001019055868652600390945282852080549092168417909155905184937fddf252ad1be2c89b69c2b068fc378daa952ba7f163c4a11628f55a4df523b3ef91a4505050565b6000600185111580611626575060018411155b1561163357506001610a4c565b60007f00000000000000000000000000000000000000000000000000000000000000006001600160a01b031663b15031fa6040518163ffffffff1660e01b8152600401602060405180830381865afa158015611693573d6000803e3d6000fd5b505050506040513d601f19601f820116820180604052508101906116b79190613b69565b9050806000036116cb576001915050610a4c565b6001600160801b031984166000908152600c60205260409020548110156116f6576001915050610a4c565b6001600160801b031984166000908152600c602052604090205461171a90826139e2565b905060006117298787846125db565b979650505050505050565b60006008826001600160401b03168154811061175257611752613a63565b60009182526020918290206040805160e081018252600690930290910180546001600160801b0319608082811b82168652600160801b909204821b16948401949094526001808201549284019290925260028101546060840152600381015493830193909352600483015460a083015260059092015460ff16151560c082015260088054919350906001600160401b0385169081106117f3576117f3613a63565b60009182526020822060069190910201600501805460ff19169215159290921790915580611820846124f8565b421115611858576001915061183d846001600160401b0316610b5c565b9050611853846001600160401b03166001612660565b6119c5565b602083015183516040516306c77ce760e01b81526001600160801b03199283166004820152911660248201527f00000000000000000000000000000000000000000000000000000000000000006001600160a01b0316906306c77ce790604401602060405180830381865afa1580156118d5573d6000803e3d6000fd5b505050506040513d601f19601f820116820180604052508101906118f99190613b91565b915060011960ff83160161192d577f000000000000000000000000000000000000000000000000000000000000000061193f565b61193f846001600160401b0316610b5c565b905060001960ff8316016119585761195684612a6a565b505b61196b846001600160401b031683612660565b6008846001600160401b03168154811061198757611987613a63565b906000526020600020906006020160010154600d60008282546119aa91906139e2565b9091555050600780549060006119bf83613bae565b91905055505b806001600160a01b03167f7c2e00429f610bdb997681cabbb0ef3197390c07fe90ea4a98ac36438dd4217c856008876001600160401b031681548110611a0d57611a0d613a63565b600091825260209182902060026006909202010154604080516001600160401b0390941684529183015260ff86169082015260600160405180910390a261110c846001600160401b0316612dd0565b600080611a6b84848888611613565b9050611a8e84620f4240611a7f8285613bc5565b611a899190613be4565b612e73565b9695505050505050565b6000806000806000806000806008896001600160401b031681548110611ac057611ac0613a63565b60009182526020918290206040805160e0810182526006939093029091018054608081811b6001600160801b0319908116808752600160801b909304821b1695850186905260018301549385018490526002830154606086018190526003840154918601829052600484015460a0870181905260059094015460ff16151560c0909601869052939f939e509c50909a50919850919650945092505050565b600080546001600160a01b038381166001600160a01b0319831681178455604051919092169283917f8be0079c531659141344cd1fd0a4f28419497f9722a3daafe3b4186f6b6457e09190a35050565b60008073__$47464c6f7588c8075b5d384b19d082a8ec$__635cff288d85856040518363ffffffff1660e01b8152600401611bea929190613c06565b602060405180830381865af4158015611c07573d6000803e3d6000fd5b505050506040513d601f19601f82011682018060405250810190611c2b91906139af565b90506001600160a01b038116611c4357611c43613a98565b6001600160a01b0381166000908152600f602052604090205460ff16610a4c565b60004283118015611c7457504284115b611cb65760405162461bcd60e51b81526020600482015260136024820152725f6261636b3a20496e76616c6964206461746560681b60448201526064016107a3565b6040516306c77ce760e01b81526001600160801b03198088166004830152881660248201527f00000000000000000000000000000000000000000000000000000000000000006001600160a01b0316906306c77ce790604401602060405180830381865afa158015611d2c573d6000803e3d6000fd5b505050506040513d601f19601f82011682018060405250810190611d509190613b91565b60ff16600214611dbb5760405162461bcd60e51b815260206004820152603060248201527f5f6261636b3a204f7261636c6520726573756c7420616c72656164792073657460448201526f08199bdc881d1a1a5cc81b585c9ad95d60821b60648201526084016107a3565b60007f00000000000000000000000000000000000000000000000000000000000000006001600160a01b03166338d52e0f6040518163ffffffff1660e01b8152600401602060405180830381865afa158015611e1b573d6000803e3d6000fd5b505050506040513d601f19601f82011682018060405250810190611e3f91906139af565b90506001600160a01b0381166323b872dd3360405160e083901b6001600160e01b03191681526001600160a01b0391821660048201527f00000000000000000000000000000000000000000000000000000000000000009091166024820152604481018990526064016020604051808303816000875af1158015611ec7573d6000803e3d6000fd5b505050506040513d601f19601f82011682018060405250810190611eeb91906139f9565b506001600160801b031987166000908152600a602052604081208054889290611f15908490613c3d565b9250508190555085600d6000828254611f2e9190613c3d565b909155505060078054906000611f4383613c55565b90915550506001600160801b031988166000908152600c602052604081208054859290611f71908490613c3d565b90915550611f83905087898886612e89565b600e6000828254611f949190613c3d565b9091555050600880546040805160e0810182526001600160801b03198c811682528b1660208083018281528385018d8152606085018b815260808087018e81524260a08901908152600060c08a018181526001808e018f558e83529a519751851c600160801b029790941c9690961760068c027ff3f7a9fe364faab93b216da50a3214154f22a0a2b415b23a84c8169e8b636ee381019190915594517ff3f7a9fe364faab93b216da50a3214154f22a0a2b415b23a84c8169e8b636ee486015592517ff3f7a9fe364faab93b216da50a3214154f22a0a2b415b23a84c8169e8b636ee5850155517ff3f7a9fe364faab93b216da50a3214154f22a0a2b415b23a84c8169e8b636ee684015590517ff3f7a9fe364faab93b216da50a3214154f22a0a2b415b23a84c8169e8b636ee7830155517ff3f7a9fe364faab93b216da50a3214154f22a0a2b415b23a84c8169e8b636ee8909101805491151560ff199092169190911790559182526009815292812080549283018155815291909120600482040180546001600160401b0380851660039094169095026101000a83810295021916939093179092559061214a903390613121565b604080516001600160401b03831681526001600160801b03198b811660208301528a16818301526060810189905260808101869052905133917f1d273ea6a1aea94de32fd06a09ab8046dff8e3261c5a4ecaa5e1a5705f3342ec919081900360a00190a26001600160401b031698975050505050505050565b816001600160a01b0316836001600160a01b0316036122245760405162461bcd60e51b815260206004820152601960248201527f4552433732313a20617070726f766520746f2063616c6c65720000000000000060448201526064016107a3565b6001600160a01b03838116600081815260066020908152604080832094871680845294825291829020805460ff191686151590811790915591519182527f17307eab39ab6107e8899845ad3d59bd9653f200f220920489ca2b5937696c31910160405180910390a3505050565b61229c8484846114a2565b6122a8848484846132ba565b61110c5760405162461bcd60e51b81526004016107a390613c6e565b606060006122d3836002613bc5565b6122de906002613c3d565b6001600160401b038111156122f5576122f56137fa565b6040519080825280601f01601f19166020018201604052801561231f576020820181803683370190505b509050600360fc1b8160008151811061233a5761233a613a63565b60200101906001600160f81b031916908160001a905350600f60fb1b8160018151811061236957612369613a63565b60200101906001600160f81b031916908160001a905350600061238d846002613bc5565b612398906001613c3d565b90505b6001811115612410576f181899199a1a9b1b9c1cb0b131b232b360811b85600f16601081106123cc576123cc613a63565b1a60f81b8282815181106123e2576123e2613a63565b60200101906001600160f81b031916908160001a90535060049490941c9361240981613bae565b905061239b565b50831561245f5760405162461bcd60e51b815260206004820181905260248201527f537472696e67733a20686578206c656e67746820696e73756666696369656e7460448201526064016107a3565b9392505050565b60606000612473836133b8565b60010190506000816001600160401b03811115612492576124926137fa565b6040519080825280601f01601f1916602001820160405280156124bc576020820181803683370190505b5090508181016020015b600019016f181899199a1a9b1b9c1cb0b131b232b360811b600a86061a8153600a85049450846124c657509392505050565b60007f00000000000000000000000000000000000000000000000000000000000000006008836001600160401b03168154811061253757612537613a63565b9060005260206000209060060201600301546106709190613c3d565b600181111561110c576001600160a01b03841615612599576001600160a01b038416600090815260046020526040812080548392906125939084906139e2565b90915550505b6001600160a01b0383161561110c576001600160a01b038316600090815260046020526040812080548392906125d0908490613c3d565b909155505050505050565b60405163a19dec4360e01b815260048101849052602481018390526044810182905260009073__$488e0037c7b108d422da68056570fe35d6$__9063a19dec4390606401602060405180830381865af415801561263c573d6000803e3d6000fd5b505050506040513d601f19601f82011682018060405250810190610a4c9190613b69565b426008838154811061267457612674613a63565b906000526020600020906006020160030154106126d35760405162461bcd60e51b815260206004820181905260248201527f5f7061796f75743a205061796f75742064617465206e6f74207265616368656460448201526064016107a3565b600082815260136020526040812054600e8054919290916126f59084906139e2565b909155505060021960ff821601612837577f00000000000000000000000000000000000000000000000000000000000000006001600160a01b03166338d52e0f6040518163ffffffff1660e01b8152600401602060405180830381865afa158015612764573d6000803e3d6000fd5b505050506040513d601f19601f8201168201806040525081019061278891906139af565b6001600160a01b031663a9059cbb61279f84610b5c565b600885815481106127b2576127b2613a63565b60009182526020909120600160069092020101546040516001600160e01b031960e085901b1681526001600160a01b03909216600483015260248201526044016020604051808303816000875af1158015612811573d6000803e3d6000fd5b505050506040513d601f19601f8201168201806040525081019061283591906139f9565b505b60007f00000000000000000000000000000000000000000000000000000000000000006001600160a01b03166338d52e0f6040518163ffffffff1660e01b8152600401602060405180830381865afa158015612897573d6000803e3d6000fd5b505050506040513d601f19601f820116820180604052508101906128bb91906139af565b905060001960ff8316016129e257600883815481106128dc576128dc613a63565b9060005260206000209060060201600101546008848154811061290157612901613a63565b90600052602060002090600602016002015461291d91906139e2565b6011600082825461292e91906139e2565b90915550506001600160a01b03811663a9059cbb61294b85610b5c565b6008868154811061295e5761295e613a63565b60009182526020909120600260069092020101546040516001600160e01b031960e085901b1681526001600160a01b03909216600483015260248201526044015b6020604051808303816000875af11580156129be573d6000803e3d6000fd5b505050506040513d601f19601f8201168201806040525081019061110c91906139f9565b806001600160a01b031663a9059cbb7f000000000000000000000000000000000000000000000000000000000000000060088681548110612a2557612a25613a63565b60009182526020909120600160069092020101546040516001600160e01b031960e085901b1681526001600160a01b039092166004830152602482015260440161299f565b6000806008836001600160401b031681548110612a8957612a89613a63565b60009182526020822060069190910201546040516325a8f38560e11b8152600160801b90910460801b6001600160801b03198116600483015292506001600160a01b037f00000000000000000000000000000000000000000000000000000000000000001690634b51e70a90602401600060405180830381865afa158015612b15573d6000803e3d6000fd5b505050506040513d6000823e601f3d908101601f19168201604052612b3d9190810190613cc0565b90506000806008866001600160401b031681548110612b5e57612b5e613a63565b90600052602060002090600602016004015490506000836020015151905060005b81811015612bf2578285602001518281518110612b9e57612b9e613a63565b6020026020010151602001511115612be05784602001518181518110612bc657612bc6613a63565b60200260200101516040015184612bdd9190613c3d565b93505b80612bea81613c55565b915050612b7f565b50600083118015612c30575060006008886001600160401b031681548110612c1c57612c1c613a63565b906000526020600020906006020160010154115b15612d965760006008886001600160401b031681548110612c5357612c53613a63565b9060005260206000209060060201600101546008896001600160401b031681548110612c8157612c81613a63565b906000526020600020906006020160020154612c9d9190613be4565b604051637869dde560e11b815260048101829052602481018690526216e360604482015290915060009073__$488e0037c7b108d422da68056570fe35d6$__9063f0d3bbca90606401602060405180830381865af4158015612d03573d6000803e3d6000fd5b505050506040513d601f19601f82011682018060405250810190612d279190613b69565b90508060088a6001600160401b031681548110612d4657612d46613a63565b906000526020600020906006020160010154612d629190613bc5565b60088a6001600160401b031681548110612d7e57612d7e613a63565b90600052602060002090600602016002018190555050505b6008876001600160401b031681548110612db257612db2613a63565b90600052602060002090600602016002015495505050505050919050565b6000612ddb82610b5c565b9050612deb816000846001612553565b612df482610b5c565b600083815260056020908152604080832080546001600160a01b03199081169091556001600160a01b0385168085526004845282852080546000190190558785526003909352818420805490911690555192935084927fddf252ad1be2c89b69c2b068fc378daa952ba7f163c4a11628f55a4df523b3ef908390a45050565b6000818311612e82578161245f565b5090919050565b6001600160801b031984166000908152600a60209081526040808320546010909252822054829182918291612ebd91613c3d565b6001600160801b031988166000908152600c6020526040902054909150811015613102576001600160801b031988811660009081526012602090815260408083208054851660808d901c179055928a168252600c90522054612f209082906139e2565b9250600e546011541115612f67576000600e54601154612f4091906139e2565b9050612f4c8482613490565b925082600e6000828254612f609190613c3d565b9091555050505b828210156130d357612f7982846139e2565b92507f00000000000000000000000000000000000000000000000000000000000000006001600160a01b03166338d52e0f6040518163ffffffff1660e01b8152600401602060405180830381865afa158015612fd9573d6000803e3d6000fd5b505050506040513d601f19601f82011682018060405250810190612ffd91906139af565b6040516323b872dd60e01b81526001600160a01b037f0000000000000000000000000000000000000000000000000000000000000000811660048301527f0000000000000000000000000000000000000000000000000000000000000000811660248301526044820186905291909116906323b872dd906064016020604051808303816000875af1158015613096573d6000803e3d6000fd5b505050506040513d601f19601f820116820180604052508101906130ba91906139f9565b5082601160008282546130cd9190613c3d565b90915550505b6001600160801b03198816600090815260106020526040812080548592906130fc908490613c3d565b90915550505b5050600854600090815260136020526040902081905595945050505050565b6001600160a01b0382166131775760405162461bcd60e51b815260206004820181905260248201527f4552433732313a206d696e7420746f20746865207a65726f206164647265737360448201526064016107a3565b6000818152600360205260409020546001600160a01b0316156131dc5760405162461bcd60e51b815260206004820152601c60248201527f4552433732313a20746f6b656e20616c7265616479206d696e7465640000000060448201526064016107a3565b6131ea600083836001612553565b6000818152600360205260409020546001600160a01b03161561324f5760405162461bcd60e51b815260206004820152601c60248201527f4552433732313a20746f6b656e20616c7265616479206d696e7465640000000060448201526064016107a3565b6001600160a01b038216600081815260046020908152604080832080546001019055848352600390915280822080546001600160a01b0319168417905551839291907fddf252ad1be2c89b69c2b068fc378daa952ba7f163c4a11628f55a4df523b3ef908290a45050565b60006001600160a01b0384163b156133b057604051630a85bd0160e11b81526001600160a01b0385169063150b7a02906132fe903390899088908890600401613deb565b6020604051808303816000875af1925050508015613339575060408051601f3d908101601f1916820190925261333691810190613e1e565b60015b613396573d808015613367576040519150601f19603f3d011682016040523d82523d6000602084013e61336c565b606091505b50805160000361338e5760405162461bcd60e51b81526004016107a390613c6e565b805181602001fd5b6001600160e01b031916630a85bd0160e11b149050610a4c565b506001610a4c565b60008072184f03e93ff9f4daa797ed6e38ed64bf6a1f0160401b83106133f75772184f03e93ff9f4daa797ed6e38ed64bf6a1f0160401b830492506040015b6d04ee2d6d415b85acef81000000008310613423576d04ee2d6d415b85acef8100000000830492506020015b662386f26fc10000831061344157662386f26fc10000830492506010015b6305f5e1008310613459576305f5e100830492506008015b612710831061346d57612710830492506004015b6064831061347f576064830492506002015b600a83106106705760010192915050565b6000818310612e82578161245f565b6001600160e01b0319811681146112fa57600080fd5b6000602082840312156134c757600080fd5b813561245f8161349f565b60005b838110156134ed5781810151838201526020016134d5565b8381111561110c5750506000910152565b600081518084526135168160208601602086016134d2565b601f01601f19169290920160200192915050565b60208152600061245f60208301846134fe565b60006020828403121561354f57600080fd5b5035919050565b6001600160a01b03811681146112fa57600080fd5b6000806040838503121561357e57600080fd5b823561358981613556565b946020939093013593505050565b6001600160801b0319811681146112fa57600080fd5b6000602082840312156135bf57600080fd5b813561245f81613597565b6000806000606084860312156135df57600080fd5b83356135ea81613556565b925060208401356135fa81613556565b929592945050506040919091013590565b6000806000806080858703121561362157600080fd5b8435935060208501359250604085013561363a81613597565b9150606085013561364a81613597565b939692955090935050565b60006020828403121561366757600080fd5b81356001600160401b038116811461245f57600080fd5b6000806000806080858703121561369457600080fd5b843561369f81613597565b935060208501356136af81613597565b93969395505050506040820135916060013590565b6000602082840312156136d657600080fd5b813561245f81613556565b600080602083850312156136f457600080fd5b82356001600160401b038082111561370b57600080fd5b818501915085601f83011261371f57600080fd5b81358181111561372e57600080fd5b8660206101408302850101111561374457600080fd5b60209290920196919550909350505050565b6020808252825182820181905260009190848201906040850190845b8181101561378e57835183529284019291840191600101613772565b50909695505050505050565b600061014082840312156137ad57600080fd5b50919050565b80151581146112fa57600080fd5b600080604083850312156137d457600080fd5b82356137df81613556565b915060208301356137ef816137b3565b809150509250929050565b634e487b7160e01b600052604160045260246000fd5b604080519081016001600160401b0381118282101715613832576138326137fa565b60405290565b604051608081016001600160401b0381118282101715613832576138326137fa565b604051601f8201601f191681016001600160401b0381118282101715613882576138826137fa565b604052919050565b600080600080608085870312156138a057600080fd5b84356138ab81613556565b93506020858101356138bc81613556565b93506040860135925060608601356001600160401b03808211156138df57600080fd5b818801915088601f8301126138f357600080fd5b813581811115613905576139056137fa565b613917601f8201601f1916850161385a565b9150808252898482850101111561392d57600080fd5b808484018584013760008482840101525080935050505092959194509250565b6000806040838503121561396057600080fd5b823561396b81613556565b915060208301356137ef81613556565b600181811c9082168061398f57607f821691505b6020821081036137ad57634e487b7160e01b600052602260045260246000fd5b6000602082840312156139c157600080fd5b815161245f81613556565b634e487b7160e01b600052601160045260246000fd5b6000828210156139f4576139f46139cc565b500390565b600060208284031215613a0b57600080fd5b815161245f816137b3565b6020808252602d908201527f4552433732313a2063616c6c6572206973206e6f7420746f6b656e206f776e6560408201526c1c881bdc88185c1c1c9bdd9959609a1b606082015260800190565b634e487b7160e01b600052603260045260246000fd5b600060ff821660ff8103613a8f57613a8f6139cc565b60010192915050565b634e487b7160e01b600052600160045260246000fd5b60006001600160401b03808316818103613aca57613aca6139cc565b6001019392505050565b60008451613ae68184602089016134d2565b845190830190613afa8183602089016134d2565b602f60f81b91019081528351613b178160018401602088016134d2565b0160010195945050505050565b60208082526025908201527f4552433732313a207472616e736665722066726f6d20696e636f72726563742060408201526437bbb732b960d91b606082015260800190565b600060208284031215613b7b57600080fd5b5051919050565b60ff811681146112fa57600080fd5b600060208284031215613ba357600080fd5b815161245f81613b82565b600081613bbd57613bbd6139cc565b506000190190565b6000816000190483118215151615613bdf57613bdf6139cc565b500290565b600082613c0157634e487b7160e01b600052601260045260246000fd5b500490565b828152608081018235613c1881613b82565b60ff811660208401525060208301356040830152604083013560608301529392505050565b60008219821115613c5057613c506139cc565b500190565b600060018201613c6757613c676139cc565b5060010190565b60208082526032908201527f4552433732313a207472616e7366657220746f206e6f6e20455243373231526560408201527131b2b4bb32b91034b6b83632b6b2b73a32b960711b606082015260800190565b60006020808385031215613cd357600080fd5b82516001600160401b0380821115613cea57600080fd5b81850191506040808388031215613d0057600080fd5b613d08613810565b8351613d1381613597565b81528385015183811115613d2657600080fd5b80850194505087601f850112613d3b57600080fd5b835183811115613d4d57613d4d6137fa565b613d5b868260051b0161385a565b818152868101945060079190911b850186019089821115613d7b57600080fd5b948601945b81861015613dd9576080868b031215613d995760008081fd5b613da1613838565b8651613dac81613597565b81528688015188820152848701518582015260608088015190820152855260809095019493860193613d80565b95820195909552979650505050505050565b6001600160a01b0385811682528416602082015260408101839052608060608201819052600090611a8e908301846134fe565b600060208284031215613e3057600080fd5b815161245f8161349f56fe68747470733a2f2f616c7068612e686f7273652e6c696e6b2f6170692f626574732fa2646970667358221220c419ea086055df57cf267f7f09841e16ae1ed2862b98594e820aec7aa96e283464736f6c634300080f0033",
  "libraries": {
    "SignatureLib": "0xda270572f48a366bBDa85b095303c85eb88B1503",
    "OddsLib": "0x9dCbCB00B3E30917A71d0DFb92b63Ba4c211E5Fc"
  },
  "devdoc": {
    "kind": "dev",
    "methods": {
      "approve(address,uint256)": {
        "details": "See {IERC721-approve}."
      },
      "balanceOf(address)": {
        "details": "See {IERC721-balanceOf}."
      },
      "getApproved(uint256)": {
        "details": "See {IERC721-getApproved}."
      },
      "isApprovedForAll(address,address)": {
        "details": "See {IERC721-isApprovedForAll}."
      },
      "name()": {
        "details": "See {IERC721Metadata-name}."
      },
      "owner()": {
        "details": "Returns the address of the current owner."
      },
      "ownerOf(uint256)": {
        "details": "See {IERC721-ownerOf}."
      },
      "renounceOwnership()": {
        "details": "Leaves the contract without owner. It will not be possible to call `onlyOwner` functions anymore. Can only be called by the current owner. NOTE: Renouncing ownership will leave the contract without an owner, thereby removing any functionality that is only available to the owner."
      },
      "safeTransferFrom(address,address,uint256)": {
        "details": "See {IERC721-safeTransferFrom}."
      },
      "safeTransferFrom(address,address,uint256,bytes)": {
        "details": "See {IERC721-safeTransferFrom}."
      },
      "setApprovalForAll(address,bool)": {
        "details": "See {IERC721-setApprovalForAll}."
      },
      "supportsInterface(bytes4)": {
        "details": "See {IERC165-supportsInterface}."
      },
      "symbol()": {
        "details": "See {IERC721Metadata-symbol}."
      },
      "tokenURI(uint256)": {
        "details": "See {IERC721Metadata-tokenURI}."
      },
      "transferFrom(address,address,uint256)": {
        "details": "See {IERC721-transferFrom}."
      },
      "transferOwnership(address)": {
        "details": "Transfers ownership of the contract to a new account (`newOwner`). Can only be called by the current owner."
      }
    },
    "version": 1
  },
  "userdoc": {
    "kind": "user",
    "methods": {},
    "version": 1
  },
  "storageLayout": {
    "storage": [
      {
        "astId": 2722,
        "contract": "contracts/presets/MarketCollateralisedLinear.sol:MarketCollateralisedLinear",
        "label": "_owner",
        "offset": 0,
        "slot": "0",
        "type": "t_address"
      },
      {
        "astId": 5039,
        "contract": "contracts/presets/MarketCollateralisedLinear.sol:MarketCollateralisedLinear",
        "label": "_name",
        "offset": 0,
        "slot": "1",
        "type": "t_string_storage"
      },
      {
        "astId": 5041,
        "contract": "contracts/presets/MarketCollateralisedLinear.sol:MarketCollateralisedLinear",
        "label": "_symbol",
        "offset": 0,
        "slot": "2",
        "type": "t_string_storage"
      },
      {
        "astId": 5045,
        "contract": "contracts/presets/MarketCollateralisedLinear.sol:MarketCollateralisedLinear",
        "label": "_owners",
        "offset": 0,
        "slot": "3",
        "type": "t_mapping(t_uint256,t_address)"
      },
      {
        "astId": 5049,
        "contract": "contracts/presets/MarketCollateralisedLinear.sol:MarketCollateralisedLinear",
        "label": "_balances",
        "offset": 0,
        "slot": "4",
        "type": "t_mapping(t_address,t_uint256)"
      },
      {
        "astId": 5053,
        "contract": "contracts/presets/MarketCollateralisedLinear.sol:MarketCollateralisedLinear",
        "label": "_tokenApprovals",
        "offset": 0,
        "slot": "5",
        "type": "t_mapping(t_uint256,t_address)"
      },
      {
        "astId": 5059,
        "contract": "contracts/presets/MarketCollateralisedLinear.sol:MarketCollateralisedLinear",
        "label": "_operatorApprovals",
        "offset": 0,
        "slot": "6",
        "type": "t_mapping(t_address,t_mapping(t_address,t_bool))"
      },
      {
        "astId": 8495,
        "contract": "contracts/presets/MarketCollateralisedLinear.sol:MarketCollateralisedLinear",
        "label": "_inplayCount",
        "offset": 0,
        "slot": "7",
        "type": "t_uint256"
      },
      {
        "astId": 8499,
        "contract": "contracts/presets/MarketCollateralisedLinear.sol:MarketCollateralisedLinear",
        "label": "_bets",
        "offset": 0,
        "slot": "8",
        "type": "t_array(t_struct(Bet)8468_storage)dyn_storage"
      },
      {
        "astId": 8504,
        "contract": "contracts/presets/MarketCollateralisedLinear.sol:MarketCollateralisedLinear",
        "label": "_marketBets",
        "offset": 0,
        "slot": "9",
        "type": "t_mapping(t_bytes16,t_array(t_uint64)dyn_storage)"
      },
      {
        "astId": 8508,
        "contract": "contracts/presets/MarketCollateralisedLinear.sol:MarketCollateralisedLinear",
        "label": "_marketTotal",
        "offset": 0,
        "slot": "10",
        "type": "t_mapping(t_bytes16,t_uint256)"
      },
      {
        "astId": 8514,
        "contract": "contracts/presets/MarketCollateralisedLinear.sol:MarketCollateralisedLinear",
        "label": "_marketBetAmount",
        "offset": 0,
        "slot": "11",
        "type": "t_mapping(t_bytes16,t_mapping(t_uint16,t_uint256))"
      },
      {
        "astId": 8518,
        "contract": "contracts/presets/MarketCollateralisedLinear.sol:MarketCollateralisedLinear",
        "label": "_potentialPayout",
        "offset": 0,
        "slot": "12",
        "type": "t_mapping(t_bytes16,t_uint256)"
      },
      {
        "astId": 8520,
        "contract": "contracts/presets/MarketCollateralisedLinear.sol:MarketCollateralisedLinear",
        "label": "_totalInPlay",
        "offset": 0,
        "slot": "13",
        "type": "t_uint256"
      },
      {
        "astId": 8522,
        "contract": "contracts/presets/MarketCollateralisedLinear.sol:MarketCollateralisedLinear",
        "label": "_totalExposure",
        "offset": 0,
        "slot": "14",
        "type": "t_uint256"
      },
      {
        "astId": 8528,
        "contract": "contracts/presets/MarketCollateralisedLinear.sol:MarketCollateralisedLinear",
        "label": "_signers",
        "offset": 0,
        "slot": "15",
        "type": "t_mapping(t_address,t_bool)"
      },
      {
        "astId": 9819,
        "contract": "contracts/presets/MarketCollateralisedLinear.sol:MarketCollateralisedLinear",
        "label": "_marketCollateral",
        "offset": 0,
        "slot": "16",
        "type": "t_mapping(t_bytes16,t_uint256)"
      },
      {
        "astId": 9821,
        "contract": "contracts/presets/MarketCollateralisedLinear.sol:MarketCollateralisedLinear",
        "label": "_totalCollateral",
        "offset": 0,
        "slot": "17",
        "type": "t_uint256"
      },
      {
        "astId": 9825,
        "contract": "contracts/presets/MarketCollateralisedLinear.sol:MarketCollateralisedLinear",
        "label": "_mostExpensivePropositionId",
        "offset": 0,
        "slot": "18",
        "type": "t_mapping(t_bytes16,t_bytes16)"
      },
      {
        "astId": 9829,
        "contract": "contracts/presets/MarketCollateralisedLinear.sol:MarketCollateralisedLinear",
        "label": "_betExposure",
        "offset": 0,
        "slot": "19",
        "type": "t_mapping(t_uint256,t_uint256)"
      }
    ],
    "types": {
      "t_address": {
        "encoding": "inplace",
        "label": "address",
        "numberOfBytes": "20"
      },
      "t_array(t_struct(Bet)8468_storage)dyn_storage": {
        "base": "t_struct(Bet)8468_storage",
        "encoding": "dynamic_array",
        "label": "struct Bet[]",
        "numberOfBytes": "32"
      },
      "t_array(t_uint64)dyn_storage": {
        "base": "t_uint64",
        "encoding": "dynamic_array",
        "label": "uint64[]",
        "numberOfBytes": "32"
      },
      "t_bool": {
        "encoding": "inplace",
        "label": "bool",
        "numberOfBytes": "1"
      },
      "t_bytes16": {
        "encoding": "inplace",
        "label": "bytes16",
        "numberOfBytes": "16"
      },
      "t_mapping(t_address,t_bool)": {
        "encoding": "mapping",
        "key": "t_address",
        "label": "mapping(address => bool)",
        "numberOfBytes": "32",
        "value": "t_bool"
      },
      "t_mapping(t_address,t_mapping(t_address,t_bool))": {
        "encoding": "mapping",
        "key": "t_address",
        "label": "mapping(address => mapping(address => bool))",
        "numberOfBytes": "32",
        "value": "t_mapping(t_address,t_bool)"
      },
      "t_mapping(t_address,t_uint256)": {
        "encoding": "mapping",
        "key": "t_address",
        "label": "mapping(address => uint256)",
        "numberOfBytes": "32",
        "value": "t_uint256"
      },
      "t_mapping(t_bytes16,t_array(t_uint64)dyn_storage)": {
        "encoding": "mapping",
        "key": "t_bytes16",
        "label": "mapping(bytes16 => uint64[])",
        "numberOfBytes": "32",
        "value": "t_array(t_uint64)dyn_storage"
      },
      "t_mapping(t_bytes16,t_bytes16)": {
        "encoding": "mapping",
        "key": "t_bytes16",
        "label": "mapping(bytes16 => bytes16)",
        "numberOfBytes": "32",
        "value": "t_bytes16"
      },
      "t_mapping(t_bytes16,t_mapping(t_uint16,t_uint256))": {
        "encoding": "mapping",
        "key": "t_bytes16",
        "label": "mapping(bytes16 => mapping(uint16 => uint256))",
        "numberOfBytes": "32",
        "value": "t_mapping(t_uint16,t_uint256)"
      },
      "t_mapping(t_bytes16,t_uint256)": {
        "encoding": "mapping",
        "key": "t_bytes16",
        "label": "mapping(bytes16 => uint256)",
        "numberOfBytes": "32",
        "value": "t_uint256"
      },
      "t_mapping(t_uint16,t_uint256)": {
        "encoding": "mapping",
        "key": "t_uint16",
        "label": "mapping(uint16 => uint256)",
        "numberOfBytes": "32",
        "value": "t_uint256"
      },
      "t_mapping(t_uint256,t_address)": {
        "encoding": "mapping",
        "key": "t_uint256",
        "label": "mapping(uint256 => address)",
        "numberOfBytes": "32",
        "value": "t_address"
      },
      "t_mapping(t_uint256,t_uint256)": {
        "encoding": "mapping",
        "key": "t_uint256",
        "label": "mapping(uint256 => uint256)",
        "numberOfBytes": "32",
        "value": "t_uint256"
      },
      "t_string_storage": {
        "encoding": "bytes",
        "label": "string",
        "numberOfBytes": "32"
      },
      "t_struct(Bet)8468_storage": {
        "encoding": "inplace",
        "label": "struct Bet",
        "members": [
          {
            "astId": 8455,
            "contract": "contracts/presets/MarketCollateralisedLinear.sol:MarketCollateralisedLinear",
            "label": "propositionId",
            "offset": 0,
            "slot": "0",
            "type": "t_bytes16"
          },
          {
            "astId": 8457,
            "contract": "contracts/presets/MarketCollateralisedLinear.sol:MarketCollateralisedLinear",
            "label": "marketId",
            "offset": 16,
            "slot": "0",
            "type": "t_bytes16"
          },
          {
            "astId": 8459,
            "contract": "contracts/presets/MarketCollateralisedLinear.sol:MarketCollateralisedLinear",
            "label": "amount",
            "offset": 0,
            "slot": "1",
            "type": "t_uint256"
          },
          {
            "astId": 8461,
            "contract": "contracts/presets/MarketCollateralisedLinear.sol:MarketCollateralisedLinear",
            "label": "payout",
            "offset": 0,
            "slot": "2",
            "type": "t_uint256"
          },
          {
            "astId": 8463,
            "contract": "contracts/presets/MarketCollateralisedLinear.sol:MarketCollateralisedLinear",
            "label": "payoutDate",
            "offset": 0,
            "slot": "3",
            "type": "t_uint256"
          },
          {
            "astId": 8465,
            "contract": "contracts/presets/MarketCollateralisedLinear.sol:MarketCollateralisedLinear",
            "label": "created",
            "offset": 0,
            "slot": "4",
            "type": "t_uint256"
          },
          {
            "astId": 8467,
            "contract": "contracts/presets/MarketCollateralisedLinear.sol:MarketCollateralisedLinear",
            "label": "settled",
            "offset": 0,
            "slot": "5",
            "type": "t_bool"
          }
        ],
        "numberOfBytes": "192"
      },
      "t_uint16": {
        "encoding": "inplace",
        "label": "uint16",
        "numberOfBytes": "2"
      },
      "t_uint256": {
        "encoding": "inplace",
        "label": "uint256",
        "numberOfBytes": "32"
      },
      "t_uint64": {
        "encoding": "inplace",
        "label": "uint64",
        "numberOfBytes": "8"
      }
    }
  }
}